{
  "_format": "hh3-artifact-1",
  "contractName": "MemedBattleResolver",
  "sourceName": "contracts/MemedBattleResolver.sol",
  "abi": [
    {
      "inputs": [
        {
          "internalType": "address",
          "name": "_battle",
          "type": "address"
        }
      ],
      "stateMutability": "nonpayable",
      "type": "constructor"
    },
    {
      "inputs": [
        {
          "internalType": "address",
          "name": "owner",
          "type": "address"
        }
      ],
      "name": "OwnableInvalidOwner",
      "type": "error"
    },
    {
      "inputs": [
        {
          "internalType": "address",
          "name": "account",
          "type": "address"
        }
      ],
      "name": "OwnableUnauthorizedAccount",
      "type": "error"
    },
    {
      "anonymous": false,
      "inputs": [
        {
          "indexed": true,
          "internalType": "uint256",
          "name": "battleId",
          "type": "uint256"
        },
        {
          "indexed": true,
          "internalType": "address",
          "name": "winner",
          "type": "address"
        },
        {
          "indexed": true,
          "internalType": "address",
          "name": "loser",
          "type": "address"
        },
        {
          "indexed": false,
          "internalType": "uint256",
          "name": "totalReward",
          "type": "uint256"
        }
      ],
      "name": "BattleResolved",
      "type": "event"
    },
    {
      "anonymous": false,
      "inputs": [
        {
          "indexed": true,
          "internalType": "address",
          "name": "previousOwner",
          "type": "address"
        },
        {
          "indexed": true,
          "internalType": "address",
          "name": "newOwner",
          "type": "address"
        }
      ],
      "name": "OwnershipTransferred",
      "type": "event"
    },
    {
      "inputs": [],
      "name": "BATTLE_REWARD_PERCENTAGE",
      "outputs": [
        {
          "internalType": "uint256",
          "name": "",
          "type": "uint256"
        }
      ],
      "stateMutability": "view",
      "type": "function"
    },
    {
      "inputs": [],
      "name": "ENGAGEMENT_WEIGHT",
      "outputs": [
        {
          "internalType": "uint256",
          "name": "",
          "type": "uint256"
        }
      ],
      "stateMutability": "view",
      "type": "function"
    },
    {
      "inputs": [],
      "name": "VALUE_WEIGHT",
      "outputs": [
        {
          "internalType": "uint256",
          "name": "",
          "type": "uint256"
        }
      ],
      "stateMutability": "view",
      "type": "function"
    },
    {
      "inputs": [
        {
          "internalType": "uint256",
          "name": "_battleId",
          "type": "uint256"
        }
      ],
      "name": "addBattleIdsToResolve",
      "outputs": [],
      "stateMutability": "nonpayable",
      "type": "function"
    },
    {
      "inputs": [],
      "name": "battleContract",
      "outputs": [
        {
          "internalType": "contract IMemedBattle",
          "name": "",
          "type": "address"
        }
      ],
      "stateMutability": "view",
      "type": "function"
    },
    {
      "inputs": [
        {
          "internalType": "uint256",
          "name": "",
          "type": "uint256"
        }
      ],
      "name": "battleIdsToResolve",
      "outputs": [
        {
          "internalType": "uint256",
          "name": "",
          "type": "uint256"
        }
      ],
      "stateMutability": "view",
      "type": "function"
    },
    {
      "inputs": [],
      "name": "getBattleIdsToResolve",
      "outputs": [
        {
          "internalType": "uint256[]",
          "name": "",
          "type": "uint256[]"
        }
      ],
      "stateMutability": "view",
      "type": "function"
    },
    {
      "inputs": [],
      "name": "owner",
      "outputs": [
        {
          "internalType": "address",
          "name": "",
          "type": "address"
        }
      ],
      "stateMutability": "view",
      "type": "function"
    },
    {
      "inputs": [],
      "name": "renounceOwnership",
      "outputs": [],
      "stateMutability": "nonpayable",
      "type": "function"
    },
    {
      "inputs": [
        {
          "internalType": "uint256",
          "name": "_battleId",
          "type": "uint256"
        }
      ],
      "name": "resolveBattle",
      "outputs": [],
      "stateMutability": "nonpayable",
      "type": "function"
    },
    {
      "inputs": [
        {
          "internalType": "address",
          "name": "newOwner",
          "type": "address"
        }
      ],
      "name": "transferOwnership",
      "outputs": [],
      "stateMutability": "nonpayable",
      "type": "function"
    }
  ],
  "bytecode": "0x60a060405234801561000f575f5ffd5b5060405161204a38038061204a8339818101604052810190610031919061020b565b335f73ffffffffffffffffffffffffffffffffffffffff168173ffffffffffffffffffffffffffffffffffffffff16036100a2575f6040517f1e4fbdf70000000000000000000000000000000000000000000000000000000081526004016100999190610245565b60405180910390fd5b6100b1816100ec60201b60201c565b508073ffffffffffffffffffffffffffffffffffffffff1660808173ffffffffffffffffffffffffffffffffffffffff16815250505061025e565b5f5f5f9054906101000a900473ffffffffffffffffffffffffffffffffffffffff169050815f5f6101000a81548173ffffffffffffffffffffffffffffffffffffffff021916908373ffffffffffffffffffffffffffffffffffffffff1602179055508173ffffffffffffffffffffffffffffffffffffffff168173ffffffffffffffffffffffffffffffffffffffff167f8be0079c531659141344cd1fd0a4f28419497f9722a3daafe3b4186f6b6457e060405160405180910390a35050565b5f5ffd5b5f73ffffffffffffffffffffffffffffffffffffffff82169050919050565b5f6101da826101b1565b9050919050565b6101ea816101d0565b81146101f4575f5ffd5b50565b5f81519050610205816101e1565b92915050565b5f602082840312156102205761021f6101ad565b5b5f61022d848285016101f7565b91505092915050565b61023f816101d0565b82525050565b5f6020820190506102585f830184610236565b92915050565b608051611daa6102a05f395f81816101ef015281816102a6015281816102e80152818161046301528181610623015281816108970152610fae0152611daa5ff3fe608060405234801561000f575f5ffd5b50600436106100a7575f3560e01c8063715018a61161006f578063715018a6146101515780638da5cb5b1461015b578063a1b748d514610179578063b8a1f05f14610197578063d93705a5146101b5578063f2fde38b146101d1576100a7565b80630ac75fda146100ab578063423b1ca3146100c75780635b77b387146100e55780635c31aea8146101035780636971a0b614610121575b5f5ffd5b6100c560048036038101906100c09190611383565b6101ed565b005b6100cf6102a4565b6040516100dc9190611428565b60405180910390f35b6100ed6102c8565b6040516100fa9190611450565b60405180910390f35b61010b6102cd565b6040516101189190611520565b60405180910390f35b61013b60048036038101906101369190611383565b6105bc565b6040516101489190611450565b60405180910390f35b6101596105dc565b005b6101636105ef565b6040516101709190611560565b60405180910390f35b610181610616565b60405161018e9190611450565b60405180910390f35b61019f61061b565b6040516101ac9190611450565b60405180910390f35b6101cf60048036038101906101ca9190611383565b610620565b005b6101eb60048036038101906101e691906115a3565b6110b4565b005b7f000000000000000000000000000000000000000000000000000000000000000073ffffffffffffffffffffffffffffffffffffffff163373ffffffffffffffffffffffffffffffffffffffff161461027b576040517f08c379a00000000000000000000000000000000000000000000000000000000081526004016102729061164e565b60405180910390fd5b600181908060018154018082558091505060019003905f5260205f20015f909190919091505550565b7f000000000000000000000000000000000000000000000000000000000000000081565b603c81565b60605f5f90505f5f90505b6001805490508110156103fd575f7f000000000000000000000000000000000000000000000000000000000000000073ffffffffffffffffffffffffffffffffffffffff16636dd0ce7a600184815481106103365761033561166c565b5b905f5260205f2001546040518263ffffffff1660e01b815260040161035b9190611450565b61018060405180830381865afa158015610377573d5f5f3e3d5ffd5b505050506040513d601f19601f8201168201806040525081019061039b919061188f565b9050600260038111156103b1576103b06118bb565b5b81610120015160038111156103c9576103c86118bb565b5b1480156103db57508061010001514210155b156103ef5782806103eb90611915565b9350505b5080806001019150506102d8565b505f8167ffffffffffffffff811115610419576104186116ad565b5b6040519080825280602002602001820160405280156104475781602001602082028036833780820191505090505b5090505f5f90505f5f90505b6001805490508110156105b2575f7f000000000000000000000000000000000000000000000000000000000000000073ffffffffffffffffffffffffffffffffffffffff16636dd0ce7a600184815481106104b1576104b061166c565b5b905f5260205f2001546040518263ffffffff1660e01b81526004016104d69190611450565b61018060405180830381865afa1580156104f2573d5f5f3e3d5ffd5b505050506040513d601f19601f82011682018060405250810190610516919061188f565b90506002600381111561052c5761052b6118bb565b5b8161012001516003811115610544576105436118bb565b5b14801561055657508061010001514210155b156105a4576001828154811061056f5761056e61166c565b5b905f5260205f20015484848061058490611915565b9550815181106105975761059661166c565b5b6020026020010181815250505b508080600101915050610453565b5081935050505090565b600181815481106105cb575f80fd5b905f5260205f20015f915090505481565b6105e4611138565b6105ed5f6111bf565b565b5f5f5f9054906101000a900473ffffffffffffffffffffffffffffffffffffffff16905090565b600581565b602881565b5f7f000000000000000000000000000000000000000000000000000000000000000073ffffffffffffffffffffffffffffffffffffffff16636dd0ce7a836040518263ffffffff1660e01b815260040161067a9190611450565b61018060405180830381865afa158015610696573d5f5f3e3d5ffd5b505050506040513d601f19601f820116820180604052508101906106ba919061188f565b90505f73ffffffffffffffffffffffffffffffffffffffff16816020015173ffffffffffffffffffffffffffffffffffffffff161415801561072c57505f73ffffffffffffffffffffffffffffffffffffffff16816040015173ffffffffffffffffffffffffffffffffffffffff1614155b61076b576040517f08c379a0000000000000000000000000000000000000000000000000000000008152600401610762906119a6565b60405180910390fd5b8061010001514210156107b3576040517f08c379a00000000000000000000000000000000000000000000000000000000081526004016107aa90611a0e565b60405180910390fd5b600260038111156107c7576107c66118bb565b5b81610120015160038111156107df576107de6118bb565b5b1461081f576040517f08c379a000000000000000000000000000000000000000000000000000000000815260040161081690611a76565b60405180910390fd5b6108276105ef565b73ffffffffffffffffffffffffffffffffffffffff163373ffffffffffffffffffffffffffffffffffffffff1614610894576040517f08c379a000000000000000000000000000000000000000000000000000000000815260040161088b90611ade565b60405180910390fd5b5f7f000000000000000000000000000000000000000000000000000000000000000073ffffffffffffffffffffffffffffffffffffffff166388cc58e46040518163ffffffff1660e01b8152600401602060405180830381865afa1580156108fe573d5f5f3e3d5ffd5b505050506040513d601f19601f820116820180604052508101906109229190611afc565b90505f8260a001518273ffffffffffffffffffffffffffffffffffffffff1663306d350885602001516040518263ffffffff1660e01b81526004016109679190611560565b602060405180830381865afa158015610982573d5f5f3e3d5ffd5b505050506040513d601f19601f820116820180604052508101906109a69190611b27565b6109b09190611b52565b90505f8360c001518373ffffffffffffffffffffffffffffffffffffffff1663306d350886604001516040518263ffffffff1660e01b81526004016109f59190611560565b602060405180830381865afa158015610a10573d5f5f3e3d5ffd5b505050506040513d601f19601f82011682018060405250810190610a349190611b27565b610a3e9190611b52565b90505f84606001518473ffffffffffffffffffffffffffffffffffffffff166327e2fee487602001516040518263ffffffff1660e01b8152600401610a839190611560565b602060405180830381865afa158015610a9e573d5f5f3e3d5ffd5b505050506040513d601f19601f82011682018060405250810190610ac29190611afc565b73ffffffffffffffffffffffffffffffffffffffff1663eb91d37e6040518163ffffffff1660e01b8152600401602060405180830381865afa158015610b0a573d5f5f3e3d5ffd5b505050506040513d601f19601f82011682018060405250810190610b2e9190611b27565b610b389190611b85565b90505f85608001518573ffffffffffffffffffffffffffffffffffffffff166327e2fee488604001516040518263ffffffff1660e01b8152600401610b7d9190611560565b602060405180830381865afa158015610b98573d5f5f3e3d5ffd5b505050506040513d601f19601f82011682018060405250810190610bbc9190611afc565b73ffffffffffffffffffffffffffffffffffffffff1663eb91d37e6040518163ffffffff1660e01b8152600401602060405180830381865afa158015610c04573d5f5f3e3d5ffd5b505050506040513d601f19601f82011682018060405250810190610c289190611b27565b610c329190611b85565b90505f6064602884610c449190611b85565b603c87610c519190611b85565b610c5b9190611bc6565b610c659190611c26565b90505f6064602884610c779190611b85565b603c87610c849190611b85565b610c8e9190611bc6565b610c989190611c26565b90505f81831015610cad578860400151610cb3565b88602001515b90505f896020015173ffffffffffffffffffffffffffffffffffffffff168273ffffffffffffffffffffffffffffffffffffffff1614610cf7578960200151610cfd565b89604001515b90505f8973ffffffffffffffffffffffffffffffffffffffff166377e989f36040518163ffffffff1660e01b8152600401602060405180830381865afa158015610d49573d5f5f3e3d5ffd5b505050506040513d601f19601f82011682018060405250810190610d6d9190611afc565b73ffffffffffffffffffffffffffffffffffffffff1662c36edf846040518263ffffffff1660e01b8152600401610da49190611560565b602060405180830381865afa158015610dbf573d5f5f3e3d5ffd5b505050506040513d601f19601f82011682018060405250810190610de39190611b27565b90505f5f821115610eda578a73ffffffffffffffffffffffffffffffffffffffff166377e989f36040518163ffffffff1660e01b8152600401602060405180830381865afa158015610e37573d5f5f3e3d5ffd5b505050506040513d601f19601f82011682018060405250810190610e5b9190611afc565b73ffffffffffffffffffffffffffffffffffffffff1663a7f7cd0d8486856040518463ffffffff1660e01b8152600401610e9793929190611c56565b6020604051808303815f875af1158015610eb3573d5f5f3e3d5ffd5b505050506040513d601f19601f82011682018060405250810190610ed79190611b27565b90505b8a73ffffffffffffffffffffffffffffffffffffffff166314da3fa585614e206040518363ffffffff1660e01b8152600401610f17929190611cc4565b5f604051808303815f87803b158015610f2e575f5ffd5b505af1158015610f40573d5f5f3e3d5ffd5b505050508a73ffffffffffffffffffffffffffffffffffffffff1663c923563485856040518363ffffffff1660e01b8152600401610f7f929190611ceb565b5f604051808303815f87803b158015610f96575f5ffd5b505af1158015610fa8573d5f5f3e3d5ffd5b505050507f000000000000000000000000000000000000000000000000000000000000000073ffffffffffffffffffffffffffffffffffffffff1663b90f38648e86846040518463ffffffff1660e01b815260040161100993929190611d12565b5f604051808303815f87803b158015611020575f5ffd5b505af1158015611032573d5f5f3e3d5ffd5b5050505061103f8d611280565b8273ffffffffffffffffffffffffffffffffffffffff168473ffffffffffffffffffffffffffffffffffffffff168e7f6a2f70f9cd37cba9c79b58d9ae7fa9c626add25f1b9ac66c368f9efff49341d88460405161109d9190611450565b60405180910390a450505050505050505050505050565b6110bc611138565b5f73ffffffffffffffffffffffffffffffffffffffff168173ffffffffffffffffffffffffffffffffffffffff160361112c575f6040517f1e4fbdf70000000000000000000000000000000000000000000000000000000081526004016111239190611560565b60405180910390fd5b611135816111bf565b50565b61114061133c565b73ffffffffffffffffffffffffffffffffffffffff1661115e6105ef565b73ffffffffffffffffffffffffffffffffffffffff16146111bd5761118161133c565b6040517f118cdaa70000000000000000000000000000000000000000000000000000000081526004016111b49190611560565b60405180910390fd5b565b5f5f5f9054906101000a900473ffffffffffffffffffffffffffffffffffffffff169050815f5f6101000a81548173ffffffffffffffffffffffffffffffffffffffff021916908373ffffffffffffffffffffffffffffffffffffffff1602179055508173ffffffffffffffffffffffffffffffffffffffff168173ffffffffffffffffffffffffffffffffffffffff167f8be0079c531659141344cd1fd0a4f28419497f9722a3daafe3b4186f6b6457e060405160405180910390a35050565b5f5f90505b6001805490508110156113385781600182815481106112a7576112a661166c565b5b905f5260205f2001540361132b5760018080805490506112c79190611b52565b815481106112d8576112d761166c565b5b905f5260205f200154600182815481106112f5576112f461166c565b5b905f5260205f200181905550600180548061131357611312611d47565b5b600190038181905f5260205f20015f90559055611338565b8080600101915050611285565b5050565b5f33905090565b5f604051905090565b5f5ffd5b5f819050919050565b61136281611350565b811461136c575f5ffd5b50565b5f8135905061137d81611359565b92915050565b5f602082840312156113985761139761134c565b5b5f6113a58482850161136f565b91505092915050565b5f73ffffffffffffffffffffffffffffffffffffffff82169050919050565b5f819050919050565b5f6113f06113eb6113e6846113ae565b6113cd565b6113ae565b9050919050565b5f611401826113d6565b9050919050565b5f611412826113f7565b9050919050565b61142281611408565b82525050565b5f60208201905061143b5f830184611419565b92915050565b61144a81611350565b82525050565b5f6020820190506114635f830184611441565b92915050565b5f81519050919050565b5f82825260208201905092915050565b5f819050602082019050919050565b61149b81611350565b82525050565b5f6114ac8383611492565b60208301905092915050565b5f602082019050919050565b5f6114ce82611469565b6114d88185611473565b93506114e383611483565b805f5b838110156115135781516114fa88826114a1565b9750611505836114b8565b9250506001810190506114e6565b5085935050505092915050565b5f6020820190508181035f83015261153881846114c4565b905092915050565b5f61154a826113ae565b9050919050565b61155a81611540565b82525050565b5f6020820190506115735f830184611551565b92915050565b61158281611540565b811461158c575f5ffd5b50565b5f8135905061159d81611579565b92915050565b5f602082840312156115b8576115b761134c565b5b5f6115c58482850161158f565b91505092915050565b5f82825260208201905092915050565b7f4f6e6c7920626174746c652063616e2061646420626174746c652069647320745f8201527f6f207265736f6c76650000000000000000000000000000000000000000000000602082015250565b5f6116386029836115ce565b9150611643826115de565b604082019050919050565b5f6020820190508181035f8301526116658161162c565b9050919050565b7f4e487b71000000000000000000000000000000000000000000000000000000005f52603260045260245ffd5b5f5ffd5b5f601f19601f8301169050919050565b7f4e487b71000000000000000000000000000000000000000000000000000000005f52604160045260245ffd5b6116e38261169d565b810181811067ffffffffffffffff82111715611702576117016116ad565b5b80604052505050565b5f611714611343565b905061172082826116da565b919050565b5f8151905061173381611359565b92915050565b5f8151905061174781611579565b92915050565b60048110611759575f5ffd5b50565b5f8151905061176a8161174d565b92915050565b5f610180828403121561178657611785611699565b5b61179161018061170b565b90505f6117a084828501611725565b5f8301525060206117b384828501611739565b60208301525060406117c784828501611739565b60408301525060606117db84828501611725565b60608301525060806117ef84828501611725565b60808301525060a061180384828501611725565b60a08301525060c061181784828501611725565b60c08301525060e061182b84828501611725565b60e08301525061010061184084828501611725565b610100830152506101206118568482850161175c565b6101208301525061014061186c84828501611739565b6101408301525061016061188284828501611725565b6101608301525092915050565b5f61018082840312156118a5576118a461134c565b5b5f6118b284828501611770565b91505092915050565b7f4e487b71000000000000000000000000000000000000000000000000000000005f52602160045260245ffd5b7f4e487b71000000000000000000000000000000000000000000000000000000005f52601160045260245ffd5b5f61191f82611350565b91507fffffffffffffffffffffffffffffffffffffffffffffffffffffffffffffffff8203611951576119506118e8565b5b600182019050919050565b7f496e76616c696420626174746c650000000000000000000000000000000000005f82015250565b5f611990600e836115ce565b915061199b8261195c565b602082019050919050565b5f6020820190508181035f8301526119bd81611984565b9050919050565b7f426174746c65206e6f7420656e646564000000000000000000000000000000005f82015250565b5f6119f86010836115ce565b9150611a03826119c4565b602082019050919050565b5f6020820190508181035f830152611a25816119ec565b9050919050565b7f426174746c65206e6f74207374617274656400000000000000000000000000005f82015250565b5f611a606012836115ce565b9150611a6b82611a2c565b602082019050919050565b5f6020820190508181035f830152611a8d81611a54565b9050919050565b7f556e617574686f72697a656400000000000000000000000000000000000000005f82015250565b5f611ac8600c836115ce565b9150611ad382611a94565b602082019050919050565b5f6020820190508181035f830152611af581611abc565b9050919050565b5f60208284031215611b1157611b1061134c565b5b5f611b1e84828501611739565b91505092915050565b5f60208284031215611b3c57611b3b61134c565b5b5f611b4984828501611725565b91505092915050565b5f611b5c82611350565b9150611b6783611350565b9250828203905081811115611b7f57611b7e6118e8565b5b92915050565b5f611b8f82611350565b9150611b9a83611350565b9250828202611ba881611350565b91508282048414831517611bbf57611bbe6118e8565b5b5092915050565b5f611bd082611350565b9150611bdb83611350565b9250828201905080821115611bf357611bf26118e8565b5b92915050565b7f4e487b71000000000000000000000000000000000000000000000000000000005f52601260045260245ffd5b5f611c3082611350565b9150611c3b83611350565b925082611c4b57611c4a611bf9565b5b828204905092915050565b5f606082019050611c695f830186611551565b611c766020830185611551565b611c836040830184611441565b949350505050565b5f819050919050565b5f611cae611ca9611ca484611c8b565b6113cd565b611350565b9050919050565b611cbe81611c94565b82525050565b5f604082019050611cd75f830185611551565b611ce46020830184611cb5565b9392505050565b5f604082019050611cfe5f830185611551565b611d0b6020830184611551565b9392505050565b5f606082019050611d255f830186611441565b611d326020830185611551565b611d3f6040830184611441565b949350505050565b7f4e487b71000000000000000000000000000000000000000000000000000000005f52603160045260245ffdfea264697066735822122044eebd664de058746e3bcca2b88d4b1af7f56d697f960a8c690e19cf597d598164736f6c634300081c0033",
  "linkReferences": {},
  "deployedLinkReferences": {},
  "immutableReferences": {
    "9883": [
      {
        "length": 32,
        "start": 495
      },
      {
        "length": 32,
        "start": 678
      },
      {
        "length": 32,
        "start": 744
      },
      {
        "length": 32,
        "start": 1123
      },
      {
        "length": 32,
        "start": 1571
      },
      {
        "length": 32,
        "start": 2199
      },
      {
        "length": 32,
        "start": 4014
      }
    ]
  },
  "inputSourceName": "project/contracts/MemedBattleResolver.sol",
  "buildInfoId": "solc-0_8_28-4c96ce5b0f0e13ecfc1a67644ca0c56cf46de5bb"
}