{
  "_format": "hh3-artifact-1",
  "contractName": "MemedTokenSale_test",
  "sourceName": "contracts/MemedTokenSale_test.sol",
  "abi": [
    {
      "inputs": [],
      "stateMutability": "nonpayable",
      "type": "constructor"
    },
    {
      "inputs": [
        {
          "internalType": "address",
          "name": "owner",
          "type": "address"
        }
      ],
      "name": "OwnableInvalidOwner",
      "type": "error"
    },
    {
      "inputs": [
        {
          "internalType": "address",
          "name": "account",
          "type": "address"
        }
      ],
      "name": "OwnableUnauthorizedAccount",
      "type": "error"
    },
    {
      "inputs": [],
      "name": "ReentrancyGuardReentrantCall",
      "type": "error"
    },
    {
      "anonymous": false,
      "inputs": [
        {
          "indexed": true,
          "internalType": "uint256",
          "name": "id",
          "type": "uint256"
        },
        {
          "indexed": true,
          "internalType": "address",
          "name": "user",
          "type": "address"
        },
        {
          "indexed": false,
          "internalType": "uint256",
          "name": "amount",
          "type": "uint256"
        }
      ],
      "name": "CommitmentMade",
      "type": "event"
    },
    {
      "anonymous": false,
      "inputs": [
        {
          "indexed": true,
          "internalType": "address",
          "name": "creator",
          "type": "address"
        },
        {
          "indexed": false,
          "internalType": "uint256",
          "name": "blockExpiresAt",
          "type": "uint256"
        },
        {
          "indexed": false,
          "internalType": "string",
          "name": "reason",
          "type": "string"
        }
      ],
      "name": "CreatorBlocked",
      "type": "event"
    },
    {
      "anonymous": false,
      "inputs": [
        {
          "indexed": true,
          "internalType": "uint256",
          "name": "id",
          "type": "uint256"
        },
        {
          "indexed": true,
          "internalType": "address",
          "name": "token",
          "type": "address"
        },
        {
          "indexed": true,
          "internalType": "address",
          "name": "warriorNFT",
          "type": "address"
        },
        {
          "indexed": false,
          "internalType": "uint256",
          "name": "totalRaised",
          "type": "uint256"
        }
      ],
      "name": "FairLaunchCompleted",
      "type": "event"
    },
    {
      "anonymous": false,
      "inputs": [
        {
          "indexed": true,
          "internalType": "uint256",
          "name": "id",
          "type": "uint256"
        },
        {
          "indexed": false,
          "internalType": "uint256",
          "name": "totalRaised",
          "type": "uint256"
        }
      ],
      "name": "FairLaunchFailed",
      "type": "event"
    },
    {
      "anonymous": false,
      "inputs": [
        {
          "indexed": true,
          "internalType": "uint256",
          "name": "id",
          "type": "uint256"
        }
      ],
      "name": "FairLaunchReadyToComplete",
      "type": "event"
    },
    {
      "anonymous": false,
      "inputs": [
        {
          "indexed": true,
          "internalType": "uint256",
          "name": "id",
          "type": "uint256"
        },
        {
          "indexed": true,
          "internalType": "address",
          "name": "creator",
          "type": "address"
        },
        {
          "indexed": false,
          "internalType": "uint256",
          "name": "startTime",
          "type": "uint256"
        },
        {
          "indexed": false,
          "internalType": "uint256",
          "name": "endTime",
          "type": "uint256"
        }
      ],
      "name": "FairLaunchStarted",
      "type": "event"
    },
    {
      "anonymous": false,
      "inputs": [
        {
          "indexed": true,
          "internalType": "uint256",
          "name": "id",
          "type": "uint256"
        },
        {
          "indexed": true,
          "internalType": "address",
          "name": "pair",
          "type": "address"
        },
        {
          "indexed": false,
          "internalType": "uint256",
          "name": "tokenAmount",
          "type": "uint256"
        },
        {
          "indexed": false,
          "internalType": "uint256",
          "name": "ethAmount",
          "type": "uint256"
        },
        {
          "indexed": false,
          "internalType": "uint256",
          "name": "liquidity",
          "type": "uint256"
        }
      ],
      "name": "LiquidityAdded",
      "type": "event"
    },
    {
      "anonymous": false,
      "inputs": [
        {
          "indexed": true,
          "internalType": "address",
          "name": "previousOwner",
          "type": "address"
        },
        {
          "indexed": true,
          "internalType": "address",
          "name": "newOwner",
          "type": "address"
        }
      ],
      "name": "OwnershipTransferred",
      "type": "event"
    },
    {
      "anonymous": false,
      "inputs": [
        {
          "indexed": true,
          "internalType": "uint256",
          "name": "id",
          "type": "uint256"
        },
        {
          "indexed": true,
          "internalType": "address",
          "name": "user",
          "type": "address"
        },
        {
          "indexed": false,
          "internalType": "uint256",
          "name": "feeAmount",
          "type": "uint256"
        },
        {
          "indexed": false,
          "internalType": "string",
          "name": "transactionType",
          "type": "string"
        }
      ],
      "name": "PlatformFeeCollected",
      "type": "event"
    },
    {
      "anonymous": false,
      "inputs": [
        {
          "indexed": false,
          "internalType": "uint256",
          "name": "platformFeePercentage",
          "type": "uint256"
        },
        {
          "indexed": false,
          "internalType": "uint256",
          "name": "feeDenominator",
          "type": "uint256"
        }
      ],
      "name": "PlatformFeeSet",
      "type": "event"
    },
    {
      "anonymous": false,
      "inputs": [
        {
          "indexed": true,
          "internalType": "uint256",
          "name": "id",
          "type": "uint256"
        },
        {
          "indexed": true,
          "internalType": "address",
          "name": "seller",
          "type": "address"
        },
        {
          "indexed": false,
          "internalType": "uint256",
          "name": "tokenAmount",
          "type": "uint256"
        },
        {
          "indexed": false,
          "internalType": "uint256",
          "name": "ethReceived",
          "type": "uint256"
        }
      ],
      "name": "TokenSold",
      "type": "event"
    },
    {
      "anonymous": false,
      "inputs": [
        {
          "indexed": true,
          "internalType": "uint256",
          "name": "id",
          "type": "uint256"
        },
        {
          "indexed": true,
          "internalType": "address",
          "name": "user",
          "type": "address"
        },
        {
          "indexed": false,
          "internalType": "uint256",
          "name": "tokenAmount",
          "type": "uint256"
        }
      ],
      "name": "TokensClaimed",
      "type": "event"
    },
    {
      "inputs": [],
      "name": "DECIMALS",
      "outputs": [
        {
          "internalType": "uint256",
          "name": "",
          "type": "uint256"
        }
      ],
      "stateMutability": "view",
      "type": "function"
    },
    {
      "inputs": [],
      "name": "FAIR_LAUNCH_DURATION",
      "outputs": [
        {
          "internalType": "uint256",
          "name": "",
          "type": "uint256"
        }
      ],
      "stateMutability": "view",
      "type": "function"
    },
    {
      "inputs": [],
      "name": "INITIAL_SUPPLY",
      "outputs": [
        {
          "internalType": "uint256",
          "name": "",
          "type": "uint256"
        }
      ],
      "stateMutability": "view",
      "type": "function"
    },
    {
      "inputs": [],
      "name": "MEMED_TEST_ETH",
      "outputs": [
        {
          "internalType": "address",
          "name": "",
          "type": "address"
        }
      ],
      "stateMutability": "view",
      "type": "function"
    },
    {
      "inputs": [],
      "name": "SCALE",
      "outputs": [
        {
          "internalType": "uint256",
          "name": "",
          "type": "uint256"
        }
      ],
      "stateMutability": "view",
      "type": "function"
    },
    {
      "inputs": [],
      "name": "SLOPE",
      "outputs": [
        {
          "internalType": "uint256",
          "name": "",
          "type": "uint256"
        }
      ],
      "stateMutability": "view",
      "type": "function"
    },
    {
      "inputs": [],
      "name": "TARGET_ETH_WEI",
      "outputs": [
        {
          "internalType": "uint256",
          "name": "",
          "type": "uint256"
        }
      ],
      "stateMutability": "view",
      "type": "function"
    },
    {
      "inputs": [],
      "name": "TOTAL_FOR_SALE",
      "outputs": [
        {
          "internalType": "uint256",
          "name": "",
          "type": "uint256"
        }
      ],
      "stateMutability": "view",
      "type": "function"
    },
    {
      "inputs": [
        {
          "internalType": "address",
          "name": "",
          "type": "address"
        }
      ],
      "name": "blockedCreators",
      "outputs": [
        {
          "internalType": "uint256",
          "name": "",
          "type": "uint256"
        }
      ],
      "stateMutability": "view",
      "type": "function"
    },
    {
      "inputs": [
        {
          "internalType": "uint256",
          "name": "_id",
          "type": "uint256"
        }
      ],
      "name": "claim",
      "outputs": [],
      "stateMutability": "nonpayable",
      "type": "function"
    },
    {
      "inputs": [
        {
          "internalType": "uint256",
          "name": "_id",
          "type": "uint256"
        },
        {
          "internalType": "uint256",
          "name": "_amount",
          "type": "uint256"
        }
      ],
      "name": "commitToFairLaunch",
      "outputs": [],
      "stateMutability": "nonpayable",
      "type": "function"
    },
    {
      "inputs": [
        {
          "internalType": "uint256",
          "name": "_id",
          "type": "uint256"
        },
        {
          "internalType": "address",
          "name": "_token",
          "type": "address"
        },
        {
          "internalType": "address",
          "name": "_pair",
          "type": "address"
        }
      ],
      "name": "completeFairLaunch",
      "outputs": [],
      "stateMutability": "nonpayable",
      "type": "function"
    },
    {
      "inputs": [
        {
          "internalType": "uint256",
          "name": "",
          "type": "uint256"
        }
      ],
      "name": "fairLaunchData",
      "outputs": [
        {
          "internalType": "enum FairLaunchStatus",
          "name": "status",
          "type": "uint8"
        },
        {
          "internalType": "uint256",
          "name": "fairLaunchStartTime",
          "type": "uint256"
        },
        {
          "internalType": "uint256",
          "name": "totalCommitted",
          "type": "uint256"
        },
        {
          "internalType": "uint256",
          "name": "totalSold",
          "type": "uint256"
        },
        {
          "internalType": "address",
          "name": "uniswapPair",
          "type": "address"
        },
        {
          "internalType": "uint256",
          "name": "createdAt",
          "type": "uint256"
        }
      ],
      "stateMutability": "view",
      "type": "function"
    },
    {
      "inputs": [],
      "name": "feeDenominator",
      "outputs": [
        {
          "internalType": "uint256",
          "name": "",
          "type": "uint256"
        }
      ],
      "stateMutability": "view",
      "type": "function"
    },
    {
      "inputs": [
        {
          "internalType": "address",
          "name": "_token",
          "type": "address"
        }
      ],
      "name": "getFairLaunchActive",
      "outputs": [
        {
          "internalType": "bool",
          "name": "",
          "type": "bool"
        }
      ],
      "stateMutability": "view",
      "type": "function"
    },
    {
      "inputs": [
        {
          "internalType": "uint256",
          "name": "_id",
          "type": "uint256"
        }
      ],
      "name": "getFairLaunchData",
      "outputs": [
        {
          "internalType": "enum FairLaunchStatus",
          "name": "",
          "type": "uint8"
        },
        {
          "internalType": "uint256",
          "name": "",
          "type": "uint256"
        }
      ],
      "stateMutability": "view",
      "type": "function"
    },
    {
      "inputs": [
        {
          "internalType": "uint256",
          "name": "_id",
          "type": "uint256"
        }
      ],
      "name": "getMaxCommittableETH",
      "outputs": [
        {
          "internalType": "uint256",
          "name": "",
          "type": "uint256"
        }
      ],
      "stateMutability": "view",
      "type": "function"
    },
    {
      "inputs": [
        {
          "internalType": "uint256",
          "name": "_id",
          "type": "uint256"
        },
        {
          "internalType": "uint256",
          "name": "_ethAmount",
          "type": "uint256"
        }
      ],
      "name": "getNativeToTokenAmount",
      "outputs": [
        {
          "internalType": "uint256",
          "name": "tokenAmount",
          "type": "uint256"
        }
      ],
      "stateMutability": "view",
      "type": "function"
    },
    {
      "inputs": [
        {
          "internalType": "uint256",
          "name": "_id",
          "type": "uint256"
        },
        {
          "internalType": "uint256",
          "name": "_delta",
          "type": "uint256"
        }
      ],
      "name": "getTokenToNativeToken",
      "outputs": [
        {
          "internalType": "uint256",
          "name": "ethValue",
          "type": "uint256"
        }
      ],
      "stateMutability": "view",
      "type": "function"
    },
    {
      "inputs": [
        {
          "internalType": "uint256",
          "name": "_id",
          "type": "uint256"
        },
        {
          "internalType": "address",
          "name": "_user",
          "type": "address"
        }
      ],
      "name": "getUserCommitment",
      "outputs": [
        {
          "components": [
            {
              "internalType": "uint256",
              "name": "amount",
              "type": "uint256"
            },
            {
              "internalType": "uint256",
              "name": "tokenAmount",
              "type": "uint256"
            },
            {
              "internalType": "bool",
              "name": "claimed",
              "type": "bool"
            },
            {
              "internalType": "bool",
              "name": "refunded",
              "type": "bool"
            }
          ],
          "internalType": "struct Commitment",
          "name": "",
          "type": "tuple"
        }
      ],
      "stateMutability": "view",
      "type": "function"
    },
    {
      "inputs": [],
      "name": "id",
      "outputs": [
        {
          "internalType": "uint256",
          "name": "",
          "type": "uint256"
        }
      ],
      "stateMutability": "view",
      "type": "function"
    },
    {
      "inputs": [
        {
          "internalType": "address",
          "name": "_creator",
          "type": "address"
        }
      ],
      "name": "isCreatorBlocked",
      "outputs": [
        {
          "internalType": "bool",
          "name": "blocked",
          "type": "bool"
        },
        {
          "internalType": "uint256",
          "name": "blockExpiresAt",
          "type": "uint256"
        }
      ],
      "stateMutability": "view",
      "type": "function"
    },
    {
      "inputs": [
        {
          "internalType": "address",
          "name": "_creator",
          "type": "address"
        }
      ],
      "name": "isMintable",
      "outputs": [
        {
          "internalType": "bool",
          "name": "",
          "type": "bool"
        }
      ],
      "stateMutability": "view",
      "type": "function"
    },
    {
      "inputs": [
        {
          "internalType": "uint256",
          "name": "_id",
          "type": "uint256"
        }
      ],
      "name": "isRefundable",
      "outputs": [
        {
          "internalType": "bool",
          "name": "",
          "type": "bool"
        }
      ],
      "stateMutability": "view",
      "type": "function"
    },
    {
      "inputs": [],
      "name": "memedFactory",
      "outputs": [
        {
          "internalType": "contract IMemedFactory",
          "name": "",
          "type": "address"
        }
      ],
      "stateMutability": "view",
      "type": "function"
    },
    {
      "inputs": [],
      "name": "owner",
      "outputs": [
        {
          "internalType": "address",
          "name": "",
          "type": "address"
        }
      ],
      "stateMutability": "view",
      "type": "function"
    },
    {
      "inputs": [],
      "name": "platformFeePercentage",
      "outputs": [
        {
          "internalType": "uint256",
          "name": "",
          "type": "uint256"
        }
      ],
      "stateMutability": "view",
      "type": "function"
    },
    {
      "inputs": [
        {
          "internalType": "uint256",
          "name": "s",
          "type": "uint256"
        }
      ],
      "name": "priceAt",
      "outputs": [
        {
          "internalType": "uint256",
          "name": "",
          "type": "uint256"
        }
      ],
      "stateMutability": "pure",
      "type": "function"
    },
    {
      "inputs": [
        {
          "internalType": "uint256",
          "name": "_id",
          "type": "uint256"
        }
      ],
      "name": "refund",
      "outputs": [],
      "stateMutability": "nonpayable",
      "type": "function"
    },
    {
      "inputs": [],
      "name": "renounceOwnership",
      "outputs": [],
      "stateMutability": "nonpayable",
      "type": "function"
    },
    {
      "inputs": [
        {
          "internalType": "uint256",
          "name": "_id",
          "type": "uint256"
        },
        {
          "internalType": "uint256",
          "name": "_amount",
          "type": "uint256"
        }
      ],
      "name": "sellTokens",
      "outputs": [],
      "stateMutability": "nonpayable",
      "type": "function"
    },
    {
      "inputs": [
        {
          "internalType": "address",
          "name": "_memedFactory",
          "type": "address"
        }
      ],
      "name": "setFactory",
      "outputs": [],
      "stateMutability": "nonpayable",
      "type": "function"
    },
    {
      "inputs": [
        {
          "internalType": "uint256",
          "name": "_platformFeePercentage",
          "type": "uint256"
        },
        {
          "internalType": "uint256",
          "name": "_feeDenominator",
          "type": "uint256"
        }
      ],
      "name": "setPlatformFee",
      "outputs": [],
      "stateMutability": "nonpayable",
      "type": "function"
    },
    {
      "inputs": [
        {
          "internalType": "address",
          "name": "_creator",
          "type": "address"
        }
      ],
      "name": "startFairLaunch",
      "outputs": [
        {
          "internalType": "uint256",
          "name": "",
          "type": "uint256"
        }
      ],
      "stateMutability": "nonpayable",
      "type": "function"
    },
    {
      "inputs": [
        {
          "internalType": "address",
          "name": "",
          "type": "address"
        }
      ],
      "name": "tokenIdByAddress",
      "outputs": [
        {
          "internalType": "uint256",
          "name": "",
          "type": "uint256"
        }
      ],
      "stateMutability": "view",
      "type": "function"
    },
    {
      "inputs": [
        {
          "internalType": "address",
          "name": "",
          "type": "address"
        },
        {
          "internalType": "uint256",
          "name": "",
          "type": "uint256"
        }
      ],
      "name": "tokenIdsByCreator",
      "outputs": [
        {
          "internalType": "uint256",
          "name": "",
          "type": "uint256"
        }
      ],
      "stateMutability": "view",
      "type": "function"
    },
    {
      "inputs": [
        {
          "internalType": "address",
          "name": "newOwner",
          "type": "address"
        }
      ],
      "name": "transferOwnership",
      "outputs": [],
      "stateMutability": "nonpayable",
      "type": "function"
    },
    {
      "stateMutability": "payable",
      "type": "receive"
    }
  ],
  "bytecode": "0x60806040526af8277896582678ac000000600255600a6003556103e8600455348015610029575f5ffd5b50335f73ffffffffffffffffffffffffffffffffffffffff168173ffffffffffffffffffffffffffffffffffffffff160361009b575f6040517f1e4fbdf700000000000000000000000000000000000000000000000000000000815260040161009291906101b7565b60405180910390fd5b6100aa816100b760201b60201c565b50600180819055506101d0565b5f5f5f9054906101000a900473ffffffffffffffffffffffffffffffffffffffff169050815f5f6101000a81548173ffffffffffffffffffffffffffffffffffffffff021916908373ffffffffffffffffffffffffffffffffffffffff1602179055508173ffffffffffffffffffffffffffffffffffffffff168173ffffffffffffffffffffffffffffffffffffffff167f8be0079c531659141344cd1fd0a4f28419497f9722a3daafe3b4186f6b6457e060405160405180910390a35050565b5f73ffffffffffffffffffffffffffffffffffffffff82169050919050565b5f6101a182610178565b9050919050565b6101b181610197565b82525050565b5f6020820190506101ca5f8301846101a8565b92915050565b6144ee806101dd5f395ff3fe60806040526004361061021d575f3560e01c80638da5cb5b11610122578063cdd78cfc116100aa578063e8378fbf1161006e578063e8378fbf1461084b578063eced552614610887578063ed9772b6146108b1578063efa4a329146108d9578063f2fde38b1461090357610224565b8063cdd78cfc1461076b578063dba64bb614610795578063dc5ea5d9146107bf578063dd125a0a146107e7578063e0eeb3d31461080f57610224565b8063ae9abdf0116100f1578063ae9abdf01461065d578063af640d0f14610687578063bcd658ad146106b1578063c06ac352146106ee578063cce6ef441461072f57610224565b80638da5cb5b146105935780639dab2054146105bd578063abf599fc146105f9578063ad7738d41461062157610224565b8063468dacad116101a5578063715018a611610174578063715018a61461049e57806375808d5b146104b45780637f1b6bab146104f1578063899456571461052d5780638b7cc6291461056957610224565b8063468dacad146103c257806347b4812f146103fe5780635bb478081461043a57806365c252691461046257610224565b80632badbfc0116101ec5780632badbfc0146102e05780632e0f26251461030a5780632ff2e9dc14610334578063379607f51461035e578063416155ac1461038657610224565b8063180b0d7e146102285780631eec71fb14610252578063222b15fb1461027c578063278ecde1146102b857610224565b3661022457005b5f5ffd5b348015610233575f5ffd5b5061023c61092b565b6040516102499190612f12565b60405180910390f35b34801561025d575f5ffd5b50610266610931565b6040516102739190612f12565b60405180910390f35b348015610287575f5ffd5b506102a2600480360381019061029d9190612f96565b61094c565b6040516102af9190612fdb565b60405180910390f35b3480156102c3575f5ffd5b506102de60048036038101906102d9919061301e565b610976565b005b3480156102eb575f5ffd5b506102f4610e28565b6040516103019190613058565b60405180910390f35b348015610315575f5ffd5b5061031e610e40565b60405161032b9190612f12565b60405180910390f35b34801561033f575f5ffd5b50610348610e4c565b6040516103559190612f12565b60405180910390f35b348015610369575f5ffd5b50610384600480360381019061037f919061301e565b610e52565b005b348015610391575f5ffd5b506103ac60048036038101906103a79190612f96565b611157565b6040516103b99190612fdb565b60405180910390f35b3480156103cd575f5ffd5b506103e860048036038101906103e39190613071565b6111fe565b6040516103f59190613120565b60405180910390f35b348015610409575f5ffd5b50610424600480360381019061041f9190613139565b6112b0565b6040516104319190612f12565b60405180910390f35b348015610445575f5ffd5b50610460600480360381019061045b9190612f96565b6113bf565b005b34801561046d575f5ffd5b5061048860048036038101906104839190613177565b611499565b6040516104959190612f12565b60405180910390f35b3480156104a9575f5ffd5b506104b26114c4565b005b3480156104bf575f5ffd5b506104da60048036038101906104d59190612f96565b6114d7565b6040516104e89291906131b5565b60405180910390f35b3480156104fc575f5ffd5b5061051760048036038101906105129190612f96565b611523565b6040516105249190612f12565b60405180910390f35b348015610538575f5ffd5b50610553600480360381019061054e919061301e565b611538565b6040516105609190612f12565b60405180910390f35b348015610574575f5ffd5b5061057d611713565b60405161058a9190612f12565b60405180910390f35b34801561059e575f5ffd5b506105a7611720565b6040516105b49190613058565b60405180910390f35b3480156105c8575f5ffd5b506105e360048036038101906105de919061301e565b611747565b6040516105f09190612f12565b60405180910390f35b348015610604575f5ffd5b5061061f600480360381019061061a91906131dc565b61178f565b005b34801561062c575f5ffd5b5061064760048036038101906106429190613139565b6119c7565b6040516106549190612f12565b60405180910390f35b348015610668575f5ffd5b50610671611b0d565b60405161067e9190612f12565b60405180910390f35b348015610692575f5ffd5b5061069b611b1a565b6040516106a89190612f12565b60405180910390f35b3480156106bc575f5ffd5b506106d760048036038101906106d2919061301e565b611b20565b6040516106e592919061329f565b60405180910390f35b3480156106f9575f5ffd5b50610714600480360381019061070f919061301e565b611b55565b604051610726969594939291906132c6565b60405180910390f35b34801561073a575f5ffd5b506107556004803603810190610750919061301e565b611bb8565b6040516107629190612fdb565b60405180910390f35b348015610776575f5ffd5b5061077f611c02565b60405161078c9190612f12565b60405180910390f35b3480156107a0575f5ffd5b506107a9611c08565b6040516107b69190613380565b60405180910390f35b3480156107ca575f5ffd5b506107e560048036038101906107e09190613139565b611c2d565b005b3480156107f2575f5ffd5b5061080d60048036038101906108089190613139565b611c80565b005b34801561081a575f5ffd5b5061083560048036038101906108309190612f96565b61218b565b6040516108429190612f12565b60405180910390f35b348015610856575f5ffd5b50610871600480360381019061086c9190612f96565b6123d0565b60405161087e9190612f12565b60405180910390f35b348015610892575f5ffd5b5061089b6123e5565b6040516108a89190612f12565b60405180910390f35b3480156108bc575f5ffd5b506108d760048036038101906108d29190613139565b6123f1565b005b3480156108e4575f5ffd5b506108ed612852565b6040516108fa9190612f12565b60405180910390f35b34801561090e575f5ffd5b5061092960048036038101906109249190612f96565b612859565b005b60045481565b670de0b6b3a7640000630bebc20061094991906133c6565b81565b5f5f610957836114d7565b509050610963836128dd565b15801561096e575080155b915050919050565b61097e612a6a565b5f60075f8381526020019081526020015f20905061099b82611bb8565b6109da576040517f08c379a00000000000000000000000000000000000000000000000000000000081526004016109d190613461565b60405180910390fd5b6004808111156109ed576109ec61322c565b5b815f015f9054906101000a900460ff166004811115610a0f57610a0e61322c565b5b14610c4f576004815f015f6101000a81548160ff02191690836004811115610a3a57610a3961322c565b5b02179055505f62278d0042610a4f919061347f565b905080600a5f60055f9054906101000a900473ffffffffffffffffffffffffffffffffffffffff1673ffffffffffffffffffffffffffffffffffffffff16635d3575a6876040518263ffffffff1660e01b8152600401610aaf9190612f12565b602060405180830381865afa158015610aca573d5f5f3e3d5ffd5b505050506040513d601f19601f82011682018060405250810190610aee91906134c6565b73ffffffffffffffffffffffffffffffffffffffff1673ffffffffffffffffffffffffffffffffffffffff1681526020019081526020015f208190555060055f9054906101000a900473ffffffffffffffffffffffffffffffffffffffff1673ffffffffffffffffffffffffffffffffffffffff16635d3575a6846040518263ffffffff1660e01b8152600401610b859190612f12565b602060405180830381865afa158015610ba0573d5f5f3e3d5ffd5b505050506040513d601f19601f82011682018060405250810190610bc491906134c6565b73ffffffffffffffffffffffffffffffffffffffff167fbcd955d7cef17ce72a0bc972618a13a1ea8cccd6447662596a5db5c43e0b587582604051610c09919061353b565b60405180910390a2827f17150adeeda7158a6b2adf5e6065d6ad3f05dcbb2ab7520f383c53edf0f799f78360020154604051610c459190612f12565b60405180910390a2505b5f816005015f3373ffffffffffffffffffffffffffffffffffffffff1673ffffffffffffffffffffffffffffffffffffffff1681526020019081526020015f2090505f815f015411610cd6576040517f08c379a0000000000000000000000000000000000000000000000000000000008152600401610ccd906135b1565b60405180910390fd5b8060020160019054906101000a900460ff1615610d28576040517f08c379a0000000000000000000000000000000000000000000000000000000008152600401610d1f90613619565b60405180910390fd5b5f73c190e6f26ce14e40d30251fde25927a73a5d58b673ffffffffffffffffffffffffffffffffffffffff1663a9059cbb33845f01546040518363ffffffff1660e01b8152600401610d7b929190613637565b6020604051808303815f875af1158015610d97573d5f5f3e3d5ffd5b505050506040513d601f19601f82011682018060405250810190610dbb9190613688565b905080610dfd576040517f08c379a0000000000000000000000000000000000000000000000000000000008152600401610df4906136fd565b60405180910390fd5b60018260020160016101000a81548160ff021916908315150217905550505050610e25612ab0565b50565b73c190e6f26ce14e40d30251fde25927a73a5d58b681565b670de0b6b3a764000081565b60025481565b610e5a612a6a565b5f60075f8381526020019081526020015f20905060036004811115610e8257610e8161322c565b5b815f015f9054906101000a900460ff166004811115610ea457610ea361322c565b5b14610ee4576040517f08c379a0000000000000000000000000000000000000000000000000000000008152600401610edb90613765565b60405180910390fd5b5f816005015f3373ffffffffffffffffffffffffffffffffffffffff1673ffffffffffffffffffffffffffffffffffffffff1681526020019081526020015f2090505f816001015411610f6c576040517f08c379a0000000000000000000000000000000000000000000000000000000008152600401610f63906137cd565b60405180910390fd5b806002015f9054906101000a900460ff1615610fbd576040517f08c379a0000000000000000000000000000000000000000000000000000000008152600401610fb490613835565b60405180910390fd5b6001816002015f6101000a81548160ff02191690831515021790555060055f9054906101000a900473ffffffffffffffffffffffffffffffffffffffff1673ffffffffffffffffffffffffffffffffffffffff16637bdc60d9846040518263ffffffff1660e01b81526004016110339190612f12565b5f60405180830381865afa15801561104d573d5f5f3e3d5ffd5b505050506040513d5f823e3d601f19601f820116820180604052508101906110759190613ace565b5f015173ffffffffffffffffffffffffffffffffffffffff1663a9059cbb3383600101546040518363ffffffff1660e01b81526004016110b6929190613637565b6020604051808303815f875af11580156110d2573d5f5f3e3d5ffd5b505050506040513d601f19601f820116820180604052508101906110f69190613688565b503373ffffffffffffffffffffffffffffffffffffffff16837f880f2ef2613b092f1a0a819f294155c98667eb294b7e6bf7a3810278142c1a1c83600101546040516111429190612f12565b60405180910390a35050611154612ab0565b50565b5f5f60095f8473ffffffffffffffffffffffffffffffffffffffff1673ffffffffffffffffffffffffffffffffffffffff1681526020019081526020015f205490505f81036111a9575f9150506111f9565b5f60075f8381526020019081526020015f209050600160048111156111d1576111d061322c565b5b815f015f9054906101000a900460ff1660048111156111f3576111f261322c565b5b14925050505b919050565b611206612ed2565b60075f8481526020019081526020015f206005015f8373ffffffffffffffffffffffffffffffffffffffff1673ffffffffffffffffffffffffffffffffffffffff1681526020019081526020015f206040518060800160405290815f820154815260200160018201548152602001600282015f9054906101000a900460ff161515151581526020016002820160019054906101000a900460ff161515151581525050905092915050565b5f5f60075f8581526020019081526020015f2090505f8160030154905080841115611310576040517f08c379a000000000000000000000000000000000000000000000000000000000815260040161130790613b5f565b60405180910390fd5b5f670de0b6b3a7640000826113259190613baa565b90505f670de0b6b3a76400008661133c9190613baa565b90505f8183600261134d91906133c6565b61135791906133c6565b90505f828361136691906133c6565b90505f81836113759190613bda565b686c6b935b8bbd40000061138991906133c6565b90505f670de0b6b3a764000060026113a191906133c6565b905080826113af9190613baa565b9850505050505050505092915050565b6113c7612ab9565b5f73ffffffffffffffffffffffffffffffffffffffff1660055f9054906101000a900473ffffffffffffffffffffffffffffffffffffffff1673ffffffffffffffffffffffffffffffffffffffff1614611456576040517f08c379a000000000000000000000000000000000000000000000000000000000815260040161144d90613c57565b60405180910390fd5b8060055f6101000a81548173ffffffffffffffffffffffffffffffffffffffff021916908373ffffffffffffffffffffffffffffffffffffffff16021790555050565b6008602052815f5260405f2081815481106114b2575f80fd5b905f5260205f20015f91509150505481565b6114cc612ab9565b6114d55f612b40565b565b5f5f600a5f8473ffffffffffffffffffffffffffffffffffffffff1673ffffffffffffffffffffffffffffffffffffffff1681526020019081526020015f205490508042109150915091565b600a602052805f5260405f205f915090505481565b5f5f60075f8481526020019081526020015f209050600160048111156115615761156061322c565b5b815f015f9054906101000a900460ff1660048111156115835761158261322c565b5b14611591575f91505061170e565b68022b1c8c1227a000008160020154106115ae575f91505061170e565b5f816002015468022b1c8c1227a000006115c89190613bda565b9050670de0b6b3a7640000630bebc2006115e291906133c6565b8260030154106115f6575f9250505061170e565b5f8260030154670de0b6b3a7640000630bebc20061161491906133c6565b61161e9190613bda565b90505f836003015490505f670de0b6b3a76400008261163d9190613baa565b90505f670de0b6b3a7640000846116549190613baa565b90505f8183600261166591906133c6565b61166f91906133c6565b90505f828361167e91906133c6565b90505f670de0b6b3a7640000600261169691906133c6565b82846116a2919061347f565b686c6b935b8bbd4000006116b691906133c6565b6116c09190613baa565b90505f8189106116d057816116d2565b885b90505f6003546004546116e59190613bda565b600454836116f391906133c6565b6116fd9190613baa565b9050809b5050505050505050505050505b919050565b686c6b935b8bbd40000081565b5f5f5f9054906101000a900473ffffffffffffffffffffffffffffffffffffffff16905090565b5f5f670de0b6b3a76400008361175d9190613baa565b9050670de0b6b3a764000081686c6b935b8bbd40000061177d91906133c6565b6117879190613baa565b915050919050565b60055f9054906101000a900473ffffffffffffffffffffffffffffffffffffffff1673ffffffffffffffffffffffffffffffffffffffff163373ffffffffffffffffffffffffffffffffffffffff161461181e576040517f08c379a000000000000000000000000000000000000000000000000000000000815260040161181590613ce5565b60405180910390fd5b5f60075f8581526020019081526020015f209050600260048111156118465761184561322c565b5b815f015f9054906101000a900460ff1660048111156118685761186761322c565b5b146118a8576040517f08c379a000000000000000000000000000000000000000000000000000000000815260040161189f90613d73565b60405180910390fd5b6003815f015f6101000a81548160ff021916908360048111156118ce576118cd61322c565b5b021790555081816004015f6101000a81548173ffffffffffffffffffffffffffffffffffffffff021916908373ffffffffffffffffffffffffffffffffffffffff1602179055508360095f8573ffffffffffffffffffffffffffffffffffffffff1673ffffffffffffffffffffffffffffffffffffffff1681526020019081526020015f20819055508173ffffffffffffffffffffffffffffffffffffffff168373ffffffffffffffffffffffffffffffffffffffff16857fa50e0b9679f5601c270cdad10a93f0cf7343e8bc4cd12d6c16db0567dc44519584600201546040516119b99190612f12565b60405180910390a450505050565b5f5f60075f8581526020019081526020015f2090505f816003015490505f84036119f5575f92505050611b07565b5f670de0b6b3a764000082611a0a9190613baa565b90505f686c6b935b8bbd40000090505f82686c6b935b8bbd4000006002611a3191906133c6565b611a3b91906133c6565b90505f8182611a4a91906133c6565b90505f88670de0b6b3a7640000686c6b935b8bbd4000006008611a6d91906133c6565b611a7791906133c6565b611a8191906133c6565b90505f8183611a90919061347f565b90505f611a9c82612c01565b9050848111611ab6575f9950505050505050505050611b07565b5f8582611ac39190613bda565b90505f876002611ad391906133c6565b90505f8183611ae29190613baa565b9050670de0b6b3a764000081611af891906133c6565b9c505050505050505050505050505b92915050565b68022b1c8c1227a0000081565b60065481565b5f5f5f60075f8581526020019081526020015f209050805f015f9054906101000a900460ff1681600201549250925050915091565b6007602052805f5260405f205f91509050805f015f9054906101000a900460ff1690806001015490806002015490806003015490806004015f9054906101000a900473ffffffffffffffffffffffffffffffffffffffff16908060070154905086565b5f5f60075f8481526020019081526020015f20905062278d008160010154611be0919061347f565b42118015611bfa575068022b1c8c1227a000008160020154105b915050919050565b60035481565b60055f9054906101000a900473ffffffffffffffffffffffffffffffffffffffff1681565b611c35612ab9565b81600381905550806004819055507fa30569950bb598ed8c92d36b49faae45e5cebba0f03647831e801b95cae04b3c8282604051611c74929190613d91565b60405180910390a15050565b611c88612a6a565b5f60075f8481526020019081526020015f20905060016004811115611cb057611caf61322c565b5b815f015f9054906101000a900460ff166004811115611cd257611cd161322c565b5b14611d12576040517f08c379a0000000000000000000000000000000000000000000000000000000008152600401611d0990613e02565b60405180910390fd5b62278d008160010154611d25919061347f565b421115611d67576040517f08c379a0000000000000000000000000000000000000000000000000000000008152600401611d5e90613e6a565b60405180910390fd5b5f8211611da9576040517f08c379a0000000000000000000000000000000000000000000000000000000008152600401611da090613ed2565b60405180910390fd5b73c190e6f26ce14e40d30251fde25927a73a5d58b673ffffffffffffffffffffffffffffffffffffffff166323b872dd3330856040518463ffffffff1660e01b8152600401611dfa93929190613ef0565b6020604051808303815f875af1158015611e16573d5f5f3e3d5ffd5b505050506040513d601f19601f82011682018060405250810190611e3a9190613688565b505f60045460035484611e4d91906133c6565b611e579190613baa565b90505f8184611e669190613bda565b90505f611e7386836119c7565b90505f8111611eb7576040517f08c379a0000000000000000000000000000000000000000000000000000000008152600401611eae90613f6f565b60405180910390fd5b670de0b6b3a7640000630bebc200611ecf91906133c6565b818560030154611edf919061347f565b1115611f20576040517f08c379a0000000000000000000000000000000000000000000000000000000008152600401611f1790613fd7565b60405180910390fd5b5f83111561200f5773c190e6f26ce14e40d30251fde25927a73a5d58b673ffffffffffffffffffffffffffffffffffffffff1663a9059cbb611f60611720565b856040518363ffffffff1660e01b8152600401611f7e929190613637565b6020604051808303815f875af1158015611f9a573d5f5f3e3d5ffd5b505050506040513d601f19601f82011682018060405250810190611fbe9190613688565b503373ffffffffffffffffffffffffffffffffffffffff16867f6f125bf8171b68b20f1b35b7783bcadd05ce66efeb4e38768a9ddcb1092255d185604051612006919061403f565b60405180910390a35b5f846005015f3373ffffffffffffffffffffffffffffffffffffffff1673ffffffffffffffffffffffffffffffffffffffff1681526020019081526020015f20905082815f015f828254612063919061347f565b9250508190555081816001015f82825461207d919061347f565b9250508190555081856003015f828254612097919061347f565b9250508190555082856002015f8282546120b1919061347f565b9250508190555081856006015f3373ffffffffffffffffffffffffffffffffffffffff1673ffffffffffffffffffffffffffffffffffffffff1681526020019081526020015f205f828254612106919061347f565b925050819055503373ffffffffffffffffffffffffffffffffffffffff16877ff5882f2b24a419b3c13b05df32cf16a803f2fa76ec81659cdb868658816d4249886040516121549190612f12565b60405180910390a368022b1c8c1227a0000085600201541061217a5761217987612c72565b5b5050505050612187612ab0565b5050565b5f5f73ffffffffffffffffffffffffffffffffffffffff168273ffffffffffffffffffffffffffffffffffffffff1614612208576121c88261094c565b612207576040517f08c379a00000000000000000000000000000000000000000000000000000000081526004016121fe906140db565b60405180910390fd5b5b60055f9054906101000a900473ffffffffffffffffffffffffffffffffffffffff1673ffffffffffffffffffffffffffffffffffffffff163373ffffffffffffffffffffffffffffffffffffffff1614612297576040517f08c379a000000000000000000000000000000000000000000000000000000000815260040161228e90614169565b60405180910390fd5b60065f8154809291906122a990614187565b91905055505f60075f60065481526020019081526020015f2090506001815f015f6101000a81548160ff021916908360048111156122ea576122e961322c565b5b021790555042816001018190555042816007018190555060085f8473ffffffffffffffffffffffffffffffffffffffff1673ffffffffffffffffffffffffffffffffffffffff1681526020019081526020015f20600654908060018154018082558091505060019003905f5260205f20015f90919091909150558273ffffffffffffffffffffffffffffffffffffffff166006547fb6948299ea38c9d5ac9f98be169b0bff6eb2bf98881811a8518b8115731a7ebe4262278d00426123af919061347f565b6040516123bd929190613d91565b60405180910390a3600654915050919050565b6009602052805f5260405f205f915090505481565b670de0b6b3a764000081565b6123f9612a6a565b5f811161243b576040517f08c379a000000000000000000000000000000000000000000000000000000000815260040161243290614218565b60405180910390fd5b8060075f8481526020019081526020015f206006015f3373ffffffffffffffffffffffffffffffffffffffff1673ffffffffffffffffffffffffffffffffffffffff1681526020019081526020015f205410156124cd576040517f08c379a00000000000000000000000000000000000000000000000000000000081526004016124c490614280565b60405180910390fd5b5f60075f8481526020019081526020015f2090505f6124ec84846112b0565b90505f6004546003548361250091906133c6565b61250a9190613baa565b90505f81836125199190613bda565b90508273c190e6f26ce14e40d30251fde25927a73a5d58b673ffffffffffffffffffffffffffffffffffffffff166370a08231306040518263ffffffff1660e01b81526004016125699190613058565b602060405180830381865afa158015612584573d5f5f3e3d5ffd5b505050506040513d601f19601f820116820180604052508101906125a891906142b2565b10156125e9576040517f08c379a00000000000000000000000000000000000000000000000000000000081526004016125e090614327565b60405180910390fd5b5f8211156126d85773c190e6f26ce14e40d30251fde25927a73a5d58b673ffffffffffffffffffffffffffffffffffffffff1663a9059cbb612629611720565b846040518363ffffffff1660e01b8152600401612647929190613637565b6020604051808303815f875af1158015612663573d5f5f3e3d5ffd5b505050506040513d601f19601f820116820180604052508101906126879190613688565b503373ffffffffffffffffffffffffffffffffffffffff16867f6f125bf8171b68b20f1b35b7783bcadd05ce66efeb4e38768a9ddcb1092255d1846040516126cf919061438f565b60405180910390a35b84846006015f3373ffffffffffffffffffffffffffffffffffffffff1673ffffffffffffffffffffffffffffffffffffffff1681526020019081526020015f205f8282546127269190613bda565b9250508190555084846003015f8282546127409190613bda565b9250508190555082846002015f82825461275a9190613bda565b9250508190555073c190e6f26ce14e40d30251fde25927a73a5d58b673ffffffffffffffffffffffffffffffffffffffff1663a9059cbb33836040518363ffffffff1660e01b81526004016127b0929190613637565b6020604051808303815f875af11580156127cc573d5f5f3e3d5ffd5b505050506040513d601f19601f820116820180604052508101906127f09190613688565b503373ffffffffffffffffffffffffffffffffffffffff16867ff37a75478aa82ebef98fa4a7c71324f93c6c5d6236ba80a86ed5f703dc552038878460405161283a929190613d91565b60405180910390a35050505061284e612ab0565b5050565b62278d0081565b612861612ab9565b5f73ffffffffffffffffffffffffffffffffffffffff168173ffffffffffffffffffffffffffffffffffffffff16036128d1575f6040517f1e4fbdf70000000000000000000000000000000000000000000000000000000081526004016128c89190613058565b60405180910390fd5b6128da81612b40565b50565b5f5f60085f8473ffffffffffffffffffffffffffffffffffffffff1673ffffffffffffffffffffffffffffffffffffffff1681526020019081526020015f2080548060200260200160405190810160405280929190818152602001828054801561296457602002820191905f5260205f20905b815481526020019060010190808311612950575b505050505090505f5f90505b8151811015612a5f576003600481111561298d5761298c61322c565b5b60075f8484815181106129a3576129a26143bb565b5b602002602001015181526020019081526020015f205f015f9054906101000a900460ff1660048111156129d9576129d861322c565b5b1480612a425750600160048111156129f4576129f361322c565b5b60075f848481518110612a0a57612a096143bb565b5b602002602001015181526020019081526020015f205f015f9054906101000a900460ff166004811115612a4057612a3f61322c565b5b145b15612a5257600192505050612a65565b8080600101915050612970565b505f9150505b919050565b600260015403612aa6576040517f3ee5aeb500000000000000000000000000000000000000000000000000000000815260040160405180910390fd5b6002600181905550565b60018081905550565b612ac1612ecb565b73ffffffffffffffffffffffffffffffffffffffff16612adf611720565b73ffffffffffffffffffffffffffffffffffffffff1614612b3e57612b02612ecb565b6040517f118cdaa7000000000000000000000000000000000000000000000000000000008152600401612b359190613058565b60405180910390fd5b565b5f5f5f9054906101000a900473ffffffffffffffffffffffffffffffffffffffff169050815f5f6101000a81548173ffffffffffffffffffffffffffffffffffffffff021916908373ffffffffffffffffffffffffffffffffffffffff1602179055508173ffffffffffffffffffffffffffffffffffffffff168173ffffffffffffffffffffffffffffffffffffffff167f8be0079c531659141344cd1fd0a4f28419497f9722a3daafe3b4186f6b6457e060405160405180910390a35050565b5f5f8203612c11575f9050612c6d565b5f6002600184612c21919061347f565b612c2b9190613baa565b90505f8390505b80821015612c67578190506002828386612c4c9190613baa565b612c56919061347f565b612c609190613baa565b9150612c32565b80925050505b919050565b5f60075f8381526020019081526020015f20905060016004811115612c9a57612c9961322c565b5b815f015f9054906101000a900460ff166004811115612cbc57612cbb61322c565b5b14612cfc576040517f08c379a0000000000000000000000000000000000000000000000000000000008152600401612cf390614432565b60405180910390fd5b68022b1c8c1227a0000081600201541015612d4c576040517f08c379a0000000000000000000000000000000000000000000000000000000008152600401612d439061449a565b60405180910390fd5b6003815f015f6101000a81548160ff02191690836004811115612d7257612d7161322c565b5b02179055505f73c190e6f26ce14e40d30251fde25927a73a5d58b673ffffffffffffffffffffffffffffffffffffffff1663a9059cbb60055f9054906101000a900473ffffffffffffffffffffffffffffffffffffffff1684600201546040518363ffffffff1660e01b8152600401612dec929190613637565b6020604051808303815f875af1158015612e08573d5f5f3e3d5ffd5b505050506040513d601f19601f82011682018060405250810190612e2c9190613688565b905080612e6e576040517f08c379a0000000000000000000000000000000000000000000000000000000008152600401612e65906136fd565b60405180910390fd5b6002825f015f6101000a81548160ff02191690836004811115612e9457612e9361322c565b5b0217905550827fca57ed74e41661ab4c390df89db7dea5626a9ca998ed0bd135cf3ef5cee5daeb60405160405180910390a2505050565b5f33905090565b60405180608001604052805f81526020015f81526020015f151581526020015f151581525090565b5f819050919050565b612f0c81612efa565b82525050565b5f602082019050612f255f830184612f03565b92915050565b5f604051905090565b5f5ffd5b5f5ffd5b5f73ffffffffffffffffffffffffffffffffffffffff82169050919050565b5f612f6582612f3c565b9050919050565b612f7581612f5b565b8114612f7f575f5ffd5b50565b5f81359050612f9081612f6c565b92915050565b5f60208284031215612fab57612faa612f34565b5b5f612fb884828501612f82565b91505092915050565b5f8115159050919050565b612fd581612fc1565b82525050565b5f602082019050612fee5f830184612fcc565b92915050565b612ffd81612efa565b8114613007575f5ffd5b50565b5f8135905061301881612ff4565b92915050565b5f6020828403121561303357613032612f34565b5b5f6130408482850161300a565b91505092915050565b61305281612f5b565b82525050565b5f60208201905061306b5f830184613049565b92915050565b5f5f6040838503121561308757613086612f34565b5b5f6130948582860161300a565b92505060206130a585828601612f82565b9150509250929050565b6130b881612efa565b82525050565b6130c781612fc1565b82525050565b608082015f8201516130e15f8501826130af565b5060208201516130f460208501826130af565b50604082015161310760408501826130be565b50606082015161311a60608501826130be565b50505050565b5f6080820190506131335f8301846130cd565b92915050565b5f5f6040838503121561314f5761314e612f34565b5b5f61315c8582860161300a565b925050602061316d8582860161300a565b9150509250929050565b5f5f6040838503121561318d5761318c612f34565b5b5f61319a85828601612f82565b92505060206131ab8582860161300a565b9150509250929050565b5f6040820190506131c85f830185612fcc565b6131d56020830184612f03565b9392505050565b5f5f5f606084860312156131f3576131f2612f34565b5b5f6132008682870161300a565b935050602061321186828701612f82565b925050604061322286828701612f82565b9150509250925092565b7f4e487b71000000000000000000000000000000000000000000000000000000005f52602160045260245ffd5b6005811061326a5761326961322c565b5b50565b5f81905061327a82613259565b919050565b5f6132898261326d565b9050919050565b6132998161327f565b82525050565b5f6040820190506132b25f830185613290565b6132bf6020830184612f03565b9392505050565b5f60c0820190506132d95f830189613290565b6132e66020830188612f03565b6132f36040830187612f03565b6133006060830186612f03565b61330d6080830185613049565b61331a60a0830184612f03565b979650505050505050565b5f819050919050565b5f61334861334361333e84612f3c565b613325565b612f3c565b9050919050565b5f6133598261332e565b9050919050565b5f61336a8261334f565b9050919050565b61337a81613360565b82525050565b5f6020820190506133935f830184613371565b92915050565b7f4e487b71000000000000000000000000000000000000000000000000000000005f52601160045260245ffd5b5f6133d082612efa565b91506133db83612efa565b92508282026133e981612efa565b91508282048414831517613400576133ff613399565b5b5092915050565b5f82825260208201905092915050565b7f46616972206c61756e6368206e6f74206661696c6564000000000000000000005f82015250565b5f61344b601683613407565b915061345682613417565b602082019050919050565b5f6020820190508181035f8301526134788161343f565b9050919050565b5f61348982612efa565b915061349483612efa565b92508282019050808211156134ac576134ab613399565b5b92915050565b5f815190506134c081612f6c565b92915050565b5f602082840312156134db576134da612f34565b5b5f6134e8848285016134b2565b91505092915050565b7f4661696c65642066616972206c61756e636800000000000000000000000000005f82015250565b5f613525601283613407565b9150613530826134f1565b602082019050919050565b5f60408201905061354e5f830184612f03565b818103602083015261355f81613519565b905092915050565b7f4e6f20636f6d6d69746d656e74000000000000000000000000000000000000005f82015250565b5f61359b600d83613407565b91506135a682613567565b602082019050919050565b5f6020820190508181035f8301526135c88161358f565b9050919050565b7f416c726561647920726566756e646564000000000000000000000000000000005f82015250565b5f613603601083613407565b915061360e826135cf565b602082019050919050565b5f6020820190508181035f830152613630816135f7565b9050919050565b5f60408201905061364a5f830185613049565b6136576020830184612f03565b9392505050565b61366781612fc1565b8114613671575f5ffd5b50565b5f815190506136828161365e565b92915050565b5f6020828403121561369d5761369c612f34565b5b5f6136aa84828501613674565b91505092915050565b7f5472616e73666572206661696c656400000000000000000000000000000000005f82015250565b5f6136e7600f83613407565b91506136f2826136b3565b602082019050919050565b5f6020820190508181035f830152613714816136db565b9050919050565b7f46616972206c61756e6368206e6f7420636f6d706c65746564000000000000005f82015250565b5f61374f601983613407565b915061375a8261371b565b602082019050919050565b5f6020820190508181035f83015261377c81613743565b9050919050565b7f4e6f20746f6b656e7320746f20636c61696d00000000000000000000000000005f82015250565b5f6137b7601283613407565b91506137c282613783565b602082019050919050565b5f6020820190508181035f8301526137e4816137ab565b9050919050565b7f416c726561647920636c61696d656400000000000000000000000000000000005f82015250565b5f61381f600f83613407565b915061382a826137eb565b602082019050919050565b5f6020820190508181035f83015261384c81613813565b9050919050565b5f5ffd5b5f601f19601f8301169050919050565b7f4e487b71000000000000000000000000000000000000000000000000000000005f52604160045260245ffd5b61389d82613857565b810181811067ffffffffffffffff821117156138bc576138bb613867565b5b80604052505050565b5f6138ce612f2b565b90506138da8282613894565b919050565b5f5ffd5b5f5ffd5b5f5ffd5b5f67ffffffffffffffff82111561390557613904613867565b5b61390e82613857565b9050602081019050919050565b8281835e5f83830152505050565b5f61393b613936846138eb565b6138c5565b905082815260208101848484011115613957576139566138e7565b5b61396284828561391b565b509392505050565b5f82601f83011261397e5761397d6138e3565b5b815161398e848260208601613929565b91505092915050565b5f61010082840312156139ad576139ac613853565b5b6139b86101006138c5565b90505f6139c7848285016134b2565b5f8301525060206139da848285016134b2565b60208301525060406139ee848285016134b2565b604083015250606082015167ffffffffffffffff811115613a1257613a116138df565b5b613a1e8482850161396a565b606083015250608082015167ffffffffffffffff811115613a4257613a416138df565b5b613a4e8482850161396a565b60808301525060a082015167ffffffffffffffff811115613a7257613a716138df565b5b613a7e8482850161396a565b60a08301525060c082015167ffffffffffffffff811115613aa257613aa16138df565b5b613aae8482850161396a565b60c08301525060e0613ac284828501613674565b60e08301525092915050565b5f60208284031215613ae357613ae2612f34565b5b5f82015167ffffffffffffffff811115613b0057613aff612f38565b5b613b0c84828501613997565b91505092915050565b7f64656c7461203e207300000000000000000000000000000000000000000000005f82015250565b5f613b49600983613407565b9150613b5482613b15565b602082019050919050565b5f6020820190508181035f830152613b7681613b3d565b9050919050565b7f4e487b71000000000000000000000000000000000000000000000000000000005f52601260045260245ffd5b5f613bb482612efa565b9150613bbf83612efa565b925082613bcf57613bce613b7d565b5b828204905092915050565b5f613be482612efa565b9150613bef83612efa565b9250828203905081811115613c0757613c06613399565b5b92915050565b7f466163746f727920616c726561647920736574000000000000000000000000005f82015250565b5f613c41601383613407565b9150613c4c82613c0d565b602082019050919050565b5f6020820190508181035f830152613c6e81613c35565b9050919050565b7f4f6e6c7920666163746f72792063616e2063616c6c20746869732066756e63745f8201527f696f6e0000000000000000000000000000000000000000000000000000000000602082015250565b5f613ccf602383613407565b9150613cda82613c75565b604082019050919050565b5f6020820190508181035f830152613cfc81613cc3565b9050919050565b7f46616972206c61756e6368206e6f7420726561647920746f20636f6d706c65745f8201527f6500000000000000000000000000000000000000000000000000000000000000602082015250565b5f613d5d602183613407565b9150613d6882613d03565b604082019050919050565b5f6020820190508181035f830152613d8a81613d51565b9050919050565b5f604082019050613da45f830185612f03565b613db16020830184612f03565b9392505050565b7f46616972206c61756e6368206e6f7420616374697665000000000000000000005f82015250565b5f613dec601683613407565b9150613df782613db8565b602082019050919050565b5f6020820190508181035f830152613e1981613de0565b9050919050565b7f46616972206c61756e636820656e6465640000000000000000000000000000005f82015250565b5f613e54601183613407565b9150613e5f82613e20565b602082019050919050565b5f6020820190508181035f830152613e8181613e48565b9050919050565b7f4d7573742073656e6420455448000000000000000000000000000000000000005f82015250565b5f613ebc600d83613407565b9150613ec782613e88565b602082019050919050565b5f6020820190508181035f830152613ee981613eb0565b9050919050565b5f606082019050613f035f830186613049565b613f106020830185613049565b613f1d6040830184612f03565b949350505050565b7f496e73756666696369656e7420455448000000000000000000000000000000005f82015250565b5f613f59601083613407565b9150613f6482613f25565b602082019050919050565b5f6020820190508181035f830152613f8681613f4d565b9050919050565b7f4578636565647320746f6b656e7320666f722073616c650000000000000000005f82015250565b5f613fc1601783613407565b9150613fcc82613f8d565b602082019050919050565b5f6020820190508181035f830152613fee81613fb5565b9050919050565b7f62757900000000000000000000000000000000000000000000000000000000005f82015250565b5f614029600383613407565b915061403482613ff5565b602082019050919050565b5f6040820190506140525f830184612f03565b81810360208301526140638161401d565b905092915050565b7f43726561746f7220697320626c6f636b6564206f7220616c72656164792068615f8201527f73206120746f6b656e0000000000000000000000000000000000000000000000602082015250565b5f6140c5602983613407565b91506140d08261406b565b604082019050919050565b5f6020820190508181035f8301526140f2816140b9565b9050919050565b7f4f6e6c7920666163746f72792063616e2073746172742066616972206c61756e5f8201527f6368000000000000000000000000000000000000000000000000000000000000602082015250565b5f614153602283613407565b915061415e826140f9565b604082019050919050565b5f6020820190508181035f83015261418081614147565b9050919050565b5f61419182612efa565b91507fffffffffffffffffffffffffffffffffffffffffffffffffffffffffffffffff82036141c3576141c2613399565b5b600182019050919050565b7f416d6f756e74206d75737420626520706f7369746976650000000000000000005f82015250565b5f614202601783613407565b915061420d826141ce565b602082019050919050565b5f6020820190508181035f83015261422f816141f6565b9050919050565b7f496e73756666696369656e7420746f6b656e2062616c616e63650000000000005f82015250565b5f61426a601a83613407565b915061427582614236565b602082019050919050565b5f6020820190508181035f8301526142978161425e565b9050919050565b5f815190506142ac81612ff4565b92915050565b5f602082840312156142c7576142c6612f34565b5b5f6142d48482850161429e565b91505092915050565b7f496e73756666696369656e742045544820696e20636f6e7472616374000000005f82015250565b5f614311601c83613407565b915061431c826142dd565b602082019050919050565b5f6020820190508181035f83015261433e81614305565b9050919050565b7f73656c6c000000000000000000000000000000000000000000000000000000005f82015250565b5f614379600483613407565b915061438482614345565b602082019050919050565b5f6040820190506143a25f830184612f03565b81810360208301526143b38161436d565b905092915050565b7f4e487b71000000000000000000000000000000000000000000000000000000005f52603260045260245ffd5b7f46616972206c61756e6368206e6f74206c61756e6368696e67000000000000005f82015250565b5f61441c601983613407565b9150614427826143e8565b602082019050919050565b5f6020820190508181035f83015261444981614410565b9050919050565b7f496e73756666696369656e7420455448207261697365640000000000000000005f82015250565b5f614484601783613407565b915061448f82614450565b602082019050919050565b5f6020820190508181035f8301526144b181614478565b905091905056fea2646970667358221220f17b70f2d94118001fd5031be5d34ebb20a41f967bdacfac2d6801f0e080ced164736f6c634300081c0033",
  "linkReferences": {},
  "deployedLinkReferences": {},
  "immutableReferences": {},
  "inputSourceName": "project/contracts/MemedTokenSale_test.sol",
  "buildInfoId": "solc-0_8_28-d714f949e7711bc777bd1489510d8f88969e531e"
}