{
  "_format": "hh3-artifact-1",
  "contractName": "MemedTokenSale",
  "sourceName": "contracts/MemedTokenSale.sol",
  "abi": [
    {
      "inputs": [],
      "stateMutability": "nonpayable",
      "type": "constructor"
    },
    {
      "inputs": [
        {
          "internalType": "address",
          "name": "owner",
          "type": "address"
        }
      ],
      "name": "OwnableInvalidOwner",
      "type": "error"
    },
    {
      "inputs": [
        {
          "internalType": "address",
          "name": "account",
          "type": "address"
        }
      ],
      "name": "OwnableUnauthorizedAccount",
      "type": "error"
    },
    {
      "inputs": [],
      "name": "ReentrancyGuardReentrantCall",
      "type": "error"
    },
    {
      "anonymous": false,
      "inputs": [
        {
          "indexed": true,
          "internalType": "uint256",
          "name": "id",
          "type": "uint256"
        },
        {
          "indexed": true,
          "internalType": "address",
          "name": "user",
          "type": "address"
        },
        {
          "indexed": false,
          "internalType": "uint256",
          "name": "tokens",
          "type": "uint256"
        },
        {
          "indexed": false,
          "internalType": "uint256",
          "name": "refund",
          "type": "uint256"
        }
      ],
      "name": "Claimed",
      "type": "event"
    },
    {
      "anonymous": false,
      "inputs": [
        {
          "indexed": true,
          "internalType": "uint256",
          "name": "id",
          "type": "uint256"
        },
        {
          "indexed": true,
          "internalType": "address",
          "name": "user",
          "type": "address"
        },
        {
          "indexed": false,
          "internalType": "uint256",
          "name": "amount",
          "type": "uint256"
        },
        {
          "indexed": false,
          "internalType": "uint256",
          "name": "tokens",
          "type": "uint256"
        }
      ],
      "name": "CommitmentCancelled",
      "type": "event"
    },
    {
      "anonymous": false,
      "inputs": [
        {
          "indexed": true,
          "internalType": "uint256",
          "name": "id",
          "type": "uint256"
        },
        {
          "indexed": true,
          "internalType": "address",
          "name": "user",
          "type": "address"
        },
        {
          "indexed": false,
          "internalType": "uint256",
          "name": "amount",
          "type": "uint256"
        },
        {
          "indexed": false,
          "internalType": "uint256",
          "name": "tokens",
          "type": "uint256"
        }
      ],
      "name": "CommitmentMade",
      "type": "event"
    },
    {
      "anonymous": false,
      "inputs": [
        {
          "indexed": true,
          "internalType": "uint256",
          "name": "id",
          "type": "uint256"
        },
        {
          "indexed": true,
          "internalType": "address",
          "name": "token",
          "type": "address"
        },
        {
          "indexed": true,
          "internalType": "address",
          "name": "pair",
          "type": "address"
        },
        {
          "indexed": false,
          "internalType": "uint256",
          "name": "totalRaised",
          "type": "uint256"
        }
      ],
      "name": "FairLaunchCompleted",
      "type": "event"
    },
    {
      "anonymous": false,
      "inputs": [
        {
          "indexed": true,
          "internalType": "uint256",
          "name": "id",
          "type": "uint256"
        },
        {
          "indexed": false,
          "internalType": "uint256",
          "name": "totalRaised",
          "type": "uint256"
        }
      ],
      "name": "FairLaunchFailed",
      "type": "event"
    },
    {
      "anonymous": false,
      "inputs": [
        {
          "indexed": true,
          "internalType": "address",
          "name": "previousOwner",
          "type": "address"
        },
        {
          "indexed": true,
          "internalType": "address",
          "name": "newOwner",
          "type": "address"
        }
      ],
      "name": "OwnershipTransferred",
      "type": "event"
    },
    {
      "inputs": [],
      "name": "DECIMALS",
      "outputs": [
        {
          "internalType": "uint256",
          "name": "",
          "type": "uint256"
        }
      ],
      "stateMutability": "view",
      "type": "function"
    },
    {
      "inputs": [],
      "name": "FAIR_LAUNCH_COOLDOWN",
      "outputs": [
        {
          "internalType": "uint256",
          "name": "",
          "type": "uint256"
        }
      ],
      "stateMutability": "view",
      "type": "function"
    },
    {
      "inputs": [],
      "name": "FAIR_LAUNCH_DURATION",
      "outputs": [
        {
          "internalType": "uint256",
          "name": "",
          "type": "uint256"
        }
      ],
      "stateMutability": "view",
      "type": "function"
    },
    {
      "inputs": [],
      "name": "LP_ETH",
      "outputs": [
        {
          "internalType": "uint256",
          "name": "",
          "type": "uint256"
        }
      ],
      "stateMutability": "view",
      "type": "function"
    },
    {
      "inputs": [],
      "name": "PRICE_PER_TOKEN_WEI",
      "outputs": [
        {
          "internalType": "uint256",
          "name": "",
          "type": "uint256"
        }
      ],
      "stateMutability": "view",
      "type": "function"
    },
    {
      "inputs": [],
      "name": "RAISE_ETH",
      "outputs": [
        {
          "internalType": "uint256",
          "name": "",
          "type": "uint256"
        }
      ],
      "stateMutability": "view",
      "type": "function"
    },
    {
      "inputs": [],
      "name": "TOTAL_FOR_SALE",
      "outputs": [
        {
          "internalType": "uint256",
          "name": "",
          "type": "uint256"
        }
      ],
      "stateMutability": "view",
      "type": "function"
    },
    {
      "inputs": [
        {
          "internalType": "address",
          "name": "",
          "type": "address"
        }
      ],
      "name": "blockedCreators",
      "outputs": [
        {
          "internalType": "uint256",
          "name": "",
          "type": "uint256"
        }
      ],
      "stateMutability": "view",
      "type": "function"
    },
    {
      "inputs": [
        {
          "internalType": "uint256",
          "name": "_id",
          "type": "uint256"
        },
        {
          "internalType": "uint256",
          "name": "commitAmount",
          "type": "uint256"
        }
      ],
      "name": "calculateTokensForCommitment",
      "outputs": [
        {
          "internalType": "uint256",
          "name": "tokens",
          "type": "uint256"
        },
        {
          "internalType": "uint256",
          "name": "refundAmount",
          "type": "uint256"
        }
      ],
      "stateMutability": "view",
      "type": "function"
    },
    {
      "inputs": [
        {
          "internalType": "uint256",
          "name": "_id",
          "type": "uint256"
        }
      ],
      "name": "cancelCommit",
      "outputs": [],
      "stateMutability": "nonpayable",
      "type": "function"
    },
    {
      "inputs": [
        {
          "internalType": "uint256",
          "name": "_id",
          "type": "uint256"
        }
      ],
      "name": "claim",
      "outputs": [],
      "stateMutability": "nonpayable",
      "type": "function"
    },
    {
      "inputs": [
        {
          "internalType": "uint256",
          "name": "_id",
          "type": "uint256"
        }
      ],
      "name": "commitToFairLaunch",
      "outputs": [],
      "stateMutability": "payable",
      "type": "function"
    },
    {
      "inputs": [
        {
          "internalType": "uint256",
          "name": "_id",
          "type": "uint256"
        },
        {
          "internalType": "address",
          "name": "_token",
          "type": "address"
        },
        {
          "internalType": "address",
          "name": "_pair",
          "type": "address"
        }
      ],
      "name": "completeFairLaunch",
      "outputs": [],
      "stateMutability": "nonpayable",
      "type": "function"
    },
    {
      "inputs": [
        {
          "internalType": "uint256",
          "name": "",
          "type": "uint256"
        }
      ],
      "name": "fairLaunchData",
      "outputs": [
        {
          "internalType": "enum FairLaunchStatus",
          "name": "status",
          "type": "uint8"
        },
        {
          "internalType": "uint256",
          "name": "fairLaunchStartTime",
          "type": "uint256"
        },
        {
          "internalType": "uint256",
          "name": "totalCommitted",
          "type": "uint256"
        },
        {
          "internalType": "uint256",
          "name": "totalSold",
          "type": "uint256"
        },
        {
          "internalType": "address",
          "name": "uniswapPair",
          "type": "address"
        },
        {
          "internalType": "uint256",
          "name": "createdAt",
          "type": "uint256"
        }
      ],
      "stateMutability": "view",
      "type": "function"
    },
    {
      "inputs": [
        {
          "internalType": "uint256",
          "name": "_id",
          "type": "uint256"
        }
      ],
      "name": "finalizeSale",
      "outputs": [],
      "stateMutability": "nonpayable",
      "type": "function"
    },
    {
      "inputs": [
        {
          "internalType": "uint256",
          "name": "_id",
          "type": "uint256"
        },
        {
          "internalType": "address",
          "name": "user",
          "type": "address"
        }
      ],
      "name": "getExpectedClaim",
      "outputs": [
        {
          "internalType": "uint256",
          "name": "tokens",
          "type": "uint256"
        },
        {
          "internalType": "uint256",
          "name": "refundAmount",
          "type": "uint256"
        }
      ],
      "stateMutability": "view",
      "type": "function"
    },
    {
      "inputs": [
        {
          "internalType": "address",
          "name": "_t",
          "type": "address"
        }
      ],
      "name": "getFairLaunchActive",
      "outputs": [
        {
          "internalType": "bool",
          "name": "",
          "type": "bool"
        }
      ],
      "stateMutability": "view",
      "type": "function"
    },
    {
      "inputs": [
        {
          "internalType": "uint256",
          "name": "_id",
          "type": "uint256"
        }
      ],
      "name": "getFairLaunchStatus",
      "outputs": [
        {
          "internalType": "enum FairLaunchStatus",
          "name": "",
          "type": "uint8"
        }
      ],
      "stateMutability": "view",
      "type": "function"
    },
    {
      "inputs": [
        {
          "internalType": "uint256",
          "name": "_id",
          "type": "uint256"
        },
        {
          "internalType": "address",
          "name": "u",
          "type": "address"
        }
      ],
      "name": "getUserCommitment",
      "outputs": [
        {
          "components": [
            {
              "internalType": "uint256",
              "name": "amount",
              "type": "uint256"
            },
            {
              "internalType": "uint256",
              "name": "tokenAmount",
              "type": "uint256"
            },
            {
              "internalType": "bool",
              "name": "claimed",
              "type": "bool"
            },
            {
              "internalType": "bool",
              "name": "refunded",
              "type": "bool"
            }
          ],
          "internalType": "struct Commitment",
          "name": "",
          "type": "tuple"
        }
      ],
      "stateMutability": "view",
      "type": "function"
    },
    {
      "inputs": [],
      "name": "id",
      "outputs": [
        {
          "internalType": "uint256",
          "name": "",
          "type": "uint256"
        }
      ],
      "stateMutability": "view",
      "type": "function"
    },
    {
      "inputs": [
        {
          "internalType": "uint256",
          "name": "_id",
          "type": "uint256"
        }
      ],
      "name": "isCompletable",
      "outputs": [
        {
          "internalType": "bool",
          "name": "",
          "type": "bool"
        }
      ],
      "stateMutability": "view",
      "type": "function"
    },
    {
      "inputs": [
        {
          "internalType": "address",
          "name": "_c",
          "type": "address"
        }
      ],
      "name": "isCreatorBlocked",
      "outputs": [
        {
          "internalType": "bool",
          "name": "",
          "type": "bool"
        },
        {
          "internalType": "uint256",
          "name": "",
          "type": "uint256"
        }
      ],
      "stateMutability": "view",
      "type": "function"
    },
    {
      "inputs": [
        {
          "internalType": "address",
          "name": "_c",
          "type": "address"
        }
      ],
      "name": "isMintable",
      "outputs": [
        {
          "internalType": "bool",
          "name": "",
          "type": "bool"
        }
      ],
      "stateMutability": "view",
      "type": "function"
    },
    {
      "inputs": [
        {
          "internalType": "uint256",
          "name": "_id",
          "type": "uint256"
        }
      ],
      "name": "isRefundable",
      "outputs": [
        {
          "internalType": "bool",
          "name": "",
          "type": "bool"
        }
      ],
      "stateMutability": "view",
      "type": "function"
    },
    {
      "inputs": [],
      "name": "memedFactory",
      "outputs": [
        {
          "internalType": "contract IMemedFactory",
          "name": "",
          "type": "address"
        }
      ],
      "stateMutability": "view",
      "type": "function"
    },
    {
      "inputs": [],
      "name": "owner",
      "outputs": [
        {
          "internalType": "address",
          "name": "",
          "type": "address"
        }
      ],
      "stateMutability": "view",
      "type": "function"
    },
    {
      "inputs": [
        {
          "internalType": "uint256",
          "name": "tokenAmount",
          "type": "uint256"
        }
      ],
      "name": "quoteNetForTokens",
      "outputs": [
        {
          "internalType": "uint256",
          "name": "",
          "type": "uint256"
        }
      ],
      "stateMutability": "pure",
      "type": "function"
    },
    {
      "inputs": [
        {
          "internalType": "uint256",
          "name": "_id",
          "type": "uint256"
        }
      ],
      "name": "refund",
      "outputs": [],
      "stateMutability": "nonpayable",
      "type": "function"
    },
    {
      "inputs": [],
      "name": "renounceOwnership",
      "outputs": [],
      "stateMutability": "nonpayable",
      "type": "function"
    },
    {
      "inputs": [
        {
          "internalType": "address",
          "name": "_f",
          "type": "address"
        }
      ],
      "name": "setFactory",
      "outputs": [],
      "stateMutability": "nonpayable",
      "type": "function"
    },
    {
      "inputs": [
        {
          "internalType": "address",
          "name": "_creator",
          "type": "address"
        }
      ],
      "name": "startFairLaunch",
      "outputs": [
        {
          "internalType": "uint256",
          "name": "",
          "type": "uint256"
        },
        {
          "internalType": "uint256",
          "name": "",
          "type": "uint256"
        }
      ],
      "stateMutability": "nonpayable",
      "type": "function"
    },
    {
      "inputs": [
        {
          "internalType": "address",
          "name": "",
          "type": "address"
        }
      ],
      "name": "tokenIdByAddress",
      "outputs": [
        {
          "internalType": "uint256",
          "name": "",
          "type": "uint256"
        }
      ],
      "stateMutability": "view",
      "type": "function"
    },
    {
      "inputs": [
        {
          "internalType": "address",
          "name": "",
          "type": "address"
        },
        {
          "internalType": "uint256",
          "name": "",
          "type": "uint256"
        }
      ],
      "name": "tokenIdsByCreator",
      "outputs": [
        {
          "internalType": "uint256",
          "name": "",
          "type": "uint256"
        }
      ],
      "stateMutability": "view",
      "type": "function"
    },
    {
      "inputs": [
        {
          "internalType": "address",
          "name": "newOwner",
          "type": "address"
        }
      ],
      "name": "transferOwnership",
      "outputs": [],
      "stateMutability": "nonpayable",
      "type": "function"
    },
    {
      "stateMutability": "payable",
      "type": "receive"
    }
  ],
  "bytecode": "0x6080604052348015600e575f5ffd5b503380603357604051631e4fbdf760e01b81525f600482015260240160405180910390fd5b603a816043565b50600180556092565b5f80546001600160a01b038381166001600160a01b0319831681178455604051919092169283917f8be0079c531659141344cd1fd0a4f28419497f9722a3daafe3b4186f6b6457e09190a35050565b611e988061009f5f395ff3fe6080604052600436106101f4575f3560e01c8063aa92938011610108578063caa551eb1161009d578063e0eeb3d31161006d578063e0eeb3d3146106f2578063e8378fbf14610711578063efa4a3291461073c578063f2fde38b14610752578063fc15ce7914610771575f5ffd5b8063caa551eb14610676578063cce6ef4414610695578063d6e3b252146106b4578063dba64bb6146106d3575f5ffd5b8063b0b1fbe4116100d8578063b0b1fbe414610594578063bb69c711146105b3578063bc2ecdac146105cb578063c06ac35214610606575f5ffd5b8063aa9293801461052e578063abf599fc1461054d578063ae6ad1db1461056c578063af640d0f1461057f575f5ffd5b8063468dacad11610189578063715018a611610159578063715018a61461045557806375808d5b1461046957806376edb6f4146104b75780637f1b6bab146104d35780638da5cb5b146104fe575f5ffd5b8063468dacad1461030a578063532803bd146103e35780635bb478081461041757806365c2526914610436575f5ffd5b8063278ecde1116101c4578063278ecde1146102905780632e0f2625146102b1578063379607f5146102cc578063416155ac146102eb575f5ffd5b80631eec71fb146101ff5780631f67e7a2146102265780632145dd6614610242578063222b15fb14610261575f5ffd5b366101fb57005b5f5ffd5b34801561020a575f5ffd5b50610213610787565b6040519081526020015b60405180910390f35b348015610231575f5ffd5b5061021368022b1c8c1227a0000081565b34801561024d575f5ffd5b5061021361025c366004611b0c565b6107a0565b34801561026c575f5ffd5b5061028061027b366004611b37565b6107c9565b604051901515815260200161021d565b34801561029b575f5ffd5b506102af6102aa366004611b0c565b61080a565b005b3480156102bc575f5ffd5b50610213670de0b6b3a764000081565b3480156102d7575f5ffd5b506102af6102e6366004611b0c565b61098c565b3480156102f6575f5ffd5b50610280610305366004611b37565b610d70565b348015610315575f5ffd5b506103ac610324366004611b52565b604080516080810182525f808252602082018190529181018290526060810191909152505f8281526004602090815260408083206001600160a01b03851684526005018252918290208251608081018452815481526001820154928101929092526002015460ff80821615159383019390935261010090049091161515606082015292915050565b60405161021d9190815181526020808301519082015260408083015115159082015260609182015115159181019190915260800190565b3480156103ee575f5ffd5b506104026103fd366004611b80565b610dc3565b6040805192835260208301919091520161021d565b348015610422575f5ffd5b506102af610431366004611b37565b610ed3565b348015610441575f5ffd5b50610213610450366004611ba0565b610f3c565b348015610460575f5ffd5b506102af610f67565b348015610474575f5ffd5b506104a0610483366004611b37565b6001600160a01b03165f9081526007602052604090205442811191565b60408051921515835260208301919091520161021d565b3480156104c2575f5ffd5b506102136802258f7630b178000081565b3480156104de575f5ffd5b506102136104ed366004611b37565b60076020525f908152604090205481565b348015610509575f5ffd5b505f546001600160a01b03165b6040516001600160a01b03909116815260200161021d565b348015610539575f5ffd5b506102af610548366004611b0c565b610f7a565b348015610558575f5ffd5b506102af610567366004611bca565b61121b565b6102af61057a366004611b0c565b6112d2565b34801561058a575f5ffd5b5061021360035481565b34801561059f575f5ffd5b506102806105ae366004611b0c565b611443565b3480156105be575f5ffd5b50610213643e16926aaa81565b3480156105d6575f5ffd5b506105f96105e5366004611b0c565b5f9081526004602052604090205460ff1690565b60405161021d9190611c3d565b348015610611575f5ffd5b50610664610620366004611b0c565b600460208190525f918252604090912080546001820154600283015460038401549484015460079094015460ff90931694919390926001600160a01b039091169086565b60405161021d96959493929190611c4b565b348015610681575f5ffd5b50610402610690366004611b52565b6114a3565b3480156106a0575f5ffd5b506102806106af366004611b0c565b6115ae565b3480156106bf575f5ffd5b506102af6106ce366004611b0c565b61162d565b3480156106de575f5ffd5b50600254610516906001600160a01b031681565b3480156106fd575f5ffd5b5061040261070c366004611b37565b6117d4565b34801561071c575f5ffd5b5061021361072b366004611b37565b60066020525f908152604090205481565b348015610747575f5ffd5b5061021362093a8081565b34801561075d575f5ffd5b506102af61076c366004611b37565b61190d565b34801561077c575f5ffd5b5061021362278d0081565b61079d670de0b6b3a76400006308f0d180611c9e565b81565b5f670de0b6b3a76400006107b9643e16926aaa84611c9e565b6107c39190611cb5565b92915050565b5f5f6107ec836001600160a01b03165f9081526007602052604090205442811191565b5090506107f883611947565b158015610803575080155b9392505050565b610812611a67565b5f818152600460205260409020610828826115ae565b61085e5760405162461bcd60e51b81526020600482015260026024820152616e6f60f01b60448201526064015b60405180910390fd5b6003815460ff16600381111561087657610876611c09565b146108c157805460ff19166003178155600281015460405190815282907f17150adeeda7158a6b2adf5e6065d6ad3f05dcbb2ab7520f383c53edf0f799f79060200160405180910390a25b335f90815260058201602052604090208054158015906108eb57506002810154610100900460ff16155b6109075760405162461bcd60e51b815260040161085590611cd4565b60028101805461ff00191661010017905580546040515f9133918381818185875af1925050503d805f8114610957576040519150601f19603f3d011682016040523d82523d5f602084013e61095c565b606091505b505090508061097d5760405162461bcd60e51b815260040161085590611cf2565b50505061098960018055565b50565b610994611a67565b5f8181526004602052604090206002815460ff1660038111156109b9576109b9611c09565b146109f35760405162461bcd60e51b815260206004820152600a602482015269696e636f6d706c65746560b01b6044820152606401610855565b335f9081526005820160205260409020805415801590610a185750600281015460ff16155b610a345760405162461bcd60e51b815260040161085590611cd4565b5f68022b1c8c1227a00000836002015410610a81576002830154610a64670de0b6b3a76400006308f0d180611c9e565b8354610a709190611c9e565b610a7a9190611cb5565b9050610aaa565b8154643e16926aaa90610a9d90670de0b6b3a764000090611c9e565b610aa79190611cb5565b90505b600254604051637bdc60d960e01b8152600481018690525f916001600160a01b031690637bdc60d990602401608060405180830381865afa158015610af1573d5f5f3e3d5ffd5b505050506040513d601f19601f82011682018060405250810190610b159190611d2f565b516040516370a0823160e01b81523060048201529091505f906001600160a01b038316906370a0823190602401602060405180830381865afa158015610b5d573d5f5f3e3d5ffd5b505050506040513d601f19601f82011682018060405250810190610b819190611dba565b905080831115610b8f578092505b60028501545f9068022b1c8c1227a00000108015610bb757506002850154610100900460ff16155b15610c06575f866002015468022b1c8c1227a00000875f0154610bda9190611c9e565b610be49190611cb5565b8654909150610bf4908290611dd1565b91504780831115610c03578092505b50505b60028501805460ff191660019081179091558501849055335f90815260068701602052604090208490558015610c485760028501805461ff0019166101001790555b60405163a9059cbb60e01b8152336004820152602481018590526001600160a01b0384169063a9059cbb906044016020604051808303815f875af1158015610c92573d5f5f3e3d5ffd5b505050506040513d601f19601f82011682018060405250810190610cb69190611de4565b508015610d24576040515f90339083908381818185875af1925050503d805f8114610cfc576040519150601f19603f3d011682016040523d82523d5f602084013e610d01565b606091505b5050905080610d225760405162461bcd60e51b815260040161085590611cf2565b505b6040805185815260208101839052339189917fd9cb1e2714d65a111c0f20f060176ad657496bd47a3de04ec7c3d4ca232112ac910160405180910390a350505050505061098960018055565b6001600160a01b0381165f90815260066020526040812054808203610d9757505f92915050565b60015f8281526004602052604090205460ff166003811115610dbb57610dbb611c09565b149392505050565b5f828152600460205260408120819083610e0d5760405162461bcd60e51b815260206004820152600b60248201526a1e995c9bc8185b5bdd5b9d60aa1b6044820152606401610855565b5f848260020154610e1e9190611dfd565b905068022b1c8c1227a000008110610ea25780610e47670de0b6b3a76400006308f0d180611c9e565b610e519087611c9e565b610e5b9190611cb5565b935068022b1c8c1227a00000811115610e9d575f81610e8368022b1c8c1227a0000088611c9e565b610e8d9190611cb5565b9050610e998187611dd1565b9350505b610eca565b643e16926aaa610eba670de0b6b3a764000087611c9e565b610ec49190611cb5565b93505f92505b50509250929050565b610edb611a91565b6002546001600160a01b031615610f1a5760405162461bcd60e51b81526020600482015260036024820152621cd95d60ea1b6044820152606401610855565b600280546001600160a01b0319166001600160a01b0392909216919091179055565b6005602052815f5260405f208181548110610f55575f80fd5b905f5260205f20015f91509150505481565b610f6f611a91565b610f785f611abd565b565b610f82611a67565b6002546001600160a01b03163314610fac5760405162461bcd60e51b815260040161085590611e10565b5f8181526004602052604090206001815460ff166003811115610fd157610fd1611c09565b146110065760405162461bcd60e51b8152602060048201526005602482015264737461746560d81b6044820152606401610855565b62093a8081600101546110199190611dfd565b42116110535760405162461bcd60e51b81526020600482015260096024820152681b9bdd08195b99195960ba1b6044820152606401610855565b68022b1c8c1227a00000816002015410156110a25760405162461bcd60e51b815260206004820152600f60248201526e1b5a5b881b9bdd081c995858da1959608a1b6044820152606401610855565b5f68022b1c8c1227a000008260020154116110c15781600201546110cc565b68022b1c8c1227a000005b90506110e4670de0b6b3a76400006308f0d180611c9e565b60038301555f6110fd6802258f7630b178000083611dd1565b90505f6111115f546001600160a01b031690565b6001600160a01b0316826040515f6040518083038185875af1925050503d805f8114611158576040519150601f19603f3d011682016040523d82523d5f602084013e61115d565b606091505b50509050806111945760405162461bcd60e51b815260206004820152600360248201526266656560e81b6044820152606401610855565b6002546040515f916001600160a01b0316906802258f7630b1780000908381818185875af1925050503d805f81146111e7576040519150601f19603f3d011682016040523d82523d5f602084013e6111ec565b606091505b505090508061120d5760405162461bcd60e51b815260040161085590611cf2565b505050505061098960018055565b6002546001600160a01b031633146112455760405162461bcd60e51b815260040161085590611e10565b5f838152600460208181526040808420805460ff19166002908117825593810180546001600160a01b038881166001600160a01b031990921682179092559088168087526006855295839020899055938101549151918252939187917fa50e0b9679f5601c270cdad10a93f0cf7343e8bc4cd12d6c16db0567dc445195910160405180910390a450505050565b6112da611a67565b5f8181526004602052604090206001815460ff1660038111156112ff576112ff611c09565b146113375760405162461bcd60e51b8152602060048201526008602482015267696e61637469766560c01b6044820152606401610855565b62093a80816001015461134a9190611dfd565b4211156113815760405162461bcd60e51b8152602060048201526005602482015264195b99195960da1b6044820152606401610855565b5f34116113b95760405162461bcd60e51b8152600401610855906020808252600490820152637a65726f60e01b604082015260600190565b335f90815260058201602052604081208054909134918391906113dd908490611dfd565b9250508190555034826002015f8282546113f79190611dfd565b9091555050604080513481525f6020820152339185917f0a4a1371fe57a623579a431d46713995ff8d4d78dd0b6fcf591205f997ea45e1910160405180910390a3505061098960018055565b5f8181526004602052604081206001815460ff16600381111561146857611468611c09565b148015611486575062093a8081600101546114839190611dfd565b42115b801561080357506002015468022b1c8c1227a00000111592915050565b5f8281526004602090815260408083206001600160a01b038516845260058101909252822080548392919083036114e1575f5f9350935050506115a7565b68022b1c8c1227a0000082600201541061158b576002820154611510670de0b6b3a76400006308f0d180611c9e565b825461151c9190611c9e565b6115269190611cb5565b935068022b1c8c1227a00000826002015411801561154e57506002810154610100900460ff16155b15610e9d575f826002015468022b1c8c1227a00000835f01546115719190611c9e565b61157b9190611cb5565b8254909150610e99908290611dd1565b8054643e16926aaa90610eba90670de0b6b3a764000090611c9e565b9250929050565b5f8181526004602052604081206003815460ff1660038111156115d3576115d3611c09565b14806115f457506001815460ff1660038111156115f2576115f2611c09565b145b8015611611575062093a80816001015461160e9190611dfd565b42115b801561080357506002015468022b1c8c1227a000001192915050565b611635611a67565b5f8181526004602052604090206001815460ff16600381111561165a5761165a611c09565b1461168f5760405162461bcd60e51b8152602060048201526005602482015264737461746560d81b6044820152606401610855565b62093a8081600101546116a29190611dfd565b4211156116d95760405162461bcd60e51b8152602060048201526005602482015264195b99195960da1b6044820152606401610855565b335f908152600582016020526040902080546117075760405162461bcd60e51b815260040161085590611cd4565b80545f808355600284018054839290611721908490611dd1565b90915550506040515f90339083908381818185875af1925050503d805f8114611765576040519150601f19603f3d011682016040523d82523d5f602084013e61176a565b606091505b505090508061178b5760405162461bcd60e51b815260040161085590611cf2565b604080518381525f6020820152339187917f473ec725e4f427ee878c01533470f49b441bb2343a114ba06dc1817a04cf0a8d910160405180910390a35050505061098960018055565b6002545f9081906001600160a01b031633146118025760405162461bcd60e51b815260040161085590611e10565b6001600160a01b038316156118af5761181a836107c9565b61185a5760405162461bcd60e51b8152602060048201526011602482015270626c6f636b6564206f722065786973747360781b6044820152606401610855565b62093a8061186b62278d0042611dfd565b6118759190611dfd565b6001600160a01b0384165f908152600760209081526040808320939093556005815291812060035481546001810183559183529290912001555b60038054905f6118be83611e36565b90915550506003545f908152600460205260408120805460ff19166001908117825542908201819055600782018190559091906118ff9062093a8090611dfd565b600354945092505050915091565b611915611a91565b6001600160a01b03811661193e57604051631e4fbdf760e01b81525f6004820152602401610855565b61098981611abd565b6001600160a01b0381165f908152600560209081526040808320805482518185028101850190935280835284938301828280156119a157602002820191905f5260205f20905b81548152602001906001019080831161198d575b509394505f93505050505b8151811015611a5e575f60045f8484815181106119cb576119cb611e4e565b60209081029190910181015182528101919091526040015f205460ff16905060028160038111156119fe576119fe611c09565b1480611a4557506001816003811115611a1957611a19611c09565b148015611a455750611a43838381518110611a3657611a36611e4e565b60200260200101516115ae565b155b15611a5557506001949350505050565b506001016119ac565b505f9392505050565b600260015403611a8a57604051633ee5aeb560e01b815260040160405180910390fd5b6002600155565b5f546001600160a01b03163314610f785760405163118cdaa760e01b8152336004820152602401610855565b5f80546001600160a01b038381166001600160a01b0319831681178455604051919092169283917f8be0079c531659141344cd1fd0a4f28419497f9722a3daafe3b4186f6b6457e09190a35050565b5f60208284031215611b1c575f5ffd5b5035919050565b6001600160a01b0381168114610989575f5ffd5b5f60208284031215611b47575f5ffd5b813561080381611b23565b5f5f60408385031215611b63575f5ffd5b823591506020830135611b7581611b23565b809150509250929050565b5f5f60408385031215611b91575f5ffd5b50508035926020909101359150565b5f5f60408385031215611bb1575f5ffd5b8235611bbc81611b23565b946020939093013593505050565b5f5f5f60608486031215611bdc575f5ffd5b833592506020840135611bee81611b23565b91506040840135611bfe81611b23565b809150509250925092565b634e487b7160e01b5f52602160045260245ffd5b60048110611c3957634e487b7160e01b5f52602160045260245ffd5b9052565b602081016107c38284611c1d565b60c08101611c598289611c1d565b6020820196909652604081019490945260608401929092526001600160a01b0316608083015260a090910152919050565b634e487b7160e01b5f52601160045260245ffd5b80820281158282048414176107c3576107c3611c8a565b5f82611ccf57634e487b7160e01b5f52601260045260245ffd5b500490565b6020808252600490820152636e6f6e6560e01b604082015260600190565b6020808252600490820152633c3332b960e11b604082015260600190565b8051611d1b81611b23565b919050565b80518015158114611d1b575f5ffd5b5f6080828403128015611d40575f5ffd5b506040516080810167ffffffffffffffff81118282101715611d7057634e487b7160e01b5f52604160045260245ffd5b6040528251611d7e81611b23565b8152611d8c60208401611d10565b6020820152611d9d60408401611d10565b6040820152611dae60608401611d20565b60608201529392505050565b5f60208284031215611dca575f5ffd5b5051919050565b818103818111156107c3576107c3611c8a565b5f60208284031215611df4575f5ffd5b61080382611d20565b808201808211156107c3576107c3611c8a565b6020808252600c908201526b666163746f7279206f6e6c7960a01b604082015260600190565b5f60018201611e4757611e47611c8a565b5060010190565b634e487b7160e01b5f52603260045260245ffdfea26469706673582212209aec200bdede3edf5661ab51443a7e776beebd6a4c645279c31a952b1c3fa03564736f6c634300081c0033",
  "linkReferences": {},
  "deployedLinkReferences": {},
  "immutableReferences": {},
  "inputSourceName": "project/contracts/MemedTokenSale.sol",
  "buildInfoId": "solc-0_8_28-9b326663398cd856487db2fc894b12c72d52ccfe"
}