{
  "_format": "hh3-artifact-1",
  "contractName": "MemedToken",
  "sourceName": "contracts/MemedToken.sol",
  "abi": [
    {
      "inputs": [
        {
          "internalType": "string",
          "name": "_name",
          "type": "string"
        },
        {
          "internalType": "string",
          "name": "_ticker",
          "type": "string"
        },
        {
          "internalType": "address",
          "name": "_creator",
          "type": "address"
        },
        {
          "internalType": "address",
          "name": "_factoryContract",
          "type": "address"
        },
        {
          "internalType": "address",
          "name": "_engageToEarnContract",
          "type": "address"
        },
        {
          "internalType": "uint256",
          "name": "_lpSupply",
          "type": "uint256"
        }
      ],
      "stateMutability": "nonpayable",
      "type": "constructor"
    },
    {
      "inputs": [
        {
          "internalType": "address",
          "name": "spender",
          "type": "address"
        },
        {
          "internalType": "uint256",
          "name": "allowance",
          "type": "uint256"
        },
        {
          "internalType": "uint256",
          "name": "needed",
          "type": "uint256"
        }
      ],
      "name": "ERC20InsufficientAllowance",
      "type": "error"
    },
    {
      "inputs": [
        {
          "internalType": "address",
          "name": "sender",
          "type": "address"
        },
        {
          "internalType": "uint256",
          "name": "balance",
          "type": "uint256"
        },
        {
          "internalType": "uint256",
          "name": "needed",
          "type": "uint256"
        }
      ],
      "name": "ERC20InsufficientBalance",
      "type": "error"
    },
    {
      "inputs": [
        {
          "internalType": "address",
          "name": "approver",
          "type": "address"
        }
      ],
      "name": "ERC20InvalidApprover",
      "type": "error"
    },
    {
      "inputs": [
        {
          "internalType": "address",
          "name": "receiver",
          "type": "address"
        }
      ],
      "name": "ERC20InvalidReceiver",
      "type": "error"
    },
    {
      "inputs": [
        {
          "internalType": "address",
          "name": "sender",
          "type": "address"
        }
      ],
      "name": "ERC20InvalidSender",
      "type": "error"
    },
    {
      "inputs": [
        {
          "internalType": "address",
          "name": "spender",
          "type": "address"
        }
      ],
      "name": "ERC20InvalidSpender",
      "type": "error"
    },
    {
      "inputs": [
        {
          "internalType": "address",
          "name": "owner",
          "type": "address"
        }
      ],
      "name": "OwnableInvalidOwner",
      "type": "error"
    },
    {
      "inputs": [
        {
          "internalType": "address",
          "name": "account",
          "type": "address"
        }
      ],
      "name": "OwnableUnauthorizedAccount",
      "type": "error"
    },
    {
      "anonymous": false,
      "inputs": [
        {
          "indexed": true,
          "internalType": "address",
          "name": "owner",
          "type": "address"
        },
        {
          "indexed": true,
          "internalType": "address",
          "name": "spender",
          "type": "address"
        },
        {
          "indexed": false,
          "internalType": "uint256",
          "name": "value",
          "type": "uint256"
        }
      ],
      "name": "Approval",
      "type": "event"
    },
    {
      "anonymous": false,
      "inputs": [
        {
          "indexed": false,
          "internalType": "uint256",
          "name": "amount",
          "type": "uint256"
        }
      ],
      "name": "CreatorIncentivesClaimed",
      "type": "event"
    },
    {
      "anonymous": false,
      "inputs": [
        {
          "indexed": false,
          "internalType": "uint256",
          "name": "amount",
          "type": "uint256"
        }
      ],
      "name": "CreatorIncentivesUnlocked",
      "type": "event"
    },
    {
      "anonymous": false,
      "inputs": [
        {
          "indexed": false,
          "internalType": "uint256",
          "name": "amount",
          "type": "uint256"
        }
      ],
      "name": "LpAllocated",
      "type": "event"
    },
    {
      "anonymous": false,
      "inputs": [
        {
          "indexed": true,
          "internalType": "address",
          "name": "previousOwner",
          "type": "address"
        },
        {
          "indexed": true,
          "internalType": "address",
          "name": "newOwner",
          "type": "address"
        }
      ],
      "name": "OwnershipTransferred",
      "type": "event"
    },
    {
      "anonymous": false,
      "inputs": [
        {
          "indexed": true,
          "internalType": "address",
          "name": "from",
          "type": "address"
        },
        {
          "indexed": true,
          "internalType": "address",
          "name": "to",
          "type": "address"
        },
        {
          "indexed": false,
          "internalType": "uint256",
          "name": "value",
          "type": "uint256"
        }
      ],
      "name": "Transfer",
      "type": "event"
    },
    {
      "inputs": [],
      "name": "CREATOR_INCENTIVES_ALLOCATION",
      "outputs": [
        {
          "internalType": "uint256",
          "name": "",
          "type": "uint256"
        }
      ],
      "stateMutability": "view",
      "type": "function"
    },
    {
      "inputs": [],
      "name": "CREATOR_INITIAL_ALLOCATION",
      "outputs": [
        {
          "internalType": "uint256",
          "name": "",
          "type": "uint256"
        }
      ],
      "stateMutability": "view",
      "type": "function"
    },
    {
      "inputs": [],
      "name": "CREATOR_INITIAL_ALLOCATION_PER_UNLOCK",
      "outputs": [
        {
          "internalType": "uint256",
          "name": "",
          "type": "uint256"
        }
      ],
      "stateMutability": "view",
      "type": "function"
    },
    {
      "inputs": [],
      "name": "ENGAGEMENT_REWARDS_ALLOCATION",
      "outputs": [
        {
          "internalType": "uint256",
          "name": "",
          "type": "uint256"
        }
      ],
      "stateMutability": "view",
      "type": "function"
    },
    {
      "inputs": [],
      "name": "FAIR_LAUNCH_ALLOCATION",
      "outputs": [
        {
          "internalType": "uint256",
          "name": "",
          "type": "uint256"
        }
      ],
      "stateMutability": "view",
      "type": "function"
    },
    {
      "inputs": [],
      "name": "LP_ALLOCATION",
      "outputs": [
        {
          "internalType": "uint256",
          "name": "",
          "type": "uint256"
        }
      ],
      "stateMutability": "view",
      "type": "function"
    },
    {
      "inputs": [],
      "name": "MAX_SUPPLY",
      "outputs": [
        {
          "internalType": "uint256",
          "name": "",
          "type": "uint256"
        }
      ],
      "stateMutability": "view",
      "type": "function"
    },
    {
      "inputs": [],
      "name": "allocateLp",
      "outputs": [],
      "stateMutability": "nonpayable",
      "type": "function"
    },
    {
      "inputs": [
        {
          "internalType": "address",
          "name": "owner",
          "type": "address"
        },
        {
          "internalType": "address",
          "name": "spender",
          "type": "address"
        }
      ],
      "name": "allowance",
      "outputs": [
        {
          "internalType": "uint256",
          "name": "",
          "type": "uint256"
        }
      ],
      "stateMutability": "view",
      "type": "function"
    },
    {
      "inputs": [
        {
          "internalType": "address",
          "name": "spender",
          "type": "address"
        },
        {
          "internalType": "uint256",
          "name": "value",
          "type": "uint256"
        }
      ],
      "name": "approve",
      "outputs": [
        {
          "internalType": "bool",
          "name": "",
          "type": "bool"
        }
      ],
      "stateMutability": "nonpayable",
      "type": "function"
    },
    {
      "inputs": [
        {
          "internalType": "address",
          "name": "account",
          "type": "address"
        }
      ],
      "name": "balanceOf",
      "outputs": [
        {
          "internalType": "uint256",
          "name": "",
          "type": "uint256"
        }
      ],
      "stateMutability": "view",
      "type": "function"
    },
    {
      "inputs": [
        {
          "internalType": "address",
          "name": "to",
          "type": "address"
        },
        {
          "internalType": "uint256",
          "name": "amount",
          "type": "uint256"
        }
      ],
      "name": "claim",
      "outputs": [],
      "stateMutability": "nonpayable",
      "type": "function"
    },
    {
      "inputs": [],
      "name": "claimCreatorIncentives",
      "outputs": [],
      "stateMutability": "nonpayable",
      "type": "function"
    },
    {
      "inputs": [],
      "name": "creatorData",
      "outputs": [
        {
          "internalType": "address",
          "name": "creator",
          "type": "address"
        },
        {
          "internalType": "uint256",
          "name": "balance",
          "type": "uint256"
        },
        {
          "internalType": "uint256",
          "name": "unlockedBalance",
          "type": "uint256"
        }
      ],
      "stateMutability": "view",
      "type": "function"
    },
    {
      "inputs": [],
      "name": "decimals",
      "outputs": [
        {
          "internalType": "uint8",
          "name": "",
          "type": "uint8"
        }
      ],
      "stateMutability": "view",
      "type": "function"
    },
    {
      "inputs": [],
      "name": "engageToEarnContract",
      "outputs": [
        {
          "internalType": "address",
          "name": "",
          "type": "address"
        }
      ],
      "stateMutability": "view",
      "type": "function"
    },
    {
      "inputs": [],
      "name": "factoryContract",
      "outputs": [
        {
          "internalType": "address",
          "name": "",
          "type": "address"
        }
      ],
      "stateMutability": "view",
      "type": "function"
    },
    {
      "inputs": [],
      "name": "isLpAllocated",
      "outputs": [
        {
          "internalType": "bool",
          "name": "",
          "type": "bool"
        }
      ],
      "stateMutability": "view",
      "type": "function"
    },
    {
      "inputs": [],
      "name": "isRewardable",
      "outputs": [
        {
          "internalType": "bool",
          "name": "",
          "type": "bool"
        }
      ],
      "stateMutability": "view",
      "type": "function"
    },
    {
      "inputs": [],
      "name": "name",
      "outputs": [
        {
          "internalType": "string",
          "name": "",
          "type": "string"
        }
      ],
      "stateMutability": "view",
      "type": "function"
    },
    {
      "inputs": [],
      "name": "owner",
      "outputs": [
        {
          "internalType": "address",
          "name": "",
          "type": "address"
        }
      ],
      "stateMutability": "view",
      "type": "function"
    },
    {
      "inputs": [],
      "name": "renounceOwnership",
      "outputs": [],
      "stateMutability": "nonpayable",
      "type": "function"
    },
    {
      "inputs": [],
      "name": "symbol",
      "outputs": [
        {
          "internalType": "string",
          "name": "",
          "type": "string"
        }
      ],
      "stateMutability": "view",
      "type": "function"
    },
    {
      "inputs": [],
      "name": "totalSupply",
      "outputs": [
        {
          "internalType": "uint256",
          "name": "",
          "type": "uint256"
        }
      ],
      "stateMutability": "view",
      "type": "function"
    },
    {
      "inputs": [
        {
          "internalType": "address",
          "name": "to",
          "type": "address"
        },
        {
          "internalType": "uint256",
          "name": "value",
          "type": "uint256"
        }
      ],
      "name": "transfer",
      "outputs": [
        {
          "internalType": "bool",
          "name": "",
          "type": "bool"
        }
      ],
      "stateMutability": "nonpayable",
      "type": "function"
    },
    {
      "inputs": [
        {
          "internalType": "address",
          "name": "from",
          "type": "address"
        },
        {
          "internalType": "address",
          "name": "to",
          "type": "address"
        },
        {
          "internalType": "uint256",
          "name": "value",
          "type": "uint256"
        }
      ],
      "name": "transferFrom",
      "outputs": [
        {
          "internalType": "bool",
          "name": "",
          "type": "bool"
        }
      ],
      "stateMutability": "nonpayable",
      "type": "function"
    },
    {
      "inputs": [
        {
          "internalType": "address",
          "name": "newOwner",
          "type": "address"
        }
      ],
      "name": "transferOwnership",
      "outputs": [],
      "stateMutability": "nonpayable",
      "type": "function"
    },
    {
      "inputs": [],
      "name": "unlockCreatorIncentives",
      "outputs": [],
      "stateMutability": "nonpayable",
      "type": "function"
    }
  ],
  "bytecode": "0x60c060405234801561000f575f5ffd5b50604051612ac3380380612ac3833981810160405281019061003191906107be565b33868681600390816100439190610a86565b5080600490816100539190610a86565b5050505f73ffffffffffffffffffffffffffffffffffffffff168173ffffffffffffffffffffffffffffffffffffffff16036100c6575f6040517f1e4fbdf70000000000000000000000000000000000000000000000000000000081526004016100bd9190610b64565b60405180910390fd5b6100d58161028360201b60201c565b508360085f015f6101000a81548173ffffffffffffffffffffffffffffffffffffffff021916908373ffffffffffffffffffffffffffffffffffffffff160217905550606460466a7c13bc4b2c133c560000006101329190610baa565b61013c9190610c18565b6008600101819055508260075f6101000a81548173ffffffffffffffffffffffffffffffffffffffff021916908373ffffffffffffffffffffffffffffffffffffffff1602179055508160065f6101000a81548173ffffffffffffffffffffffffffffffffffffffff021916908373ffffffffffffffffffffffffffffffffffffffff160217905550806b024306c4097859c43c0000006101dd9190610c48565b608081815250508060a0818152505061022960065f9054906101000a900473ffffffffffffffffffffffffffffffffffffffff166b0121836204bc2ce21e00000061034660201b60201c565b5f73ffffffffffffffffffffffffffffffffffffffff168473ffffffffffffffffffffffffffffffffffffffff161461027857610277846a295be96e6406697200000061034660201b60201c565b5b505050505050610cd8565b5f60055f9054906101000a900473ffffffffffffffffffffffffffffffffffffffff1690508160055f6101000a81548173ffffffffffffffffffffffffffffffffffffffff021916908373ffffffffffffffffffffffffffffffffffffffff1602179055508173ffffffffffffffffffffffffffffffffffffffff168173ffffffffffffffffffffffffffffffffffffffff167f8be0079c531659141344cd1fd0a4f28419497f9722a3daafe3b4186f6b6457e060405160405180910390a35050565b5f73ffffffffffffffffffffffffffffffffffffffff168273ffffffffffffffffffffffffffffffffffffffff16036103b6575f6040517fec442f050000000000000000000000000000000000000000000000000000000081526004016103ad9190610b64565b60405180910390fd5b6103c75f83836103cb60201b60201c565b5050565b5f73ffffffffffffffffffffffffffffffffffffffff168373ffffffffffffffffffffffffffffffffffffffff160361041b578060025f82825461040f9190610c48565b925050819055506104e9565b5f5f5f8573ffffffffffffffffffffffffffffffffffffffff1673ffffffffffffffffffffffffffffffffffffffff1681526020019081526020015f20549050818110156104a4578381836040517fe450d38c00000000000000000000000000000000000000000000000000000000815260040161049b93929190610c8a565b60405180910390fd5b8181035f5f8673ffffffffffffffffffffffffffffffffffffffff1673ffffffffffffffffffffffffffffffffffffffff1681526020019081526020015f2081905550505b5f73ffffffffffffffffffffffffffffffffffffffff168273ffffffffffffffffffffffffffffffffffffffff1603610530578060025f828254039250508190555061057a565b805f5f8473ffffffffffffffffffffffffffffffffffffffff1673ffffffffffffffffffffffffffffffffffffffff1681526020019081526020015f205f82825401925050819055505b8173ffffffffffffffffffffffffffffffffffffffff168373ffffffffffffffffffffffffffffffffffffffff167fddf252ad1be2c89b69c2b068fc378daa952ba7f163c4a11628f55a4df523b3ef836040516105d79190610cbf565b60405180910390a3505050565b5f604051905090565b5f5ffd5b5f5ffd5b5f5ffd5b5f5ffd5b5f601f19601f8301169050919050565b7f4e487b71000000000000000000000000000000000000000000000000000000005f52604160045260245ffd5b610643826105fd565b810181811067ffffffffffffffff821117156106625761066161060d565b5b80604052505050565b5f6106746105e4565b9050610680828261063a565b919050565b5f67ffffffffffffffff82111561069f5761069e61060d565b5b6106a8826105fd565b9050602081019050919050565b8281835e5f83830152505050565b5f6106d56106d084610685565b61066b565b9050828152602081018484840111156106f1576106f06105f9565b5b6106fc8482856106b5565b509392505050565b5f82601f830112610718576107176105f5565b5b81516107288482602086016106c3565b91505092915050565b5f73ffffffffffffffffffffffffffffffffffffffff82169050919050565b5f61075a82610731565b9050919050565b61076a81610750565b8114610774575f5ffd5b50565b5f8151905061078581610761565b92915050565b5f819050919050565b61079d8161078b565b81146107a7575f5ffd5b50565b5f815190506107b881610794565b92915050565b5f5f5f5f5f5f60c087890312156107d8576107d76105ed565b5b5f87015167ffffffffffffffff8111156107f5576107f46105f1565b5b61080189828a01610704565b965050602087015167ffffffffffffffff811115610822576108216105f1565b5b61082e89828a01610704565b955050604061083f89828a01610777565b945050606061085089828a01610777565b935050608061086189828a01610777565b92505060a061087289828a016107aa565b9150509295509295509295565b5f81519050919050565b7f4e487b71000000000000000000000000000000000000000000000000000000005f52602260045260245ffd5b5f60028204905060018216806108cd57607f821691505b6020821081036108e0576108df610889565b5b50919050565b5f819050815f5260205f209050919050565b5f6020601f8301049050919050565b5f82821b905092915050565b5f600883026109427fffffffffffffffffffffffffffffffffffffffffffffffffffffffffffffffff82610907565b61094c8683610907565b95508019841693508086168417925050509392505050565b5f819050919050565b5f61098761098261097d8461078b565b610964565b61078b565b9050919050565b5f819050919050565b6109a08361096d565b6109b46109ac8261098e565b848454610913565b825550505050565b5f5f905090565b6109cb6109bc565b6109d6818484610997565b505050565b5b818110156109f9576109ee5f826109c3565b6001810190506109dc565b5050565b601f821115610a3e57610a0f816108e6565b610a18846108f8565b81016020851015610a27578190505b610a3b610a33856108f8565b8301826109db565b50505b505050565b5f82821c905092915050565b5f610a5e5f1984600802610a43565b1980831691505092915050565b5f610a768383610a4f565b9150826002028217905092915050565b610a8f8261087f565b67ffffffffffffffff811115610aa857610aa761060d565b5b610ab282546108b6565b610abd8282856109fd565b5f60209050601f831160018114610aee575f8415610adc578287015190505b610ae68582610a6b565b865550610b4d565b601f198416610afc866108e6565b5f5b82811015610b2357848901518255600182019150602085019450602081019050610afe565b86831015610b405784890151610b3c601f891682610a4f565b8355505b6001600288020188555050505b505050505050565b610b5e81610750565b82525050565b5f602082019050610b775f830184610b55565b92915050565b7f4e487b71000000000000000000000000000000000000000000000000000000005f52601160045260245ffd5b5f610bb48261078b565b9150610bbf8361078b565b9250828202610bcd8161078b565b91508282048414831517610be457610be3610b7d565b5b5092915050565b7f4e487b71000000000000000000000000000000000000000000000000000000005f52601260045260245ffd5b5f610c228261078b565b9150610c2d8361078b565b925082610c3d57610c3c610beb565b5b828204905092915050565b5f610c528261078b565b9150610c5d8361078b565b9250828201905080821115610c7557610c74610b7d565b5b92915050565b610c848161078b565b82525050565b5f606082019050610c9d5f830186610b55565b610caa6020830185610c7b565b610cb76040830184610c7b565b949350505050565b5f602082019050610cd25f830184610c7b565b92915050565b60805160a051611db5610d0e5f395f81816107db0152818161083d0152610e9a01525f818161063d0152610bf70152611db55ff3fe608060405234801561000f575f5ffd5b50600436106101c2575f3560e01c80638fc857d4116100f7578063cd1b213811610095578063de11c94a1161006f578063de11c94a146104a0578063eab7f50c146104be578063ebda16eb146104dc578063f2fde38b146104fa576101c2565b8063cd1b213814610448578063dd282ae414610466578063dd62ed3e14610470576101c2565b8063a9059cbb116100d1578063a9059cbb146103be578063aad3ec96146103ee578063c350368a1461040a578063c52aa2cf1461042a576101c2565b80638fc857d41461037857806395d89b4114610396578063a431831e146103b4576101c2565b806332cb6b0c1161016457806370a082311161013e57806370a0823114610316578063715018a6146103465780637de48f04146103505780638da5cb5b1461035a576101c2565b806332cb6b0c146102bc578063492aebb9146102da57806358328dbd146102f8576101c2565b806318160ddd116101a057806318160ddd146102325780631a5e3c9d1461025057806323b872dd1461026e578063313ce5671461029e576101c2565b806306fdde03146101c6578063095ea7b3146101e4578063178c99fe14610214575b5f5ffd5b6101ce610516565b6040516101db91906116fd565b60405180910390f35b6101fe60048036038101906101f991906117ae565b6105a6565b60405161020b9190611806565b60405180910390f35b61021c6105c8565b604051610229919061182e565b60405180910390f35b61023a6105ed565b6040516102479190611856565b60405180910390f35b6102586105f6565b6040516102659190611856565b60405180910390f35b6102886004803603810190610283919061186f565b610605565b6040516102959190611806565b60405180910390f35b6102a6610633565b6040516102b391906118da565b60405180910390f35b6102c461063b565b6040516102d19190611856565b60405180910390f35b6102e261065f565b6040516102ef9190611856565b60405180910390f35b61030061066e565b60405161030d9190611856565b60405180910390f35b610330600480360381019061032b91906118f3565b61067d565b60405161033d9190611856565b60405180910390f35b61034e6106c2565b005b6103586106d5565b005b610362610873565b60405161036f919061182e565b60405180910390f35b61038061089b565b60405161038d9190611806565b60405180910390f35b61039e6108ae565b6040516103ab91906116fd565b60405180910390f35b6103bc61093e565b005b6103d860048036038101906103d391906117ae565b610a94565b6040516103e59190611806565b60405180910390f35b610408600480360381019061040391906117ae565b610ab6565b005b610412610c78565b6040516104219392919061191e565b60405180910390f35b610432610cae565b60405161043f9190611806565b60405180910390f35b610450610cc7565b60405161045d9190611856565b60405180910390f35b61046e610cd6565b005b61048a60048036038101906104859190611953565b610de1565b6040516104979190611856565b60405180910390f35b6104a8610e63565b6040516104b5919061182e565b60405180910390f35b6104c6610e88565b6040516104d39190611856565b60405180910390f35b6104e4610e98565b6040516104f19190611856565b60405180910390f35b610514600480360381019061050f91906118f3565b610ebc565b005b606060038054610525906119be565b80601f0160208091040260200160405190810160405280929190818152602001828054610551906119be565b801561059c5780601f106105735761010080835404028352916020019161059c565b820191905f5260205f20905b81548152906001019060200180831161057f57829003601f168201915b5050505050905090565b5f5f6105b0610f40565b90506105bd818585610f47565b600191505092915050565b60065f9054906101000a900473ffffffffffffffffffffffffffffffffffffffff1681565b5f600254905090565b6a7c13bc4b2c133c5600000081565b5f5f61060f610f40565b905061061c858285610f59565b610627858585610fec565b60019150509392505050565b5f6012905090565b7f000000000000000000000000000000000000000000000000000000000000000081565b6a01a784379d99db4200000081565b6a295be96e6406697200000081565b5f5f5f8373ffffffffffffffffffffffffffffffffffffffff1673ffffffffffffffffffffffffffffffffffffffff1681526020019081526020015f20549050919050565b6106ca6110dc565b6106d35f611163565b565b60075f9054906101000a900473ffffffffffffffffffffffffffffffffffffffff1673ffffffffffffffffffffffffffffffffffffffff163373ffffffffffffffffffffffffffffffffffffffff1614610764576040517f08c379a000000000000000000000000000000000000000000000000000000000815260040161075b90611a5e565b60405180910390fd5b600560149054906101000a900460ff16156107b4576040517f08c379a00000000000000000000000000000000000000000000000000000000081526004016107ab90611ac6565b60405180910390fd5b6107ff60075f9054906101000a900473ffffffffffffffffffffffffffffffffffffffff167f0000000000000000000000000000000000000000000000000000000000000000611226565b6001600560146101000a81548160ff0219169083151502179055507ffe52c86b79d5742b050f2e2efeca8e935f088ac2e5e16a3c7b709f95c0636df47f00000000000000000000000000000000000000000000000000000000000000006040516108699190611856565b60405180910390a1565b5f60055f9054906101000a900473ffffffffffffffffffffffffffffffffffffffff16905090565b600560149054906101000a900460ff1681565b6060600480546108bd906119be565b80601f01602080910402602001604051908101604052809291908181526020018280546108e9906119be565b80156109345780601f1061090b57610100808354040283529160200191610934565b820191905f5260205f20905b81548152906001019060200180831161091757829003601f168201915b5050505050905090565b60075f9054906101000a900473ffffffffffffffffffffffffffffffffffffffff1673ffffffffffffffffffffffffffffffffffffffff163373ffffffffffffffffffffffffffffffffffffffff16146109cd576040517f08c379a00000000000000000000000000000000000000000000000000000000081526004016109c490611a5e565b60405180910390fd5b5f6a01a784379d99db420000009050806008600101541015610a24576040517f08c379a0000000000000000000000000000000000000000000000000000000008152600401610a1b90611b2e565b60405180910390fd5b8060086002015f828254610a389190611b79565b925050819055508060086001015f828254610a539190611bac565b925050819055507f20e6b5faba158691cec289aa69971b114cbde320ad56ed660db2223c86bf0c2b81604051610a899190611856565b60405180910390a150565b5f5f610a9e610f40565b9050610aab818585610fec565b600191505092915050565b60075f9054906101000a900473ffffffffffffffffffffffffffffffffffffffff1673ffffffffffffffffffffffffffffffffffffffff163373ffffffffffffffffffffffffffffffffffffffff1614610b45576040517f08c379a0000000000000000000000000000000000000000000000000000000008152600401610b3c90611a5e565b60405180910390fd5b5f73ffffffffffffffffffffffffffffffffffffffff168273ffffffffffffffffffffffffffffffffffffffff1603610bb3576040517f08c379a0000000000000000000000000000000000000000000000000000000008152600401610baa90611c29565b60405180910390fd5b5f8111610bf5576040517f08c379a0000000000000000000000000000000000000000000000000000000008152600401610bec90611c91565b60405180910390fd5b7f000000000000000000000000000000000000000000000000000000000000000081610c1f6105ed565b610c299190611b79565b1115610c6a576040517f08c379a0000000000000000000000000000000000000000000000000000000008152600401610c6190611cf9565b60405180910390fd5b610c748282611226565b5050565b6008805f015f9054906101000a900473ffffffffffffffffffffffffffffffffffffffff16908060010154908060020154905083565b5f6a01a784379d99db4200000060086001015411905090565b6aa56fa5b99019a5c800000081565b60085f015f9054906101000a900473ffffffffffffffffffffffffffffffffffffffff1673ffffffffffffffffffffffffffffffffffffffff163373ffffffffffffffffffffffffffffffffffffffff1614610d67576040517f08c379a0000000000000000000000000000000000000000000000000000000008152600401610d5e90611d61565b60405180910390fd5b5f60086002015490505f600860020181905550610da760085f015f9054906101000a900473ffffffffffffffffffffffffffffffffffffffff1682611226565b7f85210f592f3f6c0e04a0bbe66c0b4c3a93803fda97ceac60f5be26c0cd6612da81604051610dd69190611856565b60405180910390a150565b5f60015f8473ffffffffffffffffffffffffffffffffffffffff1673ffffffffffffffffffffffffffffffffffffffff1681526020019081526020015f205f8373ffffffffffffffffffffffffffffffffffffffff1673ffffffffffffffffffffffffffffffffffffffff1681526020019081526020015f2054905092915050565b60075f9054906101000a900473ffffffffffffffffffffffffffffffffffffffff1681565b6b0121836204bc2ce21e00000081565b7f000000000000000000000000000000000000000000000000000000000000000081565b610ec46110dc565b5f73ffffffffffffffffffffffffffffffffffffffff168173ffffffffffffffffffffffffffffffffffffffff1603610f34575f6040517f1e4fbdf7000000000000000000000000000000000000000000000000000000008152600401610f2b919061182e565b60405180910390fd5b610f3d81611163565b50565b5f33905090565b610f5483838360016112a5565b505050565b5f610f648484610de1565b90507fffffffffffffffffffffffffffffffffffffffffffffffffffffffffffffffff811015610fe65781811015610fd7578281836040517ffb8f41b2000000000000000000000000000000000000000000000000000000008152600401610fce9392919061191e565b60405180910390fd5b610fe584848484035f6112a5565b5b50505050565b5f73ffffffffffffffffffffffffffffffffffffffff168373ffffffffffffffffffffffffffffffffffffffff160361105c575f6040517f96c6fd1e000000000000000000000000000000000000000000000000000000008152600401611053919061182e565b60405180910390fd5b5f73ffffffffffffffffffffffffffffffffffffffff168273ffffffffffffffffffffffffffffffffffffffff16036110cc575f6040517fec442f050000000000000000000000000000000000000000000000000000000081526004016110c3919061182e565b60405180910390fd5b6110d7838383611474565b505050565b6110e4610f40565b73ffffffffffffffffffffffffffffffffffffffff16611102610873565b73ffffffffffffffffffffffffffffffffffffffff161461116157611125610f40565b6040517f118cdaa7000000000000000000000000000000000000000000000000000000008152600401611158919061182e565b60405180910390fd5b565b5f60055f9054906101000a900473ffffffffffffffffffffffffffffffffffffffff1690508160055f6101000a81548173ffffffffffffffffffffffffffffffffffffffff021916908373ffffffffffffffffffffffffffffffffffffffff1602179055508173ffffffffffffffffffffffffffffffffffffffff168173ffffffffffffffffffffffffffffffffffffffff167f8be0079c531659141344cd1fd0a4f28419497f9722a3daafe3b4186f6b6457e060405160405180910390a35050565b5f73ffffffffffffffffffffffffffffffffffffffff168273ffffffffffffffffffffffffffffffffffffffff1603611296575f6040517fec442f0500000000000000000000000000000000000000000000000000000000815260040161128d919061182e565b60405180910390fd5b6112a15f8383611474565b5050565b5f73ffffffffffffffffffffffffffffffffffffffff168473ffffffffffffffffffffffffffffffffffffffff1603611315575f6040517fe602df0500000000000000000000000000000000000000000000000000000000815260040161130c919061182e565b60405180910390fd5b5f73ffffffffffffffffffffffffffffffffffffffff168373ffffffffffffffffffffffffffffffffffffffff1603611385575f6040517f94280d6200000000000000000000000000000000000000000000000000000000815260040161137c919061182e565b60405180910390fd5b8160015f8673ffffffffffffffffffffffffffffffffffffffff1673ffffffffffffffffffffffffffffffffffffffff1681526020019081526020015f205f8573ffffffffffffffffffffffffffffffffffffffff1673ffffffffffffffffffffffffffffffffffffffff1681526020019081526020015f2081905550801561146e578273ffffffffffffffffffffffffffffffffffffffff168473ffffffffffffffffffffffffffffffffffffffff167f8c5be1e5ebec7d5bd14f71427d1e84f3dd0314c0f7b2291e5b200ac8c7c3b925846040516114659190611856565b60405180910390a35b50505050565b5f73ffffffffffffffffffffffffffffffffffffffff168373ffffffffffffffffffffffffffffffffffffffff16036114c4578060025f8282546114b89190611b79565b92505081905550611592565b5f5f5f8573ffffffffffffffffffffffffffffffffffffffff1673ffffffffffffffffffffffffffffffffffffffff1681526020019081526020015f205490508181101561154d578381836040517fe450d38c0000000000000000000000000000000000000000000000000000000081526004016115449392919061191e565b60405180910390fd5b8181035f5f8673ffffffffffffffffffffffffffffffffffffffff1673ffffffffffffffffffffffffffffffffffffffff1681526020019081526020015f2081905550505b5f73ffffffffffffffffffffffffffffffffffffffff168273ffffffffffffffffffffffffffffffffffffffff16036115d9578060025f8282540392505081905550611623565b805f5f8473ffffffffffffffffffffffffffffffffffffffff1673ffffffffffffffffffffffffffffffffffffffff1681526020019081526020015f205f82825401925050819055505b8173ffffffffffffffffffffffffffffffffffffffff168373ffffffffffffffffffffffffffffffffffffffff167fddf252ad1be2c89b69c2b068fc378daa952ba7f163c4a11628f55a4df523b3ef836040516116809190611856565b60405180910390a3505050565b5f81519050919050565b5f82825260208201905092915050565b8281835e5f83830152505050565b5f601f19601f8301169050919050565b5f6116cf8261168d565b6116d98185611697565b93506116e98185602086016116a7565b6116f2816116b5565b840191505092915050565b5f6020820190508181035f83015261171581846116c5565b905092915050565b5f5ffd5b5f73ffffffffffffffffffffffffffffffffffffffff82169050919050565b5f61174a82611721565b9050919050565b61175a81611740565b8114611764575f5ffd5b50565b5f8135905061177581611751565b92915050565b5f819050919050565b61178d8161177b565b8114611797575f5ffd5b50565b5f813590506117a881611784565b92915050565b5f5f604083850312156117c4576117c361171d565b5b5f6117d185828601611767565b92505060206117e28582860161179a565b9150509250929050565b5f8115159050919050565b611800816117ec565b82525050565b5f6020820190506118195f8301846117f7565b92915050565b61182881611740565b82525050565b5f6020820190506118415f83018461181f565b92915050565b6118508161177b565b82525050565b5f6020820190506118695f830184611847565b92915050565b5f5f5f606084860312156118865761188561171d565b5b5f61189386828701611767565b93505060206118a486828701611767565b92505060406118b58682870161179a565b9150509250925092565b5f60ff82169050919050565b6118d4816118bf565b82525050565b5f6020820190506118ed5f8301846118cb565b92915050565b5f602082840312156119085761190761171d565b5b5f61191584828501611767565b91505092915050565b5f6060820190506119315f83018661181f565b61193e6020830185611847565b61194b6040830184611847565b949350505050565b5f5f604083850312156119695761196861171d565b5b5f61197685828601611767565b925050602061198785828601611767565b9150509250929050565b7f4e487b71000000000000000000000000000000000000000000000000000000005f52602260045260245ffd5b5f60028204905060018216806119d557607f821691505b6020821081036119e8576119e7611991565b5b50919050565b7f4f6e6c7920666163746f72792063616e2063616c6c20746869732066756e63745f8201527f696f6e0000000000000000000000000000000000000000000000000000000000602082015250565b5f611a48602383611697565b9150611a53826119ee565b604082019050919050565b5f6020820190508181035f830152611a7581611a3c565b9050919050565b7f4c7020616c726561647920616c6c6f63617465640000000000000000000000005f82015250565b5f611ab0601483611697565b9150611abb82611a7c565b602082019050919050565b5f6020820190508181035f830152611add81611aa4565b9050919050565b7f4e6f7420656e6f7567682062616c616e636520746f20756e6c6f636b000000005f82015250565b5f611b18601c83611697565b9150611b2382611ae4565b602082019050919050565b5f6020820190508181035f830152611b4581611b0c565b9050919050565b7f4e487b71000000000000000000000000000000000000000000000000000000005f52601160045260245ffd5b5f611b838261177b565b9150611b8e8361177b565b9250828201905080821115611ba657611ba5611b4c565b5b92915050565b5f611bb68261177b565b9150611bc18361177b565b9250828203905081811115611bd957611bd8611b4c565b5b92915050565b7f496e76616c6964206164647265737300000000000000000000000000000000005f82015250565b5f611c13600f83611697565b9150611c1e82611bdf565b602082019050919050565b5f6020820190508181035f830152611c4081611c07565b9050919050565b7f496e76616c696420616d6f756e740000000000000000000000000000000000005f82015250565b5f611c7b600e83611697565b9150611c8682611c47565b602082019050919050565b5f6020820190508181035f830152611ca881611c6f565b9050919050565b7f45786365656473206d617820737570706c7900000000000000000000000000005f82015250565b5f611ce3601283611697565b9150611cee82611caf565b602082019050919050565b5f6020820190508181035f830152611d1081611cd7565b9050919050565b7f4f6e6c792063726561746f722063616e20636c61696d000000000000000000005f82015250565b5f611d4b601683611697565b9150611d5682611d17565b602082019050919050565b5f6020820190508181035f830152611d7881611d3f565b905091905056fea264697066735822122079768c5adba8dc2c4c4d676145d3abdf318e081f46d55048139804256652f53c64736f6c634300081c0033",
  "linkReferences": {},
  "deployedLinkReferences": {},
  "immutableReferences": {
    "11620": [
      {
        "length": 32,
        "start": 1597
      },
      {
        "length": 32,
        "start": 3063
      }
    ],
    "11627": [
      {
        "length": 32,
        "start": 2011
      },
      {
        "length": 32,
        "start": 2109
      },
      {
        "length": 32,
        "start": 3738
      }
    ]
  },
  "inputSourceName": "project/contracts/MemedToken.sol",
  "buildInfoId": "solc-0_8_28-01974c1b8113ada42963aa3e398e48a2378bcd3c"
}