{
  "_format": "hh3-artifact-1",
  "contractName": "MemedFactory_test",
  "sourceName": "contracts/MemedFactory_test.sol",
  "abi": [
    {
      "inputs": [
        {
          "internalType": "address",
          "name": "_memedTokenSale",
          "type": "address"
        },
        {
          "internalType": "address",
          "name": "_memedBattle",
          "type": "address"
        },
        {
          "internalType": "address",
          "name": "_memedEngageToEarn",
          "type": "address"
        },
        {
          "internalType": "address",
          "name": "_uniswapV2Router",
          "type": "address"
        }
      ],
      "stateMutability": "nonpayable",
      "type": "constructor"
    },
    {
      "inputs": [
        {
          "internalType": "address",
          "name": "owner",
          "type": "address"
        }
      ],
      "name": "OwnableInvalidOwner",
      "type": "error"
    },
    {
      "inputs": [
        {
          "internalType": "address",
          "name": "account",
          "type": "address"
        }
      ],
      "name": "OwnableUnauthorizedAccount",
      "type": "error"
    },
    {
      "inputs": [],
      "name": "ReentrancyGuardReentrantCall",
      "type": "error"
    },
    {
      "anonymous": false,
      "inputs": [
        {
          "indexed": true,
          "internalType": "address",
          "name": "winner",
          "type": "address"
        },
        {
          "indexed": true,
          "internalType": "address",
          "name": "loser",
          "type": "address"
        },
        {
          "indexed": false,
          "internalType": "uint256",
          "name": "creatorIncentivesUnlocksAtWinner",
          "type": "uint256"
        },
        {
          "indexed": false,
          "internalType": "uint256",
          "name": "creatorIncentivesUnlocksAtLoser",
          "type": "uint256"
        }
      ],
      "name": "BattleUpdated",
      "type": "event"
    },
    {
      "anonymous": false,
      "inputs": [
        {
          "indexed": true,
          "internalType": "address",
          "name": "token",
          "type": "address"
        },
        {
          "indexed": false,
          "internalType": "uint256",
          "name": "heat",
          "type": "uint256"
        },
        {
          "indexed": false,
          "internalType": "uint256",
          "name": "timestamp",
          "type": "uint256"
        }
      ],
      "name": "HeatUpdated",
      "type": "event"
    },
    {
      "anonymous": false,
      "inputs": [
        {
          "indexed": true,
          "internalType": "address",
          "name": "previousOwner",
          "type": "address"
        },
        {
          "indexed": true,
          "internalType": "address",
          "name": "newOwner",
          "type": "address"
        }
      ],
      "name": "OwnershipTransferred",
      "type": "event"
    },
    {
      "anonymous": false,
      "inputs": [
        {
          "indexed": true,
          "internalType": "uint256",
          "name": "id",
          "type": "uint256"
        },
        {
          "indexed": true,
          "internalType": "address",
          "name": "token",
          "type": "address"
        },
        {
          "indexed": true,
          "internalType": "address",
          "name": "warriorNFT",
          "type": "address"
        }
      ],
      "name": "TokenCompletedFairLaunch",
      "type": "event"
    },
    {
      "anonymous": false,
      "inputs": [
        {
          "indexed": true,
          "internalType": "uint256",
          "name": "id",
          "type": "uint256"
        },
        {
          "indexed": true,
          "internalType": "address",
          "name": "token",
          "type": "address"
        },
        {
          "indexed": true,
          "internalType": "address",
          "name": "owner",
          "type": "address"
        },
        {
          "indexed": false,
          "internalType": "string",
          "name": "name",
          "type": "string"
        },
        {
          "indexed": false,
          "internalType": "string",
          "name": "ticker",
          "type": "string"
        },
        {
          "indexed": false,
          "internalType": "string",
          "name": "description",
          "type": "string"
        },
        {
          "indexed": false,
          "internalType": "string",
          "name": "image",
          "type": "string"
        },
        {
          "indexed": false,
          "internalType": "bool",
          "name": "isClaimedByCreator",
          "type": "bool"
        },
        {
          "indexed": false,
          "internalType": "uint256",
          "name": "createdAt",
          "type": "uint256"
        }
      ],
      "name": "TokenCreated",
      "type": "event"
    },
    {
      "inputs": [],
      "name": "BATTLE_REWARDS_PERCENTAGE",
      "outputs": [
        {
          "internalType": "uint256",
          "name": "",
          "type": "uint256"
        }
      ],
      "stateMutability": "view",
      "type": "function"
    },
    {
      "inputs": [],
      "name": "ENGAGEMENT_REWARDS_PER_NEW_HEAT",
      "outputs": [
        {
          "internalType": "uint256",
          "name": "",
          "type": "uint256"
        }
      ],
      "stateMutability": "view",
      "type": "function"
    },
    {
      "inputs": [],
      "name": "INITIAL_REWARDS_PER_HEAT",
      "outputs": [
        {
          "internalType": "uint256",
          "name": "",
          "type": "uint256"
        }
      ],
      "stateMutability": "view",
      "type": "function"
    },
    {
      "inputs": [],
      "name": "MAX_ENGAGE_CREATOR_REWARD_PERCENTAGE",
      "outputs": [
        {
          "internalType": "uint256",
          "name": "",
          "type": "uint256"
        }
      ],
      "stateMutability": "view",
      "type": "function"
    },
    {
      "inputs": [],
      "name": "MAX_ENGAGE_USER_REWARD_PERCENTAGE",
      "outputs": [
        {
          "internalType": "uint256",
          "name": "",
          "type": "uint256"
        }
      ],
      "stateMutability": "view",
      "type": "function"
    },
    {
      "inputs": [],
      "name": "MEMED_TEST_ETH",
      "outputs": [
        {
          "internalType": "address",
          "name": "",
          "type": "address"
        }
      ],
      "stateMutability": "view",
      "type": "function"
    },
    {
      "inputs": [],
      "name": "REWARD_PER_ENGAGEMENT",
      "outputs": [
        {
          "internalType": "uint256",
          "name": "",
          "type": "uint256"
        }
      ],
      "stateMutability": "view",
      "type": "function"
    },
    {
      "inputs": [
        {
          "internalType": "address",
          "name": "_winner",
          "type": "address"
        },
        {
          "internalType": "address",
          "name": "_loser",
          "type": "address"
        }
      ],
      "name": "battleUpdate",
      "outputs": [],
      "stateMutability": "nonpayable",
      "type": "function"
    },
    {
      "inputs": [
        {
          "internalType": "address",
          "name": "_token",
          "type": "address"
        },
        {
          "internalType": "address",
          "name": "_creator",
          "type": "address"
        }
      ],
      "name": "claimToken",
      "outputs": [],
      "stateMutability": "nonpayable",
      "type": "function"
    },
    {
      "inputs": [
        {
          "internalType": "uint256",
          "name": "_id",
          "type": "uint256"
        },
        {
          "internalType": "address",
          "name": "_token",
          "type": "address"
        },
        {
          "internalType": "address",
          "name": "_warriorNFT",
          "type": "address"
        }
      ],
      "name": "completeFairLaunch",
      "outputs": [],
      "stateMutability": "nonpayable",
      "type": "function"
    },
    {
      "inputs": [
        {
          "internalType": "address",
          "name": "_token",
          "type": "address"
        }
      ],
      "name": "getByToken",
      "outputs": [
        {
          "components": [
            {
              "internalType": "address",
              "name": "token",
              "type": "address"
            },
            {
              "internalType": "address",
              "name": "warriorNFT",
              "type": "address"
            },
            {
              "internalType": "address",
              "name": "creator",
              "type": "address"
            },
            {
              "internalType": "string",
              "name": "name",
              "type": "string"
            },
            {
              "internalType": "string",
              "name": "ticker",
              "type": "string"
            },
            {
              "internalType": "string",
              "name": "description",
              "type": "string"
            },
            {
              "internalType": "string",
              "name": "image",
              "type": "string"
            },
            {
              "internalType": "bool",
              "name": "isClaimedByCreator",
              "type": "bool"
            }
          ],
          "internalType": "struct TokenData",
          "name": "",
          "type": "tuple"
        }
      ],
      "stateMutability": "view",
      "type": "function"
    },
    {
      "inputs": [
        {
          "internalType": "uint256",
          "name": "_id",
          "type": "uint256"
        }
      ],
      "name": "getCreatorById",
      "outputs": [
        {
          "internalType": "address",
          "name": "",
          "type": "address"
        }
      ],
      "stateMutability": "view",
      "type": "function"
    },
    {
      "inputs": [
        {
          "internalType": "address",
          "name": "_token",
          "type": "address"
        }
      ],
      "name": "getHeat",
      "outputs": [
        {
          "internalType": "uint256",
          "name": "",
          "type": "uint256"
        }
      ],
      "stateMutability": "view",
      "type": "function"
    },
    {
      "inputs": [],
      "name": "getMemedBattle",
      "outputs": [
        {
          "internalType": "address",
          "name": "",
          "type": "address"
        }
      ],
      "stateMutability": "view",
      "type": "function"
    },
    {
      "inputs": [],
      "name": "getMemedEngageToEarn",
      "outputs": [
        {
          "internalType": "contract IMemedEngageToEarn",
          "name": "",
          "type": "address"
        }
      ],
      "stateMutability": "view",
      "type": "function"
    },
    {
      "inputs": [
        {
          "internalType": "address",
          "name": "_token",
          "type": "address"
        }
      ],
      "name": "getTokenByAddress",
      "outputs": [
        {
          "components": [
            {
              "internalType": "address",
              "name": "token",
              "type": "address"
            },
            {
              "internalType": "address",
              "name": "warriorNFT",
              "type": "address"
            },
            {
              "internalType": "address",
              "name": "creator",
              "type": "address"
            },
            {
              "internalType": "string",
              "name": "name",
              "type": "string"
            },
            {
              "internalType": "string",
              "name": "ticker",
              "type": "string"
            },
            {
              "internalType": "string",
              "name": "description",
              "type": "string"
            },
            {
              "internalType": "string",
              "name": "image",
              "type": "string"
            },
            {
              "internalType": "bool",
              "name": "isClaimedByCreator",
              "type": "bool"
            }
          ],
          "internalType": "struct TokenData",
          "name": "",
          "type": "tuple"
        }
      ],
      "stateMutability": "view",
      "type": "function"
    },
    {
      "inputs": [
        {
          "internalType": "uint256",
          "name": "_id",
          "type": "uint256"
        }
      ],
      "name": "getTokenById",
      "outputs": [
        {
          "components": [
            {
              "internalType": "address",
              "name": "token",
              "type": "address"
            },
            {
              "internalType": "address",
              "name": "warriorNFT",
              "type": "address"
            },
            {
              "internalType": "address",
              "name": "creator",
              "type": "address"
            },
            {
              "internalType": "string",
              "name": "name",
              "type": "string"
            },
            {
              "internalType": "string",
              "name": "ticker",
              "type": "string"
            },
            {
              "internalType": "string",
              "name": "description",
              "type": "string"
            },
            {
              "internalType": "string",
              "name": "image",
              "type": "string"
            },
            {
              "internalType": "bool",
              "name": "isClaimedByCreator",
              "type": "bool"
            }
          ],
          "internalType": "struct TokenData",
          "name": "",
          "type": "tuple"
        }
      ],
      "stateMutability": "view",
      "type": "function"
    },
    {
      "inputs": [],
      "name": "getTokens",
      "outputs": [
        {
          "components": [
            {
              "internalType": "address",
              "name": "token",
              "type": "address"
            },
            {
              "internalType": "address",
              "name": "warriorNFT",
              "type": "address"
            },
            {
              "internalType": "address",
              "name": "creator",
              "type": "address"
            },
            {
              "internalType": "string",
              "name": "name",
              "type": "string"
            },
            {
              "internalType": "string",
              "name": "ticker",
              "type": "string"
            },
            {
              "internalType": "string",
              "name": "description",
              "type": "string"
            },
            {
              "internalType": "string",
              "name": "image",
              "type": "string"
            },
            {
              "internalType": "bool",
              "name": "isClaimedByCreator",
              "type": "bool"
            }
          ],
          "internalType": "struct TokenData[]",
          "name": "",
          "type": "tuple[]"
        }
      ],
      "stateMutability": "view",
      "type": "function"
    },
    {
      "inputs": [
        {
          "internalType": "address",
          "name": "_token",
          "type": "address"
        }
      ],
      "name": "getWarriorNFT",
      "outputs": [
        {
          "internalType": "address",
          "name": "",
          "type": "address"
        }
      ],
      "stateMutability": "view",
      "type": "function"
    },
    {
      "inputs": [],
      "name": "memedBattle",
      "outputs": [
        {
          "internalType": "contract IMemedBattle",
          "name": "",
          "type": "address"
        }
      ],
      "stateMutability": "view",
      "type": "function"
    },
    {
      "inputs": [],
      "name": "memedEngageToEarn",
      "outputs": [
        {
          "internalType": "contract IMemedEngageToEarn",
          "name": "",
          "type": "address"
        }
      ],
      "stateMutability": "view",
      "type": "function"
    },
    {
      "inputs": [],
      "name": "memedTokenSale",
      "outputs": [
        {
          "internalType": "contract IMemedTokenSale",
          "name": "",
          "type": "address"
        }
      ],
      "stateMutability": "view",
      "type": "function"
    },
    {
      "inputs": [],
      "name": "owner",
      "outputs": [
        {
          "internalType": "address",
          "name": "",
          "type": "address"
        }
      ],
      "stateMutability": "view",
      "type": "function"
    },
    {
      "inputs": [],
      "name": "renounceOwnership",
      "outputs": [],
      "stateMutability": "nonpayable",
      "type": "function"
    },
    {
      "inputs": [
        {
          "internalType": "address",
          "name": "_creator",
          "type": "address"
        },
        {
          "internalType": "string",
          "name": "_name",
          "type": "string"
        },
        {
          "internalType": "string",
          "name": "_ticker",
          "type": "string"
        },
        {
          "internalType": "string",
          "name": "_description",
          "type": "string"
        },
        {
          "internalType": "string",
          "name": "_image",
          "type": "string"
        }
      ],
      "name": "startFairLaunch",
      "outputs": [],
      "stateMutability": "nonpayable",
      "type": "function"
    },
    {
      "inputs": [
        {
          "internalType": "uint256",
          "name": "_amount",
          "type": "uint256"
        },
        {
          "internalType": "address[]",
          "name": "_path",
          "type": "address[]"
        },
        {
          "internalType": "address",
          "name": "_to",
          "type": "address"
        }
      ],
      "name": "swap",
      "outputs": [
        {
          "internalType": "uint256[]",
          "name": "",
          "type": "uint256[]"
        }
      ],
      "stateMutability": "nonpayable",
      "type": "function"
    },
    {
      "inputs": [
        {
          "internalType": "uint256",
          "name": "",
          "type": "uint256"
        }
      ],
      "name": "tokenData",
      "outputs": [
        {
          "internalType": "address",
          "name": "token",
          "type": "address"
        },
        {
          "internalType": "address",
          "name": "warriorNFT",
          "type": "address"
        },
        {
          "internalType": "address",
          "name": "creator",
          "type": "address"
        },
        {
          "internalType": "string",
          "name": "name",
          "type": "string"
        },
        {
          "internalType": "string",
          "name": "ticker",
          "type": "string"
        },
        {
          "internalType": "string",
          "name": "description",
          "type": "string"
        },
        {
          "internalType": "string",
          "name": "image",
          "type": "string"
        },
        {
          "internalType": "bool",
          "name": "isClaimedByCreator",
          "type": "bool"
        }
      ],
      "stateMutability": "view",
      "type": "function"
    },
    {
      "inputs": [
        {
          "internalType": "uint256",
          "name": "",
          "type": "uint256"
        }
      ],
      "name": "tokenRewardData",
      "outputs": [
        {
          "internalType": "uint256",
          "name": "lastRewardAt",
          "type": "uint256"
        },
        {
          "internalType": "uint256",
          "name": "creatorIncentivesUnlocksAt",
          "type": "uint256"
        },
        {
          "internalType": "uint256",
          "name": "creatorIncentivesUnlockedAt",
          "type": "uint256"
        },
        {
          "internalType": "uint256",
          "name": "lastEngagementBoost",
          "type": "uint256"
        },
        {
          "internalType": "uint256",
          "name": "heat",
          "type": "uint256"
        },
        {
          "internalType": "uint256",
          "name": "lastHeatUpdate",
          "type": "uint256"
        },
        {
          "internalType": "uint256",
          "name": "createdAt",
          "type": "uint256"
        }
      ],
      "stateMutability": "view",
      "type": "function"
    },
    {
      "inputs": [
        {
          "internalType": "uint256",
          "name": "",
          "type": "uint256"
        }
      ],
      "name": "tokens",
      "outputs": [
        {
          "internalType": "address",
          "name": "",
          "type": "address"
        }
      ],
      "stateMutability": "view",
      "type": "function"
    },
    {
      "inputs": [
        {
          "internalType": "address",
          "name": "newOwner",
          "type": "address"
        }
      ],
      "name": "transferOwnership",
      "outputs": [],
      "stateMutability": "nonpayable",
      "type": "function"
    },
    {
      "inputs": [],
      "name": "uniswapV2Factory",
      "outputs": [
        {
          "internalType": "contract IUniswapV2Factory",
          "name": "",
          "type": "address"
        }
      ],
      "stateMutability": "view",
      "type": "function"
    },
    {
      "inputs": [],
      "name": "uniswapV2Router",
      "outputs": [
        {
          "internalType": "contract IUniswapV2Router02",
          "name": "",
          "type": "address"
        }
      ],
      "stateMutability": "view",
      "type": "function"
    },
    {
      "inputs": [
        {
          "components": [
            {
              "internalType": "address",
              "name": "token",
              "type": "address"
            },
            {
              "internalType": "uint256",
              "name": "heat",
              "type": "uint256"
            }
          ],
          "internalType": "struct HeatUpdate[]",
          "name": "_heatUpdates",
          "type": "tuple[]"
        }
      ],
      "name": "updateHeat",
      "outputs": [],
      "stateMutability": "nonpayable",
      "type": "function"
    },
    {
      "stateMutability": "payable",
      "type": "receive"
    }
  ],
  "bytecode": "0x6080604052620186a0600255601460035534801561001b575f5ffd5b50604051615ca6380380615ca6833981810160405281019061003d91906103ba565b335f73ffffffffffffffffffffffffffffffffffffffff168173ffffffffffffffffffffffffffffffffffffffff16036100ae575f6040517f1e4fbdf70000000000000000000000000000000000000000000000000000000081526004016100a5919061042d565b60405180910390fd5b6100bd8161029b60201b60201c565b50600180819055508360045f6101000a81548173ffffffffffffffffffffffffffffffffffffffff021916908373ffffffffffffffffffffffffffffffffffffffff1602179055508260055f6101000a81548173ffffffffffffffffffffffffffffffffffffffff021916908373ffffffffffffffffffffffffffffffffffffffff1602179055508160065f6101000a81548173ffffffffffffffffffffffffffffffffffffffff021916908373ffffffffffffffffffffffffffffffffffffffff16021790555080600a5f6101000a81548173ffffffffffffffffffffffffffffffffffffffff021916908373ffffffffffffffffffffffffffffffffffffffff160217905550600a5f9054906101000a900473ffffffffffffffffffffffffffffffffffffffff1673ffffffffffffffffffffffffffffffffffffffff1663c45a01556040518163ffffffff1660e01b8152600401602060405180830381865afa15801561022f573d5f5f3e3d5ffd5b505050506040513d601f19601f820116820180604052508101906102539190610446565b600b5f6101000a81548173ffffffffffffffffffffffffffffffffffffffff021916908373ffffffffffffffffffffffffffffffffffffffff16021790555050505050610471565b5f5f5f9054906101000a900473ffffffffffffffffffffffffffffffffffffffff169050815f5f6101000a81548173ffffffffffffffffffffffffffffffffffffffff021916908373ffffffffffffffffffffffffffffffffffffffff1602179055508173ffffffffffffffffffffffffffffffffffffffff168173ffffffffffffffffffffffffffffffffffffffff167f8be0079c531659141344cd1fd0a4f28419497f9722a3daafe3b4186f6b6457e060405160405180910390a35050565b5f5ffd5b5f73ffffffffffffffffffffffffffffffffffffffff82169050919050565b5f61038982610360565b9050919050565b6103998161037f565b81146103a3575f5ffd5b50565b5f815190506103b481610390565b92915050565b5f5f5f5f608085870312156103d2576103d161035c565b5b5f6103df878288016103a6565b94505060206103f0878288016103a6565b9350506040610401878288016103a6565b9250506060610412878288016103a6565b91505092959194509250565b6104278161037f565b82525050565b5f6020820190506104405f83018461041e565b92915050565b5f6020828403121561045b5761045a61035c565b5b5f610468848285016103a6565b91505092915050565b6158288061047e5f395ff3fe6080604052600436106101f1575f3560e01c80637bdc60d91161010c578063b4b5b48f1161009f578063dc6930a31161006e578063dc6930a314610725578063dd743bc81461074f578063e5659f071461078b578063f2fde38b146107b5578063f797113f146107dd576101f8565b8063b4b5b48f14610668578063c9235634146106ab578063ca31879d146106d3578063d1f6d04a146106fb576101f8565b8063a11d8ac7116100db578063a11d8ac7146105b0578063a40103d4146105da578063aa6ca80814610616578063abf599fc14610640576101f8565b80637bdc60d9146104cc5780638da5cb5b1461050857806391ded8fa1461053257806392ac25821461056e576101f8565b80634f64b2be116101845780635de7c44a116101535780635de7c44a14610438578063715018a614610462578063741c6ae81461047857806377e989f3146104a2576101f8565b80634f64b2be1461036c5780635153563b146103a857806359d0f713146103d25780635d3575a6146103fc576101f8565b806327e2fee4116101c057806327e2fee4146102a05780632badbfc0146102dc578063306d350814610306578063320dc01b14610342576101f8565b80630280a16f146101fc57806311eefb29146102265780631694505e1461024e578063263a610014610278576101f8565b366101f857005b5f5ffd5b348015610207575f5ffd5b50610210610807565b60405161021d9190613d87565b60405180910390f35b348015610231575f5ffd5b5061024c60048036038101906102479190613e12565b61080d565b005b348015610259575f5ffd5b506102626109a6565b60405161026f9190613ed7565b60405180910390f35b348015610283575f5ffd5b5061029e60048036038101906102999190613f80565b6109cb565b005b3480156102ab575f5ffd5b506102c660048036038101906102c19190614076565b610d63565b6040516102d391906140b0565b60405180910390f35b3480156102e7575f5ffd5b506102f0610e37565b6040516102fd91906140b0565b60405180910390f35b348015610311575f5ffd5b5061032c60048036038101906103279190614076565b610e4f565b6040516103399190613d87565b60405180910390f35b34801561034d575f5ffd5b50610356610f04565b6040516103639190613d87565b60405180910390f35b348015610377575f5ffd5b50610392600480360381019061038d91906140f3565b610f0b565b60405161039f91906140b0565b60405180910390f35b3480156103b3575f5ffd5b506103bc610f46565b6040516103c9919061413e565b60405180910390f35b3480156103dd575f5ffd5b506103e6610f6b565b6040516103f39190614177565b60405180910390f35b348015610407575f5ffd5b50610422600480360381019061041d91906140f3565b610f90565b60405161042f91906140b0565b60405180910390f35b348015610443575f5ffd5b5061044c610fcc565b6040516104599190613d87565b60405180910390f35b34801561046d575f5ffd5b50610476610fd2565b005b348015610483575f5ffd5b5061048c610fe5565b6040516104999190613d87565b60405180910390f35b3480156104ad575f5ffd5b506104b6610fea565b6040516104c391906141b0565b60405180910390f35b3480156104d7575f5ffd5b506104f260048036038101906104ed91906140f3565b611012565b6040516104ff9190614324565b60405180910390f35b348015610513575f5ffd5b5061051c611396565b60405161052991906140b0565b60405180910390f35b34801561053d575f5ffd5b5061055860048036038101906105539190614076565b6113bd565b6040516105659190614324565b60405180910390f35b348015610579575f5ffd5b50610594600480360381019061058f91906140f3565b61184f565b6040516105a79796959493929190614344565b60405180910390f35b3480156105bb575f5ffd5b506105c461188d565b6040516105d191906141b0565b60405180910390f35b3480156105e5575f5ffd5b5061060060048036038101906105fb9190614406565b6118b2565b60405161060d919061452e565b60405180910390f35b348015610621575f5ffd5b5061062a611b31565b60405161063791906146cb565b60405180910390f35b34801561064b575f5ffd5b50610666600480360381019061066191906146eb565b611c18565b005b348015610673575f5ffd5b5061068e600480360381019061068991906140f3565b612646565b6040516106a2989796959493929190614792565b60405180910390f35b3480156106b6575f5ffd5b506106d160048036038101906106cc919061482a565b61290b565b005b3480156106de575f5ffd5b506106f960048036038101906106f4919061482a565b612c73565b005b348015610706575f5ffd5b5061070f6130ad565b60405161071c91906140b0565b60405180910390f35b348015610730575f5ffd5b506107396130d5565b6040516107469190614888565b60405180910390f35b34801561075a575f5ffd5b5061077560048036038101906107709190614076565b6130fa565b6040516107829190614324565b60405180910390f35b348015610796575f5ffd5b5061079f613516565b6040516107ac9190613d87565b60405180910390f35b3480156107c0575f5ffd5b506107db60048036038101906107d69190614076565b61351c565b005b3480156107e8575f5ffd5b506107f16135a0565b6040516107fe9190613d87565b60405180910390f35b61c35081565b60055f9054906101000a900473ffffffffffffffffffffffffffffffffffffffff1673ffffffffffffffffffffffffffffffffffffffff163373ffffffffffffffffffffffffffffffffffffffff16148061089a575061086b611396565b73ffffffffffffffffffffffffffffffffffffffff163373ffffffffffffffffffffffffffffffffffffffff16145b6108d9576040517f08c379a00000000000000000000000000000000000000000000000000000000081526004016108d0906148eb565b60405180910390fd5b5f8282905067ffffffffffffffff8111156108f7576108f6614909565b5b60405190808252806020026020018201604052801561093057816020015b61091d613cbc565b8152602001906001900390816109155790505b5090505f5f90505b838390508110156109975783838281811061095657610955614936565b5b90506040020180360381019061096c91906149ff565b82828151811061097f5761097e614936565b5b60200260200101819052508080600101915050610938565b506109a1816135a5565b505050565b600a5f9054906101000a900473ffffffffffffffffffffffffffffffffffffffff1681565b6109d3613b1e565b5f73ffffffffffffffffffffffffffffffffffffffff168973ffffffffffffffffffffffffffffffffffffffff1614610adf5760045f9054906101000a900473ffffffffffffffffffffffffffffffffffffffff1673ffffffffffffffffffffffffffffffffffffffff1663222b15fb8a6040518263ffffffff1660e01b8152600401610a6091906140b0565b602060405180830381865afa158015610a7b573d5f5f3e3d5ffd5b505050506040513d601f19601f82011682018060405250810190610a9f9190614a54565b610ade576040517f08c379a0000000000000000000000000000000000000000000000000000000008152600401610ad590614aef565b60405180910390fd5b5b5f60045f9054906101000a900473ffffffffffffffffffffffffffffffffffffffff1673ffffffffffffffffffffffffffffffffffffffff1663e0eeb3d38b6040518263ffffffff1660e01b8152600401610b3a91906140b0565b6020604051808303815f875af1158015610b56573d5f5f3e3d5ffd5b505050506040513d601f19601f82011682018060405250810190610b7a9190614b21565b90505f60075f8381526020019081526020015f2090508a816002015f6101000a81548173ffffffffffffffffffffffffffffffffffffffff021916908373ffffffffffffffffffffffffffffffffffffffff1602179055508989826003019182610be5929190614d4a565b508787826004019182610bf9929190614d4a565b508585826005019182610c0d929190614d4a565b508383826006019182610c21929190614d4a565b505f73ffffffffffffffffffffffffffffffffffffffff168b73ffffffffffffffffffffffffffffffffffffffff1614816007015f6101000a81548160ff02191690831515021790555060025460085f8481526020019081526020015f205f0181905550806002015f9054906101000a900473ffffffffffffffffffffffffffffffffffffffff1673ffffffffffffffffffffffffffffffffffffffff16815f015f9054906101000a900473ffffffffffffffffffffffffffffffffffffffff1673ffffffffffffffffffffffffffffffffffffffff16837f61de3782e61b0bc571fd85abd9a902e9a0df5e58991896aa5fc45f8cd31fcf3e84600301856004018660050187600601886007015f9054906101000a900460ff1642604051610d4e96959493929190614e98565b60405180910390a45050505050505050505050565b5f60075f60045f9054906101000a900473ffffffffffffffffffffffffffffffffffffffff1673ffffffffffffffffffffffffffffffffffffffff1663e8378fbf856040518263ffffffff1660e01b8152600401610dc191906140b0565b602060405180830381865afa158015610ddc573d5f5f3e3d5ffd5b505050506040513d601f19601f82011682018060405250810190610e009190614b21565b81526020019081526020015f206001015f9054906101000a900473ffffffffffffffffffffffffffffffffffffffff169050919050565b73c190e6f26ce14e40d30251fde25927a73a5d58b681565b5f60085f60045f9054906101000a900473ffffffffffffffffffffffffffffffffffffffff1673ffffffffffffffffffffffffffffffffffffffff1663e8378fbf856040518263ffffffff1660e01b8152600401610ead91906140b0565b602060405180830381865afa158015610ec8573d5f5f3e3d5ffd5b505050506040513d601f19601f82011682018060405250810190610eec9190614b21565b81526020019081526020015f20600401549050919050565b620186a081565b60098181548110610f1a575f80fd5b905f5260205f20015f915054906101000a900473ffffffffffffffffffffffffffffffffffffffff1681565b60055f9054906101000a900473ffffffffffffffffffffffffffffffffffffffff1681565b600b5f9054906101000a900473ffffffffffffffffffffffffffffffffffffffff1681565b5f60075f8381526020019081526020015f206002015f9054906101000a900473ffffffffffffffffffffffffffffffffffffffff169050919050565b60025481565b610fda613b1e565b610fe35f613ba5565b565b600281565b5f60065f9054906101000a900473ffffffffffffffffffffffffffffffffffffffff16905090565b61101a613cea565b60075f8381526020019081526020015f20604051806101000160405290815f82015f9054906101000a900473ffffffffffffffffffffffffffffffffffffffff1673ffffffffffffffffffffffffffffffffffffffff1673ffffffffffffffffffffffffffffffffffffffff168152602001600182015f9054906101000a900473ffffffffffffffffffffffffffffffffffffffff1673ffffffffffffffffffffffffffffffffffffffff1673ffffffffffffffffffffffffffffffffffffffff168152602001600282015f9054906101000a900473ffffffffffffffffffffffffffffffffffffffff1673ffffffffffffffffffffffffffffffffffffffff1673ffffffffffffffffffffffffffffffffffffffff16815260200160038201805461114590614b83565b80601f016020809104026020016040519081016040528092919081815260200182805461117190614b83565b80156111bc5780601f10611193576101008083540402835291602001916111bc565b820191905f5260205f20905b81548152906001019060200180831161119f57829003601f168201915b505050505081526020016004820180546111d590614b83565b80601f016020809104026020016040519081016040528092919081815260200182805461120190614b83565b801561124c5780601f106112235761010080835404028352916020019161124c565b820191905f5260205f20905b81548152906001019060200180831161122f57829003601f168201915b5050505050815260200160058201805461126590614b83565b80601f016020809104026020016040519081016040528092919081815260200182805461129190614b83565b80156112dc5780601f106112b3576101008083540402835291602001916112dc565b820191905f5260205f20905b8154815290600101906020018083116112bf57829003601f168201915b505050505081526020016006820180546112f590614b83565b80601f016020809104026020016040519081016040528092919081815260200182805461132190614b83565b801561136c5780601f106113435761010080835404028352916020019161136c565b820191905f5260205f20905b81548152906001019060200180831161134f57829003601f168201915b50505050508152602001600782015f9054906101000a900460ff1615151515815250509050919050565b5f5f5f9054906101000a900473ffffffffffffffffffffffffffffffffffffffff16905090565b6113c5613cea565b5f60075f60045f9054906101000a900473ffffffffffffffffffffffffffffffffffffffff1673ffffffffffffffffffffffffffffffffffffffff1663e8378fbf866040518263ffffffff1660e01b815260040161142391906140b0565b602060405180830381865afa15801561143e573d5f5f3e3d5ffd5b505050506040513d601f19601f820116820180604052508101906114629190614b21565b81526020019081526020015f20604051806101000160405290815f82015f9054906101000a900473ffffffffffffffffffffffffffffffffffffffff1673ffffffffffffffffffffffffffffffffffffffff1673ffffffffffffffffffffffffffffffffffffffff168152602001600182015f9054906101000a900473ffffffffffffffffffffffffffffffffffffffff1673ffffffffffffffffffffffffffffffffffffffff1673ffffffffffffffffffffffffffffffffffffffff168152602001600282015f9054906101000a900473ffffffffffffffffffffffffffffffffffffffff1673ffffffffffffffffffffffffffffffffffffffff1673ffffffffffffffffffffffffffffffffffffffff16815260200160038201805461158990614b83565b80601f01602080910402602001604051908101604052809291908181526020018280546115b590614b83565b80156116005780601f106115d757610100808354040283529160200191611600565b820191905f5260205f20905b8154815290600101906020018083116115e357829003601f168201915b5050505050815260200160048201805461161990614b83565b80601f016020809104026020016040519081016040528092919081815260200182805461164590614b83565b80156116905780601f1061166757610100808354040283529160200191611690565b820191905f5260205f20905b81548152906001019060200180831161167357829003601f168201915b505050505081526020016005820180546116a990614b83565b80601f01602080910402602001604051908101604052809291908181526020018280546116d590614b83565b80156117205780601f106116f757610100808354040283529160200191611720565b820191905f5260205f20905b81548152906001019060200180831161170357829003601f168201915b5050505050815260200160068201805461173990614b83565b80601f016020809104026020016040519081016040528092919081815260200182805461176590614b83565b80156117b05780601f10611787576101008083540402835291602001916117b0565b820191905f5260205f20905b81548152906001019060200180831161179357829003601f168201915b50505050508152602001600782015f9054906101000a900460ff16151515158152505090505f73ffffffffffffffffffffffffffffffffffffffff16815f015173ffffffffffffffffffffffffffffffffffffffff1603611846576040517f08c379a000000000000000000000000000000000000000000000000000000000815260040161183d90614f5d565b60405180910390fd5b80915050919050565b6008602052805f5260405f205f91509050805f0154908060010154908060020154908060030154908060040154908060050154908060060154905087565b60065f9054906101000a900473ffffffffffffffffffffffffffffffffffffffff1681565b60606118bc613c66565b60055f9054906101000a900473ffffffffffffffffffffffffffffffffffffffff1673ffffffffffffffffffffffffffffffffffffffff163373ffffffffffffffffffffffffffffffffffffffff161480611963575060065f9054906101000a900473ffffffffffffffffffffffffffffffffffffffff1673ffffffffffffffffffffffffffffffffffffffff163373ffffffffffffffffffffffffffffffffffffffff16145b6119a2576040517f08c379a000000000000000000000000000000000000000000000000000000000815260040161199990614feb565b60405180910390fd5b83835f8181106119b5576119b4614936565b5b90506020020160208101906119ca9190614076565b73ffffffffffffffffffffffffffffffffffffffff1663095ea7b3600a5f9054906101000a900473ffffffffffffffffffffffffffffffffffffffff16876040518363ffffffff1660e01b8152600401611a25929190615009565b6020604051808303815f875af1158015611a41573d5f5f3e3d5ffd5b505050506040513d601f19601f82011682018060405250810190611a659190614a54565b505f600a5f9054906101000a900473ffffffffffffffffffffffffffffffffffffffff1673ffffffffffffffffffffffffffffffffffffffff166338ed1739875f88888861012c42611ab7919061505d565b6040518763ffffffff1660e01b8152600401611ad896959493929190615176565b5f604051808303815f875af1158015611af3573d5f5f3e3d5ffd5b505050506040513d5f823e3d601f19601f82011682018060405250810190611b1b9190615290565b905080915050611b29613cac565b949350505050565b60605f60098054905067ffffffffffffffff811115611b5357611b52614909565b5b604051908082528060200260200182016040528015611b8c57816020015b611b79613cea565b815260200190600190039081611b715790505b5090505f5f90505b600980549050811015611c1057611be560098281548110611bb857611bb7614936565b5b905f5260205f20015f9054906101000a900473ffffffffffffffffffffffffffffffffffffffff166113bd565b828281518110611bf857611bf7614936565b5b60200260200101819052508080600101915050611b94565b508091505090565b611c20613b1e565b5f60075f8581526020019081526020015f20604051806101000160405290815f82015f9054906101000a900473ffffffffffffffffffffffffffffffffffffffff1673ffffffffffffffffffffffffffffffffffffffff1673ffffffffffffffffffffffffffffffffffffffff168152602001600182015f9054906101000a900473ffffffffffffffffffffffffffffffffffffffff1673ffffffffffffffffffffffffffffffffffffffff1673ffffffffffffffffffffffffffffffffffffffff168152602001600282015f9054906101000a900473ffffffffffffffffffffffffffffffffffffffff1673ffffffffffffffffffffffffffffffffffffffff1673ffffffffffffffffffffffffffffffffffffffff168152602001600382018054611d4c90614b83565b80601f0160208091040260200160405190810160405280929190818152602001828054611d7890614b83565b8015611dc35780601f10611d9a57610100808354040283529160200191611dc3565b820191905f5260205f20905b815481529060010190602001808311611da657829003601f168201915b50505050508152602001600482018054611ddc90614b83565b80601f0160208091040260200160405190810160405280929190818152602001828054611e0890614b83565b8015611e535780601f10611e2a57610100808354040283529160200191611e53565b820191905f5260205f20905b815481529060010190602001808311611e3657829003601f168201915b50505050508152602001600582018054611e6c90614b83565b80601f0160208091040260200160405190810160405280929190818152602001828054611e9890614b83565b8015611ee35780601f10611eba57610100808354040283529160200191611ee3565b820191905f5260205f20905b815481529060010190602001808311611ec657829003601f168201915b50505050508152602001600682018054611efc90614b83565b80601f0160208091040260200160405190810160405280929190818152602001828054611f2890614b83565b8015611f735780601f10611f4a57610100808354040283529160200191611f73565b820191905f5260205f20905b815481529060010190602001808311611f5657829003601f168201915b50505050508152602001600782015f9054906101000a900460ff16151515158152505090505f5f60045f9054906101000a900473ffffffffffffffffffffffffffffffffffffffff1673ffffffffffffffffffffffffffffffffffffffff1663bcd658ad876040518263ffffffff1660e01b8152600401611ff49190613d87565b6040805180830381865afa15801561200e573d5f5f3e3d5ffd5b505050506040513d601f19601f8201168201806040525081019061203291906152fa565b915091506002600481111561204a57612049615338565b5b82600481111561205d5761205c615338565b5b1461209d576040517f08c379a0000000000000000000000000000000000000000000000000000000008152600401612094906153d5565b60405180910390fd5b5f8573ffffffffffffffffffffffffffffffffffffffff1663ebda16eb6040518163ffffffff1660e01b8152600401602060405180830381865afa1580156120e7573d5f5f3e3d5ffd5b505050506040513d601f19601f8201168201806040525081019061210b9190614b21565b905085845f019073ffffffffffffffffffffffffffffffffffffffff16908173ffffffffffffffffffffffffffffffffffffffff168152505084846020019073ffffffffffffffffffffffffffffffffffffffff16908173ffffffffffffffffffffffffffffffffffffffff1681525050600986908060018154018082558091505060019003905f5260205f20015f9091909190916101000a81548173ffffffffffffffffffffffffffffffffffffffff021916908373ffffffffffffffffffffffffffffffffffffffff1602179055508473ffffffffffffffffffffffffffffffffffffffff168673ffffffffffffffffffffffffffffffffffffffff16887fdbd3908ed1551f131cac0b0e54b86f03495799941eeb3290140b962f787409d460405160405180910390a45f600b5f9054906101000a900473ffffffffffffffffffffffffffffffffffffffff1673ffffffffffffffffffffffffffffffffffffffff1663c9c6539688600a5f9054906101000a900473ffffffffffffffffffffffffffffffffffffffff1673ffffffffffffffffffffffffffffffffffffffff1663ad5c46486040518163ffffffff1660e01b8152600401602060405180830381865afa1580156122e0573d5f5f3e3d5ffd5b505050506040513d601f19601f820116820180604052508101906123049190615407565b6040518363ffffffff1660e01b8152600401612321929190615432565b6020604051808303815f875af115801561233d573d5f5f3e3d5ffd5b505050506040513d601f19601f820116820180604052508101906123619190615407565b90508673ffffffffffffffffffffffffffffffffffffffff1663095ea7b3600a5f9054906101000a900473ffffffffffffffffffffffffffffffffffffffff168973ffffffffffffffffffffffffffffffffffffffff1663ebda16eb6040518163ffffffff1660e01b8152600401602060405180830381865afa1580156123ea573d5f5f3e3d5ffd5b505050506040513d601f19601f8201168201806040525081019061240e9190614b21565b6040518363ffffffff1660e01b815260040161242b929190615009565b6020604051808303815f875af1158015612447573d5f5f3e3d5ffd5b505050506040513d601f19601f8201168201806040525081019061246b9190614a54565b50600a5f9054906101000a900473ffffffffffffffffffffffffffffffffffffffff1673ffffffffffffffffffffffffffffffffffffffff1663e8e3370088600a5f9054906101000a900473ffffffffffffffffffffffffffffffffffffffff1673ffffffffffffffffffffffffffffffffffffffff1663ad5c46486040518163ffffffff1660e01b8152600401602060405180830381865afa158015612514573d5f5f3e3d5ffd5b505050506040513d601f19601f820116820180604052508101906125389190615407565b85875f5f5f61012c4261254b919061505d565b6040518963ffffffff1660e01b815260040161256e989796959493929190615459565b6060604051808303815f875af115801561258a573d5f5f3e3d5ffd5b505050506040513d601f19601f820116820180604052508101906125ae91906154d5565b50505060045f9054906101000a900473ffffffffffffffffffffffffffffffffffffffff1673ffffffffffffffffffffffffffffffffffffffff1663abf599fc8989846040518463ffffffff1660e01b815260040161260f93929190615525565b5f604051808303815f87803b158015612626575f5ffd5b505af1158015612638573d5f5f3e3d5ffd5b505050505050505050505050565b6007602052805f5260405f205f91509050805f015f9054906101000a900473ffffffffffffffffffffffffffffffffffffffff1690806001015f9054906101000a900473ffffffffffffffffffffffffffffffffffffffff1690806002015f9054906101000a900473ffffffffffffffffffffffffffffffffffffffff16908060030180546126d490614b83565b80601f016020809104026020016040519081016040528092919081815260200182805461270090614b83565b801561274b5780601f106127225761010080835404028352916020019161274b565b820191905f5260205f20905b81548152906001019060200180831161272e57829003601f168201915b50505050509080600401805461276090614b83565b80601f016020809104026020016040519081016040528092919081815260200182805461278c90614b83565b80156127d75780601f106127ae576101008083540402835291602001916127d7565b820191905f5260205f20905b8154815290600101906020018083116127ba57829003601f168201915b5050505050908060050180546127ec90614b83565b80601f016020809104026020016040519081016040528092919081815260200182805461281890614b83565b80156128635780601f1061283a57610100808354040283529160200191612863565b820191905f5260205f20905b81548152906001019060200180831161284657829003601f168201915b50505050509080600601805461287890614b83565b80601f01602080910402602001604051908101604052809291908181526020018280546128a490614b83565b80156128ef5780601f106128c6576101008083540402835291602001916128ef565b820191905f5260205f20905b8154815290600101906020018083116128d257829003601f168201915b505050505090806007015f9054906101000a900460ff16905088565b60055f9054906101000a900473ffffffffffffffffffffffffffffffffffffffff1673ffffffffffffffffffffffffffffffffffffffff163373ffffffffffffffffffffffffffffffffffffffff161461299a576040517f08c379a0000000000000000000000000000000000000000000000000000000008152600401612991906148eb565b60405180910390fd5b5f60085f60045f9054906101000a900473ffffffffffffffffffffffffffffffffffffffff1673ffffffffffffffffffffffffffffffffffffffff1663e8378fbf866040518263ffffffff1660e01b81526004016129f891906140b0565b602060405180830381865afa158015612a13573d5f5f3e3d5ffd5b505050506040513d601f19601f82011682018060405250810190612a379190614b21565b81526020019081526020015f206040518060e00160405290815f8201548152602001600182015481526020016002820154815260200160038201548152602001600482015481526020016005820154815260200160068201548152505090505f60085f60045f9054906101000a900473ffffffffffffffffffffffffffffffffffffffff1673ffffffffffffffffffffffffffffffffffffffff1663e8378fbf866040518263ffffffff1660e01b8152600401612af491906140b0565b602060405180830381865afa158015612b0f573d5f5f3e3d5ffd5b505050506040513d601f19601f82011682018060405250810190612b339190614b21565b81526020019081526020015f206040518060e00160405290815f82015481526020016001820154815260200160028201548152602001600382015481526020016004820154815260200160058201548152602001600682015481525050905060646003548360200151612ba6919061555a565b612bb091906155c8565b8260200151612bbf91906155f8565b82602001818152505060646003548260200151612bdc919061555a565b612be691906155c8565b8160200151612bf5919061505d565b8160200181815250508273ffffffffffffffffffffffffffffffffffffffff168473ffffffffffffffffffffffffffffffffffffffff167faecea04ec10c6c0b9d91c8e45440289d97d5737d78401b23bc3ca82031eae93284602001518460200151604051612c6592919061562b565b60405180910390a350505050565b612c7b613c66565b612c83613b1e565b5f612c8d836113bd565b90508173ffffffffffffffffffffffffffffffffffffffff16816040015173ffffffffffffffffffffffffffffffffffffffff1614612d01576040517f08c379a0000000000000000000000000000000000000000000000000000000008152600401612cf89061569c565b60405180910390fd5b8060e0015115612d46576040517f08c379a0000000000000000000000000000000000000000000000000000000008152600401612d3d90615704565b60405180910390fd5b60045f9054906101000a900473ffffffffffffffffffffffffffffffffffffffff1673ffffffffffffffffffffffffffffffffffffffff1663222b15fb836040518263ffffffff1660e01b8152600401612da091906140b0565b602060405180830381865afa158015612dbb573d5f5f3e3d5ffd5b505050506040513d601f19601f82011682018060405250810190612ddf9190614a54565b15612e1f576040517f08c379a0000000000000000000000000000000000000000000000000000000008152600401612e169061576c565b60405180910390fd5b60018160e001901515908115158152505060085f60045f9054906101000a900473ffffffffffffffffffffffffffffffffffffffff1673ffffffffffffffffffffffffffffffffffffffff1663e8378fbf866040518263ffffffff1660e01b8152600401612e8d91906140b0565b602060405180830381865afa158015612ea8573d5f5f3e3d5ffd5b505050506040513d601f19601f82011682018060405250810190612ecc9190614b21565b81526020019081526020015f206004015460085f60045f9054906101000a900473ffffffffffffffffffffffffffffffffffffffff1673ffffffffffffffffffffffffffffffffffffffff1663e8378fbf876040518263ffffffff1660e01b8152600401612f3a91906140b0565b602060405180830381865afa158015612f55573d5f5f3e3d5ffd5b505050506040513d601f19601f82011682018060405250810190612f799190614b21565b81526020019081526020015f205f0181905550805f015173ffffffffffffffffffffffffffffffffffffffff1663aad3ec9682604001516064600560045f9054906101000a900473ffffffffffffffffffffffffffffffffffffffff1673ffffffffffffffffffffffffffffffffffffffff16632ff2e9dc6040518163ffffffff1660e01b8152600401602060405180830381865afa15801561301e573d5f5f3e3d5ffd5b505050506040513d601f19601f820116820180604052508101906130429190614b21565b61304c919061555a565b61305691906155c8565b6040518363ffffffff1660e01b8152600401613073929190615009565b5f604051808303815f87803b15801561308a575f5ffd5b505af115801561309c573d5f5f3e3d5ffd5b50505050506130a9613cac565b5050565b5f60055f9054906101000a900473ffffffffffffffffffffffffffffffffffffffff16905090565b60045f9054906101000a900473ffffffffffffffffffffffffffffffffffffffff1681565b613102613cea565b60075f60045f9054906101000a900473ffffffffffffffffffffffffffffffffffffffff1673ffffffffffffffffffffffffffffffffffffffff1663e8378fbf856040518263ffffffff1660e01b815260040161315f91906140b0565b602060405180830381865afa15801561317a573d5f5f3e3d5ffd5b505050506040513d601f19601f8201168201806040525081019061319e9190614b21565b81526020019081526020015f20604051806101000160405290815f82015f9054906101000a900473ffffffffffffffffffffffffffffffffffffffff1673ffffffffffffffffffffffffffffffffffffffff1673ffffffffffffffffffffffffffffffffffffffff168152602001600182015f9054906101000a900473ffffffffffffffffffffffffffffffffffffffff1673ffffffffffffffffffffffffffffffffffffffff1673ffffffffffffffffffffffffffffffffffffffff168152602001600282015f9054906101000a900473ffffffffffffffffffffffffffffffffffffffff1673ffffffffffffffffffffffffffffffffffffffff1673ffffffffffffffffffffffffffffffffffffffff1681526020016003820180546132c590614b83565b80601f01602080910402602001604051908101604052809291908181526020018280546132f190614b83565b801561333c5780601f106133135761010080835404028352916020019161333c565b820191905f5260205f20905b81548152906001019060200180831161331f57829003601f168201915b5050505050815260200160048201805461335590614b83565b80601f016020809104026020016040519081016040528092919081815260200182805461338190614b83565b80156133cc5780601f106133a3576101008083540402835291602001916133cc565b820191905f5260205f20905b8154815290600101906020018083116133af57829003601f168201915b505050505081526020016005820180546133e590614b83565b80601f016020809104026020016040519081016040528092919081815260200182805461341190614b83565b801561345c5780601f106134335761010080835404028352916020019161345c565b820191905f5260205f20905b81548152906001019060200180831161343f57829003601f168201915b5050505050815260200160068201805461347590614b83565b80601f01602080910402602001604051908101604052809291908181526020018280546134a190614b83565b80156134ec5780601f106134c3576101008083540402835291602001916134ec565b820191905f5260205f20905b8154815290600101906020018083116134cf57829003601f168201915b50505050508152602001600782015f9054906101000a900460ff1615151515815250509050919050565b60035481565b613524613b1e565b5f73ffffffffffffffffffffffffffffffffffffffff168173ffffffffffffffffffffffffffffffffffffffff1603613594575f6040517f1e4fbdf700000000000000000000000000000000000000000000000000000000815260040161358b91906140b0565b60405180910390fd5b61359d81613ba5565b50565b600181565b5f5f90505b8151811015613b1a575f6135da8383815181106135ca576135c9614936565b5b60200260200101515f01516113bd565b90505f73ffffffffffffffffffffffffffffffffffffffff16815f015173ffffffffffffffffffffffffffffffffffffffff160361364d576040517f08c379a000000000000000000000000000000000000000000000000000000000815260040161364490614f5d565b60405180910390fd5b5f60085f60045f9054906101000a900473ffffffffffffffffffffffffffffffffffffffff1673ffffffffffffffffffffffffffffffffffffffff1663e8378fbf8787815181106136a1576136a0614936565b5b60200260200101515f01516040518263ffffffff1660e01b81526004016136c891906140b0565b602060405180830381865afa1580156136e3573d5f5f3e3d5ffd5b505050506040513d601f19601f820116820180604052508101906137079190614b21565b81526020019081526020015f206040518060e00160405290815f82015481526020016001820154815260200160028201548152602001600382015481526020016004820154815260200160058201548152602001600682015481525050905062015180815f0151613778919061505d565b4210156137ba576040517f08c379a00000000000000000000000000000000000000000000000000000000081526004016137b1906157d4565b60405180910390fd5b42815f0181815250508383815181106137d6576137d5614936565b5b602002602001015160200151815f018181525050805f015184848151811061380157613800614936565b5b60200260200101516020015161381791906155f8565b81608001818151613828919061505d565b9150818152505061c350815f0151826080015161384591906155f8565b101580156138eb575060065f9054906101000a900473ffffffffffffffffffffffffffffffffffffffff1673ffffffffffffffffffffffffffffffffffffffff1663f251f45f835f01516040518263ffffffff1660e01b81526004016138ab91906140b0565b602060405180830381865afa1580156138c6573d5f5f3e3d5ffd5b505050506040513d601f19601f820116820180604052508101906138ea9190614a54565b5b156139885760065f9054906101000a900473ffffffffffffffffffffffffffffffffffffffff1673ffffffffffffffffffffffffffffffffffffffff16636491e566835f01516040518263ffffffff1660e01b815260040161394d91906140b0565b5f604051808303815f87803b158015613964575f5ffd5b505af1158015613976573d5f5f3e3d5ffd5b505050508060800151815f0181815250505b8160e0015180156139b057508060200151816040015182608001516139ad91906155f8565b10155b8015613a285750815f015173ffffffffffffffffffffffffffffffffffffffff1663c52aa2cf6040518163ffffffff1660e01b8152600401602060405180830381865afa158015613a03573d5f5f3e3d5ffd5b505050506040513d601f19601f82011682018060405250810190613a279190614a54565b5b15613a9a578060800151816040018181525050815f015173ffffffffffffffffffffffffffffffffffffffff1663a431831e6040518163ffffffff1660e01b81526004015f604051808303815f87803b158015613a83575f5ffd5b505af1158015613a95573d5f5f3e3d5ffd5b505050505b838381518110613aad57613aac614936565b5b60200260200101515f015173ffffffffffffffffffffffffffffffffffffffff167f17f0fa8193ad599e6d9e20fb742ac1d5fd0b1bf4246f0aa664a4c293863ffac0826080015142604051613b0392919061562b565b60405180910390a2505080806001019150506135aa565b5050565b613b26613cb5565b73ffffffffffffffffffffffffffffffffffffffff16613b44611396565b73ffffffffffffffffffffffffffffffffffffffff1614613ba357613b67613cb5565b6040517f118cdaa7000000000000000000000000000000000000000000000000000000008152600401613b9a91906140b0565b60405180910390fd5b565b5f5f5f9054906101000a900473ffffffffffffffffffffffffffffffffffffffff169050815f5f6101000a81548173ffffffffffffffffffffffffffffffffffffffff021916908373ffffffffffffffffffffffffffffffffffffffff1602179055508173ffffffffffffffffffffffffffffffffffffffff168173ffffffffffffffffffffffffffffffffffffffff167f8be0079c531659141344cd1fd0a4f28419497f9722a3daafe3b4186f6b6457e060405160405180910390a35050565b600260015403613ca2576040517f3ee5aeb500000000000000000000000000000000000000000000000000000000815260040160405180910390fd5b6002600181905550565b60018081905550565b5f33905090565b60405180604001604052805f73ffffffffffffffffffffffffffffffffffffffff1681526020015f81525090565b6040518061010001604052805f73ffffffffffffffffffffffffffffffffffffffff1681526020015f73ffffffffffffffffffffffffffffffffffffffff1681526020015f73ffffffffffffffffffffffffffffffffffffffff168152602001606081526020016060815260200160608152602001606081526020015f151581525090565b5f819050919050565b613d8181613d6f565b82525050565b5f602082019050613d9a5f830184613d78565b92915050565b5f604051905090565b5f5ffd5b5f5ffd5b5f5ffd5b5f5ffd5b5f5ffd5b5f5f83601f840112613dd257613dd1613db1565b5b8235905067ffffffffffffffff811115613def57613dee613db5565b5b602083019150836040820283011115613e0b57613e0a613db9565b5b9250929050565b5f5f60208385031215613e2857613e27613da9565b5b5f83013567ffffffffffffffff811115613e4557613e44613dad565b5b613e5185828601613dbd565b92509250509250929050565b5f73ffffffffffffffffffffffffffffffffffffffff82169050919050565b5f819050919050565b5f613e9f613e9a613e9584613e5d565b613e7c565b613e5d565b9050919050565b5f613eb082613e85565b9050919050565b5f613ec182613ea6565b9050919050565b613ed181613eb7565b82525050565b5f602082019050613eea5f830184613ec8565b92915050565b5f613efa82613e5d565b9050919050565b613f0a81613ef0565b8114613f14575f5ffd5b50565b5f81359050613f2581613f01565b92915050565b5f5f83601f840112613f4057613f3f613db1565b5b8235905067ffffffffffffffff811115613f5d57613f5c613db5565b5b602083019150836001820283011115613f7957613f78613db9565b5b9250929050565b5f5f5f5f5f5f5f5f5f60a08a8c031215613f9d57613f9c613da9565b5b5f613faa8c828d01613f17565b99505060208a013567ffffffffffffffff811115613fcb57613fca613dad565b5b613fd78c828d01613f2b565b985098505060408a013567ffffffffffffffff811115613ffa57613ff9613dad565b5b6140068c828d01613f2b565b965096505060608a013567ffffffffffffffff81111561402957614028613dad565b5b6140358c828d01613f2b565b945094505060808a013567ffffffffffffffff81111561405857614057613dad565b5b6140648c828d01613f2b565b92509250509295985092959850929598565b5f6020828403121561408b5761408a613da9565b5b5f61409884828501613f17565b91505092915050565b6140aa81613ef0565b82525050565b5f6020820190506140c35f8301846140a1565b92915050565b6140d281613d6f565b81146140dc575f5ffd5b50565b5f813590506140ed816140c9565b92915050565b5f6020828403121561410857614107613da9565b5b5f614115848285016140df565b91505092915050565b5f61412882613ea6565b9050919050565b6141388161411e565b82525050565b5f6020820190506141515f83018461412f565b92915050565b5f61416182613ea6565b9050919050565b61417181614157565b82525050565b5f60208201905061418a5f830184614168565b92915050565b5f61419a82613ea6565b9050919050565b6141aa81614190565b82525050565b5f6020820190506141c35f8301846141a1565b92915050565b6141d281613ef0565b82525050565b5f81519050919050565b5f82825260208201905092915050565b8281835e5f83830152505050565b5f601f19601f8301169050919050565b5f61421a826141d8565b61422481856141e2565b93506142348185602086016141f2565b61423d81614200565b840191505092915050565b5f8115159050919050565b61425c81614248565b82525050565b5f61010083015f8301516142785f8601826141c9565b50602083015161428b60208601826141c9565b50604083015161429e60408601826141c9565b50606083015184820360608601526142b68282614210565b915050608083015184820360808601526142d08282614210565b91505060a083015184820360a08601526142ea8282614210565b91505060c083015184820360c08601526143048282614210565b91505060e083015161431960e0860182614253565b508091505092915050565b5f6020820190508181035f83015261433c8184614262565b905092915050565b5f60e0820190506143575f83018a613d78565b6143646020830189613d78565b6143716040830188613d78565b61437e6060830187613d78565b61438b6080830186613d78565b61439860a0830185613d78565b6143a560c0830184613d78565b98975050505050505050565b5f5f83601f8401126143c6576143c5613db1565b5b8235905067ffffffffffffffff8111156143e3576143e2613db5565b5b6020830191508360208202830111156143ff576143fe613db9565b5b9250929050565b5f5f5f5f6060858703121561441e5761441d613da9565b5b5f61442b878288016140df565b945050602085013567ffffffffffffffff81111561444c5761444b613dad565b5b614458878288016143b1565b9350935050604061446b87828801613f17565b91505092959194509250565b5f81519050919050565b5f82825260208201905092915050565b5f819050602082019050919050565b6144a981613d6f565b82525050565b5f6144ba83836144a0565b60208301905092915050565b5f602082019050919050565b5f6144dc82614477565b6144e68185614481565b93506144f183614491565b805f5b8381101561452157815161450888826144af565b9750614513836144c6565b9250506001810190506144f4565b5085935050505092915050565b5f6020820190508181035f83015261454681846144d2565b905092915050565b5f81519050919050565b5f82825260208201905092915050565b5f819050602082019050919050565b5f61010083015f83015161458d5f8601826141c9565b5060208301516145a060208601826141c9565b5060408301516145b360408601826141c9565b50606083015184820360608601526145cb8282614210565b915050608083015184820360808601526145e58282614210565b91505060a083015184820360a08601526145ff8282614210565b91505060c083015184820360c08601526146198282614210565b91505060e083015161462e60e0860182614253565b508091505092915050565b5f6146448383614577565b905092915050565b5f602082019050919050565b5f6146628261454e565b61466c8185614558565b93508360208202850161467e85614568565b805f5b858110156146b9578484038952815161469a8582614639565b94506146a58361464c565b925060208a01995050600181019050614681565b50829750879550505050505092915050565b5f6020820190508181035f8301526146e38184614658565b905092915050565b5f5f5f6060848603121561470257614701613da9565b5b5f61470f868287016140df565b935050602061472086828701613f17565b925050604061473186828701613f17565b9150509250925092565b5f82825260208201905092915050565b5f614755826141d8565b61475f818561473b565b935061476f8185602086016141f2565b61477881614200565b840191505092915050565b61478c81614248565b82525050565b5f610100820190506147a65f83018b6140a1565b6147b3602083018a6140a1565b6147c060408301896140a1565b81810360608301526147d2818861474b565b905081810360808301526147e6818761474b565b905081810360a08301526147fa818661474b565b905081810360c083015261480e818561474b565b905061481d60e0830184614783565b9998505050505050505050565b5f5f604083850312156148405761483f613da9565b5b5f61484d85828601613f17565b925050602061485e85828601613f17565b9150509250929050565b5f61487282613ea6565b9050919050565b61488281614868565b82525050565b5f60208201905061489b5f830184614879565b92915050565b7f756e617574686f72697a656400000000000000000000000000000000000000005f82015250565b5f6148d5600c8361473b565b91506148e0826148a1565b602082019050919050565b5f6020820190508181035f830152614902816148c9565b9050919050565b7f4e487b71000000000000000000000000000000000000000000000000000000005f52604160045260245ffd5b7f4e487b71000000000000000000000000000000000000000000000000000000005f52603260045260245ffd5b5f5ffd5b61497082614200565b810181811067ffffffffffffffff8211171561498f5761498e614909565b5b80604052505050565b5f6149a1613da0565b90506149ad8282614967565b919050565b5f604082840312156149c7576149c6614963565b5b6149d16040614998565b90505f6149e084828501613f17565b5f8301525060206149f3848285016140df565b60208301525092915050565b5f60408284031215614a1457614a13613da9565b5b5f614a21848285016149b2565b91505092915050565b614a3381614248565b8114614a3d575f5ffd5b50565b5f81519050614a4e81614a2a565b92915050565b5f60208284031215614a6957614a68613da9565b5b5f614a7684828501614a40565b91505092915050565b7f43726561746f7220697320626c6f636b6564206f7220616c72656164792068615f8201527f73206120746f6b656e0000000000000000000000000000000000000000000000602082015250565b5f614ad960298361473b565b9150614ae482614a7f565b604082019050919050565b5f6020820190508181035f830152614b0681614acd565b9050919050565b5f81519050614b1b816140c9565b92915050565b5f60208284031215614b3657614b35613da9565b5b5f614b4384828501614b0d565b91505092915050565b5f82905092915050565b7f4e487b71000000000000000000000000000000000000000000000000000000005f52602260045260245ffd5b5f6002820490506001821680614b9a57607f821691505b602082108103614bad57614bac614b56565b5b50919050565b5f819050815f5260205f209050919050565b5f6020601f8301049050919050565b5f82821b905092915050565b5f60088302614c0f7fffffffffffffffffffffffffffffffffffffffffffffffffffffffffffffffff82614bd4565b614c198683614bd4565b95508019841693508086168417925050509392505050565b5f614c4b614c46614c4184613d6f565b613e7c565b613d6f565b9050919050565b5f819050919050565b614c6483614c31565b614c78614c7082614c52565b848454614be0565b825550505050565b5f5f905090565b614c8f614c80565b614c9a818484614c5b565b505050565b5b81811015614cbd57614cb25f82614c87565b600181019050614ca0565b5050565b601f821115614d0257614cd381614bb3565b614cdc84614bc5565b81016020851015614ceb578190505b614cff614cf785614bc5565b830182614c9f565b50505b505050565b5f82821c905092915050565b5f614d225f1984600802614d07565b1980831691505092915050565b5f614d3a8383614d13565b9150826002028217905092915050565b614d548383614b4c565b67ffffffffffffffff811115614d6d57614d6c614909565b5b614d778254614b83565b614d82828285614cc1565b5f601f831160018114614daf575f8415614d9d578287013590505b614da78582614d2f565b865550614e0e565b601f198416614dbd86614bb3565b5f5b82811015614de457848901358255600182019150602085019450602081019050614dbf565b86831015614e015784890135614dfd601f891682614d13565b8355505b6001600288020188555050505b50505050505050565b5f8154614e2381614b83565b614e2d818661473b565b9450600182165f8114614e475760018114614e5d57614e8f565b60ff198316865281151560200286019350614e8f565b614e6685614bb3565b5f5b83811015614e8757815481890152600182019150602081019050614e68565b808801955050505b50505092915050565b5f60c0820190508181035f830152614eb08189614e17565b90508181036020830152614ec48188614e17565b90508181036040830152614ed88187614e17565b90508181036060830152614eec8186614e17565b9050614efb6080830185614783565b614f0860a0830184613d78565b979650505050505050565b7f546f6b656e206e6f7420637265617465640000000000000000000000000000005f82015250565b5f614f4760118361473b565b9150614f5282614f13565b602082019050919050565b5f6020820190508181035f830152614f7481614f3b565b9050919050565b7f4f6e6c7920626174746c65206f7220656e6761676520746f206561726e2063615f8201527f6e20737761700000000000000000000000000000000000000000000000000000602082015250565b5f614fd560268361473b565b9150614fe082614f7b565b604082019050919050565b5f6020820190508181035f83015261500281614fc9565b9050919050565b5f60408201905061501c5f8301856140a1565b6150296020830184613d78565b9392505050565b7f4e487b71000000000000000000000000000000000000000000000000000000005f52601160045260245ffd5b5f61506782613d6f565b915061507283613d6f565b925082820190508082111561508a57615089615030565b5b92915050565b5f819050919050565b5f6150b36150ae6150a984615090565b613e7c565b613d6f565b9050919050565b6150c381615099565b82525050565b5f82825260208201905092915050565b5f819050919050565b5f6150ed83836141c9565b60208301905092915050565b5f6151076020840184613f17565b905092915050565b5f602082019050919050565b5f61512683856150c9565b9350615131826150d9565b805f5b858110156151695761514682846150f9565b61515088826150e2565b975061515b8361510f565b925050600181019050615134565b5085925050509392505050565b5f60a0820190506151895f830189613d78565b61519660208301886150ba565b81810360408301526151a981868861511b565b90506151b860608301856140a1565b6151c56080830184613d78565b979650505050505050565b5f67ffffffffffffffff8211156151ea576151e9614909565b5b602082029050602081019050919050565b5f61520d615208846151d0565b614998565b905080838252602082019050602084028301858111156152305761522f613db9565b5b835b8181101561525957806152458882614b0d565b845260208401935050602081019050615232565b5050509392505050565b5f82601f83011261527757615276613db1565b5b81516152878482602086016151fb565b91505092915050565b5f602082840312156152a5576152a4613da9565b5b5f82015167ffffffffffffffff8111156152c2576152c1613dad565b5b6152ce84828501615263565b91505092915050565b600581106152e3575f5ffd5b50565b5f815190506152f4816152d7565b92915050565b5f5f604083850312156153105761530f613da9565b5b5f61531d858286016152e6565b925050602061532e85828601614b0d565b9150509250929050565b7f4e487b71000000000000000000000000000000000000000000000000000000005f52602160045260245ffd5b7f46616972206c61756e6368206e6f7420726561647920746f20636f6d706c65745f8201527f6500000000000000000000000000000000000000000000000000000000000000602082015250565b5f6153bf60218361473b565b91506153ca82615365565b604082019050919050565b5f6020820190508181035f8301526153ec816153b3565b9050919050565b5f8151905061540181613f01565b92915050565b5f6020828403121561541c5761541b613da9565b5b5f615429848285016153f3565b91505092915050565b5f6040820190506154455f8301856140a1565b61545260208301846140a1565b9392505050565b5f6101008201905061546d5f83018b6140a1565b61547a602083018a6140a1565b6154876040830189613d78565b6154946060830188613d78565b6154a160808301876150ba565b6154ae60a08301866150ba565b6154bb60c08301856140a1565b6154c860e0830184613d78565b9998505050505050505050565b5f5f5f606084860312156154ec576154eb613da9565b5b5f6154f986828701614b0d565b935050602061550a86828701614b0d565b925050604061551b86828701614b0d565b9150509250925092565b5f6060820190506155385f830186613d78565b61554560208301856140a1565b61555260408301846140a1565b949350505050565b5f61556482613d6f565b915061556f83613d6f565b925082820261557d81613d6f565b9150828204841483151761559457615593615030565b5b5092915050565b7f4e487b71000000000000000000000000000000000000000000000000000000005f52601260045260245ffd5b5f6155d282613d6f565b91506155dd83613d6f565b9250826155ed576155ec61559b565b5b828204905092915050565b5f61560282613d6f565b915061560d83613d6f565b925082820390508181111561562557615624615030565b5b92915050565b5f60408201905061563e5f830185613d78565b61564b6020830184613d78565b9392505050565b7f43726561746f72206d69736d61746368000000000000000000000000000000005f82015250565b5f61568660108361473b565b915061569182615652565b602082019050919050565b5f6020820190508181035f8301526156b38161567a565b9050919050565b7f416c726561647920636c61696d65642062792063726561746f720000000000005f82015250565b5f6156ee601a8361473b565b91506156f9826156ba565b602082019050919050565b5f6020820190508181035f83015261571b816156e2565b9050919050565b7f43726561746f7220616c726561647920686173206120746f6b656e00000000005f82015250565b5f615756601b8361473b565b915061576182615722565b602082019050919050565b5f6020820190508181035f8301526157838161574a565b9050919050565b7f486561742075706461746520746f6f206672657175656e7400000000000000005f82015250565b5f6157be60188361473b565b91506157c98261578a565b602082019050919050565b5f6020820190508181035f8301526157eb816157b2565b905091905056fea26469706673582212205203b5b2676546427eafa7bad812825ac213bc9fe113a70c59a0e7ac834046f064736f6c634300081c0033",
  "linkReferences": {},
  "deployedLinkReferences": {},
  "immutableReferences": {},
  "inputSourceName": "project/contracts/MemedFactory_test.sol",
  "buildInfoId": "solc-0_8_28-d994fcd13e888502bb11064b090c2cb9067d30ca"
}