{
  "_format": "hh3-artifact-1",
  "contractName": "MemedFactory_test",
  "sourceName": "contracts/MemedFactory_test.sol",
  "abi": [
    {
      "inputs": [
        {
          "internalType": "address",
          "name": "_memedTokenSale",
          "type": "address"
        },
        {
          "internalType": "address",
          "name": "_memedBattle",
          "type": "address"
        },
        {
          "internalType": "address",
          "name": "_memedEngageToEarn",
          "type": "address"
        },
        {
          "internalType": "address",
          "name": "_positionManager",
          "type": "address"
        },
        {
          "internalType": "address",
          "name": "_swapRouter",
          "type": "address"
        }
      ],
      "stateMutability": "nonpayable",
      "type": "constructor"
    },
    {
      "inputs": [
        {
          "internalType": "address",
          "name": "owner",
          "type": "address"
        }
      ],
      "name": "OwnableInvalidOwner",
      "type": "error"
    },
    {
      "inputs": [
        {
          "internalType": "address",
          "name": "account",
          "type": "address"
        }
      ],
      "name": "OwnableUnauthorizedAccount",
      "type": "error"
    },
    {
      "inputs": [],
      "name": "ReentrancyGuardReentrantCall",
      "type": "error"
    },
    {
      "anonymous": false,
      "inputs": [
        {
          "indexed": true,
          "internalType": "address",
          "name": "winner",
          "type": "address"
        },
        {
          "indexed": true,
          "internalType": "address",
          "name": "loser",
          "type": "address"
        },
        {
          "indexed": false,
          "internalType": "uint256",
          "name": "creatorIncentivesUnlocksAtWinner",
          "type": "uint256"
        },
        {
          "indexed": false,
          "internalType": "uint256",
          "name": "creatorIncentivesUnlocksAtLoser",
          "type": "uint256"
        }
      ],
      "name": "BattleUpdated",
      "type": "event"
    },
    {
      "anonymous": false,
      "inputs": [
        {
          "indexed": true,
          "internalType": "address",
          "name": "token",
          "type": "address"
        },
        {
          "indexed": false,
          "internalType": "uint256",
          "name": "heat",
          "type": "uint256"
        },
        {
          "indexed": false,
          "internalType": "uint256",
          "name": "timestamp",
          "type": "uint256"
        }
      ],
      "name": "HeatUpdated",
      "type": "event"
    },
    {
      "anonymous": false,
      "inputs": [
        {
          "indexed": true,
          "internalType": "address",
          "name": "previousOwner",
          "type": "address"
        },
        {
          "indexed": true,
          "internalType": "address",
          "name": "newOwner",
          "type": "address"
        }
      ],
      "name": "OwnershipTransferred",
      "type": "event"
    },
    {
      "anonymous": false,
      "inputs": [
        {
          "indexed": true,
          "internalType": "uint256",
          "name": "id",
          "type": "uint256"
        },
        {
          "indexed": true,
          "internalType": "address",
          "name": "token",
          "type": "address"
        },
        {
          "indexed": true,
          "internalType": "address",
          "name": "warriorNFT",
          "type": "address"
        }
      ],
      "name": "TokenCompletedFairLaunch",
      "type": "event"
    },
    {
      "anonymous": false,
      "inputs": [
        {
          "indexed": true,
          "internalType": "uint256",
          "name": "id",
          "type": "uint256"
        },
        {
          "indexed": true,
          "internalType": "address",
          "name": "token",
          "type": "address"
        },
        {
          "indexed": true,
          "internalType": "address",
          "name": "owner",
          "type": "address"
        },
        {
          "indexed": false,
          "internalType": "string",
          "name": "name",
          "type": "string"
        },
        {
          "indexed": false,
          "internalType": "string",
          "name": "ticker",
          "type": "string"
        },
        {
          "indexed": false,
          "internalType": "string",
          "name": "description",
          "type": "string"
        },
        {
          "indexed": false,
          "internalType": "string",
          "name": "image",
          "type": "string"
        },
        {
          "indexed": false,
          "internalType": "bool",
          "name": "isClaimedByCreator",
          "type": "bool"
        },
        {
          "indexed": false,
          "internalType": "uint256",
          "name": "createdAt",
          "type": "uint256"
        }
      ],
      "name": "TokenCreated",
      "type": "event"
    },
    {
      "inputs": [],
      "name": "BATTLE_REWARDS_PERCENTAGE",
      "outputs": [
        {
          "internalType": "uint256",
          "name": "",
          "type": "uint256"
        }
      ],
      "stateMutability": "view",
      "type": "function"
    },
    {
      "inputs": [],
      "name": "ENGAGEMENT_REWARDS_PER_NEW_HEAT",
      "outputs": [
        {
          "internalType": "uint256",
          "name": "",
          "type": "uint256"
        }
      ],
      "stateMutability": "view",
      "type": "function"
    },
    {
      "inputs": [],
      "name": "INITIAL_REWARDS_PER_HEAT",
      "outputs": [
        {
          "internalType": "uint256",
          "name": "",
          "type": "uint256"
        }
      ],
      "stateMutability": "view",
      "type": "function"
    },
    {
      "inputs": [],
      "name": "MAX_ENGAGE_CREATOR_REWARD_PERCENTAGE",
      "outputs": [
        {
          "internalType": "uint256",
          "name": "",
          "type": "uint256"
        }
      ],
      "stateMutability": "view",
      "type": "function"
    },
    {
      "inputs": [],
      "name": "MAX_ENGAGE_USER_REWARD_PERCENTAGE",
      "outputs": [
        {
          "internalType": "uint256",
          "name": "",
          "type": "uint256"
        }
      ],
      "stateMutability": "view",
      "type": "function"
    },
    {
      "inputs": [],
      "name": "MEMED_TEST_ETH",
      "outputs": [
        {
          "internalType": "address",
          "name": "",
          "type": "address"
        }
      ],
      "stateMutability": "view",
      "type": "function"
    },
    {
      "inputs": [],
      "name": "POOL_FEE",
      "outputs": [
        {
          "internalType": "uint24",
          "name": "",
          "type": "uint24"
        }
      ],
      "stateMutability": "view",
      "type": "function"
    },
    {
      "inputs": [],
      "name": "REWARD_PER_ENGAGEMENT",
      "outputs": [
        {
          "internalType": "uint256",
          "name": "",
          "type": "uint256"
        }
      ],
      "stateMutability": "view",
      "type": "function"
    },
    {
      "inputs": [
        {
          "internalType": "address",
          "name": "_winner",
          "type": "address"
        },
        {
          "internalType": "address",
          "name": "_loser",
          "type": "address"
        }
      ],
      "name": "battleUpdate",
      "outputs": [],
      "stateMutability": "nonpayable",
      "type": "function"
    },
    {
      "inputs": [
        {
          "internalType": "address",
          "name": "_token",
          "type": "address"
        },
        {
          "internalType": "address",
          "name": "_creator",
          "type": "address"
        }
      ],
      "name": "claimToken",
      "outputs": [],
      "stateMutability": "nonpayable",
      "type": "function"
    },
    {
      "inputs": [
        {
          "internalType": "uint256",
          "name": "_id",
          "type": "uint256"
        },
        {
          "internalType": "address",
          "name": "_token",
          "type": "address"
        },
        {
          "internalType": "address",
          "name": "_warriorNFT",
          "type": "address"
        }
      ],
      "name": "completeFairLaunch",
      "outputs": [],
      "stateMutability": "nonpayable",
      "type": "function"
    },
    {
      "inputs": [
        {
          "internalType": "address",
          "name": "_token",
          "type": "address"
        }
      ],
      "name": "getByToken",
      "outputs": [
        {
          "components": [
            {
              "internalType": "address",
              "name": "token",
              "type": "address"
            },
            {
              "internalType": "address",
              "name": "warriorNFT",
              "type": "address"
            },
            {
              "internalType": "address",
              "name": "creator",
              "type": "address"
            },
            {
              "internalType": "string",
              "name": "name",
              "type": "string"
            },
            {
              "internalType": "string",
              "name": "ticker",
              "type": "string"
            },
            {
              "internalType": "string",
              "name": "description",
              "type": "string"
            },
            {
              "internalType": "string",
              "name": "image",
              "type": "string"
            },
            {
              "internalType": "bool",
              "name": "isClaimedByCreator",
              "type": "bool"
            }
          ],
          "internalType": "struct TokenData",
          "name": "",
          "type": "tuple"
        }
      ],
      "stateMutability": "view",
      "type": "function"
    },
    {
      "inputs": [
        {
          "internalType": "uint256",
          "name": "_id",
          "type": "uint256"
        }
      ],
      "name": "getCreatorById",
      "outputs": [
        {
          "internalType": "address",
          "name": "",
          "type": "address"
        }
      ],
      "stateMutability": "view",
      "type": "function"
    },
    {
      "inputs": [
        {
          "internalType": "address",
          "name": "_token",
          "type": "address"
        }
      ],
      "name": "getHeat",
      "outputs": [
        {
          "internalType": "uint256",
          "name": "",
          "type": "uint256"
        }
      ],
      "stateMutability": "view",
      "type": "function"
    },
    {
      "inputs": [],
      "name": "getMemedBattle",
      "outputs": [
        {
          "internalType": "address",
          "name": "",
          "type": "address"
        }
      ],
      "stateMutability": "view",
      "type": "function"
    },
    {
      "inputs": [],
      "name": "getMemedEngageToEarn",
      "outputs": [
        {
          "internalType": "contract IMemedEngageToEarn",
          "name": "",
          "type": "address"
        }
      ],
      "stateMutability": "view",
      "type": "function"
    },
    {
      "inputs": [
        {
          "internalType": "address",
          "name": "_token",
          "type": "address"
        }
      ],
      "name": "getTokenByAddress",
      "outputs": [
        {
          "components": [
            {
              "internalType": "address",
              "name": "token",
              "type": "address"
            },
            {
              "internalType": "address",
              "name": "warriorNFT",
              "type": "address"
            },
            {
              "internalType": "address",
              "name": "creator",
              "type": "address"
            },
            {
              "internalType": "string",
              "name": "name",
              "type": "string"
            },
            {
              "internalType": "string",
              "name": "ticker",
              "type": "string"
            },
            {
              "internalType": "string",
              "name": "description",
              "type": "string"
            },
            {
              "internalType": "string",
              "name": "image",
              "type": "string"
            },
            {
              "internalType": "bool",
              "name": "isClaimedByCreator",
              "type": "bool"
            }
          ],
          "internalType": "struct TokenData",
          "name": "",
          "type": "tuple"
        }
      ],
      "stateMutability": "view",
      "type": "function"
    },
    {
      "inputs": [
        {
          "internalType": "uint256",
          "name": "_id",
          "type": "uint256"
        }
      ],
      "name": "getTokenById",
      "outputs": [
        {
          "components": [
            {
              "internalType": "address",
              "name": "token",
              "type": "address"
            },
            {
              "internalType": "address",
              "name": "warriorNFT",
              "type": "address"
            },
            {
              "internalType": "address",
              "name": "creator",
              "type": "address"
            },
            {
              "internalType": "string",
              "name": "name",
              "type": "string"
            },
            {
              "internalType": "string",
              "name": "ticker",
              "type": "string"
            },
            {
              "internalType": "string",
              "name": "description",
              "type": "string"
            },
            {
              "internalType": "string",
              "name": "image",
              "type": "string"
            },
            {
              "internalType": "bool",
              "name": "isClaimedByCreator",
              "type": "bool"
            }
          ],
          "internalType": "struct TokenData",
          "name": "",
          "type": "tuple"
        }
      ],
      "stateMutability": "view",
      "type": "function"
    },
    {
      "inputs": [],
      "name": "getTokens",
      "outputs": [
        {
          "components": [
            {
              "internalType": "address",
              "name": "token",
              "type": "address"
            },
            {
              "internalType": "address",
              "name": "warriorNFT",
              "type": "address"
            },
            {
              "internalType": "address",
              "name": "creator",
              "type": "address"
            },
            {
              "internalType": "string",
              "name": "name",
              "type": "string"
            },
            {
              "internalType": "string",
              "name": "ticker",
              "type": "string"
            },
            {
              "internalType": "string",
              "name": "description",
              "type": "string"
            },
            {
              "internalType": "string",
              "name": "image",
              "type": "string"
            },
            {
              "internalType": "bool",
              "name": "isClaimedByCreator",
              "type": "bool"
            }
          ],
          "internalType": "struct TokenData[]",
          "name": "",
          "type": "tuple[]"
        }
      ],
      "stateMutability": "view",
      "type": "function"
    },
    {
      "inputs": [
        {
          "internalType": "address",
          "name": "_token",
          "type": "address"
        }
      ],
      "name": "getWarriorNFT",
      "outputs": [
        {
          "internalType": "address",
          "name": "",
          "type": "address"
        }
      ],
      "stateMutability": "view",
      "type": "function"
    },
    {
      "inputs": [],
      "name": "memedBattle",
      "outputs": [
        {
          "internalType": "contract IMemedBattle",
          "name": "",
          "type": "address"
        }
      ],
      "stateMutability": "view",
      "type": "function"
    },
    {
      "inputs": [],
      "name": "memedEngageToEarn",
      "outputs": [
        {
          "internalType": "contract IMemedEngageToEarn",
          "name": "",
          "type": "address"
        }
      ],
      "stateMutability": "view",
      "type": "function"
    },
    {
      "inputs": [],
      "name": "memedTokenSale",
      "outputs": [
        {
          "internalType": "contract IMemedTokenSale",
          "name": "",
          "type": "address"
        }
      ],
      "stateMutability": "view",
      "type": "function"
    },
    {
      "inputs": [],
      "name": "owner",
      "outputs": [
        {
          "internalType": "address",
          "name": "",
          "type": "address"
        }
      ],
      "stateMutability": "view",
      "type": "function"
    },
    {
      "inputs": [],
      "name": "positionManager",
      "outputs": [
        {
          "internalType": "contract INonfungiblePositionManager",
          "name": "",
          "type": "address"
        }
      ],
      "stateMutability": "view",
      "type": "function"
    },
    {
      "inputs": [],
      "name": "renounceOwnership",
      "outputs": [],
      "stateMutability": "nonpayable",
      "type": "function"
    },
    {
      "inputs": [
        {
          "internalType": "address",
          "name": "_creator",
          "type": "address"
        },
        {
          "internalType": "string",
          "name": "_name",
          "type": "string"
        },
        {
          "internalType": "string",
          "name": "_ticker",
          "type": "string"
        },
        {
          "internalType": "string",
          "name": "_description",
          "type": "string"
        },
        {
          "internalType": "string",
          "name": "_image",
          "type": "string"
        }
      ],
      "name": "startFairLaunch",
      "outputs": [],
      "stateMutability": "nonpayable",
      "type": "function"
    },
    {
      "inputs": [
        {
          "internalType": "uint256",
          "name": "_amount",
          "type": "uint256"
        },
        {
          "internalType": "address[]",
          "name": "_path",
          "type": "address[]"
        },
        {
          "internalType": "address",
          "name": "_to",
          "type": "address"
        }
      ],
      "name": "swap",
      "outputs": [
        {
          "internalType": "uint256",
          "name": "",
          "type": "uint256"
        }
      ],
      "stateMutability": "nonpayable",
      "type": "function"
    },
    {
      "inputs": [],
      "name": "swapRouter",
      "outputs": [
        {
          "internalType": "contract ISwapRouter",
          "name": "",
          "type": "address"
        }
      ],
      "stateMutability": "view",
      "type": "function"
    },
    {
      "inputs": [
        {
          "internalType": "uint256",
          "name": "",
          "type": "uint256"
        }
      ],
      "name": "tokenData",
      "outputs": [
        {
          "internalType": "address",
          "name": "token",
          "type": "address"
        },
        {
          "internalType": "address",
          "name": "warriorNFT",
          "type": "address"
        },
        {
          "internalType": "address",
          "name": "creator",
          "type": "address"
        },
        {
          "internalType": "string",
          "name": "name",
          "type": "string"
        },
        {
          "internalType": "string",
          "name": "ticker",
          "type": "string"
        },
        {
          "internalType": "string",
          "name": "description",
          "type": "string"
        },
        {
          "internalType": "string",
          "name": "image",
          "type": "string"
        },
        {
          "internalType": "bool",
          "name": "isClaimedByCreator",
          "type": "bool"
        }
      ],
      "stateMutability": "view",
      "type": "function"
    },
    {
      "inputs": [
        {
          "internalType": "uint256",
          "name": "",
          "type": "uint256"
        }
      ],
      "name": "tokenRewardData",
      "outputs": [
        {
          "internalType": "uint256",
          "name": "lastRewardAt",
          "type": "uint256"
        },
        {
          "internalType": "uint256",
          "name": "creatorIncentivesUnlocksAt",
          "type": "uint256"
        },
        {
          "internalType": "uint256",
          "name": "creatorIncentivesUnlockedAt",
          "type": "uint256"
        },
        {
          "internalType": "uint256",
          "name": "lastEngagementBoost",
          "type": "uint256"
        },
        {
          "internalType": "uint256",
          "name": "heat",
          "type": "uint256"
        },
        {
          "internalType": "uint256",
          "name": "lastHeatUpdate",
          "type": "uint256"
        },
        {
          "internalType": "uint256",
          "name": "createdAt",
          "type": "uint256"
        }
      ],
      "stateMutability": "view",
      "type": "function"
    },
    {
      "inputs": [
        {
          "internalType": "uint256",
          "name": "",
          "type": "uint256"
        }
      ],
      "name": "tokens",
      "outputs": [
        {
          "internalType": "address",
          "name": "",
          "type": "address"
        }
      ],
      "stateMutability": "view",
      "type": "function"
    },
    {
      "inputs": [
        {
          "internalType": "address",
          "name": "newOwner",
          "type": "address"
        }
      ],
      "name": "transferOwnership",
      "outputs": [],
      "stateMutability": "nonpayable",
      "type": "function"
    },
    {
      "inputs": [],
      "name": "uniswapV3Factory",
      "outputs": [
        {
          "internalType": "contract IUniswapV3Factory",
          "name": "",
          "type": "address"
        }
      ],
      "stateMutability": "view",
      "type": "function"
    },
    {
      "inputs": [
        {
          "components": [
            {
              "internalType": "address",
              "name": "token",
              "type": "address"
            },
            {
              "internalType": "uint256",
              "name": "heat",
              "type": "uint256"
            }
          ],
          "internalType": "struct HeatUpdate[]",
          "name": "_heatUpdates",
          "type": "tuple[]"
        }
      ],
      "name": "updateHeat",
      "outputs": [],
      "stateMutability": "nonpayable",
      "type": "function"
    },
    {
      "stateMutability": "payable",
      "type": "receive"
    }
  ],
  "bytecode": "0x6080604052620186a0600255601460035534801561001b575f5ffd5b50604051616095380380616095833981810160405281019061003d91906103fb565b335f73ffffffffffffffffffffffffffffffffffffffff168173ffffffffffffffffffffffffffffffffffffffff16036100ae575f6040517f1e4fbdf70000000000000000000000000000000000000000000000000000000081526004016100a59190610481565b60405180910390fd5b6100bd816102dc60201b60201c565b50600180819055508460045f6101000a81548173ffffffffffffffffffffffffffffffffffffffff021916908373ffffffffffffffffffffffffffffffffffffffff1602179055508360055f6101000a81548173ffffffffffffffffffffffffffffffffffffffff021916908373ffffffffffffffffffffffffffffffffffffffff1602179055508260065f6101000a81548173ffffffffffffffffffffffffffffffffffffffff021916908373ffffffffffffffffffffffffffffffffffffffff16021790555081600a5f6101000a81548173ffffffffffffffffffffffffffffffffffffffff021916908373ffffffffffffffffffffffffffffffffffffffff16021790555080600c5f6101000a81548173ffffffffffffffffffffffffffffffffffffffff021916908373ffffffffffffffffffffffffffffffffffffffff160217905550600a5f9054906101000a900473ffffffffffffffffffffffffffffffffffffffff1673ffffffffffffffffffffffffffffffffffffffff1663c45a01556040518163ffffffff1660e01b8152600401602060405180830381865afa15801561026f573d5f5f3e3d5ffd5b505050506040513d601f19601f82011682018060405250810190610293919061049a565b600b5f6101000a81548173ffffffffffffffffffffffffffffffffffffffff021916908373ffffffffffffffffffffffffffffffffffffffff16021790555050505050506104c5565b5f5f5f9054906101000a900473ffffffffffffffffffffffffffffffffffffffff169050815f5f6101000a81548173ffffffffffffffffffffffffffffffffffffffff021916908373ffffffffffffffffffffffffffffffffffffffff1602179055508173ffffffffffffffffffffffffffffffffffffffff168173ffffffffffffffffffffffffffffffffffffffff167f8be0079c531659141344cd1fd0a4f28419497f9722a3daafe3b4186f6b6457e060405160405180910390a35050565b5f5ffd5b5f73ffffffffffffffffffffffffffffffffffffffff82169050919050565b5f6103ca826103a1565b9050919050565b6103da816103c0565b81146103e4575f5ffd5b50565b5f815190506103f5816103d1565b92915050565b5f5f5f5f5f60a086880312156104145761041361039d565b5b5f610421888289016103e7565b9550506020610432888289016103e7565b9450506040610443888289016103e7565b9350506060610454888289016103e7565b9250506080610465888289016103e7565b9150509295509295909350565b61047b816103c0565b82525050565b5f6020820190506104945f830184610472565b92915050565b5f602082840312156104af576104ae61039d565b5b5f6104bc848285016103e7565b91505092915050565b615bc3806104d25f395ff3fe608060405260043610610207575f3560e01c80638da5cb5b11610117578063c92356341161009f578063dd1b9c4a1161006e578063dd1b9c4a1461078f578063dd743bc8146107b9578063e5659f07146107f5578063f2fde38b1461081f578063f797113f146108475761020e565b8063c9235634146106eb578063ca31879d14610713578063d1f6d04a1461073b578063dc6930a3146107655761020e565b8063a40103d4116100e6578063a40103d4146105f0578063aa6ca8081461062c578063abf599fc14610656578063b4b5b48f1461067e578063c31c9c07146106c15761020e565b80638da5cb5b1461051e57806391ded8fa1461054857806392ac258214610584578063a11d8ac7146105c65761020e565b80635153563b1161019a578063715018a611610169578063715018a61461044e578063741c6ae81461046457806377e989f31461048e578063791b98bc146104b85780637bdc60d9146104e25761020e565b80635153563b146103945780635b549182146103be5780635d3575a6146103e85780635de7c44a146104245761020e565b80632badbfc0116101d65780632badbfc0146102c8578063306d3508146102f2578063320dc01b1461032e5780634f64b2be146103585761020e565b80630280a16f1461021257806311eefb291461023c578063263a61001461026457806327e2fee41461028c5761020e565b3661020e57005b5f5ffd5b34801561021d575f5ffd5b50610226610871565b604051610233919061415b565b60405180910390f35b348015610247575f5ffd5b50610262600480360381019061025d91906141e6565b610877565b005b34801561026f575f5ffd5b5061028a600480360381019061028591906142e0565b610a10565b005b348015610297575f5ffd5b506102b260048036038101906102ad91906143d6565b610da8565b6040516102bf9190614410565b60405180910390f35b3480156102d3575f5ffd5b506102dc610e7c565b6040516102e99190614410565b60405180910390f35b3480156102fd575f5ffd5b50610318600480360381019061031391906143d6565b610e94565b604051610325919061415b565b60405180910390f35b348015610339575f5ffd5b50610342610f49565b60405161034f919061415b565b60405180910390f35b348015610363575f5ffd5b5061037e60048036038101906103799190614453565b610f50565b60405161038b9190614410565b60405180910390f35b34801561039f575f5ffd5b506103a8610f8b565b6040516103b591906144d9565b60405180910390f35b3480156103c9575f5ffd5b506103d2610fb0565b6040516103df9190614512565b60405180910390f35b3480156103f3575f5ffd5b5061040e60048036038101906104099190614453565b610fd5565b60405161041b9190614410565b60405180910390f35b34801561042f575f5ffd5b50610438611011565b604051610445919061415b565b60405180910390f35b348015610459575f5ffd5b50610462611017565b005b34801561046f575f5ffd5b5061047861102a565b604051610485919061415b565b60405180910390f35b348015610499575f5ffd5b506104a261102f565b6040516104af919061454b565b60405180910390f35b3480156104c3575f5ffd5b506104cc611057565b6040516104d99190614584565b60405180910390f35b3480156104ed575f5ffd5b5061050860048036038101906105039190614453565b61107c565b60405161051591906146f8565b60405180910390f35b348015610529575f5ffd5b50610532611400565b60405161053f9190614410565b60405180910390f35b348015610553575f5ffd5b5061056e600480360381019061056991906143d6565b611427565b60405161057b91906146f8565b60405180910390f35b34801561058f575f5ffd5b506105aa60048036038101906105a59190614453565b6118b9565b6040516105bd9796959493929190614718565b60405180910390f35b3480156105d1575f5ffd5b506105da6118f7565b6040516105e7919061454b565b60405180910390f35b3480156105fb575f5ffd5b50610616600480360381019061061191906147da565b61191c565b604051610623919061415b565b60405180910390f35b348015610637575f5ffd5b50610640611cce565b60405161064d91906149c8565b60405180910390f35b348015610661575f5ffd5b5061067c600480360381019061067791906149e8565b611db5565b005b348015610689575f5ffd5b506106a4600480360381019061069f9190614453565b6124d6565b6040516106b8989796959493929190614a8f565b60405180910390f35b3480156106cc575f5ffd5b506106d561279b565b6040516106e29190614b47565b60405180910390f35b3480156106f6575f5ffd5b50610711600480360381019061070c9190614b60565b6127c0565b005b34801561071e575f5ffd5b5061073960048036038101906107349190614b60565b612b28565b005b348015610746575f5ffd5b5061074f612f62565b60405161075c9190614410565b60405180910390f35b348015610770575f5ffd5b50610779612f8a565b6040516107869190614bbe565b60405180910390f35b34801561079a575f5ffd5b506107a3612faf565b6040516107b09190614bf4565b60405180910390f35b3480156107c4575f5ffd5b506107df60048036038101906107da91906143d6565b612fb5565b6040516107ec91906146f8565b60405180910390f35b348015610800575f5ffd5b506108096133d1565b604051610816919061415b565b60405180910390f35b34801561082a575f5ffd5b50610845600480360381019061084091906143d6565b6133d7565b005b348015610852575f5ffd5b5061085b61345b565b604051610868919061415b565b60405180910390f35b61c35081565b60055f9054906101000a900473ffffffffffffffffffffffffffffffffffffffff1673ffffffffffffffffffffffffffffffffffffffff163373ffffffffffffffffffffffffffffffffffffffff16148061090457506108d5611400565b73ffffffffffffffffffffffffffffffffffffffff163373ffffffffffffffffffffffffffffffffffffffff16145b610943576040517f08c379a000000000000000000000000000000000000000000000000000000000815260040161093a90614c57565b60405180910390fd5b5f8282905067ffffffffffffffff81111561096157610960614c75565b5b60405190808252806020026020018201604052801561099a57816020015b610987614090565b81526020019060019003908161097f5790505b5090505f5f90505b83839050811015610a01578383828181106109c0576109bf614ca2565b5b9050604002018036038101906109d69190614d6b565b8282815181106109e9576109e8614ca2565b5b602002602001018190525080806001019150506109a2565b50610a0b81613460565b505050565b610a186139d9565b5f73ffffffffffffffffffffffffffffffffffffffff168973ffffffffffffffffffffffffffffffffffffffff1614610b245760045f9054906101000a900473ffffffffffffffffffffffffffffffffffffffff1673ffffffffffffffffffffffffffffffffffffffff1663222b15fb8a6040518263ffffffff1660e01b8152600401610aa59190614410565b602060405180830381865afa158015610ac0573d5f5f3e3d5ffd5b505050506040513d601f19601f82011682018060405250810190610ae49190614dc0565b610b23576040517f08c379a0000000000000000000000000000000000000000000000000000000008152600401610b1a90614e5b565b60405180910390fd5b5b5f60045f9054906101000a900473ffffffffffffffffffffffffffffffffffffffff1673ffffffffffffffffffffffffffffffffffffffff1663e0eeb3d38b6040518263ffffffff1660e01b8152600401610b7f9190614410565b6020604051808303815f875af1158015610b9b573d5f5f3e3d5ffd5b505050506040513d601f19601f82011682018060405250810190610bbf9190614e8d565b90505f60075f8381526020019081526020015f2090508a816002015f6101000a81548173ffffffffffffffffffffffffffffffffffffffff021916908373ffffffffffffffffffffffffffffffffffffffff1602179055508989826003019182610c2a9291906150b6565b508787826004019182610c3e9291906150b6565b508585826005019182610c529291906150b6565b508383826006019182610c669291906150b6565b505f73ffffffffffffffffffffffffffffffffffffffff168b73ffffffffffffffffffffffffffffffffffffffff1614816007015f6101000a81548160ff02191690831515021790555060025460085f8481526020019081526020015f205f0181905550806002015f9054906101000a900473ffffffffffffffffffffffffffffffffffffffff1673ffffffffffffffffffffffffffffffffffffffff16815f015f9054906101000a900473ffffffffffffffffffffffffffffffffffffffff1673ffffffffffffffffffffffffffffffffffffffff16837f61de3782e61b0bc571fd85abd9a902e9a0df5e58991896aa5fc45f8cd31fcf3e84600301856004018660050187600601886007015f9054906101000a900460ff1642604051610d9396959493929190615204565b60405180910390a45050505050505050505050565b5f60075f60045f9054906101000a900473ffffffffffffffffffffffffffffffffffffffff1673ffffffffffffffffffffffffffffffffffffffff1663e8378fbf856040518263ffffffff1660e01b8152600401610e069190614410565b602060405180830381865afa158015610e21573d5f5f3e3d5ffd5b505050506040513d601f19601f82011682018060405250810190610e459190614e8d565b81526020019081526020015f206001015f9054906101000a900473ffffffffffffffffffffffffffffffffffffffff169050919050565b73c190e6f26ce14e40d30251fde25927a73a5d58b681565b5f60085f60045f9054906101000a900473ffffffffffffffffffffffffffffffffffffffff1673ffffffffffffffffffffffffffffffffffffffff1663e8378fbf856040518263ffffffff1660e01b8152600401610ef29190614410565b602060405180830381865afa158015610f0d573d5f5f3e3d5ffd5b505050506040513d601f19601f82011682018060405250810190610f319190614e8d565b81526020019081526020015f20600401549050919050565b620186a081565b60098181548110610f5f575f80fd5b905f5260205f20015f915054906101000a900473ffffffffffffffffffffffffffffffffffffffff1681565b60055f9054906101000a900473ffffffffffffffffffffffffffffffffffffffff1681565b600b5f9054906101000a900473ffffffffffffffffffffffffffffffffffffffff1681565b5f60075f8381526020019081526020015f206002015f9054906101000a900473ffffffffffffffffffffffffffffffffffffffff169050919050565b60025481565b61101f6139d9565b6110285f613a60565b565b600281565b5f60065f9054906101000a900473ffffffffffffffffffffffffffffffffffffffff16905090565b600a5f9054906101000a900473ffffffffffffffffffffffffffffffffffffffff1681565b6110846140be565b60075f8381526020019081526020015f20604051806101000160405290815f82015f9054906101000a900473ffffffffffffffffffffffffffffffffffffffff1673ffffffffffffffffffffffffffffffffffffffff1673ffffffffffffffffffffffffffffffffffffffff168152602001600182015f9054906101000a900473ffffffffffffffffffffffffffffffffffffffff1673ffffffffffffffffffffffffffffffffffffffff1673ffffffffffffffffffffffffffffffffffffffff168152602001600282015f9054906101000a900473ffffffffffffffffffffffffffffffffffffffff1673ffffffffffffffffffffffffffffffffffffffff1673ffffffffffffffffffffffffffffffffffffffff1681526020016003820180546111af90614eef565b80601f01602080910402602001604051908101604052809291908181526020018280546111db90614eef565b80156112265780601f106111fd57610100808354040283529160200191611226565b820191905f5260205f20905b81548152906001019060200180831161120957829003601f168201915b5050505050815260200160048201805461123f90614eef565b80601f016020809104026020016040519081016040528092919081815260200182805461126b90614eef565b80156112b65780601f1061128d576101008083540402835291602001916112b6565b820191905f5260205f20905b81548152906001019060200180831161129957829003601f168201915b505050505081526020016005820180546112cf90614eef565b80601f01602080910402602001604051908101604052809291908181526020018280546112fb90614eef565b80156113465780601f1061131d57610100808354040283529160200191611346565b820191905f5260205f20905b81548152906001019060200180831161132957829003601f168201915b5050505050815260200160068201805461135f90614eef565b80601f016020809104026020016040519081016040528092919081815260200182805461138b90614eef565b80156113d65780601f106113ad576101008083540402835291602001916113d6565b820191905f5260205f20905b8154815290600101906020018083116113b957829003601f168201915b50505050508152602001600782015f9054906101000a900460ff1615151515815250509050919050565b5f5f5f9054906101000a900473ffffffffffffffffffffffffffffffffffffffff16905090565b61142f6140be565b5f60075f60045f9054906101000a900473ffffffffffffffffffffffffffffffffffffffff1673ffffffffffffffffffffffffffffffffffffffff1663e8378fbf866040518263ffffffff1660e01b815260040161148d9190614410565b602060405180830381865afa1580156114a8573d5f5f3e3d5ffd5b505050506040513d601f19601f820116820180604052508101906114cc9190614e8d565b81526020019081526020015f20604051806101000160405290815f82015f9054906101000a900473ffffffffffffffffffffffffffffffffffffffff1673ffffffffffffffffffffffffffffffffffffffff1673ffffffffffffffffffffffffffffffffffffffff168152602001600182015f9054906101000a900473ffffffffffffffffffffffffffffffffffffffff1673ffffffffffffffffffffffffffffffffffffffff1673ffffffffffffffffffffffffffffffffffffffff168152602001600282015f9054906101000a900473ffffffffffffffffffffffffffffffffffffffff1673ffffffffffffffffffffffffffffffffffffffff1673ffffffffffffffffffffffffffffffffffffffff1681526020016003820180546115f390614eef565b80601f016020809104026020016040519081016040528092919081815260200182805461161f90614eef565b801561166a5780601f106116415761010080835404028352916020019161166a565b820191905f5260205f20905b81548152906001019060200180831161164d57829003601f168201915b5050505050815260200160048201805461168390614eef565b80601f01602080910402602001604051908101604052809291908181526020018280546116af90614eef565b80156116fa5780601f106116d1576101008083540402835291602001916116fa565b820191905f5260205f20905b8154815290600101906020018083116116dd57829003601f168201915b5050505050815260200160058201805461171390614eef565b80601f016020809104026020016040519081016040528092919081815260200182805461173f90614eef565b801561178a5780601f106117615761010080835404028352916020019161178a565b820191905f5260205f20905b81548152906001019060200180831161176d57829003601f168201915b505050505081526020016006820180546117a390614eef565b80601f01602080910402602001604051908101604052809291908181526020018280546117cf90614eef565b801561181a5780601f106117f15761010080835404028352916020019161181a565b820191905f5260205f20905b8154815290600101906020018083116117fd57829003601f168201915b50505050508152602001600782015f9054906101000a900460ff16151515158152505090505f73ffffffffffffffffffffffffffffffffffffffff16815f015173ffffffffffffffffffffffffffffffffffffffff16036118b0576040517f08c379a00000000000000000000000000000000000000000000000000000000081526004016118a7906152c9565b60405180910390fd5b80915050919050565b6008602052805f5260405f205f91509050805f0154908060010154908060020154908060030154908060040154908060050154908060060154905087565b60065f9054906101000a900473ffffffffffffffffffffffffffffffffffffffff1681565b5f611925613b21565b60055f9054906101000a900473ffffffffffffffffffffffffffffffffffffffff1673ffffffffffffffffffffffffffffffffffffffff163373ffffffffffffffffffffffffffffffffffffffff1614806119cc575060065f9054906101000a900473ffffffffffffffffffffffffffffffffffffffff1673ffffffffffffffffffffffffffffffffffffffff163373ffffffffffffffffffffffffffffffffffffffff16145b611a0b576040517f08c379a0000000000000000000000000000000000000000000000000000000008152600401611a0290615357565b60405180910390fd5b6002848490501015611a52576040517f08c379a0000000000000000000000000000000000000000000000000000000008152600401611a49906153bf565b60405180910390fd5b83835f818110611a6557611a64614ca2565b5b9050602002016020810190611a7a91906143d6565b73ffffffffffffffffffffffffffffffffffffffff1663095ea7b3600c5f9054906101000a900473ffffffffffffffffffffffffffffffffffffffff16876040518363ffffffff1660e01b8152600401611ad59291906153dd565b6020604051808303815f875af1158015611af1573d5f5f3e3d5ffd5b505050506040513d601f19601f82011682018060405250810190611b159190614dc0565b505f60405180610100016040528086865f818110611b3657611b35614ca2565b5b9050602002016020810190611b4b91906143d6565b73ffffffffffffffffffffffffffffffffffffffff1681526020018686600189899050611b789190615431565b818110611b8857611b87614ca2565b5b9050602002016020810190611b9d91906143d6565b73ffffffffffffffffffffffffffffffffffffffff168152602001610bb862ffffff1681526020018473ffffffffffffffffffffffffffffffffffffffff16815260200161012c42611bef9190615464565b81526020018781526020015f81526020015f73ffffffffffffffffffffffffffffffffffffffff1681525090505f600c5f9054906101000a900473ffffffffffffffffffffffffffffffffffffffff1673ffffffffffffffffffffffffffffffffffffffff1663414bf389836040518263ffffffff1660e01b8152600401611c779190615564565b6020604051808303815f875af1158015611c93573d5f5f3e3d5ffd5b505050506040513d601f19601f82011682018060405250810190611cb79190614e8d565b90508092505050611cc6613b67565b949350505050565b60605f60098054905067ffffffffffffffff811115611cf057611cef614c75565b5b604051908082528060200260200182016040528015611d2957816020015b611d166140be565b815260200190600190039081611d0e5790505b5090505f5f90505b600980549050811015611dad57611d8260098281548110611d5557611d54614ca2565b5b905f5260205f20015f9054906101000a900473ffffffffffffffffffffffffffffffffffffffff16611427565b828281518110611d9557611d94614ca2565b5b60200260200101819052508080600101915050611d31565b508091505090565b611dbd6139d9565b5f60075f8581526020019081526020015f20604051806101000160405290815f82015f9054906101000a900473ffffffffffffffffffffffffffffffffffffffff1673ffffffffffffffffffffffffffffffffffffffff1673ffffffffffffffffffffffffffffffffffffffff168152602001600182015f9054906101000a900473ffffffffffffffffffffffffffffffffffffffff1673ffffffffffffffffffffffffffffffffffffffff1673ffffffffffffffffffffffffffffffffffffffff168152602001600282015f9054906101000a900473ffffffffffffffffffffffffffffffffffffffff1673ffffffffffffffffffffffffffffffffffffffff1673ffffffffffffffffffffffffffffffffffffffff168152602001600382018054611ee990614eef565b80601f0160208091040260200160405190810160405280929190818152602001828054611f1590614eef565b8015611f605780601f10611f3757610100808354040283529160200191611f60565b820191905f5260205f20905b815481529060010190602001808311611f4357829003601f168201915b50505050508152602001600482018054611f7990614eef565b80601f0160208091040260200160405190810160405280929190818152602001828054611fa590614eef565b8015611ff05780601f10611fc757610100808354040283529160200191611ff0565b820191905f5260205f20905b815481529060010190602001808311611fd357829003601f168201915b5050505050815260200160058201805461200990614eef565b80601f016020809104026020016040519081016040528092919081815260200182805461203590614eef565b80156120805780601f1061205757610100808354040283529160200191612080565b820191905f5260205f20905b81548152906001019060200180831161206357829003601f168201915b5050505050815260200160068201805461209990614eef565b80601f01602080910402602001604051908101604052809291908181526020018280546120c590614eef565b80156121105780601f106120e757610100808354040283529160200191612110565b820191905f5260205f20905b8154815290600101906020018083116120f357829003601f168201915b50505050508152602001600782015f9054906101000a900460ff16151515158152505090505f5f60045f9054906101000a900473ffffffffffffffffffffffffffffffffffffffff1673ffffffffffffffffffffffffffffffffffffffff1663bcd658ad876040518263ffffffff1660e01b8152600401612191919061415b565b6040805180830381865afa1580156121ab573d5f5f3e3d5ffd5b505050506040513d601f19601f820116820180604052508101906121cf91906155a1565b91509150600260048111156121e7576121e66155df565b5b8260048111156121fa576121f96155df565b5b1461223a576040517f08c379a00000000000000000000000000000000000000000000000000000000081526004016122319061567c565b60405180910390fd5b8473ffffffffffffffffffffffffffffffffffffffff16637de48f046040518163ffffffff1660e01b81526004015f604051808303815f87803b15801561227f575f5ffd5b505af1158015612291573d5f5f3e3d5ffd5b5050505084835f019073ffffffffffffffffffffffffffffffffffffffff16908173ffffffffffffffffffffffffffffffffffffffff168152505083836020019073ffffffffffffffffffffffffffffffffffffffff16908173ffffffffffffffffffffffffffffffffffffffff1681525050600985908060018154018082558091505060019003905f5260205f20015f9091909190916101000a81548173ffffffffffffffffffffffffffffffffffffffff021916908373ffffffffffffffffffffffffffffffffffffffff1602179055508373ffffffffffffffffffffffffffffffffffffffff168573ffffffffffffffffffffffffffffffffffffffff16877fdbd3908ed1551f131cac0b0e54b86f03495799941eeb3290140b962f787409d460405160405180910390a45f6123c986613b70565b9050612442868773ffffffffffffffffffffffffffffffffffffffff1663ebda16eb6040518163ffffffff1660e01b8152600401602060405180830381865afa158015612418573d5f5f3e3d5ffd5b505050506040513d601f19601f8201168201806040525081019061243c9190614e8d565b84613d08565b60045f9054906101000a900473ffffffffffffffffffffffffffffffffffffffff1673ffffffffffffffffffffffffffffffffffffffff1663abf599fc8888846040518463ffffffff1660e01b81526004016124a09392919061569a565b5f604051808303815f87803b1580156124b7575f5ffd5b505af11580156124c9573d5f5f3e3d5ffd5b5050505050505050505050565b6007602052805f5260405f205f91509050805f015f9054906101000a900473ffffffffffffffffffffffffffffffffffffffff1690806001015f9054906101000a900473ffffffffffffffffffffffffffffffffffffffff1690806002015f9054906101000a900473ffffffffffffffffffffffffffffffffffffffff169080600301805461256490614eef565b80601f016020809104026020016040519081016040528092919081815260200182805461259090614eef565b80156125db5780601f106125b2576101008083540402835291602001916125db565b820191905f5260205f20905b8154815290600101906020018083116125be57829003601f168201915b5050505050908060040180546125f090614eef565b80601f016020809104026020016040519081016040528092919081815260200182805461261c90614eef565b80156126675780601f1061263e57610100808354040283529160200191612667565b820191905f5260205f20905b81548152906001019060200180831161264a57829003601f168201915b50505050509080600501805461267c90614eef565b80601f01602080910402602001604051908101604052809291908181526020018280546126a890614eef565b80156126f35780601f106126ca576101008083540402835291602001916126f3565b820191905f5260205f20905b8154815290600101906020018083116126d657829003601f168201915b50505050509080600601805461270890614eef565b80601f016020809104026020016040519081016040528092919081815260200182805461273490614eef565b801561277f5780601f106127565761010080835404028352916020019161277f565b820191905f5260205f20905b81548152906001019060200180831161276257829003601f168201915b505050505090806007015f9054906101000a900460ff16905088565b600c5f9054906101000a900473ffffffffffffffffffffffffffffffffffffffff1681565b60055f9054906101000a900473ffffffffffffffffffffffffffffffffffffffff1673ffffffffffffffffffffffffffffffffffffffff163373ffffffffffffffffffffffffffffffffffffffff161461284f576040517f08c379a000000000000000000000000000000000000000000000000000000000815260040161284690614c57565b60405180910390fd5b5f60085f60045f9054906101000a900473ffffffffffffffffffffffffffffffffffffffff1673ffffffffffffffffffffffffffffffffffffffff1663e8378fbf866040518263ffffffff1660e01b81526004016128ad9190614410565b602060405180830381865afa1580156128c8573d5f5f3e3d5ffd5b505050506040513d601f19601f820116820180604052508101906128ec9190614e8d565b81526020019081526020015f206040518060e00160405290815f8201548152602001600182015481526020016002820154815260200160038201548152602001600482015481526020016005820154815260200160068201548152505090505f60085f60045f9054906101000a900473ffffffffffffffffffffffffffffffffffffffff1673ffffffffffffffffffffffffffffffffffffffff1663e8378fbf866040518263ffffffff1660e01b81526004016129a99190614410565b602060405180830381865afa1580156129c4573d5f5f3e3d5ffd5b505050506040513d601f19601f820116820180604052508101906129e89190614e8d565b81526020019081526020015f206040518060e00160405290815f82015481526020016001820154815260200160028201548152602001600382015481526020016004820154815260200160058201548152602001600682015481525050905060646003548360200151612a5b91906156cf565b612a65919061573d565b8260200151612a749190615431565b82602001818152505060646003548260200151612a9191906156cf565b612a9b919061573d565b8160200151612aaa9190615464565b8160200181815250508273ffffffffffffffffffffffffffffffffffffffff168473ffffffffffffffffffffffffffffffffffffffff167faecea04ec10c6c0b9d91c8e45440289d97d5737d78401b23bc3ca82031eae93284602001518460200151604051612b1a92919061576d565b60405180910390a350505050565b612b30613b21565b612b386139d9565b5f612b4283611427565b90508173ffffffffffffffffffffffffffffffffffffffff16816040015173ffffffffffffffffffffffffffffffffffffffff1614612bb6576040517f08c379a0000000000000000000000000000000000000000000000000000000008152600401612bad906157de565b60405180910390fd5b8060e0015115612bfb576040517f08c379a0000000000000000000000000000000000000000000000000000000008152600401612bf290615846565b60405180910390fd5b60045f9054906101000a900473ffffffffffffffffffffffffffffffffffffffff1673ffffffffffffffffffffffffffffffffffffffff1663222b15fb836040518263ffffffff1660e01b8152600401612c559190614410565b602060405180830381865afa158015612c70573d5f5f3e3d5ffd5b505050506040513d601f19601f82011682018060405250810190612c949190614dc0565b15612cd4576040517f08c379a0000000000000000000000000000000000000000000000000000000008152600401612ccb906158ae565b60405180910390fd5b60018160e001901515908115158152505060085f60045f9054906101000a900473ffffffffffffffffffffffffffffffffffffffff1673ffffffffffffffffffffffffffffffffffffffff1663e8378fbf866040518263ffffffff1660e01b8152600401612d429190614410565b602060405180830381865afa158015612d5d573d5f5f3e3d5ffd5b505050506040513d601f19601f82011682018060405250810190612d819190614e8d565b81526020019081526020015f206004015460085f60045f9054906101000a900473ffffffffffffffffffffffffffffffffffffffff1673ffffffffffffffffffffffffffffffffffffffff1663e8378fbf876040518263ffffffff1660e01b8152600401612def9190614410565b602060405180830381865afa158015612e0a573d5f5f3e3d5ffd5b505050506040513d601f19601f82011682018060405250810190612e2e9190614e8d565b81526020019081526020015f205f0181905550805f015173ffffffffffffffffffffffffffffffffffffffff1663aad3ec9682604001516064600560045f9054906101000a900473ffffffffffffffffffffffffffffffffffffffff1673ffffffffffffffffffffffffffffffffffffffff16632ff2e9dc6040518163ffffffff1660e01b8152600401602060405180830381865afa158015612ed3573d5f5f3e3d5ffd5b505050506040513d601f19601f82011682018060405250810190612ef79190614e8d565b612f0191906156cf565b612f0b919061573d565b6040518363ffffffff1660e01b8152600401612f289291906153dd565b5f604051808303815f87803b158015612f3f575f5ffd5b505af1158015612f51573d5f5f3e3d5ffd5b5050505050612f5e613b67565b5050565b5f60055f9054906101000a900473ffffffffffffffffffffffffffffffffffffffff16905090565b60045f9054906101000a900473ffffffffffffffffffffffffffffffffffffffff1681565b610bb881565b612fbd6140be565b60075f60045f9054906101000a900473ffffffffffffffffffffffffffffffffffffffff1673ffffffffffffffffffffffffffffffffffffffff1663e8378fbf856040518263ffffffff1660e01b815260040161301a9190614410565b602060405180830381865afa158015613035573d5f5f3e3d5ffd5b505050506040513d601f19601f820116820180604052508101906130599190614e8d565b81526020019081526020015f20604051806101000160405290815f82015f9054906101000a900473ffffffffffffffffffffffffffffffffffffffff1673ffffffffffffffffffffffffffffffffffffffff1673ffffffffffffffffffffffffffffffffffffffff168152602001600182015f9054906101000a900473ffffffffffffffffffffffffffffffffffffffff1673ffffffffffffffffffffffffffffffffffffffff1673ffffffffffffffffffffffffffffffffffffffff168152602001600282015f9054906101000a900473ffffffffffffffffffffffffffffffffffffffff1673ffffffffffffffffffffffffffffffffffffffff1673ffffffffffffffffffffffffffffffffffffffff16815260200160038201805461318090614eef565b80601f01602080910402602001604051908101604052809291908181526020018280546131ac90614eef565b80156131f75780601f106131ce576101008083540402835291602001916131f7565b820191905f5260205f20905b8154815290600101906020018083116131da57829003601f168201915b5050505050815260200160048201805461321090614eef565b80601f016020809104026020016040519081016040528092919081815260200182805461323c90614eef565b80156132875780601f1061325e57610100808354040283529160200191613287565b820191905f5260205f20905b81548152906001019060200180831161326a57829003601f168201915b505050505081526020016005820180546132a090614eef565b80601f01602080910402602001604051908101604052809291908181526020018280546132cc90614eef565b80156133175780601f106132ee57610100808354040283529160200191613317565b820191905f5260205f20905b8154815290600101906020018083116132fa57829003601f168201915b5050505050815260200160068201805461333090614eef565b80601f016020809104026020016040519081016040528092919081815260200182805461335c90614eef565b80156133a75780601f1061337e576101008083540402835291602001916133a7565b820191905f5260205f20905b81548152906001019060200180831161338a57829003601f168201915b50505050508152602001600782015f9054906101000a900460ff1615151515815250509050919050565b60035481565b6133df6139d9565b5f73ffffffffffffffffffffffffffffffffffffffff168173ffffffffffffffffffffffffffffffffffffffff160361344f575f6040517f1e4fbdf70000000000000000000000000000000000000000000000000000000081526004016134469190614410565b60405180910390fd5b61345881613a60565b50565b600181565b5f5f90505b81518110156139d5575f61349583838151811061348557613484614ca2565b5b60200260200101515f0151611427565b90505f73ffffffffffffffffffffffffffffffffffffffff16815f015173ffffffffffffffffffffffffffffffffffffffff1603613508576040517f08c379a00000000000000000000000000000000000000000000000000000000081526004016134ff906152c9565b60405180910390fd5b5f60085f60045f9054906101000a900473ffffffffffffffffffffffffffffffffffffffff1673ffffffffffffffffffffffffffffffffffffffff1663e8378fbf87878151811061355c5761355b614ca2565b5b60200260200101515f01516040518263ffffffff1660e01b81526004016135839190614410565b602060405180830381865afa15801561359e573d5f5f3e3d5ffd5b505050506040513d601f19601f820116820180604052508101906135c29190614e8d565b81526020019081526020015f206040518060e00160405290815f82015481526020016001820154815260200160028201548152602001600382015481526020016004820154815260200160058201548152602001600682015481525050905062015180815f01516136339190615464565b421015613675576040517f08c379a000000000000000000000000000000000000000000000000000000000815260040161366c90615916565b60405180910390fd5b42815f01818152505083838151811061369157613690614ca2565b5b602002602001015160200151815f018181525050805f01518484815181106136bc576136bb614ca2565b5b6020026020010151602001516136d29190615431565b816080018181516136e39190615464565b9150818152505061c350815f015182608001516137009190615431565b101580156137a6575060065f9054906101000a900473ffffffffffffffffffffffffffffffffffffffff1673ffffffffffffffffffffffffffffffffffffffff1663f251f45f835f01516040518263ffffffff1660e01b81526004016137669190614410565b602060405180830381865afa158015613781573d5f5f3e3d5ffd5b505050506040513d601f19601f820116820180604052508101906137a59190614dc0565b5b156138435760065f9054906101000a900473ffffffffffffffffffffffffffffffffffffffff1673ffffffffffffffffffffffffffffffffffffffff16636491e566835f01516040518263ffffffff1660e01b81526004016138089190614410565b5f604051808303815f87803b15801561381f575f5ffd5b505af1158015613831573d5f5f3e3d5ffd5b505050508060800151815f0181815250505b8160e00151801561386b57508060200151816040015182608001516138689190615431565b10155b80156138e35750815f015173ffffffffffffffffffffffffffffffffffffffff1663c52aa2cf6040518163ffffffff1660e01b8152600401602060405180830381865afa1580156138be573d5f5f3e3d5ffd5b505050506040513d601f19601f820116820180604052508101906138e29190614dc0565b5b15613955578060800151816040018181525050815f015173ffffffffffffffffffffffffffffffffffffffff1663a431831e6040518163ffffffff1660e01b81526004015f604051808303815f87803b15801561393e575f5ffd5b505af1158015613950573d5f5f3e3d5ffd5b505050505b83838151811061396857613967614ca2565b5b60200260200101515f015173ffffffffffffffffffffffffffffffffffffffff167f17f0fa8193ad599e6d9e20fb742ac1d5fd0b1bf4246f0aa664a4c293863ffac08260800151426040516139be92919061576d565b60405180910390a250508080600101915050613465565b5050565b6139e1614089565b73ffffffffffffffffffffffffffffffffffffffff166139ff611400565b73ffffffffffffffffffffffffffffffffffffffff1614613a5e57613a22614089565b6040517f118cdaa7000000000000000000000000000000000000000000000000000000008152600401613a559190614410565b60405180910390fd5b565b5f5f5f9054906101000a900473ffffffffffffffffffffffffffffffffffffffff169050815f5f6101000a81548173ffffffffffffffffffffffffffffffffffffffff021916908373ffffffffffffffffffffffffffffffffffffffff1602179055508173ffffffffffffffffffffffffffffffffffffffff168173ffffffffffffffffffffffffffffffffffffffff167f8be0079c531659141344cd1fd0a4f28419497f9722a3daafe3b4186f6b6457e060405160405180910390a35050565b600260015403613b5d576040517f3ee5aeb500000000000000000000000000000000000000000000000000000000815260040160405180910390fd5b6002600181905550565b60018081905550565b5f600b5f9054906101000a900473ffffffffffffffffffffffffffffffffffffffff1673ffffffffffffffffffffffffffffffffffffffff1663a16712958373c190e6f26ce14e40d30251fde25927a73a5d58b6610bb86040518463ffffffff1660e01b8152600401613be593929190615934565b6020604051808303815f875af1158015613c01573d5f5f3e3d5ffd5b505050506040513d601f19601f82011682018060405250810190613c25919061597d565b90505f73c190e6f26ce14e40d30251fde25927a73a5d58b673ffffffffffffffffffffffffffffffffffffffff168373ffffffffffffffffffffffffffffffffffffffff1610613c81576b051d072f35240355e5a3d05e613c8c565b6802b763ada8b3d7dafe5b6bffffffffffffffffffffffff1690508173ffffffffffffffffffffffffffffffffffffffff1663f637731d826040518263ffffffff1660e01b8152600401613cd591906159b7565b5f604051808303815f87803b158015613cec575f5ffd5b505af1158015613cfe573d5f5f3e3d5ffd5b5050505050919050565b5f5f73c190e6f26ce14e40d30251fde25927a73a5d58b673ffffffffffffffffffffffffffffffffffffffff168573ffffffffffffffffffffffffffffffffffffffff1610613d6c5773c190e6f26ce14e40d30251fde25927a73a5d58b685613d83565b8473c190e6f26ce14e40d30251fde25927a73a5d58b65b915091505f5f73c190e6f26ce14e40d30251fde25927a73a5d58b673ffffffffffffffffffffffffffffffffffffffff168773ffffffffffffffffffffffffffffffffffffffff1610613dd7578486613dda565b85855b915091508373ffffffffffffffffffffffffffffffffffffffff1663095ea7b3600a5f9054906101000a900473ffffffffffffffffffffffffffffffffffffffff16846040518363ffffffff1660e01b8152600401613e3a9291906153dd565b6020604051808303815f875af1158015613e56573d5f5f3e3d5ffd5b505050506040513d601f19601f82011682018060405250810190613e7a9190614dc0565b508273ffffffffffffffffffffffffffffffffffffffff1663095ea7b3600a5f9054906101000a900473ffffffffffffffffffffffffffffffffffffffff16836040518363ffffffff1660e01b8152600401613ed79291906153dd565b6020604051808303815f875af1158015613ef3573d5f5f3e3d5ffd5b505050506040513d601f19601f82011682018060405250810190613f179190614dc0565b50600a5f9054906101000a900473ffffffffffffffffffffffffffffffffffffffff1673ffffffffffffffffffffffffffffffffffffffff1663883164566040518061016001604052808773ffffffffffffffffffffffffffffffffffffffff1681526020018673ffffffffffffffffffffffffffffffffffffffff168152602001610bb862ffffff1681526020017ffffffffffffffffffffffffffffffffffffffffffffffffffffffffffff2764c60020b8152602001620d89b460020b81526020018581526020018481526020015f81526020015f81526020015f73ffffffffffffffffffffffffffffffffffffffff16815260200161012c4261401d9190615464565b8152506040518263ffffffff1660e01b815260040161403c9190615aca565b6080604051808303815f875af1158015614058573d5f5f3e3d5ffd5b505050506040513d601f19601f8201168201806040525081019061407c9190615b29565b5050505050505050505050565b5f33905090565b60405180604001604052805f73ffffffffffffffffffffffffffffffffffffffff1681526020015f81525090565b6040518061010001604052805f73ffffffffffffffffffffffffffffffffffffffff1681526020015f73ffffffffffffffffffffffffffffffffffffffff1681526020015f73ffffffffffffffffffffffffffffffffffffffff168152602001606081526020016060815260200160608152602001606081526020015f151581525090565b5f819050919050565b61415581614143565b82525050565b5f60208201905061416e5f83018461414c565b92915050565b5f604051905090565b5f5ffd5b5f5ffd5b5f5ffd5b5f5ffd5b5f5ffd5b5f5f83601f8401126141a6576141a5614185565b5b8235905067ffffffffffffffff8111156141c3576141c2614189565b5b6020830191508360408202830111156141df576141de61418d565b5b9250929050565b5f5f602083850312156141fc576141fb61417d565b5b5f83013567ffffffffffffffff81111561421957614218614181565b5b61422585828601614191565b92509250509250929050565b5f73ffffffffffffffffffffffffffffffffffffffff82169050919050565b5f61425a82614231565b9050919050565b61426a81614250565b8114614274575f5ffd5b50565b5f8135905061428581614261565b92915050565b5f5f83601f8401126142a05761429f614185565b5b8235905067ffffffffffffffff8111156142bd576142bc614189565b5b6020830191508360018202830111156142d9576142d861418d565b5b9250929050565b5f5f5f5f5f5f5f5f5f60a08a8c0312156142fd576142fc61417d565b5b5f61430a8c828d01614277565b99505060208a013567ffffffffffffffff81111561432b5761432a614181565b5b6143378c828d0161428b565b985098505060408a013567ffffffffffffffff81111561435a57614359614181565b5b6143668c828d0161428b565b965096505060608a013567ffffffffffffffff81111561438957614388614181565b5b6143958c828d0161428b565b945094505060808a013567ffffffffffffffff8111156143b8576143b7614181565b5b6143c48c828d0161428b565b92509250509295985092959850929598565b5f602082840312156143eb576143ea61417d565b5b5f6143f884828501614277565b91505092915050565b61440a81614250565b82525050565b5f6020820190506144235f830184614401565b92915050565b61443281614143565b811461443c575f5ffd5b50565b5f8135905061444d81614429565b92915050565b5f602082840312156144685761446761417d565b5b5f6144758482850161443f565b91505092915050565b5f819050919050565b5f6144a161449c61449784614231565b61447e565b614231565b9050919050565b5f6144b282614487565b9050919050565b5f6144c3826144a8565b9050919050565b6144d3816144b9565b82525050565b5f6020820190506144ec5f8301846144ca565b92915050565b5f6144fc826144a8565b9050919050565b61450c816144f2565b82525050565b5f6020820190506145255f830184614503565b92915050565b5f614535826144a8565b9050919050565b6145458161452b565b82525050565b5f60208201905061455e5f83018461453c565b92915050565b5f61456e826144a8565b9050919050565b61457e81614564565b82525050565b5f6020820190506145975f830184614575565b92915050565b6145a681614250565b82525050565b5f81519050919050565b5f82825260208201905092915050565b8281835e5f83830152505050565b5f601f19601f8301169050919050565b5f6145ee826145ac565b6145f881856145b6565b93506146088185602086016145c6565b614611816145d4565b840191505092915050565b5f8115159050919050565b6146308161461c565b82525050565b5f61010083015f83015161464c5f86018261459d565b50602083015161465f602086018261459d565b506040830151614672604086018261459d565b506060830151848203606086015261468a82826145e4565b915050608083015184820360808601526146a482826145e4565b91505060a083015184820360a08601526146be82826145e4565b91505060c083015184820360c08601526146d882826145e4565b91505060e08301516146ed60e0860182614627565b508091505092915050565b5f6020820190508181035f8301526147108184614636565b905092915050565b5f60e08201905061472b5f83018a61414c565b614738602083018961414c565b614745604083018861414c565b614752606083018761414c565b61475f608083018661414c565b61476c60a083018561414c565b61477960c083018461414c565b98975050505050505050565b5f5f83601f84011261479a57614799614185565b5b8235905067ffffffffffffffff8111156147b7576147b6614189565b5b6020830191508360208202830111156147d3576147d261418d565b5b9250929050565b5f5f5f5f606085870312156147f2576147f161417d565b5b5f6147ff8782880161443f565b945050602085013567ffffffffffffffff8111156148205761481f614181565b5b61482c87828801614785565b9350935050604061483f87828801614277565b91505092959194509250565b5f81519050919050565b5f82825260208201905092915050565b5f819050602082019050919050565b5f61010083015f83015161488a5f86018261459d565b50602083015161489d602086018261459d565b5060408301516148b0604086018261459d565b50606083015184820360608601526148c882826145e4565b915050608083015184820360808601526148e282826145e4565b91505060a083015184820360a08601526148fc82826145e4565b91505060c083015184820360c086015261491682826145e4565b91505060e083015161492b60e0860182614627565b508091505092915050565b5f6149418383614874565b905092915050565b5f602082019050919050565b5f61495f8261484b565b6149698185614855565b93508360208202850161497b85614865565b805f5b858110156149b657848403895281516149978582614936565b94506149a283614949565b925060208a0199505060018101905061497e565b50829750879550505050505092915050565b5f6020820190508181035f8301526149e08184614955565b905092915050565b5f5f5f606084860312156149ff576149fe61417d565b5b5f614a0c8682870161443f565b9350506020614a1d86828701614277565b9250506040614a2e86828701614277565b9150509250925092565b5f82825260208201905092915050565b5f614a52826145ac565b614a5c8185614a38565b9350614a6c8185602086016145c6565b614a75816145d4565b840191505092915050565b614a898161461c565b82525050565b5f61010082019050614aa35f83018b614401565b614ab0602083018a614401565b614abd6040830189614401565b8181036060830152614acf8188614a48565b90508181036080830152614ae38187614a48565b905081810360a0830152614af78186614a48565b905081810360c0830152614b0b8185614a48565b9050614b1a60e0830184614a80565b9998505050505050505050565b5f614b31826144a8565b9050919050565b614b4181614b27565b82525050565b5f602082019050614b5a5f830184614b38565b92915050565b5f5f60408385031215614b7657614b7561417d565b5b5f614b8385828601614277565b9250506020614b9485828601614277565b9150509250929050565b5f614ba8826144a8565b9050919050565b614bb881614b9e565b82525050565b5f602082019050614bd15f830184614baf565b92915050565b5f62ffffff82169050919050565b614bee81614bd7565b82525050565b5f602082019050614c075f830184614be5565b92915050565b7f756e617574686f72697a656400000000000000000000000000000000000000005f82015250565b5f614c41600c83614a38565b9150614c4c82614c0d565b602082019050919050565b5f6020820190508181035f830152614c6e81614c35565b9050919050565b7f4e487b71000000000000000000000000000000000000000000000000000000005f52604160045260245ffd5b7f4e487b71000000000000000000000000000000000000000000000000000000005f52603260045260245ffd5b5f5ffd5b614cdc826145d4565b810181811067ffffffffffffffff82111715614cfb57614cfa614c75565b5b80604052505050565b5f614d0d614174565b9050614d198282614cd3565b919050565b5f60408284031215614d3357614d32614ccf565b5b614d3d6040614d04565b90505f614d4c84828501614277565b5f830152506020614d5f8482850161443f565b60208301525092915050565b5f60408284031215614d8057614d7f61417d565b5b5f614d8d84828501614d1e565b91505092915050565b614d9f8161461c565b8114614da9575f5ffd5b50565b5f81519050614dba81614d96565b92915050565b5f60208284031215614dd557614dd461417d565b5b5f614de284828501614dac565b91505092915050565b7f43726561746f7220697320626c6f636b6564206f7220616c72656164792068615f8201527f73206120746f6b656e0000000000000000000000000000000000000000000000602082015250565b5f614e45602983614a38565b9150614e5082614deb565b604082019050919050565b5f6020820190508181035f830152614e7281614e39565b9050919050565b5f81519050614e8781614429565b92915050565b5f60208284031215614ea257614ea161417d565b5b5f614eaf84828501614e79565b91505092915050565b5f82905092915050565b7f4e487b71000000000000000000000000000000000000000000000000000000005f52602260045260245ffd5b5f6002820490506001821680614f0657607f821691505b602082108103614f1957614f18614ec2565b5b50919050565b5f819050815f5260205f209050919050565b5f6020601f8301049050919050565b5f82821b905092915050565b5f60088302614f7b7fffffffffffffffffffffffffffffffffffffffffffffffffffffffffffffffff82614f40565b614f858683614f40565b95508019841693508086168417925050509392505050565b5f614fb7614fb2614fad84614143565b61447e565b614143565b9050919050565b5f819050919050565b614fd083614f9d565b614fe4614fdc82614fbe565b848454614f4c565b825550505050565b5f5f905090565b614ffb614fec565b615006818484614fc7565b505050565b5b818110156150295761501e5f82614ff3565b60018101905061500c565b5050565b601f82111561506e5761503f81614f1f565b61504884614f31565b81016020851015615057578190505b61506b61506385614f31565b83018261500b565b50505b505050565b5f82821c905092915050565b5f61508e5f1984600802615073565b1980831691505092915050565b5f6150a6838361507f565b9150826002028217905092915050565b6150c08383614eb8565b67ffffffffffffffff8111156150d9576150d8614c75565b5b6150e38254614eef565b6150ee82828561502d565b5f601f83116001811461511b575f8415615109578287013590505b615113858261509b565b86555061517a565b601f19841661512986614f1f565b5f5b828110156151505784890135825560018201915060208501945060208101905061512b565b8683101561516d5784890135615169601f89168261507f565b8355505b6001600288020188555050505b50505050505050565b5f815461518f81614eef565b6151998186614a38565b9450600182165f81146151b357600181146151c9576151fb565b60ff1983168652811515602002860193506151fb565b6151d285614f1f565b5f5b838110156151f3578154818901526001820191506020810190506151d4565b808801955050505b50505092915050565b5f60c0820190508181035f83015261521c8189615183565b905081810360208301526152308188615183565b905081810360408301526152448187615183565b905081810360608301526152588186615183565b90506152676080830185614a80565b61527460a083018461414c565b979650505050505050565b7f546f6b656e206e6f7420637265617465640000000000000000000000000000005f82015250565b5f6152b3601183614a38565b91506152be8261527f565b602082019050919050565b5f6020820190508181035f8301526152e0816152a7565b9050919050565b7f4f6e6c7920626174746c65206f7220656e6761676520746f206561726e2063615f8201527f6e20737761700000000000000000000000000000000000000000000000000000602082015250565b5f615341602683614a38565b915061534c826152e7565b604082019050919050565b5f6020820190508181035f83015261536e81615335565b9050919050565b7f496e76616c6964207061746800000000000000000000000000000000000000005f82015250565b5f6153a9600c83614a38565b91506153b482615375565b602082019050919050565b5f6020820190508181035f8301526153d68161539d565b9050919050565b5f6040820190506153f05f830185614401565b6153fd602083018461414c565b9392505050565b7f4e487b71000000000000000000000000000000000000000000000000000000005f52601160045260245ffd5b5f61543b82614143565b915061544683614143565b925082820390508181111561545e5761545d615404565b5b92915050565b5f61546e82614143565b915061547983614143565b925082820190508082111561549157615490615404565b5b92915050565b6154a081614bd7565b82525050565b6154af81614143565b82525050565b6154be81614231565b82525050565b61010082015f8201516154d95f85018261459d565b5060208201516154ec602085018261459d565b5060408201516154ff6040850182615497565b506060820151615512606085018261459d565b50608082015161552560808501826154a6565b5060a082015161553860a08501826154a6565b5060c082015161554b60c08501826154a6565b5060e082015161555e60e08501826154b5565b50505050565b5f610100820190506155785f8301846154c4565b92915050565b6005811061558a575f5ffd5b50565b5f8151905061559b8161557e565b92915050565b5f5f604083850312156155b7576155b661417d565b5b5f6155c48582860161558d565b92505060206155d585828601614e79565b9150509250929050565b7f4e487b71000000000000000000000000000000000000000000000000000000005f52602160045260245ffd5b7f46616972206c61756e6368206e6f7420726561647920746f20636f6d706c65745f8201527f6500000000000000000000000000000000000000000000000000000000000000602082015250565b5f615666602183614a38565b91506156718261560c565b604082019050919050565b5f6020820190508181035f8301526156938161565a565b9050919050565b5f6060820190506156ad5f83018661414c565b6156ba6020830185614401565b6156c76040830184614401565b949350505050565b5f6156d982614143565b91506156e483614143565b92508282026156f281614143565b9150828204841483151761570957615708615404565b5b5092915050565b7f4e487b71000000000000000000000000000000000000000000000000000000005f52601260045260245ffd5b5f61574782614143565b915061575283614143565b92508261576257615761615710565b5b828204905092915050565b5f6040820190506157805f83018561414c565b61578d602083018461414c565b9392505050565b7f43726561746f72206d69736d61746368000000000000000000000000000000005f82015250565b5f6157c8601083614a38565b91506157d382615794565b602082019050919050565b5f6020820190508181035f8301526157f5816157bc565b9050919050565b7f416c726561647920636c61696d65642062792063726561746f720000000000005f82015250565b5f615830601a83614a38565b915061583b826157fc565b602082019050919050565b5f6020820190508181035f83015261585d81615824565b9050919050565b7f43726561746f7220616c726561647920686173206120746f6b656e00000000005f82015250565b5f615898601b83614a38565b91506158a382615864565b602082019050919050565b5f6020820190508181035f8301526158c58161588c565b9050919050565b7f486561742075706461746520746f6f206672657175656e7400000000000000005f82015250565b5f615900601883614a38565b915061590b826158cc565b602082019050919050565b5f6020820190508181035f83015261592d816158f4565b9050919050565b5f6060820190506159475f830186614401565b6159546020830185614401565b6159616040830184614be5565b949350505050565b5f8151905061597781614261565b92915050565b5f602082840312156159925761599161417d565b5b5f61599f84828501615969565b91505092915050565b6159b181614231565b82525050565b5f6020820190506159ca5f8301846159a8565b92915050565b5f8160020b9050919050565b6159e5816159d0565b82525050565b61016082015f820151615a005f85018261459d565b506020820151615a13602085018261459d565b506040820151615a266040850182615497565b506060820151615a3960608501826159dc565b506080820151615a4c60808501826159dc565b5060a0820151615a5f60a08501826154a6565b5060c0820151615a7260c08501826154a6565b5060e0820151615a8560e08501826154a6565b50610100820151615a9a6101008501826154a6565b50610120820151615aaf61012085018261459d565b50610140820151615ac46101408501826154a6565b50505050565b5f61016082019050615ade5f8301846159eb565b92915050565b5f6fffffffffffffffffffffffffffffffff82169050919050565b615b0881615ae4565b8114615b12575f5ffd5b50565b5f81519050615b2381615aff565b92915050565b5f5f5f5f60808587031215615b4157615b4061417d565b5b5f615b4e87828801614e79565b9450506020615b5f87828801615b15565b9350506040615b7087828801614e79565b9250506060615b8187828801614e79565b9150509295919450925056fea2646970667358221220cda64246606a109baf442b639ba5c8bff032be70e27d76e0ff6446bb920ede2164736f6c634300081c0033",
  "linkReferences": {},
  "deployedLinkReferences": {},
  "immutableReferences": {},
  "inputSourceName": "project/contracts/MemedFactory_test.sol",
  "buildInfoId": "solc-0_8_28-7db1d0f643c80f3ca080e7f084a21f74e75622c7"
}