{
  "_format": "hh3-artifact-1",
  "contractName": "MemedWarriorNFT",
  "sourceName": "contracts/MemedWarriorNFT.sol",
  "abi": [
    {
      "inputs": [
        {
          "internalType": "string",
          "name": "_name",
          "type": "string"
        },
        {
          "internalType": "string",
          "name": "_symbol",
          "type": "string"
        },
        {
          "internalType": "address",
          "name": "_memedToken",
          "type": "address"
        },
        {
          "internalType": "address",
          "name": "_memedBattle",
          "type": "address"
        },
        {
          "internalType": "address",
          "name": "_factory",
          "type": "address"
        },
        {
          "internalType": "string",
          "name": "_uri",
          "type": "string"
        }
      ],
      "stateMutability": "nonpayable",
      "type": "constructor"
    },
    {
      "inputs": [
        {
          "internalType": "address",
          "name": "sender",
          "type": "address"
        },
        {
          "internalType": "uint256",
          "name": "tokenId",
          "type": "uint256"
        },
        {
          "internalType": "address",
          "name": "owner",
          "type": "address"
        }
      ],
      "name": "ERC721IncorrectOwner",
      "type": "error"
    },
    {
      "inputs": [
        {
          "internalType": "address",
          "name": "operator",
          "type": "address"
        },
        {
          "internalType": "uint256",
          "name": "tokenId",
          "type": "uint256"
        }
      ],
      "name": "ERC721InsufficientApproval",
      "type": "error"
    },
    {
      "inputs": [
        {
          "internalType": "address",
          "name": "approver",
          "type": "address"
        }
      ],
      "name": "ERC721InvalidApprover",
      "type": "error"
    },
    {
      "inputs": [
        {
          "internalType": "address",
          "name": "operator",
          "type": "address"
        }
      ],
      "name": "ERC721InvalidOperator",
      "type": "error"
    },
    {
      "inputs": [
        {
          "internalType": "address",
          "name": "owner",
          "type": "address"
        }
      ],
      "name": "ERC721InvalidOwner",
      "type": "error"
    },
    {
      "inputs": [
        {
          "internalType": "address",
          "name": "receiver",
          "type": "address"
        }
      ],
      "name": "ERC721InvalidReceiver",
      "type": "error"
    },
    {
      "inputs": [
        {
          "internalType": "address",
          "name": "sender",
          "type": "address"
        }
      ],
      "name": "ERC721InvalidSender",
      "type": "error"
    },
    {
      "inputs": [
        {
          "internalType": "uint256",
          "name": "tokenId",
          "type": "uint256"
        }
      ],
      "name": "ERC721NonexistentToken",
      "type": "error"
    },
    {
      "inputs": [
        {
          "internalType": "address",
          "name": "owner",
          "type": "address"
        }
      ],
      "name": "OwnableInvalidOwner",
      "type": "error"
    },
    {
      "inputs": [
        {
          "internalType": "address",
          "name": "account",
          "type": "address"
        }
      ],
      "name": "OwnableUnauthorizedAccount",
      "type": "error"
    },
    {
      "inputs": [],
      "name": "ReentrancyGuardReentrantCall",
      "type": "error"
    },
    {
      "anonymous": false,
      "inputs": [
        {
          "indexed": true,
          "internalType": "address",
          "name": "owner",
          "type": "address"
        },
        {
          "indexed": true,
          "internalType": "address",
          "name": "approved",
          "type": "address"
        },
        {
          "indexed": true,
          "internalType": "uint256",
          "name": "tokenId",
          "type": "uint256"
        }
      ],
      "name": "Approval",
      "type": "event"
    },
    {
      "anonymous": false,
      "inputs": [
        {
          "indexed": true,
          "internalType": "address",
          "name": "owner",
          "type": "address"
        },
        {
          "indexed": true,
          "internalType": "address",
          "name": "operator",
          "type": "address"
        },
        {
          "indexed": false,
          "internalType": "bool",
          "name": "approved",
          "type": "bool"
        }
      ],
      "name": "ApprovalForAll",
      "type": "event"
    },
    {
      "anonymous": false,
      "inputs": [
        {
          "indexed": false,
          "internalType": "uint256",
          "name": "_fromTokenId",
          "type": "uint256"
        },
        {
          "indexed": false,
          "internalType": "uint256",
          "name": "_toTokenId",
          "type": "uint256"
        }
      ],
      "name": "BatchMetadataUpdate",
      "type": "event"
    },
    {
      "anonymous": false,
      "inputs": [
        {
          "indexed": false,
          "internalType": "uint256",
          "name": "_tokenId",
          "type": "uint256"
        }
      ],
      "name": "MetadataUpdate",
      "type": "event"
    },
    {
      "anonymous": false,
      "inputs": [
        {
          "indexed": true,
          "internalType": "address",
          "name": "previousOwner",
          "type": "address"
        },
        {
          "indexed": true,
          "internalType": "address",
          "name": "newOwner",
          "type": "address"
        }
      ],
      "name": "OwnershipTransferred",
      "type": "event"
    },
    {
      "anonymous": false,
      "inputs": [
        {
          "indexed": false,
          "internalType": "uint256",
          "name": "amount",
          "type": "uint256"
        },
        {
          "indexed": false,
          "internalType": "uint256",
          "name": "totalPlatformHeat",
          "type": "uint256"
        }
      ],
      "name": "TokensBurned",
      "type": "event"
    },
    {
      "anonymous": false,
      "inputs": [
        {
          "indexed": true,
          "internalType": "address",
          "name": "from",
          "type": "address"
        },
        {
          "indexed": true,
          "internalType": "address",
          "name": "to",
          "type": "address"
        },
        {
          "indexed": true,
          "internalType": "uint256",
          "name": "tokenId",
          "type": "uint256"
        }
      ],
      "name": "Transfer",
      "type": "event"
    },
    {
      "anonymous": false,
      "inputs": [
        {
          "indexed": true,
          "internalType": "uint256",
          "name": "tokenId",
          "type": "uint256"
        },
        {
          "indexed": true,
          "internalType": "address",
          "name": "owner",
          "type": "address"
        }
      ],
      "name": "WarriorAllocated",
      "type": "event"
    },
    {
      "anonymous": false,
      "inputs": [
        {
          "indexed": true,
          "internalType": "uint256",
          "name": "tokenId",
          "type": "uint256"
        },
        {
          "indexed": true,
          "internalType": "address",
          "name": "owner",
          "type": "address"
        }
      ],
      "name": "WarriorGetBack",
      "type": "event"
    },
    {
      "anonymous": false,
      "inputs": [
        {
          "indexed": true,
          "internalType": "uint256",
          "name": "tokenId",
          "type": "uint256"
        },
        {
          "indexed": true,
          "internalType": "address",
          "name": "owner",
          "type": "address"
        },
        {
          "indexed": false,
          "internalType": "uint256",
          "name": "price",
          "type": "uint256"
        }
      ],
      "name": "WarriorMinted",
      "type": "event"
    },
    {
      "inputs": [],
      "name": "BASE_PRICE",
      "outputs": [
        {
          "internalType": "uint256",
          "name": "",
          "type": "uint256"
        }
      ],
      "stateMutability": "view",
      "type": "function"
    },
    {
      "inputs": [],
      "name": "HEAT_THRESHOLD",
      "outputs": [
        {
          "internalType": "uint256",
          "name": "",
          "type": "uint256"
        }
      ],
      "stateMutability": "view",
      "type": "function"
    },
    {
      "inputs": [],
      "name": "PRICE_INCREMENT",
      "outputs": [
        {
          "internalType": "uint256",
          "name": "",
          "type": "uint256"
        }
      ],
      "stateMutability": "view",
      "type": "function"
    },
    {
      "inputs": [
        {
          "internalType": "address",
          "name": "_user",
          "type": "address"
        },
        {
          "internalType": "uint256[]",
          "name": "_nftsIds",
          "type": "uint256[]"
        }
      ],
      "name": "allocateNFTsToBattle",
      "outputs": [],
      "stateMutability": "nonpayable",
      "type": "function"
    },
    {
      "inputs": [
        {
          "internalType": "address",
          "name": "to",
          "type": "address"
        },
        {
          "internalType": "uint256",
          "name": "tokenId",
          "type": "uint256"
        }
      ],
      "name": "approve",
      "outputs": [],
      "stateMutability": "nonpayable",
      "type": "function"
    },
    {
      "inputs": [
        {
          "internalType": "address",
          "name": "owner",
          "type": "address"
        }
      ],
      "name": "balanceOf",
      "outputs": [
        {
          "internalType": "uint256",
          "name": "",
          "type": "uint256"
        }
      ],
      "stateMutability": "view",
      "type": "function"
    },
    {
      "inputs": [],
      "name": "currentTokenId",
      "outputs": [
        {
          "internalType": "uint256",
          "name": "",
          "type": "uint256"
        }
      ],
      "stateMutability": "view",
      "type": "function"
    },
    {
      "inputs": [],
      "name": "factory",
      "outputs": [
        {
          "internalType": "contract IMemedFactory",
          "name": "",
          "type": "address"
        }
      ],
      "stateMutability": "view",
      "type": "function"
    },
    {
      "inputs": [
        {
          "internalType": "uint256",
          "name": "tokenId",
          "type": "uint256"
        }
      ],
      "name": "getApproved",
      "outputs": [
        {
          "internalType": "address",
          "name": "",
          "type": "address"
        }
      ],
      "stateMutability": "view",
      "type": "function"
    },
    {
      "inputs": [
        {
          "internalType": "uint256",
          "name": "_nftId",
          "type": "uint256"
        }
      ],
      "name": "getBackWarrior",
      "outputs": [],
      "stateMutability": "nonpayable",
      "type": "function"
    },
    {
      "inputs": [],
      "name": "getCurrentPrice",
      "outputs": [
        {
          "internalType": "uint256",
          "name": "",
          "type": "uint256"
        }
      ],
      "stateMutability": "view",
      "type": "function"
    },
    {
      "inputs": [
        {
          "internalType": "address",
          "name": "_user",
          "type": "address"
        }
      ],
      "name": "getUserActiveNFTs",
      "outputs": [
        {
          "internalType": "uint256[]",
          "name": "",
          "type": "uint256[]"
        }
      ],
      "stateMutability": "view",
      "type": "function"
    },
    {
      "inputs": [
        {
          "internalType": "address",
          "name": "_user",
          "type": "address"
        },
        {
          "internalType": "uint256",
          "name": "_timestamp",
          "type": "uint256"
        }
      ],
      "name": "getWarriorMintedBeforeByUser",
      "outputs": [
        {
          "internalType": "uint256[]",
          "name": "",
          "type": "uint256[]"
        }
      ],
      "stateMutability": "view",
      "type": "function"
    },
    {
      "inputs": [
        {
          "internalType": "address",
          "name": "_user",
          "type": "address"
        }
      ],
      "name": "hasActiveWarrior",
      "outputs": [
        {
          "internalType": "bool",
          "name": "",
          "type": "bool"
        }
      ],
      "stateMutability": "view",
      "type": "function"
    },
    {
      "inputs": [
        {
          "internalType": "address",
          "name": "owner",
          "type": "address"
        },
        {
          "internalType": "address",
          "name": "operator",
          "type": "address"
        }
      ],
      "name": "isApprovedForAll",
      "outputs": [
        {
          "internalType": "bool",
          "name": "",
          "type": "bool"
        }
      ],
      "stateMutability": "view",
      "type": "function"
    },
    {
      "inputs": [],
      "name": "memedBattle",
      "outputs": [
        {
          "internalType": "contract IMemedBattle",
          "name": "",
          "type": "address"
        }
      ],
      "stateMutability": "view",
      "type": "function"
    },
    {
      "inputs": [],
      "name": "memedToken",
      "outputs": [
        {
          "internalType": "address",
          "name": "",
          "type": "address"
        }
      ],
      "stateMutability": "view",
      "type": "function"
    },
    {
      "inputs": [],
      "name": "mintWarrior",
      "outputs": [
        {
          "internalType": "uint256",
          "name": "",
          "type": "uint256"
        }
      ],
      "stateMutability": "nonpayable",
      "type": "function"
    },
    {
      "inputs": [],
      "name": "name",
      "outputs": [
        {
          "internalType": "string",
          "name": "",
          "type": "string"
        }
      ],
      "stateMutability": "view",
      "type": "function"
    },
    {
      "inputs": [],
      "name": "owner",
      "outputs": [
        {
          "internalType": "address",
          "name": "",
          "type": "address"
        }
      ],
      "stateMutability": "view",
      "type": "function"
    },
    {
      "inputs": [
        {
          "internalType": "uint256",
          "name": "tokenId",
          "type": "uint256"
        }
      ],
      "name": "ownerOf",
      "outputs": [
        {
          "internalType": "address",
          "name": "",
          "type": "address"
        }
      ],
      "stateMutability": "view",
      "type": "function"
    },
    {
      "inputs": [],
      "name": "renounceOwnership",
      "outputs": [],
      "stateMutability": "nonpayable",
      "type": "function"
    },
    {
      "inputs": [
        {
          "internalType": "address",
          "name": "from",
          "type": "address"
        },
        {
          "internalType": "address",
          "name": "to",
          "type": "address"
        },
        {
          "internalType": "uint256",
          "name": "tokenId",
          "type": "uint256"
        }
      ],
      "name": "safeTransferFrom",
      "outputs": [],
      "stateMutability": "nonpayable",
      "type": "function"
    },
    {
      "inputs": [
        {
          "internalType": "address",
          "name": "from",
          "type": "address"
        },
        {
          "internalType": "address",
          "name": "to",
          "type": "address"
        },
        {
          "internalType": "uint256",
          "name": "tokenId",
          "type": "uint256"
        },
        {
          "internalType": "bytes",
          "name": "data",
          "type": "bytes"
        }
      ],
      "name": "safeTransferFrom",
      "outputs": [],
      "stateMutability": "nonpayable",
      "type": "function"
    },
    {
      "inputs": [
        {
          "internalType": "address",
          "name": "operator",
          "type": "address"
        },
        {
          "internalType": "bool",
          "name": "approved",
          "type": "bool"
        }
      ],
      "name": "setApprovalForAll",
      "outputs": [],
      "stateMutability": "nonpayable",
      "type": "function"
    },
    {
      "inputs": [
        {
          "internalType": "bytes4",
          "name": "interfaceId",
          "type": "bytes4"
        }
      ],
      "name": "supportsInterface",
      "outputs": [
        {
          "internalType": "bool",
          "name": "",
          "type": "bool"
        }
      ],
      "stateMutability": "view",
      "type": "function"
    },
    {
      "inputs": [],
      "name": "symbol",
      "outputs": [
        {
          "internalType": "string",
          "name": "",
          "type": "string"
        }
      ],
      "stateMutability": "view",
      "type": "function"
    },
    {
      "inputs": [
        {
          "internalType": "uint256",
          "name": "tokenId",
          "type": "uint256"
        }
      ],
      "name": "tokenURI",
      "outputs": [
        {
          "internalType": "string",
          "name": "",
          "type": "string"
        }
      ],
      "stateMutability": "view",
      "type": "function"
    },
    {
      "inputs": [
        {
          "internalType": "address",
          "name": "from",
          "type": "address"
        },
        {
          "internalType": "address",
          "name": "to",
          "type": "address"
        },
        {
          "internalType": "uint256",
          "name": "tokenId",
          "type": "uint256"
        }
      ],
      "name": "transferFrom",
      "outputs": [],
      "stateMutability": "nonpayable",
      "type": "function"
    },
    {
      "inputs": [
        {
          "internalType": "address",
          "name": "newOwner",
          "type": "address"
        }
      ],
      "name": "transferOwnership",
      "outputs": [],
      "stateMutability": "nonpayable",
      "type": "function"
    },
    {
      "inputs": [],
      "name": "uri",
      "outputs": [
        {
          "internalType": "string",
          "name": "",
          "type": "string"
        }
      ],
      "stateMutability": "view",
      "type": "function"
    },
    {
      "inputs": [
        {
          "internalType": "address",
          "name": "",
          "type": "address"
        },
        {
          "internalType": "uint256",
          "name": "",
          "type": "uint256"
        }
      ],
      "name": "userNFTs",
      "outputs": [
        {
          "internalType": "uint256",
          "name": "",
          "type": "uint256"
        }
      ],
      "stateMutability": "view",
      "type": "function"
    },
    {
      "inputs": [
        {
          "internalType": "uint256",
          "name": "",
          "type": "uint256"
        }
      ],
      "name": "warriors",
      "outputs": [
        {
          "internalType": "uint256",
          "name": "tokenId",
          "type": "uint256"
        },
        {
          "internalType": "address",
          "name": "owner",
          "type": "address"
        },
        {
          "internalType": "uint256",
          "name": "mintPrice",
          "type": "uint256"
        },
        {
          "internalType": "uint256",
          "name": "mintedAt",
          "type": "uint256"
        },
        {
          "internalType": "bool",
          "name": "allocated",
          "type": "bool"
        }
      ],
      "stateMutability": "view",
      "type": "function"
    }
  ],
  "bytecode": "0x60e060405234801561000f575f5ffd5b50604051612a92380380612a9283398101604081905261002e916101c2565b3386865f61003c8382610304565b5060016100498282610304565b5050506001600160a01b03811661007957604051631e4fbdf760e01b81525f600482015260240160405180910390fd5b610082816100b9565b5060016008556001600160a01b0380851660c052828116608052831660a05260096100ad8282610304565b505050505050506103be565b600780546001600160a01b038381166001600160a01b0319831681179093556040519116919082907f8be0079c531659141344cd1fd0a4f28419497f9722a3daafe3b4186f6b6457e0905f90a35050565b634e487b7160e01b5f52604160045260245ffd5b5f82601f83011261012d575f5ffd5b81516001600160401b038111156101465761014661010a565b604051601f8201601f19908116603f011681016001600160401b03811182821017156101745761017461010a565b60405281815283820160200185101561018b575f5ffd5b8160208501602083015e5f918101602001919091529392505050565b80516001600160a01b03811681146101bd575f5ffd5b919050565b5f5f5f5f5f5f60c087890312156101d7575f5ffd5b86516001600160401b038111156101ec575f5ffd5b6101f889828a0161011e565b602089015190975090506001600160401b03811115610215575f5ffd5b61022189828a0161011e565b955050610230604088016101a7565b935061023e606088016101a7565b925061024c608088016101a7565b60a08801519092506001600160401b03811115610267575f5ffd5b61027389828a0161011e565b9150509295509295509295565b600181811c9082168061029457607f821691505b6020821081036102b257634e487b7160e01b5f52602260045260245ffd5b50919050565b601f8211156102ff57805f5260205f20601f840160051c810160208510156102dd5750805b601f840160051c820191505b818110156102fc575f81556001016102e9565b50505b505050565b81516001600160401b0381111561031d5761031d61010a565b6103318161032b8454610280565b846102b8565b6020601f821160018114610363575f831561034c5750848201515b5f19600385901b1c1916600184901b1784556102fc565b5f84815260208120601f198516915b828110156103925787850151825560209485019460019092019101610372565b50848210156103af57868401515f19600387901b60f8161c191681555b50505050600190811b01905550565b60805160a05160c05161266b6104275f395f818161030901528181610c0d01528181610d810152818161126d015281816117ca015261183601525f8181610392015281816108ae0152610c3e01525f8181610464015281816112990152611884015261266b5ff3fe608060405234801561000f575f5ffd5b50600436106101f1575f3560e01c8063715018a611610114578063c45a0155116100a9578063eac989f811610079578063eac989f8146104bf578063eb91d37e146104c7578063f2fde38b146104cf578063f696a428146104e2578063f86325ed146104f5575f5ffd5b8063c45a01551461045f578063c87b56dd14610486578063debc2f9214610499578063e985e9c5146104ac575f5ffd5b806395d89b41116100e457806395d89b4114610429578063a22cb46514610431578063b52ce8e614610444578063b88d4fde1461044c575f5ffd5b8063715018a6146103ea5780638da5cb5b146103f257806391386df31461040357806394de221914610416575f5ffd5b806323b872dd1161018a5780635153563b1161015a5780635153563b1461038d5780636352211e146103b45780636d25d802146103c757806370a08231146103d7575f5ffd5b806323b872dd14610334578063291c73c3146103475780632eb374061461035a57806342842e0e1461037a575f5ffd5b8063095ea7b3116101c5578063095ea7b3146102745780631a170712146102895780631b74c9e3146103045780631df0cd131461032b575f5ffd5b80629a9b7b146101f557806301ffc9a71461021157806306fdde0314610234578063081812fc14610249575b5f5ffd5b6101fe600a5481565b6040519081526020015b60405180910390f35b61022461021f36600461206d565b610506565b6040519015158152602001610208565b61023c610530565b60405161020891906120b6565b61025c6102573660046120c8565b6105bf565b6040516001600160a01b039091168152602001610208565b6102876102823660046120fa565b6105e6565b005b6102d26102973660046120c8565b600b6020525f90815260409020805460018201546002830154600384015460049094015492936001600160a01b039092169290919060ff1685565b604080519586526001600160a01b0390941660208601529284019190915260608301521515608082015260a001610208565b61025c7f000000000000000000000000000000000000000000000000000000000000000081565b6101fe61271081565b610287610342366004612122565b6105f5565b6101fe6103553660046120fa565b610683565b61036d61036836600461215c565b6106ae565b6040516102089190612175565b610287610388366004612122565b610822565b61025c7f000000000000000000000000000000000000000000000000000000000000000081565b61025c6103c23660046120c8565b610841565b6101fe68056bc75e2d6310000081565b6101fe6103e536600461215c565b61084b565b610287610890565b6007546001600160a01b031661025c565b6102876104113660046121ac565b6108a3565b6102876104243660046120c8565b610b08565b61023c610d33565b61028761043f36600461223a565b610d42565b6101fe610d4d565b61028761045a366004612283565b610fd7565b61025c7f000000000000000000000000000000000000000000000000000000000000000081565b61023c6104943660046120c8565b610fef565b6102246104a736600461215c565b6110fa565b6102246104ba366004612360565b61119d565b61023c6111ca565b6101fe611256565b6102876104dd36600461215c565b611342565b61036d6104f03660046120fa565b61137f565b6101fe69010f0cf064dd5920000081565b5f6001600160e01b03198216632483248360e11b148061052a575061052a8261151d565b92915050565b60605f805461053e90612391565b80601f016020809104026020016040519081016040528092919081815260200182805461056a90612391565b80156105b55780601f1061058c576101008083540402835291602001916105b5565b820191905f5260205f20905b81548152906001019060200180831161059857829003601f168201915b5050505050905090565b5f6105c98261156c565b505f828152600460205260409020546001600160a01b031661052a565b6105f18282336115a4565b5050565b6001600160a01b03821661062357604051633250574960e11b81525f60048201526024015b60405180910390fd5b5f61062f8383336115b1565b9050836001600160a01b0316816001600160a01b03161461067d576040516364283d7b60e01b81526001600160a01b038086166004830152602482018490528216604482015260640161061a565b50505050565b600c602052815f5260405f20818154811061069c575f80fd5b905f5260205f20015f91509150505481565b6001600160a01b0381165f908152600c6020908152604080832080548251818502810185019093528083526060949383018282801561070a57602002820191905f5260205f20905b8154815260200190600101908083116106f6575b509394505f935083925050505b825181101561075d57610742838281518110610735576107356123c9565b602002602001015161164a565b156107555781610751816123f1565b9250505b600101610717565b505f8167ffffffffffffffff8111156107785761077861226f565b6040519080825280602002602001820160405280156107a1578160200160208202803683370190505b5090505f805b8451811015610817576107c5858281518110610735576107356123c9565b1561080f578481815181106107dc576107dc6123c9565b60200260200101518383815181106107f6576107f66123c9565b60209081029190910101528161080b816123f1565b9250505b6001016107a7565b509095945050505050565b61083c83838360405180602001604052805f815250610fd7565b505050565b5f61052a8261156c565b5f6001600160a01b038216610875576040516322718ad960e21b81525f600482015260240161061a565b506001600160a01b03165f9081526003602052604090205490565b61089861165e565b6108a15f61168b565b565b336001600160a01b037f000000000000000000000000000000000000000000000000000000000000000016146109125760405162461bcd60e51b815260206004820152601460248201527313db9b1e4818985d1d1b194818dbdb9d1c9858dd60621b604482015260640161061a565b5f5b8181101561067d5761093d838383818110610931576109316123c9565b9050602002013561164a565b61097e5760405162461bcd60e51b815260206004820152601260248201527113919508191bd95cc81b9bdd08195e1a5cdd60721b604482015260640161061a565b600b5f848484818110610993576109936123c9565b602090810292909201358352508101919091526040015f206004015460ff16156109f75760405162461bcd60e51b815260206004820152601560248201527413919508185b1c9958591e48185b1b1bd8d85d1959605a1b604482015260640161061a565b5f610a19848484818110610a0d57610a0d6123c9565b90506020020135610841565b9050846001600160a01b0316816001600160a01b031614610a6c5760405162461bcd60e51b815260206004820152600d60248201526c2737ba103a34329037bbb732b960991b604482015260640161061a565b6001600b5f868686818110610a8357610a836123c9565b9050602002013581526020019081526020015f206004015f6101000a81548160ff021916908315150217905550806001600160a01b0316848484818110610acc57610acc6123c9565b905060200201357fced437231aa98bcedae3308779b046af7bc82d93f3e58a096dc847c95b13af8060405160405180910390a350600101610914565b610b118161164a565b610b525760405162461bcd60e51b815260206004820152601260248201527113919508191bd95cc81b9bdd08195e1a5cdd60721b604482015260640161061a565b33610b5c82610841565b6001600160a01b031614610ba25760405162461bcd60e51b815260206004820152600d60248201526c2737ba103a34329037bbb732b960991b604482015260640161061a565b5f818152600b602052604090206004015460ff16610bf65760405162461bcd60e51b8152602060048201526011602482015270139195081b9bdd08185b1b1bd8d85d1959607a1b604482015260640161061a565b604051635b6804b560e01b81526001600160a01b037f000000000000000000000000000000000000000000000000000000000000000081166004830152602482018390525f917f000000000000000000000000000000000000000000000000000000000000000090911690635b6804b5906044016040805180830381865afa158015610c84573d5f5f3e3d5ffd5b505050506040513d601f19601f82011682018060405250810190610ca89190612409565b91505080610ced5760405162461bcd60e51b81526020600482015260126024820152714e4654206e6f742072657475726e61626c6560701b604482015260640161061a565b5f828152600b6020526040808220600401805460ff1916905551339184917f7eca0018813579d62e1aa0322810239e3618dc43bf46040d9405855e18896f5a9190a35050565b60606001805461053e90612391565b6105f13383836116dc565b5f610d5661177a565b5f610d5f611256565b6040516370a0823160e01b815233600482015290915081906001600160a01b037f000000000000000000000000000000000000000000000000000000000000000016906370a0823190602401602060405180830381865afa158015610dc6573d5f5f3e3d5ffd5b505050506040513d601f19601f82011682018060405250810190610dea919061242d565b1015610e385760405162461bcd60e51b815260206004820152601860248201527f496e73756666696369656e74204d454d4520746f6b656e730000000000000000604482015260640161061a565b610e4233826117a4565b600a8054905f610e51836123f1565b9091555050600a54610e63338261190a565b610ef58160098054610e7490612391565b80601f0160208091040260200160405190810160405280929190818152602001828054610ea090612391565b8015610eeb5780601f10610ec257610100808354040283529160200191610eeb565b820191905f5260205f20905b815481529060010190602001808311610ece57829003601f168201915b5050505050611923565b6040805160a08101825282815233602080830182815283850187815242606086019081525f60808701818152898252600b8652888220975188559351600180890180546001600160a01b0319166001600160a01b0390931692909217909155925160028801559051600387015591516004909501805460ff191695151595909517909455828152600c8252848120805494850181558152819020909201849055915184815283917f972b595ca48df89bdf5d8ed153814654b794988833678cd40cb375ff28bd87e4910160405180910390a3915050610fd46001600855565b90565b610fe28484846105f5565b61067d338585858561196b565b6060610ffa8261156c565b505f828152600660205260408120805461101390612391565b80601f016020809104026020016040519081016040528092919081815260200182805461103f90612391565b801561108a5780601f106110615761010080835404028352916020019161108a565b820191905f5260205f20905b81548152906001019060200180831161106d57829003601f168201915b505050505090505f6110a660408051602081019091525f815290565b905080515f036110b7575092915050565b8151156110e95780826040516020016110d192919061245b565b60405160208183030381529060405292505050919050565b6110f284611a93565b949350505050565b6001600160a01b0381165f908152600c602090815260408083208054825181850281018501909352808352849383018282801561115457602002820191905f5260205f20905b815481526020019060010190808311611140575b509394505f93505050505b81518110156111945761117d828281518110610735576107356123c9565b1561118c575060019392505050565b60010161115f565b505f9392505050565b6001600160a01b039182165f90815260056020908152604080832093909416825291909152205460ff1690565b600980546111d790612391565b80601f016020809104026020016040519081016040528092919081815260200182805461120390612391565b801561124e5780601f106112255761010080835404028352916020019161124e565b820191905f5260205f20905b81548152906001019060200180831161123157829003601f168201915b505050505081565b60405163060da6a160e31b81526001600160a01b037f0000000000000000000000000000000000000000000000000000000000000000811660048301525f9182917f0000000000000000000000000000000000000000000000000000000000000000169063306d350890602401602060405180830381865afa1580156112de573d5f5f3e3d5ffd5b505050506040513d601f19601f82011682018060405250810190611302919061242d565b90505f68056bc75e2d6310000061131b6127108461246f565b611325919061248e565b905061133b8169010f0cf064dd592000006124a5565b9250505090565b61134a61165e565b6001600160a01b03811661137357604051631e4fbdf760e01b81525f600482015260240161061a565b61137c8161168b565b50565b6001600160a01b0382165f908152600c602090815260408083208054825181850281018501909352808352606094938301828280156113db57602002820191905f5260205f20905b8154815260200190600101908083116113c7575b509394505f935083925050505b825181101561143c5784600b5f858481518110611407576114076123c9565b602002602001015181526020019081526020015f206003015410156114345781611430816123f1565b9250505b6001016113e8565b505f8167ffffffffffffffff8111156114575761145761226f565b604051908082528060200260200182016040528015611480578160200160208202803683370190505b5090505f805b84518110156115115786600b5f8784815181106114a5576114a56123c9565b602002602001015181526020019081526020015f20600301541015611509578481815181106114d6576114d66123c9565b60200260200101518383806114ea906123f1565b9450815181106114fc576114fc6123c9565b6020026020010181815250505b600101611486565b50909695505050505050565b5f6001600160e01b031982166380ac58cd60e01b148061154d57506001600160e01b03198216635b5e139f60e01b145b8061052a57506301ffc9a760e01b6001600160e01b031983161461052a565b5f818152600260205260408120546001600160a01b03168061052a57604051637e27328960e01b81526004810184905260240161061a565b61083c8383836001611b04565b5f5f6115be858585611c08565b90506001600160a01b038116158015906115e057506001600160a01b03851615155b156110f2575f848152600b6020526040902060010180546001600160a01b0319166001600160a01b0387161790556116188185611cfa565b6001600160a01b0385165f908152600c6020908152604082208054600181018255908352912001849055949350505050565b5f5f8211801561052a575050600a54101590565b6007546001600160a01b031633146108a15760405163118cdaa760e01b815233600482015260240161061a565b600780546001600160a01b038381166001600160a01b0319831681179093556040519116919082907f8be0079c531659141344cd1fd0a4f28419497f9722a3daafe3b4186f6b6457e0905f90a35050565b6001600160a01b03821661170e57604051630b61174360e31b81526001600160a01b038316600482015260240161061a565b6001600160a01b038381165f81815260056020908152604080832094871680845294825291829020805460ff191686151590811790915591519182527f17307eab39ab6107e8899845ad3d59bd9653f200f220920489ca2b5937696c31910160405180910390a3505050565b60026008540361179d57604051633ee5aeb560e01b815260040160405180910390fd5b6002600855565b60405163079cc67960e41b81526001600160a01b038381166004830152602482018390527f000000000000000000000000000000000000000000000000000000000000000016906379cc6790906044015f604051808303815f87803b15801561180b575f5ffd5b505af115801561181d573d5f5f3e3d5ffd5b505060405163060da6a160e31b81526001600160a01b037f0000000000000000000000000000000000000000000000000000000000000000811660048301527f8bc81353cf6671d259d22783e39ed930583c86f3f4cf7e981298e6a872dfb15d93508492507f0000000000000000000000000000000000000000000000000000000000000000169063306d350890602401602060405180830381865afa1580156118c9573d5f5f3e3d5ffd5b505050506040513d601f19601f820116820180604052508101906118ed919061242d565b604080519283526020830191909152015b60405180910390a15050565b6105f1828260405180602001604052805f815250611db4565b5f82815260066020526040902061193a82826124fc565b506040518281527ff8e1a15aba9398e019f0b49df1a4fde98ee17ae345cb5f6b5e2c27f5033e8ce7906020016118fe565b6001600160a01b0383163b15611a8c57604051630a85bd0160e11b81526001600160a01b0384169063150b7a02906119ad9088908890879087906004016125b7565b6020604051808303815f875af19250505080156119e7575060408051601f3d908101601f191682019092526119e4918101906125f3565b60015b611a4e573d808015611a14576040519150601f19603f3d011682016040523d82523d5f602084013e611a19565b606091505b5080515f03611a4657604051633250574960e11b81526001600160a01b038516600482015260240161061a565b805160208201fd5b6001600160e01b03198116630a85bd0160e11b14611a8a57604051633250574960e11b81526001600160a01b038516600482015260240161061a565b505b5050505050565b6060611a9e8261156c565b505f611ab460408051602081019091525f815290565b90505f815111611ad25760405180602001604052805f815250611afd565b80611adc84611dcb565b604051602001611aed92919061245b565b6040516020818303038152906040525b9392505050565b8080611b1857506001600160a01b03821615155b15611bd9575f611b278461156c565b90506001600160a01b03831615801590611b535750826001600160a01b0316816001600160a01b031614155b8015611b665750611b64818461119d565b155b15611b8f5760405163a9fbf51f60e01b81526001600160a01b038416600482015260240161061a565b8115611bd75783856001600160a01b0316826001600160a01b03167f8c5be1e5ebec7d5bd14f71427d1e84f3dd0314c0f7b2291e5b200ac8c7c3b92560405160405180910390a45b505b50505f90815260046020526040902080546001600160a01b0319166001600160a01b0392909216919091179055565b5f828152600260205260408120546001600160a01b0390811690831615611c3457611c34818486611e5b565b6001600160a01b03811615611c6e57611c4f5f855f5f611b04565b6001600160a01b0381165f90815260036020526040902080545f190190555b6001600160a01b03851615611c9c576001600160a01b0385165f908152600360205260409020805460010190555b5f8481526002602052604080822080546001600160a01b0319166001600160a01b0389811691821790925591518793918516917fddf252ad1be2c89b69c2b068fc378daa952ba7f163c4a11628f55a4df523b3ef91a4949350505050565b6001600160a01b0382165f908152600c60205260408120905b815481101561067d5782828281548110611d2f57611d2f6123c9565b905f5260205f20015403611dac5781548290611d4d9060019061260e565b81548110611d5d57611d5d6123c9565b905f5260205f200154828281548110611d7857611d786123c9565b905f5260205f20018190555081805480611d9457611d94612621565b600190038181905f5260205f20015f9055905561067d565b600101611d13565b611dbe8383611ebf565b61083c335f85858561196b565b60605f611dd783611f20565b60010190505f8167ffffffffffffffff811115611df657611df661226f565b6040519080825280601f01601f191660200182016040528015611e20576020820181803683370190505b5090508181016020015b5f19016f181899199a1a9b1b9c1cb0b131b232b360811b600a86061a8153600a8504945084611e2a57509392505050565b611e66838383611ff7565b61083c576001600160a01b038316611e9457604051637e27328960e01b81526004810182905260240161061a565b60405163177e802f60e01b81526001600160a01b03831660048201526024810182905260440161061a565b6001600160a01b038216611ee857604051633250574960e11b81525f600482015260240161061a565b5f611ef483835f6115b1565b90506001600160a01b0381161561083c576040516339e3563760e11b81525f600482015260240161061a565b5f8072184f03e93ff9f4daa797ed6e38ed64bf6a1f0160401b8310611f5e5772184f03e93ff9f4daa797ed6e38ed64bf6a1f0160401b830492506040015b6d04ee2d6d415b85acef81000000008310611f8a576d04ee2d6d415b85acef8100000000830492506020015b662386f26fc100008310611fa857662386f26fc10000830492506010015b6305f5e1008310611fc0576305f5e100830492506008015b6127108310611fd457612710830492506004015b60648310611fe6576064830492506002015b600a831061052a5760010192915050565b5f6001600160a01b038316158015906110f25750826001600160a01b0316846001600160a01b031614806120305750612030848461119d565b806110f25750505f908152600460205260409020546001600160a01b03908116911614919050565b6001600160e01b03198116811461137c575f5ffd5b5f6020828403121561207d575f5ffd5b8135611afd81612058565b5f81518084528060208401602086015e5f602082860101526020601f19601f83011685010191505092915050565b602081525f611afd6020830184612088565b5f602082840312156120d8575f5ffd5b5035919050565b80356001600160a01b03811681146120f5575f5ffd5b919050565b5f5f6040838503121561210b575f5ffd5b612114836120df565b946020939093013593505050565b5f5f5f60608486031215612134575f5ffd5b61213d846120df565b925061214b602085016120df565b929592945050506040919091013590565b5f6020828403121561216c575f5ffd5b611afd826120df565b602080825282518282018190525f918401906040840190835b8181101561081757835183526020938401939092019160010161218e565b5f5f5f604084860312156121be575f5ffd5b6121c7846120df565b9250602084013567ffffffffffffffff8111156121e2575f5ffd5b8401601f810186136121f2575f5ffd5b803567ffffffffffffffff811115612208575f5ffd5b8660208260051b840101111561221c575f5ffd5b939660209190910195509293505050565b801515811461137c575f5ffd5b5f5f6040838503121561224b575f5ffd5b612254836120df565b915060208301356122648161222d565b809150509250929050565b634e487b7160e01b5f52604160045260245ffd5b5f5f5f5f60808587031215612296575f5ffd5b61229f856120df565b93506122ad602086016120df565b925060408501359150606085013567ffffffffffffffff8111156122cf575f5ffd5b8501601f810187136122df575f5ffd5b803567ffffffffffffffff8111156122f9576122f961226f565b604051601f8201601f19908116603f0116810167ffffffffffffffff811182821017156123285761232861226f565b60405281815282820160200189101561233f575f5ffd5b816020840160208301375f6020838301015280935050505092959194509250565b5f5f60408385031215612371575f5ffd5b61237a836120df565b9150612388602084016120df565b90509250929050565b600181811c908216806123a557607f821691505b6020821081036123c357634e487b7160e01b5f52602260045260245ffd5b50919050565b634e487b7160e01b5f52603260045260245ffd5b634e487b7160e01b5f52601160045260245ffd5b5f60018201612402576124026123dd565b5060010190565b5f5f6040838503121561241a575f5ffd5b825160208401519092506122648161222d565b5f6020828403121561243d575f5ffd5b5051919050565b5f81518060208401855e5f93019283525090919050565b5f6110f26124698386612444565b84612444565b5f8261248957634e487b7160e01b5f52601260045260245ffd5b500490565b808202811582820484141761052a5761052a6123dd565b8082018082111561052a5761052a6123dd565b601f82111561083c57805f5260205f20601f840160051c810160208510156124dd5750805b601f840160051c820191505b81811015611a8c575f81556001016124e9565b815167ffffffffffffffff8111156125165761251661226f565b61252a816125248454612391565b846124b8565b6020601f82116001811461255c575f83156125455750848201515b5f19600385901b1c1916600184901b178455611a8c565b5f84815260208120601f198516915b8281101561258b578785015182556020948501946001909201910161256b565b50848210156125a857868401515f19600387901b60f8161c191681555b50505050600190811b01905550565b6001600160a01b03858116825284166020820152604081018390526080606082018190525f906125e990830184612088565b9695505050505050565b5f60208284031215612603575f5ffd5b8151611afd81612058565b8181038181111561052a5761052a6123dd565b634e487b7160e01b5f52603160045260245ffdfea264697066735822122020b63cec22b5e04484fcf7001cb15e2820976b699698da29ce8b583b31ad3a5164736f6c634300081c0033",
  "linkReferences": {},
  "deployedLinkReferences": {},
  "immutableReferences": {
    "8613": [
      {
        "length": 32,
        "start": 1124
      },
      {
        "length": 32,
        "start": 4761
      },
      {
        "length": 32,
        "start": 6276
      }
    ],
    "8616": [
      {
        "length": 32,
        "start": 914
      },
      {
        "length": 32,
        "start": 2222
      },
      {
        "length": 32,
        "start": 3134
      }
    ],
    "8618": [
      {
        "length": 32,
        "start": 777
      },
      {
        "length": 32,
        "start": 3085
      },
      {
        "length": 32,
        "start": 3457
      },
      {
        "length": 32,
        "start": 4717
      },
      {
        "length": 32,
        "start": 6090
      },
      {
        "length": 32,
        "start": 6198
      }
    ]
  },
  "inputSourceName": "project/contracts/MemedWarriorNFT.sol",
  "buildInfoId": "solc-0_8_28-e41e00683d0bfad3d1e78b25ad5bb153cd0ca852"
}