{
  "_format": "hh3-artifact-1",
  "contractName": "MemedWarriorNFT",
  "sourceName": "contracts/MemedWarriorNFT.sol",
  "abi": [
    {
      "inputs": [
        {
          "internalType": "address",
          "name": "_memedToken",
          "type": "address"
        },
        {
          "internalType": "address",
          "name": "_memedBattle",
          "type": "address"
        },
        {
          "internalType": "address",
          "name": "_factory",
          "type": "address"
        }
      ],
      "stateMutability": "nonpayable",
      "type": "constructor"
    },
    {
      "inputs": [
        {
          "internalType": "address",
          "name": "sender",
          "type": "address"
        },
        {
          "internalType": "uint256",
          "name": "tokenId",
          "type": "uint256"
        },
        {
          "internalType": "address",
          "name": "owner",
          "type": "address"
        }
      ],
      "name": "ERC721IncorrectOwner",
      "type": "error"
    },
    {
      "inputs": [
        {
          "internalType": "address",
          "name": "operator",
          "type": "address"
        },
        {
          "internalType": "uint256",
          "name": "tokenId",
          "type": "uint256"
        }
      ],
      "name": "ERC721InsufficientApproval",
      "type": "error"
    },
    {
      "inputs": [
        {
          "internalType": "address",
          "name": "approver",
          "type": "address"
        }
      ],
      "name": "ERC721InvalidApprover",
      "type": "error"
    },
    {
      "inputs": [
        {
          "internalType": "address",
          "name": "operator",
          "type": "address"
        }
      ],
      "name": "ERC721InvalidOperator",
      "type": "error"
    },
    {
      "inputs": [
        {
          "internalType": "address",
          "name": "owner",
          "type": "address"
        }
      ],
      "name": "ERC721InvalidOwner",
      "type": "error"
    },
    {
      "inputs": [
        {
          "internalType": "address",
          "name": "receiver",
          "type": "address"
        }
      ],
      "name": "ERC721InvalidReceiver",
      "type": "error"
    },
    {
      "inputs": [
        {
          "internalType": "address",
          "name": "sender",
          "type": "address"
        }
      ],
      "name": "ERC721InvalidSender",
      "type": "error"
    },
    {
      "inputs": [
        {
          "internalType": "uint256",
          "name": "tokenId",
          "type": "uint256"
        }
      ],
      "name": "ERC721NonexistentToken",
      "type": "error"
    },
    {
      "inputs": [
        {
          "internalType": "address",
          "name": "owner",
          "type": "address"
        }
      ],
      "name": "OwnableInvalidOwner",
      "type": "error"
    },
    {
      "inputs": [
        {
          "internalType": "address",
          "name": "account",
          "type": "address"
        }
      ],
      "name": "OwnableUnauthorizedAccount",
      "type": "error"
    },
    {
      "inputs": [],
      "name": "ReentrancyGuardReentrantCall",
      "type": "error"
    },
    {
      "anonymous": false,
      "inputs": [
        {
          "indexed": true,
          "internalType": "address",
          "name": "owner",
          "type": "address"
        },
        {
          "indexed": true,
          "internalType": "address",
          "name": "approved",
          "type": "address"
        },
        {
          "indexed": true,
          "internalType": "uint256",
          "name": "tokenId",
          "type": "uint256"
        }
      ],
      "name": "Approval",
      "type": "event"
    },
    {
      "anonymous": false,
      "inputs": [
        {
          "indexed": true,
          "internalType": "address",
          "name": "owner",
          "type": "address"
        },
        {
          "indexed": true,
          "internalType": "address",
          "name": "operator",
          "type": "address"
        },
        {
          "indexed": false,
          "internalType": "bool",
          "name": "approved",
          "type": "bool"
        }
      ],
      "name": "ApprovalForAll",
      "type": "event"
    },
    {
      "anonymous": false,
      "inputs": [
        {
          "indexed": true,
          "internalType": "address",
          "name": "previousOwner",
          "type": "address"
        },
        {
          "indexed": true,
          "internalType": "address",
          "name": "newOwner",
          "type": "address"
        }
      ],
      "name": "OwnershipTransferred",
      "type": "event"
    },
    {
      "anonymous": false,
      "inputs": [
        {
          "indexed": false,
          "internalType": "uint256",
          "name": "amount",
          "type": "uint256"
        },
        {
          "indexed": false,
          "internalType": "uint256",
          "name": "totalPlatformHeat",
          "type": "uint256"
        }
      ],
      "name": "TokensBurned",
      "type": "event"
    },
    {
      "anonymous": false,
      "inputs": [
        {
          "indexed": true,
          "internalType": "address",
          "name": "from",
          "type": "address"
        },
        {
          "indexed": true,
          "internalType": "address",
          "name": "to",
          "type": "address"
        },
        {
          "indexed": true,
          "internalType": "uint256",
          "name": "tokenId",
          "type": "uint256"
        }
      ],
      "name": "Transfer",
      "type": "event"
    },
    {
      "anonymous": false,
      "inputs": [
        {
          "indexed": true,
          "internalType": "uint256",
          "name": "tokenId",
          "type": "uint256"
        },
        {
          "indexed": true,
          "internalType": "address",
          "name": "owner",
          "type": "address"
        }
      ],
      "name": "WarriorAllocated",
      "type": "event"
    },
    {
      "anonymous": false,
      "inputs": [
        {
          "indexed": true,
          "internalType": "uint256",
          "name": "tokenId",
          "type": "uint256"
        },
        {
          "indexed": true,
          "internalType": "address",
          "name": "owner",
          "type": "address"
        }
      ],
      "name": "WarriorGetBack",
      "type": "event"
    },
    {
      "anonymous": false,
      "inputs": [
        {
          "indexed": true,
          "internalType": "uint256",
          "name": "tokenId",
          "type": "uint256"
        },
        {
          "indexed": true,
          "internalType": "address",
          "name": "owner",
          "type": "address"
        },
        {
          "indexed": false,
          "internalType": "uint256",
          "name": "price",
          "type": "uint256"
        }
      ],
      "name": "WarriorMinted",
      "type": "event"
    },
    {
      "inputs": [],
      "name": "BASE_PRICE",
      "outputs": [
        {
          "internalType": "uint256",
          "name": "",
          "type": "uint256"
        }
      ],
      "stateMutability": "view",
      "type": "function"
    },
    {
      "inputs": [],
      "name": "HEAT_THRESHOLD",
      "outputs": [
        {
          "internalType": "uint256",
          "name": "",
          "type": "uint256"
        }
      ],
      "stateMutability": "view",
      "type": "function"
    },
    {
      "inputs": [],
      "name": "PRICE_INCREMENT",
      "outputs": [
        {
          "internalType": "uint256",
          "name": "",
          "type": "uint256"
        }
      ],
      "stateMutability": "view",
      "type": "function"
    },
    {
      "inputs": [
        {
          "internalType": "uint128",
          "name": "_battleId",
          "type": "uint128"
        },
        {
          "internalType": "address",
          "name": "_user",
          "type": "address"
        },
        {
          "internalType": "address",
          "name": "_supportedMeme",
          "type": "address"
        },
        {
          "internalType": "uint256[]",
          "name": "_nftsIds",
          "type": "uint256[]"
        }
      ],
      "name": "allocateNFTsToBattle",
      "outputs": [],
      "stateMutability": "nonpayable",
      "type": "function"
    },
    {
      "inputs": [
        {
          "internalType": "address",
          "name": "to",
          "type": "address"
        },
        {
          "internalType": "uint256",
          "name": "tokenId",
          "type": "uint256"
        }
      ],
      "name": "approve",
      "outputs": [],
      "stateMutability": "nonpayable",
      "type": "function"
    },
    {
      "inputs": [
        {
          "internalType": "address",
          "name": "owner",
          "type": "address"
        }
      ],
      "name": "balanceOf",
      "outputs": [
        {
          "internalType": "uint256",
          "name": "",
          "type": "uint256"
        }
      ],
      "stateMutability": "view",
      "type": "function"
    },
    {
      "inputs": [],
      "name": "currentTokenId",
      "outputs": [
        {
          "internalType": "uint256",
          "name": "",
          "type": "uint256"
        }
      ],
      "stateMutability": "view",
      "type": "function"
    },
    {
      "inputs": [],
      "name": "factory",
      "outputs": [
        {
          "internalType": "contract IMemedFactory",
          "name": "",
          "type": "address"
        }
      ],
      "stateMutability": "view",
      "type": "function"
    },
    {
      "inputs": [
        {
          "internalType": "uint256",
          "name": "tokenId",
          "type": "uint256"
        }
      ],
      "name": "getApproved",
      "outputs": [
        {
          "internalType": "address",
          "name": "",
          "type": "address"
        }
      ],
      "stateMutability": "view",
      "type": "function"
    },
    {
      "inputs": [
        {
          "internalType": "uint256",
          "name": "_battleId",
          "type": "uint256"
        }
      ],
      "name": "getBackWarrior",
      "outputs": [],
      "stateMutability": "nonpayable",
      "type": "function"
    },
    {
      "inputs": [],
      "name": "getCurrentPrice",
      "outputs": [
        {
          "internalType": "uint256",
          "name": "",
          "type": "uint256"
        }
      ],
      "stateMutability": "view",
      "type": "function"
    },
    {
      "inputs": [
        {
          "internalType": "address",
          "name": "_user",
          "type": "address"
        }
      ],
      "name": "getUserActiveNFTs",
      "outputs": [
        {
          "internalType": "uint256[]",
          "name": "",
          "type": "uint256[]"
        }
      ],
      "stateMutability": "view",
      "type": "function"
    },
    {
      "inputs": [
        {
          "internalType": "address",
          "name": "_user",
          "type": "address"
        },
        {
          "internalType": "uint256",
          "name": "_timestamp",
          "type": "uint256"
        }
      ],
      "name": "getWarriorMintedBeforeByUser",
      "outputs": [
        {
          "internalType": "uint256",
          "name": "",
          "type": "uint256"
        }
      ],
      "stateMutability": "view",
      "type": "function"
    },
    {
      "inputs": [
        {
          "internalType": "address",
          "name": "_user",
          "type": "address"
        }
      ],
      "name": "hasActiveWarrior",
      "outputs": [
        {
          "internalType": "bool",
          "name": "",
          "type": "bool"
        }
      ],
      "stateMutability": "view",
      "type": "function"
    },
    {
      "inputs": [
        {
          "internalType": "address",
          "name": "owner",
          "type": "address"
        },
        {
          "internalType": "address",
          "name": "operator",
          "type": "address"
        }
      ],
      "name": "isApprovedForAll",
      "outputs": [
        {
          "internalType": "bool",
          "name": "",
          "type": "bool"
        }
      ],
      "stateMutability": "view",
      "type": "function"
    },
    {
      "inputs": [],
      "name": "memedBattle",
      "outputs": [
        {
          "internalType": "contract IMemedBattle",
          "name": "",
          "type": "address"
        }
      ],
      "stateMutability": "view",
      "type": "function"
    },
    {
      "inputs": [],
      "name": "memedToken",
      "outputs": [
        {
          "internalType": "address",
          "name": "",
          "type": "address"
        }
      ],
      "stateMutability": "view",
      "type": "function"
    },
    {
      "inputs": [],
      "name": "mintWarrior",
      "outputs": [
        {
          "internalType": "uint256",
          "name": "",
          "type": "uint256"
        }
      ],
      "stateMutability": "nonpayable",
      "type": "function"
    },
    {
      "inputs": [],
      "name": "name",
      "outputs": [
        {
          "internalType": "string",
          "name": "",
          "type": "string"
        }
      ],
      "stateMutability": "view",
      "type": "function"
    },
    {
      "inputs": [],
      "name": "owner",
      "outputs": [
        {
          "internalType": "address",
          "name": "",
          "type": "address"
        }
      ],
      "stateMutability": "view",
      "type": "function"
    },
    {
      "inputs": [
        {
          "internalType": "uint256",
          "name": "tokenId",
          "type": "uint256"
        }
      ],
      "name": "ownerOf",
      "outputs": [
        {
          "internalType": "address",
          "name": "",
          "type": "address"
        }
      ],
      "stateMutability": "view",
      "type": "function"
    },
    {
      "inputs": [],
      "name": "renounceOwnership",
      "outputs": [],
      "stateMutability": "nonpayable",
      "type": "function"
    },
    {
      "inputs": [
        {
          "internalType": "address",
          "name": "from",
          "type": "address"
        },
        {
          "internalType": "address",
          "name": "to",
          "type": "address"
        },
        {
          "internalType": "uint256",
          "name": "tokenId",
          "type": "uint256"
        }
      ],
      "name": "safeTransferFrom",
      "outputs": [],
      "stateMutability": "nonpayable",
      "type": "function"
    },
    {
      "inputs": [
        {
          "internalType": "address",
          "name": "from",
          "type": "address"
        },
        {
          "internalType": "address",
          "name": "to",
          "type": "address"
        },
        {
          "internalType": "uint256",
          "name": "tokenId",
          "type": "uint256"
        },
        {
          "internalType": "bytes",
          "name": "data",
          "type": "bytes"
        }
      ],
      "name": "safeTransferFrom",
      "outputs": [],
      "stateMutability": "nonpayable",
      "type": "function"
    },
    {
      "inputs": [
        {
          "internalType": "address",
          "name": "operator",
          "type": "address"
        },
        {
          "internalType": "bool",
          "name": "approved",
          "type": "bool"
        }
      ],
      "name": "setApprovalForAll",
      "outputs": [],
      "stateMutability": "nonpayable",
      "type": "function"
    },
    {
      "inputs": [
        {
          "internalType": "bytes4",
          "name": "interfaceId",
          "type": "bytes4"
        }
      ],
      "name": "supportsInterface",
      "outputs": [
        {
          "internalType": "bool",
          "name": "",
          "type": "bool"
        }
      ],
      "stateMutability": "view",
      "type": "function"
    },
    {
      "inputs": [],
      "name": "symbol",
      "outputs": [
        {
          "internalType": "string",
          "name": "",
          "type": "string"
        }
      ],
      "stateMutability": "view",
      "type": "function"
    },
    {
      "inputs": [
        {
          "internalType": "uint256",
          "name": "tokenId",
          "type": "uint256"
        }
      ],
      "name": "tokenURI",
      "outputs": [
        {
          "internalType": "string",
          "name": "",
          "type": "string"
        }
      ],
      "stateMutability": "view",
      "type": "function"
    },
    {
      "inputs": [
        {
          "internalType": "address",
          "name": "from",
          "type": "address"
        },
        {
          "internalType": "address",
          "name": "to",
          "type": "address"
        },
        {
          "internalType": "uint256",
          "name": "tokenId",
          "type": "uint256"
        }
      ],
      "name": "transferFrom",
      "outputs": [],
      "stateMutability": "nonpayable",
      "type": "function"
    },
    {
      "inputs": [
        {
          "internalType": "address",
          "name": "newOwner",
          "type": "address"
        }
      ],
      "name": "transferOwnership",
      "outputs": [],
      "stateMutability": "nonpayable",
      "type": "function"
    },
    {
      "inputs": [
        {
          "internalType": "address",
          "name": "",
          "type": "address"
        },
        {
          "internalType": "uint256",
          "name": "",
          "type": "uint256"
        }
      ],
      "name": "userNFTs",
      "outputs": [
        {
          "internalType": "uint256",
          "name": "",
          "type": "uint256"
        }
      ],
      "stateMutability": "view",
      "type": "function"
    },
    {
      "inputs": [
        {
          "internalType": "uint256",
          "name": "",
          "type": "uint256"
        }
      ],
      "name": "warriors",
      "outputs": [
        {
          "internalType": "uint256",
          "name": "tokenId",
          "type": "uint256"
        },
        {
          "internalType": "address",
          "name": "owner",
          "type": "address"
        },
        {
          "internalType": "uint256",
          "name": "mintPrice",
          "type": "uint256"
        },
        {
          "internalType": "uint256",
          "name": "mintedAt",
          "type": "uint256"
        },
        {
          "internalType": "bool",
          "name": "allocated",
          "type": "bool"
        }
      ],
      "stateMutability": "view",
      "type": "function"
    }
  ],
  "bytecode": "0x60e060405234801561000f575f5ffd5b506040516148ab3803806148ab8339818101604052810190610031919061030c565b336040518060400160405280600d81526020017f4d656d65642057617272696f72000000000000000000000000000000000000008152506040518060400160405280600781526020017f57415252494f5200000000000000000000000000000000000000000000000000815250815f90816100ac9190610599565b5080600190816100bc9190610599565b5050505f73ffffffffffffffffffffffffffffffffffffffff168173ffffffffffffffffffffffffffffffffffffffff160361012f575f6040517f1e4fbdf70000000000000000000000000000000000000000000000000000000081526004016101269190610677565b60405180910390fd5b61013e816101eb60201b60201c565b5060016007819055508273ffffffffffffffffffffffffffffffffffffffff1660c08173ffffffffffffffffffffffffffffffffffffffff16815250508073ffffffffffffffffffffffffffffffffffffffff1660808173ffffffffffffffffffffffffffffffffffffffff16815250508173ffffffffffffffffffffffffffffffffffffffff1660a08173ffffffffffffffffffffffffffffffffffffffff1681525050505050610690565b5f60065f9054906101000a900473ffffffffffffffffffffffffffffffffffffffff1690508160065f6101000a81548173ffffffffffffffffffffffffffffffffffffffff021916908373ffffffffffffffffffffffffffffffffffffffff1602179055508173ffffffffffffffffffffffffffffffffffffffff168173ffffffffffffffffffffffffffffffffffffffff167f8be0079c531659141344cd1fd0a4f28419497f9722a3daafe3b4186f6b6457e060405160405180910390a35050565b5f5ffd5b5f73ffffffffffffffffffffffffffffffffffffffff82169050919050565b5f6102db826102b2565b9050919050565b6102eb816102d1565b81146102f5575f5ffd5b50565b5f81519050610306816102e2565b92915050565b5f5f5f60608486031215610323576103226102ae565b5b5f610330868287016102f8565b9350506020610341868287016102f8565b9250506040610352868287016102f8565b9150509250925092565b5f81519050919050565b7f4e487b71000000000000000000000000000000000000000000000000000000005f52604160045260245ffd5b7f4e487b71000000000000000000000000000000000000000000000000000000005f52602260045260245ffd5b5f60028204905060018216806103d757607f821691505b6020821081036103ea576103e9610393565b5b50919050565b5f819050815f5260205f209050919050565b5f6020601f8301049050919050565b5f82821b905092915050565b5f6008830261044c7fffffffffffffffffffffffffffffffffffffffffffffffffffffffffffffffff82610411565b6104568683610411565b95508019841693508086168417925050509392505050565b5f819050919050565b5f819050919050565b5f61049a6104956104908461046e565b610477565b61046e565b9050919050565b5f819050919050565b6104b383610480565b6104c76104bf826104a1565b84845461041d565b825550505050565b5f5f905090565b6104de6104cf565b6104e98184846104aa565b505050565b5b8181101561050c576105015f826104d6565b6001810190506104ef565b5050565b601f82111561055157610522816103f0565b61052b84610402565b8101602085101561053a578190505b61054e61054685610402565b8301826104ee565b50505b505050565b5f82821c905092915050565b5f6105715f1984600802610556565b1980831691505092915050565b5f6105898383610562565b9150826002028217905092915050565b6105a28261035c565b67ffffffffffffffff8111156105bb576105ba610366565b5b6105c582546103c0565b6105d0828285610510565b5f60209050601f831160018114610601575f84156105ef578287015190505b6105f9858261057e565b865550610660565b601f19841661060f866103f0565b5f5b8281101561063657848901518255600182019150602085019450602081019050610611565b86831015610653578489015161064f601f891682610562565b8355505b6001600288020188555050505b505050505050565b610671816102d1565b82525050565b5f60208201905061068a5f830184610668565b92915050565b60805160a05160c05161418f61071c5f395f818161093101528181610e4201528181610f1401528181611122015281816112bc015281816117bc015281816120c201526121a801525f818161069e01528181610c7301528181610da701528181610ed60152610fde01525f81816110790152818161157f01528181611780015261216c015261418f5ff3fe608060405234801561000f575f5ffd5b50600436106101ec575f3560e01c806370a082311161010d578063c45a0155116100a0578063eb91d37e1161006f578063eb91d37e146105ce578063f2fde38b146105ec578063f696a42814610608578063f86325ed14610638576101ec565b8063c45a015514610520578063c87b56dd1461053e578063debc2f921461056e578063e985e9c51461059e576101ec565b806395d89b41116100dc57806395d89b41146104ac578063a22cb465146104ca578063b52ce8e6146104e6578063b88d4fde14610504576101ec565b806370a0823114610438578063715018a6146104685780638da5cb5b1461047257806394de221914610490576101ec565b80631df0cd131161018557806342842e0e1161015457806342842e0e146103b05780635153563b146103cc5780636352211e146103ea5780636d25d8021461041a576101ec565b80631df0cd131461031657806323b872dd14610334578063291c73c3146103505780632eb3740614610380576101ec565b8063081812fc116101c1578063081812fc14610278578063095ea7b3146102a85780631a170712146102c45780631b74c9e3146102f8576101ec565b80629a9b7b146101f0578062f4820a1461020e57806301ffc9a71461022a57806306fdde031461025a575b5f5ffd5b6101f8610656565b6040516102059190612dee565b60405180910390f35b61022860048036038101906102239190612f18565b61065c565b005b610244600480360381019061023f9190612ff1565b610731565b6040516102519190613036565b60405180910390f35b610262610812565b60405161026f91906130bf565b60405180910390f35b610292600480360381019061028d9190613109565b6108a1565b60405161029f9190613143565b60405180910390f35b6102c260048036038101906102bd919061315c565b6108bc565b005b6102de60048036038101906102d99190613109565b6108d2565b6040516102ef95949392919061319a565b60405180910390f35b61030061092f565b60405161030d9190613143565b60405180910390f35b61031e610953565b60405161032b9190612dee565b60405180910390f35b61034e600480360381019061034991906131eb565b610959565b005b61036a6004803603810190610365919061315c565b610a58565b6040516103779190612dee565b60405180910390f35b61039a6004803603810190610395919061323b565b610a83565b6040516103a7919061331d565b60405180910390f35b6103ca60048036038101906103c591906131eb565b610c52565b005b6103d4610c71565b6040516103e19190613398565b60405180910390f35b61040460048036038101906103ff9190613109565b610c95565b6040516104119190613143565b60405180910390f35b610422610ca6565b60405161042f9190612dee565b60405180910390f35b610452600480360381019061044d919061323b565b610cb3565b60405161045f9190612dee565b60405180910390f35b610470610d69565b005b61047a610d7c565b6040516104879190613143565b60405180910390f35b6104aa60048036038101906104a59190613109565b610da4565b005b6104b46111ff565b6040516104c191906130bf565b60405180910390f35b6104e460048036038101906104df91906133db565b61128f565b005b6104ee6112a5565b6040516104fb9190612dee565b60405180910390f35b61051e60048036038101906105199190613541565b611558565b005b61052861157d565b60405161053591906135e1565b60405180910390f35b61055860048036038101906105539190613109565b6115a1565b60405161056591906130bf565b60405180910390f35b6105886004803603810190610583919061323b565b611607565b6040516105959190613036565b60405180910390f35b6105b860048036038101906105b391906135fa565b6116ee565b6040516105c59190613036565b60405180910390f35b6105d661177c565b6040516105e39190612dee565b60405180910390f35b6106066004803603810190610601919061323b565b61187a565b005b610622600480360381019061061d919061315c565b6118fe565b60405161062f9190612dee565b60405180910390f35b6106406119fc565b60405161064d9190612dee565b60405180910390f35b60085481565b5f5f90505b8282905081101561069b5761068e83838381811061068257610681613638565b5b90506020020135611a0a565b8080600101915050610661565b507f000000000000000000000000000000000000000000000000000000000000000073ffffffffffffffffffffffffffffffffffffffff1663c24b952b86868686866040518663ffffffff1660e01b81526004016106fd9594939291906136fd565b5f604051808303815f87803b158015610714575f5ffd5b505af1158015610726573d5f5f3e3d5ffd5b505050505050505050565b5f7f80ac58cd000000000000000000000000000000000000000000000000000000007bffffffffffffffffffffffffffffffffffffffffffffffffffffffff1916827bffffffffffffffffffffffffffffffffffffffffffffffffffffffff191614806107fb57507f5b5e139f000000000000000000000000000000000000000000000000000000007bffffffffffffffffffffffffffffffffffffffffffffffffffffffff1916827bffffffffffffffffffffffffffffffffffffffffffffffffffffffff1916145b8061080b575061080a82611b33565b5b9050919050565b60605f805461082090613776565b80601f016020809104026020016040519081016040528092919081815260200182805461084c90613776565b80156108975780601f1061086e57610100808354040283529160200191610897565b820191905f5260205f20905b81548152906001019060200180831161087a57829003601f168201915b5050505050905090565b5f6108ab82611b9c565b506108b582611c22565b9050919050565b6108ce82826108c9611c5b565b611c62565b5050565b6009602052805f5260405f205f91509050805f015490806001015f9054906101000a900473ffffffffffffffffffffffffffffffffffffffff1690806002015490806003015490806004015f9054906101000a900460ff16905085565b7f000000000000000000000000000000000000000000000000000000000000000081565b61271081565b5f73ffffffffffffffffffffffffffffffffffffffff168273ffffffffffffffffffffffffffffffffffffffff16036109c9575f6040517f64a0ae920000000000000000000000000000000000000000000000000000000081526004016109c09190613143565b60405180910390fd5b5f6109dc83836109d7611c5b565b611c74565b90508373ffffffffffffffffffffffffffffffffffffffff168173ffffffffffffffffffffffffffffffffffffffff1614610a52578382826040517f64283d7b000000000000000000000000000000000000000000000000000000008152600401610a49939291906137a6565b60405180910390fd5b50505050565b600a602052815f5260405f208181548110610a71575f80fd5b905f5260205f20015f91509150505481565b60605f600a5f8473ffffffffffffffffffffffffffffffffffffffff1673ffffffffffffffffffffffffffffffffffffffff1681526020019081526020015f20805480602002602001604051908101604052809291908181526020018280548015610b0b57602002820191905f5260205f20905b815481526020019060010190808311610af7575b505050505090505f5f90505f5f90505b8251811015610b6857610b47838281518110610b3a57610b39613638565b5b6020026020010151611db9565b15610b5b578180610b5790613808565b9250505b8080600101915050610b1b565b505f8167ffffffffffffffff811115610b8457610b8361341d565b5b604051908082528060200260200182016040528015610bb25781602001602082028036833780820191505090505b5090505f5f90505f5f90505b8451811015610c4557610bea858281518110610bdd57610bdc613638565b5b6020026020010151611db9565b15610c3857848181518110610c0257610c01613638565b5b6020026020010151838381518110610c1d57610c1c613638565b5b6020026020010181815250508180610c3490613808565b9250505b8080600101915050610bbe565b5081945050505050919050565b610c6c83838360405180602001604052805f815250611558565b505050565b7f000000000000000000000000000000000000000000000000000000000000000081565b5f610c9f82611b9c565b9050919050565b68056bc75e2d6310000081565b5f5f73ffffffffffffffffffffffffffffffffffffffff168273ffffffffffffffffffffffffffffffffffffffff1603610d24575f6040517f89c62b64000000000000000000000000000000000000000000000000000000008152600401610d1b9190613143565b60405180910390fd5b60035f8373ffffffffffffffffffffffffffffffffffffffff1673ffffffffffffffffffffffffffffffffffffffff1681526020019081526020015f20549050919050565b610d71611dc7565b610d7a5f611e4e565b565b5f60065f9054906101000a900473ffffffffffffffffffffffffffffffffffffffff16905090565b5f7f000000000000000000000000000000000000000000000000000000000000000073ffffffffffffffffffffffffffffffffffffffff16636dd0ce7a836040518263ffffffff1660e01b8152600401610dfe9190612dee565b61018060405180830381865afa158015610e1a573d5f5f3e3d5ffd5b505050506040513d601f19601f82011682018060405250810190610e3e91906139c1565b90507f000000000000000000000000000000000000000000000000000000000000000073ffffffffffffffffffffffffffffffffffffffff1681610140015173ffffffffffffffffffffffffffffffffffffffff1614610ed3576040517f08c379a0000000000000000000000000000000000000000000000000000000008152600401610eca90613a37565b60405180910390fd5b5f7f000000000000000000000000000000000000000000000000000000000000000073ffffffffffffffffffffffffffffffffffffffff16636c35243984337f00000000000000000000000000000000000000000000000000000000000000006040518463ffffffff1660e01b8152600401610f5193929190613a55565b5f60405180830381865afa158015610f6b573d5f5f3e3d5ffd5b505050506040513d5f823e3d601f19601f82011682018060405250810190610f939190613c17565b90505f81606001515111610fdc576040517f08c379a0000000000000000000000000000000000000000000000000000000008152600401610fd390613ca8565b60405180910390fd5b7f000000000000000000000000000000000000000000000000000000000000000073ffffffffffffffffffffffffffffffffffffffff1663327b390084336040518363ffffffff1660e01b8152600401611037929190613cc6565b5f604051808303815f87803b15801561104e575f5ffd5b505af1158015611060573d5f5f3e3d5ffd5b505050505f5f90505b8160600151518110156111f9575f7f000000000000000000000000000000000000000000000000000000000000000073ffffffffffffffffffffffffffffffffffffffff166377e989f36040518163ffffffff1660e01b8152600401602060405180830381865afa1580156110e0573d5f5f3e3d5ffd5b505050506040513d601f19601f820116820180604052508101906111049190613ced565b73ffffffffffffffffffffffffffffffffffffffff16633901e015337f00000000000000000000000000000000000000000000000000000000000000006040518363ffffffff1660e01b815260040161115e929190613d18565b602060405180830381865afa158015611179573d5f5f3e3d5ffd5b505050506040513d601f19601f8201168201806040525081019061119d9190613d3f565b116111ec575f60095f846060015184815181106111bd576111bc613638565b5b602002602001015181526020019081526020015f206004015f6101000a81548160ff0219169083151502179055505b8080600101915050611069565b50505050565b60606001805461120e90613776565b80601f016020809104026020016040519081016040528092919081815260200182805461123a90613776565b80156112855780601f1061125c57610100808354040283529160200191611285565b820191905f5260205f20905b81548152906001019060200180831161126857829003601f168201915b5050505050905090565b6112a161129a611c5b565b8383611f11565b5050565b5f6112ae61207a565b5f6112b761177c565b9050807f000000000000000000000000000000000000000000000000000000000000000073ffffffffffffffffffffffffffffffffffffffff166370a08231336040518263ffffffff1660e01b81526004016113139190613143565b602060405180830381865afa15801561132e573d5f5f3e3d5ffd5b505050506040513d601f19601f820116820180604052508101906113529190613d3f565b1015611393576040517f08c379a000000000000000000000000000000000000000000000000000000000815260040161138a90613db4565b60405180910390fd5b61139d33826120c0565b60085f8154809291906113af90613808565b91905055505f60085490506113c4338261223c565b6040518060a001604052808281526020013373ffffffffffffffffffffffffffffffffffffffff1681526020018381526020014281526020015f151581525060095f8381526020019081526020015f205f820151815f01556020820151816001015f6101000a81548173ffffffffffffffffffffffffffffffffffffffff021916908373ffffffffffffffffffffffffffffffffffffffff16021790555060408201518160020155606082015181600301556080820151816004015f6101000a81548160ff021916908315150217905550905050600a5f3373ffffffffffffffffffffffffffffffffffffffff1673ffffffffffffffffffffffffffffffffffffffff1681526020019081526020015f2081908060018154018082558091505060019003905f5260205f20015f90919091909150553373ffffffffffffffffffffffffffffffffffffffff16817f972b595ca48df89bdf5d8ed153814654b794988833678cd40cb375ff28bd87e4846040516115409190612dee565b60405180910390a38092505050611555612259565b90565b611563848484610959565b61157761156e611c5b565b85858585612263565b50505050565b7f000000000000000000000000000000000000000000000000000000000000000081565b60606115ac82611b9c565b505f6115b661240f565b90505f8151116115d45760405180602001604052805f8152506115ff565b806115de84612425565b6040516020016115ef929190613e0c565b6040516020818303038152906040525b915050919050565b5f5f600a5f8473ffffffffffffffffffffffffffffffffffffffff1673ffffffffffffffffffffffffffffffffffffffff1681526020019081526020015f2080548060200260200160405190810160405280929190818152602001828054801561168e57602002820191905f5260205f20905b81548152602001906001019080831161167a575b505050505090505f5f90505b81518110156116e3576116c68282815181106116b9576116b8613638565b5b6020026020010151611db9565b156116d6576001925050506116e9565b808060010191505061169a565b505f9150505b919050565b5f60055f8473ffffffffffffffffffffffffffffffffffffffff1673ffffffffffffffffffffffffffffffffffffffff1681526020019081526020015f205f8373ffffffffffffffffffffffffffffffffffffffff1673ffffffffffffffffffffffffffffffffffffffff1681526020019081526020015f205f9054906101000a900460ff16905092915050565b5f5f7f000000000000000000000000000000000000000000000000000000000000000073ffffffffffffffffffffffffffffffffffffffff1663306d35087f00000000000000000000000000000000000000000000000000000000000000006040518263ffffffff1660e01b81526004016117f79190613143565b602060405180830381865afa158015611812573d5f5f3e3d5ffd5b505050506040513d601f19601f820116820180604052508101906118369190613d3f565b90505f68056bc75e2d63100000612710836118519190613e5c565b61185b9190613e8c565b90508069010f0cf064dd592000006118739190613ecd565b9250505090565b611882611dc7565b5f73ffffffffffffffffffffffffffffffffffffffff168173ffffffffffffffffffffffffffffffffffffffff16036118f2575f6040517f1e4fbdf70000000000000000000000000000000000000000000000000000000081526004016118e99190613143565b60405180910390fd5b6118fb81611e4e565b50565b5f5f600a5f8573ffffffffffffffffffffffffffffffffffffffff1673ffffffffffffffffffffffffffffffffffffffff1681526020019081526020015f2080548060200260200160405190810160405280929190818152602001828054801561198557602002820191905f5260205f20905b815481526020019060010190808311611971575b505050505090505f5f90505f5f90505b82518110156119f0578460095f8584815181106119b5576119b4613638565b5b602002602001015181526020019081526020015f206003015410156119e35781806119df90613808565b9250505b8080600101915050611995565b50809250505092915050565b69010f0cf064dd5920000081565b611a1381611db9565b611a52576040517f08c379a0000000000000000000000000000000000000000000000000000000008152600401611a4990613f4a565b60405180910390fd5b60095f8281526020019081526020015f206004015f9054906101000a900460ff1615611ab3576040517f08c379a0000000000000000000000000000000000000000000000000000000008152600401611aaa90613fb2565b60405180910390fd5b5f611abd82610c95565b9050600160095f8481526020019081526020015f206004015f6101000a81548160ff0219169083151502179055508073ffffffffffffffffffffffffffffffffffffffff16827fced437231aa98bcedae3308779b046af7bc82d93f3e58a096dc847c95b13af8060405160405180910390a35050565b5f7f01ffc9a7000000000000000000000000000000000000000000000000000000007bffffffffffffffffffffffffffffffffffffffffffffffffffffffff1916827bffffffffffffffffffffffffffffffffffffffffffffffffffffffff1916149050919050565b5f5f611ba7836124ef565b90505f73ffffffffffffffffffffffffffffffffffffffff168173ffffffffffffffffffffffffffffffffffffffff1603611c1957826040517f7e273289000000000000000000000000000000000000000000000000000000008152600401611c109190612dee565b60405180910390fd5b80915050919050565b5f60045f8381526020019081526020015f205f9054906101000a900473ffffffffffffffffffffffffffffffffffffffff169050919050565b5f33905090565b611c6f8383836001612528565b505050565b5f5f611c818585856126e7565b90505f73ffffffffffffffffffffffffffffffffffffffff168173ffffffffffffffffffffffffffffffffffffffff1614158015611ceb57505f73ffffffffffffffffffffffffffffffffffffffff168573ffffffffffffffffffffffffffffffffffffffff1614155b15611dae578460095f8681526020019081526020015f206001015f6101000a81548173ffffffffffffffffffffffffffffffffffffffff021916908373ffffffffffffffffffffffffffffffffffffffff160217905550611d4c81856128f2565b600a5f8673ffffffffffffffffffffffffffffffffffffffff1673ffffffffffffffffffffffffffffffffffffffff1681526020019081526020015f2084908060018154018082558091505060019003905f5260205f20015f90919091909150555b809150509392505050565b5f6008548211159050919050565b611dcf611c5b565b73ffffffffffffffffffffffffffffffffffffffff16611ded610d7c565b73ffffffffffffffffffffffffffffffffffffffff1614611e4c57611e10611c5b565b6040517f118cdaa7000000000000000000000000000000000000000000000000000000008152600401611e439190613143565b60405180910390fd5b565b5f60065f9054906101000a900473ffffffffffffffffffffffffffffffffffffffff1690508160065f6101000a81548173ffffffffffffffffffffffffffffffffffffffff021916908373ffffffffffffffffffffffffffffffffffffffff1602179055508173ffffffffffffffffffffffffffffffffffffffff168173ffffffffffffffffffffffffffffffffffffffff167f8be0079c531659141344cd1fd0a4f28419497f9722a3daafe3b4186f6b6457e060405160405180910390a35050565b5f73ffffffffffffffffffffffffffffffffffffffff168273ffffffffffffffffffffffffffffffffffffffff1603611f8157816040517f5b08ba18000000000000000000000000000000000000000000000000000000008152600401611f789190613143565b60405180910390fd5b8060055f8573ffffffffffffffffffffffffffffffffffffffff1673ffffffffffffffffffffffffffffffffffffffff1681526020019081526020015f205f8473ffffffffffffffffffffffffffffffffffffffff1673ffffffffffffffffffffffffffffffffffffffff1681526020019081526020015f205f6101000a81548160ff0219169083151502179055508173ffffffffffffffffffffffffffffffffffffffff168373ffffffffffffffffffffffffffffffffffffffff167f17307eab39ab6107e8899845ad3d59bd9653f200f220920489ca2b5937696c318360405161206d9190613036565b60405180910390a3505050565b6002600754036120b6576040517f3ee5aeb500000000000000000000000000000000000000000000000000000000815260040160405180910390fd5b6002600781905550565b7f000000000000000000000000000000000000000000000000000000000000000073ffffffffffffffffffffffffffffffffffffffff166379cc679083836040518363ffffffff1660e01b815260040161211b929190613fd0565b5f604051808303815f87803b158015612132575f5ffd5b505af1158015612144573d5f5f3e3d5ffd5b505050507f8bc81353cf6671d259d22783e39ed930583c86f3f4cf7e981298e6a872dfb15d817f000000000000000000000000000000000000000000000000000000000000000073ffffffffffffffffffffffffffffffffffffffff1663306d35087f00000000000000000000000000000000000000000000000000000000000000006040518263ffffffff1660e01b81526004016121e39190613143565b602060405180830381865afa1580156121fe573d5f5f3e3d5ffd5b505050506040513d601f19601f820116820180604052508101906122229190613d3f565b604051612230929190613ff7565b60405180910390a15050565b612255828260405180602001604052805f8152506129ec565b5050565b6001600781905550565b5f8373ffffffffffffffffffffffffffffffffffffffff163b1115612408578273ffffffffffffffffffffffffffffffffffffffff1663150b7a02868685856040518563ffffffff1660e01b81526004016122c19493929190614070565b6020604051808303815f875af19250505080156122fc57506040513d601f19601f820116820180604052508101906122f991906140ce565b60015b61237d573d805f811461232a576040519150601f19603f3d011682016040523d82523d5f602084013e61232f565b606091505b505f81510361237557836040517f64a0ae9200000000000000000000000000000000000000000000000000000000815260040161236c9190613143565b60405180910390fd5b805160208201fd5b63150b7a0260e01b7bffffffffffffffffffffffffffffffffffffffffffffffffffffffff1916817bffffffffffffffffffffffffffffffffffffffffffffffffffffffff19161461240657836040517f64a0ae920000000000000000000000000000000000000000000000000000000081526004016123fd9190613143565b60405180910390fd5b505b5050505050565b606060405180602001604052805f815250905090565b60605f600161243384612a0f565b0190505f8167ffffffffffffffff8111156124515761245061341d565b5b6040519080825280601f01601f1916602001820160405280156124835781602001600182028036833780820191505090505b5090505f82602083010190505b6001156124e4578080600190039150507f3031323334353637383961626364656600000000000000000000000000000000600a86061a8153600a85816124d9576124d8613e2f565b5b0494505f8503612490575b819350505050919050565b5f60025f8381526020019081526020015f205f9054906101000a900473ffffffffffffffffffffffffffffffffffffffff169050919050565b808061256057505f73ffffffffffffffffffffffffffffffffffffffff168273ffffffffffffffffffffffffffffffffffffffff1614155b15612692575f61256f84611b9c565b90505f73ffffffffffffffffffffffffffffffffffffffff168373ffffffffffffffffffffffffffffffffffffffff16141580156125d957508273ffffffffffffffffffffffffffffffffffffffff168173ffffffffffffffffffffffffffffffffffffffff1614155b80156125ec57506125ea81846116ee565b155b1561262e57826040517fa9fbf51f0000000000000000000000000000000000000000000000000000000081526004016126259190613143565b60405180910390fd5b811561269057838573ffffffffffffffffffffffffffffffffffffffff168273ffffffffffffffffffffffffffffffffffffffff167f8c5be1e5ebec7d5bd14f71427d1e84f3dd0314c0f7b2291e5b200ac8c7c3b92560405160405180910390a45b505b8360045f8581526020019081526020015f205f6101000a81548173ffffffffffffffffffffffffffffffffffffffff021916908373ffffffffffffffffffffffffffffffffffffffff16021790555050505050565b5f5f6126f2846124ef565b90505f73ffffffffffffffffffffffffffffffffffffffff168373ffffffffffffffffffffffffffffffffffffffff161461273357612732818486612b60565b5b5f73ffffffffffffffffffffffffffffffffffffffff168173ffffffffffffffffffffffffffffffffffffffff16146127be576127725f855f5f612528565b600160035f8373ffffffffffffffffffffffffffffffffffffffff1673ffffffffffffffffffffffffffffffffffffffff1681526020019081526020015f205f82825403925050819055505b5f73ffffffffffffffffffffffffffffffffffffffff168573ffffffffffffffffffffffffffffffffffffffff161461283d57600160035f8773ffffffffffffffffffffffffffffffffffffffff1673ffffffffffffffffffffffffffffffffffffffff1681526020019081526020015f205f82825401925050819055505b8460025f8681526020019081526020015f205f6101000a81548173ffffffffffffffffffffffffffffffffffffffff021916908373ffffffffffffffffffffffffffffffffffffffff160217905550838573ffffffffffffffffffffffffffffffffffffffff168273ffffffffffffffffffffffffffffffffffffffff167fddf252ad1be2c89b69c2b068fc378daa952ba7f163c4a11628f55a4df523b3ef60405160405180910390a4809150509392505050565b5f600a5f8473ffffffffffffffffffffffffffffffffffffffff1673ffffffffffffffffffffffffffffffffffffffff1681526020019081526020015f2090505f5f90505b81805490508110156129e6578282828154811061295757612956613638565b5b905f5260205f200154036129d957816001838054905061297791906140f9565b8154811061298857612987613638565b5b905f5260205f2001548282815481106129a4576129a3613638565b5b905f5260205f200181905550818054806129c1576129c061412c565b5b600190038181905f5260205f20015f905590556129e6565b8080600101915050612937565b50505050565b6129f68383612c23565b612a0a612a01611c5b565b5f858585612263565b505050565b5f5f5f90507a184f03e93ff9f4daa797ed6e38ed64bf6a1f0100000000000000008310612a6b577a184f03e93ff9f4daa797ed6e38ed64bf6a1f0100000000000000008381612a6157612a60613e2f565b5b0492506040810190505b6d04ee2d6d415b85acef81000000008310612aa8576d04ee2d6d415b85acef81000000008381612a9e57612a9d613e2f565b5b0492506020810190505b662386f26fc100008310612ad757662386f26fc100008381612acd57612acc613e2f565b5b0492506010810190505b6305f5e1008310612b00576305f5e1008381612af657612af5613e2f565b5b0492506008810190505b6127108310612b25576127108381612b1b57612b1a613e2f565b5b0492506004810190505b60648310612b485760648381612b3e57612b3d613e2f565b5b0492506002810190505b600a8310612b57576001810190505b80915050919050565b612b6b838383612d16565b612c1e575f73ffffffffffffffffffffffffffffffffffffffff168373ffffffffffffffffffffffffffffffffffffffff1603612bdf57806040517f7e273289000000000000000000000000000000000000000000000000000000008152600401612bd69190612dee565b60405180910390fd5b81816040517f177e802f000000000000000000000000000000000000000000000000000000008152600401612c15929190613fd0565b60405180910390fd5b505050565b5f73ffffffffffffffffffffffffffffffffffffffff168273ffffffffffffffffffffffffffffffffffffffff1603612c93575f6040517f64a0ae92000000000000000000000000000000000000000000000000000000008152600401612c8a9190613143565b60405180910390fd5b5f612c9f83835f611c74565b90505f73ffffffffffffffffffffffffffffffffffffffff168173ffffffffffffffffffffffffffffffffffffffff1614612d11575f6040517f73c6ac6e000000000000000000000000000000000000000000000000000000008152600401612d089190613143565b60405180910390fd5b505050565b5f5f73ffffffffffffffffffffffffffffffffffffffff168373ffffffffffffffffffffffffffffffffffffffff1614158015612dcd57508273ffffffffffffffffffffffffffffffffffffffff168473ffffffffffffffffffffffffffffffffffffffff161480612d8e5750612d8d84846116ee565b5b80612dcc57508273ffffffffffffffffffffffffffffffffffffffff16612db483611c22565b73ffffffffffffffffffffffffffffffffffffffff16145b5b90509392505050565b5f819050919050565b612de881612dd6565b82525050565b5f602082019050612e015f830184612ddf565b92915050565b5f604051905090565b5f5ffd5b5f5ffd5b5f6fffffffffffffffffffffffffffffffff82169050919050565b612e3c81612e18565b8114612e46575f5ffd5b50565b5f81359050612e5781612e33565b92915050565b5f73ffffffffffffffffffffffffffffffffffffffff82169050919050565b5f612e8682612e5d565b9050919050565b612e9681612e7c565b8114612ea0575f5ffd5b50565b5f81359050612eb181612e8d565b92915050565b5f5ffd5b5f5ffd5b5f5ffd5b5f5f83601f840112612ed857612ed7612eb7565b5b8235905067ffffffffffffffff811115612ef557612ef4612ebb565b5b602083019150836020820283011115612f1157612f10612ebf565b5b9250929050565b5f5f5f5f5f60808688031215612f3157612f30612e10565b5b5f612f3e88828901612e49565b9550506020612f4f88828901612ea3565b9450506040612f6088828901612ea3565b935050606086013567ffffffffffffffff811115612f8157612f80612e14565b5b612f8d88828901612ec3565b92509250509295509295909350565b5f7fffffffff0000000000000000000000000000000000000000000000000000000082169050919050565b612fd081612f9c565b8114612fda575f5ffd5b50565b5f81359050612feb81612fc7565b92915050565b5f6020828403121561300657613005612e10565b5b5f61301384828501612fdd565b91505092915050565b5f8115159050919050565b6130308161301c565b82525050565b5f6020820190506130495f830184613027565b92915050565b5f81519050919050565b5f82825260208201905092915050565b8281835e5f83830152505050565b5f601f19601f8301169050919050565b5f6130918261304f565b61309b8185613059565b93506130ab818560208601613069565b6130b481613077565b840191505092915050565b5f6020820190508181035f8301526130d78184613087565b905092915050565b6130e881612dd6565b81146130f2575f5ffd5b50565b5f81359050613103816130df565b92915050565b5f6020828403121561311e5761311d612e10565b5b5f61312b848285016130f5565b91505092915050565b61313d81612e7c565b82525050565b5f6020820190506131565f830184613134565b92915050565b5f5f6040838503121561317257613171612e10565b5b5f61317f85828601612ea3565b9250506020613190858286016130f5565b9150509250929050565b5f60a0820190506131ad5f830188612ddf565b6131ba6020830187613134565b6131c76040830186612ddf565b6131d46060830185612ddf565b6131e16080830184613027565b9695505050505050565b5f5f5f6060848603121561320257613201612e10565b5b5f61320f86828701612ea3565b935050602061322086828701612ea3565b9250506040613231868287016130f5565b9150509250925092565b5f602082840312156132505761324f612e10565b5b5f61325d84828501612ea3565b91505092915050565b5f81519050919050565b5f82825260208201905092915050565b5f819050602082019050919050565b61329881612dd6565b82525050565b5f6132a9838361328f565b60208301905092915050565b5f602082019050919050565b5f6132cb82613266565b6132d58185613270565b93506132e083613280565b805f5b838110156133105781516132f7888261329e565b9750613302836132b5565b9250506001810190506132e3565b5085935050505092915050565b5f6020820190508181035f83015261333581846132c1565b905092915050565b5f819050919050565b5f61336061335b61335684612e5d565b61333d565b612e5d565b9050919050565b5f61337182613346565b9050919050565b5f61338282613367565b9050919050565b61339281613378565b82525050565b5f6020820190506133ab5f830184613389565b92915050565b6133ba8161301c565b81146133c4575f5ffd5b50565b5f813590506133d5816133b1565b92915050565b5f5f604083850312156133f1576133f0612e10565b5b5f6133fe85828601612ea3565b925050602061340f858286016133c7565b9150509250929050565b5f5ffd5b7f4e487b71000000000000000000000000000000000000000000000000000000005f52604160045260245ffd5b61345382613077565b810181811067ffffffffffffffff821117156134725761347161341d565b5b80604052505050565b5f613484612e07565b9050613490828261344a565b919050565b5f67ffffffffffffffff8211156134af576134ae61341d565b5b6134b882613077565b9050602081019050919050565b828183375f83830152505050565b5f6134e56134e084613495565b61347b565b90508281526020810184848401111561350157613500613419565b5b61350c8482856134c5565b509392505050565b5f82601f83011261352857613527612eb7565b5b81356135388482602086016134d3565b91505092915050565b5f5f5f5f6080858703121561355957613558612e10565b5b5f61356687828801612ea3565b945050602061357787828801612ea3565b9350506040613588878288016130f5565b925050606085013567ffffffffffffffff8111156135a9576135a8612e14565b5b6135b587828801613514565b91505092959194509250565b5f6135cb82613367565b9050919050565b6135db816135c1565b82525050565b5f6020820190506135f45f8301846135d2565b92915050565b5f5f604083850312156136105761360f612e10565b5b5f61361d85828601612ea3565b925050602061362e85828601612ea3565b9150509250929050565b7f4e487b71000000000000000000000000000000000000000000000000000000005f52603260045260245ffd5b5f61367f61367a61367584612e18565b61333d565b612dd6565b9050919050565b61368f81613665565b82525050565b5f5ffd5b82818337505050565b5f6136ad8385613270565b93507f07ffffffffffffffffffffffffffffffffffffffffffffffffffffffffffffff8311156136e0576136df613695565b5b6020830292506136f1838584613699565b82840190509392505050565b5f6080820190506137105f830188613686565b61371d6020830187613134565b61372a6040830186613134565b818103606083015261373d8184866136a2565b90509695505050505050565b7f4e487b71000000000000000000000000000000000000000000000000000000005f52602260045260245ffd5b5f600282049050600182168061378d57607f821691505b6020821081036137a05761379f613749565b5b50919050565b5f6060820190506137b95f830186613134565b6137c66020830185612ddf565b6137d36040830184613134565b949350505050565b7f4e487b71000000000000000000000000000000000000000000000000000000005f52601160045260245ffd5b5f61381282612dd6565b91507fffffffffffffffffffffffffffffffffffffffffffffffffffffffffffffffff8203613844576138436137db565b5b600182019050919050565b5f5ffd5b5f5ffd5b5f81519050613865816130df565b92915050565b5f8151905061387981612e8d565b92915050565b6004811061388b575f5ffd5b50565b5f8151905061389c8161387f565b92915050565b5f61018082840312156138b8576138b761384f565b5b6138c361018061347b565b90505f6138d284828501613857565b5f8301525060206138e58482850161386b565b60208301525060406138f98482850161386b565b604083015250606061390d84828501613857565b606083015250608061392184828501613857565b60808301525060a061393584828501613857565b60a08301525060c061394984828501613857565b60c08301525060e061395d84828501613857565b60e08301525061010061397284828501613857565b610100830152506101206139888482850161388e565b6101208301525061014061399e8482850161386b565b610140830152506101606139b484828501613857565b6101608301525092915050565b5f61018082840312156139d7576139d6612e10565b5b5f6139e4848285016138a2565b91505092915050565b7f4e6f74207468652077696e6e65720000000000000000000000000000000000005f82015250565b5f613a21600e83613059565b9150613a2c826139ed565b602082019050919050565b5f6020820190508181035f830152613a4e81613a15565b9050919050565b5f606082019050613a685f830186612ddf565b613a756020830185613134565b613a826040830184613134565b949350505050565b5f67ffffffffffffffff821115613aa457613aa361341d565b5b602082029050602081019050919050565b5f613ac7613ac284613a8a565b61347b565b90508083825260208201905060208402830185811115613aea57613ae9612ebf565b5b835b81811015613b135780613aff8882613857565b845260208401935050602081019050613aec565b5050509392505050565b5f82601f830112613b3157613b30612eb7565b5b8151613b41848260208601613ab5565b91505092915050565b5f81519050613b58816133b1565b92915050565b5f60c08284031215613b7357613b7261384f565b5b613b7d60c061347b565b90505f613b8c84828501613857565b5f830152506020613b9f8482850161386b565b6020830152506040613bb38482850161386b565b604083015250606082015167ffffffffffffffff811115613bd757613bd6613853565b5b613be384828501613b1d565b6060830152506080613bf784828501613b4a565b60808301525060a0613c0b84828501613b4a565b60a08301525092915050565b5f60208284031215613c2c57613c2b612e10565b5b5f82015167ffffffffffffffff811115613c4957613c48612e14565b5b613c5584828501613b5e565b91505092915050565b7f4e6f20616c6c6f636174696f6e20666f756e64000000000000000000000000005f82015250565b5f613c92601383613059565b9150613c9d82613c5e565b602082019050919050565b5f6020820190508181035f830152613cbf81613c86565b9050919050565b5f604082019050613cd95f830185612ddf565b613ce66020830184613134565b9392505050565b5f60208284031215613d0257613d01612e10565b5b5f613d0f8482850161386b565b91505092915050565b5f604082019050613d2b5f830185613134565b613d386020830184613134565b9392505050565b5f60208284031215613d5457613d53612e10565b5b5f613d6184828501613857565b91505092915050565b7f496e73756666696369656e74204d454d4520746f6b656e7300000000000000005f82015250565b5f613d9e601883613059565b9150613da982613d6a565b602082019050919050565b5f6020820190508181035f830152613dcb81613d92565b9050919050565b5f81905092915050565b5f613de68261304f565b613df08185613dd2565b9350613e00818560208601613069565b80840191505092915050565b5f613e178285613ddc565b9150613e238284613ddc565b91508190509392505050565b7f4e487b71000000000000000000000000000000000000000000000000000000005f52601260045260245ffd5b5f613e6682612dd6565b9150613e7183612dd6565b925082613e8157613e80613e2f565b5b828204905092915050565b5f613e9682612dd6565b9150613ea183612dd6565b9250828202613eaf81612dd6565b91508282048414831517613ec657613ec56137db565b5b5092915050565b5f613ed782612dd6565b9150613ee283612dd6565b9250828201905080821115613efa57613ef96137db565b5b92915050565b7f4e465420646f6573206e6f7420657869737400000000000000000000000000005f82015250565b5f613f34601283613059565b9150613f3f82613f00565b602082019050919050565b5f6020820190508181035f830152613f6181613f28565b9050919050565b7f4e465420616c726561647920616c6c6f636174656400000000000000000000005f82015250565b5f613f9c601583613059565b9150613fa782613f68565b602082019050919050565b5f6020820190508181035f830152613fc981613f90565b9050919050565b5f604082019050613fe35f830185613134565b613ff06020830184612ddf565b9392505050565b5f60408201905061400a5f830185612ddf565b6140176020830184612ddf565b9392505050565b5f81519050919050565b5f82825260208201905092915050565b5f6140428261401e565b61404c8185614028565b935061405c818560208601613069565b61406581613077565b840191505092915050565b5f6080820190506140835f830187613134565b6140906020830186613134565b61409d6040830185612ddf565b81810360608301526140af8184614038565b905095945050505050565b5f815190506140c881612fc7565b92915050565b5f602082840312156140e3576140e2612e10565b5b5f6140f0848285016140ba565b91505092915050565b5f61410382612dd6565b915061410e83612dd6565b9250828203905081811115614126576141256137db565b5b92915050565b7f4e487b71000000000000000000000000000000000000000000000000000000005f52603160045260245ffdfea26469706673582212204a5f8c8774f053d65c4b1aa861eb1c4bc230c02f705337c0e44399bda727248364736f6c634300081c0033",
  "linkReferences": {},
  "deployedLinkReferences": {},
  "immutableReferences": {
    "16935": [
      {
        "length": 32,
        "start": 4217
      },
      {
        "length": 32,
        "start": 5503
      },
      {
        "length": 32,
        "start": 6016
      },
      {
        "length": 32,
        "start": 8556
      }
    ],
    "16938": [
      {
        "length": 32,
        "start": 1694
      },
      {
        "length": 32,
        "start": 3187
      },
      {
        "length": 32,
        "start": 3495
      },
      {
        "length": 32,
        "start": 3798
      },
      {
        "length": 32,
        "start": 4062
      }
    ],
    "16940": [
      {
        "length": 32,
        "start": 2353
      },
      {
        "length": 32,
        "start": 3650
      },
      {
        "length": 32,
        "start": 3860
      },
      {
        "length": 32,
        "start": 4386
      },
      {
        "length": 32,
        "start": 4796
      },
      {
        "length": 32,
        "start": 6076
      },
      {
        "length": 32,
        "start": 8386
      },
      {
        "length": 32,
        "start": 8616
      }
    ]
  },
  "inputSourceName": "project/contracts/MemedWarriorNFT.sol",
  "buildInfoId": "solc-0_8_28-27c69b873bd06e8efaf9ee307d3f53a0f863b83b"
}