{
  "_format": "hh3-artifact-1",
  "contractName": "MemedTokenSale_test",
  "sourceName": "contracts/MemedTokenSale_test.sol",
  "abi": [
    {
      "inputs": [],
      "stateMutability": "nonpayable",
      "type": "constructor"
    },
    {
      "inputs": [
        {
          "internalType": "address",
          "name": "owner",
          "type": "address"
        }
      ],
      "name": "OwnableInvalidOwner",
      "type": "error"
    },
    {
      "inputs": [
        {
          "internalType": "address",
          "name": "account",
          "type": "address"
        }
      ],
      "name": "OwnableUnauthorizedAccount",
      "type": "error"
    },
    {
      "inputs": [],
      "name": "ReentrancyGuardReentrantCall",
      "type": "error"
    },
    {
      "anonymous": false,
      "inputs": [
        {
          "indexed": true,
          "internalType": "uint256",
          "name": "id",
          "type": "uint256"
        },
        {
          "indexed": true,
          "internalType": "address",
          "name": "user",
          "type": "address"
        },
        {
          "indexed": false,
          "internalType": "uint256",
          "name": "amount",
          "type": "uint256"
        }
      ],
      "name": "CommitmentMade",
      "type": "event"
    },
    {
      "anonymous": false,
      "inputs": [
        {
          "indexed": true,
          "internalType": "address",
          "name": "creator",
          "type": "address"
        },
        {
          "indexed": false,
          "internalType": "uint256",
          "name": "blockExpiresAt",
          "type": "uint256"
        },
        {
          "indexed": false,
          "internalType": "string",
          "name": "reason",
          "type": "string"
        }
      ],
      "name": "CreatorBlocked",
      "type": "event"
    },
    {
      "anonymous": false,
      "inputs": [
        {
          "indexed": true,
          "internalType": "uint256",
          "name": "id",
          "type": "uint256"
        },
        {
          "indexed": true,
          "internalType": "address",
          "name": "token",
          "type": "address"
        },
        {
          "indexed": true,
          "internalType": "address",
          "name": "warriorNFT",
          "type": "address"
        },
        {
          "indexed": false,
          "internalType": "uint256",
          "name": "totalRaised",
          "type": "uint256"
        }
      ],
      "name": "FairLaunchCompleted",
      "type": "event"
    },
    {
      "anonymous": false,
      "inputs": [
        {
          "indexed": true,
          "internalType": "uint256",
          "name": "id",
          "type": "uint256"
        },
        {
          "indexed": false,
          "internalType": "uint256",
          "name": "totalRaised",
          "type": "uint256"
        }
      ],
      "name": "FairLaunchFailed",
      "type": "event"
    },
    {
      "anonymous": false,
      "inputs": [
        {
          "indexed": true,
          "internalType": "uint256",
          "name": "id",
          "type": "uint256"
        },
        {
          "indexed": false,
          "internalType": "uint256",
          "name": "lpSupply",
          "type": "uint256"
        },
        {
          "indexed": false,
          "internalType": "uint256",
          "name": "totalRaised",
          "type": "uint256"
        }
      ],
      "name": "FairLaunchReadyToComplete",
      "type": "event"
    },
    {
      "anonymous": false,
      "inputs": [
        {
          "indexed": true,
          "internalType": "uint256",
          "name": "id",
          "type": "uint256"
        },
        {
          "indexed": true,
          "internalType": "address",
          "name": "creator",
          "type": "address"
        },
        {
          "indexed": false,
          "internalType": "uint256",
          "name": "startTime",
          "type": "uint256"
        },
        {
          "indexed": false,
          "internalType": "uint256",
          "name": "endTime",
          "type": "uint256"
        }
      ],
      "name": "FairLaunchStarted",
      "type": "event"
    },
    {
      "anonymous": false,
      "inputs": [
        {
          "indexed": true,
          "internalType": "uint256",
          "name": "id",
          "type": "uint256"
        },
        {
          "indexed": true,
          "internalType": "address",
          "name": "pair",
          "type": "address"
        },
        {
          "indexed": false,
          "internalType": "uint256",
          "name": "tokenAmount",
          "type": "uint256"
        },
        {
          "indexed": false,
          "internalType": "uint256",
          "name": "ethAmount",
          "type": "uint256"
        },
        {
          "indexed": false,
          "internalType": "uint256",
          "name": "liquidity",
          "type": "uint256"
        }
      ],
      "name": "LiquidityAdded",
      "type": "event"
    },
    {
      "anonymous": false,
      "inputs": [
        {
          "indexed": true,
          "internalType": "address",
          "name": "previousOwner",
          "type": "address"
        },
        {
          "indexed": true,
          "internalType": "address",
          "name": "newOwner",
          "type": "address"
        }
      ],
      "name": "OwnershipTransferred",
      "type": "event"
    },
    {
      "anonymous": false,
      "inputs": [
        {
          "indexed": true,
          "internalType": "uint256",
          "name": "id",
          "type": "uint256"
        },
        {
          "indexed": true,
          "internalType": "address",
          "name": "user",
          "type": "address"
        },
        {
          "indexed": false,
          "internalType": "uint256",
          "name": "feeAmount",
          "type": "uint256"
        },
        {
          "indexed": false,
          "internalType": "string",
          "name": "transactionType",
          "type": "string"
        }
      ],
      "name": "PlatformFeeCollected",
      "type": "event"
    },
    {
      "anonymous": false,
      "inputs": [
        {
          "indexed": false,
          "internalType": "uint256",
          "name": "platformFeePercentage",
          "type": "uint256"
        },
        {
          "indexed": false,
          "internalType": "uint256",
          "name": "feeDenominator",
          "type": "uint256"
        }
      ],
      "name": "PlatformFeeSet",
      "type": "event"
    },
    {
      "anonymous": false,
      "inputs": [
        {
          "indexed": true,
          "internalType": "uint256",
          "name": "id",
          "type": "uint256"
        },
        {
          "indexed": true,
          "internalType": "address",
          "name": "seller",
          "type": "address"
        },
        {
          "indexed": false,
          "internalType": "uint256",
          "name": "tokenAmount",
          "type": "uint256"
        },
        {
          "indexed": false,
          "internalType": "uint256",
          "name": "ethReceived",
          "type": "uint256"
        }
      ],
      "name": "TokenSold",
      "type": "event"
    },
    {
      "inputs": [],
      "name": "DECIMALS",
      "outputs": [
        {
          "internalType": "uint256",
          "name": "",
          "type": "uint256"
        }
      ],
      "stateMutability": "view",
      "type": "function"
    },
    {
      "inputs": [],
      "name": "FAIR_LAUNCH_DURATION",
      "outputs": [
        {
          "internalType": "uint256",
          "name": "",
          "type": "uint256"
        }
      ],
      "stateMutability": "view",
      "type": "function"
    },
    {
      "inputs": [],
      "name": "INITIAL_SUPPLY",
      "outputs": [
        {
          "internalType": "uint256",
          "name": "",
          "type": "uint256"
        }
      ],
      "stateMutability": "view",
      "type": "function"
    },
    {
      "inputs": [],
      "name": "MEMED_TEST_ETH",
      "outputs": [
        {
          "internalType": "address",
          "name": "",
          "type": "address"
        }
      ],
      "stateMutability": "view",
      "type": "function"
    },
    {
      "inputs": [],
      "name": "SCALE",
      "outputs": [
        {
          "internalType": "uint256",
          "name": "",
          "type": "uint256"
        }
      ],
      "stateMutability": "view",
      "type": "function"
    },
    {
      "inputs": [],
      "name": "SLOPE",
      "outputs": [
        {
          "internalType": "uint256",
          "name": "",
          "type": "uint256"
        }
      ],
      "stateMutability": "view",
      "type": "function"
    },
    {
      "inputs": [],
      "name": "TARGET_ETH_WEI",
      "outputs": [
        {
          "internalType": "uint256",
          "name": "",
          "type": "uint256"
        }
      ],
      "stateMutability": "view",
      "type": "function"
    },
    {
      "inputs": [],
      "name": "TOTAL_FOR_SALE",
      "outputs": [
        {
          "internalType": "uint256",
          "name": "",
          "type": "uint256"
        }
      ],
      "stateMutability": "view",
      "type": "function"
    },
    {
      "inputs": [
        {
          "internalType": "address",
          "name": "",
          "type": "address"
        }
      ],
      "name": "blockedCreators",
      "outputs": [
        {
          "internalType": "uint256",
          "name": "",
          "type": "uint256"
        }
      ],
      "stateMutability": "view",
      "type": "function"
    },
    {
      "inputs": [
        {
          "internalType": "uint256",
          "name": "_id",
          "type": "uint256"
        },
        {
          "internalType": "uint256",
          "name": "_amount",
          "type": "uint256"
        }
      ],
      "name": "commitToFairLaunch",
      "outputs": [],
      "stateMutability": "nonpayable",
      "type": "function"
    },
    {
      "inputs": [
        {
          "internalType": "uint256",
          "name": "_id",
          "type": "uint256"
        },
        {
          "internalType": "address",
          "name": "_token",
          "type": "address"
        },
        {
          "internalType": "address",
          "name": "_pair",
          "type": "address"
        }
      ],
      "name": "completeFairLaunch",
      "outputs": [],
      "stateMutability": "nonpayable",
      "type": "function"
    },
    {
      "inputs": [
        {
          "internalType": "uint256",
          "name": "",
          "type": "uint256"
        }
      ],
      "name": "fairLaunchData",
      "outputs": [
        {
          "internalType": "enum FairLaunchStatus",
          "name": "status",
          "type": "uint8"
        },
        {
          "internalType": "uint256",
          "name": "fairLaunchStartTime",
          "type": "uint256"
        },
        {
          "internalType": "uint256",
          "name": "totalCommitted",
          "type": "uint256"
        },
        {
          "internalType": "uint256",
          "name": "totalSold",
          "type": "uint256"
        },
        {
          "internalType": "address",
          "name": "uniswapPair",
          "type": "address"
        },
        {
          "internalType": "uint256",
          "name": "createdAt",
          "type": "uint256"
        }
      ],
      "stateMutability": "view",
      "type": "function"
    },
    {
      "inputs": [],
      "name": "feeDenominator",
      "outputs": [
        {
          "internalType": "uint256",
          "name": "",
          "type": "uint256"
        }
      ],
      "stateMutability": "view",
      "type": "function"
    },
    {
      "inputs": [
        {
          "internalType": "address",
          "name": "_token",
          "type": "address"
        }
      ],
      "name": "getFairLaunchActive",
      "outputs": [
        {
          "internalType": "bool",
          "name": "",
          "type": "bool"
        }
      ],
      "stateMutability": "view",
      "type": "function"
    },
    {
      "inputs": [
        {
          "internalType": "uint256",
          "name": "_id",
          "type": "uint256"
        }
      ],
      "name": "getFairLaunchData",
      "outputs": [
        {
          "internalType": "enum FairLaunchStatus",
          "name": "",
          "type": "uint8"
        },
        {
          "internalType": "uint256",
          "name": "",
          "type": "uint256"
        }
      ],
      "stateMutability": "view",
      "type": "function"
    },
    {
      "inputs": [
        {
          "internalType": "uint256",
          "name": "_id",
          "type": "uint256"
        }
      ],
      "name": "getMaxCommittableETH",
      "outputs": [
        {
          "internalType": "uint256",
          "name": "",
          "type": "uint256"
        }
      ],
      "stateMutability": "view",
      "type": "function"
    },
    {
      "inputs": [
        {
          "internalType": "uint256",
          "name": "_id",
          "type": "uint256"
        },
        {
          "internalType": "uint256",
          "name": "_ethAmount",
          "type": "uint256"
        }
      ],
      "name": "getNativeToTokenAmount",
      "outputs": [
        {
          "internalType": "uint256",
          "name": "tokenAmount",
          "type": "uint256"
        }
      ],
      "stateMutability": "view",
      "type": "function"
    },
    {
      "inputs": [
        {
          "internalType": "uint256",
          "name": "_id",
          "type": "uint256"
        },
        {
          "internalType": "uint256",
          "name": "_delta",
          "type": "uint256"
        }
      ],
      "name": "getTokenToNativeToken",
      "outputs": [
        {
          "internalType": "uint256",
          "name": "ethValue",
          "type": "uint256"
        }
      ],
      "stateMutability": "view",
      "type": "function"
    },
    {
      "inputs": [
        {
          "internalType": "uint256",
          "name": "_id",
          "type": "uint256"
        },
        {
          "internalType": "address",
          "name": "_user",
          "type": "address"
        }
      ],
      "name": "getUserCommitment",
      "outputs": [
        {
          "components": [
            {
              "internalType": "uint256",
              "name": "amount",
              "type": "uint256"
            },
            {
              "internalType": "uint256",
              "name": "tokenAmount",
              "type": "uint256"
            },
            {
              "internalType": "bool",
              "name": "claimed",
              "type": "bool"
            },
            {
              "internalType": "bool",
              "name": "refunded",
              "type": "bool"
            }
          ],
          "internalType": "struct Commitment",
          "name": "",
          "type": "tuple"
        }
      ],
      "stateMutability": "view",
      "type": "function"
    },
    {
      "inputs": [],
      "name": "id",
      "outputs": [
        {
          "internalType": "uint256",
          "name": "",
          "type": "uint256"
        }
      ],
      "stateMutability": "view",
      "type": "function"
    },
    {
      "inputs": [
        {
          "internalType": "address",
          "name": "_creator",
          "type": "address"
        }
      ],
      "name": "isCreatorBlocked",
      "outputs": [
        {
          "internalType": "bool",
          "name": "blocked",
          "type": "bool"
        },
        {
          "internalType": "uint256",
          "name": "blockExpiresAt",
          "type": "uint256"
        }
      ],
      "stateMutability": "view",
      "type": "function"
    },
    {
      "inputs": [
        {
          "internalType": "address",
          "name": "_creator",
          "type": "address"
        }
      ],
      "name": "isMintable",
      "outputs": [
        {
          "internalType": "bool",
          "name": "",
          "type": "bool"
        }
      ],
      "stateMutability": "view",
      "type": "function"
    },
    {
      "inputs": [
        {
          "internalType": "uint256",
          "name": "_id",
          "type": "uint256"
        }
      ],
      "name": "isRefundable",
      "outputs": [
        {
          "internalType": "bool",
          "name": "",
          "type": "bool"
        }
      ],
      "stateMutability": "view",
      "type": "function"
    },
    {
      "inputs": [],
      "name": "memedFactory",
      "outputs": [
        {
          "internalType": "contract IMemedFactory",
          "name": "",
          "type": "address"
        }
      ],
      "stateMutability": "view",
      "type": "function"
    },
    {
      "inputs": [],
      "name": "owner",
      "outputs": [
        {
          "internalType": "address",
          "name": "",
          "type": "address"
        }
      ],
      "stateMutability": "view",
      "type": "function"
    },
    {
      "inputs": [],
      "name": "platformFeePercentage",
      "outputs": [
        {
          "internalType": "uint256",
          "name": "",
          "type": "uint256"
        }
      ],
      "stateMutability": "view",
      "type": "function"
    },
    {
      "inputs": [
        {
          "internalType": "uint256",
          "name": "s",
          "type": "uint256"
        }
      ],
      "name": "priceAt",
      "outputs": [
        {
          "internalType": "uint256",
          "name": "",
          "type": "uint256"
        }
      ],
      "stateMutability": "pure",
      "type": "function"
    },
    {
      "inputs": [
        {
          "internalType": "uint256",
          "name": "_id",
          "type": "uint256"
        }
      ],
      "name": "refund",
      "outputs": [],
      "stateMutability": "nonpayable",
      "type": "function"
    },
    {
      "inputs": [],
      "name": "renounceOwnership",
      "outputs": [],
      "stateMutability": "nonpayable",
      "type": "function"
    },
    {
      "inputs": [
        {
          "internalType": "uint256",
          "name": "_id",
          "type": "uint256"
        },
        {
          "internalType": "uint256",
          "name": "_amount",
          "type": "uint256"
        }
      ],
      "name": "sellTokens",
      "outputs": [],
      "stateMutability": "nonpayable",
      "type": "function"
    },
    {
      "inputs": [
        {
          "internalType": "address",
          "name": "_memedFactory",
          "type": "address"
        }
      ],
      "name": "setFactory",
      "outputs": [],
      "stateMutability": "nonpayable",
      "type": "function"
    },
    {
      "inputs": [
        {
          "internalType": "uint256",
          "name": "_platformFeePercentage",
          "type": "uint256"
        },
        {
          "internalType": "uint256",
          "name": "_feeDenominator",
          "type": "uint256"
        }
      ],
      "name": "setPlatformFee",
      "outputs": [],
      "stateMutability": "nonpayable",
      "type": "function"
    },
    {
      "inputs": [
        {
          "internalType": "address",
          "name": "_creator",
          "type": "address"
        }
      ],
      "name": "startFairLaunch",
      "outputs": [
        {
          "internalType": "uint256",
          "name": "",
          "type": "uint256"
        }
      ],
      "stateMutability": "nonpayable",
      "type": "function"
    },
    {
      "inputs": [
        {
          "internalType": "address",
          "name": "",
          "type": "address"
        }
      ],
      "name": "tokenIdByAddress",
      "outputs": [
        {
          "internalType": "uint256",
          "name": "",
          "type": "uint256"
        }
      ],
      "stateMutability": "view",
      "type": "function"
    },
    {
      "inputs": [
        {
          "internalType": "address",
          "name": "",
          "type": "address"
        },
        {
          "internalType": "uint256",
          "name": "",
          "type": "uint256"
        }
      ],
      "name": "tokenIdsByCreator",
      "outputs": [
        {
          "internalType": "uint256",
          "name": "",
          "type": "uint256"
        }
      ],
      "stateMutability": "view",
      "type": "function"
    },
    {
      "inputs": [
        {
          "internalType": "address",
          "name": "newOwner",
          "type": "address"
        }
      ],
      "name": "transferOwnership",
      "outputs": [],
      "stateMutability": "nonpayable",
      "type": "function"
    },
    {
      "stateMutability": "payable",
      "type": "receive"
    }
  ],
  "bytecode": "0x60806040526b033b2e3c9fd0803ce8000000600255600a6003556103e860045534801561002a575f5ffd5b50335f73ffffffffffffffffffffffffffffffffffffffff168173ffffffffffffffffffffffffffffffffffffffff160361009c575f6040517f1e4fbdf700000000000000000000000000000000000000000000000000000000815260040161009391906101b8565b60405180910390fd5b6100ab816100b860201b60201c565b50600180819055506101d1565b5f5f5f9054906101000a900473ffffffffffffffffffffffffffffffffffffffff169050815f5f6101000a81548173ffffffffffffffffffffffffffffffffffffffff021916908373ffffffffffffffffffffffffffffffffffffffff1602179055508173ffffffffffffffffffffffffffffffffffffffff168173ffffffffffffffffffffffffffffffffffffffff167f8be0079c531659141344cd1fd0a4f28419497f9722a3daafe3b4186f6b6457e060405160405180910390a35050565b5f73ffffffffffffffffffffffffffffffffffffffff82169050919050565b5f6101a282610179565b9050919050565b6101b281610198565b82525050565b5f6020820190506101cb5f8301846101a9565b92915050565b613e27806101de5f395ff3fe608060405260043610610212575f3560e01c80639dab205411610117578063dba64bb61161009f578063e8378fbf1161006e578063e8378fbf14610818578063eced552614610854578063ed9772b61461087e578063efa4a329146108a6578063f2fde38b146108d057610219565b8063dba64bb614610762578063dc5ea5d91461078c578063dd125a0a146107b4578063e0eeb3d3146107dc57610219565b8063af640d0f116100e6578063af640d0f14610654578063bcd658ad1461067e578063c06ac352146106bb578063cce6ef44146106fc578063cdd78cfc1461073857610219565b80639dab20541461058a578063abf599fc146105c6578063ad7738d4146105ee578063ae9abdf01461062a57610219565b806347b4812f1161019a57806375808d5b1161016957806375808d5b146104815780637f1b6bab146104be57806389945657146104fa5780638b7cc629146105365780638da5cb5b1461056057610219565b806347b4812f146103cb5780635bb478081461040757806365c252691461042f578063715018a61461046b57610219565b80632badbfc0116101e15780632badbfc0146102d55780632e0f2625146102ff5780632ff2e9dc14610329578063416155ac14610353578063468dacad1461038f57610219565b8063180b0d7e1461021d5780631eec71fb14610247578063222b15fb14610271578063278ecde1146102ad57610219565b3661021957005b5f5ffd5b348015610228575f5ffd5b506102316108f8565b60405161023e9190612c52565b60405180910390f35b348015610252575f5ffd5b5061025b6108fe565b6040516102689190612c52565b60405180910390f35b34801561027c575f5ffd5b5061029760048036038101906102929190612cc9565b610919565b6040516102a49190612d0e565b60405180910390f35b3480156102b8575f5ffd5b506102d360048036038101906102ce9190612d51565b610943565b005b3480156102e0575f5ffd5b506102e9610df5565b6040516102f69190612d8b565b60405180910390f35b34801561030a575f5ffd5b50610313610e0d565b6040516103209190612c52565b60405180910390f35b348015610334575f5ffd5b5061033d610e19565b60405161034a9190612c52565b60405180910390f35b34801561035e575f5ffd5b5061037960048036038101906103749190612cc9565b610e1f565b6040516103869190612d0e565b60405180910390f35b34801561039a575f5ffd5b506103b560048036038101906103b09190612da4565b610ec6565b6040516103c29190612e53565b60405180910390f35b3480156103d6575f5ffd5b506103f160048036038101906103ec9190612e6c565b610f78565b6040516103fe9190612c52565b60405180910390f35b348015610412575f5ffd5b5061042d60048036038101906104289190612cc9565b611087565b005b34801561043a575f5ffd5b5061045560048036038101906104509190612eaa565b611161565b6040516104629190612c52565b60405180910390f35b348015610476575f5ffd5b5061047f61118c565b005b34801561048c575f5ffd5b506104a760048036038101906104a29190612cc9565b61119f565b6040516104b5929190612ee8565b60405180910390f35b3480156104c9575f5ffd5b506104e460048036038101906104df9190612cc9565b6111eb565b6040516104f19190612c52565b60405180910390f35b348015610505575f5ffd5b50610520600480360381019061051b9190612d51565b611200565b60405161052d9190612c52565b60405180910390f35b348015610541575f5ffd5b5061054a6113db565b6040516105579190612c52565b60405180910390f35b34801561056b575f5ffd5b506105746113e8565b6040516105819190612d8b565b60405180910390f35b348015610595575f5ffd5b506105b060048036038101906105ab9190612d51565b61140f565b6040516105bd9190612c52565b60405180910390f35b3480156105d1575f5ffd5b506105ec60048036038101906105e79190612f0f565b611457565b005b3480156105f9575f5ffd5b50610614600480360381019061060f9190612e6c565b61168f565b6040516106219190612c52565b60405180910390f35b348015610635575f5ffd5b5061063e6117d5565b60405161064b9190612c52565b60405180910390f35b34801561065f575f5ffd5b506106686117e2565b6040516106759190612c52565b60405180910390f35b348015610689575f5ffd5b506106a4600480360381019061069f9190612d51565b6117e8565b6040516106b2929190612fd2565b60405180910390f35b3480156106c6575f5ffd5b506106e160048036038101906106dc9190612d51565b61181d565b6040516106f396959493929190612ff9565b60405180910390f35b348015610707575f5ffd5b50610722600480360381019061071d9190612d51565b611880565b60405161072f9190612d0e565b60405180910390f35b348015610743575f5ffd5b5061074c6118ca565b6040516107599190612c52565b60405180910390f35b34801561076d575f5ffd5b506107766118d0565b60405161078391906130b3565b60405180910390f35b348015610797575f5ffd5b506107b260048036038101906107ad9190612e6c565b6118f5565b005b3480156107bf575f5ffd5b506107da60048036038101906107d59190612e6c565b611948565b005b3480156107e7575f5ffd5b5061080260048036038101906107fd9190612cc9565b611e53565b60405161080f9190612c52565b60405180910390f35b348015610823575f5ffd5b5061083e60048036038101906108399190612cc9565b612098565b60405161084b9190612c52565b60405180910390f35b34801561085f575f5ffd5b506108686120ad565b6040516108759190612c52565b60405180910390f35b348015610889575f5ffd5b506108a4600480360381019061089f9190612e6c565b6120b9565b005b3480156108b1575f5ffd5b506108ba61251a565b6040516108c79190612c52565b60405180910390f35b3480156108db575f5ffd5b506108f660048036038101906108f19190612cc9565b612521565b005b60045481565b670de0b6b3a7640000630bebc20061091691906130f9565b81565b5f5f6109248361119f565b509050610930836125a5565b15801561093b575080155b915050919050565b61094b612732565b5f60075f8381526020019081526020015f20905061096882611880565b6109a7576040517f08c379a000000000000000000000000000000000000000000000000000000000815260040161099e90613194565b60405180910390fd5b6004808111156109ba576109b9612f5f565b5b815f015f9054906101000a900460ff1660048111156109dc576109db612f5f565b5b14610c1c576004815f015f6101000a81548160ff02191690836004811115610a0757610a06612f5f565b5b02179055505f62278d0042610a1c91906131b2565b905080600a5f60055f9054906101000a900473ffffffffffffffffffffffffffffffffffffffff1673ffffffffffffffffffffffffffffffffffffffff16635d3575a6876040518263ffffffff1660e01b8152600401610a7c9190612c52565b602060405180830381865afa158015610a97573d5f5f3e3d5ffd5b505050506040513d601f19601f82011682018060405250810190610abb91906131f9565b73ffffffffffffffffffffffffffffffffffffffff1673ffffffffffffffffffffffffffffffffffffffff1681526020019081526020015f208190555060055f9054906101000a900473ffffffffffffffffffffffffffffffffffffffff1673ffffffffffffffffffffffffffffffffffffffff16635d3575a6846040518263ffffffff1660e01b8152600401610b529190612c52565b602060405180830381865afa158015610b6d573d5f5f3e3d5ffd5b505050506040513d601f19601f82011682018060405250810190610b9191906131f9565b73ffffffffffffffffffffffffffffffffffffffff167fbcd955d7cef17ce72a0bc972618a13a1ea8cccd6447662596a5db5c43e0b587582604051610bd6919061326e565b60405180910390a2827f17150adeeda7158a6b2adf5e6065d6ad3f05dcbb2ab7520f383c53edf0f799f78360020154604051610c129190612c52565b60405180910390a2505b5f816005015f3373ffffffffffffffffffffffffffffffffffffffff1673ffffffffffffffffffffffffffffffffffffffff1681526020019081526020015f2090505f815f015411610ca3576040517f08c379a0000000000000000000000000000000000000000000000000000000008152600401610c9a906132e4565b60405180910390fd5b8060020160019054906101000a900460ff1615610cf5576040517f08c379a0000000000000000000000000000000000000000000000000000000008152600401610cec9061334c565b60405180910390fd5b5f73c190e6f26ce14e40d30251fde25927a73a5d58b673ffffffffffffffffffffffffffffffffffffffff1663a9059cbb33845f01546040518363ffffffff1660e01b8152600401610d4892919061336a565b6020604051808303815f875af1158015610d64573d5f5f3e3d5ffd5b505050506040513d601f19601f82011682018060405250810190610d8891906133bb565b905080610dca576040517f08c379a0000000000000000000000000000000000000000000000000000000008152600401610dc190613430565b60405180910390fd5b60018260020160016101000a81548160ff021916908315150217905550505050610df2612778565b50565b73c190e6f26ce14e40d30251fde25927a73a5d58b681565b670de0b6b3a764000081565b60025481565b5f5f60095f8473ffffffffffffffffffffffffffffffffffffffff1673ffffffffffffffffffffffffffffffffffffffff1681526020019081526020015f205490505f8103610e71575f915050610ec1565b5f60075f8381526020019081526020015f20905060016004811115610e9957610e98612f5f565b5b815f015f9054906101000a900460ff166004811115610ebb57610eba612f5f565b5b14925050505b919050565b610ece612c12565b60075f8481526020019081526020015f206005015f8373ffffffffffffffffffffffffffffffffffffffff1673ffffffffffffffffffffffffffffffffffffffff1681526020019081526020015f206040518060800160405290815f820154815260200160018201548152602001600282015f9054906101000a900460ff161515151581526020016002820160019054906101000a900460ff161515151581525050905092915050565b5f5f60075f8581526020019081526020015f2090505f8160030154905080841115610fd8576040517f08c379a0000000000000000000000000000000000000000000000000000000008152600401610fcf90613498565b60405180910390fd5b5f670de0b6b3a764000082610fed91906134e3565b90505f670de0b6b3a76400008661100491906134e3565b90505f8183600261101591906130f9565b61101f91906130f9565b90505f828361102e91906130f9565b90505f818361103d9190613513565b686c6b935b8bbd40000061105191906130f9565b90505f670de0b6b3a7640000600261106991906130f9565b9050808261107791906134e3565b9850505050505050505092915050565b61108f612781565b5f73ffffffffffffffffffffffffffffffffffffffff1660055f9054906101000a900473ffffffffffffffffffffffffffffffffffffffff1673ffffffffffffffffffffffffffffffffffffffff161461111e576040517f08c379a000000000000000000000000000000000000000000000000000000000815260040161111590613590565b60405180910390fd5b8060055f6101000a81548173ffffffffffffffffffffffffffffffffffffffff021916908373ffffffffffffffffffffffffffffffffffffffff16021790555050565b6008602052815f5260405f20818154811061117a575f80fd5b905f5260205f20015f91509150505481565b611194612781565b61119d5f612808565b565b5f5f600a5f8473ffffffffffffffffffffffffffffffffffffffff1673ffffffffffffffffffffffffffffffffffffffff1681526020019081526020015f205490508042109150915091565b600a602052805f5260405f205f915090505481565b5f5f60075f8481526020019081526020015f2090506001600481111561122957611228612f5f565b5b815f015f9054906101000a900460ff16600481111561124b5761124a612f5f565b5b14611259575f9150506113d6565b68022b1c8c1227a00000816002015410611276575f9150506113d6565b5f816002015468022b1c8c1227a000006112909190613513565b9050670de0b6b3a7640000630bebc2006112aa91906130f9565b8260030154106112be575f925050506113d6565b5f8260030154670de0b6b3a7640000630bebc2006112dc91906130f9565b6112e69190613513565b90505f836003015490505f670de0b6b3a76400008261130591906134e3565b90505f670de0b6b3a76400008461131c91906134e3565b90505f8183600261132d91906130f9565b61133791906130f9565b90505f828361134691906130f9565b90505f670de0b6b3a7640000600261135e91906130f9565b828461136a91906131b2565b686c6b935b8bbd40000061137e91906130f9565b61138891906134e3565b90505f818910611398578161139a565b885b90505f6003546004546113ad9190613513565b600454836113bb91906130f9565b6113c591906134e3565b9050809b5050505050505050505050505b919050565b686c6b935b8bbd40000081565b5f5f5f9054906101000a900473ffffffffffffffffffffffffffffffffffffffff16905090565b5f5f670de0b6b3a76400008361142591906134e3565b9050670de0b6b3a764000081686c6b935b8bbd40000061144591906130f9565b61144f91906134e3565b915050919050565b60055f9054906101000a900473ffffffffffffffffffffffffffffffffffffffff1673ffffffffffffffffffffffffffffffffffffffff163373ffffffffffffffffffffffffffffffffffffffff16146114e6576040517f08c379a00000000000000000000000000000000000000000000000000000000081526004016114dd9061361e565b60405180910390fd5b5f60075f8581526020019081526020015f2090506002600481111561150e5761150d612f5f565b5b815f015f9054906101000a900460ff1660048111156115305761152f612f5f565b5b14611570576040517f08c379a0000000000000000000000000000000000000000000000000000000008152600401611567906136ac565b60405180910390fd5b6003815f015f6101000a81548160ff0219169083600481111561159657611595612f5f565b5b021790555081816004015f6101000a81548173ffffffffffffffffffffffffffffffffffffffff021916908373ffffffffffffffffffffffffffffffffffffffff1602179055508360095f8573ffffffffffffffffffffffffffffffffffffffff1673ffffffffffffffffffffffffffffffffffffffff1681526020019081526020015f20819055508173ffffffffffffffffffffffffffffffffffffffff168373ffffffffffffffffffffffffffffffffffffffff16857fa50e0b9679f5601c270cdad10a93f0cf7343e8bc4cd12d6c16db0567dc44519584600201546040516116819190612c52565b60405180910390a450505050565b5f5f60075f8581526020019081526020015f2090505f816003015490505f84036116bd575f925050506117cf565b5f670de0b6b3a7640000826116d291906134e3565b90505f686c6b935b8bbd40000090505f82686c6b935b8bbd40000060026116f991906130f9565b61170391906130f9565b90505f818261171291906130f9565b90505f88670de0b6b3a7640000686c6b935b8bbd400000600861173591906130f9565b61173f91906130f9565b61174991906130f9565b90505f818361175891906131b2565b90505f611764826128c9565b905084811161177e575f99505050505050505050506117cf565b5f858261178b9190613513565b90505f87600261179b91906130f9565b90505f81836117aa91906134e3565b9050670de0b6b3a7640000816117c091906130f9565b9c505050505050505050505050505b92915050565b68022b1c8c1227a0000081565b60065481565b5f5f5f60075f8581526020019081526020015f209050805f015f9054906101000a900460ff1681600201549250925050915091565b6007602052805f5260405f205f91509050805f015f9054906101000a900460ff1690806001015490806002015490806003015490806004015f9054906101000a900473ffffffffffffffffffffffffffffffffffffffff16908060070154905086565b5f5f60075f8481526020019081526020015f20905062278d0081600101546118a891906131b2565b421180156118c2575068022b1c8c1227a000008160020154105b915050919050565b60035481565b60055f9054906101000a900473ffffffffffffffffffffffffffffffffffffffff1681565b6118fd612781565b81600381905550806004819055507fa30569950bb598ed8c92d36b49faae45e5cebba0f03647831e801b95cae04b3c828260405161193c9291906136ca565b60405180910390a15050565b611950612732565b5f60075f8481526020019081526020015f2090506001600481111561197857611977612f5f565b5b815f015f9054906101000a900460ff16600481111561199a57611999612f5f565b5b146119da576040517f08c379a00000000000000000000000000000000000000000000000000000000081526004016119d19061373b565b60405180910390fd5b62278d0081600101546119ed91906131b2565b421115611a2f576040517f08c379a0000000000000000000000000000000000000000000000000000000008152600401611a26906137a3565b60405180910390fd5b5f8211611a71576040517f08c379a0000000000000000000000000000000000000000000000000000000008152600401611a689061380b565b60405180910390fd5b73c190e6f26ce14e40d30251fde25927a73a5d58b673ffffffffffffffffffffffffffffffffffffffff166323b872dd3330856040518463ffffffff1660e01b8152600401611ac293929190613829565b6020604051808303815f875af1158015611ade573d5f5f3e3d5ffd5b505050506040513d601f19601f82011682018060405250810190611b0291906133bb565b505f60045460035484611b1591906130f9565b611b1f91906134e3565b90505f8184611b2e9190613513565b90505f611b3b868361168f565b90505f8111611b7f576040517f08c379a0000000000000000000000000000000000000000000000000000000008152600401611b76906138a8565b60405180910390fd5b670de0b6b3a7640000630bebc200611b9791906130f9565b818560030154611ba791906131b2565b1115611be8576040517f08c379a0000000000000000000000000000000000000000000000000000000008152600401611bdf90613910565b60405180910390fd5b5f831115611cd75773c190e6f26ce14e40d30251fde25927a73a5d58b673ffffffffffffffffffffffffffffffffffffffff1663a9059cbb611c286113e8565b856040518363ffffffff1660e01b8152600401611c4692919061336a565b6020604051808303815f875af1158015611c62573d5f5f3e3d5ffd5b505050506040513d601f19601f82011682018060405250810190611c8691906133bb565b503373ffffffffffffffffffffffffffffffffffffffff16867f6f125bf8171b68b20f1b35b7783bcadd05ce66efeb4e38768a9ddcb1092255d185604051611cce9190613978565b60405180910390a35b5f846005015f3373ffffffffffffffffffffffffffffffffffffffff1673ffffffffffffffffffffffffffffffffffffffff1681526020019081526020015f20905082815f015f828254611d2b91906131b2565b9250508190555081816001015f828254611d4591906131b2565b9250508190555081856003015f828254611d5f91906131b2565b9250508190555082856002015f828254611d7991906131b2565b9250508190555081856006015f3373ffffffffffffffffffffffffffffffffffffffff1673ffffffffffffffffffffffffffffffffffffffff1681526020019081526020015f205f828254611dce91906131b2565b925050819055503373ffffffffffffffffffffffffffffffffffffffff16877ff5882f2b24a419b3c13b05df32cf16a803f2fa76ec81659cdb868658816d424988604051611e1c9190612c52565b60405180910390a368022b1c8c1227a00000856002015410611e4257611e418761293a565b5b5050505050611e4f612778565b5050565b5f5f73ffffffffffffffffffffffffffffffffffffffff168273ffffffffffffffffffffffffffffffffffffffff1614611ed057611e9082610919565b611ecf576040517f08c379a0000000000000000000000000000000000000000000000000000000008152600401611ec690613a14565b60405180910390fd5b5b60055f9054906101000a900473ffffffffffffffffffffffffffffffffffffffff1673ffffffffffffffffffffffffffffffffffffffff163373ffffffffffffffffffffffffffffffffffffffff1614611f5f576040517f08c379a0000000000000000000000000000000000000000000000000000000008152600401611f5690613aa2565b60405180910390fd5b60065f815480929190611f7190613ac0565b91905055505f60075f60065481526020019081526020015f2090506001815f015f6101000a81548160ff02191690836004811115611fb257611fb1612f5f565b5b021790555042816001018190555042816007018190555060085f8473ffffffffffffffffffffffffffffffffffffffff1673ffffffffffffffffffffffffffffffffffffffff1681526020019081526020015f20600654908060018154018082558091505060019003905f5260205f20015f90919091909150558273ffffffffffffffffffffffffffffffffffffffff166006547fb6948299ea38c9d5ac9f98be169b0bff6eb2bf98881811a8518b8115731a7ebe4262278d004261207791906131b2565b6040516120859291906136ca565b60405180910390a3600654915050919050565b6009602052805f5260405f205f915090505481565b670de0b6b3a764000081565b6120c1612732565b5f8111612103576040517f08c379a00000000000000000000000000000000000000000000000000000000081526004016120fa90613b51565b60405180910390fd5b8060075f8481526020019081526020015f206006015f3373ffffffffffffffffffffffffffffffffffffffff1673ffffffffffffffffffffffffffffffffffffffff1681526020019081526020015f20541015612195576040517f08c379a000000000000000000000000000000000000000000000000000000000815260040161218c90613bb9565b60405180910390fd5b5f60075f8481526020019081526020015f2090505f6121b48484610f78565b90505f600454600354836121c891906130f9565b6121d291906134e3565b90505f81836121e19190613513565b90508273c190e6f26ce14e40d30251fde25927a73a5d58b673ffffffffffffffffffffffffffffffffffffffff166370a08231306040518263ffffffff1660e01b81526004016122319190612d8b565b602060405180830381865afa15801561224c573d5f5f3e3d5ffd5b505050506040513d601f19601f820116820180604052508101906122709190613beb565b10156122b1576040517f08c379a00000000000000000000000000000000000000000000000000000000081526004016122a890613c60565b60405180910390fd5b5f8211156123a05773c190e6f26ce14e40d30251fde25927a73a5d58b673ffffffffffffffffffffffffffffffffffffffff1663a9059cbb6122f16113e8565b846040518363ffffffff1660e01b815260040161230f92919061336a565b6020604051808303815f875af115801561232b573d5f5f3e3d5ffd5b505050506040513d601f19601f8201168201806040525081019061234f91906133bb565b503373ffffffffffffffffffffffffffffffffffffffff16867f6f125bf8171b68b20f1b35b7783bcadd05ce66efeb4e38768a9ddcb1092255d1846040516123979190613cc8565b60405180910390a35b84846006015f3373ffffffffffffffffffffffffffffffffffffffff1673ffffffffffffffffffffffffffffffffffffffff1681526020019081526020015f205f8282546123ee9190613513565b9250508190555084846003015f8282546124089190613513565b9250508190555082846002015f8282546124229190613513565b9250508190555073c190e6f26ce14e40d30251fde25927a73a5d58b673ffffffffffffffffffffffffffffffffffffffff1663a9059cbb33836040518363ffffffff1660e01b815260040161247892919061336a565b6020604051808303815f875af1158015612494573d5f5f3e3d5ffd5b505050506040513d601f19601f820116820180604052508101906124b891906133bb565b503373ffffffffffffffffffffffffffffffffffffffff16867ff37a75478aa82ebef98fa4a7c71324f93c6c5d6236ba80a86ed5f703dc55203887846040516125029291906136ca565b60405180910390a350505050612516612778565b5050565b62278d0081565b612529612781565b5f73ffffffffffffffffffffffffffffffffffffffff168173ffffffffffffffffffffffffffffffffffffffff1603612599575f6040517f1e4fbdf70000000000000000000000000000000000000000000000000000000081526004016125909190612d8b565b60405180910390fd5b6125a281612808565b50565b5f5f60085f8473ffffffffffffffffffffffffffffffffffffffff1673ffffffffffffffffffffffffffffffffffffffff1681526020019081526020015f2080548060200260200160405190810160405280929190818152602001828054801561262c57602002820191905f5260205f20905b815481526020019060010190808311612618575b505050505090505f5f90505b8151811015612727576003600481111561265557612654612f5f565b5b60075f84848151811061266b5761266a613cf4565b5b602002602001015181526020019081526020015f205f015f9054906101000a900460ff1660048111156126a1576126a0612f5f565b5b148061270a5750600160048111156126bc576126bb612f5f565b5b60075f8484815181106126d2576126d1613cf4565b5b602002602001015181526020019081526020015f205f015f9054906101000a900460ff16600481111561270857612707612f5f565b5b145b1561271a5760019250505061272d565b8080600101915050612638565b505f9150505b919050565b60026001540361276e576040517f3ee5aeb500000000000000000000000000000000000000000000000000000000815260040160405180910390fd5b6002600181905550565b60018081905550565b612789612c0b565b73ffffffffffffffffffffffffffffffffffffffff166127a76113e8565b73ffffffffffffffffffffffffffffffffffffffff1614612806576127ca612c0b565b6040517f118cdaa70000000000000000000000000000000000000000000000000000000081526004016127fd9190612d8b565b60405180910390fd5b565b5f5f5f9054906101000a900473ffffffffffffffffffffffffffffffffffffffff169050815f5f6101000a81548173ffffffffffffffffffffffffffffffffffffffff021916908373ffffffffffffffffffffffffffffffffffffffff1602179055508173ffffffffffffffffffffffffffffffffffffffff168173ffffffffffffffffffffffffffffffffffffffff167f8be0079c531659141344cd1fd0a4f28419497f9722a3daafe3b4186f6b6457e060405160405180910390a35050565b5f5f82036128d9575f9050612935565b5f60026001846128e991906131b2565b6128f391906134e3565b90505f8390505b8082101561292f57819050600282838661291491906134e3565b61291e91906131b2565b61292891906134e3565b91506128fa565b80925050505b919050565b5f60075f8381526020019081526020015f2090506001600481111561296257612961612f5f565b5b815f015f9054906101000a900460ff16600481111561298457612983612f5f565b5b146129c4576040517f08c379a00000000000000000000000000000000000000000000000000000000081526004016129bb90613d6b565b60405180910390fd5b5f816003015490505f6129d68261140f565b90505f8111612a1a576040517f08c379a0000000000000000000000000000000000000000000000000000000008152600401612a1190613dd3565b60405180910390fd5b5f81670de0b6b3a764000068022b1c8c1227a00000612a3991906130f9565b612a4391906134e3565b90505f83670de0b6b3a7640000630bebc200612a5f91906130f9565b612a699190613513565b905080821115612a77578091505b6003855f015f6101000a81548160ff02191690836004811115612a9d57612a9c612f5f565b5b02179055505f73c190e6f26ce14e40d30251fde25927a73a5d58b673ffffffffffffffffffffffffffffffffffffffff1663a9059cbb60055f9054906101000a900473ffffffffffffffffffffffffffffffffffffffff1688600201546040518363ffffffff1660e01b8152600401612b1792919061336a565b6020604051808303815f875af1158015612b33573d5f5f3e3d5ffd5b505050506040513d601f19601f82011682018060405250810190612b5791906133bb565b905080612b99576040517f08c379a0000000000000000000000000000000000000000000000000000000008152600401612b9090613430565b60405180910390fd5b6002865f015f6101000a81548160ff02191690836004811115612bbf57612bbe612f5f565b5b0217905550867f1a7333d4a8e3da2ea5a9db3d4c061100dd99472e61af794621abdbbd680214e1876002015485604051612bfa9291906136ca565b60405180910390a250505050505050565b5f33905090565b60405180608001604052805f81526020015f81526020015f151581526020015f151581525090565b5f819050919050565b612c4c81612c3a565b82525050565b5f602082019050612c655f830184612c43565b92915050565b5f5ffd5b5f73ffffffffffffffffffffffffffffffffffffffff82169050919050565b5f612c9882612c6f565b9050919050565b612ca881612c8e565b8114612cb2575f5ffd5b50565b5f81359050612cc381612c9f565b92915050565b5f60208284031215612cde57612cdd612c6b565b5b5f612ceb84828501612cb5565b91505092915050565b5f8115159050919050565b612d0881612cf4565b82525050565b5f602082019050612d215f830184612cff565b92915050565b612d3081612c3a565b8114612d3a575f5ffd5b50565b5f81359050612d4b81612d27565b92915050565b5f60208284031215612d6657612d65612c6b565b5b5f612d7384828501612d3d565b91505092915050565b612d8581612c8e565b82525050565b5f602082019050612d9e5f830184612d7c565b92915050565b5f5f60408385031215612dba57612db9612c6b565b5b5f612dc785828601612d3d565b9250506020612dd885828601612cb5565b9150509250929050565b612deb81612c3a565b82525050565b612dfa81612cf4565b82525050565b608082015f820151612e145f850182612de2565b506020820151612e276020850182612de2565b506040820151612e3a6040850182612df1565b506060820151612e4d6060850182612df1565b50505050565b5f608082019050612e665f830184612e00565b92915050565b5f5f60408385031215612e8257612e81612c6b565b5b5f612e8f85828601612d3d565b9250506020612ea085828601612d3d565b9150509250929050565b5f5f60408385031215612ec057612ebf612c6b565b5b5f612ecd85828601612cb5565b9250506020612ede85828601612d3d565b9150509250929050565b5f604082019050612efb5f830185612cff565b612f086020830184612c43565b9392505050565b5f5f5f60608486031215612f2657612f25612c6b565b5b5f612f3386828701612d3d565b9350506020612f4486828701612cb5565b9250506040612f5586828701612cb5565b9150509250925092565b7f4e487b71000000000000000000000000000000000000000000000000000000005f52602160045260245ffd5b60058110612f9d57612f9c612f5f565b5b50565b5f819050612fad82612f8c565b919050565b5f612fbc82612fa0565b9050919050565b612fcc81612fb2565b82525050565b5f604082019050612fe55f830185612fc3565b612ff26020830184612c43565b9392505050565b5f60c08201905061300c5f830189612fc3565b6130196020830188612c43565b6130266040830187612c43565b6130336060830186612c43565b6130406080830185612d7c565b61304d60a0830184612c43565b979650505050505050565b5f819050919050565b5f61307b61307661307184612c6f565b613058565b612c6f565b9050919050565b5f61308c82613061565b9050919050565b5f61309d82613082565b9050919050565b6130ad81613093565b82525050565b5f6020820190506130c65f8301846130a4565b92915050565b7f4e487b71000000000000000000000000000000000000000000000000000000005f52601160045260245ffd5b5f61310382612c3a565b915061310e83612c3a565b925082820261311c81612c3a565b91508282048414831517613133576131326130cc565b5b5092915050565b5f82825260208201905092915050565b7f46616972206c61756e6368206e6f74206661696c6564000000000000000000005f82015250565b5f61317e60168361313a565b91506131898261314a565b602082019050919050565b5f6020820190508181035f8301526131ab81613172565b9050919050565b5f6131bc82612c3a565b91506131c783612c3a565b92508282019050808211156131df576131de6130cc565b5b92915050565b5f815190506131f381612c9f565b92915050565b5f6020828403121561320e5761320d612c6b565b5b5f61321b848285016131e5565b91505092915050565b7f4661696c65642066616972206c61756e636800000000000000000000000000005f82015250565b5f61325860128361313a565b915061326382613224565b602082019050919050565b5f6040820190506132815f830184612c43565b81810360208301526132928161324c565b905092915050565b7f4e6f20636f6d6d69746d656e74000000000000000000000000000000000000005f82015250565b5f6132ce600d8361313a565b91506132d98261329a565b602082019050919050565b5f6020820190508181035f8301526132fb816132c2565b9050919050565b7f416c726561647920726566756e646564000000000000000000000000000000005f82015250565b5f61333660108361313a565b915061334182613302565b602082019050919050565b5f6020820190508181035f8301526133638161332a565b9050919050565b5f60408201905061337d5f830185612d7c565b61338a6020830184612c43565b9392505050565b61339a81612cf4565b81146133a4575f5ffd5b50565b5f815190506133b581613391565b92915050565b5f602082840312156133d0576133cf612c6b565b5b5f6133dd848285016133a7565b91505092915050565b7f5472616e73666572206661696c656400000000000000000000000000000000005f82015250565b5f61341a600f8361313a565b9150613425826133e6565b602082019050919050565b5f6020820190508181035f8301526134478161340e565b9050919050565b7f64656c7461203e207300000000000000000000000000000000000000000000005f82015250565b5f61348260098361313a565b915061348d8261344e565b602082019050919050565b5f6020820190508181035f8301526134af81613476565b9050919050565b7f4e487b71000000000000000000000000000000000000000000000000000000005f52601260045260245ffd5b5f6134ed82612c3a565b91506134f883612c3a565b925082613508576135076134b6565b5b828204905092915050565b5f61351d82612c3a565b915061352883612c3a565b92508282039050818111156135405761353f6130cc565b5b92915050565b7f466163746f727920616c726561647920736574000000000000000000000000005f82015250565b5f61357a60138361313a565b915061358582613546565b602082019050919050565b5f6020820190508181035f8301526135a78161356e565b9050919050565b7f4f6e6c7920666163746f72792063616e2063616c6c20746869732066756e63745f8201527f696f6e0000000000000000000000000000000000000000000000000000000000602082015250565b5f61360860238361313a565b9150613613826135ae565b604082019050919050565b5f6020820190508181035f830152613635816135fc565b9050919050565b7f46616972206c61756e6368206e6f7420726561647920746f20636f6d706c65745f8201527f6500000000000000000000000000000000000000000000000000000000000000602082015250565b5f61369660218361313a565b91506136a18261363c565b604082019050919050565b5f6020820190508181035f8301526136c38161368a565b9050919050565b5f6040820190506136dd5f830185612c43565b6136ea6020830184612c43565b9392505050565b7f46616972206c61756e6368206e6f7420616374697665000000000000000000005f82015250565b5f61372560168361313a565b9150613730826136f1565b602082019050919050565b5f6020820190508181035f83015261375281613719565b9050919050565b7f46616972206c61756e636820656e6465640000000000000000000000000000005f82015250565b5f61378d60118361313a565b915061379882613759565b602082019050919050565b5f6020820190508181035f8301526137ba81613781565b9050919050565b7f4d7573742073656e6420455448000000000000000000000000000000000000005f82015250565b5f6137f5600d8361313a565b9150613800826137c1565b602082019050919050565b5f6020820190508181035f830152613822816137e9565b9050919050565b5f60608201905061383c5f830186612d7c565b6138496020830185612d7c565b6138566040830184612c43565b949350505050565b7f496e73756666696369656e7420455448000000000000000000000000000000005f82015250565b5f61389260108361313a565b915061389d8261385e565b602082019050919050565b5f6020820190508181035f8301526138bf81613886565b9050919050565b7f4578636565647320746f6b656e7320666f722073616c650000000000000000005f82015250565b5f6138fa60178361313a565b9150613905826138c6565b602082019050919050565b5f6020820190508181035f830152613927816138ee565b9050919050565b7f62757900000000000000000000000000000000000000000000000000000000005f82015250565b5f61396260038361313a565b915061396d8261392e565b602082019050919050565b5f60408201905061398b5f830184612c43565b818103602083015261399c81613956565b905092915050565b7f43726561746f7220697320626c6f636b6564206f7220616c72656164792068615f8201527f73206120746f6b656e0000000000000000000000000000000000000000000000602082015250565b5f6139fe60298361313a565b9150613a09826139a4565b604082019050919050565b5f6020820190508181035f830152613a2b816139f2565b9050919050565b7f4f6e6c7920666163746f72792063616e2073746172742066616972206c61756e5f8201527f6368000000000000000000000000000000000000000000000000000000000000602082015250565b5f613a8c60228361313a565b9150613a9782613a32565b604082019050919050565b5f6020820190508181035f830152613ab981613a80565b9050919050565b5f613aca82612c3a565b91507fffffffffffffffffffffffffffffffffffffffffffffffffffffffffffffffff8203613afc57613afb6130cc565b5b600182019050919050565b7f416d6f756e74206d75737420626520706f7369746976650000000000000000005f82015250565b5f613b3b60178361313a565b9150613b4682613b07565b602082019050919050565b5f6020820190508181035f830152613b6881613b2f565b9050919050565b7f496e73756666696369656e7420746f6b656e2062616c616e63650000000000005f82015250565b5f613ba3601a8361313a565b9150613bae82613b6f565b602082019050919050565b5f6020820190508181035f830152613bd081613b97565b9050919050565b5f81519050613be581612d27565b92915050565b5f60208284031215613c0057613bff612c6b565b5b5f613c0d84828501613bd7565b91505092915050565b7f496e73756666696369656e742045544820696e20636f6e7472616374000000005f82015250565b5f613c4a601c8361313a565b9150613c5582613c16565b602082019050919050565b5f6020820190508181035f830152613c7781613c3e565b9050919050565b7f73656c6c000000000000000000000000000000000000000000000000000000005f82015250565b5f613cb260048361313a565b9150613cbd82613c7e565b602082019050919050565b5f604082019050613cdb5f830184612c43565b8181036020830152613cec81613ca6565b905092915050565b7f4e487b71000000000000000000000000000000000000000000000000000000005f52603260045260245ffd5b7f46616972206c61756e6368206e6f74206c61756e6368696e67000000000000005f82015250565b5f613d5560198361313a565b9150613d6082613d21565b602082019050919050565b5f6020820190508181035f830152613d8281613d49565b9050919050565b7f7072696365207a65726f000000000000000000000000000000000000000000005f82015250565b5f613dbd600a8361313a565b9150613dc882613d89565b602082019050919050565b5f6020820190508181035f830152613dea81613db1565b905091905056fea2646970667358221220084e2ccc434f76cada790b562ded303da932dd8b7f04e98beee4583857d2cfdc64736f6c634300081c0033",
  "linkReferences": {},
  "deployedLinkReferences": {},
  "immutableReferences": {},
  "inputSourceName": "project/contracts/MemedTokenSale_test.sol",
  "buildInfoId": "solc-0_8_28-d994fcd13e888502bb11064b090c2cb9067d30ca"
}