{
  "_format": "hh3-artifact-1",
  "contractName": "MemedFactory",
  "sourceName": "contracts/MemedFactory.sol",
  "abi": [
    {
      "inputs": [
        {
          "internalType": "address",
          "name": "_memedTokenSale",
          "type": "address"
        },
        {
          "internalType": "address",
          "name": "_memedBattle",
          "type": "address"
        },
        {
          "internalType": "address",
          "name": "_memedEngageToEarn",
          "type": "address"
        },
        {
          "internalType": "address",
          "name": "_swapRouter",
          "type": "address"
        }
      ],
      "stateMutability": "nonpayable",
      "type": "constructor"
    },
    {
      "inputs": [
        {
          "internalType": "address",
          "name": "owner",
          "type": "address"
        }
      ],
      "name": "OwnableInvalidOwner",
      "type": "error"
    },
    {
      "inputs": [
        {
          "internalType": "address",
          "name": "account",
          "type": "address"
        }
      ],
      "name": "OwnableUnauthorizedAccount",
      "type": "error"
    },
    {
      "inputs": [],
      "name": "R",
      "type": "error"
    },
    {
      "inputs": [],
      "name": "ReentrancyGuardReentrantCall",
      "type": "error"
    },
    {
      "inputs": [],
      "name": "T",
      "type": "error"
    },
    {
      "anonymous": false,
      "inputs": [
        {
          "indexed": true,
          "internalType": "address",
          "name": "winner",
          "type": "address"
        },
        {
          "indexed": true,
          "internalType": "address",
          "name": "loser",
          "type": "address"
        },
        {
          "indexed": false,
          "internalType": "uint256",
          "name": "creatorIncentivesUnlocksAtWinner",
          "type": "uint256"
        },
        {
          "indexed": false,
          "internalType": "uint256",
          "name": "creatorIncentivesUnlocksAtLoser",
          "type": "uint256"
        }
      ],
      "name": "BattleUpdated",
      "type": "event"
    },
    {
      "anonymous": false,
      "inputs": [
        {
          "indexed": true,
          "internalType": "address",
          "name": "token",
          "type": "address"
        },
        {
          "indexed": false,
          "internalType": "uint256",
          "name": "heat",
          "type": "uint256"
        },
        {
          "indexed": false,
          "internalType": "uint256",
          "name": "timestamp",
          "type": "uint256"
        }
      ],
      "name": "HeatUpdated",
      "type": "event"
    },
    {
      "anonymous": false,
      "inputs": [
        {
          "indexed": true,
          "internalType": "address",
          "name": "previousOwner",
          "type": "address"
        },
        {
          "indexed": true,
          "internalType": "address",
          "name": "newOwner",
          "type": "address"
        }
      ],
      "name": "OwnershipTransferred",
      "type": "event"
    },
    {
      "anonymous": false,
      "inputs": [
        {
          "indexed": true,
          "internalType": "uint256",
          "name": "id",
          "type": "uint256"
        },
        {
          "indexed": true,
          "internalType": "address",
          "name": "token",
          "type": "address"
        },
        {
          "indexed": true,
          "internalType": "address",
          "name": "warriorNFT",
          "type": "address"
        }
      ],
      "name": "TokenCompletedFairLaunch",
      "type": "event"
    },
    {
      "anonymous": false,
      "inputs": [
        {
          "indexed": true,
          "internalType": "uint256",
          "name": "id",
          "type": "uint256"
        },
        {
          "indexed": true,
          "internalType": "address",
          "name": "token",
          "type": "address"
        },
        {
          "indexed": true,
          "internalType": "address",
          "name": "owner",
          "type": "address"
        },
        {
          "indexed": false,
          "internalType": "bool",
          "name": "isClaimedByCreator",
          "type": "bool"
        },
        {
          "indexed": false,
          "internalType": "uint256",
          "name": "endTime",
          "type": "uint256"
        }
      ],
      "name": "TokenCreated",
      "type": "event"
    },
    {
      "inputs": [],
      "name": "BATTLE_REWARDS_PERCENTAGE",
      "outputs": [
        {
          "internalType": "uint256",
          "name": "",
          "type": "uint256"
        }
      ],
      "stateMutability": "view",
      "type": "function"
    },
    {
      "inputs": [],
      "name": "CREATOR_INCENTIVE_STEP",
      "outputs": [
        {
          "internalType": "uint256",
          "name": "",
          "type": "uint256"
        }
      ],
      "stateMutability": "view",
      "type": "function"
    },
    {
      "inputs": [],
      "name": "ENGAGEMENT_REWARDS_PER_NEW_HEAT",
      "outputs": [
        {
          "internalType": "uint256",
          "name": "",
          "type": "uint256"
        }
      ],
      "stateMutability": "view",
      "type": "function"
    },
    {
      "inputs": [],
      "name": "INITIAL_REWARDS_PER_HEAT",
      "outputs": [
        {
          "internalType": "uint256",
          "name": "",
          "type": "uint256"
        }
      ],
      "stateMutability": "view",
      "type": "function"
    },
    {
      "inputs": [],
      "name": "MAX_ENGAGE_CREATOR_REWARD_PERCENTAGE",
      "outputs": [
        {
          "internalType": "uint256",
          "name": "",
          "type": "uint256"
        }
      ],
      "stateMutability": "view",
      "type": "function"
    },
    {
      "inputs": [],
      "name": "MAX_ENGAGE_USER_REWARD_PERCENTAGE",
      "outputs": [
        {
          "internalType": "uint256",
          "name": "",
          "type": "uint256"
        }
      ],
      "stateMutability": "view",
      "type": "function"
    },
    {
      "inputs": [],
      "name": "POOL_FEE",
      "outputs": [
        {
          "internalType": "uint24",
          "name": "",
          "type": "uint24"
        }
      ],
      "stateMutability": "view",
      "type": "function"
    },
    {
      "inputs": [],
      "name": "REWARD_PER_ENGAGEMENT",
      "outputs": [
        {
          "internalType": "uint256",
          "name": "",
          "type": "uint256"
        }
      ],
      "stateMutability": "view",
      "type": "function"
    },
    {
      "inputs": [],
      "name": "WETH",
      "outputs": [
        {
          "internalType": "address",
          "name": "",
          "type": "address"
        }
      ],
      "stateMutability": "view",
      "type": "function"
    },
    {
      "inputs": [
        {
          "internalType": "address",
          "name": "_winner",
          "type": "address"
        },
        {
          "internalType": "address",
          "name": "_loser",
          "type": "address"
        }
      ],
      "name": "battleUpdate",
      "outputs": [],
      "stateMutability": "nonpayable",
      "type": "function"
    },
    {
      "inputs": [
        {
          "internalType": "address",
          "name": "_token",
          "type": "address"
        },
        {
          "internalType": "address",
          "name": "_creator",
          "type": "address"
        }
      ],
      "name": "claimToken",
      "outputs": [],
      "stateMutability": "nonpayable",
      "type": "function"
    },
    {
      "inputs": [
        {
          "internalType": "address",
          "name": "_token",
          "type": "address"
        }
      ],
      "name": "collectFees",
      "outputs": [
        {
          "internalType": "uint256",
          "name": "amount0",
          "type": "uint256"
        },
        {
          "internalType": "uint256",
          "name": "amount1",
          "type": "uint256"
        }
      ],
      "stateMutability": "nonpayable",
      "type": "function"
    },
    {
      "inputs": [
        {
          "internalType": "uint256",
          "name": "_id",
          "type": "uint256"
        },
        {
          "internalType": "address",
          "name": "_token",
          "type": "address"
        },
        {
          "internalType": "address",
          "name": "_warriorNFT",
          "type": "address"
        }
      ],
      "name": "completeFairLaunch",
      "outputs": [],
      "stateMutability": "nonpayable",
      "type": "function"
    },
    {
      "inputs": [
        {
          "internalType": "address",
          "name": "_token",
          "type": "address"
        }
      ],
      "name": "getByToken",
      "outputs": [
        {
          "components": [
            {
              "internalType": "address",
              "name": "token",
              "type": "address"
            },
            {
              "internalType": "address",
              "name": "warriorNFT",
              "type": "address"
            },
            {
              "internalType": "address",
              "name": "creator",
              "type": "address"
            },
            {
              "internalType": "bool",
              "name": "isClaimedByCreator",
              "type": "bool"
            }
          ],
          "internalType": "struct TokenData",
          "name": "",
          "type": "tuple"
        }
      ],
      "stateMutability": "view",
      "type": "function"
    },
    {
      "inputs": [
        {
          "internalType": "uint256",
          "name": "_id",
          "type": "uint256"
        }
      ],
      "name": "getCreatorById",
      "outputs": [
        {
          "internalType": "address",
          "name": "",
          "type": "address"
        }
      ],
      "stateMutability": "view",
      "type": "function"
    },
    {
      "inputs": [
        {
          "internalType": "address",
          "name": "_token",
          "type": "address"
        }
      ],
      "name": "getHeat",
      "outputs": [
        {
          "internalType": "uint256",
          "name": "",
          "type": "uint256"
        }
      ],
      "stateMutability": "view",
      "type": "function"
    },
    {
      "inputs": [],
      "name": "getMemedBattle",
      "outputs": [
        {
          "internalType": "address",
          "name": "",
          "type": "address"
        }
      ],
      "stateMutability": "view",
      "type": "function"
    },
    {
      "inputs": [],
      "name": "getMemedEngageToEarn",
      "outputs": [
        {
          "internalType": "contract IMemedEngageToEarn",
          "name": "",
          "type": "address"
        }
      ],
      "stateMutability": "view",
      "type": "function"
    },
    {
      "inputs": [
        {
          "internalType": "address",
          "name": "_token",
          "type": "address"
        }
      ],
      "name": "getTokenByAddress",
      "outputs": [
        {
          "components": [
            {
              "internalType": "address",
              "name": "token",
              "type": "address"
            },
            {
              "internalType": "address",
              "name": "warriorNFT",
              "type": "address"
            },
            {
              "internalType": "address",
              "name": "creator",
              "type": "address"
            },
            {
              "internalType": "bool",
              "name": "isClaimedByCreator",
              "type": "bool"
            }
          ],
          "internalType": "struct TokenData",
          "name": "",
          "type": "tuple"
        }
      ],
      "stateMutability": "view",
      "type": "function"
    },
    {
      "inputs": [
        {
          "internalType": "uint256",
          "name": "_id",
          "type": "uint256"
        }
      ],
      "name": "getTokenById",
      "outputs": [
        {
          "components": [
            {
              "internalType": "address",
              "name": "token",
              "type": "address"
            },
            {
              "internalType": "address",
              "name": "warriorNFT",
              "type": "address"
            },
            {
              "internalType": "address",
              "name": "creator",
              "type": "address"
            },
            {
              "internalType": "bool",
              "name": "isClaimedByCreator",
              "type": "bool"
            }
          ],
          "internalType": "struct TokenData",
          "name": "",
          "type": "tuple"
        }
      ],
      "stateMutability": "view",
      "type": "function"
    },
    {
      "inputs": [],
      "name": "getTokens",
      "outputs": [
        {
          "components": [
            {
              "internalType": "address",
              "name": "token",
              "type": "address"
            },
            {
              "internalType": "address",
              "name": "warriorNFT",
              "type": "address"
            },
            {
              "internalType": "address",
              "name": "creator",
              "type": "address"
            },
            {
              "internalType": "bool",
              "name": "isClaimedByCreator",
              "type": "bool"
            }
          ],
          "internalType": "struct TokenData[]",
          "name": "",
          "type": "tuple[]"
        }
      ],
      "stateMutability": "view",
      "type": "function"
    },
    {
      "inputs": [
        {
          "internalType": "address",
          "name": "_token",
          "type": "address"
        }
      ],
      "name": "getWarriorNFT",
      "outputs": [
        {
          "internalType": "address",
          "name": "",
          "type": "address"
        }
      ],
      "stateMutability": "view",
      "type": "function"
    },
    {
      "inputs": [
        {
          "internalType": "address",
          "name": "",
          "type": "address"
        }
      ],
      "name": "lpTokenIds",
      "outputs": [
        {
          "internalType": "uint256",
          "name": "",
          "type": "uint256"
        }
      ],
      "stateMutability": "view",
      "type": "function"
    },
    {
      "inputs": [],
      "name": "memedBattle",
      "outputs": [
        {
          "internalType": "contract IMemedBattle",
          "name": "",
          "type": "address"
        }
      ],
      "stateMutability": "view",
      "type": "function"
    },
    {
      "inputs": [],
      "name": "memedEngageToEarn",
      "outputs": [
        {
          "internalType": "contract IMemedEngageToEarn",
          "name": "",
          "type": "address"
        }
      ],
      "stateMutability": "view",
      "type": "function"
    },
    {
      "inputs": [],
      "name": "memedTokenSale",
      "outputs": [
        {
          "internalType": "contract IMemedTokenSale",
          "name": "",
          "type": "address"
        }
      ],
      "stateMutability": "view",
      "type": "function"
    },
    {
      "inputs": [],
      "name": "owner",
      "outputs": [
        {
          "internalType": "address",
          "name": "",
          "type": "address"
        }
      ],
      "stateMutability": "view",
      "type": "function"
    },
    {
      "inputs": [],
      "name": "positionManager",
      "outputs": [
        {
          "internalType": "contract INonfungiblePositionManager",
          "name": "",
          "type": "address"
        }
      ],
      "stateMutability": "view",
      "type": "function"
    },
    {
      "inputs": [],
      "name": "renounceOwnership",
      "outputs": [],
      "stateMutability": "nonpayable",
      "type": "function"
    },
    {
      "inputs": [
        {
          "internalType": "address",
          "name": "_creator",
          "type": "address"
        }
      ],
      "name": "startFairLaunch",
      "outputs": [],
      "stateMutability": "nonpayable",
      "type": "function"
    },
    {
      "inputs": [
        {
          "internalType": "uint256",
          "name": "_amount",
          "type": "uint256"
        },
        {
          "internalType": "address[]",
          "name": "_path",
          "type": "address[]"
        },
        {
          "internalType": "address",
          "name": "_to",
          "type": "address"
        }
      ],
      "name": "swap",
      "outputs": [
        {
          "internalType": "uint256",
          "name": "",
          "type": "uint256"
        }
      ],
      "stateMutability": "nonpayable",
      "type": "function"
    },
    {
      "inputs": [],
      "name": "swapRouter",
      "outputs": [
        {
          "internalType": "contract ISwapRouter",
          "name": "",
          "type": "address"
        }
      ],
      "stateMutability": "view",
      "type": "function"
    },
    {
      "inputs": [
        {
          "internalType": "uint256",
          "name": "",
          "type": "uint256"
        }
      ],
      "name": "tokenData",
      "outputs": [
        {
          "internalType": "address",
          "name": "token",
          "type": "address"
        },
        {
          "internalType": "address",
          "name": "warriorNFT",
          "type": "address"
        },
        {
          "internalType": "address",
          "name": "creator",
          "type": "address"
        },
        {
          "internalType": "bool",
          "name": "isClaimedByCreator",
          "type": "bool"
        }
      ],
      "stateMutability": "view",
      "type": "function"
    },
    {
      "inputs": [
        {
          "internalType": "uint256",
          "name": "",
          "type": "uint256"
        }
      ],
      "name": "tokenRewardData",
      "outputs": [
        {
          "internalType": "uint256",
          "name": "lastRewardAt",
          "type": "uint256"
        },
        {
          "internalType": "uint256",
          "name": "creatorIncentivesUnlocksAt",
          "type": "uint256"
        },
        {
          "internalType": "uint256",
          "name": "creatorIncentivesUnlockedAt",
          "type": "uint256"
        },
        {
          "internalType": "uint256",
          "name": "lastEngagementBoost",
          "type": "uint256"
        },
        {
          "internalType": "uint256",
          "name": "heat",
          "type": "uint256"
        },
        {
          "internalType": "uint256",
          "name": "lastHeatUpdate",
          "type": "uint256"
        },
        {
          "internalType": "uint256",
          "name": "createdAt",
          "type": "uint256"
        }
      ],
      "stateMutability": "view",
      "type": "function"
    },
    {
      "inputs": [
        {
          "internalType": "uint256",
          "name": "",
          "type": "uint256"
        }
      ],
      "name": "tokens",
      "outputs": [
        {
          "internalType": "address",
          "name": "",
          "type": "address"
        }
      ],
      "stateMutability": "view",
      "type": "function"
    },
    {
      "inputs": [
        {
          "internalType": "address",
          "name": "newOwner",
          "type": "address"
        }
      ],
      "name": "transferOwnership",
      "outputs": [],
      "stateMutability": "nonpayable",
      "type": "function"
    },
    {
      "inputs": [],
      "name": "uniswapV3Factory",
      "outputs": [
        {
          "internalType": "contract IUniswapV3Factory",
          "name": "",
          "type": "address"
        }
      ],
      "stateMutability": "view",
      "type": "function"
    },
    {
      "inputs": [
        {
          "components": [
            {
              "internalType": "address",
              "name": "token",
              "type": "address"
            },
            {
              "internalType": "uint256",
              "name": "heat",
              "type": "uint256"
            }
          ],
          "internalType": "struct HeatUpdate[]",
          "name": "_heatUpdates",
          "type": "tuple[]"
        }
      ],
      "name": "updateHeat",
      "outputs": [],
      "stateMutability": "nonpayable",
      "type": "function"
    },
    {
      "stateMutability": "payable",
      "type": "receive"
    }
  ],
  "bytecode": "0x610100604052620186a0600255601460035534801561001c575f5ffd5b506040516142d73803806142d783398101604081905261003b91610281565b338061006057604051631e4fbdf760e01b81525f600482015260240160405180910390fd5b61006981610217565b5060018055600480546001600160a01b038087166001600160a01b03199283161783556005805487831690841617905560068054868316931692909217909155821660e08190526040805163c45a015560e01b81529051919263c45a01559282820192602092908290030181865afa1580156100e7573d5f5f3e3d5ffd5b505050506040513d601f19601f8201168201806040525081019061010b91906102d2565b6001600160a01b031660c0816001600160a01b03168152505060e0516001600160a01b031663791b98bc6040518163ffffffff1660e01b8152600401602060405180830381865afa158015610162573d5f5f3e3d5ffd5b505050506040513d601f19601f8201168201806040525081019061018691906102d2565b6001600160a01b031660a0816001600160a01b03168152505060e0516001600160a01b0316634aa4a4fc6040518163ffffffff1660e01b8152600401602060405180830381865afa1580156101dd573d5f5f3e3d5ffd5b505050506040513d601f19601f8201168201806040525081019061020191906102d2565b6001600160a01b0316608052506102f292505050565b5f80546001600160a01b038381166001600160a01b0319831681178455604051919092169283917f8be0079c531659141344cd1fd0a4f28419497f9722a3daafe3b4186f6b6457e09190a35050565b80516001600160a01b038116811461027c575f5ffd5b919050565b5f5f5f5f60808587031215610294575f5ffd5b61029d85610266565b93506102ab60208601610266565b92506102b960408601610266565b91506102c760608601610266565b905092959194509250565b5f602082840312156102e2575f5ffd5b6102eb82610266565b9392505050565b60805160a05160c05160e051613f266103b15f395f818161071401528181610f66015261108c01525f818161034501528181610d8f01528181610e43015281816129050152612a0001525f81816104090152818161118f01528181612dd001528181612e610152612f4e01525f818161065901528181610dbf01528181610e720152818161100c015281816127120152818161274b0152818161277301528181612ae701528181612b2001528181612b480152612edd0152613f265ff3fe608060405260043610610220575f3560e01c806392ac25821161011e578063c9235634116100a8578063dd743bc81161006d578063dd743bc8146107d9578063e0eeb3d3146107f8578063e5659f0714610817578063f2fde38b1461082c578063f797113f1461084b575f5ffd5b8063c923563414610736578063ca31879d14610755578063d1f6d04a14610774578063dc6930a314610791578063dd1b9c4a146107b0575f5ffd5b8063aa6ca808116100ee578063aa6ca80814610608578063abf599fc14610629578063ad5c464814610648578063b4b5b48f1461067b578063c31c9c0714610703575f5ffd5b806392ac25821461050b578063a11d8ac714610596578063a40103d4146105b5578063a480ca79146105d4575f5ffd5b80635b549182116101aa57806377e989f31161016f57806377e989f3146103db578063791b98bc146103f85780637bdc60d91461042b5780638da5cb5b146104d057806391ded8fa146104ec575f5ffd5b80635b549182146103345780635d3575a6146103675780635de7c44a1461039e578063715018a6146103b3578063741c6ae8146103c7575f5ffd5b8063306d3508116101f0578063306d3508146102d7578063320dc01b1461022b57806343038e891461022b5780634f64b2be146102f65780635153563b14610315575f5ffd5b80630280a16f1461022b57806311eefb29146102545780631d08ac9d1461027557806327e2fee4146102a0575f5ffd5b3661022757005b5f5ffd5b348015610236575f5ffd5b50610241620186a081565b6040519081526020015b60405180910390f35b34801561025f575f5ffd5b5061027361026e3660046138b7565b61085f565b005b348015610280575f5ffd5b5061024161028f36600461393c565b60096020525f908152604090205481565b3480156102ab575f5ffd5b506102bf6102ba36600461393c565b610a17565b6040516001600160a01b03909116815260200161024b565b3480156102e2575f5ffd5b506102416102f136600461393c565b610aae565b348015610301575f5ffd5b506102bf610310366004613957565b610b3b565b348015610320575f5ffd5b506005546102bf906001600160a01b031681565b34801561033f575f5ffd5b506102bf7f000000000000000000000000000000000000000000000000000000000000000081565b348015610372575f5ffd5b506102bf610381366004613957565b5f908152600760205260409020600201546001600160a01b031690565b3480156103a9575f5ffd5b5061024160025481565b3480156103be575f5ffd5b50610273610b63565b3480156103d2575f5ffd5b50610241600281565b3480156103e6575f5ffd5b506006546001600160a01b03166102bf565b348015610403575f5ffd5b506102bf7f000000000000000000000000000000000000000000000000000000000000000081565b348015610436575f5ffd5b506104c3610445366004613957565b604080516080810182525f808252602082018190529181018290526060810191909152505f90815260076020908152604091829020825160808101845281546001600160a01b039081168252600183015481169382019390935260029091015491821692810192909252600160a01b900460ff161515606082015290565b60405161024b919061396e565b3480156104db575f5ffd5b505f546001600160a01b03166102bf565b3480156104f7575f5ffd5b506104c361050636600461393c565b610b76565b348015610516575f5ffd5b50610561610525366004613957565b60086020525f90815260409020805460018201546002830154600384015460048501546005860154600690960154949593949293919290919087565b604080519788526020880196909652948601939093526060850191909152608084015260a083015260c082015260e00161024b565b3480156105a1575f5ffd5b506006546102bf906001600160a01b031681565b3480156105c0575f5ffd5b506102416105cf3660046139ab565b610c8b565b3480156105df575f5ffd5b506105f36105ee36600461393c565b61111b565b6040805192835260208301919091520161024b565b348015610613575f5ffd5b5061061c61128d565b60405161024b9190613a38565b348015610634575f5ffd5b50610273610643366004613ab5565b611366565b348015610653575f5ffd5b506102bf7f000000000000000000000000000000000000000000000000000000000000000081565b348015610686575f5ffd5b506106ce610695366004613957565b60076020525f90815260409020805460018201546002909201546001600160a01b0391821692821691811690600160a01b900460ff1684565b60405161024b94939291906001600160a01b039485168152928416602084015292166040820152901515606082015260800190565b34801561070e575f5ffd5b506102bf7f000000000000000000000000000000000000000000000000000000000000000081565b348015610741575f5ffd5b50610273610750366004613af4565b611706565b348015610760575f5ffd5b5061027361076f366004613af4565b6119af565b34801561077f575f5ffd5b506005546001600160a01b03166102bf565b34801561079c575f5ffd5b506004546102bf906001600160a01b031681565b3480156107bb575f5ffd5b506107c5610bb881565b60405162ffffff909116815260200161024b565b3480156107e4575f5ffd5b506104c36107f336600461393c565b611cfd565b348015610803575f5ffd5b5061027361081236600461393c565b611df1565b348015610822575f5ffd5b5061024160035481565b348015610837575f5ffd5b5061027361084636600461393c565b611fe9565b348015610856575f5ffd5b50610241600181565b6005546001600160a01b03163314806108fc575060055f9054906101000a90046001600160a01b03166001600160a01b031663a9dc491d6040518163ffffffff1660e01b8152600401602060405180830381865afa1580156108c3573d5f5f3e3d5ffd5b505050506040513d601f19601f820116820180604052508101906108e79190613b2b565b6001600160a01b0316336001600160a01b0316145b8061091057505f546001600160a01b031633145b6109505760405162461bcd60e51b815260206004820152600c60248201526b1d5b985d5d1a1bdc9a5e995960a21b60448201526064015b60405180910390fd5b5f8167ffffffffffffffff81111561096a5761096a613b46565b6040519080825280602002602001820160405280156109ae57816020015b604080518082019091525f80825260208201528152602001906001900390816109885790505b5090505f5b82811015610a08578383828181106109cd576109cd613b5a565b9050604002018036038101906109e39190613b6e565b8282815181106109f5576109f5613b5a565b60209081029190910101526001016109b3565b50610a1281612026565b505050565b6004805460405163e8378fbf60e01b81526001600160a01b03848116938201939093525f92600792849291169063e8378fbf90602401602060405180830381865afa158015610a68573d5f5f3e3d5ffd5b505050506040513d601f19601f82011682018060405250810190610a8c9190613bd2565b815260208101919091526040015f20600101546001600160a01b031692915050565b6004805460405163e8378fbf60e01b81526001600160a01b03848116938201939093525f92600892849291169063e8378fbf90602401602060405180830381865afa158015610aff573d5f5f3e3d5ffd5b505050506040513d601f19601f82011682018060405250810190610b239190613bd2565b81526020019081526020015f20600401549050919050565b600a8181548110610b4a575f80fd5b5f918252602090912001546001600160a01b0316905081565b610b6b612668565b610b745f612694565b565b604080516080810182525f8082526020820181905291810182905260608101919091526004805460405163e8378fbf60e01b81526001600160a01b03858116938201939093525f92600792849291169063e8378fbf90602401602060405180830381865afa158015610bea573d5f5f3e3d5ffd5b505050506040513d601f19601f82011682018060405250810190610c0e9190613bd2565b815260208082019290925260409081015f20815160808101835281546001600160a01b03908116808352600184015482169583019590955260029092015491821692810192909252600160a01b900460ff16151560608201529150610c855760405162461bcd60e51b815260040161094790613be9565b92915050565b5f610c946126e3565b6006546001600160a01b03163314610cee5760405162461bcd60e51b815260206004820152601c60248201527f4f6e6c7920656e6761676520746f206561726e2063616e2073776170000000006044820152606401610947565b6002831015610d2e5760405162461bcd60e51b815260206004820152600c60248201526b092dcecc2d8d2c840e0c2e8d60a31b6044820152606401610947565b5f84845f818110610d4157610d41613b5a565b9050602002016020810190610d56919061393c565b90505f8585610d66600182613c28565b818110610d7557610d75613b5a565b9050602002016020810190610d8a919061393c565b90505f7f00000000000000000000000000000000000000000000000000000000000000006001600160a01b0316631698ee82847f0000000000000000000000000000000000000000000000000000000000000000610bb86040518463ffffffff1660e01b8152600401610dff93929190613c3b565b602060405180830381865afa158015610e1a573d5f5f3e3d5ffd5b505050506040513d601f19601f82011682018060405250810190610e3e9190613b2b565b90505f7f00000000000000000000000000000000000000000000000000000000000000006001600160a01b0316631698ee827f000000000000000000000000000000000000000000000000000000000000000085610bb86040518463ffffffff1660e01b8152600401610eb393929190613c3b565b602060405180830381865afa158015610ece573d5f5f3e3d5ffd5b505050506040513d601f19601f82011682018060405250810190610ef29190613b2b565b90506001600160a01b03821615801590610f1457506001600160a01b03811615155b610f4f5760405162461bcd60e51b815260206004820152600c60248201526b1b5a5cdcda5b99c81c1bdbdb60a21b6044820152606401610947565b60405163095ea7b360e01b81526001600160a01b037f000000000000000000000000000000000000000000000000000000000000000081166004830152602482018b905285169063095ea7b3906044016020604051808303815f875af1158015610fbb573d5f5f3e3d5ffd5b505050506040513d601f19601f82011682018060405250810190610fdf9190613c63565b506040516bffffffffffffffffffffffff19606086811b8216602084015261017760eb1b603484018190527f0000000000000000000000000000000000000000000000000000000000000000821b83166037850152604b84015285901b16604e8201525f9060620160408051601f198184030181526080830182528083526001600160a01b03808b1660208501528383018e90525f60608501819052925163b858183f60e01b81529194507f0000000000000000000000000000000000000000000000000000000000000000169063b858183f906110c1908590600401613c82565b6020604051808303815f875af11580156110dd573d5f5f3e3d5ffd5b505050506040513d601f19601f820116820180604052508101906111019190613bd2565b97505050505050505061111360018055565b949350505050565b5f5f611125612668565b6001600160a01b0383165f908152600960205260408120549081900361118d5760405162461bcd60e51b815260206004820152601d60248201527f4e6f204c5020706f736974696f6e20666f72207468697320746f6b656e0000006044820152606401610947565b7f00000000000000000000000000000000000000000000000000000000000000006001600160a01b031663fc6f786560405180608001604052808481526020016111de5f546001600160a01b031690565b6001600160a01b0390811682526001600160801b0360208084018290526040938401829052835160e087901b6001600160e01b031916815285516004820152908501519092166024830152918301518216604482015260609092015116606482015260840160408051808303815f875af115801561125e573d5f5f3e3d5ffd5b505050506040513d601f19601f820116820180604052508101906112829190613ce7565b909590945092505050565b600a546060905f9067ffffffffffffffff8111156112ad576112ad613b46565b6040519080825280602002602001820160405280156112fd57816020015b604080516080810182525f8082526020808301829052928201819052606082015282525f199092019101816112cb5790505b5090505f5b600a548110156113605761133b600a828154811061132257611322613b5a565b5f918252602090912001546001600160a01b0316610b76565b82828151811061134d5761134d613b5a565b6020908102919091010152600101611302565b50919050565b61136e612668565b5f8381526007602052604090819020600480549251632c2c7ef960e21b815290810186905290916001600160a01b03169063b0b1fbe490602401602060405180830381865afa1580156113c3573d5f5f3e3d5ffd5b505050506040513d601f19601f820116820180604052508101906113e79190613c63565b6114255760405162461bcd60e51b815260206004820152600f60248201526e6e6f7420636f6d706c657461626c6560881b6044820152606401610947565b60048054604051630155252760e71b81529182018690526001600160a01b03169063aa929380906024015f604051808303815f87803b158015611466575f5ffd5b505af1158015611478573d5f5f3e3d5ffd5b505082546001600160a01b038087166001600160a01b0319928316811786556001808701805493891693851684179055600a805491820181555f9081527fc65a7bb8d6351c1cf70c95a316cc6a92839c986682d98bc35f958f4883f9d2a890910180549094168217909355604051919450925087917fdbd3908ed1551f131cac0b0e54b86f03495799941eeb3290140b962f787409d491a45f61151a8461270d565b90505f6115ef85866001600160a01b031663ebda16eb6040518163ffffffff1660e01b8152600401602060405180830381865afa15801561155d573d5f5f3e3d5ffd5b505050506040513d601f19601f820116820180604052508101906115819190613bd2565b6004805460408051631dbb6dbd60e21b815290516001600160a01b03909216926376edb6f49282820192602092908290030181865afa1580156115c6573d5f5f3e3d5ffd5b505050506040513d601f19601f820116820180604052508101906115ea9190613bd2565b612ae2565b6001600160a01b038681165f8181526009602052604090819020849055600480549151632afd667f60e21b81529081018b90526024810192909252858316604483015292935091169063abf599fc906064015f604051808303815f87803b158015611658575f5ffd5b505af115801561166a573d5f5f3e3d5ffd5b505050506002830154600160a01b900460ff16156116fe575f8681526008602052604080822060029081019290925560065491850154905163038918e360e61b81526001600160a01b038881166004830152918216602482015291169063e24638c0906044015f604051808303815f87803b1580156116e7575f5ffd5b505af11580156116f9573d5f5f3e3d5ffd5b505050505b505050505050565b6005546001600160a01b03163314806117a3575060055f9054906101000a90046001600160a01b03166001600160a01b031663a9dc491d6040518163ffffffff1660e01b8152600401602060405180830381865afa15801561176a573d5f5f3e3d5ffd5b505050506040513d601f19601f8201168201806040525081019061178e9190613b2b565b6001600160a01b0316336001600160a01b0316145b6117de5760405162461bcd60e51b815260206004820152600c60248201526b1d5b985d5d1a1bdc9a5e995960a21b6044820152606401610947565b6004805460405163e8378fbf60e01b81526001600160a01b03858116938201939093525f92600892849291169063e8378fbf90602401602060405180830381865afa15801561182f573d5f5f3e3d5ffd5b505050506040513d601f19601f820116820180604052508101906118539190613bd2565b8152602081019190915260409081015f90812060048054935163e8378fbf60e01b81526001600160a01b03878116928201929092529194509192600892849291169063e8378fbf90602401602060405180830381865afa1580156118b9573d5f5f3e3d5ffd5b505050506040513d601f19601f820116820180604052508101906118dd9190613bd2565b81526020019081526020015f209050606460035483600101546119009190613d09565b61190a9190613d34565b82600101546119199190613c28565b8260010181905550606460035482600101546119359190613d09565b61193f9190613d34565b816001015461194e9190613d47565b60018083018290558301546040516001600160a01b0380871693908816927faecea04ec10c6c0b9d91c8e45440289d97d5737d78401b23bc3ca82031eae932926119a19290918252602082015260400190565b60405180910390a350505050565b6119b76126e3565b6119bf612668565b6004805460405163e8378fbf60e01b81526001600160a01b03858116938201939093525f92600792849291169063e8378fbf90602401602060405180830381865afa158015611a10573d5f5f3e3d5ffd5b505050506040513d601f19601f82011682018060405250810190611a349190613bd2565b815260208101919091526040015f2080549091506001600160a01b0316611a6d5760405162461bcd60e51b815260040161094790613be9565b60028101546001600160a01b03838116911614611abf5760405162461bcd60e51b815260206004820152601060248201526f086e4cac2e8dee440dad2e6dac2e8c6d60831b6044820152606401610947565b6002810154600160a01b900460ff1615611b1b5760405162461bcd60e51b815260206004820152601a60248201527f416c726561647920636c61696d65642062792063726561746f720000000000006044820152606401610947565b6004805460405163222b15fb60e01b81526001600160a01b038581169382019390935291169063222b15fb90602401602060405180830381865afa158015611b65573d5f5f3e3d5ffd5b505050506040513d601f19601f82011682018060405250810190611b899190613c63565b15611bd65760405162461bcd60e51b815260206004820152601b60248201527f43726561746f7220616c726561647920686173206120746f6b656e00000000006044820152606401610947565b60028101805460ff60a01b1916600160a01b1790556004805460405163e8378fbf60e01b81526001600160a01b03868116938201939093525f92600892849291169063e8378fbf90602401602060405180830381865afa158015611c3c573d5f5f3e3d5ffd5b505050506040513d601f19601f82011682018060405250810190611c609190613bd2565b8152602081019190915260409081015f20600480820154808355600280840191909155600654865491870154945163038918e360e61b81526001600160a01b0392831693810193909352938116602483015291935091169063e24638c0906044015f604051808303815f87803b158015611cd8575f5ffd5b505af1158015611cea573d5f5f3e3d5ffd5b505050505050611cf960018055565b5050565b604080516080810182525f8082526020820181905291810182905260608101919091526004805460405163e8378fbf60e01b81526001600160a01b03858116938201939093526007925f92169063e8378fbf90602401602060405180830381865afa158015611d6e573d5f5f3e3d5ffd5b505050506040513d601f19601f82011682018060405250810190611d929190613bd2565b815260208082019290925260409081015f20815160808101835281546001600160a01b039081168252600183015481169482019490945260029091015492831691810191909152600160a01b90910460ff161515606082015292915050565b611df9612668565b6001600160a01b03811615611ed4576004805460405163222b15fb60e01b81526001600160a01b038481169382019390935291169063222b15fb90602401602060405180830381865afa158015611e52573d5f5f3e3d5ffd5b505050506040513d601f19601f82011682018060405250810190611e769190613c63565b611ed45760405162461bcd60e51b815260206004820152602960248201527f43726561746f7220697320626c6f636b6564206f7220616c7265616479206861604482015268399030903a37b5b2b760b91b6064820152608401610947565b6004805460405163e0eeb3d360e01b81526001600160a01b03848116938201939093525f928392169063e0eeb3d39060240160408051808303815f875af1158015611f21573d5f5f3e3d5ffd5b505050506040513d601f19601f82011682018060405250810190611f459190613ce7565b5f82815260076020908152604080832060028082018054600160a01b6001600160a01b038d811680151583026001600160a81b0319909416179290921783559254600887529685902096909655548254845192820460ff161515835294820187905296985094965094831693919092169186917ff0c0bc2d3fca58ed0faa7b1b3cdfe520dc530b72e249182a61b923ec6067d997910160405180910390a450505050565b611ff1612668565b6001600160a01b03811661201a57604051631e4fbdf760e01b81525f6004820152602401610947565b61202381612694565b50565b5f5b8151811015611cf95760045482515f9160079183916001600160a01b03169063e8378fbf9087908790811061205f5761205f613b5a565b6020908102919091010151516040516001600160e01b031960e084901b1681526001600160a01b039091166004820152602401602060405180830381865afa1580156120ad573d5f5f3e3d5ffd5b505050506040513d601f19601f820116820180604052508101906120d19190613bd2565b815260208101919091526040015f2080549091506001600160a01b031661210a5760405162461bcd60e51b815260040161094790613be9565b60045483515f9160089183916001600160a01b03169063e8378fbf9088908890811061213857612138613b5a565b6020908102919091010151516040516001600160e01b031960e084901b1681526001600160a01b039091166004820152602401602060405180830381865afa158015612186573d5f5f3e3d5ffd5b505050506040513d601f19601f820116820180604052508101906121aa9190613bd2565b81526020019081526020015f20905080600501545f14806121dc575060058101546121d89062015180613d47565b4210155b8061226b575060055f9054906101000a90046001600160a01b03166001600160a01b031663a9dc491d6040518163ffffffff1660e01b8152600401602060405180830381865afa158015612232573d5f5f3e3d5ffd5b505050506040513d601f19601f820116820180604052508101906122569190613b2b565b6001600160a01b0316336001600160a01b0316145b6122b75760405162461bcd60e51b815260206004820152601860248201527f486561742075706461746520746f6f206672657175656e7400000000000000006044820152606401610947565b5f816004015490505f8585815181106122d2576122d2613b5a565b6020026020010151602001519050818110156123285760405162461bcd60e51b8152602060048201526015602482015274496e76616c6964206865617420646563726561736560581b6044820152606401610947565b600483018190554260058401556002548354148015612345575081155b1561234e575f83555b600654845460405163f251f45f60e01b81526001600160a01b03918216600482015291169063f251f45f90602401602060405180830381865afa158015612397573d5f5f3e3d5ffd5b505050506040513d601f19601f820116820180604052508101906123bb9190613c63565b1561248357825460048401545f916123d291613c28565b90505f6123e2620186a083613d34565b90508015612480575f5b8181101561245b576006548754604051633248f2b360e11b81526001600160a01b039182166004820152911690636491e566906024015f604051808303815f87803b158015612439575f5ffd5b505af115801561244b573d5f5f3e3d5ffd5b5050600190920191506123ec9050565b50612469620186a082613d09565b855f015f82825461247a9190613d47565b90915550505b50505b6002840154600160a01b900460ff16801561250657506006548454604051634ed599fb60e11b81526001600160a01b039182166004820152911690639dab33f690602401602060405180830381865afa1580156124e2573d5f5f3e3d5ffd5b505050506040513d601f19601f820116820180604052508101906125069190613c63565b156125ec5782600101545f0361252057620186a060018401555b5f836002015484600401546125359190613c28565b90505f8460010154826125489190613d34565b905080156125e9575f5b818110156125c157600654875460405163641d27ab60e01b81526001600160a01b03918216600482015291169063641d27ab906024015f604051808303815f87803b15801561259f575f5ffd5b505af11580156125b1573d5f5f3e3d5ffd5b5050600190920191506125529050565b5060018501546125d19082613d09565b856002015f8282546125e39190613d47565b90915550505b50505b8585815181106125fe576125fe613b5a565b60200260200101515f01516001600160a01b03167f17f0fa8193ad599e6d9e20fb742ac1d5fd0b1bf4246f0aa664a4c293863ffac0846004015442604051612650929190918252602082015260400190565b60405180910390a25050600190920191506120289050565b5f546001600160a01b03163314610b745760405163118cdaa760e01b8152336004820152602401610947565b5f80546001600160a01b038381166001600160a01b0319831681178455604051919092169283917f8be0079c531659141344cd1fd0a4f28419497f9722a3daafe3b4186f6b6457e09190a35050565b60026001540361270657604051633ee5aeb560e01b815260040160405180910390fd5b6002600155565b5f5f5f7f00000000000000000000000000000000000000000000000000000000000000006001600160a01b0316846001600160a01b031610612770577f000000000000000000000000000000000000000000000000000000000000000084612793565b837f00000000000000000000000000000000000000000000000000000000000000005b915091505f846001600160a01b031663ebda16eb6040518163ffffffff1660e01b8152600401602060405180830381865afa1580156127d4573d5f5f3e3d5ffd5b505050506040513d601f19601f820116820180604052508101906127f89190613bd2565b90505f60045f9054906101000a90046001600160a01b03166001600160a01b03166376edb6f46040518163ffffffff1660e01b8152600401602060405180830381865afa15801561284b573d5f5f3e3d5ffd5b505050506040513d601f19601f8201168201806040525081019061286f9190613bd2565b90505f8211801561287f57505f81115b6128ba5760405162461bcd60e51b815260206004820152600c60248201526b7a65726f20616d6f756e747360a01b6044820152606401610947565b5f866001600160a01b0316856001600160a01b0316146128da57816128dc565b825b90505f876001600160a01b0316866001600160a01b0316146128fe5783612900565b825b90505f7f00000000000000000000000000000000000000000000000000000000000000006001600160a01b0316631698ee828888610bb86040518463ffffffff1660e01b815260040161295593929190613c3b565b602060405180830381865afa158015612970573d5f5f3e3d5ffd5b505050506040513d601f19601f820116820180604052508101906129949190613b2b565b90506001600160a01b038116156129db5760405162461bcd60e51b815260206004820152600b60248201526a504f4f4c5f45584953545360a81b6044820152606401610947565b5f6129e68385613072565b60405163a167129560e01b81529091506001600160a01b037f0000000000000000000000000000000000000000000000000000000000000000169063a167129590612a3b908b908b90610bb890600401613c3b565b6020604051808303815f875af1158015612a57573d5f5f3e3d5ffd5b505050506040513d601f19601f82011682018060405250810190612a7b9190613b2b565b60405163f637731d60e01b81526001600160a01b038381166004830152919a50908a169063f637731d906024015f604051808303815f87803b158015612abf575f5ffd5b505af1158015612ad1573d5f5f3e3d5ffd5b505050505050505050505050919050565b5f5f5f7f00000000000000000000000000000000000000000000000000000000000000006001600160a01b0316866001600160a01b031610612b45577f000000000000000000000000000000000000000000000000000000000000000086612b68565b857f00000000000000000000000000000000000000000000000000000000000000005b915091505f866001600160a01b0316836001600160a01b031614612b8c5784612b8e565b855b90505f876001600160a01b0316846001600160a01b031614612bb05786612bb2565b855b6040516370a0823160e01b815230600482015290915087906001600160a01b038a16906370a0823190602401602060405180830381865afa158015612bf9573d5f5f3e3d5ffd5b505050506040513d601f19601f82011682018060405250810190612c1d9190613bd2565b1015612c635760405162461bcd60e51b815260206004820152601560248201527426a4a9a9a4a723afa120a620a721a2afaa27a5a2a760591b6044820152606401610947565b85471015612ca95760405162461bcd60e51b815260206004820152601360248201527209a92a6a6929c8ebe848298829c868abe8aa89606b1b6044820152606401610947565b5f612cf3896001600160a01b0316866001600160a01b031614612ccc5788612cce565b875b8a6001600160a01b0316876001600160a01b031614612ced5788613072565b89613072565b90505f612cff8261311e565b9050603c5f612d1061271084613d5a565b90505f612d1f84612710613d7f565b90505f612d2e83856001613423565b90505f612d3c83865f613423565b9050620d89e719600283900b1215612d6d57612d5c85620d89e719613da4565b612d6a90620d89e719613d5a565b91505b612d7a620d89e719613dc5565b60020b8160020b1315612db95784612d95620d89e719613dc5565b612d9f9190613da4565b612dac620d89e719613dc5565b612db69190613d5a565b90505b60405163095ea7b360e01b81526001600160a01b037f000000000000000000000000000000000000000000000000000000000000000081166004830152602482018b90528c169063095ea7b3906044016020604051808303815f875af1158015612e25573d5f5f3e3d5ffd5b505050506040513d601f19601f82011682018060405250810190612e499190613c63565b5060405163095ea7b360e01b81526001600160a01b037f000000000000000000000000000000000000000000000000000000000000000081166004830152602482018a90528b169063095ea7b3906044016020604051808303815f875af1158015612eb6573d5f5f3e3d5ffd5b505050506040513d601f19601f82011682018060405250810190612eda9190613c63565b507f00000000000000000000000000000000000000000000000000000000000000006001600160a01b031663d0e30db08e6040518263ffffffff1660e01b81526004015f604051808303818588803b158015612f34575f5ffd5b505af1158015612f46573d5f5f3e3d5ffd5b50505050505f7f00000000000000000000000000000000000000000000000000000000000000006001600160a01b031663883164566040518061016001604052808f6001600160a01b031681526020018e6001600160a01b03168152602001610bb862ffffff1681526020018660020b81526020018560020b81526020018d81526020018c81526020015f81526020015f8152602001306001600160a01b0316815260200142610258612ff99190613d47565b8152506040518263ffffffff1660e01b81526004016130189190613de5565b6080604051808303815f875af1158015613034573d5f5f3e3d5ffd5b505050506040513d601f19601f820116820180604052508101906130589190613ea9565b50919e5050505050505050505050505050505b9392505050565b5f5f8211801561308157505f83115b6130b95760405162461bcd60e51b815260206004820152600960248201526862616420726174696f60b81b6044820152606401610947565b5f6130c984600160c01b856134a3565b90505f6130d58261354d565b90506001600160a01b038111156111135760405162461bcd60e51b815260206004820152600d60248201526c73717274206f766572666c6f7760981b6044820152606401610947565b5f6401000276a36001600160a01b03831610801590613159575073fffd8963efd1fc6a506488495d951d5263988d266001600160a01b038316105b613176576040516324c070df60e11b815260040160405180910390fd5b640100000000600160c01b03602083901b166001600160801b03811160071b81811c67ffffffffffffffff811160061b90811c63ffffffff811160051b90811c61ffff811160041b90811c60ff8111600390811b91821c600f811160021b90811c918211600190811b92831c9790881196179094179092171790911717176080811061320a57607f810383901c9150613214565b80607f0383901b91505b908002607f81811c60ff83811c9190911c800280831c81831c1c800280841c81841c1c800280851c81851c1c800280861c81861c1c800280871c81871c1c800280881c81881c1c800280891c81891c1c8002808a1c818a1c1c8002808b1c818b1c1c8002808c1c818c1c1c8002808d1c818d1c1c8002808e1c9c81901c9c909c1c80029c8d901c9e9d607f198f0160401b60c09190911c678000000000000000161760c19b909b1c674000000000000000169a909a1760c29990991c672000000000000000169890981760c39790971c671000000000000000169690961760c49590951c670800000000000000169490941760c59390931c670400000000000000169290921760c69190911c670200000000000000161760c79190911c670100000000000000161760c89190911c6680000000000000161760c99190911c6640000000000000161760ca9190911c6620000000000000161760cb9190911c6610000000000000161760cc9190911c6608000000000000161760cd9190911c66040000000000001617693627a301d71055774c8581026f028f6481ab7f045a5af012a19d003aa9198101608090811d906fdb2df09e81959a81455e260799a0632f8301901d600281810b9083900b1461341457886001600160a01b03166133f98261359c565b6001600160a01b0316111561340e5781613416565b80613416565b815b9998505050505050505050565b5f8061342f8486613da4565b90508060020b5f03613444578491505061306b565b82613474575f8560020b13613459575f61345b565b835b6134658287613d5a565b61346f9190613d7f565b61349a565b5f8560020b12613484575f613486565b835b6134908287613d5a565b61349a9190613d5a565b95945050505050565b5f80805f19858709858702925082811083820303915050805f036134d7575f84116134cc575f5ffd5b50829004905061306b565b8084116134e2575f5ffd5b5f848688095f868103871696879004966002600389028118808a02820302808a02820302808a02820302808a02820302808a02820302808a02909103029181900381900460010186841190950394909402919094039290920491909117919091029150509392505050565b5f815f0361355c57505f919050565b5f60016135698482613d47565b901c90508291505b81811015611360579050806001816135898186613d34565b6135939190613d47565b901c9050613571565b5f5f5f8360020b126135b1578260020b6135b8565b8260020b5f035b9050620d89e88111156135de576040516315e4079d60e11b815260040160405180910390fd5b5f816001165f036135f357600160801b613605565b6ffffcb933bd6fad37aa2d162d1a5940015b70ffffffffffffffffffffffffffffffffff1690506002821615613639576ffff97272373d413259a46990580e213a0260801c5b6004821615613658576ffff2e50f5f656932ef12357cf3c7fdcc0260801c5b6008821615613677576fffe5caca7e10e4e61c3624eaa0941cd00260801c5b6010821615613696576fffcb9843d60f6159c9db58835c9266440260801c5b60208216156136b5576fff973b41fa98c081472e6896dfb254c00260801c5b60408216156136d4576fff2ea16466c96a3843ec78b326b528610260801c5b60808216156136f3576ffe5dee046a99a2a811c461f1969c30530260801c5b610100821615613713576ffcbe86c7900a88aedcffc83b479aa3a40260801c5b610200821615613733576ff987a7253ac413176f2b074cf7815e540260801c5b610400821615613753576ff3392b0822b70005940c7a398e4b70f30260801c5b610800821615613773576fe7159475a2c29b7443b29c7fa6e889d90260801c5b611000821615613793576fd097f3bdfd2022b8845ad8f792aa58250260801c5b6120008216156137b3576fa9f746462d870fdf8a65dc1f90e061e50260801c5b6140008216156137d3576f70d869a156d2a1b890bb3df62baf32f70260801c5b6180008216156137f3576f31be135f97d08fd981231505542fcfa60260801c5b62010000821615613814576f09aa508b5b7a84e1c677de54f3e99bc90260801c5b62020000821615613834576e5d6af8dedb81196699c329225ee6040260801c5b62040000821615613853576d2216e584f5fa1ea926041bedfe980260801c5b62080000821615613870576b048a170391f7dc42444e8fa20260801c5b5f8460020b131561388f57805f198161388b5761388b613d20565b0490505b6401000000008106156138a35760016138a5565b5f5b60ff16602082901c0192505050919050565b5f5f602083850312156138c8575f5ffd5b823567ffffffffffffffff8111156138de575f5ffd5b8301601f810185136138ee575f5ffd5b803567ffffffffffffffff811115613904575f5ffd5b8560208260061b8401011115613918575f5ffd5b6020919091019590945092505050565b6001600160a01b0381168114612023575f5ffd5b5f6020828403121561394c575f5ffd5b813561306b81613928565b5f60208284031215613967575f5ffd5b5035919050565b81516001600160a01b0390811682526020808401518216908301526040808401519091169082015260608083015115159082015260808101610c85565b5f5f5f5f606085870312156139be575f5ffd5b84359350602085013567ffffffffffffffff8111156139db575f5ffd5b8501601f810187136139eb575f5ffd5b803567ffffffffffffffff811115613a01575f5ffd5b8760208260051b8401011115613a15575f5ffd5b602091909101935091506040850135613a2d81613928565b939692955090935050565b602080825282518282018190525f918401906040840190835b81811015613aaa57613a9483855180516001600160a01b039081168352602080830151821690840152604080830151909116908301526060908101511515910152565b6020939093019260809290920191600101613a51565b509095945050505050565b5f5f5f60608486031215613ac7575f5ffd5b833592506020840135613ad981613928565b91506040840135613ae981613928565b809150509250925092565b5f5f60408385031215613b05575f5ffd5b8235613b1081613928565b91506020830135613b2081613928565b809150509250929050565b5f60208284031215613b3b575f5ffd5b815161306b81613928565b634e487b7160e01b5f52604160045260245ffd5b634e487b7160e01b5f52603260045260245ffd5b5f6040828403128015613b7f575f5ffd5b506040805190810167ffffffffffffffff81118282101715613baf57634e487b7160e01b5f52604160045260245ffd5b6040528235613bbd81613928565b81526020928301359281019290925250919050565b5f60208284031215613be2575f5ffd5b5051919050565b602080825260119082015270151bdad95b881b9bdd0818dc99585d1959607a1b604082015260600190565b634e487b7160e01b5f52601160045260245ffd5b81810381811115610c8557610c85613c14565b6001600160a01b03938416815291909216602082015262ffffff909116604082015260600190565b5f60208284031215613c73575f5ffd5b8151801515811461306b575f5ffd5b602081525f82516080602084015280518060a0850152806020830160c086015e5f60c0828601015260018060a01b036020860151166040850152604085015160608501526060850151608085015260c0601f19601f8301168501019250505092915050565b5f5f60408385031215613cf8575f5ffd5b505080516020909101519092909150565b8082028115828204841417610c8557610c85613c14565b634e487b7160e01b5f52601260045260245ffd5b5f82613d4257613d42613d20565b500490565b80820180821115610c8557610c85613c14565b600282810b9082900b03627fffff198112627fffff82131715610c8557610c85613c14565b600281810b9083900b01627fffff8113627fffff1982121715610c8557610c85613c14565b5f8260020b80613db657613db6613d20565b808360020b0791505092915050565b5f8160020b627fffff198103613ddd57613ddd613c14565b5f0392915050565b81516001600160a01b0316815261016081016020830151613e1160208401826001600160a01b03169052565b506040830151613e28604084018262ffffff169052565b506060830151613e3d606084018260020b9052565b506080830151613e52608084018260020b9052565b5060a083015160a083015260c083015160c083015260e083015160e0830152610100830151610100830152610120830151613e996101208401826001600160a01b03169052565b5061014092830151919092015290565b5f5f5f5f60808587031215613ebc575f5ffd5b845160208601519094506001600160801b0381168114613eda575f5ffd5b604086015160609096015194979096509250505056fea2646970667358221220a51de08887e57157b82a422f4b950bf27940eb0a400c2298add6cfc04b83a71564736f6c634300081c0033",
  "linkReferences": {},
  "deployedLinkReferences": {},
  "immutableReferences": {
    "354": [
      {
        "length": 32,
        "start": 1625
      },
      {
        "length": 32,
        "start": 3519
      },
      {
        "length": 32,
        "start": 3698
      },
      {
        "length": 32,
        "start": 4108
      },
      {
        "length": 32,
        "start": 10002
      },
      {
        "length": 32,
        "start": 10059
      },
      {
        "length": 32,
        "start": 10099
      },
      {
        "length": 32,
        "start": 10983
      },
      {
        "length": 32,
        "start": 11040
      },
      {
        "length": 32,
        "start": 11080
      },
      {
        "length": 32,
        "start": 11997
      }
    ],
    "395": [
      {
        "length": 32,
        "start": 1033
      },
      {
        "length": 32,
        "start": 4495
      },
      {
        "length": 32,
        "start": 11728
      },
      {
        "length": 32,
        "start": 11873
      },
      {
        "length": 32,
        "start": 12110
      }
    ],
    "398": [
      {
        "length": 32,
        "start": 837
      },
      {
        "length": 32,
        "start": 3471
      },
      {
        "length": 32,
        "start": 3651
      },
      {
        "length": 32,
        "start": 10501
      },
      {
        "length": 32,
        "start": 10752
      }
    ],
    "401": [
      {
        "length": 32,
        "start": 1812
      },
      {
        "length": 32,
        "start": 3942
      },
      {
        "length": 32,
        "start": 4236
      }
    ]
  },
  "inputSourceName": "project/contracts/MemedFactory.sol",
  "buildInfoId": "solc-0_8_28-36de519693917368442cc96aeebed827f7879af3"
}