{
  "_format": "hh3-artifact-1",
  "contractName": "MemedFactory",
  "sourceName": "contracts/MemedFactory.sol",
  "abi": [
    {
      "inputs": [
        {
          "internalType": "address",
          "name": "_memedTokenSale",
          "type": "address"
        },
        {
          "internalType": "address",
          "name": "_memedBattle",
          "type": "address"
        },
        {
          "internalType": "address",
          "name": "_memedEngageToEarn",
          "type": "address"
        },
        {
          "internalType": "address",
          "name": "_positionManager",
          "type": "address"
        },
        {
          "internalType": "address",
          "name": "_swapRouter",
          "type": "address"
        }
      ],
      "stateMutability": "nonpayable",
      "type": "constructor"
    },
    {
      "inputs": [
        {
          "internalType": "address",
          "name": "owner",
          "type": "address"
        }
      ],
      "name": "OwnableInvalidOwner",
      "type": "error"
    },
    {
      "inputs": [
        {
          "internalType": "address",
          "name": "account",
          "type": "address"
        }
      ],
      "name": "OwnableUnauthorizedAccount",
      "type": "error"
    },
    {
      "inputs": [],
      "name": "R",
      "type": "error"
    },
    {
      "inputs": [],
      "name": "ReentrancyGuardReentrantCall",
      "type": "error"
    },
    {
      "inputs": [],
      "name": "T",
      "type": "error"
    },
    {
      "anonymous": false,
      "inputs": [
        {
          "indexed": true,
          "internalType": "address",
          "name": "winner",
          "type": "address"
        },
        {
          "indexed": true,
          "internalType": "address",
          "name": "loser",
          "type": "address"
        },
        {
          "indexed": false,
          "internalType": "uint256",
          "name": "creatorIncentivesUnlocksAtWinner",
          "type": "uint256"
        },
        {
          "indexed": false,
          "internalType": "uint256",
          "name": "creatorIncentivesUnlocksAtLoser",
          "type": "uint256"
        }
      ],
      "name": "BattleUpdated",
      "type": "event"
    },
    {
      "anonymous": false,
      "inputs": [
        {
          "indexed": true,
          "internalType": "address",
          "name": "token",
          "type": "address"
        },
        {
          "indexed": false,
          "internalType": "uint256",
          "name": "heat",
          "type": "uint256"
        },
        {
          "indexed": false,
          "internalType": "uint256",
          "name": "timestamp",
          "type": "uint256"
        }
      ],
      "name": "HeatUpdated",
      "type": "event"
    },
    {
      "anonymous": false,
      "inputs": [
        {
          "indexed": true,
          "internalType": "address",
          "name": "previousOwner",
          "type": "address"
        },
        {
          "indexed": true,
          "internalType": "address",
          "name": "newOwner",
          "type": "address"
        }
      ],
      "name": "OwnershipTransferred",
      "type": "event"
    },
    {
      "anonymous": false,
      "inputs": [
        {
          "indexed": true,
          "internalType": "uint256",
          "name": "id",
          "type": "uint256"
        },
        {
          "indexed": true,
          "internalType": "address",
          "name": "token",
          "type": "address"
        },
        {
          "indexed": true,
          "internalType": "address",
          "name": "warriorNFT",
          "type": "address"
        }
      ],
      "name": "TokenCompletedFairLaunch",
      "type": "event"
    },
    {
      "anonymous": false,
      "inputs": [
        {
          "indexed": true,
          "internalType": "uint256",
          "name": "id",
          "type": "uint256"
        },
        {
          "indexed": true,
          "internalType": "address",
          "name": "token",
          "type": "address"
        },
        {
          "indexed": true,
          "internalType": "address",
          "name": "owner",
          "type": "address"
        },
        {
          "indexed": false,
          "internalType": "bool",
          "name": "isClaimedByCreator",
          "type": "bool"
        },
        {
          "indexed": false,
          "internalType": "uint256",
          "name": "endTime",
          "type": "uint256"
        }
      ],
      "name": "TokenCreated",
      "type": "event"
    },
    {
      "inputs": [],
      "name": "BATTLE_REWARDS_PERCENTAGE",
      "outputs": [
        {
          "internalType": "uint256",
          "name": "",
          "type": "uint256"
        }
      ],
      "stateMutability": "view",
      "type": "function"
    },
    {
      "inputs": [],
      "name": "CREATOR_INCENTIVE_STEP",
      "outputs": [
        {
          "internalType": "uint256",
          "name": "",
          "type": "uint256"
        }
      ],
      "stateMutability": "view",
      "type": "function"
    },
    {
      "inputs": [],
      "name": "ENGAGEMENT_REWARDS_PER_NEW_HEAT",
      "outputs": [
        {
          "internalType": "uint256",
          "name": "",
          "type": "uint256"
        }
      ],
      "stateMutability": "view",
      "type": "function"
    },
    {
      "inputs": [],
      "name": "INITIAL_REWARDS_PER_HEAT",
      "outputs": [
        {
          "internalType": "uint256",
          "name": "",
          "type": "uint256"
        }
      ],
      "stateMutability": "view",
      "type": "function"
    },
    {
      "inputs": [],
      "name": "MAX_ENGAGE_CREATOR_REWARD_PERCENTAGE",
      "outputs": [
        {
          "internalType": "uint256",
          "name": "",
          "type": "uint256"
        }
      ],
      "stateMutability": "view",
      "type": "function"
    },
    {
      "inputs": [],
      "name": "MAX_ENGAGE_USER_REWARD_PERCENTAGE",
      "outputs": [
        {
          "internalType": "uint256",
          "name": "",
          "type": "uint256"
        }
      ],
      "stateMutability": "view",
      "type": "function"
    },
    {
      "inputs": [],
      "name": "POOL_FEE",
      "outputs": [
        {
          "internalType": "uint24",
          "name": "",
          "type": "uint24"
        }
      ],
      "stateMutability": "view",
      "type": "function"
    },
    {
      "inputs": [],
      "name": "REWARD_PER_ENGAGEMENT",
      "outputs": [
        {
          "internalType": "uint256",
          "name": "",
          "type": "uint256"
        }
      ],
      "stateMutability": "view",
      "type": "function"
    },
    {
      "inputs": [],
      "name": "WETH",
      "outputs": [
        {
          "internalType": "address",
          "name": "",
          "type": "address"
        }
      ],
      "stateMutability": "view",
      "type": "function"
    },
    {
      "inputs": [
        {
          "internalType": "address",
          "name": "_winner",
          "type": "address"
        },
        {
          "internalType": "address",
          "name": "_loser",
          "type": "address"
        }
      ],
      "name": "battleUpdate",
      "outputs": [],
      "stateMutability": "nonpayable",
      "type": "function"
    },
    {
      "inputs": [
        {
          "internalType": "address",
          "name": "_token",
          "type": "address"
        },
        {
          "internalType": "address",
          "name": "_creator",
          "type": "address"
        }
      ],
      "name": "claimToken",
      "outputs": [],
      "stateMutability": "nonpayable",
      "type": "function"
    },
    {
      "inputs": [
        {
          "internalType": "address",
          "name": "_token",
          "type": "address"
        }
      ],
      "name": "collectFees",
      "outputs": [
        {
          "internalType": "uint256",
          "name": "amount0",
          "type": "uint256"
        },
        {
          "internalType": "uint256",
          "name": "amount1",
          "type": "uint256"
        }
      ],
      "stateMutability": "nonpayable",
      "type": "function"
    },
    {
      "inputs": [
        {
          "internalType": "uint256",
          "name": "_id",
          "type": "uint256"
        },
        {
          "internalType": "address",
          "name": "_token",
          "type": "address"
        },
        {
          "internalType": "address",
          "name": "_warriorNFT",
          "type": "address"
        }
      ],
      "name": "completeFairLaunch",
      "outputs": [],
      "stateMutability": "nonpayable",
      "type": "function"
    },
    {
      "inputs": [
        {
          "internalType": "address",
          "name": "_token",
          "type": "address"
        }
      ],
      "name": "getByToken",
      "outputs": [
        {
          "components": [
            {
              "internalType": "address",
              "name": "token",
              "type": "address"
            },
            {
              "internalType": "address",
              "name": "warriorNFT",
              "type": "address"
            },
            {
              "internalType": "address",
              "name": "creator",
              "type": "address"
            },
            {
              "internalType": "bool",
              "name": "isClaimedByCreator",
              "type": "bool"
            }
          ],
          "internalType": "struct TokenData",
          "name": "",
          "type": "tuple"
        }
      ],
      "stateMutability": "view",
      "type": "function"
    },
    {
      "inputs": [
        {
          "internalType": "uint256",
          "name": "_id",
          "type": "uint256"
        }
      ],
      "name": "getCreatorById",
      "outputs": [
        {
          "internalType": "address",
          "name": "",
          "type": "address"
        }
      ],
      "stateMutability": "view",
      "type": "function"
    },
    {
      "inputs": [
        {
          "internalType": "address",
          "name": "_token",
          "type": "address"
        }
      ],
      "name": "getHeat",
      "outputs": [
        {
          "internalType": "uint256",
          "name": "",
          "type": "uint256"
        }
      ],
      "stateMutability": "view",
      "type": "function"
    },
    {
      "inputs": [],
      "name": "getMemedBattle",
      "outputs": [
        {
          "internalType": "address",
          "name": "",
          "type": "address"
        }
      ],
      "stateMutability": "view",
      "type": "function"
    },
    {
      "inputs": [],
      "name": "getMemedEngageToEarn",
      "outputs": [
        {
          "internalType": "contract IMemedEngageToEarn",
          "name": "",
          "type": "address"
        }
      ],
      "stateMutability": "view",
      "type": "function"
    },
    {
      "inputs": [
        {
          "internalType": "address",
          "name": "_token",
          "type": "address"
        }
      ],
      "name": "getTokenByAddress",
      "outputs": [
        {
          "components": [
            {
              "internalType": "address",
              "name": "token",
              "type": "address"
            },
            {
              "internalType": "address",
              "name": "warriorNFT",
              "type": "address"
            },
            {
              "internalType": "address",
              "name": "creator",
              "type": "address"
            },
            {
              "internalType": "bool",
              "name": "isClaimedByCreator",
              "type": "bool"
            }
          ],
          "internalType": "struct TokenData",
          "name": "",
          "type": "tuple"
        }
      ],
      "stateMutability": "view",
      "type": "function"
    },
    {
      "inputs": [
        {
          "internalType": "uint256",
          "name": "_id",
          "type": "uint256"
        }
      ],
      "name": "getTokenById",
      "outputs": [
        {
          "components": [
            {
              "internalType": "address",
              "name": "token",
              "type": "address"
            },
            {
              "internalType": "address",
              "name": "warriorNFT",
              "type": "address"
            },
            {
              "internalType": "address",
              "name": "creator",
              "type": "address"
            },
            {
              "internalType": "bool",
              "name": "isClaimedByCreator",
              "type": "bool"
            }
          ],
          "internalType": "struct TokenData",
          "name": "",
          "type": "tuple"
        }
      ],
      "stateMutability": "view",
      "type": "function"
    },
    {
      "inputs": [],
      "name": "getTokens",
      "outputs": [
        {
          "components": [
            {
              "internalType": "address",
              "name": "token",
              "type": "address"
            },
            {
              "internalType": "address",
              "name": "warriorNFT",
              "type": "address"
            },
            {
              "internalType": "address",
              "name": "creator",
              "type": "address"
            },
            {
              "internalType": "bool",
              "name": "isClaimedByCreator",
              "type": "bool"
            }
          ],
          "internalType": "struct TokenData[]",
          "name": "",
          "type": "tuple[]"
        }
      ],
      "stateMutability": "view",
      "type": "function"
    },
    {
      "inputs": [
        {
          "internalType": "address",
          "name": "_token",
          "type": "address"
        }
      ],
      "name": "getWarriorNFT",
      "outputs": [
        {
          "internalType": "address",
          "name": "",
          "type": "address"
        }
      ],
      "stateMutability": "view",
      "type": "function"
    },
    {
      "inputs": [
        {
          "internalType": "address",
          "name": "",
          "type": "address"
        }
      ],
      "name": "lpTokenIds",
      "outputs": [
        {
          "internalType": "uint256",
          "name": "",
          "type": "uint256"
        }
      ],
      "stateMutability": "view",
      "type": "function"
    },
    {
      "inputs": [],
      "name": "memedBattle",
      "outputs": [
        {
          "internalType": "contract IMemedBattle",
          "name": "",
          "type": "address"
        }
      ],
      "stateMutability": "view",
      "type": "function"
    },
    {
      "inputs": [],
      "name": "memedEngageToEarn",
      "outputs": [
        {
          "internalType": "contract IMemedEngageToEarn",
          "name": "",
          "type": "address"
        }
      ],
      "stateMutability": "view",
      "type": "function"
    },
    {
      "inputs": [],
      "name": "memedTokenSale",
      "outputs": [
        {
          "internalType": "contract IMemedTokenSale",
          "name": "",
          "type": "address"
        }
      ],
      "stateMutability": "view",
      "type": "function"
    },
    {
      "inputs": [],
      "name": "owner",
      "outputs": [
        {
          "internalType": "address",
          "name": "",
          "type": "address"
        }
      ],
      "stateMutability": "view",
      "type": "function"
    },
    {
      "inputs": [],
      "name": "positionManager",
      "outputs": [
        {
          "internalType": "contract INonfungiblePositionManager",
          "name": "",
          "type": "address"
        }
      ],
      "stateMutability": "view",
      "type": "function"
    },
    {
      "inputs": [],
      "name": "renounceOwnership",
      "outputs": [],
      "stateMutability": "nonpayable",
      "type": "function"
    },
    {
      "inputs": [
        {
          "internalType": "address",
          "name": "_creator",
          "type": "address"
        }
      ],
      "name": "startFairLaunch",
      "outputs": [],
      "stateMutability": "nonpayable",
      "type": "function"
    },
    {
      "inputs": [
        {
          "internalType": "uint256",
          "name": "_amount",
          "type": "uint256"
        },
        {
          "internalType": "address[]",
          "name": "_path",
          "type": "address[]"
        },
        {
          "internalType": "address",
          "name": "_to",
          "type": "address"
        }
      ],
      "name": "swap",
      "outputs": [
        {
          "internalType": "uint256",
          "name": "",
          "type": "uint256"
        }
      ],
      "stateMutability": "nonpayable",
      "type": "function"
    },
    {
      "inputs": [],
      "name": "swapRouter",
      "outputs": [
        {
          "internalType": "contract ISwapRouter",
          "name": "",
          "type": "address"
        }
      ],
      "stateMutability": "view",
      "type": "function"
    },
    {
      "inputs": [
        {
          "internalType": "uint256",
          "name": "",
          "type": "uint256"
        }
      ],
      "name": "tokenData",
      "outputs": [
        {
          "internalType": "address",
          "name": "token",
          "type": "address"
        },
        {
          "internalType": "address",
          "name": "warriorNFT",
          "type": "address"
        },
        {
          "internalType": "address",
          "name": "creator",
          "type": "address"
        },
        {
          "internalType": "bool",
          "name": "isClaimedByCreator",
          "type": "bool"
        }
      ],
      "stateMutability": "view",
      "type": "function"
    },
    {
      "inputs": [
        {
          "internalType": "uint256",
          "name": "",
          "type": "uint256"
        }
      ],
      "name": "tokenRewardData",
      "outputs": [
        {
          "internalType": "uint256",
          "name": "lastRewardAt",
          "type": "uint256"
        },
        {
          "internalType": "uint256",
          "name": "creatorIncentivesUnlocksAt",
          "type": "uint256"
        },
        {
          "internalType": "uint256",
          "name": "creatorIncentivesUnlockedAt",
          "type": "uint256"
        },
        {
          "internalType": "uint256",
          "name": "lastEngagementBoost",
          "type": "uint256"
        },
        {
          "internalType": "uint256",
          "name": "heat",
          "type": "uint256"
        },
        {
          "internalType": "uint256",
          "name": "lastHeatUpdate",
          "type": "uint256"
        },
        {
          "internalType": "uint256",
          "name": "createdAt",
          "type": "uint256"
        }
      ],
      "stateMutability": "view",
      "type": "function"
    },
    {
      "inputs": [
        {
          "internalType": "uint256",
          "name": "",
          "type": "uint256"
        }
      ],
      "name": "tokens",
      "outputs": [
        {
          "internalType": "address",
          "name": "",
          "type": "address"
        }
      ],
      "stateMutability": "view",
      "type": "function"
    },
    {
      "inputs": [
        {
          "internalType": "address",
          "name": "newOwner",
          "type": "address"
        }
      ],
      "name": "transferOwnership",
      "outputs": [],
      "stateMutability": "nonpayable",
      "type": "function"
    },
    {
      "inputs": [],
      "name": "uniswapV3Factory",
      "outputs": [
        {
          "internalType": "contract IUniswapV3Factory",
          "name": "",
          "type": "address"
        }
      ],
      "stateMutability": "view",
      "type": "function"
    },
    {
      "inputs": [
        {
          "components": [
            {
              "internalType": "address",
              "name": "token",
              "type": "address"
            },
            {
              "internalType": "uint256",
              "name": "heat",
              "type": "uint256"
            }
          ],
          "internalType": "struct HeatUpdate[]",
          "name": "_heatUpdates",
          "type": "tuple[]"
        }
      ],
      "name": "updateHeat",
      "outputs": [],
      "stateMutability": "nonpayable",
      "type": "function"
    },
    {
      "stateMutability": "payable",
      "type": "receive"
    }
  ],
  "bytecode": "0x60a0604052620186a0600255601460035534801561001b575f5ffd5b506040516140e93803806140e983398101604081905261003a91610222565b338061005f57604051631e4fbdf760e01b81525f600482015260240160405180910390fd5b610068816101b8565b5060018055600480546001600160a01b038088166001600160a01b03199283161783556005805488831690841617905560068054878316908416179055600b80548683169084168117909155600d805492861692909316919091179091556040805163c45a015560e01b81529051919263c45a01559282820192602092908290030181865afa1580156100fd573d5f5f3e3d5ffd5b505050506040513d601f19601f820116820180604052508101906101219190610283565b600c80546001600160a01b0319166001600160a01b03928316179055600d54604080516312a9293f60e21b815290519190921691634aa4a4fc9160048083019260209291908290030181865afa15801561017d573d5f5f3e3d5ffd5b505050506040513d601f19601f820116820180604052508101906101a19190610283565b6001600160a01b0316608052506102a39350505050565b5f80546001600160a01b038381166001600160a01b0319831681178455604051919092169283917f8be0079c531659141344cd1fd0a4f28419497f9722a3daafe3b4186f6b6457e09190a35050565b80516001600160a01b038116811461021d575f5ffd5b919050565b5f5f5f5f5f60a08688031215610236575f5ffd5b61023f86610207565b945061024d60208701610207565b935061025b60408701610207565b925061026960608701610207565b915061027760808701610207565b90509295509295909350565b5f60208284031215610293575f5ffd5b61029c82610207565b9392505050565b608051613de86103015f395f818161063101528181610d7d01528181610e1501528181610f800152818161265001528181612689015281816126b1015281816129ed01528181612a2601528181612a4e0152612dab0152613de85ff3fe608060405260043610610220575f3560e01c806392ac25821161011e578063c9235634116100a8578063dd743bc81161006d578063dd743bc81461079d578063e0eeb3d3146107bc578063e5659f07146107db578063f2fde38b146107f0578063f797113f1461080f575f5ffd5b8063c9235634146106fa578063ca31879d14610719578063d1f6d04a14610738578063dc6930a314610755578063dd1b9c4a14610774575f5ffd5b8063aa6ca808116100ee578063aa6ca808146105e0578063abf599fc14610601578063ad5c464814610620578063b4b5b48f14610653578063c31c9c07146106db575f5ffd5b806392ac2582146104e3578063a11d8ac71461056e578063a40103d41461058d578063a480ca79146105ac575f5ffd5b80635b549182116101aa57806377e989f31161016f57806377e989f3146103c7578063791b98bc146103e45780637bdc60d9146104035780638da5cb5b146104a857806391ded8fa146104c4575f5ffd5b80635b549182146103345780635d3575a6146103535780635de7c44a1461038a578063715018a61461039f578063741c6ae8146103b3575f5ffd5b8063306d3508116101f0578063306d3508146102d7578063320dc01b1461022b57806343038e891461022b5780634f64b2be146102f65780635153563b14610315575f5ffd5b80630280a16f1461022b57806311eefb29146102545780631d08ac9d1461027557806327e2fee4146102a0575f5ffd5b3661022757005b5f5ffd5b348015610236575f5ffd5b50610241620186a081565b6040519081526020015b60405180910390f35b34801561025f575f5ffd5b5061027361026e366004613779565b610823565b005b348015610280575f5ffd5b5061024161028f3660046137fe565b60096020525f908152604090205481565b3480156102ab575f5ffd5b506102bf6102ba3660046137fe565b6109db565b6040516001600160a01b03909116815260200161024b565b3480156102e2575f5ffd5b506102416102f13660046137fe565b610a72565b348015610301575f5ffd5b506102bf610310366004613819565b610aff565b348015610320575f5ffd5b506005546102bf906001600160a01b031681565b34801561033f575f5ffd5b50600c546102bf906001600160a01b031681565b34801561035e575f5ffd5b506102bf61036d366004613819565b5f908152600760205260409020600201546001600160a01b031690565b348015610395575f5ffd5b5061024160025481565b3480156103aa575f5ffd5b50610273610b27565b3480156103be575f5ffd5b50610241600281565b3480156103d2575f5ffd5b506006546001600160a01b03166102bf565b3480156103ef575f5ffd5b50600b546102bf906001600160a01b031681565b34801561040e575f5ffd5b5061049b61041d366004613819565b604080516080810182525f808252602082018190529181018290526060810191909152505f90815260076020908152604091829020825160808101845281546001600160a01b039081168252600183015481169382019390935260029091015491821692810192909252600160a01b900460ff161515606082015290565b60405161024b9190613830565b3480156104b3575f5ffd5b505f546001600160a01b03166102bf565b3480156104cf575f5ffd5b5061049b6104de3660046137fe565b610b3a565b3480156104ee575f5ffd5b506105396104fd366004613819565b60086020525f90815260409020805460018201546002830154600384015460048501546005860154600690960154949593949293919290919087565b604080519788526020880196909652948601939093526060850191909152608084015260a083015260c082015260e00161024b565b348015610579575f5ffd5b506006546102bf906001600160a01b031681565b348015610598575f5ffd5b506102416105a736600461386d565b610c4f565b3480156105b7575f5ffd5b506105cb6105c63660046137fe565b611072565b6040805192835260208301919091520161024b565b3480156105eb575f5ffd5b506105f46111cb565b60405161024b91906138fa565b34801561060c575f5ffd5b5061027361061b366004613977565b6112a4565b34801561062b575f5ffd5b506102bf7f000000000000000000000000000000000000000000000000000000000000000081565b34801561065e575f5ffd5b506106a661066d366004613819565b60076020525f90815260409020805460018201546002909201546001600160a01b0391821692821691811690600160a01b900460ff1684565b60405161024b94939291906001600160a01b039485168152928416602084015292166040820152901515606082015260800190565b3480156106e6575f5ffd5b50600d546102bf906001600160a01b031681565b348015610705575f5ffd5b506102736107143660046139b6565b611644565b348015610724575f5ffd5b506102736107333660046139b6565b6118ed565b348015610743575f5ffd5b506005546001600160a01b03166102bf565b348015610760575f5ffd5b506004546102bf906001600160a01b031681565b34801561077f575f5ffd5b50610789610bb881565b60405162ffffff909116815260200161024b565b3480156107a8575f5ffd5b5061049b6107b73660046137fe565b611c3b565b3480156107c7575f5ffd5b506102736107d63660046137fe565b611d2f565b3480156107e6575f5ffd5b5061024160035481565b3480156107fb575f5ffd5b5061027361080a3660046137fe565b611f27565b34801561081a575f5ffd5b50610241600181565b6005546001600160a01b03163314806108c0575060055f9054906101000a90046001600160a01b03166001600160a01b031663a9dc491d6040518163ffffffff1660e01b8152600401602060405180830381865afa158015610887573d5f5f3e3d5ffd5b505050506040513d601f19601f820116820180604052508101906108ab91906139ed565b6001600160a01b0316336001600160a01b0316145b806108d457505f546001600160a01b031633145b6109145760405162461bcd60e51b815260206004820152600c60248201526b1d5b985d5d1a1bdc9a5e995960a21b60448201526064015b60405180910390fd5b5f8167ffffffffffffffff81111561092e5761092e613a08565b60405190808252806020026020018201604052801561097257816020015b604080518082019091525f808252602082015281526020019060019003908161094c5790505b5090505f5b828110156109cc5783838281811061099157610991613a1c565b9050604002018036038101906109a79190613a30565b8282815181106109b9576109b9613a1c565b6020908102919091010152600101610977565b506109d681611f64565b505050565b6004805460405163e8378fbf60e01b81526001600160a01b03848116938201939093525f92600792849291169063e8378fbf90602401602060405180830381865afa158015610a2c573d5f5f3e3d5ffd5b505050506040513d601f19601f82011682018060405250810190610a509190613a94565b815260208101919091526040015f20600101546001600160a01b031692915050565b6004805460405163e8378fbf60e01b81526001600160a01b03848116938201939093525f92600892849291169063e8378fbf90602401602060405180830381865afa158015610ac3573d5f5f3e3d5ffd5b505050506040513d601f19601f82011682018060405250810190610ae79190613a94565b81526020019081526020015f20600401549050919050565b600a8181548110610b0e575f80fd5b5f918252602090912001546001600160a01b0316905081565b610b2f6125a6565b610b385f6125d2565b565b604080516080810182525f8082526020820181905291810182905260608101919091526004805460405163e8378fbf60e01b81526001600160a01b03858116938201939093525f92600792849291169063e8378fbf90602401602060405180830381865afa158015610bae573d5f5f3e3d5ffd5b505050506040513d601f19601f82011682018060405250810190610bd29190613a94565b815260208082019290925260409081015f20815160808101835281546001600160a01b03908116808352600184015482169583019590955260029092015491821692810192909252600160a01b900460ff16151560608201529150610c495760405162461bcd60e51b815260040161090b90613aab565b92915050565b5f610c58612621565b6006546001600160a01b03163314610cb25760405162461bcd60e51b815260206004820152601c60248201527f4f6e6c7920656e6761676520746f206561726e2063616e207377617000000000604482015260640161090b565b6002831015610cf25760405162461bcd60e51b815260206004820152600c60248201526b092dcecc2d8d2c840e0c2e8d60a31b604482015260640161090b565b5f84845f818110610d0557610d05613a1c565b9050602002016020810190610d1a91906137fe565b90505f8585610d2a600182613aea565b818110610d3957610d39613a1c565b9050602002016020810190610d4e91906137fe565b600c54604051630b4c774160e11b81529192505f916001600160a01b0390911690631698ee8290610da99086907f000000000000000000000000000000000000000000000000000000000000000090610bb890600401613afd565b602060405180830381865afa158015610dc4573d5f5f3e3d5ffd5b505050506040513d601f19601f82011682018060405250810190610de891906139ed565b600c54604051630b4c774160e11b81529192505f916001600160a01b0390911690631698ee8290610e43907f0000000000000000000000000000000000000000000000000000000000000000908790610bb890600401613afd565b602060405180830381865afa158015610e5e573d5f5f3e3d5ffd5b505050506040513d601f19601f82011682018060405250810190610e8291906139ed565b90506001600160a01b03821615801590610ea457506001600160a01b03811615155b610edf5760405162461bcd60e51b815260206004820152600c60248201526b1b5a5cdcda5b99c81c1bdbdb60a21b604482015260640161090b565b600d5460405163095ea7b360e01b81526001600160a01b039182166004820152602481018b90529085169063095ea7b3906044016020604051808303815f875af1158015610f2f573d5f5f3e3d5ffd5b505050506040513d601f19601f82011682018060405250810190610f539190613b25565b506040516bffffffffffffffffffffffff19606086811b8216602084015261017760eb1b603484018190527f0000000000000000000000000000000000000000000000000000000000000000821b83166037850152604b84015285901b16604e8201525f9060620160408051601f198184030181526080830182528083526001600160a01b03808b1660208501528383018e90525f60608501819052600d54935163b858183f60e01b815292955092169063b858183f90611018908590600401613b44565b6020604051808303815f875af1158015611034573d5f5f3e3d5ffd5b505050506040513d601f19601f820116820180604052508101906110589190613a94565b97505050505050505061106a60018055565b949350505050565b5f5f61107c6125a6565b6001600160a01b0383165f90815260096020526040812054908190036110e45760405162461bcd60e51b815260206004820152601d60248201527f4e6f204c5020706f736974696f6e20666f72207468697320746f6b656e000000604482015260640161090b565b600b5460408051608081019091528281526001600160a01b039091169063fc6f7865906020810161111c5f546001600160a01b031690565b6001600160a01b0390811682526001600160801b0360208084018290526040938401829052835160e087901b6001600160e01b031916815285516004820152908501519092166024830152918301518216604482015260609092015116606482015260840160408051808303815f875af115801561119c573d5f5f3e3d5ffd5b505050506040513d601f19601f820116820180604052508101906111c09190613ba9565b909590945092505050565b600a546060905f9067ffffffffffffffff8111156111eb576111eb613a08565b60405190808252806020026020018201604052801561123b57816020015b604080516080810182525f8082526020808301829052928201819052606082015282525f199092019101816112095790505b5090505f5b600a5481101561129e57611279600a828154811061126057611260613a1c565b5f918252602090912001546001600160a01b0316610b3a565b82828151811061128b5761128b613a1c565b6020908102919091010152600101611240565b50919050565b6112ac6125a6565b5f8381526007602052604090819020600480549251632c2c7ef960e21b815290810186905290916001600160a01b03169063b0b1fbe490602401602060405180830381865afa158015611301573d5f5f3e3d5ffd5b505050506040513d601f19601f820116820180604052508101906113259190613b25565b6113635760405162461bcd60e51b815260206004820152600f60248201526e6e6f7420636f6d706c657461626c6560881b604482015260640161090b565b60048054604051630155252760e71b81529182018690526001600160a01b03169063aa929380906024015f604051808303815f87803b1580156113a4575f5ffd5b505af11580156113b6573d5f5f3e3d5ffd5b505082546001600160a01b038087166001600160a01b0319928316811786556001808701805493891693851684179055600a805491820181555f9081527fc65a7bb8d6351c1cf70c95a316cc6a92839c986682d98bc35f958f4883f9d2a890910180549094168217909355604051919450925087917fdbd3908ed1551f131cac0b0e54b86f03495799941eeb3290140b962f787409d491a45f6114588461264b565b90505f61152d85866001600160a01b031663ebda16eb6040518163ffffffff1660e01b8152600401602060405180830381865afa15801561149b573d5f5f3e3d5ffd5b505050506040513d601f19601f820116820180604052508101906114bf9190613a94565b6004805460408051631dbb6dbd60e21b815290516001600160a01b03909216926376edb6f49282820192602092908290030181865afa158015611504573d5f5f3e3d5ffd5b505050506040513d601f19601f820116820180604052508101906115289190613a94565b6129e8565b6001600160a01b038681165f8181526009602052604090819020849055600480549151632afd667f60e21b81529081018b90526024810192909252858316604483015292935091169063abf599fc906064015f604051808303815f87803b158015611596575f5ffd5b505af11580156115a8573d5f5f3e3d5ffd5b505050506002830154600160a01b900460ff161561163c575f8681526008602052604080822060029081019290925560065491850154905163038918e360e61b81526001600160a01b038881166004830152918216602482015291169063e24638c0906044015f604051808303815f87803b158015611625575f5ffd5b505af1158015611637573d5f5f3e3d5ffd5b505050505b505050505050565b6005546001600160a01b03163314806116e1575060055f9054906101000a90046001600160a01b03166001600160a01b031663a9dc491d6040518163ffffffff1660e01b8152600401602060405180830381865afa1580156116a8573d5f5f3e3d5ffd5b505050506040513d601f19601f820116820180604052508101906116cc91906139ed565b6001600160a01b0316336001600160a01b0316145b61171c5760405162461bcd60e51b815260206004820152600c60248201526b1d5b985d5d1a1bdc9a5e995960a21b604482015260640161090b565b6004805460405163e8378fbf60e01b81526001600160a01b03858116938201939093525f92600892849291169063e8378fbf90602401602060405180830381865afa15801561176d573d5f5f3e3d5ffd5b505050506040513d601f19601f820116820180604052508101906117919190613a94565b8152602081019190915260409081015f90812060048054935163e8378fbf60e01b81526001600160a01b03878116928201929092529194509192600892849291169063e8378fbf90602401602060405180830381865afa1580156117f7573d5f5f3e3d5ffd5b505050506040513d601f19601f8201168201806040525081019061181b9190613a94565b81526020019081526020015f2090506064600354836001015461183e9190613bcb565b6118489190613bf6565b82600101546118579190613aea565b8260010181905550606460035482600101546118739190613bcb565b61187d9190613bf6565b816001015461188c9190613c09565b60018083018290558301546040516001600160a01b0380871693908816927faecea04ec10c6c0b9d91c8e45440289d97d5737d78401b23bc3ca82031eae932926118df9290918252602082015260400190565b60405180910390a350505050565b6118f5612621565b6118fd6125a6565b6004805460405163e8378fbf60e01b81526001600160a01b03858116938201939093525f92600792849291169063e8378fbf90602401602060405180830381865afa15801561194e573d5f5f3e3d5ffd5b505050506040513d601f19601f820116820180604052508101906119729190613a94565b815260208101919091526040015f2080549091506001600160a01b03166119ab5760405162461bcd60e51b815260040161090b90613aab565b60028101546001600160a01b038381169116146119fd5760405162461bcd60e51b815260206004820152601060248201526f086e4cac2e8dee440dad2e6dac2e8c6d60831b604482015260640161090b565b6002810154600160a01b900460ff1615611a595760405162461bcd60e51b815260206004820152601a60248201527f416c726561647920636c61696d65642062792063726561746f72000000000000604482015260640161090b565b6004805460405163222b15fb60e01b81526001600160a01b038581169382019390935291169063222b15fb90602401602060405180830381865afa158015611aa3573d5f5f3e3d5ffd5b505050506040513d601f19601f82011682018060405250810190611ac79190613b25565b15611b145760405162461bcd60e51b815260206004820152601b60248201527f43726561746f7220616c726561647920686173206120746f6b656e0000000000604482015260640161090b565b60028101805460ff60a01b1916600160a01b1790556004805460405163e8378fbf60e01b81526001600160a01b03868116938201939093525f92600892849291169063e8378fbf90602401602060405180830381865afa158015611b7a573d5f5f3e3d5ffd5b505050506040513d601f19601f82011682018060405250810190611b9e9190613a94565b8152602081019190915260409081015f20600480820154808355600280840191909155600654865491870154945163038918e360e61b81526001600160a01b0392831693810193909352938116602483015291935091169063e24638c0906044015f604051808303815f87803b158015611c16575f5ffd5b505af1158015611c28573d5f5f3e3d5ffd5b505050505050611c3760018055565b5050565b604080516080810182525f8082526020820181905291810182905260608101919091526004805460405163e8378fbf60e01b81526001600160a01b03858116938201939093526007925f92169063e8378fbf90602401602060405180830381865afa158015611cac573d5f5f3e3d5ffd5b505050506040513d601f19601f82011682018060405250810190611cd09190613a94565b815260208082019290925260409081015f20815160808101835281546001600160a01b039081168252600183015481169482019490945260029091015492831691810191909152600160a01b90910460ff161515606082015292915050565b611d376125a6565b6001600160a01b03811615611e12576004805460405163222b15fb60e01b81526001600160a01b038481169382019390935291169063222b15fb90602401602060405180830381865afa158015611d90573d5f5f3e3d5ffd5b505050506040513d601f19601f82011682018060405250810190611db49190613b25565b611e125760405162461bcd60e51b815260206004820152602960248201527f43726561746f7220697320626c6f636b6564206f7220616c7265616479206861604482015268399030903a37b5b2b760b91b606482015260840161090b565b6004805460405163e0eeb3d360e01b81526001600160a01b03848116938201939093525f928392169063e0eeb3d39060240160408051808303815f875af1158015611e5f573d5f5f3e3d5ffd5b505050506040513d601f19601f82011682018060405250810190611e839190613ba9565b5f82815260076020908152604080832060028082018054600160a01b6001600160a01b038d811680151583026001600160a81b0319909416179290921783559254600887529685902096909655548254845192820460ff161515835294820187905296985094965094831693919092169186917ff0c0bc2d3fca58ed0faa7b1b3cdfe520dc530b72e249182a61b923ec6067d997910160405180910390a450505050565b611f2f6125a6565b6001600160a01b038116611f5857604051631e4fbdf760e01b81525f600482015260240161090b565b611f61816125d2565b50565b5f5b8151811015611c375760045482515f9160079183916001600160a01b03169063e8378fbf90879087908110611f9d57611f9d613a1c565b6020908102919091010151516040516001600160e01b031960e084901b1681526001600160a01b039091166004820152602401602060405180830381865afa158015611feb573d5f5f3e3d5ffd5b505050506040513d601f19601f8201168201806040525081019061200f9190613a94565b815260208101919091526040015f2080549091506001600160a01b03166120485760405162461bcd60e51b815260040161090b90613aab565b60045483515f9160089183916001600160a01b03169063e8378fbf9088908890811061207657612076613a1c565b6020908102919091010151516040516001600160e01b031960e084901b1681526001600160a01b039091166004820152602401602060405180830381865afa1580156120c4573d5f5f3e3d5ffd5b505050506040513d601f19601f820116820180604052508101906120e89190613a94565b81526020019081526020015f20905080600501545f148061211a575060058101546121169062015180613c09565b4210155b806121a9575060055f9054906101000a90046001600160a01b03166001600160a01b031663a9dc491d6040518163ffffffff1660e01b8152600401602060405180830381865afa158015612170573d5f5f3e3d5ffd5b505050506040513d601f19601f8201168201806040525081019061219491906139ed565b6001600160a01b0316336001600160a01b0316145b6121f55760405162461bcd60e51b815260206004820152601860248201527f486561742075706461746520746f6f206672657175656e740000000000000000604482015260640161090b565b5f816004015490505f85858151811061221057612210613a1c565b6020026020010151602001519050818110156122665760405162461bcd60e51b8152602060048201526015602482015274496e76616c6964206865617420646563726561736560581b604482015260640161090b565b600483018190554260058401556002548354148015612283575081155b1561228c575f83555b600654845460405163f251f45f60e01b81526001600160a01b03918216600482015291169063f251f45f90602401602060405180830381865afa1580156122d5573d5f5f3e3d5ffd5b505050506040513d601f19601f820116820180604052508101906122f99190613b25565b156123c157825460048401545f9161231091613aea565b90505f612320620186a083613bf6565b905080156123be575f5b81811015612399576006548754604051633248f2b360e11b81526001600160a01b039182166004820152911690636491e566906024015f604051808303815f87803b158015612377575f5ffd5b505af1158015612389573d5f5f3e3d5ffd5b50506001909201915061232a9050565b506123a7620186a082613bcb565b855f015f8282546123b89190613c09565b90915550505b50505b6002840154600160a01b900460ff16801561244457506006548454604051634ed599fb60e11b81526001600160a01b039182166004820152911690639dab33f690602401602060405180830381865afa158015612420573d5f5f3e3d5ffd5b505050506040513d601f19601f820116820180604052508101906124449190613b25565b1561252a5782600101545f0361245e57620186a060018401555b5f836002015484600401546124739190613aea565b90505f8460010154826124869190613bf6565b90508015612527575f5b818110156124ff57600654875460405163641d27ab60e01b81526001600160a01b03918216600482015291169063641d27ab906024015f604051808303815f87803b1580156124dd575f5ffd5b505af11580156124ef573d5f5f3e3d5ffd5b5050600190920191506124909050565b50600185015461250f9082613bcb565b856002015f8282546125219190613c09565b90915550505b50505b85858151811061253c5761253c613a1c565b60200260200101515f01516001600160a01b03167f17f0fa8193ad599e6d9e20fb742ac1d5fd0b1bf4246f0aa664a4c293863ffac084600401544260405161258e929190918252602082015260400190565b60405180910390a2505060019092019150611f669050565b5f546001600160a01b03163314610b385760405163118cdaa760e01b815233600482015260240161090b565b5f80546001600160a01b038381166001600160a01b0319831681178455604051919092169283917f8be0079c531659141344cd1fd0a4f28419497f9722a3daafe3b4186f6b6457e09190a35050565b60026001540361264457604051633ee5aeb560e01b815260040160405180910390fd5b6002600155565b5f5f5f7f00000000000000000000000000000000000000000000000000000000000000006001600160a01b0316846001600160a01b0316106126ae577f0000000000000000000000000000000000000000000000000000000000000000846126d1565b837f00000000000000000000000000000000000000000000000000000000000000005b915091505f846001600160a01b031663ebda16eb6040518163ffffffff1660e01b8152600401602060405180830381865afa158015612712573d5f5f3e3d5ffd5b505050506040513d601f19601f820116820180604052508101906127369190613a94565b90505f60045f9054906101000a90046001600160a01b03166001600160a01b03166376edb6f46040518163ffffffff1660e01b8152600401602060405180830381865afa158015612789573d5f5f3e3d5ffd5b505050506040513d601f19601f820116820180604052508101906127ad9190613a94565b90505f821180156127bd57505f81115b6127f85760405162461bcd60e51b815260206004820152600c60248201526b7a65726f20616d6f756e747360a01b604482015260640161090b565b5f866001600160a01b0316856001600160a01b031614612818578161281a565b825b90505f876001600160a01b0316866001600160a01b03161461283c578361283e565b825b600c54604051630b4c774160e11b81529192505f916001600160a01b0390911690631698ee8290612879908a908a90610bb890600401613afd565b602060405180830381865afa158015612894573d5f5f3e3d5ffd5b505050506040513d601f19601f820116820180604052508101906128b891906139ed565b90506001600160a01b038116156128ff5760405162461bcd60e51b815260206004820152600b60248201526a504f4f4c5f45584953545360a81b604482015260640161090b565b5f61290a8385612f34565b600c5460405163a167129560e01b81529192506001600160a01b03169063a167129590612941908b908b90610bb890600401613afd565b6020604051808303815f875af115801561295d573d5f5f3e3d5ffd5b505050506040513d601f19601f8201168201806040525081019061298191906139ed565b60405163f637731d60e01b81526001600160a01b038381166004830152919a50908a169063f637731d906024015f604051808303815f87803b1580156129c5575f5ffd5b505af11580156129d7573d5f5f3e3d5ffd5b505050505050505050505050919050565b5f5f5f7f00000000000000000000000000000000000000000000000000000000000000006001600160a01b0316866001600160a01b031610612a4b577f000000000000000000000000000000000000000000000000000000000000000086612a6e565b857f00000000000000000000000000000000000000000000000000000000000000005b915091505f866001600160a01b0316836001600160a01b031614612a925784612a94565b855b90505f876001600160a01b0316846001600160a01b031614612ab65786612ab8565b855b6040516370a0823160e01b815230600482015290915087906001600160a01b038a16906370a0823190602401602060405180830381865afa158015612aff573d5f5f3e3d5ffd5b505050506040513d601f19601f82011682018060405250810190612b239190613a94565b1015612b695760405162461bcd60e51b815260206004820152601560248201527426a4a9a9a4a723afa120a620a721a2afaa27a5a2a760591b604482015260640161090b565b85471015612baf5760405162461bcd60e51b815260206004820152601360248201527209a92a6a6929c8ebe848298829c868abe8aa89606b1b604482015260640161090b565b5f612bf9896001600160a01b0316866001600160a01b031614612bd25788612bd4565b875b8a6001600160a01b0316876001600160a01b031614612bf35788612f34565b89612f34565b90505f612c0582612fe0565b9050603c5f612c1661271084613c1c565b90505f612c2584612710613c41565b90505f612c34838560016132e5565b90505f612c4283865f6132e5565b9050620d89e719600283900b1215612c7357612c6285620d89e719613c66565b612c7090620d89e719613c1c565b91505b612c80620d89e719613c87565b60020b8160020b1315612cbf5784612c9b620d89e719613c87565b612ca59190613c66565b612cb2620d89e719613c87565b612cbc9190613c1c565b90505b600b5460405163095ea7b360e01b81526001600160a01b039182166004820152602481018b9052908c169063095ea7b3906044016020604051808303815f875af1158015612d0f573d5f5f3e3d5ffd5b505050506040513d601f19601f82011682018060405250810190612d339190613b25565b50600b5460405163095ea7b360e01b81526001600160a01b039182166004820152602481018a9052908b169063095ea7b3906044016020604051808303815f875af1158015612d84573d5f5f3e3d5ffd5b505050506040513d601f19601f82011682018060405250810190612da89190613b25565b507f00000000000000000000000000000000000000000000000000000000000000006001600160a01b031663d0e30db08e6040518263ffffffff1660e01b81526004015f604051808303818588803b158015612e02575f5ffd5b505af1158015612e14573d5f5f3e3d5ffd5b50505050505f600b5f9054906101000a90046001600160a01b03166001600160a01b031663883164566040518061016001604052808f6001600160a01b031681526020018e6001600160a01b03168152602001610bb862ffffff1681526020018660020b81526020018560020b81526020018d81526020018c81526020015f81526020015f8152602001306001600160a01b0316815260200142610258612ebb9190613c09565b8152506040518263ffffffff1660e01b8152600401612eda9190613ca7565b6080604051808303815f875af1158015612ef6573d5f5f3e3d5ffd5b505050506040513d601f19601f82011682018060405250810190612f1a9190613d6b565b50919e5050505050505050505050505050505b9392505050565b5f5f82118015612f4357505f83115b612f7b5760405162461bcd60e51b815260206004820152600960248201526862616420726174696f60b81b604482015260640161090b565b5f612f8b84600160c01b85613365565b90505f612f978261340f565b90506001600160a01b0381111561106a5760405162461bcd60e51b815260206004820152600d60248201526c73717274206f766572666c6f7760981b604482015260640161090b565b5f6401000276a36001600160a01b0383161080159061301b575073fffd8963efd1fc6a506488495d951d5263988d266001600160a01b038316105b613038576040516324c070df60e11b815260040160405180910390fd5b640100000000600160c01b03602083901b166001600160801b03811160071b81811c67ffffffffffffffff811160061b90811c63ffffffff811160051b90811c61ffff811160041b90811c60ff8111600390811b91821c600f811160021b90811c918211600190811b92831c979088119617909417909217179091171717608081106130cc57607f810383901c91506130d6565b80607f0383901b91505b908002607f81811c60ff83811c9190911c800280831c81831c1c800280841c81841c1c800280851c81851c1c800280861c81861c1c800280871c81871c1c800280881c81881c1c800280891c81891c1c8002808a1c818a1c1c8002808b1c818b1c1c8002808c1c818c1c1c8002808d1c818d1c1c8002808e1c9c81901c9c909c1c80029c8d901c9e9d607f198f0160401b60c09190911c678000000000000000161760c19b909b1c674000000000000000169a909a1760c29990991c672000000000000000169890981760c39790971c671000000000000000169690961760c49590951c670800000000000000169490941760c59390931c670400000000000000169290921760c69190911c670200000000000000161760c79190911c670100000000000000161760c89190911c6680000000000000161760c99190911c6640000000000000161760ca9190911c6620000000000000161760cb9190911c6610000000000000161760cc9190911c6608000000000000161760cd9190911c66040000000000001617693627a301d71055774c8581026f028f6481ab7f045a5af012a19d003aa9198101608090811d906fdb2df09e81959a81455e260799a0632f8301901d600281810b9083900b146132d657886001600160a01b03166132bb8261345e565b6001600160a01b031611156132d057816132d8565b806132d8565b815b9998505050505050505050565b5f806132f18486613c66565b90508060020b5f036133065784915050612f2d565b82613336575f8560020b1361331b575f61331d565b835b6133278287613c1c565b6133319190613c41565b61335c565b5f8560020b12613346575f613348565b835b6133528287613c1c565b61335c9190613c1c565b95945050505050565b5f80805f19858709858702925082811083820303915050805f03613399575f841161338e575f5ffd5b508290049050612f2d565b8084116133a4575f5ffd5b5f848688095f868103871696879004966002600389028118808a02820302808a02820302808a02820302808a02820302808a02820302808a02909103029181900381900460010186841190950394909402919094039290920491909117919091029150509392505050565b5f815f0361341e57505f919050565b5f600161342b8482613c09565b901c90508291505b8181101561129e5790508060018161344b8186613bf6565b6134559190613c09565b901c9050613433565b5f5f5f8360020b12613473578260020b61347a565b8260020b5f035b9050620d89e88111156134a0576040516315e4079d60e11b815260040160405180910390fd5b5f816001165f036134b557600160801b6134c7565b6ffffcb933bd6fad37aa2d162d1a5940015b70ffffffffffffffffffffffffffffffffff16905060028216156134fb576ffff97272373d413259a46990580e213a0260801c5b600482161561351a576ffff2e50f5f656932ef12357cf3c7fdcc0260801c5b6008821615613539576fffe5caca7e10e4e61c3624eaa0941cd00260801c5b6010821615613558576fffcb9843d60f6159c9db58835c9266440260801c5b6020821615613577576fff973b41fa98c081472e6896dfb254c00260801c5b6040821615613596576fff2ea16466c96a3843ec78b326b528610260801c5b60808216156135b5576ffe5dee046a99a2a811c461f1969c30530260801c5b6101008216156135d5576ffcbe86c7900a88aedcffc83b479aa3a40260801c5b6102008216156135f5576ff987a7253ac413176f2b074cf7815e540260801c5b610400821615613615576ff3392b0822b70005940c7a398e4b70f30260801c5b610800821615613635576fe7159475a2c29b7443b29c7fa6e889d90260801c5b611000821615613655576fd097f3bdfd2022b8845ad8f792aa58250260801c5b612000821615613675576fa9f746462d870fdf8a65dc1f90e061e50260801c5b614000821615613695576f70d869a156d2a1b890bb3df62baf32f70260801c5b6180008216156136b5576f31be135f97d08fd981231505542fcfa60260801c5b620100008216156136d6576f09aa508b5b7a84e1c677de54f3e99bc90260801c5b620200008216156136f6576e5d6af8dedb81196699c329225ee6040260801c5b62040000821615613715576d2216e584f5fa1ea926041bedfe980260801c5b62080000821615613732576b048a170391f7dc42444e8fa20260801c5b5f8460020b131561375157805f198161374d5761374d613be2565b0490505b640100000000810615613765576001613767565b5f5b60ff16602082901c0192505050919050565b5f5f6020838503121561378a575f5ffd5b823567ffffffffffffffff8111156137a0575f5ffd5b8301601f810185136137b0575f5ffd5b803567ffffffffffffffff8111156137c6575f5ffd5b8560208260061b84010111156137da575f5ffd5b6020919091019590945092505050565b6001600160a01b0381168114611f61575f5ffd5b5f6020828403121561380e575f5ffd5b8135612f2d816137ea565b5f60208284031215613829575f5ffd5b5035919050565b81516001600160a01b0390811682526020808401518216908301526040808401519091169082015260608083015115159082015260808101610c49565b5f5f5f5f60608587031215613880575f5ffd5b84359350602085013567ffffffffffffffff81111561389d575f5ffd5b8501601f810187136138ad575f5ffd5b803567ffffffffffffffff8111156138c3575f5ffd5b8760208260051b84010111156138d7575f5ffd5b6020919091019350915060408501356138ef816137ea565b939692955090935050565b602080825282518282018190525f918401906040840190835b8181101561396c5761395683855180516001600160a01b039081168352602080830151821690840152604080830151909116908301526060908101511515910152565b6020939093019260809290920191600101613913565b509095945050505050565b5f5f5f60608486031215613989575f5ffd5b83359250602084013561399b816137ea565b915060408401356139ab816137ea565b809150509250925092565b5f5f604083850312156139c7575f5ffd5b82356139d2816137ea565b915060208301356139e2816137ea565b809150509250929050565b5f602082840312156139fd575f5ffd5b8151612f2d816137ea565b634e487b7160e01b5f52604160045260245ffd5b634e487b7160e01b5f52603260045260245ffd5b5f6040828403128015613a41575f5ffd5b506040805190810167ffffffffffffffff81118282101715613a7157634e487b7160e01b5f52604160045260245ffd5b6040528235613a7f816137ea565b81526020928301359281019290925250919050565b5f60208284031215613aa4575f5ffd5b5051919050565b602080825260119082015270151bdad95b881b9bdd0818dc99585d1959607a1b604082015260600190565b634e487b7160e01b5f52601160045260245ffd5b81810381811115610c4957610c49613ad6565b6001600160a01b03938416815291909216602082015262ffffff909116604082015260600190565b5f60208284031215613b35575f5ffd5b81518015158114612f2d575f5ffd5b602081525f82516080602084015280518060a0850152806020830160c086015e5f60c0828601015260018060a01b036020860151166040850152604085015160608501526060850151608085015260c0601f19601f8301168501019250505092915050565b5f5f60408385031215613bba575f5ffd5b505080516020909101519092909150565b8082028115828204841417610c4957610c49613ad6565b634e487b7160e01b5f52601260045260245ffd5b5f82613c0457613c04613be2565b500490565b80820180821115610c4957610c49613ad6565b600282810b9082900b03627fffff198112627fffff82131715610c4957610c49613ad6565b600281810b9083900b01627fffff8113627fffff1982121715610c4957610c49613ad6565b5f8260020b80613c7857613c78613be2565b808360020b0791505092915050565b5f8160020b627fffff198103613c9f57613c9f613ad6565b5f0392915050565b81516001600160a01b0316815261016081016020830151613cd360208401826001600160a01b03169052565b506040830151613cea604084018262ffffff169052565b506060830151613cff606084018260020b9052565b506080830151613d14608084018260020b9052565b5060a083015160a083015260c083015160c083015260e083015160e0830152610100830151610100830152610120830151613d5b6101208401826001600160a01b03169052565b5061014092830151919092015290565b5f5f5f5f60808587031215613d7e575f5ffd5b845160208601519094506001600160801b0381168114613d9c575f5ffd5b604086015160609096015194979096509250505056fea2646970667358221220ca298138490b1b3b1ad94389545382bb25707e9178588b4d24d275fe33160c9264736f6c634300081c0033",
  "linkReferences": {},
  "deployedLinkReferences": {},
  "immutableReferences": {
    "12346": [
      {
        "length": 32,
        "start": 1585
      },
      {
        "length": 32,
        "start": 3453
      },
      {
        "length": 32,
        "start": 3605
      },
      {
        "length": 32,
        "start": 3968
      },
      {
        "length": 32,
        "start": 9808
      },
      {
        "length": 32,
        "start": 9865
      },
      {
        "length": 32,
        "start": 9905
      },
      {
        "length": 32,
        "start": 10733
      },
      {
        "length": 32,
        "start": 10790
      },
      {
        "length": 32,
        "start": 10830
      },
      {
        "length": 32,
        "start": 11691
      }
    ]
  },
  "inputSourceName": "project/contracts/MemedFactory.sol",
  "buildInfoId": "solc-0_8_28-9b326663398cd856487db2fc894b12c72d52ccfe"
}