{
  "_format": "hh3-artifact-1",
  "contractName": "MemedToken",
  "sourceName": "contracts/MemedToken.sol",
  "abi": [
    {
      "inputs": [
        {
          "internalType": "string",
          "name": "_name",
          "type": "string"
        },
        {
          "internalType": "string",
          "name": "_ticker",
          "type": "string"
        },
        {
          "internalType": "address",
          "name": "_factoryContract",
          "type": "address"
        },
        {
          "internalType": "address",
          "name": "_engageToEarnContract",
          "type": "address"
        },
        {
          "internalType": "address",
          "name": "_memedTokenSale",
          "type": "address"
        }
      ],
      "stateMutability": "nonpayable",
      "type": "constructor"
    },
    {
      "inputs": [
        {
          "internalType": "address",
          "name": "spender",
          "type": "address"
        },
        {
          "internalType": "uint256",
          "name": "allowance",
          "type": "uint256"
        },
        {
          "internalType": "uint256",
          "name": "needed",
          "type": "uint256"
        }
      ],
      "name": "ERC20InsufficientAllowance",
      "type": "error"
    },
    {
      "inputs": [
        {
          "internalType": "address",
          "name": "sender",
          "type": "address"
        },
        {
          "internalType": "uint256",
          "name": "balance",
          "type": "uint256"
        },
        {
          "internalType": "uint256",
          "name": "needed",
          "type": "uint256"
        }
      ],
      "name": "ERC20InsufficientBalance",
      "type": "error"
    },
    {
      "inputs": [
        {
          "internalType": "address",
          "name": "approver",
          "type": "address"
        }
      ],
      "name": "ERC20InvalidApprover",
      "type": "error"
    },
    {
      "inputs": [
        {
          "internalType": "address",
          "name": "receiver",
          "type": "address"
        }
      ],
      "name": "ERC20InvalidReceiver",
      "type": "error"
    },
    {
      "inputs": [
        {
          "internalType": "address",
          "name": "sender",
          "type": "address"
        }
      ],
      "name": "ERC20InvalidSender",
      "type": "error"
    },
    {
      "inputs": [
        {
          "internalType": "address",
          "name": "spender",
          "type": "address"
        }
      ],
      "name": "ERC20InvalidSpender",
      "type": "error"
    },
    {
      "inputs": [
        {
          "internalType": "address",
          "name": "owner",
          "type": "address"
        }
      ],
      "name": "OwnableInvalidOwner",
      "type": "error"
    },
    {
      "inputs": [
        {
          "internalType": "address",
          "name": "account",
          "type": "address"
        }
      ],
      "name": "OwnableUnauthorizedAccount",
      "type": "error"
    },
    {
      "anonymous": false,
      "inputs": [
        {
          "indexed": true,
          "internalType": "address",
          "name": "owner",
          "type": "address"
        },
        {
          "indexed": true,
          "internalType": "address",
          "name": "spender",
          "type": "address"
        },
        {
          "indexed": false,
          "internalType": "uint256",
          "name": "value",
          "type": "uint256"
        }
      ],
      "name": "Approval",
      "type": "event"
    },
    {
      "anonymous": false,
      "inputs": [
        {
          "indexed": true,
          "internalType": "address",
          "name": "previousOwner",
          "type": "address"
        },
        {
          "indexed": true,
          "internalType": "address",
          "name": "newOwner",
          "type": "address"
        }
      ],
      "name": "OwnershipTransferred",
      "type": "event"
    },
    {
      "anonymous": false,
      "inputs": [
        {
          "indexed": true,
          "internalType": "address",
          "name": "from",
          "type": "address"
        },
        {
          "indexed": true,
          "internalType": "address",
          "name": "to",
          "type": "address"
        },
        {
          "indexed": false,
          "internalType": "uint256",
          "name": "value",
          "type": "uint256"
        }
      ],
      "name": "Transfer",
      "type": "event"
    },
    {
      "inputs": [],
      "name": "CREATOR_INCENTIVES_ALLOCATION",
      "outputs": [
        {
          "internalType": "uint256",
          "name": "",
          "type": "uint256"
        }
      ],
      "stateMutability": "view",
      "type": "function"
    },
    {
      "inputs": [],
      "name": "ENGAGEMENT_REWARDS_ALLOCATION",
      "outputs": [
        {
          "internalType": "uint256",
          "name": "",
          "type": "uint256"
        }
      ],
      "stateMutability": "view",
      "type": "function"
    },
    {
      "inputs": [],
      "name": "FAIR_LAUNCH_ALLOCATION",
      "outputs": [
        {
          "internalType": "uint256",
          "name": "",
          "type": "uint256"
        }
      ],
      "stateMutability": "view",
      "type": "function"
    },
    {
      "inputs": [],
      "name": "LP_ALLOCATION",
      "outputs": [
        {
          "internalType": "uint256",
          "name": "",
          "type": "uint256"
        }
      ],
      "stateMutability": "view",
      "type": "function"
    },
    {
      "inputs": [],
      "name": "MAX_SUPPLY",
      "outputs": [
        {
          "internalType": "uint256",
          "name": "",
          "type": "uint256"
        }
      ],
      "stateMutability": "view",
      "type": "function"
    },
    {
      "inputs": [
        {
          "internalType": "address",
          "name": "owner",
          "type": "address"
        },
        {
          "internalType": "address",
          "name": "spender",
          "type": "address"
        }
      ],
      "name": "allowance",
      "outputs": [
        {
          "internalType": "uint256",
          "name": "",
          "type": "uint256"
        }
      ],
      "stateMutability": "view",
      "type": "function"
    },
    {
      "inputs": [
        {
          "internalType": "address",
          "name": "spender",
          "type": "address"
        },
        {
          "internalType": "uint256",
          "name": "value",
          "type": "uint256"
        }
      ],
      "name": "approve",
      "outputs": [
        {
          "internalType": "bool",
          "name": "",
          "type": "bool"
        }
      ],
      "stateMutability": "nonpayable",
      "type": "function"
    },
    {
      "inputs": [
        {
          "internalType": "address",
          "name": "account",
          "type": "address"
        }
      ],
      "name": "balanceOf",
      "outputs": [
        {
          "internalType": "uint256",
          "name": "",
          "type": "uint256"
        }
      ],
      "stateMutability": "view",
      "type": "function"
    },
    {
      "inputs": [
        {
          "internalType": "uint256",
          "name": "amount",
          "type": "uint256"
        }
      ],
      "name": "burn",
      "outputs": [],
      "stateMutability": "nonpayable",
      "type": "function"
    },
    {
      "inputs": [
        {
          "internalType": "address",
          "name": "account",
          "type": "address"
        },
        {
          "internalType": "uint256",
          "name": "amount",
          "type": "uint256"
        }
      ],
      "name": "burnFrom",
      "outputs": [],
      "stateMutability": "nonpayable",
      "type": "function"
    },
    {
      "inputs": [],
      "name": "decimals",
      "outputs": [
        {
          "internalType": "uint8",
          "name": "",
          "type": "uint8"
        }
      ],
      "stateMutability": "view",
      "type": "function"
    },
    {
      "inputs": [],
      "name": "name",
      "outputs": [
        {
          "internalType": "string",
          "name": "",
          "type": "string"
        }
      ],
      "stateMutability": "view",
      "type": "function"
    },
    {
      "inputs": [],
      "name": "owner",
      "outputs": [
        {
          "internalType": "address",
          "name": "",
          "type": "address"
        }
      ],
      "stateMutability": "view",
      "type": "function"
    },
    {
      "inputs": [],
      "name": "renounceOwnership",
      "outputs": [],
      "stateMutability": "nonpayable",
      "type": "function"
    },
    {
      "inputs": [],
      "name": "symbol",
      "outputs": [
        {
          "internalType": "string",
          "name": "",
          "type": "string"
        }
      ],
      "stateMutability": "view",
      "type": "function"
    },
    {
      "inputs": [],
      "name": "totalSupply",
      "outputs": [
        {
          "internalType": "uint256",
          "name": "",
          "type": "uint256"
        }
      ],
      "stateMutability": "view",
      "type": "function"
    },
    {
      "inputs": [
        {
          "internalType": "address",
          "name": "to",
          "type": "address"
        },
        {
          "internalType": "uint256",
          "name": "value",
          "type": "uint256"
        }
      ],
      "name": "transfer",
      "outputs": [
        {
          "internalType": "bool",
          "name": "",
          "type": "bool"
        }
      ],
      "stateMutability": "nonpayable",
      "type": "function"
    },
    {
      "inputs": [
        {
          "internalType": "address",
          "name": "from",
          "type": "address"
        },
        {
          "internalType": "address",
          "name": "to",
          "type": "address"
        },
        {
          "internalType": "uint256",
          "name": "value",
          "type": "uint256"
        }
      ],
      "name": "transferFrom",
      "outputs": [
        {
          "internalType": "bool",
          "name": "",
          "type": "bool"
        }
      ],
      "stateMutability": "nonpayable",
      "type": "function"
    },
    {
      "inputs": [
        {
          "internalType": "address",
          "name": "newOwner",
          "type": "address"
        }
      ],
      "name": "transferOwnership",
      "outputs": [],
      "stateMutability": "nonpayable",
      "type": "function"
    }
  ],
  "bytecode": "0x608060405234801561000f575f5ffd5b50604051610eb5380380610eb583398101604081905261002e9161034a565b338585600361003d8382610463565b50600461004a8282610463565b5050506001600160a01b03811661007b57604051631e4fbdf760e01b81525f60048201526024015b60405180910390fd5b610084816100e3565b5061009a836a52b7d2dcc80cd2e4000000610134565b6100c4826100bf6aa56fa5b99019a5c80000006b01c6f307be4c4687e600000061051d565b610134565b6100d9816a7c13bc4b2c133c56000000610134565b5050505050610542565b600580546001600160a01b038381166001600160a01b0319831681179093556040519116919082907f8be0079c531659141344cd1fd0a4f28419497f9722a3daafe3b4186f6b6457e0905f90a35050565b6001600160a01b03821661015d5760405163ec442f0560e01b81525f6004820152602401610072565b6101685f838361016c565b5050565b6001600160a01b038316610196578060025f82825461018b919061051d565b909155506102069050565b6001600160a01b0383165f90815260208190526040902054818110156101e85760405163391434e360e21b81526001600160a01b03851660048201526024810182905260448101839052606401610072565b6001600160a01b0384165f9081526020819052604090209082900390555b6001600160a01b03821661022257600280548290039055610240565b6001600160a01b0382165f9081526020819052604090208054820190555b816001600160a01b0316836001600160a01b03167fddf252ad1be2c89b69c2b068fc378daa952ba7f163c4a11628f55a4df523b3ef8360405161028591815260200190565b60405180910390a3505050565b634e487b7160e01b5f52604160045260245ffd5b5f82601f8301126102b5575f5ffd5b81516001600160401b038111156102ce576102ce610292565b604051601f8201601f19908116603f011681016001600160401b03811182821017156102fc576102fc610292565b604052818152838201602001851015610313575f5ffd5b8160208501602083015e5f918101602001919091529392505050565b80516001600160a01b0381168114610345575f5ffd5b919050565b5f5f5f5f5f60a0868803121561035e575f5ffd5b85516001600160401b03811115610373575f5ffd5b61037f888289016102a6565b602088015190965090506001600160401b0381111561039c575f5ffd5b6103a8888289016102a6565b9450506103b76040870161032f565b92506103c56060870161032f565b91506103d36080870161032f565b90509295509295909350565b600181811c908216806103f357607f821691505b60208210810361041157634e487b7160e01b5f52602260045260245ffd5b50919050565b601f82111561045e57805f5260205f20601f840160051c8101602085101561043c5750805b601f840160051c820191505b8181101561045b575f8155600101610448565b50505b505050565b81516001600160401b0381111561047c5761047c610292565b6104908161048a84546103df565b84610417565b6020601f8211600181146104c2575f83156104ab5750848201515b5f19600385901b1c1916600184901b17845561045b565b5f84815260208120601f198516915b828110156104f157878501518255602094850194600190920191016104d1565b508482101561050e57868401515f19600387901b60f8161c191681555b50505050600190811b01905550565b8082018082111561053c57634e487b7160e01b5f52601160045260245ffd5b92915050565b6109668061054f5f395ff3fe608060405234801561000f575f5ffd5b506004361061011c575f3560e01c8063715018a6116100a9578063cd1b21381161006e578063cd1b213814610248578063dd62ed3e1461025a578063eab7f50c14610292578063ebda16eb146102a5578063f2fde38b146102b7575f5ffd5b8063715018a6146101f757806379cc6790146101ff5780638da5cb5b1461021257806395d89b411461022d578063a9059cbb14610235575f5ffd5b806323b872dd116100ef57806323b872dd14610185578063313ce5671461019857806332cb6b0c146101a757806342966c68146101ba57806370a08231146101cf575f5ffd5b806306fdde0314610120578063095ea7b31461013e57806318160ddd146101615780631a5e3c9d14610173575b5f5ffd5b6101286102ca565b60405161013591906107bf565b60405180910390f35b61015161014c36600461080f565b61035a565b6040519015158152602001610135565b6002545b604051908152602001610135565b6101656aa56fa5b99019a5c800000081565b610151610193366004610837565b610373565b60405160128152602001610135565b6101656b033b2e3c9fd0803ce800000081565b6101cd6101c8366004610871565b610396565b005b6101656101dd366004610888565b6001600160a01b03165f9081526020819052604090205490565b6101cd6103a3565b6101cd61020d36600461080f565b6103b6565b6005546040516001600160a01b039091168152602001610135565b6101286103cf565b61015161024336600461080f565b6103de565b6101656a7c13bc4b2c133c5600000081565b6101656102683660046108a8565b6001600160a01b039182165f90815260016020908152604080832093909416825291909152205490565b6101656b01c6f307be4c4687e600000081565b6101656a52b7d2dcc80cd2e400000081565b6101cd6102c5366004610888565b6103eb565b6060600380546102d9906108d9565b80601f0160208091040260200160405190810160405280929190818152602001828054610305906108d9565b80156103505780601f1061032757610100808354040283529160200191610350565b820191905f5260205f20905b81548152906001019060200180831161033357829003601f168201915b5050505050905090565b5f3361036781858561042a565b60019150505b92915050565b5f3361038085828561043c565b61038b8585856104b8565b506001949350505050565b6103a03382610515565b50565b6103ab610549565b6103b45f610576565b565b6103c182338361043c565b6103cb8282610515565b5050565b6060600480546102d9906108d9565b5f336103678185856104b8565b6103f3610549565b6001600160a01b03811661042157604051631e4fbdf760e01b81525f60048201526024015b60405180910390fd5b6103a081610576565b61043783838360016105c7565b505050565b6001600160a01b038381165f908152600160209081526040808320938616835292905220545f198110156104b257818110156104a457604051637dc7a0d960e11b81526001600160a01b03841660048201526024810182905260448101839052606401610418565b6104b284848484035f6105c7565b50505050565b6001600160a01b0383166104e157604051634b637e8f60e11b81525f6004820152602401610418565b6001600160a01b03821661050a5760405163ec442f0560e01b81525f6004820152602401610418565b610437838383610699565b6001600160a01b03821661053e57604051634b637e8f60e11b81525f6004820152602401610418565b6103cb825f83610699565b6005546001600160a01b031633146103b45760405163118cdaa760e01b8152336004820152602401610418565b600580546001600160a01b038381166001600160a01b0319831681179093556040519116919082907f8be0079c531659141344cd1fd0a4f28419497f9722a3daafe3b4186f6b6457e0905f90a35050565b6001600160a01b0384166105f05760405163e602df0560e01b81525f6004820152602401610418565b6001600160a01b03831661061957604051634a1406b160e11b81525f6004820152602401610418565b6001600160a01b038085165f90815260016020908152604080832093871683529290522082905580156104b257826001600160a01b0316846001600160a01b03167f8c5be1e5ebec7d5bd14f71427d1e84f3dd0314c0f7b2291e5b200ac8c7c3b9258460405161068b91815260200190565b60405180910390a350505050565b6001600160a01b0383166106c3578060025f8282546106b89190610911565b909155506107339050565b6001600160a01b0383165f90815260208190526040902054818110156107155760405163391434e360e21b81526001600160a01b03851660048201526024810182905260448101839052606401610418565b6001600160a01b0384165f9081526020819052604090209082900390555b6001600160a01b03821661074f5760028054829003905561076d565b6001600160a01b0382165f9081526020819052604090208054820190555b816001600160a01b0316836001600160a01b03167fddf252ad1be2c89b69c2b068fc378daa952ba7f163c4a11628f55a4df523b3ef836040516107b291815260200190565b60405180910390a3505050565b602081525f82518060208401528060208501604085015e5f604082850101526040601f19601f83011684010191505092915050565b80356001600160a01b038116811461080a575f5ffd5b919050565b5f5f60408385031215610820575f5ffd5b610829836107f4565b946020939093013593505050565b5f5f5f60608486031215610849575f5ffd5b610852846107f4565b9250610860602085016107f4565b929592945050506040919091013590565b5f60208284031215610881575f5ffd5b5035919050565b5f60208284031215610898575f5ffd5b6108a1826107f4565b9392505050565b5f5f604083850312156108b9575f5ffd5b6108c2836107f4565b91506108d0602084016107f4565b90509250929050565b600181811c908216806108ed57607f821691505b60208210810361090b57634e487b7160e01b5f52602260045260245ffd5b50919050565b8082018082111561036d57634e487b7160e01b5f52601160045260245ffdfea264697066735822122056abbc93c3462755237b972fc5c47accaa90e8261f5752ed9eca2032cde80bab64736f6c634300081c0033",
  "linkReferences": {},
  "deployedLinkReferences": {},
  "immutableReferences": {},
  "inputSourceName": "project/contracts/MemedToken.sol",
  "buildInfoId": "solc-0_8_28-5a63eca080908eafb20f73e18ba05685aa0f5808"
}