{
  "_format": "hh3-artifact-1",
  "contractName": "MemedTokenSale",
  "sourceName": "contracts/MemedTokenSale.sol",
  "abi": [
    {
      "inputs": [],
      "stateMutability": "nonpayable",
      "type": "constructor"
    },
    {
      "inputs": [
        {
          "internalType": "address",
          "name": "owner",
          "type": "address"
        }
      ],
      "name": "OwnableInvalidOwner",
      "type": "error"
    },
    {
      "inputs": [
        {
          "internalType": "address",
          "name": "account",
          "type": "address"
        }
      ],
      "name": "OwnableUnauthorizedAccount",
      "type": "error"
    },
    {
      "inputs": [],
      "name": "ReentrancyGuardReentrantCall",
      "type": "error"
    },
    {
      "anonymous": false,
      "inputs": [
        {
          "indexed": true,
          "internalType": "uint256",
          "name": "id",
          "type": "uint256"
        },
        {
          "indexed": true,
          "internalType": "address",
          "name": "user",
          "type": "address"
        },
        {
          "indexed": false,
          "internalType": "uint256",
          "name": "amount",
          "type": "uint256"
        }
      ],
      "name": "CommitmentMade",
      "type": "event"
    },
    {
      "anonymous": false,
      "inputs": [
        {
          "indexed": true,
          "internalType": "address",
          "name": "creator",
          "type": "address"
        },
        {
          "indexed": false,
          "internalType": "uint256",
          "name": "blockExpiresAt",
          "type": "uint256"
        },
        {
          "indexed": false,
          "internalType": "string",
          "name": "reason",
          "type": "string"
        }
      ],
      "name": "CreatorBlocked",
      "type": "event"
    },
    {
      "anonymous": false,
      "inputs": [
        {
          "indexed": true,
          "internalType": "uint256",
          "name": "id",
          "type": "uint256"
        },
        {
          "indexed": true,
          "internalType": "address",
          "name": "token",
          "type": "address"
        },
        {
          "indexed": true,
          "internalType": "address",
          "name": "warriorNFT",
          "type": "address"
        },
        {
          "indexed": false,
          "internalType": "uint256",
          "name": "totalRaised",
          "type": "uint256"
        }
      ],
      "name": "FairLaunchCompleted",
      "type": "event"
    },
    {
      "anonymous": false,
      "inputs": [
        {
          "indexed": true,
          "internalType": "uint256",
          "name": "id",
          "type": "uint256"
        },
        {
          "indexed": false,
          "internalType": "uint256",
          "name": "totalRaised",
          "type": "uint256"
        }
      ],
      "name": "FairLaunchFailed",
      "type": "event"
    },
    {
      "anonymous": false,
      "inputs": [
        {
          "indexed": true,
          "internalType": "uint256",
          "name": "id",
          "type": "uint256"
        },
        {
          "indexed": false,
          "internalType": "uint256",
          "name": "lpSupply",
          "type": "uint256"
        },
        {
          "indexed": false,
          "internalType": "uint256",
          "name": "totalRaised",
          "type": "uint256"
        }
      ],
      "name": "FairLaunchReadyToComplete",
      "type": "event"
    },
    {
      "anonymous": false,
      "inputs": [
        {
          "indexed": true,
          "internalType": "uint256",
          "name": "id",
          "type": "uint256"
        },
        {
          "indexed": true,
          "internalType": "address",
          "name": "creator",
          "type": "address"
        },
        {
          "indexed": false,
          "internalType": "uint256",
          "name": "startTime",
          "type": "uint256"
        },
        {
          "indexed": false,
          "internalType": "uint256",
          "name": "endTime",
          "type": "uint256"
        }
      ],
      "name": "FairLaunchStarted",
      "type": "event"
    },
    {
      "anonymous": false,
      "inputs": [
        {
          "indexed": true,
          "internalType": "uint256",
          "name": "id",
          "type": "uint256"
        },
        {
          "indexed": true,
          "internalType": "address",
          "name": "pair",
          "type": "address"
        },
        {
          "indexed": false,
          "internalType": "uint256",
          "name": "tokenAmount",
          "type": "uint256"
        },
        {
          "indexed": false,
          "internalType": "uint256",
          "name": "ethAmount",
          "type": "uint256"
        },
        {
          "indexed": false,
          "internalType": "uint256",
          "name": "liquidity",
          "type": "uint256"
        }
      ],
      "name": "LiquidityAdded",
      "type": "event"
    },
    {
      "anonymous": false,
      "inputs": [
        {
          "indexed": true,
          "internalType": "address",
          "name": "previousOwner",
          "type": "address"
        },
        {
          "indexed": true,
          "internalType": "address",
          "name": "newOwner",
          "type": "address"
        }
      ],
      "name": "OwnershipTransferred",
      "type": "event"
    },
    {
      "anonymous": false,
      "inputs": [
        {
          "indexed": true,
          "internalType": "uint256",
          "name": "id",
          "type": "uint256"
        },
        {
          "indexed": true,
          "internalType": "address",
          "name": "user",
          "type": "address"
        },
        {
          "indexed": false,
          "internalType": "uint256",
          "name": "feeAmount",
          "type": "uint256"
        },
        {
          "indexed": false,
          "internalType": "string",
          "name": "transactionType",
          "type": "string"
        }
      ],
      "name": "PlatformFeeCollected",
      "type": "event"
    },
    {
      "anonymous": false,
      "inputs": [
        {
          "indexed": false,
          "internalType": "uint256",
          "name": "platformFeePercentage",
          "type": "uint256"
        },
        {
          "indexed": false,
          "internalType": "uint256",
          "name": "feeDenominator",
          "type": "uint256"
        }
      ],
      "name": "PlatformFeeSet",
      "type": "event"
    },
    {
      "anonymous": false,
      "inputs": [
        {
          "indexed": true,
          "internalType": "uint256",
          "name": "id",
          "type": "uint256"
        },
        {
          "indexed": true,
          "internalType": "address",
          "name": "seller",
          "type": "address"
        },
        {
          "indexed": false,
          "internalType": "uint256",
          "name": "tokenAmount",
          "type": "uint256"
        },
        {
          "indexed": false,
          "internalType": "uint256",
          "name": "ethReceived",
          "type": "uint256"
        }
      ],
      "name": "TokenSold",
      "type": "event"
    },
    {
      "inputs": [],
      "name": "DECIMALS",
      "outputs": [
        {
          "internalType": "uint256",
          "name": "",
          "type": "uint256"
        }
      ],
      "stateMutability": "view",
      "type": "function"
    },
    {
      "inputs": [],
      "name": "FAIR_LAUNCH_DURATION",
      "outputs": [
        {
          "internalType": "uint256",
          "name": "",
          "type": "uint256"
        }
      ],
      "stateMutability": "view",
      "type": "function"
    },
    {
      "inputs": [],
      "name": "INITIAL_SUPPLY",
      "outputs": [
        {
          "internalType": "uint256",
          "name": "",
          "type": "uint256"
        }
      ],
      "stateMutability": "view",
      "type": "function"
    },
    {
      "inputs": [],
      "name": "SCALE",
      "outputs": [
        {
          "internalType": "uint256",
          "name": "",
          "type": "uint256"
        }
      ],
      "stateMutability": "view",
      "type": "function"
    },
    {
      "inputs": [],
      "name": "SLOPE",
      "outputs": [
        {
          "internalType": "uint256",
          "name": "",
          "type": "uint256"
        }
      ],
      "stateMutability": "view",
      "type": "function"
    },
    {
      "inputs": [],
      "name": "TARGET_ETH_WEI",
      "outputs": [
        {
          "internalType": "uint256",
          "name": "",
          "type": "uint256"
        }
      ],
      "stateMutability": "view",
      "type": "function"
    },
    {
      "inputs": [],
      "name": "TOTAL_FOR_SALE",
      "outputs": [
        {
          "internalType": "uint256",
          "name": "",
          "type": "uint256"
        }
      ],
      "stateMutability": "view",
      "type": "function"
    },
    {
      "inputs": [
        {
          "internalType": "address",
          "name": "",
          "type": "address"
        }
      ],
      "name": "blockedCreators",
      "outputs": [
        {
          "internalType": "uint256",
          "name": "",
          "type": "uint256"
        }
      ],
      "stateMutability": "view",
      "type": "function"
    },
    {
      "inputs": [
        {
          "internalType": "uint256",
          "name": "_id",
          "type": "uint256"
        }
      ],
      "name": "commitToFairLaunch",
      "outputs": [],
      "stateMutability": "payable",
      "type": "function"
    },
    {
      "inputs": [
        {
          "internalType": "uint256",
          "name": "_id",
          "type": "uint256"
        },
        {
          "internalType": "address",
          "name": "_token",
          "type": "address"
        },
        {
          "internalType": "address",
          "name": "_pair",
          "type": "address"
        }
      ],
      "name": "completeFairLaunch",
      "outputs": [],
      "stateMutability": "nonpayable",
      "type": "function"
    },
    {
      "inputs": [
        {
          "internalType": "uint256",
          "name": "",
          "type": "uint256"
        }
      ],
      "name": "fairLaunchData",
      "outputs": [
        {
          "internalType": "enum FairLaunchStatus",
          "name": "status",
          "type": "uint8"
        },
        {
          "internalType": "uint256",
          "name": "fairLaunchStartTime",
          "type": "uint256"
        },
        {
          "internalType": "uint256",
          "name": "totalCommitted",
          "type": "uint256"
        },
        {
          "internalType": "uint256",
          "name": "totalSold",
          "type": "uint256"
        },
        {
          "internalType": "address",
          "name": "uniswapPair",
          "type": "address"
        },
        {
          "internalType": "uint256",
          "name": "createdAt",
          "type": "uint256"
        }
      ],
      "stateMutability": "view",
      "type": "function"
    },
    {
      "inputs": [],
      "name": "feeDenominator",
      "outputs": [
        {
          "internalType": "uint256",
          "name": "",
          "type": "uint256"
        }
      ],
      "stateMutability": "view",
      "type": "function"
    },
    {
      "inputs": [
        {
          "internalType": "address",
          "name": "_token",
          "type": "address"
        }
      ],
      "name": "getFairLaunchActive",
      "outputs": [
        {
          "internalType": "bool",
          "name": "",
          "type": "bool"
        }
      ],
      "stateMutability": "view",
      "type": "function"
    },
    {
      "inputs": [
        {
          "internalType": "uint256",
          "name": "_id",
          "type": "uint256"
        }
      ],
      "name": "getFairLaunchData",
      "outputs": [
        {
          "internalType": "enum FairLaunchStatus",
          "name": "",
          "type": "uint8"
        },
        {
          "internalType": "uint256",
          "name": "",
          "type": "uint256"
        }
      ],
      "stateMutability": "view",
      "type": "function"
    },
    {
      "inputs": [
        {
          "internalType": "uint256",
          "name": "_id",
          "type": "uint256"
        },
        {
          "internalType": "uint256",
          "name": "_ethAmount",
          "type": "uint256"
        }
      ],
      "name": "getNativeToTokenAmount",
      "outputs": [
        {
          "internalType": "uint256",
          "name": "tokenAmount",
          "type": "uint256"
        }
      ],
      "stateMutability": "view",
      "type": "function"
    },
    {
      "inputs": [
        {
          "internalType": "uint256",
          "name": "_id",
          "type": "uint256"
        },
        {
          "internalType": "uint256",
          "name": "_delta",
          "type": "uint256"
        }
      ],
      "name": "getTokenToNativeToken",
      "outputs": [
        {
          "internalType": "uint256",
          "name": "ethValue",
          "type": "uint256"
        }
      ],
      "stateMutability": "view",
      "type": "function"
    },
    {
      "inputs": [
        {
          "internalType": "uint256",
          "name": "_id",
          "type": "uint256"
        },
        {
          "internalType": "address",
          "name": "_user",
          "type": "address"
        }
      ],
      "name": "getUserCommitment",
      "outputs": [
        {
          "components": [
            {
              "internalType": "uint256",
              "name": "amount",
              "type": "uint256"
            },
            {
              "internalType": "uint256",
              "name": "tokenAmount",
              "type": "uint256"
            },
            {
              "internalType": "bool",
              "name": "claimed",
              "type": "bool"
            },
            {
              "internalType": "bool",
              "name": "refunded",
              "type": "bool"
            }
          ],
          "internalType": "struct Commitment",
          "name": "",
          "type": "tuple"
        }
      ],
      "stateMutability": "view",
      "type": "function"
    },
    {
      "inputs": [],
      "name": "id",
      "outputs": [
        {
          "internalType": "uint256",
          "name": "",
          "type": "uint256"
        }
      ],
      "stateMutability": "view",
      "type": "function"
    },
    {
      "inputs": [
        {
          "internalType": "address",
          "name": "_creator",
          "type": "address"
        }
      ],
      "name": "isCreatorBlocked",
      "outputs": [
        {
          "internalType": "bool",
          "name": "blocked",
          "type": "bool"
        },
        {
          "internalType": "uint256",
          "name": "blockExpiresAt",
          "type": "uint256"
        }
      ],
      "stateMutability": "view",
      "type": "function"
    },
    {
      "inputs": [
        {
          "internalType": "address",
          "name": "_creator",
          "type": "address"
        }
      ],
      "name": "isMintable",
      "outputs": [
        {
          "internalType": "bool",
          "name": "",
          "type": "bool"
        }
      ],
      "stateMutability": "view",
      "type": "function"
    },
    {
      "inputs": [
        {
          "internalType": "uint256",
          "name": "_id",
          "type": "uint256"
        }
      ],
      "name": "isRefundable",
      "outputs": [
        {
          "internalType": "bool",
          "name": "",
          "type": "bool"
        }
      ],
      "stateMutability": "view",
      "type": "function"
    },
    {
      "inputs": [],
      "name": "memedFactory",
      "outputs": [
        {
          "internalType": "contract IMemedFactory",
          "name": "",
          "type": "address"
        }
      ],
      "stateMutability": "view",
      "type": "function"
    },
    {
      "inputs": [],
      "name": "owner",
      "outputs": [
        {
          "internalType": "address",
          "name": "",
          "type": "address"
        }
      ],
      "stateMutability": "view",
      "type": "function"
    },
    {
      "inputs": [],
      "name": "platformFeePercentage",
      "outputs": [
        {
          "internalType": "uint256",
          "name": "",
          "type": "uint256"
        }
      ],
      "stateMutability": "view",
      "type": "function"
    },
    {
      "inputs": [
        {
          "internalType": "uint256",
          "name": "s",
          "type": "uint256"
        }
      ],
      "name": "priceAt",
      "outputs": [
        {
          "internalType": "uint256",
          "name": "",
          "type": "uint256"
        }
      ],
      "stateMutability": "pure",
      "type": "function"
    },
    {
      "inputs": [
        {
          "internalType": "uint256",
          "name": "_id",
          "type": "uint256"
        }
      ],
      "name": "refund",
      "outputs": [],
      "stateMutability": "nonpayable",
      "type": "function"
    },
    {
      "inputs": [],
      "name": "renounceOwnership",
      "outputs": [],
      "stateMutability": "nonpayable",
      "type": "function"
    },
    {
      "inputs": [
        {
          "internalType": "uint256",
          "name": "_id",
          "type": "uint256"
        },
        {
          "internalType": "uint256",
          "name": "_amount",
          "type": "uint256"
        }
      ],
      "name": "sellTokens",
      "outputs": [],
      "stateMutability": "nonpayable",
      "type": "function"
    },
    {
      "inputs": [
        {
          "internalType": "address",
          "name": "_memedFactory",
          "type": "address"
        }
      ],
      "name": "setFactory",
      "outputs": [],
      "stateMutability": "nonpayable",
      "type": "function"
    },
    {
      "inputs": [
        {
          "internalType": "uint256",
          "name": "_platformFeePercentage",
          "type": "uint256"
        },
        {
          "internalType": "uint256",
          "name": "_feeDenominator",
          "type": "uint256"
        }
      ],
      "name": "setPlatformFee",
      "outputs": [],
      "stateMutability": "nonpayable",
      "type": "function"
    },
    {
      "inputs": [
        {
          "internalType": "address",
          "name": "_creator",
          "type": "address"
        }
      ],
      "name": "startFairLaunch",
      "outputs": [
        {
          "internalType": "uint256",
          "name": "",
          "type": "uint256"
        }
      ],
      "stateMutability": "nonpayable",
      "type": "function"
    },
    {
      "inputs": [
        {
          "internalType": "address",
          "name": "",
          "type": "address"
        }
      ],
      "name": "tokenIdByAddress",
      "outputs": [
        {
          "internalType": "uint256",
          "name": "",
          "type": "uint256"
        }
      ],
      "stateMutability": "view",
      "type": "function"
    },
    {
      "inputs": [
        {
          "internalType": "address",
          "name": "",
          "type": "address"
        },
        {
          "internalType": "uint256",
          "name": "",
          "type": "uint256"
        }
      ],
      "name": "tokenIdsByCreator",
      "outputs": [
        {
          "internalType": "uint256",
          "name": "",
          "type": "uint256"
        }
      ],
      "stateMutability": "view",
      "type": "function"
    },
    {
      "inputs": [
        {
          "internalType": "address",
          "name": "newOwner",
          "type": "address"
        }
      ],
      "name": "transferOwnership",
      "outputs": [],
      "stateMutability": "nonpayable",
      "type": "function"
    },
    {
      "stateMutability": "payable",
      "type": "receive"
    }
  ],
  "bytecode": "0x60806040526b033b2e3c9fd0803ce8000000600255600a6003556103e860045534801561002a575f5ffd5b50335f73ffffffffffffffffffffffffffffffffffffffff168173ffffffffffffffffffffffffffffffffffffffff160361009c575f6040517f1e4fbdf700000000000000000000000000000000000000000000000000000000815260040161009391906101b8565b60405180910390fd5b6100ab816100b860201b60201c565b50600180819055506101d1565b5f5f5f9054906101000a900473ffffffffffffffffffffffffffffffffffffffff169050815f5f6101000a81548173ffffffffffffffffffffffffffffffffffffffff021916908373ffffffffffffffffffffffffffffffffffffffff1602179055508173ffffffffffffffffffffffffffffffffffffffff168173ffffffffffffffffffffffffffffffffffffffff167f8be0079c531659141344cd1fd0a4f28419497f9722a3daafe3b4186f6b6457e060405160405180910390a35050565b5f73ffffffffffffffffffffffffffffffffffffffff82169050919050565b5f6101a282610179565b9050919050565b6101b281610198565b82525050565b5f6020820190506101cb5f8301846101a9565b92915050565b6139a2806101de5f395ff3fe6080604052600436106101fc575f3560e01c8063abf599fc1161010c578063cdd78cfc1161009f578063e8378fbf1161006e578063e8378fbf14610790578063eced5526146107cc578063ed9772b6146107f6578063efa4a3291461081e578063f2fde38b1461084857610203565b8063cdd78cfc146106d8578063dba64bb614610702578063dc5ea5d91461072c578063e0eeb3d31461075457610203565b8063af640d0f116100db578063af640d0f146105f4578063bcd658ad1461061e578063c06ac3521461065b578063cce6ef441461069c57610203565b8063abf599fc1461054a578063ad7738d414610572578063ae6ad1db146105ae578063ae9abdf0146105ca57610203565b806347b4812f1161018f57806375808d5b1161015e57806375808d5b146104415780637f1b6bab1461047e5780638b7cc629146104ba5780638da5cb5b146104e45780639dab20541461050e57610203565b806347b4812f1461038b5780635bb47808146103c757806365c25269146103ef578063715018a61461042b57610203565b80632e0f2625116101cb5780632e0f2625146102bf5780632ff2e9dc146102e9578063416155ac14610313578063468dacad1461034f57610203565b8063180b0d7e146102075780631eec71fb14610231578063222b15fb1461025b578063278ecde11461029757610203565b3661020357005b5f5ffd5b348015610212575f5ffd5b5061021b610870565b6040516102289190612814565b60405180910390f35b34801561023c575f5ffd5b50610245610876565b6040516102529190612814565b60405180910390f35b348015610266575f5ffd5b50610281600480360381019061027c919061288b565b610891565b60405161028e91906128d0565b60405180910390f35b3480156102a2575f5ffd5b506102bd60048036038101906102b89190612913565b6108bb565b005b3480156102ca575f5ffd5b506102d3610d43565b6040516102e09190612814565b60405180910390f35b3480156102f4575f5ffd5b506102fd610d4f565b60405161030a9190612814565b60405180910390f35b34801561031e575f5ffd5b506103396004803603810190610334919061288b565b610d55565b60405161034691906128d0565b60405180910390f35b34801561035a575f5ffd5b506103756004803603810190610370919061293e565b610dfc565b60405161038291906129ed565b60405180910390f35b348015610396575f5ffd5b506103b160048036038101906103ac9190612a06565b610eae565b6040516103be9190612814565b60405180910390f35b3480156103d2575f5ffd5b506103ed60048036038101906103e8919061288b565b610f8d565b005b3480156103fa575f5ffd5b5061041560048036038101906104109190612a44565b611067565b6040516104229190612814565b60405180910390f35b348015610436575f5ffd5b5061043f611092565b005b34801561044c575f5ffd5b506104676004803603810190610462919061288b565b6110a5565b604051610475929190612a82565b60405180910390f35b348015610489575f5ffd5b506104a4600480360381019061049f919061288b565b6110f1565b6040516104b19190612814565b60405180910390f35b3480156104c5575f5ffd5b506104ce611106565b6040516104db9190612814565b60405180910390f35b3480156104ef575f5ffd5b506104f861110c565b6040516105059190612ab8565b60405180910390f35b348015610519575f5ffd5b50610534600480360381019061052f9190612913565b611133565b6040516105419190612814565b60405180910390f35b348015610555575f5ffd5b50610570600480360381019061056b9190612ad1565b611163565b005b34801561057d575f5ffd5b5061059860048036038101906105939190612a06565b61139b565b6040516105a59190612814565b60405180910390f35b6105c860048036038101906105c39190612913565b6114a2565b005b3480156105d5575f5ffd5b506105de61191e565b6040516105eb9190612814565b60405180910390f35b3480156105ff575f5ffd5b5061060861192b565b6040516106159190612814565b60405180910390f35b348015610629575f5ffd5b50610644600480360381019061063f9190612913565b611931565b604051610652929190612b94565b60405180910390f35b348015610666575f5ffd5b50610681600480360381019061067c9190612913565b611966565b60405161069396959493929190612bbb565b60405180910390f35b3480156106a7575f5ffd5b506106c260048036038101906106bd9190612913565b6119c9565b6040516106cf91906128d0565b60405180910390f35b3480156106e3575f5ffd5b506106ec611a13565b6040516106f99190612814565b60405180910390f35b34801561070d575f5ffd5b50610716611a19565b6040516107239190612c75565b60405180910390f35b348015610737575f5ffd5b50610752600480360381019061074d9190612a06565b611a3e565b005b34801561075f575f5ffd5b5061077a6004803603810190610775919061288b565b611a91565b6040516107879190612814565b60405180910390f35b34801561079b575f5ffd5b506107b660048036038101906107b1919061288b565b611cd6565b6040516107c39190612814565b60405180910390f35b3480156107d7575f5ffd5b506107e0611ceb565b6040516107ed9190612814565b60405180910390f35b348015610801575f5ffd5b5061081c60048036038101906108179190612a06565b611cfe565b005b348015610829575f5ffd5b50610832612106565b60405161083f9190612814565b60405180910390f35b348015610853575f5ffd5b5061086e6004803603810190610869919061288b565b61210d565b005b60045481565b670de0b6b3a7640000630bebc20061088e9190612cbb565b81565b5f5f61089c836110a5565b5090506108a883612191565b1580156108b3575080155b915050919050565b6108c361231e565b5f60075f8381526020019081526020015f2090506108e0826119c9565b61091f576040517f08c379a000000000000000000000000000000000000000000000000000000000815260040161091690612d56565b60405180910390fd5b60048081111561093257610931612b21565b5b815f015f9054906101000a900460ff16600481111561095457610953612b21565b5b14610b94576004815f015f6101000a81548160ff0219169083600481111561097f5761097e612b21565b5b02179055505f62278d00426109949190612d74565b905080600a5f60055f9054906101000a900473ffffffffffffffffffffffffffffffffffffffff1673ffffffffffffffffffffffffffffffffffffffff16635d3575a6876040518263ffffffff1660e01b81526004016109f49190612814565b602060405180830381865afa158015610a0f573d5f5f3e3d5ffd5b505050506040513d601f19601f82011682018060405250810190610a339190612dbb565b73ffffffffffffffffffffffffffffffffffffffff1673ffffffffffffffffffffffffffffffffffffffff1681526020019081526020015f208190555060055f9054906101000a900473ffffffffffffffffffffffffffffffffffffffff1673ffffffffffffffffffffffffffffffffffffffff16635d3575a6846040518263ffffffff1660e01b8152600401610aca9190612814565b602060405180830381865afa158015610ae5573d5f5f3e3d5ffd5b505050506040513d601f19601f82011682018060405250810190610b099190612dbb565b73ffffffffffffffffffffffffffffffffffffffff167fbcd955d7cef17ce72a0bc972618a13a1ea8cccd6447662596a5db5c43e0b587582604051610b4e9190612e30565b60405180910390a2827f17150adeeda7158a6b2adf5e6065d6ad3f05dcbb2ab7520f383c53edf0f799f78360020154604051610b8a9190612814565b60405180910390a2505b5f816005015f3373ffffffffffffffffffffffffffffffffffffffff1673ffffffffffffffffffffffffffffffffffffffff1681526020019081526020015f2090505f815f015411610c1b576040517f08c379a0000000000000000000000000000000000000000000000000000000008152600401610c1290612ea6565b60405180910390fd5b8060020160019054906101000a900460ff1615610c6d576040517f08c379a0000000000000000000000000000000000000000000000000000000008152600401610c6490612f0e565b60405180910390fd5b5f3373ffffffffffffffffffffffffffffffffffffffff16825f0154604051610c9590612f59565b5f6040518083038185875af1925050503d805f8114610ccf576040519150601f19603f3d011682016040523d82523d5f602084013e610cd4565b606091505b5050905080610d18576040517f08c379a0000000000000000000000000000000000000000000000000000000008152600401610d0f90612fb7565b60405180910390fd5b60018260020160016101000a81548160ff021916908315150217905550505050610d40612364565b50565b670de0b6b3a764000081565b60025481565b5f5f60095f8473ffffffffffffffffffffffffffffffffffffffff1673ffffffffffffffffffffffffffffffffffffffff1681526020019081526020015f205490505f8103610da7575f915050610df7565b5f60075f8381526020019081526020015f20905060016004811115610dcf57610dce612b21565b5b815f015f9054906101000a900460ff166004811115610df157610df0612b21565b5b14925050505b919050565b610e046127d4565b60075f8481526020019081526020015f206005015f8373ffffffffffffffffffffffffffffffffffffffff1673ffffffffffffffffffffffffffffffffffffffff1681526020019081526020015f206040518060800160405290815f820154815260200160018201548152602001600282015f9054906101000a900460ff161515151581526020016002820160019054906101000a900460ff161515151581525050905092915050565b5f5f60075f8581526020019081526020015f2090505f8160030154905080841115610f0e576040517f08c379a0000000000000000000000000000000000000000000000000000000008152600401610f059061301f565b60405180910390fd5b5f84826002610f1d9190612cbb565b610f279190612cbb565b90505f8586610f369190612cbb565b90505f8183610f45919061303d565b6107d0610f529190612cbb565b90505f6ec097ce7bc90715b34b9f10000000006002610f719190612cbb565b90508082610f7f919061309d565b965050505050505092915050565b610f9561236d565b5f73ffffffffffffffffffffffffffffffffffffffff1660055f9054906101000a900473ffffffffffffffffffffffffffffffffffffffff1673ffffffffffffffffffffffffffffffffffffffff1614611024576040517f08c379a000000000000000000000000000000000000000000000000000000000815260040161101b90613117565b60405180910390fd5b8060055f6101000a81548173ffffffffffffffffffffffffffffffffffffffff021916908373ffffffffffffffffffffffffffffffffffffffff16021790555050565b6008602052815f5260405f208181548110611080575f80fd5b905f5260205f20015f91509150505481565b61109a61236d565b6110a35f6123f4565b565b5f5f600a5f8473ffffffffffffffffffffffffffffffffffffffff1673ffffffffffffffffffffffffffffffffffffffff1681526020019081526020015f205490508042109150915091565b600a602052805f5260405f205f915090505481565b6107d081565b5f5f5f9054906101000a900473ffffffffffffffffffffffffffffffffffffffff16905090565b5f6ec097ce7bc90715b34b9f1000000000826107d06111529190612cbb565b61115c919061309d565b9050919050565b60055f9054906101000a900473ffffffffffffffffffffffffffffffffffffffff1673ffffffffffffffffffffffffffffffffffffffff163373ffffffffffffffffffffffffffffffffffffffff16146111f2576040517f08c379a00000000000000000000000000000000000000000000000000000000081526004016111e9906131a5565b60405180910390fd5b5f60075f8581526020019081526020015f2090506002600481111561121a57611219612b21565b5b815f015f9054906101000a900460ff16600481111561123c5761123b612b21565b5b1461127c576040517f08c379a000000000000000000000000000000000000000000000000000000000815260040161127390613233565b60405180910390fd5b6003815f015f6101000a81548160ff021916908360048111156112a2576112a1612b21565b5b021790555081816004015f6101000a81548173ffffffffffffffffffffffffffffffffffffffff021916908373ffffffffffffffffffffffffffffffffffffffff1602179055508360095f8573ffffffffffffffffffffffffffffffffffffffff1673ffffffffffffffffffffffffffffffffffffffff1681526020019081526020015f20819055508173ffffffffffffffffffffffffffffffffffffffff168373ffffffffffffffffffffffffffffffffffffffff16857fa50e0b9679f5601c270cdad10a93f0cf7343e8bc4cd12d6c16db0567dc445195846002015460405161138d9190612814565b60405180910390a450505050565b5f5f60075f8581526020019081526020015f2090505f816003015490505f84036113c9575f9250505061149c565b5f6107d090505f826107d060026113e09190612cbb565b6113ea9190612cbb565b90505f81826113f99190612cbb565b90505f6ec097ce7bc90715b34b9f1000000000886107d0600861141c9190612cbb565b6114269190612cbb565b6114309190612cbb565b90505f818361143f9190612d74565b90505f61144b826124b5565b9050848111611464575f9850505050505050505061149c565b5f8582611471919061303d565b90505f8760026114819190612cbb565b9050808261148f919061309d565b9a50505050505050505050505b92915050565b6114aa61231e565b5f60075f8381526020019081526020015f209050600160048111156114d2576114d1612b21565b5b815f015f9054906101000a900460ff1660048111156114f4576114f3612b21565b5b14611534576040517f08c379a000000000000000000000000000000000000000000000000000000000815260040161152b9061329b565b60405180910390fd5b62278d0081600101546115479190612d74565b421115611589576040517f08c379a000000000000000000000000000000000000000000000000000000000815260040161158090613303565b60405180910390fd5b5f34116115cb576040517f08c379a00000000000000000000000000000000000000000000000000000000081526004016115c29061336b565b60405180910390fd5b5f600454600354346115dd9190612cbb565b6115e7919061309d565b90505f81346115f6919061303d565b90505f611603858361139b565b90505f8111611647576040517f08c379a000000000000000000000000000000000000000000000000000000000815260040161163e906133d3565b60405180910390fd5b60025481856003015461165a9190612d74565b111561169b576040517f08c379a00000000000000000000000000000000000000000000000000000000081526004016116929061343b565b60405180910390fd5b5f8311156117a3575f6116ac61110c565b73ffffffffffffffffffffffffffffffffffffffff16846040516116cf90612f59565b5f6040518083038185875af1925050503d805f8114611709576040519150601f19603f3d011682016040523d82523d5f602084013e61170e565b606091505b5050905080611752576040517f08c379a0000000000000000000000000000000000000000000000000000000008152600401611749906134a3565b60405180910390fd5b3373ffffffffffffffffffffffffffffffffffffffff16867f6f125bf8171b68b20f1b35b7783bcadd05ce66efeb4e38768a9ddcb1092255d186604051611799919061350b565b60405180910390a3505b5f846005015f3373ffffffffffffffffffffffffffffffffffffffff1673ffffffffffffffffffffffffffffffffffffffff1681526020019081526020015f20905082815f015f8282546117f79190612d74565b9250508190555081816001015f8282546118119190612d74565b9250508190555081856003015f82825461182b9190612d74565b9250508190555082856002015f8282546118459190612d74565b9250508190555081856006015f3373ffffffffffffffffffffffffffffffffffffffff1673ffffffffffffffffffffffffffffffffffffffff1681526020019081526020015f205f82825461189a9190612d74565b925050819055503373ffffffffffffffffffffffffffffffffffffffff16867ff5882f2b24a419b3c13b05df32cf16a803f2fa76ec81659cdb868658816d4249346040516118e89190612814565b60405180910390a368022b1c8c1227a0000085600201541061190e5761190d86612526565b5b505050505061191b612364565b50565b68022b1c8c1227a0000081565b60065481565b5f5f5f60075f8581526020019081526020015f209050805f015f9054906101000a900460ff1681600201549250925050915091565b6007602052805f5260405f205f91509050805f015f9054906101000a900460ff1690806001015490806002015490806003015490806004015f9054906101000a900473ffffffffffffffffffffffffffffffffffffffff16908060070154905086565b5f5f60075f8481526020019081526020015f20905062278d0081600101546119f19190612d74565b42118015611a0b575068022b1c8c1227a000008160020154105b915050919050565b60035481565b60055f9054906101000a900473ffffffffffffffffffffffffffffffffffffffff1681565b611a4661236d565b81600381905550806004819055507fa30569950bb598ed8c92d36b49faae45e5cebba0f03647831e801b95cae04b3c8282604051611a85929190613537565b60405180910390a15050565b5f5f73ffffffffffffffffffffffffffffffffffffffff168273ffffffffffffffffffffffffffffffffffffffff1614611b0e57611ace82610891565b611b0d576040517f08c379a0000000000000000000000000000000000000000000000000000000008152600401611b04906135ce565b60405180910390fd5b5b60055f9054906101000a900473ffffffffffffffffffffffffffffffffffffffff1673ffffffffffffffffffffffffffffffffffffffff163373ffffffffffffffffffffffffffffffffffffffff1614611b9d576040517f08c379a0000000000000000000000000000000000000000000000000000000008152600401611b949061365c565b60405180910390fd5b60065f815480929190611baf9061367a565b91905055505f60075f60065481526020019081526020015f2090506001815f015f6101000a81548160ff02191690836004811115611bf057611bef612b21565b5b021790555042816001018190555042816007018190555060085f8473ffffffffffffffffffffffffffffffffffffffff1673ffffffffffffffffffffffffffffffffffffffff1681526020019081526020015f20600654908060018154018082558091505060019003905f5260205f20015f90919091909150558273ffffffffffffffffffffffffffffffffffffffff166006547fb6948299ea38c9d5ac9f98be169b0bff6eb2bf98881811a8518b8115731a7ebe4262278d0042611cb59190612d74565b604051611cc3929190613537565b60405180910390a3600654915050919050565b6009602052805f5260405f205f915090505481565b6ec097ce7bc90715b34b9f100000000081565b611d0661231e565b5f8111611d48576040517f08c379a0000000000000000000000000000000000000000000000000000000008152600401611d3f9061370b565b60405180910390fd5b8060075f8481526020019081526020015f206006015f3373ffffffffffffffffffffffffffffffffffffffff1673ffffffffffffffffffffffffffffffffffffffff1681526020019081526020015f20541015611dda576040517f08c379a0000000000000000000000000000000000000000000000000000000008152600401611dd190613773565b60405180910390fd5b5f60075f8481526020019081526020015f2090505f611df98484610eae565b90505f60045460035483611e0d9190612cbb565b611e17919061309d565b90505f8183611e26919061303d565b905082471015611e6b576040517f08c379a0000000000000000000000000000000000000000000000000000000008152600401611e62906137db565b60405180910390fd5b5f821115611f73575f611e7c61110c565b73ffffffffffffffffffffffffffffffffffffffff1683604051611e9f90612f59565b5f6040518083038185875af1925050503d805f8114611ed9576040519150601f19603f3d011682016040523d82523d5f602084013e611ede565b606091505b5050905080611f22576040517f08c379a0000000000000000000000000000000000000000000000000000000008152600401611f19906134a3565b60405180910390fd5b3373ffffffffffffffffffffffffffffffffffffffff16877f6f125bf8171b68b20f1b35b7783bcadd05ce66efeb4e38768a9ddcb1092255d185604051611f699190613843565b60405180910390a3505b84846006015f3373ffffffffffffffffffffffffffffffffffffffff1673ffffffffffffffffffffffffffffffffffffffff1681526020019081526020015f205f828254611fc1919061303d565b9250508190555084846003015f828254611fdb919061303d565b9250508190555082846002015f828254611ff5919061303d565b925050819055505f3373ffffffffffffffffffffffffffffffffffffffff168260405161202190612f59565b5f6040518083038185875af1925050503d805f811461205b576040519150601f19603f3d011682016040523d82523d5f602084013e612060565b606091505b50509050806120a4576040517f08c379a000000000000000000000000000000000000000000000000000000000815260040161209b90612fb7565b60405180910390fd5b3373ffffffffffffffffffffffffffffffffffffffff16877ff37a75478aa82ebef98fa4a7c71324f93c6c5d6236ba80a86ed5f703dc55203888856040516120ed929190613537565b60405180910390a35050505050612102612364565b5050565b62278d0081565b61211561236d565b5f73ffffffffffffffffffffffffffffffffffffffff168173ffffffffffffffffffffffffffffffffffffffff1603612185575f6040517f1e4fbdf700000000000000000000000000000000000000000000000000000000815260040161217c9190612ab8565b60405180910390fd5b61218e816123f4565b50565b5f5f60085f8473ffffffffffffffffffffffffffffffffffffffff1673ffffffffffffffffffffffffffffffffffffffff1681526020019081526020015f2080548060200260200160405190810160405280929190818152602001828054801561221857602002820191905f5260205f20905b815481526020019060010190808311612204575b505050505090505f5f90505b8151811015612313576003600481111561224157612240612b21565b5b60075f8484815181106122575761225661386f565b5b602002602001015181526020019081526020015f205f015f9054906101000a900460ff16600481111561228d5761228c612b21565b5b14806122f65750600160048111156122a8576122a7612b21565b5b60075f8484815181106122be576122bd61386f565b5b602002602001015181526020019081526020015f205f015f9054906101000a900460ff1660048111156122f4576122f3612b21565b5b145b1561230657600192505050612319565b8080600101915050612224565b505f9150505b919050565b60026001540361235a576040517f3ee5aeb500000000000000000000000000000000000000000000000000000000815260040160405180910390fd5b6002600181905550565b60018081905550565b6123756127cd565b73ffffffffffffffffffffffffffffffffffffffff1661239361110c565b73ffffffffffffffffffffffffffffffffffffffff16146123f2576123b66127cd565b6040517f118cdaa70000000000000000000000000000000000000000000000000000000081526004016123e99190612ab8565b60405180910390fd5b565b5f5f5f9054906101000a900473ffffffffffffffffffffffffffffffffffffffff169050815f5f6101000a81548173ffffffffffffffffffffffffffffffffffffffff021916908373ffffffffffffffffffffffffffffffffffffffff1602179055508173ffffffffffffffffffffffffffffffffffffffff168173ffffffffffffffffffffffffffffffffffffffff167f8be0079c531659141344cd1fd0a4f28419497f9722a3daafe3b4186f6b6457e060405160405180910390a35050565b5f5f82036124c5575f9050612521565b5f60026001846124d59190612d74565b6124df919061309d565b90505f8390505b8082101561251b578190506002828386612500919061309d565b61250a9190612d74565b612514919061309d565b91506124e6565b80925050505b919050565b5f60075f8381526020019081526020015f2090506001600481111561254e5761254d612b21565b5b815f015f9054906101000a900460ff1660048111156125705761256f612b21565b5b146125b0576040517f08c379a00000000000000000000000000000000000000000000000000000000081526004016125a7906138e6565b60405180910390fd5b5f816003015490505f6125c282611133565b90505f8111612606576040517f08c379a00000000000000000000000000000000000000000000000000000000081526004016125fd9061394e565b60405180910390fd5b5f81670de0b6b3a764000068022b1c8c1227a000006126259190612cbb565b61262f919061309d565b90505f83670de0b6b3a7640000630bebc20061264b9190612cbb565b612655919061303d565b905080821115612663578091505b6003855f015f6101000a81548160ff0219169083600481111561268957612688612b21565b5b02179055505f60055f9054906101000a900473ffffffffffffffffffffffffffffffffffffffff1673ffffffffffffffffffffffffffffffffffffffff1686600201546040516126d890612f59565b5f6040518083038185875af1925050503d805f8114612712576040519150601f19603f3d011682016040523d82523d5f602084013e612717565b606091505b505090508061275b576040517f08c379a000000000000000000000000000000000000000000000000000000000815260040161275290612fb7565b60405180910390fd5b6002865f015f6101000a81548160ff0219169083600481111561278157612780612b21565b5b0217905550867f1a7333d4a8e3da2ea5a9db3d4c061100dd99472e61af794621abdbbd680214e18760020154856040516127bc929190613537565b60405180910390a250505050505050565b5f33905090565b60405180608001604052805f81526020015f81526020015f151581526020015f151581525090565b5f819050919050565b61280e816127fc565b82525050565b5f6020820190506128275f830184612805565b92915050565b5f5ffd5b5f73ffffffffffffffffffffffffffffffffffffffff82169050919050565b5f61285a82612831565b9050919050565b61286a81612850565b8114612874575f5ffd5b50565b5f8135905061288581612861565b92915050565b5f602082840312156128a05761289f61282d565b5b5f6128ad84828501612877565b91505092915050565b5f8115159050919050565b6128ca816128b6565b82525050565b5f6020820190506128e35f8301846128c1565b92915050565b6128f2816127fc565b81146128fc575f5ffd5b50565b5f8135905061290d816128e9565b92915050565b5f602082840312156129285761292761282d565b5b5f612935848285016128ff565b91505092915050565b5f5f604083850312156129545761295361282d565b5b5f612961858286016128ff565b925050602061297285828601612877565b9150509250929050565b612985816127fc565b82525050565b612994816128b6565b82525050565b608082015f8201516129ae5f85018261297c565b5060208201516129c1602085018261297c565b5060408201516129d4604085018261298b565b5060608201516129e7606085018261298b565b50505050565b5f608082019050612a005f83018461299a565b92915050565b5f5f60408385031215612a1c57612a1b61282d565b5b5f612a29858286016128ff565b9250506020612a3a858286016128ff565b9150509250929050565b5f5f60408385031215612a5a57612a5961282d565b5b5f612a6785828601612877565b9250506020612a78858286016128ff565b9150509250929050565b5f604082019050612a955f8301856128c1565b612aa26020830184612805565b9392505050565b612ab281612850565b82525050565b5f602082019050612acb5f830184612aa9565b92915050565b5f5f5f60608486031215612ae857612ae761282d565b5b5f612af5868287016128ff565b9350506020612b0686828701612877565b9250506040612b1786828701612877565b9150509250925092565b7f4e487b71000000000000000000000000000000000000000000000000000000005f52602160045260245ffd5b60058110612b5f57612b5e612b21565b5b50565b5f819050612b6f82612b4e565b919050565b5f612b7e82612b62565b9050919050565b612b8e81612b74565b82525050565b5f604082019050612ba75f830185612b85565b612bb46020830184612805565b9392505050565b5f60c082019050612bce5f830189612b85565b612bdb6020830188612805565b612be86040830187612805565b612bf56060830186612805565b612c026080830185612aa9565b612c0f60a0830184612805565b979650505050505050565b5f819050919050565b5f612c3d612c38612c3384612831565b612c1a565b612831565b9050919050565b5f612c4e82612c23565b9050919050565b5f612c5f82612c44565b9050919050565b612c6f81612c55565b82525050565b5f602082019050612c885f830184612c66565b92915050565b7f4e487b71000000000000000000000000000000000000000000000000000000005f52601160045260245ffd5b5f612cc5826127fc565b9150612cd0836127fc565b9250828202612cde816127fc565b91508282048414831517612cf557612cf4612c8e565b5b5092915050565b5f82825260208201905092915050565b7f46616972206c61756e6368206e6f74206661696c6564000000000000000000005f82015250565b5f612d40601683612cfc565b9150612d4b82612d0c565b602082019050919050565b5f6020820190508181035f830152612d6d81612d34565b9050919050565b5f612d7e826127fc565b9150612d89836127fc565b9250828201905080821115612da157612da0612c8e565b5b92915050565b5f81519050612db581612861565b92915050565b5f60208284031215612dd057612dcf61282d565b5b5f612ddd84828501612da7565b91505092915050565b7f4661696c65642066616972206c61756e636800000000000000000000000000005f82015250565b5f612e1a601283612cfc565b9150612e2582612de6565b602082019050919050565b5f604082019050612e435f830184612805565b8181036020830152612e5481612e0e565b905092915050565b7f4e6f20636f6d6d69746d656e74000000000000000000000000000000000000005f82015250565b5f612e90600d83612cfc565b9150612e9b82612e5c565b602082019050919050565b5f6020820190508181035f830152612ebd81612e84565b9050919050565b7f416c726561647920726566756e646564000000000000000000000000000000005f82015250565b5f612ef8601083612cfc565b9150612f0382612ec4565b602082019050919050565b5f6020820190508181035f830152612f2581612eec565b9050919050565b5f81905092915050565b50565b5f612f445f83612f2c565b9150612f4f82612f36565b5f82019050919050565b5f612f6382612f39565b9150819050919050565b7f5472616e73666572206661696c656400000000000000000000000000000000005f82015250565b5f612fa1600f83612cfc565b9150612fac82612f6d565b602082019050919050565b5f6020820190508181035f830152612fce81612f95565b9050919050565b7f64656c7461203e207300000000000000000000000000000000000000000000005f82015250565b5f613009600983612cfc565b915061301482612fd5565b602082019050919050565b5f6020820190508181035f83015261303681612ffd565b9050919050565b5f613047826127fc565b9150613052836127fc565b925082820390508181111561306a57613069612c8e565b5b92915050565b7f4e487b71000000000000000000000000000000000000000000000000000000005f52601260045260245ffd5b5f6130a7826127fc565b91506130b2836127fc565b9250826130c2576130c1613070565b5b828204905092915050565b7f466163746f727920616c726561647920736574000000000000000000000000005f82015250565b5f613101601383612cfc565b915061310c826130cd565b602082019050919050565b5f6020820190508181035f83015261312e816130f5565b9050919050565b7f4f6e6c7920666163746f72792063616e2063616c6c20746869732066756e63745f8201527f696f6e0000000000000000000000000000000000000000000000000000000000602082015250565b5f61318f602383612cfc565b915061319a82613135565b604082019050919050565b5f6020820190508181035f8301526131bc81613183565b9050919050565b7f46616972206c61756e6368206e6f7420726561647920746f20636f6d706c65745f8201527f6500000000000000000000000000000000000000000000000000000000000000602082015250565b5f61321d602183612cfc565b9150613228826131c3565b604082019050919050565b5f6020820190508181035f83015261324a81613211565b9050919050565b7f46616972206c61756e6368206e6f7420616374697665000000000000000000005f82015250565b5f613285601683612cfc565b915061329082613251565b602082019050919050565b5f6020820190508181035f8301526132b281613279565b9050919050565b7f46616972206c61756e636820656e6465640000000000000000000000000000005f82015250565b5f6132ed601183612cfc565b91506132f8826132b9565b602082019050919050565b5f6020820190508181035f83015261331a816132e1565b9050919050565b7f4d7573742073656e6420455448000000000000000000000000000000000000005f82015250565b5f613355600d83612cfc565b915061336082613321565b602082019050919050565b5f6020820190508181035f83015261338281613349565b9050919050565b7f496e73756666696369656e7420455448000000000000000000000000000000005f82015250565b5f6133bd601083612cfc565b91506133c882613389565b602082019050919050565b5f6020820190508181035f8301526133ea816133b1565b9050919050565b7f4578636565647320696e697469616c20737570706c79000000000000000000005f82015250565b5f613425601683612cfc565b9150613430826133f1565b602082019050919050565b5f6020820190508181035f83015261345281613419565b9050919050565b7f466565207472616e73666572206661696c6564000000000000000000000000005f82015250565b5f61348d601383612cfc565b915061349882613459565b602082019050919050565b5f6020820190508181035f8301526134ba81613481565b9050919050565b7f62757900000000000000000000000000000000000000000000000000000000005f82015250565b5f6134f5600383612cfc565b9150613500826134c1565b602082019050919050565b5f60408201905061351e5f830184612805565b818103602083015261352f816134e9565b905092915050565b5f60408201905061354a5f830185612805565b6135576020830184612805565b9392505050565b7f43726561746f7220697320626c6f636b6564206f7220616c72656164792068615f8201527f73206120746f6b656e0000000000000000000000000000000000000000000000602082015250565b5f6135b8602983612cfc565b91506135c38261355e565b604082019050919050565b5f6020820190508181035f8301526135e5816135ac565b9050919050565b7f4f6e6c7920666163746f72792063616e2073746172742066616972206c61756e5f8201527f6368000000000000000000000000000000000000000000000000000000000000602082015250565b5f613646602283612cfc565b9150613651826135ec565b604082019050919050565b5f6020820190508181035f8301526136738161363a565b9050919050565b5f613684826127fc565b91507fffffffffffffffffffffffffffffffffffffffffffffffffffffffffffffffff82036136b6576136b5612c8e565b5b600182019050919050565b7f416d6f756e74206d75737420626520706f7369746976650000000000000000005f82015250565b5f6136f5601783612cfc565b9150613700826136c1565b602082019050919050565b5f6020820190508181035f830152613722816136e9565b9050919050565b7f496e73756666696369656e7420746f6b656e2062616c616e63650000000000005f82015250565b5f61375d601a83612cfc565b915061376882613729565b602082019050919050565b5f6020820190508181035f83015261378a81613751565b9050919050565b7f496e73756666696369656e742045544820696e20636f6e7472616374000000005f82015250565b5f6137c5601c83612cfc565b91506137d082613791565b602082019050919050565b5f6020820190508181035f8301526137f2816137b9565b9050919050565b7f73656c6c000000000000000000000000000000000000000000000000000000005f82015250565b5f61382d600483612cfc565b9150613838826137f9565b602082019050919050565b5f6040820190506138565f830184612805565b818103602083015261386781613821565b905092915050565b7f4e487b71000000000000000000000000000000000000000000000000000000005f52603260045260245ffd5b7f46616972206c61756e6368206e6f74206c61756e6368696e67000000000000005f82015250565b5f6138d0601983612cfc565b91506138db8261389c565b602082019050919050565b5f6020820190508181035f8301526138fd816138c4565b9050919050565b7f7072696365207a65726f000000000000000000000000000000000000000000005f82015250565b5f613938600a83612cfc565b915061394382613904565b602082019050919050565b5f6020820190508181035f8301526139658161392c565b905091905056fea2646970667358221220f5fdbf95c848cdc07496970988a5b3931a3e7d3edb34b6f889f1880fb34ec5e564736f6c634300081c0033",
  "linkReferences": {},
  "deployedLinkReferences": {},
  "immutableReferences": {},
  "inputSourceName": "project/contracts/MemedTokenSale.sol",
  "buildInfoId": "solc-0_8_28-336d11c80ed68d5362423921d5a30cc0bfb22240"
}