{
  "_format": "hh3-artifact-1",
  "contractName": "MemedEngageToEarn",
  "sourceName": "contracts/MemedEngageToEarn.sol",
  "abi": [
    {
      "inputs": [],
      "stateMutability": "nonpayable",
      "type": "constructor"
    },
    {
      "inputs": [
        {
          "internalType": "address",
          "name": "owner",
          "type": "address"
        }
      ],
      "name": "OwnableInvalidOwner",
      "type": "error"
    },
    {
      "inputs": [
        {
          "internalType": "address",
          "name": "account",
          "type": "address"
        }
      ],
      "name": "OwnableUnauthorizedAccount",
      "type": "error"
    },
    {
      "inputs": [],
      "name": "ReentrancyGuardReentrantCall",
      "type": "error"
    },
    {
      "anonymous": false,
      "inputs": [
        {
          "indexed": false,
          "internalType": "uint256",
          "name": "amount",
          "type": "uint256"
        }
      ],
      "name": "CreatorIncentivesClaimed",
      "type": "event"
    },
    {
      "anonymous": false,
      "inputs": [
        {
          "indexed": false,
          "internalType": "uint256",
          "name": "amount",
          "type": "uint256"
        }
      ],
      "name": "CreatorIncentivesUnlocked",
      "type": "event"
    },
    {
      "anonymous": false,
      "inputs": [
        {
          "indexed": false,
          "internalType": "address",
          "name": "to",
          "type": "address"
        }
      ],
      "name": "CreatorSet",
      "type": "event"
    },
    {
      "anonymous": false,
      "inputs": [
        {
          "indexed": true,
          "internalType": "address",
          "name": "user",
          "type": "address"
        },
        {
          "indexed": true,
          "internalType": "uint256",
          "name": "rewardId",
          "type": "uint256"
        },
        {
          "indexed": false,
          "internalType": "uint256",
          "name": "amount",
          "type": "uint256"
        }
      ],
      "name": "EngagementRewardClaimed",
      "type": "event"
    },
    {
      "anonymous": false,
      "inputs": [
        {
          "indexed": true,
          "internalType": "uint256",
          "name": "rewardId",
          "type": "uint256"
        },
        {
          "indexed": true,
          "internalType": "address",
          "name": "token",
          "type": "address"
        },
        {
          "indexed": false,
          "internalType": "uint256",
          "name": "nftPrice",
          "type": "uint256"
        },
        {
          "indexed": false,
          "internalType": "uint256",
          "name": "timestamp",
          "type": "uint256"
        }
      ],
      "name": "EngagementRewardRegistered",
      "type": "event"
    },
    {
      "anonymous": false,
      "inputs": [
        {
          "indexed": true,
          "internalType": "address",
          "name": "previousOwner",
          "type": "address"
        },
        {
          "indexed": true,
          "internalType": "address",
          "name": "newOwner",
          "type": "address"
        }
      ],
      "name": "OwnershipTransferred",
      "type": "event"
    },
    {
      "inputs": [],
      "name": "CREATOR_INCENTIVES_ALLOCATION",
      "outputs": [
        {
          "internalType": "uint256",
          "name": "",
          "type": "uint256"
        }
      ],
      "stateMutability": "view",
      "type": "function"
    },
    {
      "inputs": [],
      "name": "CREATOR_INITIAL_ALLOCATION_PER_UNLOCK",
      "outputs": [
        {
          "internalType": "uint256",
          "name": "",
          "type": "uint256"
        }
      ],
      "stateMutability": "view",
      "type": "function"
    },
    {
      "inputs": [],
      "name": "CYCLE_REWARD_PERCENTAGE",
      "outputs": [
        {
          "internalType": "uint256",
          "name": "",
          "type": "uint256"
        }
      ],
      "stateMutability": "view",
      "type": "function"
    },
    {
      "inputs": [],
      "name": "ENGAGEMENT_REWARDS_CHANGE",
      "outputs": [
        {
          "internalType": "uint256",
          "name": "",
          "type": "uint256"
        }
      ],
      "stateMutability": "view",
      "type": "function"
    },
    {
      "inputs": [],
      "name": "ENGAGEMENT_REWARDS_PER_NFT_PERCENTAGE",
      "outputs": [
        {
          "internalType": "uint256",
          "name": "",
          "type": "uint256"
        }
      ],
      "stateMutability": "view",
      "type": "function"
    },
    {
      "inputs": [],
      "name": "MAX_REWARD",
      "outputs": [
        {
          "internalType": "uint256",
          "name": "",
          "type": "uint256"
        }
      ],
      "stateMutability": "view",
      "type": "function"
    },
    {
      "inputs": [
        {
          "internalType": "uint256[]",
          "name": "_rewardIds",
          "type": "uint256[]"
        }
      ],
      "name": "batchClaimEngagementRewards",
      "outputs": [],
      "stateMutability": "nonpayable",
      "type": "function"
    },
    {
      "inputs": [
        {
          "internalType": "address",
          "name": "_token",
          "type": "address"
        },
        {
          "internalType": "address",
          "name": "_winner",
          "type": "address"
        },
        {
          "internalType": "uint256",
          "name": "_amount",
          "type": "uint256"
        }
      ],
      "name": "claimBattleRewards",
      "outputs": [],
      "stateMutability": "nonpayable",
      "type": "function"
    },
    {
      "inputs": [
        {
          "internalType": "address",
          "name": "_token",
          "type": "address"
        }
      ],
      "name": "claimCreatorIncentives",
      "outputs": [],
      "stateMutability": "nonpayable",
      "type": "function"
    },
    {
      "inputs": [
        {
          "internalType": "uint256",
          "name": "_rewardId",
          "type": "uint256"
        }
      ],
      "name": "claimEngagementReward",
      "outputs": [],
      "stateMutability": "nonpayable",
      "type": "function"
    },
    {
      "inputs": [
        {
          "internalType": "address",
          "name": "_token",
          "type": "address"
        },
        {
          "internalType": "address",
          "name": "to",
          "type": "address"
        }
      ],
      "name": "claimUnclaimedTokens",
      "outputs": [],
      "stateMutability": "nonpayable",
      "type": "function"
    },
    {
      "inputs": [
        {
          "internalType": "address",
          "name": "",
          "type": "address"
        }
      ],
      "name": "creatorData",
      "outputs": [
        {
          "internalType": "address",
          "name": "creator",
          "type": "address"
        },
        {
          "internalType": "uint256",
          "name": "balance",
          "type": "uint256"
        },
        {
          "internalType": "uint256",
          "name": "unlockedBalance",
          "type": "uint256"
        }
      ],
      "stateMutability": "view",
      "type": "function"
    },
    {
      "inputs": [],
      "name": "engagementRewardId",
      "outputs": [
        {
          "internalType": "uint256",
          "name": "",
          "type": "uint256"
        }
      ],
      "stateMutability": "view",
      "type": "function"
    },
    {
      "inputs": [
        {
          "internalType": "uint256",
          "name": "",
          "type": "uint256"
        }
      ],
      "name": "engagementRewards",
      "outputs": [
        {
          "internalType": "address",
          "name": "token",
          "type": "address"
        },
        {
          "internalType": "uint256",
          "name": "amountClaimed",
          "type": "uint256"
        },
        {
          "internalType": "uint256",
          "name": "nftPrice",
          "type": "uint256"
        },
        {
          "internalType": "uint256",
          "name": "timestamp",
          "type": "uint256"
        }
      ],
      "stateMutability": "view",
      "type": "function"
    },
    {
      "inputs": [],
      "name": "factory",
      "outputs": [
        {
          "internalType": "contract IMemedFactory",
          "name": "",
          "type": "address"
        }
      ],
      "stateMutability": "view",
      "type": "function"
    },
    {
      "inputs": [
        {
          "internalType": "address",
          "name": "_token",
          "type": "address"
        }
      ],
      "name": "getBattleRewardPool",
      "outputs": [
        {
          "internalType": "uint256",
          "name": "",
          "type": "uint256"
        }
      ],
      "stateMutability": "view",
      "type": "function"
    },
    {
      "inputs": [
        {
          "internalType": "uint256",
          "name": "_rewardId",
          "type": "uint256"
        }
      ],
      "name": "getEngagementReward",
      "outputs": [
        {
          "components": [
            {
              "internalType": "address",
              "name": "token",
              "type": "address"
            },
            {
              "internalType": "uint256",
              "name": "amountClaimed",
              "type": "uint256"
            },
            {
              "internalType": "uint256",
              "name": "nftPrice",
              "type": "uint256"
            },
            {
              "internalType": "uint256",
              "name": "timestamp",
              "type": "uint256"
            }
          ],
          "internalType": "struct EngagementReward",
          "name": "",
          "type": "tuple"
        }
      ],
      "stateMutability": "view",
      "type": "function"
    },
    {
      "inputs": [
        {
          "internalType": "address",
          "name": "_token",
          "type": "address"
        }
      ],
      "name": "getNftReward",
      "outputs": [
        {
          "internalType": "uint256",
          "name": "",
          "type": "uint256"
        }
      ],
      "stateMutability": "view",
      "type": "function"
    },
    {
      "inputs": [],
      "name": "getUserEngagementReward",
      "outputs": [
        {
          "components": [
            {
              "internalType": "address",
              "name": "user",
              "type": "address"
            },
            {
              "internalType": "uint256",
              "name": "rewardId",
              "type": "uint256"
            },
            {
              "internalType": "uint256",
              "name": "amountToClaim",
              "type": "uint256"
            },
            {
              "internalType": "address",
              "name": "token",
              "type": "address"
            }
          ],
          "internalType": "struct EngagementRewardClaim[]",
          "name": "",
          "type": "tuple[]"
        }
      ],
      "stateMutability": "view",
      "type": "function"
    },
    {
      "inputs": [
        {
          "internalType": "uint256",
          "name": "",
          "type": "uint256"
        },
        {
          "internalType": "address",
          "name": "",
          "type": "address"
        }
      ],
      "name": "isClaimedByUser",
      "outputs": [
        {
          "internalType": "bool",
          "name": "",
          "type": "bool"
        }
      ],
      "stateMutability": "view",
      "type": "function"
    },
    {
      "inputs": [
        {
          "internalType": "address",
          "name": "_token",
          "type": "address"
        }
      ],
      "name": "isCreatorRewardable",
      "outputs": [
        {
          "internalType": "bool",
          "name": "",
          "type": "bool"
        }
      ],
      "stateMutability": "view",
      "type": "function"
    },
    {
      "inputs": [
        {
          "internalType": "address",
          "name": "_token",
          "type": "address"
        }
      ],
      "name": "isRewardable",
      "outputs": [
        {
          "internalType": "bool",
          "name": "",
          "type": "bool"
        }
      ],
      "stateMutability": "view",
      "type": "function"
    },
    {
      "inputs": [],
      "name": "owner",
      "outputs": [
        {
          "internalType": "address",
          "name": "",
          "type": "address"
        }
      ],
      "stateMutability": "view",
      "type": "function"
    },
    {
      "inputs": [
        {
          "internalType": "address",
          "name": "_token",
          "type": "address"
        }
      ],
      "name": "registerEngagementReward",
      "outputs": [],
      "stateMutability": "nonpayable",
      "type": "function"
    },
    {
      "inputs": [],
      "name": "renounceOwnership",
      "outputs": [],
      "stateMutability": "nonpayable",
      "type": "function"
    },
    {
      "inputs": [
        {
          "internalType": "address",
          "name": "_factory",
          "type": "address"
        }
      ],
      "name": "setFactory",
      "outputs": [],
      "stateMutability": "nonpayable",
      "type": "function"
    },
    {
      "inputs": [
        {
          "internalType": "address",
          "name": "",
          "type": "address"
        }
      ],
      "name": "totalClaimed",
      "outputs": [
        {
          "internalType": "uint256",
          "name": "",
          "type": "uint256"
        }
      ],
      "stateMutability": "view",
      "type": "function"
    },
    {
      "inputs": [
        {
          "internalType": "address",
          "name": "_loser",
          "type": "address"
        },
        {
          "internalType": "address",
          "name": "_winner",
          "type": "address"
        },
        {
          "internalType": "uint256",
          "name": "_loserAmount",
          "type": "uint256"
        }
      ],
      "name": "transferBattleRewards",
      "outputs": [
        {
          "internalType": "uint256",
          "name": "",
          "type": "uint256"
        }
      ],
      "stateMutability": "nonpayable",
      "type": "function"
    },
    {
      "inputs": [
        {
          "internalType": "address",
          "name": "newOwner",
          "type": "address"
        }
      ],
      "name": "transferOwnership",
      "outputs": [],
      "stateMutability": "nonpayable",
      "type": "function"
    },
    {
      "inputs": [
        {
          "internalType": "address",
          "name": "_token",
          "type": "address"
        }
      ],
      "name": "unlockCreatorIncentives",
      "outputs": [],
      "stateMutability": "nonpayable",
      "type": "function"
    }
  ],
  "bytecode": "0x6080604052348015600e575f5ffd5b503380603357604051631e4fbdf760e01b81525f600482015260240160405180910390fd5b603a816043565b50600180556092565b5f80546001600160a01b038381166001600160a01b0319831681178455604051919092169283917f8be0079c531659141344cd1fd0a4f28419497f9722a3daafe3b4186f6b6457e09190a35050565b6130488061009f5f395ff3fe608060405234801561000f575f5ffd5b50600436106101d0575f3560e01c8063a004435a116100fe578063e9e83f291161009e578063f2fde38b1161006e578063f2fde38b1461046d578063f9e4a75714610480578063fada0fcf14610490578063fdde21ed146104df575f5ffd5b8063e9e83f2914610420578063ef0e183714610428578063ef5d9ae81461043b578063f251f45f1461045a575f5ffd5b8063ad743719116100d9578063ad743719146103c4578063c2c36e38146103cd578063c45a0155146103fa578063e24638c01461040d575f5ffd5b8063a004435a14610334578063a7f7cd0d1461039c578063ad38939f146103af575f5ffd5b80635bb478081161017457806382522aed1161014457806382522aed146102ad5780638da5cb5b146102c05780639818eb19146102e45780639dab33f6146102ec575f5ffd5b80635bb478081461026c578063641d27ab1461027f5780636491e56614610292578063715018a6146102a5575f5ffd5b80631a5e3c9d116101af5780631a5e3c9d146102225780633ca8089e14610234578063432c038314610247578063492aebb91461025a575f5ffd5b8062c36edf146101d45780630e1505e0146101fa578063108364a61461020d575b5f5ffd5b6101e76101e2366004612b9d565b61053c565b6040519081526020015b60405180910390f35b6101e76b019d971e4fe8401e7400000081565b61022061021b366004612bb8565b6105c6565b005b6101e76aa56fa5b99019a5c800000081565b610220610242366004612c29565b610c1e565b610220610255366004612b9d565b61126d565b6101e76a01a784379d99db4200000081565b61022061027a366004612b9d565b61138e565b61022061028d366004612b9d565b6113ff565b6102206102a0366004612b9d565b611571565b610220611a62565b6101e76102bb366004612b9d565b611a75565b5f546001600160a01b03165b6040516001600160a01b0390911681526020016101f1565b6101e7601481565b6103246102fa366004612b9d565b6001600160a01b03165f908152600760205260409020600101546a01a784379d99db420000001090565b60405190151581526020016101f1565b610372610342366004612c29565b60046020525f908152604090208054600182015460028301546003909301546001600160a01b0390921692909184565b604080516001600160a01b03909516855260208501939093529183015260608201526080016101f1565b6101e76103aa366004612c40565b611b52565b6103b7611f4d565b6040516101f19190612c7e565b6101e760035481565b6103246103db366004612cf1565b600660209081525f928352604080842090915290825290205460ff1681565b6002546102cc906001600160a01b031681565b61022061041b366004612d1f565b612481565b6101e7600581565b610220610436366004612c40565b612595565b6101e7610449366004612b9d565b60056020525f908152604090205481565b610324610468366004612b9d565b6127c8565b61022061047b366004612b9d565b612a2d565b6101e768056bc75e2d6310000081565b6104a361049e366004612c29565b612a67565b6040516101f1919081516001600160a01b0316815260208083015190820152604080830151908201526060918201519181019190915260800190565b6105176104ed366004612b9d565b60076020525f90815260409020805460018201546002909201546001600160a01b03909116919083565b604080516001600160a01b0390941684526020840192909252908201526060016101f1565b6040516370a0823160e01b81523060048201525f9081906001600160a01b038416906370a0823190602401602060405180830381865afa158015610582573d5f5f3e3d5ffd5b505050506040513d601f19601f820116820180604052508101906105a69190612d4b565b905060646105b5600583612d76565b6105bf9190612d93565b9392505050565b6105ce612ae4565b806106195760405162461bcd60e51b8152602060048201526016602482015275139bc81c995dd85c990812511cc81c1c9bdd9a59195960521b60448201526064015b60405180910390fd5b60328111156106745760405162461bcd60e51b815260206004820152602160248201527f546f6f206d616e79207265776172647320746f20636c61696d206174206f6e636044820152606560f81b6064820152608401610610565b5f5b81811015610c10575f83838381811061069157610691612db2565b602090810292909201355f81815260068452604080822033835290945292909220549192505060ff16156106c55750610c08565b5f81815260046020908152604091829020825160808101845281546001600160a01b0316808252600183015493820193909352600282015493810193909352600301546060830152610718575050610c08565b60025481516040516309f8bfb960e21b81526001600160a01b0391821660048201525f9291909116906327e2fee490602401602060405180830381865afa158015610765573d5f5f3e3d5ffd5b505050506040513d601f19601f820116820180604052508101906107899190612dc6565b6060830151604051631ed2d48560e31b815233600482015260248101919091526001600160a01b03919091169063f696a42890604401602060405180830381865afa1580156107da573d5f5f3e3d5ffd5b505050506040513d601f19601f820116820180604052508101906107fe9190612d4b565b90505f60025f9054906101000a90046001600160a01b03166001600160a01b031663d1f6d04a6040518163ffffffff1660e01b8152600401602060405180830381865afa158015610851573d5f5f3e3d5ffd5b505050506040513d601f19601f820116820180604052508101906108759190612dc6565b604051631076997f60e21b81523360048201526001600160a01b0391909116906341da65fc906024015f60405180830381865afa1580156108b8573d5f5f3e3d5ffd5b505050506040513d5f823e601f3d908101601f191682016040526108df9190810190612e26565b90505f805b8251811015610a3457600254604080516368fb682560e11b815290515f926001600160a01b03169163d1f6d04a9160048083019260209291908290030181865afa158015610934573d5f5f3e3d5ffd5b505050506040513d601f19601f820116820180604052508101906109589190612dc6565b6001600160a01b031663643c5e6c85848151811061097857610978612db2565b602002602001015188606001516040518363ffffffff1660e01b81526004016109ab929190918252602082015260400190565b6040805180830381865afa1580156109c5573d5f5f3e3d5ffd5b505050506040513d601f19601f820116820180604052508101906109e99190612ed2565b90508060200151815f01511115610a2b5760208101518151610a0b9190612f21565b610a1e9068056bc75e2d63100000612d76565b610a289084612f34565b92505b506001016108e4565b505f8160646014868860400151610a4b9190612d76565b610a559190612d76565b610a5f9190612d93565b610a699190612f34565b9050805f03610a7d57505050505050610c08565b84516040516370a0823160e01b815230600482015282916001600160a01b0316906370a0823190602401602060405180830381865afa158015610ac2573d5f5f3e3d5ffd5b505050506040513d601f19601f82011682018060405250810190610ae69190612d4b565b1015610af757505050505050610c08565b5f8681526006602090815260408083203384528252808320805460ff1916600190811790915589845260049092528220018054839290610b38908490612f34565b9091555050845160405163a9059cbb60e01b8152336004820152602481018390526001600160a01b039091169063a9059cbb906044016020604051808303815f875af1158015610b8a573d5f5f3e3d5ffd5b505050506040513d601f19601f82011682018060405250810190610bae9190612f47565b610bca5760405162461bcd60e51b815260040161061090612f66565b604051818152869033907f1e575a206015efdd41d1ad61fde9567ccd7bc6ab447506a88f6fbc4e953154b39060200160405180910390a35050505050505b600101610676565b50610c1a60018055565b5050565b610c26612ae4565b5f81815260066020908152604080832033845290915290205460ff1615610c815760405162461bcd60e51b815260206004820152600f60248201526e105b1c9958591e4818db185a5b5959608a1b6044820152606401610610565b5f81815260046020908152604091829020825160808101845281546001600160a01b0316808252600183015493820193909352600282015493810193909352600301546060830152610d0d5760405162461bcd60e51b815260206004820152601560248201527414995dd85c9908191bd95cc81b9bdd08195e1a5cdd605a1b6044820152606401610610565b60025481516040516309f8bfb960e21b81526001600160a01b0391821660048201525f9291909116906327e2fee490602401602060405180830381865afa158015610d5a573d5f5f3e3d5ffd5b505050506040513d601f19601f82011682018060405250810190610d7e9190612dc6565b6060830151604051631ed2d48560e31b815233600482015260248101919091526001600160a01b03919091169063f696a42890604401602060405180830381865afa158015610dcf573d5f5f3e3d5ffd5b505050506040513d601f19601f82011682018060405250810190610df39190612d4b565b90505f60025f9054906101000a90046001600160a01b03166001600160a01b031663d1f6d04a6040518163ffffffff1660e01b8152600401602060405180830381865afa158015610e46573d5f5f3e3d5ffd5b505050506040513d601f19601f82011682018060405250810190610e6a9190612dc6565b604051631076997f60e21b81523360048201526001600160a01b0391909116906341da65fc906024015f60405180830381865afa158015610ead573d5f5f3e3d5ffd5b505050506040513d5f823e601f3d908101601f19168201604052610ed49190810190612e26565b90505f805b825181101561102957600254604080516368fb682560e11b815290515f926001600160a01b03169163d1f6d04a9160048083019260209291908290030181865afa158015610f29573d5f5f3e3d5ffd5b505050506040513d601f19601f82011682018060405250810190610f4d9190612dc6565b6001600160a01b031663643c5e6c858481518110610f6d57610f6d612db2565b602002602001015188606001516040518363ffffffff1660e01b8152600401610fa0929190918252602082015260400190565b6040805180830381865afa158015610fba573d5f5f3e3d5ffd5b505050506040513d601f19601f82011682018060405250810190610fde9190612ed2565b90508060200151815f0151111561102057602081015181516110009190612f21565b6110139068056bc75e2d63100000612d76565b61101d9084612f34565b92505b50600101610ed9565b505f81606460148688604001516110409190612d76565b61104a9190612d76565b6110549190612d93565b61105e9190612f34565b90505f81116110a45760405162461bcd60e51b81526020600482015260126024820152714e6f2072657761726420746f20636c61696d60701b6044820152606401610610565b84516040516370a0823160e01b815230600482015282916001600160a01b0316906370a0823190602401602060405180830381865afa1580156110e9573d5f5f3e3d5ffd5b505050506040513d601f19601f8201168201806040525081019061110d9190612d4b565b10156111525760405162461bcd60e51b8152602060048201526014602482015273496e73756666696369656e742062616c616e636560601b6044820152606401610610565b5f8681526006602090815260408083203384528252808320805460ff1916600190811790915589845260049092528220018054839290611193908490612f34565b9091555050845160405163a9059cbb60e01b8152336004820152602481018390526001600160a01b039091169063a9059cbb906044016020604051808303815f875af11580156111e5573d5f5f3e3d5ffd5b505050506040513d601f19601f820116820180604052508101906112099190612f47565b6112255760405162461bcd60e51b815260040161061090612f66565b604051818152869033907f1e575a206015efdd41d1ad61fde9567ccd7bc6ab447506a88f6fbc4e953154b39060200160405180910390a3505050505061126a60018055565b50565b6001600160a01b038181165f908152600760205260409020541633146112ce5760405162461bcd60e51b81526020600482015260166024820152754f6e6c792063726561746f722063616e20636c61696d60501b6044820152606401610610565b6001600160a01b038181165f8181526007602052604080822060028101805493905554905163a9059cbb60e01b815293166004840152602483018190529163a9059cbb906044016020604051808303815f875af1158015611331573d5f5f3e3d5ffd5b505050506040513d601f19601f820116820180604052508101906113559190612f47565b506040518181527f85210f592f3f6c0e04a0bbe66c0b4c3a93803fda97ceac60f5be26c0cd6612da906020015b60405180910390a15050565b611396612b0e565b6002546001600160a01b0316156113dd5760405162461bcd60e51b815260206004820152600b60248201526a105b1c9958591e481cd95d60aa1b6044820152606401610610565b600280546001600160a01b0319166001600160a01b0392909216919091179055565b6002546001600160a01b0316331461146c5760405162461bcd60e51b815260206004820152602a60248201527f4f6e6c7920666163746f72792063616e20756e6c6f636b2063726561746f7220604482015269696e63656e746976657360b01b6064820152608401610610565b6001600160a01b0381165f908152600760205260409020600101546a01a784379d99db42000000908111156114e35760405162461bcd60e51b815260206004820152601c60248201527f4e6f7420656e6f7567682062616c616e636520746f20756e6c6f636b000000006044820152606401610610565b6001600160a01b0382165f908152600760205260408120600201805483929061150d908490612f34565b90915550506001600160a01b0382165f908152600760205260408120600101805483929061153c908490612f21565b90915550506040518181527f20e6b5faba158691cec289aa69971b114cbde320ad56ed660db2223c86bf0c2b90602001611382565b6002546001600160a01b031633146115e05760405162461bcd60e51b815260206004820152602c60248201527f4f6e6c7920666163746f72792063616e20726567697374657220656e6761676560448201526b6d656e74207265776172647360a01b6064820152608401610610565b6002546040516309f8bfb960e21b81526001600160a01b0383811660048301525f9216906327e2fee490602401602060405180830381865afa158015611628573d5f5f3e3d5ffd5b505050506040513d601f19601f8201168201806040525081019061164c9190612dc6565b6001600160a01b031663eb91d37e6040518163ffffffff1660e01b8152600401602060405180830381865afa158015611687573d5f5f3e3d5ffd5b505050506040513d601f19601f820116820180604052508101906116ab9190612d4b565b6002546040516309f8bfb960e21b81526001600160a01b0385811660048301529293505f92909116906327e2fee490602401602060405180830381865afa1580156116f8573d5f5f3e3d5ffd5b505050506040513d601f19601f8201168201806040525081019061171c9190612dc6565b6001600160a01b0316629a9b7b6040518163ffffffff1660e01b8152600401602060405180830381865afa158015611756573d5f5f3e3d5ffd5b505050506040513d601f19601f8201168201806040525081019061177a9190612d4b565b90505f60025f9054906101000a90046001600160a01b03166001600160a01b031663d1f6d04a6040518163ffffffff1660e01b8152600401602060405180830381865afa1580156117cd573d5f5f3e3d5ffd5b505050506040513d601f19601f820116820180604052508101906117f19190612dc6565b60405163103b223960e11b81526001600160a01b03868116600483015291909116906320764472906024016040805180830381865afa158015611836573d5f5f3e3d5ffd5b505050506040513d601f19601f8201168201806040525081019061185a9190612ed2565b90505f8160200151825f015111611871575f611895565b602082015182516118829190612f21565b6118959068056bc75e2d63100000612d76565b90505f81606460146118a78888612d76565b6118b19190612d76565b6118bb9190612d93565b6118c59190612f34565b90505f81116119025760405162461bcd60e51b8152602060048201526009602482015268139bc81c995dd85c9960ba1b6044820152606401610610565b6001600160a01b0386165f908152600560205260409020546b019d971e4fe8401e7400000090611933908390612f34565b11156119765760405162461bcd60e51b815260206004820152601260248201527113585e081c995dd85c99081c995858da195960721b6044820152606401610610565b6001600160a01b0386165f908152600560205260408120805483929061199d908490612f34565b909155505060038054905f6119b183612f8f565b9091555050604080516080810182526001600160a01b038881168083525f60208085018281528587018c8152426060880181815260038054875260048652958a9020985189546001600160a01b0319169816979097178855915160018801555160028701559351948201949094555484518a8152938401929092529290917ff04450d69d135513bf16955c941e3b48c63564a618825fddc13dd3674646bd7c910160405180910390a3505050505050565b611a6a612b0e565b611a735f612b3a565b565b6002546040516309f8bfb960e21b81526001600160a01b0383811660048301525f9283929116906327e2fee490602401602060405180830381865afa158015611ac0573d5f5f3e3d5ffd5b505050506040513d601f19601f82011682018060405250810190611ae49190612dc6565b6001600160a01b031663eb91d37e6040518163ffffffff1660e01b8152600401602060405180830381865afa158015611b1f573d5f5f3e3d5ffd5b505050506040513d601f19601f82011682018060405250810190611b439190612d4b565b905060646105b5601483612d76565b5f611b5b612ae4565b60025f9054906101000a90046001600160a01b03166001600160a01b031663d1f6d04a6040518163ffffffff1660e01b8152600401602060405180830381865afa158015611bab573d5f5f3e3d5ffd5b505050506040513d601f19601f82011682018060405250810190611bcf9190612dc6565b6001600160a01b031663a9dc491d6040518163ffffffff1660e01b8152600401602060405180830381865afa158015611c0a573d5f5f3e3d5ffd5b505050506040513d601f19601f82011682018060405250810190611c2e9190612dc6565b6001600160a01b0316336001600160a01b031614611ca05760405162461bcd60e51b815260206004820152602960248201527f4f6e6c79207265736f6c7665722063616e207472616e7366657220626174746c60448201526865207265776172647360b81b6064820152608401610610565b6040516370a0823160e01b815230600482015282906001600160a01b038616906370a0823190602401602060405180830381865afa158015611ce4573d5f5f3e3d5ffd5b505050506040513d601f19601f82011682018060405250810190611d089190612d4b565b1015611d565760405162461bcd60e51b815260206004820181905260248201527f496e73756666696369656e74206c6f73657220746f6b656e2062616c616e63656044820152606401610610565b60025460405163a9059cbb60e01b81526001600160a01b039182166004820152602481018490529085169063a9059cbb906044016020604051808303815f875af1158015611da6573d5f5f3e3d5ffd5b505050506040513d601f19601f82011682018060405250810190611dca9190612f47565b611e165760405162461bcd60e51b815260206004820152601a60248201527f5472616e7366657220746f20666163746f7279206661696c65640000000000006044820152606401610610565b6040805160028082526060820183525f9260208301908036833701905050905084815f81518110611e4957611e49612db2565b60200260200101906001600160a01b031690816001600160a01b0316815250508381600181518110611e7d57611e7d612db2565b6001600160a01b03928316602091820292909201015260025460405163290040f560e21b81525f92919091169063a40103d490611ec290879086903090600401612fa7565b6020604051808303815f875af1158015611ede573d5f5f3e3d5ffd5b505050506040513d601f19601f82011682018060405250810190611f029190612d4b565b90505f8111611f415760405162461bcd60e51b815260206004820152600b60248201526a14ddd85c0819985a5b195960aa1b6044820152606401610610565b9150506105bf60018055565b60605f60015b6003548111611fbf575f81815260066020908152604080832033845290915290205460ff16158015611f9a57505f818152600460205260409020546001600160a01b031615155b15611fad5781611fa981612f8f565b9250505b80611fb781612f8f565b915050611f53565b505f8167ffffffffffffffff811115611fda57611fda612de1565b60405190808252806020026020018201604052801561202a57816020015b604080516080810182525f8082526020808301829052928201819052606082015282525f19909201910181611ff85790505b5090505f60015b6003548111612478575f81815260066020908152604080832033845290915290205460ff16612466575f81815260046020908152604091829020825160808101845281546001600160a01b03168082526001830154938201939093526002820154938101939093526003015460608301526120ac5750612466565b60025481516040516309f8bfb960e21b81526001600160a01b0391821660048201525f9291909116906327e2fee490602401602060405180830381865afa1580156120f9573d5f5f3e3d5ffd5b505050506040513d601f19601f8201168201806040525081019061211d9190612dc6565b6060830151604051631ed2d48560e31b815233600482015260248101919091526001600160a01b03919091169063f696a42890604401602060405180830381865afa15801561216e573d5f5f3e3d5ffd5b505050506040513d601f19601f820116820180604052508101906121929190612d4b565b90505f60025f9054906101000a90046001600160a01b03166001600160a01b031663d1f6d04a6040518163ffffffff1660e01b8152600401602060405180830381865afa1580156121e5573d5f5f3e3d5ffd5b505050506040513d601f19601f820116820180604052508101906122099190612dc6565b604051631076997f60e21b81523360048201526001600160a01b0391909116906341da65fc906024015f60405180830381865afa15801561224c573d5f5f3e3d5ffd5b505050506040513d5f823e601f3d908101601f191682016040526122739190810190612e26565b90505f805b82518110156123c857600254604080516368fb682560e11b815290515f926001600160a01b03169163d1f6d04a9160048083019260209291908290030181865afa1580156122c8573d5f5f3e3d5ffd5b505050506040513d601f19601f820116820180604052508101906122ec9190612dc6565b6001600160a01b031663643c5e6c85848151811061230c5761230c612db2565b602002602001015188606001516040518363ffffffff1660e01b815260040161233f929190918252602082015260400190565b6040805180830381865afa158015612359573d5f5f3e3d5ffd5b505050506040513d601f19601f8201168201806040525081019061237d9190612ed2565b90508060200151815f015111156123bf576020810151815161239f9190612f21565b6123b29068056bc75e2d63100000612d76565b6123bc9084612f34565b92505b50600101612278565b505f81606460148688604001516123df9190612d76565b6123e99190612d76565b6123f39190612d93565b6123fd9190612f34565b90506040518060800160405280336001600160a01b03168152602001878152602001828152602001865f01516001600160a01b031681525088888151811061244757612447612db2565b6020026020010181905250868061245d90612f8f565b97505050505050505b8061247081612f8f565b915050612031565b50909392505050565b6001600160a01b0381166124c95760405162461bcd60e51b815260206004820152600f60248201526e496e76616c6964206164647265737360881b6044820152606401610610565b6001600160a01b038281165f9081526007602052604090205416156125265760405162461bcd60e51b815260206004820152601360248201527210dc99585d1bdc88185b1c9958591e481cd95d606a1b6044820152606401610610565b6001600160a01b038281165f9081526007602090815260409182902080546001600160a01b03191693851693841781556aa56fa5b99019a5c800000060019091015590519182527fd4396a7e1ee1013c611432f59b862687db5c35b5ae1fd43334ccba88fac8e6789101611382565b61259d612ae4565b60025f9054906101000a90046001600160a01b03166001600160a01b031663d1f6d04a6040518163ffffffff1660e01b8152600401602060405180830381865afa1580156125ed573d5f5f3e3d5ffd5b505050506040513d601f19601f820116820180604052508101906126119190612dc6565b6001600160a01b0316336001600160a01b0316146126815760405162461bcd60e51b815260206004820152602760248201527f4f6e6c7920626174746c652063616e207472616e7366657220626174746c65206044820152667265776172647360c81b6064820152608401610610565b6040516370a0823160e01b815230600482015281906001600160a01b038516906370a0823190602401602060405180830381865afa1580156126c5573d5f5f3e3d5ffd5b505050506040513d601f19601f820116820180604052508101906126e99190612d4b565b101561272e5760405162461bcd60e51b8152602060048201526014602482015273496e73756666696369656e742062616c616e636560601b6044820152606401610610565b60405163a9059cbb60e01b81526001600160a01b0383811660048301526024820183905284169063a9059cbb906044016020604051808303815f875af115801561277a573d5f5f3e3d5ffd5b505050506040513d601f19601f8201168201806040525081019061279e9190612f47565b6127ba5760405162461bcd60e51b815260040161061090612f66565b6127c360018055565b505050565b6002546040516309f8bfb960e21b81526001600160a01b0383811660048301525f9283929116906327e2fee490602401602060405180830381865afa158015612813573d5f5f3e3d5ffd5b505050506040513d601f19601f820116820180604052508101906128379190612dc6565b6001600160a01b0316629a9b7b6040518163ffffffff1660e01b8152600401602060405180830381865afa158015612871573d5f5f3e3d5ffd5b505050506040513d601f19601f820116820180604052508101906128959190612d4b565b9050805f036128a657505f92915050565b6002546040516309f8bfb960e21b81526001600160a01b0385811660048301525f92606492601492909116906327e2fee490602401602060405180830381865afa1580156128f6573d5f5f3e3d5ffd5b505050506040513d601f19601f8201168201806040525081019061291a9190612dc6565b6001600160a01b031663eb91d37e6040518163ffffffff1660e01b8152600401602060405180830381865afa158015612955573d5f5f3e3d5ffd5b505050506040513d601f19601f820116820180604052508101906129799190612d4b565b6129839085612d76565b61298d9190612d76565b6129979190612d93565b6040516370a0823160e01b81523060048201529091506001600160a01b038516906370a0823190602401602060405180830381865afa1580156129dc573d5f5f3e3d5ffd5b505050506040513d601f19601f82011682018060405250810190612a009190612d4b565b6001600160a01b0385165f90815260056020526040902054612a23908390612f34565b1115949350505050565b612a35612b0e565b6001600160a01b038116612a5e57604051631e4fbdf760e01b81525f6004820152602401610610565b61126a81612b3a565b612a9760405180608001604052805f6001600160a01b031681526020015f81526020015f81526020015f81525090565b505f90815260046020908152604091829020825160808101845281546001600160a01b03168152600182015492810192909252600281015492820192909252600390910154606082015290565b600260015403612b0757604051633ee5aeb560e01b815260040160405180910390fd5b6002600155565b5f546001600160a01b03163314611a735760405163118cdaa760e01b8152336004820152602401610610565b5f80546001600160a01b038381166001600160a01b0319831681178455604051919092169283917f8be0079c531659141344cd1fd0a4f28419497f9722a3daafe3b4186f6b6457e09190a35050565b6001600160a01b038116811461126a575f5ffd5b5f60208284031215612bad575f5ffd5b81356105bf81612b89565b5f5f60208385031215612bc9575f5ffd5b823567ffffffffffffffff811115612bdf575f5ffd5b8301601f81018513612bef575f5ffd5b803567ffffffffffffffff811115612c05575f5ffd5b8560208260051b8401011115612c19575f5ffd5b6020919091019590945092505050565b5f60208284031215612c39575f5ffd5b5035919050565b5f5f5f60608486031215612c52575f5ffd5b8335612c5d81612b89565b92506020840135612c6d81612b89565b929592945050506040919091013590565b602080825282518282018190525f918401906040840190835b81811015612ce657835180516001600160a01b03908116855260208083015181870152604080840151908701526060928301519091169185019190915290930192608090920191600101612c97565b509095945050505050565b5f5f60408385031215612d02575f5ffd5b823591506020830135612d1481612b89565b809150509250929050565b5f5f60408385031215612d30575f5ffd5b8235612d3b81612b89565b91506020830135612d1481612b89565b5f60208284031215612d5b575f5ffd5b5051919050565b634e487b7160e01b5f52601160045260245ffd5b8082028115828204841417612d8d57612d8d612d62565b92915050565b5f82612dad57634e487b7160e01b5f52601260045260245ffd5b500490565b634e487b7160e01b5f52603260045260245ffd5b5f60208284031215612dd6575f5ffd5b81516105bf81612b89565b634e487b7160e01b5f52604160045260245ffd5b604051601f8201601f1916810167ffffffffffffffff81118282101715612e1e57612e1e612de1565b604052919050565b5f60208284031215612e36575f5ffd5b815167ffffffffffffffff811115612e4c575f5ffd5b8201601f81018413612e5c575f5ffd5b805167ffffffffffffffff811115612e7657612e76612de1565b8060051b612e8660208201612df5565b91825260208184018101929081019087841115612ea1575f5ffd5b6020850194505b83851015612ec757845180835260209586019590935090910190612ea8565b979650505050505050565b5f6040828403128015612ee3575f5ffd5b506040805190810167ffffffffffffffff81118282101715612f0757612f07612de1565b604052825181526020928301519281019290925250919050565b81810381811115612d8d57612d8d612d62565b80820180821115612d8d57612d8d612d62565b5f60208284031215612f57575f5ffd5b815180151581146105bf575f5ffd5b6020808252600f908201526e151c985b9cd9995c8819985a5b1959608a1b604082015260600190565b5f60018201612fa057612fa0612d62565b5060010190565b5f60608201858352606060208401528085518083526080850191506020870192505f5b81811015612ff15783516001600160a01b0316835260209384019390920191600101612fca565b50506001600160a01b0394909416604093909301929092525090939250505056fea26469706673582212202c146063639bc50fff12eb5448176c6edadc2e500e900362b29c8e2eddcb48e664736f6c634300081c0033",
  "linkReferences": {},
  "deployedLinkReferences": {},
  "immutableReferences": {},
  "inputSourceName": "project/contracts/MemedEngageToEarn.sol",
  "buildInfoId": "solc-0_8_28-b499fa390fcf94cb8abbc30974ffd049fd056c6d"
}