{
  "_format": "hh3-artifact-1",
  "contractName": "MemedFactory_test",
  "sourceName": "contracts/MemedFactory_test.sol",
  "abi": [
    {
      "inputs": [
        {
          "internalType": "address",
          "name": "_memedTokenSale",
          "type": "address"
        },
        {
          "internalType": "address",
          "name": "_memedBattle",
          "type": "address"
        },
        {
          "internalType": "address",
          "name": "_memedEngageToEarn",
          "type": "address"
        },
        {
          "internalType": "address",
          "name": "_positionManager",
          "type": "address"
        },
        {
          "internalType": "address",
          "name": "_swapRouter",
          "type": "address"
        }
      ],
      "stateMutability": "nonpayable",
      "type": "constructor"
    },
    {
      "inputs": [
        {
          "internalType": "address",
          "name": "owner",
          "type": "address"
        }
      ],
      "name": "OwnableInvalidOwner",
      "type": "error"
    },
    {
      "inputs": [
        {
          "internalType": "address",
          "name": "account",
          "type": "address"
        }
      ],
      "name": "OwnableUnauthorizedAccount",
      "type": "error"
    },
    {
      "inputs": [],
      "name": "ReentrancyGuardReentrantCall",
      "type": "error"
    },
    {
      "anonymous": false,
      "inputs": [
        {
          "indexed": true,
          "internalType": "address",
          "name": "winner",
          "type": "address"
        },
        {
          "indexed": true,
          "internalType": "address",
          "name": "loser",
          "type": "address"
        },
        {
          "indexed": false,
          "internalType": "uint256",
          "name": "creatorIncentivesUnlocksAtWinner",
          "type": "uint256"
        },
        {
          "indexed": false,
          "internalType": "uint256",
          "name": "creatorIncentivesUnlocksAtLoser",
          "type": "uint256"
        }
      ],
      "name": "BattleUpdated",
      "type": "event"
    },
    {
      "anonymous": false,
      "inputs": [
        {
          "indexed": true,
          "internalType": "address",
          "name": "token",
          "type": "address"
        },
        {
          "indexed": false,
          "internalType": "uint256",
          "name": "heat",
          "type": "uint256"
        },
        {
          "indexed": false,
          "internalType": "uint256",
          "name": "timestamp",
          "type": "uint256"
        }
      ],
      "name": "HeatUpdated",
      "type": "event"
    },
    {
      "anonymous": false,
      "inputs": [
        {
          "indexed": true,
          "internalType": "address",
          "name": "previousOwner",
          "type": "address"
        },
        {
          "indexed": true,
          "internalType": "address",
          "name": "newOwner",
          "type": "address"
        }
      ],
      "name": "OwnershipTransferred",
      "type": "event"
    },
    {
      "anonymous": false,
      "inputs": [
        {
          "indexed": true,
          "internalType": "uint256",
          "name": "id",
          "type": "uint256"
        },
        {
          "indexed": true,
          "internalType": "address",
          "name": "token",
          "type": "address"
        },
        {
          "indexed": true,
          "internalType": "address",
          "name": "warriorNFT",
          "type": "address"
        }
      ],
      "name": "TokenCompletedFairLaunch",
      "type": "event"
    },
    {
      "anonymous": false,
      "inputs": [
        {
          "indexed": true,
          "internalType": "uint256",
          "name": "id",
          "type": "uint256"
        },
        {
          "indexed": true,
          "internalType": "address",
          "name": "token",
          "type": "address"
        },
        {
          "indexed": true,
          "internalType": "address",
          "name": "owner",
          "type": "address"
        },
        {
          "indexed": false,
          "internalType": "string",
          "name": "name",
          "type": "string"
        },
        {
          "indexed": false,
          "internalType": "string",
          "name": "ticker",
          "type": "string"
        },
        {
          "indexed": false,
          "internalType": "string",
          "name": "description",
          "type": "string"
        },
        {
          "indexed": false,
          "internalType": "string",
          "name": "image",
          "type": "string"
        },
        {
          "indexed": false,
          "internalType": "bool",
          "name": "isClaimedByCreator",
          "type": "bool"
        },
        {
          "indexed": false,
          "internalType": "uint256",
          "name": "createdAt",
          "type": "uint256"
        }
      ],
      "name": "TokenCreated",
      "type": "event"
    },
    {
      "inputs": [],
      "name": "BATTLE_REWARDS_PERCENTAGE",
      "outputs": [
        {
          "internalType": "uint256",
          "name": "",
          "type": "uint256"
        }
      ],
      "stateMutability": "view",
      "type": "function"
    },
    {
      "inputs": [],
      "name": "ENGAGEMENT_REWARDS_PER_NEW_HEAT",
      "outputs": [
        {
          "internalType": "uint256",
          "name": "",
          "type": "uint256"
        }
      ],
      "stateMutability": "view",
      "type": "function"
    },
    {
      "inputs": [],
      "name": "INITIAL_REWARDS_PER_HEAT",
      "outputs": [
        {
          "internalType": "uint256",
          "name": "",
          "type": "uint256"
        }
      ],
      "stateMutability": "view",
      "type": "function"
    },
    {
      "inputs": [],
      "name": "MAX_ENGAGE_CREATOR_REWARD_PERCENTAGE",
      "outputs": [
        {
          "internalType": "uint256",
          "name": "",
          "type": "uint256"
        }
      ],
      "stateMutability": "view",
      "type": "function"
    },
    {
      "inputs": [],
      "name": "MAX_ENGAGE_USER_REWARD_PERCENTAGE",
      "outputs": [
        {
          "internalType": "uint256",
          "name": "",
          "type": "uint256"
        }
      ],
      "stateMutability": "view",
      "type": "function"
    },
    {
      "inputs": [],
      "name": "MEMED_TEST_ETH",
      "outputs": [
        {
          "internalType": "address",
          "name": "",
          "type": "address"
        }
      ],
      "stateMutability": "view",
      "type": "function"
    },
    {
      "inputs": [],
      "name": "POOL_FEE",
      "outputs": [
        {
          "internalType": "uint24",
          "name": "",
          "type": "uint24"
        }
      ],
      "stateMutability": "view",
      "type": "function"
    },
    {
      "inputs": [],
      "name": "REWARD_PER_ENGAGEMENT",
      "outputs": [
        {
          "internalType": "uint256",
          "name": "",
          "type": "uint256"
        }
      ],
      "stateMutability": "view",
      "type": "function"
    },
    {
      "inputs": [
        {
          "internalType": "address",
          "name": "_winner",
          "type": "address"
        },
        {
          "internalType": "address",
          "name": "_loser",
          "type": "address"
        }
      ],
      "name": "battleUpdate",
      "outputs": [],
      "stateMutability": "nonpayable",
      "type": "function"
    },
    {
      "inputs": [
        {
          "internalType": "address",
          "name": "_token",
          "type": "address"
        },
        {
          "internalType": "address",
          "name": "_creator",
          "type": "address"
        }
      ],
      "name": "claimToken",
      "outputs": [],
      "stateMutability": "nonpayable",
      "type": "function"
    },
    {
      "inputs": [
        {
          "internalType": "address",
          "name": "_token",
          "type": "address"
        }
      ],
      "name": "collectFees",
      "outputs": [
        {
          "internalType": "uint256",
          "name": "amount0",
          "type": "uint256"
        },
        {
          "internalType": "uint256",
          "name": "amount1",
          "type": "uint256"
        }
      ],
      "stateMutability": "nonpayable",
      "type": "function"
    },
    {
      "inputs": [
        {
          "internalType": "uint256",
          "name": "_id",
          "type": "uint256"
        },
        {
          "internalType": "address",
          "name": "_token",
          "type": "address"
        },
        {
          "internalType": "address",
          "name": "_warriorNFT",
          "type": "address"
        }
      ],
      "name": "completeFairLaunch",
      "outputs": [],
      "stateMutability": "nonpayable",
      "type": "function"
    },
    {
      "inputs": [
        {
          "internalType": "address",
          "name": "_token",
          "type": "address"
        }
      ],
      "name": "getByToken",
      "outputs": [
        {
          "components": [
            {
              "internalType": "address",
              "name": "token",
              "type": "address"
            },
            {
              "internalType": "address",
              "name": "warriorNFT",
              "type": "address"
            },
            {
              "internalType": "address",
              "name": "creator",
              "type": "address"
            },
            {
              "internalType": "string",
              "name": "name",
              "type": "string"
            },
            {
              "internalType": "string",
              "name": "ticker",
              "type": "string"
            },
            {
              "internalType": "string",
              "name": "description",
              "type": "string"
            },
            {
              "internalType": "string",
              "name": "image",
              "type": "string"
            },
            {
              "internalType": "bool",
              "name": "isClaimedByCreator",
              "type": "bool"
            }
          ],
          "internalType": "struct TokenData",
          "name": "",
          "type": "tuple"
        }
      ],
      "stateMutability": "view",
      "type": "function"
    },
    {
      "inputs": [
        {
          "internalType": "uint256",
          "name": "_id",
          "type": "uint256"
        }
      ],
      "name": "getCreatorById",
      "outputs": [
        {
          "internalType": "address",
          "name": "",
          "type": "address"
        }
      ],
      "stateMutability": "view",
      "type": "function"
    },
    {
      "inputs": [
        {
          "internalType": "address",
          "name": "_token",
          "type": "address"
        }
      ],
      "name": "getHeat",
      "outputs": [
        {
          "internalType": "uint256",
          "name": "",
          "type": "uint256"
        }
      ],
      "stateMutability": "view",
      "type": "function"
    },
    {
      "inputs": [],
      "name": "getMemedBattle",
      "outputs": [
        {
          "internalType": "address",
          "name": "",
          "type": "address"
        }
      ],
      "stateMutability": "view",
      "type": "function"
    },
    {
      "inputs": [],
      "name": "getMemedEngageToEarn",
      "outputs": [
        {
          "internalType": "contract IMemedEngageToEarn",
          "name": "",
          "type": "address"
        }
      ],
      "stateMutability": "view",
      "type": "function"
    },
    {
      "inputs": [
        {
          "internalType": "address",
          "name": "_token",
          "type": "address"
        }
      ],
      "name": "getTokenByAddress",
      "outputs": [
        {
          "components": [
            {
              "internalType": "address",
              "name": "token",
              "type": "address"
            },
            {
              "internalType": "address",
              "name": "warriorNFT",
              "type": "address"
            },
            {
              "internalType": "address",
              "name": "creator",
              "type": "address"
            },
            {
              "internalType": "string",
              "name": "name",
              "type": "string"
            },
            {
              "internalType": "string",
              "name": "ticker",
              "type": "string"
            },
            {
              "internalType": "string",
              "name": "description",
              "type": "string"
            },
            {
              "internalType": "string",
              "name": "image",
              "type": "string"
            },
            {
              "internalType": "bool",
              "name": "isClaimedByCreator",
              "type": "bool"
            }
          ],
          "internalType": "struct TokenData",
          "name": "",
          "type": "tuple"
        }
      ],
      "stateMutability": "view",
      "type": "function"
    },
    {
      "inputs": [
        {
          "internalType": "uint256",
          "name": "_id",
          "type": "uint256"
        }
      ],
      "name": "getTokenById",
      "outputs": [
        {
          "components": [
            {
              "internalType": "address",
              "name": "token",
              "type": "address"
            },
            {
              "internalType": "address",
              "name": "warriorNFT",
              "type": "address"
            },
            {
              "internalType": "address",
              "name": "creator",
              "type": "address"
            },
            {
              "internalType": "string",
              "name": "name",
              "type": "string"
            },
            {
              "internalType": "string",
              "name": "ticker",
              "type": "string"
            },
            {
              "internalType": "string",
              "name": "description",
              "type": "string"
            },
            {
              "internalType": "string",
              "name": "image",
              "type": "string"
            },
            {
              "internalType": "bool",
              "name": "isClaimedByCreator",
              "type": "bool"
            }
          ],
          "internalType": "struct TokenData",
          "name": "",
          "type": "tuple"
        }
      ],
      "stateMutability": "view",
      "type": "function"
    },
    {
      "inputs": [],
      "name": "getTokens",
      "outputs": [
        {
          "components": [
            {
              "internalType": "address",
              "name": "token",
              "type": "address"
            },
            {
              "internalType": "address",
              "name": "warriorNFT",
              "type": "address"
            },
            {
              "internalType": "address",
              "name": "creator",
              "type": "address"
            },
            {
              "internalType": "string",
              "name": "name",
              "type": "string"
            },
            {
              "internalType": "string",
              "name": "ticker",
              "type": "string"
            },
            {
              "internalType": "string",
              "name": "description",
              "type": "string"
            },
            {
              "internalType": "string",
              "name": "image",
              "type": "string"
            },
            {
              "internalType": "bool",
              "name": "isClaimedByCreator",
              "type": "bool"
            }
          ],
          "internalType": "struct TokenData[]",
          "name": "",
          "type": "tuple[]"
        }
      ],
      "stateMutability": "view",
      "type": "function"
    },
    {
      "inputs": [
        {
          "internalType": "address",
          "name": "_token",
          "type": "address"
        }
      ],
      "name": "getWarriorNFT",
      "outputs": [
        {
          "internalType": "address",
          "name": "",
          "type": "address"
        }
      ],
      "stateMutability": "view",
      "type": "function"
    },
    {
      "inputs": [
        {
          "internalType": "address",
          "name": "",
          "type": "address"
        }
      ],
      "name": "lpTokenIds",
      "outputs": [
        {
          "internalType": "uint256",
          "name": "",
          "type": "uint256"
        }
      ],
      "stateMutability": "view",
      "type": "function"
    },
    {
      "inputs": [],
      "name": "memedBattle",
      "outputs": [
        {
          "internalType": "contract IMemedBattle",
          "name": "",
          "type": "address"
        }
      ],
      "stateMutability": "view",
      "type": "function"
    },
    {
      "inputs": [],
      "name": "memedEngageToEarn",
      "outputs": [
        {
          "internalType": "contract IMemedEngageToEarn",
          "name": "",
          "type": "address"
        }
      ],
      "stateMutability": "view",
      "type": "function"
    },
    {
      "inputs": [],
      "name": "memedTokenSale",
      "outputs": [
        {
          "internalType": "contract IMemedTokenSale",
          "name": "",
          "type": "address"
        }
      ],
      "stateMutability": "view",
      "type": "function"
    },
    {
      "inputs": [],
      "name": "owner",
      "outputs": [
        {
          "internalType": "address",
          "name": "",
          "type": "address"
        }
      ],
      "stateMutability": "view",
      "type": "function"
    },
    {
      "inputs": [],
      "name": "positionManager",
      "outputs": [
        {
          "internalType": "contract INonfungiblePositionManager",
          "name": "",
          "type": "address"
        }
      ],
      "stateMutability": "view",
      "type": "function"
    },
    {
      "inputs": [],
      "name": "renounceOwnership",
      "outputs": [],
      "stateMutability": "nonpayable",
      "type": "function"
    },
    {
      "inputs": [
        {
          "internalType": "address",
          "name": "_creator",
          "type": "address"
        },
        {
          "internalType": "string",
          "name": "_name",
          "type": "string"
        },
        {
          "internalType": "string",
          "name": "_ticker",
          "type": "string"
        },
        {
          "internalType": "string",
          "name": "_description",
          "type": "string"
        },
        {
          "internalType": "string",
          "name": "_image",
          "type": "string"
        }
      ],
      "name": "startFairLaunch",
      "outputs": [],
      "stateMutability": "nonpayable",
      "type": "function"
    },
    {
      "inputs": [
        {
          "internalType": "uint256",
          "name": "_amount",
          "type": "uint256"
        },
        {
          "internalType": "address[]",
          "name": "_path",
          "type": "address[]"
        },
        {
          "internalType": "address",
          "name": "_to",
          "type": "address"
        }
      ],
      "name": "swap",
      "outputs": [
        {
          "internalType": "uint256",
          "name": "",
          "type": "uint256"
        }
      ],
      "stateMutability": "nonpayable",
      "type": "function"
    },
    {
      "inputs": [],
      "name": "swapRouter",
      "outputs": [
        {
          "internalType": "contract ISwapRouter",
          "name": "",
          "type": "address"
        }
      ],
      "stateMutability": "view",
      "type": "function"
    },
    {
      "inputs": [
        {
          "internalType": "uint256",
          "name": "",
          "type": "uint256"
        }
      ],
      "name": "tokenData",
      "outputs": [
        {
          "internalType": "address",
          "name": "token",
          "type": "address"
        },
        {
          "internalType": "address",
          "name": "warriorNFT",
          "type": "address"
        },
        {
          "internalType": "address",
          "name": "creator",
          "type": "address"
        },
        {
          "internalType": "string",
          "name": "name",
          "type": "string"
        },
        {
          "internalType": "string",
          "name": "ticker",
          "type": "string"
        },
        {
          "internalType": "string",
          "name": "description",
          "type": "string"
        },
        {
          "internalType": "string",
          "name": "image",
          "type": "string"
        },
        {
          "internalType": "bool",
          "name": "isClaimedByCreator",
          "type": "bool"
        }
      ],
      "stateMutability": "view",
      "type": "function"
    },
    {
      "inputs": [
        {
          "internalType": "uint256",
          "name": "",
          "type": "uint256"
        }
      ],
      "name": "tokenRewardData",
      "outputs": [
        {
          "internalType": "uint256",
          "name": "lastRewardAt",
          "type": "uint256"
        },
        {
          "internalType": "uint256",
          "name": "creatorIncentivesUnlocksAt",
          "type": "uint256"
        },
        {
          "internalType": "uint256",
          "name": "creatorIncentivesUnlockedAt",
          "type": "uint256"
        },
        {
          "internalType": "uint256",
          "name": "lastEngagementBoost",
          "type": "uint256"
        },
        {
          "internalType": "uint256",
          "name": "heat",
          "type": "uint256"
        },
        {
          "internalType": "uint256",
          "name": "lastHeatUpdate",
          "type": "uint256"
        },
        {
          "internalType": "uint256",
          "name": "createdAt",
          "type": "uint256"
        }
      ],
      "stateMutability": "view",
      "type": "function"
    },
    {
      "inputs": [
        {
          "internalType": "uint256",
          "name": "",
          "type": "uint256"
        }
      ],
      "name": "tokens",
      "outputs": [
        {
          "internalType": "address",
          "name": "",
          "type": "address"
        }
      ],
      "stateMutability": "view",
      "type": "function"
    },
    {
      "inputs": [
        {
          "internalType": "address",
          "name": "newOwner",
          "type": "address"
        }
      ],
      "name": "transferOwnership",
      "outputs": [],
      "stateMutability": "nonpayable",
      "type": "function"
    },
    {
      "inputs": [],
      "name": "uniswapV3Factory",
      "outputs": [
        {
          "internalType": "contract IUniswapV3Factory",
          "name": "",
          "type": "address"
        }
      ],
      "stateMutability": "view",
      "type": "function"
    },
    {
      "inputs": [
        {
          "components": [
            {
              "internalType": "address",
              "name": "token",
              "type": "address"
            },
            {
              "internalType": "uint256",
              "name": "heat",
              "type": "uint256"
            }
          ],
          "internalType": "struct HeatUpdate[]",
          "name": "_heatUpdates",
          "type": "tuple[]"
        }
      ],
      "name": "updateHeat",
      "outputs": [],
      "stateMutability": "nonpayable",
      "type": "function"
    },
    {
      "stateMutability": "payable",
      "type": "receive"
    }
  ],
  "bytecode": "0x6080604052620186a0600255601460035534801561001b575f5ffd5b50604051613bc6380380613bc683398101604081905261003a916101b6565b338061005f57604051631e4fbdf760e01b81525f600482015260240160405180910390fd5b6100688161014c565b5060018055600480546001600160a01b038088166001600160a01b03199283161783556005805488831690841617905560068054878316908416179055600b80548683169084168117909155600d805492861692909316919091179091556040805163c45a015560e01b81529051919263c45a01559282820192602092908290030181865afa1580156100fd573d5f5f3e3d5ffd5b505050506040513d601f19601f820116820180604052508101906101219190610217565b600c80546001600160a01b0319166001600160a01b0392909216919091179055506102379350505050565b5f80546001600160a01b038381166001600160a01b0319831681178455604051919092169283917f8be0079c531659141344cd1fd0a4f28419497f9722a3daafe3b4186f6b6457e09190a35050565b80516001600160a01b03811681146101b1575f5ffd5b919050565b5f5f5f5f5f60a086880312156101ca575f5ffd5b6101d38661019b565b94506101e16020870161019b565b93506101ef6040870161019b565b92506101fd6060870161019b565b915061020b6080870161019b565b90509295509295909350565b5f60208284031215610227575f5ffd5b6102308261019b565b9392505050565b613982806102445f395ff3fe608060405260043610610215575f3560e01c80638da5cb5b1161011e578063c31c9c07116100a8578063dd1b9c4a1161006d578063dd1b9c4a146106c3578063dd743bc8146106ec578063e5659f071461070b578063f2fde38b14610720578063f797113f1461073f575f5ffd5b8063c31c9c071461062a578063c923563414610649578063ca31879d14610668578063d1f6d04a14610687578063dc6930a3146106a4575f5ffd5b8063a40103d4116100ee578063a40103d414610564578063a480ca7914610583578063aa6ca808146105b7578063abf599fc146105d8578063b4b5b48f146105f7575f5ffd5b80638da5cb5b1461047f57806391ded8fa1461049b57806392ac2582146104ba578063a11d8ac714610545575f5ffd5b80635153563b1161019f578063715018a61161016f578063715018a6146103ef578063741c6ae81461040357806377e989f314610417578063791b98bc146104345780637bdc60d914610453575f5ffd5b80635153563b146103655780635b549182146103845780635d3575a6146103a35780635de7c44a146103da575f5ffd5b806327e2fee4116101e557806327e2fee4146102b35780632badbfc0146102ea578063306d350814610311578063320dc01b146103305780634f64b2be14610346575f5ffd5b80630280a16f1461022057806311eefb29146102485780631d08ac9d14610269578063263a610014610294575f5ffd5b3661021c57005b5f5ffd5b34801561022b575f5ffd5b5061023561c35081565b6040519081526020015b60405180910390f35b348015610253575f5ffd5b50610267610262366004612f45565b610753565b005b348015610274575f5ffd5b50610235610283366004612fc8565b60096020525f908152604090205481565b34801561029f575f5ffd5b506102676102ae366004613027565b61090a565b3480156102be575f5ffd5b506102d26102cd366004612fc8565b610b6e565b6040516001600160a01b03909116815260200161023f565b3480156102f5575f5ffd5b506102d273c190e6f26ce14e40d30251fde25927a73a5d58b681565b34801561031c575f5ffd5b5061023561032b366004612fc8565b610c05565b34801561033b575f5ffd5b50610235620186a081565b348015610351575f5ffd5b506102d2610360366004613105565b610c92565b348015610370575f5ffd5b506005546102d2906001600160a01b031681565b34801561038f575f5ffd5b50600c546102d2906001600160a01b031681565b3480156103ae575f5ffd5b506102d26103bd366004613105565b5f908152600760205260409020600201546001600160a01b031690565b3480156103e5575f5ffd5b5061023560025481565b3480156103fa575f5ffd5b50610267610cba565b34801561040e575f5ffd5b50610235600281565b348015610422575f5ffd5b506006546001600160a01b03166102d2565b34801561043f575f5ffd5b50600b546102d2906001600160a01b031681565b34801561045e575f5ffd5b5061047261046d366004613105565b610ccd565b60405161023f9190613214565b34801561048a575f5ffd5b505f546001600160a01b03166102d2565b3480156104a6575f5ffd5b506104726104b5366004612fc8565b610f7a565b3480156104c5575f5ffd5b506105106104d4366004613105565b60086020525f90815260409020805460018201546002830154600384015460048501546005860154600690960154949593949293919290919087565b604080519788526020880196909652948601939093526060850191909152608084015260a083015260c082015260e00161023f565b348015610550575f5ffd5b506006546102d2906001600160a01b031681565b34801561056f575f5ffd5b5061023561057e366004613226565b6112e8565b34801561058e575f5ffd5b506105a261059d366004612fc8565b611689565b6040805192835260208301919091520161023f565b3480156105c2575f5ffd5b506105cb6117e2565b60405161023f91906132b1565b3480156105e3575f5ffd5b506102676105f2366004613314565b6118a3565b348015610602575f5ffd5b50610616610611366004613105565b611b86565b60405161023f989796959493929190613353565b348015610635575f5ffd5b50600d546102d2906001600160a01b031681565b348015610654575f5ffd5b506102676106633660046133d9565b611df1565b348015610673575f5ffd5b506102676106823660046133d9565b61209a565b348015610692575f5ffd5b506005546001600160a01b03166102d2565b3480156106af575f5ffd5b506004546102d2906001600160a01b031681565b3480156106ce575f5ffd5b506106d8610bb881565b60405162ffffff909116815260200161023f565b3480156106f7575f5ffd5b50610472610706366004612fc8565b6123ab565b348015610716575f5ffd5b5061023560035481565b34801561072b575f5ffd5b5061026761073a366004612fc8565b612481565b34801561074a575f5ffd5b50610235600181565b6005546001600160a01b03163314806107f0575060055f9054906101000a90046001600160a01b03166001600160a01b031663a9dc491d6040518163ffffffff1660e01b8152600401602060405180830381865afa1580156107b7573d5f5f3e3d5ffd5b505050506040513d601f19601f820116820180604052508101906107db9190613410565b6001600160a01b0316336001600160a01b0316145b8061080457505f546001600160a01b031633145b6108445760405162461bcd60e51b815260206004820152600c60248201526b1d5b985d5d1a1bdc9a5e995960a21b60448201526064015b60405180910390fd5b5f816001600160401b0381111561085d5761085d61342b565b6040519080825280602002602001820160405280156108a157816020015b604080518082019091525f808252602082015281526020019060019003908161087b5790505b5090505f5b828110156108fb578383828181106108c0576108c061343f565b9050604002018036038101906108d69190613453565b8282815181106108e8576108e861343f565b60209081029190910101526001016108a6565b50610905816124be565b505050565b6109126129a3565b6001600160a01b038916156109ed576004805460405163222b15fb60e01b81526001600160a01b038c81169382019390935291169063222b15fb90602401602060405180830381865afa15801561096b573d5f5f3e3d5ffd5b505050506040513d601f19601f8201168201806040525081019061098f91906134aa565b6109ed5760405162461bcd60e51b815260206004820152602960248201527f43726561746f7220697320626c6f636b6564206f7220616c7265616479206861604482015268399030903a37b5b2b760b91b606482015260840161083b565b6004805460405163e0eeb3d360e01b81526001600160a01b038c8116938201939093525f929091169063e0eeb3d3906024016020604051808303815f875af1158015610a3b573d5f5f3e3d5ffd5b505050506040513d601f19601f82011682018060405250810190610a5f91906134c9565b5f8181526007602052604090206002810180546001600160a01b0319166001600160a01b038e1617905590915060038101610a9b8a8c8361355d565b5060048101610aab888a8361355d565b5060058101610abb86888361355d565b5060068101610acb84868361355d565b5060078101805460ff19166001600160a01b038d81161515919091178255600280545f86815260086020526040908190209190915590840154845493549151908316939092169185917f61de3782e61b0bc571fd85abd9a902e9a0df5e58991896aa5fc45f8cd31fcf3e91610b59916003880191600489019160058a019160068b019160ff16904290613695565b60405180910390a45050505050505050505050565b6004805460405163e8378fbf60e01b81526001600160a01b03848116938201939093525f92600792849291169063e8378fbf90602401602060405180830381865afa158015610bbf573d5f5f3e3d5ffd5b505050506040513d601f19601f82011682018060405250810190610be391906134c9565b815260208101919091526040015f20600101546001600160a01b031692915050565b6004805460405163e8378fbf60e01b81526001600160a01b03848116938201939093525f92600892849291169063e8378fbf90602401602060405180830381865afa158015610c56573d5f5f3e3d5ffd5b505050506040513d601f19601f82011682018060405250810190610c7a91906134c9565b81526020019081526020015f20600401549050919050565b600a8181548110610ca1575f80fd5b5f918252602090912001546001600160a01b0316905081565b610cc26129a3565b610ccb5f6129cf565b565b610cd5612f03565b5f8281526007602090815260409182902082516101008101845281546001600160a01b0390811682526001830154811693820193909352600282015490921692820192909252600382018054919291606084019190610d33906134e0565b80601f0160208091040260200160405190810160405280929190818152602001828054610d5f906134e0565b8015610daa5780601f10610d8157610100808354040283529160200191610daa565b820191905f5260205f20905b815481529060010190602001808311610d8d57829003601f168201915b50505050508152602001600482018054610dc3906134e0565b80601f0160208091040260200160405190810160405280929190818152602001828054610def906134e0565b8015610e3a5780601f10610e1157610100808354040283529160200191610e3a565b820191905f5260205f20905b815481529060010190602001808311610e1d57829003601f168201915b50505050508152602001600582018054610e53906134e0565b80601f0160208091040260200160405190810160405280929190818152602001828054610e7f906134e0565b8015610eca5780601f10610ea157610100808354040283529160200191610eca565b820191905f5260205f20905b815481529060010190602001808311610ead57829003601f168201915b50505050508152602001600682018054610ee3906134e0565b80601f0160208091040260200160405190810160405280929190818152602001828054610f0f906134e0565b8015610f5a5780601f10610f3157610100808354040283529160200191610f5a565b820191905f5260205f20905b815481529060010190602001808311610f3d57829003601f168201915b50505091835250506007919091015460ff16151560209091015292915050565b610f82612f03565b6004805460405163e8378fbf60e01b81526001600160a01b03858116938201939093525f92600792849291169063e8378fbf90602401602060405180830381865afa158015610fd3573d5f5f3e3d5ffd5b505050506040513d601f19601f82011682018060405250810190610ff791906134c9565b815260208082019290925260409081015f2081516101008101835281546001600160a01b0390811682526001830154811694820194909452600282015490931691830191909152600381018054606084019190611053906134e0565b80601f016020809104026020016040519081016040528092919081815260200182805461107f906134e0565b80156110ca5780601f106110a1576101008083540402835291602001916110ca565b820191905f5260205f20905b8154815290600101906020018083116110ad57829003601f168201915b505050505081526020016004820180546110e3906134e0565b80601f016020809104026020016040519081016040528092919081815260200182805461110f906134e0565b801561115a5780601f106111315761010080835404028352916020019161115a565b820191905f5260205f20905b81548152906001019060200180831161113d57829003601f168201915b50505050508152602001600582018054611173906134e0565b80601f016020809104026020016040519081016040528092919081815260200182805461119f906134e0565b80156111ea5780601f106111c1576101008083540402835291602001916111ea565b820191905f5260205f20905b8154815290600101906020018083116111cd57829003601f168201915b50505050508152602001600682018054611203906134e0565b80601f016020809104026020016040519081016040528092919081815260200182805461122f906134e0565b801561127a5780601f106112515761010080835404028352916020019161127a565b820191905f5260205f20905b81548152906001019060200180831161125d57829003601f168201915b50505091835250506007919091015460ff16151560209091015280519091506001600160a01b03166112e25760405162461bcd60e51b8152602060048201526011602482015270151bdad95b881b9bdd0818dc99585d1959607a1b604482015260640161083b565b92915050565b5f6112f1612a1e565b60028310156113315760405162461bcd60e51b815260206004820152600c60248201526b092dcecc2d8d2c840e0c2e8d60a31b604482015260640161083b565b5f84845f8181106113445761134461343f565b90506020020160208101906113599190612fc8565b90505f858561136960018261370b565b8181106113785761137861343f565b905060200201602081019061138d9190612fc8565b600c54604051630b4c774160e11b81529192505f916001600160a01b0390911690631698ee82906113dc90869073c190e6f26ce14e40d30251fde25927a73a5d58b690610bb89060040161371e565b602060405180830381865afa1580156113f7573d5f5f3e3d5ffd5b505050506040513d601f19601f8201168201806040525081019061141b9190613410565b600c54604051630b4c774160e11b81529192505f916001600160a01b0390911690631698ee829061146a9073c190e6f26ce14e40d30251fde25927a73a5d58b6908790610bb89060040161371e565b602060405180830381865afa158015611485573d5f5f3e3d5ffd5b505050506040513d601f19601f820116820180604052508101906114a99190613410565b90506001600160a01b038216158015906114cb57506001600160a01b03811615155b6115065760405162461bcd60e51b815260206004820152600c60248201526b1b5a5cdcda5b99c81c1bdbdb60a21b604482015260640161083b565b600d5460405163095ea7b360e01b81526001600160a01b039182166004820152602481018b90529085169063095ea7b3906044016020604051808303815f875af1158015611556573d5f5f3e3d5ffd5b505050506040513d601f19601f8201168201806040525081019061157a91906134aa565b506040516bffffffffffffffffffffffff19606086811b8216602084015261017760eb1b603484018190527360c873793670a720698128fef12c93d39d2eac5b60611b6037850152604b84015285901b16604e8201525f9060620160408051601f19818403018152600d546080840183528184526001600160a01b038b811660208601528484018f90525f6060860152925163b858183f60e01b8152919450919091169163b858183f916116319190600401613746565b6020604051808303815f875af115801561164d573d5f5f3e3d5ffd5b505050506040513d601f19601f8201168201806040525081019061167191906134c9565b9550505050505061168160018055565b949350505050565b5f5f6116936129a3565b6001600160a01b0383165f90815260096020526040812054908190036116fb5760405162461bcd60e51b815260206004820152601d60248201527f4e6f204c5020706f736974696f6e20666f72207468697320746f6b656e000000604482015260640161083b565b600b5460408051608081019091528281526001600160a01b039091169063fc6f786590602081016117335f546001600160a01b031690565b6001600160a01b0390811682526001600160801b0360208084018290526040938401829052835160e087901b6001600160e01b031916815285516004820152908501519092166024830152918301518216604482015260609092015116606482015260840160408051808303815f875af11580156117b3573d5f5f3e3d5ffd5b505050506040513d601f19601f820116820180604052508101906117d79190613793565b909590945092505050565b600a546060905f906001600160401b038111156118015761180161342b565b60405190808252806020026020018201604052801561183a57816020015b611827612f03565b81526020019060019003908161181f5790505b5090505f5b600a5481101561189d57611878600a828154811061185f5761185f61343f565b5f918252602090912001546001600160a01b0316610f7a565b82828151811061188a5761188a61343f565b602090810291909101015260010161183f565b50919050565b6118ab6129a3565b5f8381526007602052604080822060048054925163bcd658ad60e01b815290810187905290929182916001600160a01b039091169063bcd658ad906024016040805180830381865afa158015611903573d5f5f3e3d5ffd5b505050506040513d601f19601f8201168201806040525081019061192791906137b5565b90925090506002826004811115611940576119406137e4565b146119975760405162461bcd60e51b815260206004820152602160248201527f46616972206c61756e6368206e6f7420726561647920746f20636f6d706c65746044820152606560f81b606482015260840161083b565b82546001600160a01b038087166001600160a01b0319928316811786556001808701805493891693851684179055600a805491820181555f9081527fc65a7bb8d6351c1cf70c95a316cc6a92839c986682d98bc35f958f4883f9d2a8909101805490941682179093556040519192909189917fdbd3908ed1551f131cac0b0e54b86f03495799941eeb3290140b962f787409d491a45f611a3686612a48565b9050611aa286876001600160a01b031663ebda16eb6040518163ffffffff1660e01b8152600401602060405180830381865afa158015611a78573d5f5f3e3d5ffd5b505050506040513d601f19601f82011682018060405250810190611a9c91906134c9565b84612bc9565b60048054604051632afd667f60e21b81529182018990526001600160a01b0388811660248401528381166044840152169063abf599fc906064015f604051808303815f87803b158015611af3575f5ffd5b505af1158015611b05573d5f5f3e3d5ffd5b50505050600784015460ff1615611b7d57600654600285015460405163038918e360e61b81526001600160a01b038981166004830152918216602482015291169063e24638c0906044015f604051808303815f87803b158015611b66575f5ffd5b505af1158015611b78573d5f5f3e3d5ffd5b505050505b50505050505050565b60076020525f908152604090208054600182015460028301546003840180546001600160a01b0394851695938516949092169291611bc3906134e0565b80601f0160208091040260200160405190810160405280929190818152602001828054611bef906134e0565b8015611c3a5780601f10611c1157610100808354040283529160200191611c3a565b820191905f5260205f20905b815481529060010190602001808311611c1d57829003601f168201915b505050505090806004018054611c4f906134e0565b80601f0160208091040260200160405190810160405280929190818152602001828054611c7b906134e0565b8015611cc65780601f10611c9d57610100808354040283529160200191611cc6565b820191905f5260205f20905b815481529060010190602001808311611ca957829003601f168201915b505050505090806005018054611cdb906134e0565b80601f0160208091040260200160405190810160405280929190818152602001828054611d07906134e0565b8015611d525780601f10611d2957610100808354040283529160200191611d52565b820191905f5260205f20905b815481529060010190602001808311611d3557829003601f168201915b505050505090806006018054611d67906134e0565b80601f0160208091040260200160405190810160405280929190818152602001828054611d93906134e0565b8015611dde5780601f10611db557610100808354040283529160200191611dde565b820191905f5260205f20905b815481529060010190602001808311611dc157829003601f168201915b5050506007909301549192505060ff1688565b6005546001600160a01b0316331480611e8e575060055f9054906101000a90046001600160a01b03166001600160a01b031663a9dc491d6040518163ffffffff1660e01b8152600401602060405180830381865afa158015611e55573d5f5f3e3d5ffd5b505050506040513d601f19601f82011682018060405250810190611e799190613410565b6001600160a01b0316336001600160a01b0316145b611ec95760405162461bcd60e51b815260206004820152600c60248201526b1d5b985d5d1a1bdc9a5e995960a21b604482015260640161083b565b6004805460405163e8378fbf60e01b81526001600160a01b03858116938201939093525f92600892849291169063e8378fbf90602401602060405180830381865afa158015611f1a573d5f5f3e3d5ffd5b505050506040513d601f19601f82011682018060405250810190611f3e91906134c9565b8152602081019190915260409081015f90812060048054935163e8378fbf60e01b81526001600160a01b03878116928201929092529194509192600892849291169063e8378fbf90602401602060405180830381865afa158015611fa4573d5f5f3e3d5ffd5b505050506040513d601f19601f82011682018060405250810190611fc891906134c9565b81526020019081526020015f20905060646003548360010154611feb91906137f8565b611ff5919061380f565b8260010154612004919061370b565b82600101819055506064600354826001015461202091906137f8565b61202a919061380f565b8160010154612039919061382e565b60018083018290558301546040516001600160a01b0380871693908816927faecea04ec10c6c0b9d91c8e45440289d97d5737d78401b23bc3ca82031eae9329261208c9290918252602082015260400190565b60405180910390a350505050565b6120a2612a1e565b6120aa6129a3565b6004805460405163e8378fbf60e01b81526001600160a01b03858116938201939093525f92600792849291169063e8378fbf90602401602060405180830381865afa1580156120fb573d5f5f3e3d5ffd5b505050506040513d601f19601f8201168201806040525081019061211f91906134c9565b815260208101919091526040015f2060028101549091506001600160a01b038381169116146121835760405162461bcd60e51b815260206004820152601060248201526f086e4cac2e8dee440dad2e6dac2e8c6d60831b604482015260640161083b565b600781015460ff16156121d85760405162461bcd60e51b815260206004820152601a60248201527f416c726561647920636c61696d65642062792063726561746f72000000000000604482015260640161083b565b6004805460405163222b15fb60e01b81526001600160a01b038581169382019390935291169063222b15fb90602401602060405180830381865afa158015612222573d5f5f3e3d5ffd5b505050506040513d601f19601f8201168201806040525081019061224691906134aa565b156122935760405162461bcd60e51b815260206004820152601b60248201527f43726561746f7220616c726561647920686173206120746f6b656e0000000000604482015260640161083b565b60078101805460ff191660011790556004805460405163e8378fbf60e01b81526001600160a01b03868116938201939093525f92600892849291169063e8378fbf90602401602060405180830381865afa1580156122f3573d5f5f3e3d5ffd5b505050506040513d601f19601f8201168201806040525081019061231791906134c9565b8152602081019190915260409081015f20600480820154825560065485546002870154945163038918e360e61b81526001600160a01b0391821693810193909352938416602483015291935091169063e24638c0906044015f604051808303815f87803b158015612386575f5ffd5b505af1158015612398573d5f5f3e3d5ffd5b5050505050506123a760018055565b5050565b6123b3612f03565b6004805460405163e8378fbf60e01b81526001600160a01b03858116938201939093526007925f92169063e8378fbf90602401602060405180830381865afa158015612401573d5f5f3e3d5ffd5b505050506040513d601f19601f8201168201806040525081019061242591906134c9565b815260208082019290925260409081015f2081516101008101835281546001600160a01b0390811682526001830154811694820194909452600282015490931691830191909152600381018054606084019190610d33906134e0565b6124896129a3565b6001600160a01b0381166124b257604051631e4fbdf760e01b81525f600482015260240161083b565b6124bb816129cf565b50565b5f5b81518110156123a75760045482515f9160079183916001600160a01b03169063e8378fbf908790879081106124f7576124f761343f565b6020908102919091010151516040516001600160e01b031960e084901b1681526001600160a01b039091166004820152602401602060405180830381865afa158015612545573d5f5f3e3d5ffd5b505050506040513d601f19601f8201168201806040525081019061256991906134c9565b815260208101919091526040015f2080549091506001600160a01b03166125c65760405162461bcd60e51b8152602060048201526011602482015270151bdad95b881b9bdd0818dc99585d1959607a1b604482015260640161083b565b60045483515f9160089183916001600160a01b03169063e8378fbf908890889081106125f4576125f461343f565b6020908102919091010151516040516001600160e01b031960e084901b1681526001600160a01b039091166004820152602401602060405180830381865afa158015612642573d5f5f3e3d5ffd5b505050506040513d601f19601f8201168201806040525081019061266691906134c9565b81526020019081526020015f209050806005015462015180612688919061382e565b4210156126d75760405162461bcd60e51b815260206004820152601860248201527f486561742075706461746520746f6f206672657175656e740000000000000000604482015260640161083b565b5f816004015490505f8585815181106126f2576126f261343f565b6020908102919091018101510151600484018190554260058501556002548454919250148015612720575081155b15612729575f83555b8254600484015461c3509161273d9161370b565b101580156127b35750600654845460405163f251f45f60e01b81526001600160a01b03918216600482015291169063f251f45f90602401602060405180830381865afa15801561278f573d5f5f3e3d5ffd5b505050506040513d601f19601f820116820180604052508101906127b391906134aa565b1561281b576006548454604051633248f2b360e11b81526001600160a01b039182166004820152911690636491e566906024015f604051808303815f87803b1580156127fd575f5ffd5b505af115801561280f573d5f5f3e3d5ffd5b50505060048401548455505b600784015460ff1680156128465750826001015483600201548460040154612843919061370b565b10155b80156128ba57506006548454604051634ed599fb60e11b81526001600160a01b039182166004820152911690639dab33f690602401602060405180830381865afa158015612896573d5f5f3e3d5ffd5b505050506040513d601f19601f820116820180604052508101906128ba91906134aa565b15612927576004838101546002850155600654855460405163641d27ab60e01b81526001600160a01b0391821693810193909352169063641d27ab906024015f604051808303815f87803b158015612910575f5ffd5b505af1158015612922573d5f5f3e3d5ffd5b505050505b8585815181106129395761293961343f565b60200260200101515f01516001600160a01b03167f17f0fa8193ad599e6d9e20fb742ac1d5fd0b1bf4246f0aa664a4c293863ffac084600401544260405161298b929190918252602082015260400190565b60405180910390a25050600190920191506124c09050565b5f546001600160a01b03163314610ccb5760405163118cdaa760e01b815233600482015260240161083b565b5f80546001600160a01b038381166001600160a01b0319831681178455604051919092169283917f8be0079c531659141344cd1fd0a4f28419497f9722a3daafe3b4186f6b6457e09190a35050565b600260015403612a4157604051633ee5aeb560e01b815260040160405180910390fd5b6002600155565b5f808073c190e6f26ce14e40d30251fde25927a73a5d58b66001600160a01b03851610612a8a5773c190e6f26ce14e40d30251fde25927a73a5d58b684612aa1565b8373c190e6f26ce14e40d30251fde25927a73a5d58b65b90925090506a52b7d2dcc80cd2e40000006802258f7630b17800005f806001600160a01b0380891690871603612adb575082905081612ae1565b50819050825b5f612aec8284612e43565b600c5460405163a167129560e01b81529192506001600160a01b03169063a167129590612b23908a908a90610bb89060040161371e565b6020604051808303815f875af1158015612b3f573d5f5f3e3d5ffd5b505050506040513d601f19601f82011682018060405250810190612b639190613410565b60405163f637731d60e01b81526001600160a01b0383811660048301529199509089169063f637731d906024015f604051808303815f87803b158015612ba7575f5ffd5b505af1158015612bb9573d5f5f3e3d5ffd5b5050505050505050505050919050565b5f8073c190e6f26ce14e40d30251fde25927a73a5d58b66001600160a01b03861610612c0a5773c190e6f26ce14e40d30251fde25927a73a5d58b685612c21565b8473c190e6f26ce14e40d30251fde25927a73a5d58b65b915091505f5f866001600160a01b0316846001600160a01b031603612c4a575084905083612c50565b50839050845b600b5460405163095ea7b360e01b81526001600160a01b039182166004820152602481018490529085169063095ea7b3906044016020604051808303815f875af1158015612ca0573d5f5f3e3d5ffd5b505050506040513d601f19601f82011682018060405250810190612cc491906134aa565b50600b5460405163095ea7b360e01b81526001600160a01b039182166004820152602481018390529084169063095ea7b3906044016020604051808303815f875af1158015612d15573d5f5f3e3d5ffd5b505050506040513d601f19601f82011682018060405250810190612d3991906134aa565b50600b5460408051610160810182526001600160a01b0387811682528681166020830152610bb892820192909252620d89b3196060820152620d89b4608082015260a0810185905260c081018490525f60e082018190526101008201819052306101208301529291909116906388316456906101408101612dbc4261012c61382e565b8152506040518263ffffffff1660e01b8152600401612ddb9190613841565b6080604051808303815f875af1158015612df7573d5f5f3e3d5ffd5b505050506040513d601f19601f82011682018060405250810190612e1b9190613905565b5050506001600160a01b039098165f9081526009602052604090209790975550505050505050565b5f5f82118015612e5257505f83115b612e8a5760405162461bcd60e51b815260206004820152600960248201526862616420726174696f60b81b604482015260640161083b565b5f612e998360c086901b61380f565b9050611681815f815f03612eae57505f919050565b5f6002612ebc84600161382e565b612ec6919061380f565b9050825b80821015612efc575080600281612ee1818761380f565b612eeb919061382e565b612ef5919061380f565b9150612eca565b9392505050565b60408051610100810182525f8082526020820181905291810182905260608082018190526080820181905260a0820181905260c082015260e081019190915290565b5f5f60208385031215612f56575f5ffd5b82356001600160401b03811115612f6b575f5ffd5b8301601f81018513612f7b575f5ffd5b80356001600160401b03811115612f90575f5ffd5b8560208260061b8401011115612fa4575f5ffd5b6020919091019590945092505050565b6001600160a01b03811681146124bb575f5ffd5b5f60208284031215612fd8575f5ffd5b8135612efc81612fb4565b5f5f83601f840112612ff3575f5ffd5b5081356001600160401b03811115613009575f5ffd5b602083019150836020828501011115613020575f5ffd5b9250929050565b5f5f5f5f5f5f5f5f5f60a08a8c03121561303f575f5ffd5b893561304a81612fb4565b985060208a01356001600160401b03811115613064575f5ffd5b6130708c828d01612fe3565b90995097505060408a01356001600160401b0381111561308e575f5ffd5b61309a8c828d01612fe3565b90975095505060608a01356001600160401b038111156130b8575f5ffd5b6130c48c828d01612fe3565b90955093505060808a01356001600160401b038111156130e2575f5ffd5b6130ee8c828d01612fe3565b915080935050809150509295985092959850929598565b5f60208284031215613115575f5ffd5b5035919050565b5f81518084528060208401602086015e5f602082860101526020601f19601f83011685010191505092915050565b80516001600160a01b031682525f602082015161317260208501826001600160a01b03169052565b50604082015161318d60408501826001600160a01b03169052565b50606082015161010060608501526131a961010085018261311c565b9050608083015184820360808601526131c2828261311c565b91505060a083015184820360a08601526131dc828261311c565b91505060c083015184820360c08601526131f6828261311c565b91505060e083015161320c60e086018215159052565b509392505050565b602081525f612efc602083018461314a565b5f5f5f5f60608587031215613239575f5ffd5b8435935060208501356001600160401b03811115613255575f5ffd5b8501601f81018713613265575f5ffd5b80356001600160401b0381111561327a575f5ffd5b8760208260051b840101111561328e575f5ffd5b6020919091019350915060408501356132a681612fb4565b939692955090935050565b5f602082016020835280845180835260408501915060408160051b8601019250602086015f5b8281101561330857603f198786030184526132f385835161314a565b945060209384019391909101906001016132d7565b50929695505050505050565b5f5f5f60608486031215613326575f5ffd5b83359250602084013561333881612fb4565b9150604084013561334881612fb4565b809150509250925092565b6001600160a01b038981168252888116602083015287166040820152610100606082018190525f906133879083018861311c565b8281036080840152613399818861311c565b905082810360a08401526133ad818761311c565b905082810360c08401526133c1818661311c565b91505082151560e08301529998505050505050505050565b5f5f604083850312156133ea575f5ffd5b82356133f581612fb4565b9150602083013561340581612fb4565b809150509250929050565b5f60208284031215613420575f5ffd5b8151612efc81612fb4565b634e487b7160e01b5f52604160045260245ffd5b634e487b7160e01b5f52603260045260245ffd5b5f6040828403128015613464575f5ffd5b50604080519081016001600160401b03811182821017156134875761348761342b565b604052823561349581612fb4565b81526020928301359281019290925250919050565b5f602082840312156134ba575f5ffd5b81518015158114612efc575f5ffd5b5f602082840312156134d9575f5ffd5b5051919050565b600181811c908216806134f457607f821691505b60208210810361189d57634e487b7160e01b5f52602260045260245ffd5b601f82111561090557805f5260205f20601f840160051c810160208510156135375750805b601f840160051c820191505b81811015613556575f8155600101613543565b5050505050565b6001600160401b038311156135745761357461342b565b6135888361358283546134e0565b83613512565b5f601f8411600181146135b9575f85156135a25750838201355b5f19600387901b1c1916600186901b178355613556565b5f83815260208120601f198716915b828110156135e857868501358255602094850194600190920191016135c8565b5086821015613604575f1960f88860031b161c19848701351681555b505060018560011b0183555050505050565b5f8154613622816134e0565b80855260018216801561363c57600181146136585761368c565b60ff1983166020870152602082151560051b870101935061368c565b845f5260205f205f5b838110156136835781546020828a010152600182019150602081019050613661565b87016020019450505b50505092915050565b60c081525f6136a760c0830189613616565b82810360208401526136b98189613616565b905082810360408401526136cd8188613616565b905082810360608401526136e18187613616565b9415156080840152505060a00152949350505050565b634e487b7160e01b5f52601160045260245ffd5b818103818111156112e2576112e26136f7565b6001600160a01b03938416815291909216602082015262ffffff909116604082015260600190565b602081525f82516080602084015261376160a084018261311c565b905060018060a01b03602085015116604084015260408401516060840152606084015160808401528091505092915050565b5f5f604083850312156137a4575f5ffd5b505080516020909101519092909150565b5f5f604083850312156137c6575f5ffd5b8251600581106137d4575f5ffd5b6020939093015192949293505050565b634e487b7160e01b5f52602160045260245ffd5b80820281158282048414176112e2576112e26136f7565b5f8261382957634e487b7160e01b5f52601260045260245ffd5b500490565b808201808211156112e2576112e26136f7565b81516001600160a01b031681526101608101602083015161386d60208401826001600160a01b03169052565b506040830151613884604084018262ffffff169052565b506060830151613899606084018260020b9052565b5060808301516138ae608084018260020b9052565b5060a083015160a083015260c083015160c083015260e083015160e08301526101008301516101008301526101208301516138f56101208401826001600160a01b03169052565b5061014092830151919092015290565b5f5f5f5f60808587031215613918575f5ffd5b845160208601519094506001600160801b0381168114613936575f5ffd5b604086015160609096015194979096509250505056fea2646970667358221220390a6c0eb62f4bc22a00f2f2abf6fe7c485fd54e43ba85acdedf16eb16bdc04664736f6c634300081c0033",
  "linkReferences": {},
  "deployedLinkReferences": {},
  "immutableReferences": {},
  "inputSourceName": "project/contracts/MemedFactory_test.sol",
  "buildInfoId": "solc-0_8_28-a140a589261e9fcc41f3b15f41e6372e3f5527c7"
}