{
  "_format": "hh3-artifact-1",
  "contractName": "MemedTokenSale_test",
  "sourceName": "contracts/MemedTokenSale_test.sol",
  "abi": [
    {
      "inputs": [],
      "stateMutability": "nonpayable",
      "type": "constructor"
    },
    {
      "inputs": [
        {
          "internalType": "address",
          "name": "owner",
          "type": "address"
        }
      ],
      "name": "OwnableInvalidOwner",
      "type": "error"
    },
    {
      "inputs": [
        {
          "internalType": "address",
          "name": "account",
          "type": "address"
        }
      ],
      "name": "OwnableUnauthorizedAccount",
      "type": "error"
    },
    {
      "inputs": [],
      "name": "ReentrancyGuardReentrantCall",
      "type": "error"
    },
    {
      "anonymous": false,
      "inputs": [
        {
          "indexed": true,
          "internalType": "uint256",
          "name": "id",
          "type": "uint256"
        },
        {
          "indexed": true,
          "internalType": "address",
          "name": "user",
          "type": "address"
        },
        {
          "indexed": false,
          "internalType": "uint256",
          "name": "amount",
          "type": "uint256"
        },
        {
          "indexed": false,
          "internalType": "uint256",
          "name": "tokens",
          "type": "uint256"
        }
      ],
      "name": "CommitmentCancelled",
      "type": "event"
    },
    {
      "anonymous": false,
      "inputs": [
        {
          "indexed": true,
          "internalType": "uint256",
          "name": "id",
          "type": "uint256"
        },
        {
          "indexed": true,
          "internalType": "address",
          "name": "user",
          "type": "address"
        },
        {
          "indexed": false,
          "internalType": "uint256",
          "name": "amount",
          "type": "uint256"
        },
        {
          "indexed": false,
          "internalType": "uint256",
          "name": "tokens",
          "type": "uint256"
        }
      ],
      "name": "CommitmentMade",
      "type": "event"
    },
    {
      "anonymous": false,
      "inputs": [
        {
          "indexed": true,
          "internalType": "uint256",
          "name": "id",
          "type": "uint256"
        },
        {
          "indexed": true,
          "internalType": "address",
          "name": "token",
          "type": "address"
        },
        {
          "indexed": true,
          "internalType": "address",
          "name": "pair",
          "type": "address"
        },
        {
          "indexed": false,
          "internalType": "uint256",
          "name": "totalRaised",
          "type": "uint256"
        }
      ],
      "name": "FairLaunchCompleted",
      "type": "event"
    },
    {
      "anonymous": false,
      "inputs": [
        {
          "indexed": true,
          "internalType": "uint256",
          "name": "id",
          "type": "uint256"
        },
        {
          "indexed": false,
          "internalType": "uint256",
          "name": "totalRaised",
          "type": "uint256"
        }
      ],
      "name": "FairLaunchFailed",
      "type": "event"
    },
    {
      "anonymous": false,
      "inputs": [
        {
          "indexed": true,
          "internalType": "uint256",
          "name": "id",
          "type": "uint256"
        }
      ],
      "name": "FairLaunchReadyToComplete",
      "type": "event"
    },
    {
      "anonymous": false,
      "inputs": [
        {
          "indexed": true,
          "internalType": "uint256",
          "name": "id",
          "type": "uint256"
        },
        {
          "indexed": true,
          "internalType": "address",
          "name": "creator",
          "type": "address"
        },
        {
          "indexed": false,
          "internalType": "uint256",
          "name": "start",
          "type": "uint256"
        },
        {
          "indexed": false,
          "internalType": "uint256",
          "name": "end",
          "type": "uint256"
        }
      ],
      "name": "FairLaunchStarted",
      "type": "event"
    },
    {
      "anonymous": false,
      "inputs": [
        {
          "indexed": true,
          "internalType": "address",
          "name": "previousOwner",
          "type": "address"
        },
        {
          "indexed": true,
          "internalType": "address",
          "name": "newOwner",
          "type": "address"
        }
      ],
      "name": "OwnershipTransferred",
      "type": "event"
    },
    {
      "inputs": [],
      "name": "DECIMALS",
      "outputs": [
        {
          "internalType": "uint256",
          "name": "",
          "type": "uint256"
        }
      ],
      "stateMutability": "view",
      "type": "function"
    },
    {
      "inputs": [],
      "name": "MEMED_TEST_ETH",
      "outputs": [
        {
          "internalType": "address",
          "name": "",
          "type": "address"
        }
      ],
      "stateMutability": "view",
      "type": "function"
    },
    {
      "inputs": [],
      "name": "PLATFORM_FEE_DEN",
      "outputs": [
        {
          "internalType": "uint256",
          "name": "",
          "type": "uint256"
        }
      ],
      "stateMutability": "view",
      "type": "function"
    },
    {
      "inputs": [],
      "name": "PLATFORM_FEE_NUM",
      "outputs": [
        {
          "internalType": "uint256",
          "name": "",
          "type": "uint256"
        }
      ],
      "stateMutability": "view",
      "type": "function"
    },
    {
      "inputs": [],
      "name": "PRICE_PER_TOKEN_WEI",
      "outputs": [
        {
          "internalType": "uint256",
          "name": "",
          "type": "uint256"
        }
      ],
      "stateMutability": "view",
      "type": "function"
    },
    {
      "inputs": [],
      "name": "RAISE_ETH",
      "outputs": [
        {
          "internalType": "uint256",
          "name": "",
          "type": "uint256"
        }
      ],
      "stateMutability": "view",
      "type": "function"
    },
    {
      "inputs": [],
      "name": "TOTAL_FOR_SALE",
      "outputs": [
        {
          "internalType": "uint256",
          "name": "",
          "type": "uint256"
        }
      ],
      "stateMutability": "view",
      "type": "function"
    },
    {
      "inputs": [
        {
          "internalType": "address",
          "name": "",
          "type": "address"
        }
      ],
      "name": "blockedCreators",
      "outputs": [
        {
          "internalType": "uint256",
          "name": "",
          "type": "uint256"
        }
      ],
      "stateMutability": "view",
      "type": "function"
    },
    {
      "inputs": [
        {
          "internalType": "uint256",
          "name": "_id",
          "type": "uint256"
        }
      ],
      "name": "cancelCommit",
      "outputs": [],
      "stateMutability": "nonpayable",
      "type": "function"
    },
    {
      "inputs": [
        {
          "internalType": "uint256",
          "name": "_id",
          "type": "uint256"
        }
      ],
      "name": "claim",
      "outputs": [],
      "stateMutability": "nonpayable",
      "type": "function"
    },
    {
      "inputs": [
        {
          "internalType": "uint256",
          "name": "_id",
          "type": "uint256"
        },
        {
          "internalType": "uint256",
          "name": "amount",
          "type": "uint256"
        }
      ],
      "name": "commitToFairLaunch",
      "outputs": [],
      "stateMutability": "nonpayable",
      "type": "function"
    },
    {
      "inputs": [
        {
          "internalType": "uint256",
          "name": "_id",
          "type": "uint256"
        },
        {
          "internalType": "address",
          "name": "_token",
          "type": "address"
        },
        {
          "internalType": "address",
          "name": "_pair",
          "type": "address"
        }
      ],
      "name": "completeFairLaunch",
      "outputs": [],
      "stateMutability": "nonpayable",
      "type": "function"
    },
    {
      "inputs": [
        {
          "internalType": "uint256",
          "name": "",
          "type": "uint256"
        }
      ],
      "name": "fairLaunchData",
      "outputs": [
        {
          "internalType": "enum FairLaunchStatus",
          "name": "status",
          "type": "uint8"
        },
        {
          "internalType": "uint256",
          "name": "fairLaunchStartTime",
          "type": "uint256"
        },
        {
          "internalType": "uint256",
          "name": "totalCommitted",
          "type": "uint256"
        },
        {
          "internalType": "uint256",
          "name": "totalSold",
          "type": "uint256"
        },
        {
          "internalType": "address",
          "name": "uniswapPair",
          "type": "address"
        },
        {
          "internalType": "uint256",
          "name": "createdAt",
          "type": "uint256"
        }
      ],
      "stateMutability": "view",
      "type": "function"
    },
    {
      "inputs": [
        {
          "internalType": "address",
          "name": "_t",
          "type": "address"
        }
      ],
      "name": "getFairLaunchActive",
      "outputs": [
        {
          "internalType": "bool",
          "name": "",
          "type": "bool"
        }
      ],
      "stateMutability": "view",
      "type": "function"
    },
    {
      "inputs": [
        {
          "internalType": "uint256",
          "name": "_id",
          "type": "uint256"
        }
      ],
      "name": "getFairLaunchData",
      "outputs": [
        {
          "internalType": "enum FairLaunchStatus",
          "name": "",
          "type": "uint8"
        },
        {
          "internalType": "uint256",
          "name": "",
          "type": "uint256"
        }
      ],
      "stateMutability": "view",
      "type": "function"
    },
    {
      "inputs": [
        {
          "internalType": "uint256",
          "name": "_id",
          "type": "uint256"
        }
      ],
      "name": "getMaxCommittableETH",
      "outputs": [
        {
          "internalType": "uint256",
          "name": "",
          "type": "uint256"
        }
      ],
      "stateMutability": "view",
      "type": "function"
    },
    {
      "inputs": [
        {
          "internalType": "uint256",
          "name": "_id",
          "type": "uint256"
        },
        {
          "internalType": "address",
          "name": "u",
          "type": "address"
        }
      ],
      "name": "getUserCommitment",
      "outputs": [
        {
          "components": [
            {
              "internalType": "uint256",
              "name": "amount",
              "type": "uint256"
            },
            {
              "internalType": "uint256",
              "name": "tokenAmount",
              "type": "uint256"
            },
            {
              "internalType": "bool",
              "name": "claimed",
              "type": "bool"
            },
            {
              "internalType": "bool",
              "name": "refunded",
              "type": "bool"
            }
          ],
          "internalType": "struct Commitment",
          "name": "",
          "type": "tuple"
        }
      ],
      "stateMutability": "view",
      "type": "function"
    },
    {
      "inputs": [],
      "name": "id",
      "outputs": [
        {
          "internalType": "uint256",
          "name": "",
          "type": "uint256"
        }
      ],
      "stateMutability": "view",
      "type": "function"
    },
    {
      "inputs": [
        {
          "internalType": "address",
          "name": "_c",
          "type": "address"
        }
      ],
      "name": "isCreatorBlocked",
      "outputs": [
        {
          "internalType": "bool",
          "name": "",
          "type": "bool"
        },
        {
          "internalType": "uint256",
          "name": "",
          "type": "uint256"
        }
      ],
      "stateMutability": "view",
      "type": "function"
    },
    {
      "inputs": [
        {
          "internalType": "address",
          "name": "_c",
          "type": "address"
        }
      ],
      "name": "isMintable",
      "outputs": [
        {
          "internalType": "bool",
          "name": "",
          "type": "bool"
        }
      ],
      "stateMutability": "view",
      "type": "function"
    },
    {
      "inputs": [
        {
          "internalType": "uint256",
          "name": "_id",
          "type": "uint256"
        }
      ],
      "name": "isRefundable",
      "outputs": [
        {
          "internalType": "bool",
          "name": "",
          "type": "bool"
        }
      ],
      "stateMutability": "view",
      "type": "function"
    },
    {
      "inputs": [],
      "name": "memedFactory",
      "outputs": [
        {
          "internalType": "contract IMemedFactory",
          "name": "",
          "type": "address"
        }
      ],
      "stateMutability": "view",
      "type": "function"
    },
    {
      "inputs": [],
      "name": "owner",
      "outputs": [
        {
          "internalType": "address",
          "name": "",
          "type": "address"
        }
      ],
      "stateMutability": "view",
      "type": "function"
    },
    {
      "inputs": [
        {
          "internalType": "uint256",
          "name": "tokens",
          "type": "uint256"
        }
      ],
      "name": "quoteNetForTokens",
      "outputs": [
        {
          "internalType": "uint256",
          "name": "",
          "type": "uint256"
        }
      ],
      "stateMutability": "pure",
      "type": "function"
    },
    {
      "inputs": [
        {
          "internalType": "uint256",
          "name": "_id",
          "type": "uint256"
        }
      ],
      "name": "refund",
      "outputs": [],
      "stateMutability": "nonpayable",
      "type": "function"
    },
    {
      "inputs": [],
      "name": "renounceOwnership",
      "outputs": [],
      "stateMutability": "nonpayable",
      "type": "function"
    },
    {
      "inputs": [
        {
          "internalType": "address",
          "name": "_f",
          "type": "address"
        }
      ],
      "name": "setFactory",
      "outputs": [],
      "stateMutability": "nonpayable",
      "type": "function"
    },
    {
      "inputs": [
        {
          "internalType": "address",
          "name": "_creator",
          "type": "address"
        }
      ],
      "name": "startFairLaunch",
      "outputs": [
        {
          "internalType": "uint256",
          "name": "",
          "type": "uint256"
        }
      ],
      "stateMutability": "nonpayable",
      "type": "function"
    },
    {
      "inputs": [
        {
          "internalType": "address",
          "name": "",
          "type": "address"
        }
      ],
      "name": "tokenIdByAddress",
      "outputs": [
        {
          "internalType": "uint256",
          "name": "",
          "type": "uint256"
        }
      ],
      "stateMutability": "view",
      "type": "function"
    },
    {
      "inputs": [
        {
          "internalType": "address",
          "name": "",
          "type": "address"
        },
        {
          "internalType": "uint256",
          "name": "",
          "type": "uint256"
        }
      ],
      "name": "tokenIdsByCreator",
      "outputs": [
        {
          "internalType": "uint256",
          "name": "",
          "type": "uint256"
        }
      ],
      "stateMutability": "view",
      "type": "function"
    },
    {
      "inputs": [
        {
          "internalType": "address",
          "name": "newOwner",
          "type": "address"
        }
      ],
      "name": "transferOwnership",
      "outputs": [],
      "stateMutability": "nonpayable",
      "type": "function"
    }
  ],
  "bytecode": "0x6080604052348015600e575f5ffd5b503380603357604051631e4fbdf760e01b81525f600482015260240160405180910390fd5b603a816043565b50600180556092565b5f80546001600160a01b038381166001600160a01b0319831681178455604051919092169283917f8be0079c531659141344cd1fd0a4f28419497f9722a3daafe3b4186f6b6457e09190a35050565b611cf18061009f5f395ff3fe608060405234801561000f575f5ffd5b50600436106101dc575f3560e01c80637f1b6bab11610109578063cce6ef441161009e578063e0eeb3d31161006e578063e0eeb3d314610557578063e8378fbf1461056a578063f2fde38b14610589578063f537ae0a1461059c575f5ffd5b8063cce6ef441461050b578063d6e3b2521461051e578063dba64bb614610531578063dd125a0a14610544575f5ffd5b8063af640d0f116100d9578063af640d0f14610459578063bb69c71114610462578063bcd658ad1461046e578063c06ac352146104a7575f5ffd5b80637f1b6bab1461040457806389945657146104235780638da5cb5b14610436578063abf599fc14610446575f5ffd5b80633492caec1161017f5780635bb478081161014f5780635bb478081461039457806365c25269146103a7578063715018a6146103ba57806375808d5b146103c2575f5ffd5b80633492caec14610298578063379607f5146102a1578063416155ac146102b4578063468dacad146102c7575f5ffd5b8063222b15fb116101ba578063222b15fb1461021e578063278ecde1146102415780632badbfc0146102565780632e0f262514610289575f5ffd5b80631eec71fb146101e05780631f67e7a2146101fb5780632145dd661461020b575b5f5ffd5b6101e86105a4565b6040519081526020015b60405180910390f35b6101e868022b1c8c1227a0000081565b6101e8610219366004611828565b6105bd565b61023161022c366004611853565b6105e6565b60405190151581526020016101f2565b61025461024f366004611828565b610627565b005b61027173c190e6f26ce14e40d30251fde25927a73a5d58b681565b6040516001600160a01b0390911681526020016101f2565b6101e8670de0b6b3a764000081565b6101e86103e881565b6102546102af366004611828565b610888565b6102316102c2366004611853565b6109e9565b61035d6102d536600461186e565b604080516080810182525f808252602082018190529181018290526060810191909152505f8281526004602090815260408083206001600160a01b03851684526005018252918290208251608081018452815481526001820154928101929092526002015460ff80821615159383019390935261010090049091161515606082015292915050565b6040516101f29190815181526020808301519082015260408083015115159082015260609182015115159181019190915260800190565b6102546103a2366004611853565b610a3e565b6101e86103b536600461189c565b610aa7565b610254610ad2565b6103ed6103d0366004611853565b6001600160a01b03165f9081526007602052604090205442811191565b6040805192151583526020830191909152016101f2565b6101e8610412366004611853565b60076020525f908152604090205481565b6101e8610431366004611828565b610ae5565b5f546001600160a01b0316610271565b6102546104543660046118c6565b610b6d565b6101e860035481565b6101e8643e16926aaa81565b61049961047c366004611828565b5f908152600460205260409020805460029091015460ff90911691565b6040516101f2929190611939565b6104f96104b5366004611828565b600460208190525f918252604090912080546001820154600283015460038401549484015460079094015460ff90931694919390926001600160a01b039091169086565b6040516101f296959493929190611954565b610231610519366004611828565b610c95565b61025461052c366004611828565b610cd2565b600254610271906001600160a01b031681565b610254610552366004611993565b610e9f565b6101e8610565366004611853565b6112b0565b6101e8610578366004611853565b60066020525f908152604090205481565b610254610597366004611853565b611414565b6101e8600a81565b6105ba670de0b6b3a76400006308f0d1806119c7565b81565b5f670de0b6b3a76400006105d6643e16926aaa846119c7565b6105e091906119de565b92915050565b5f5f610609836001600160a01b03165f9081526007602052604090205442811191565b5090506106158361144e565b158015610620575080155b9392505050565b61062f611544565b5f818152600460205260409020600181015461064e9062278d006119fd565b42118015610668575068022b1c8c1227a000008160020154105b61069e5760405162461bcd60e51b81526020600482015260026024820152616e6f60f01b60448201526064015b60405180910390fd5b6004815460ff1660048111156106b6576106b6611905565b146107a557805460ff191660041781556106d34262278d006119fd565b600254604051632e9abad360e11b8152600481018590526007915f916001600160a01b0390911690635d3575a690602401602060405180830381865afa15801561071f573d5f5f3e3d5ffd5b505050506040513d601f19601f820116820180604052508101906107439190611a20565b6001600160a01b03166001600160a01b031681526020019081526020015f2081905550817f17150adeeda7158a6b2adf5e6065d6ad3f05dcbb2ab7520f383c53edf0f799f7826002015460405161079c91815260200190565b60405180910390a25b335f90815260058201602052604090208054158015906107cf57506002810154610100900460ff16155b6107eb5760405162461bcd60e51b815260040161069590611a3b565b60028101805461ff001916610100179055805460405163a9059cbb60e01b8152336004820152602481019190915273c190e6f26ce14e40d30251fde25927a73a5d58b69063a9059cbb906044015b6020604051808303815f875af1158015610855573d5f5f3e3d5ffd5b505050506040513d601f19601f820116820180604052508101906108799190611a68565b50505061088560018055565b50565b610890611544565b5f8181526004602052604090206003815460ff1660048111156108b5576108b5611905565b146108ef5760405162461bcd60e51b815260206004820152600a602482015269696e636f6d706c65746560b01b6044820152606401610695565b335f90815260058201602052604090206001810154158015906109175750600281015460ff16155b6109335760405162461bcd60e51b815260040161069590611a3b565b6002818101805460ff1916600117905554604051637bdc60d960e01b8152600481018590526001600160a01b0390911690637bdc60d9906024015f60405180830381865afa158015610987573d5f5f3e3d5ffd5b505050506040513d5f823e601f3d908101601f191682016040526109ae9190810190611b4a565b51600182015460405163a9059cbb60e01b815233600482015260248101919091526001600160a01b039091169063a9059cbb90604401610839565b6001600160a01b0381165f90815260066020526040812054808203610a1057505f92915050565b60015f8281526004602081905260409091205460ff1690811115610a3657610a36611905565b149392505050565b610a4661156e565b6002546001600160a01b031615610a855760405162461bcd60e51b81526020600482015260036024820152621cd95d60ea1b6044820152606401610695565b600280546001600160a01b0319166001600160a01b0392909216919091179055565b6005602052815f5260405f208181548110610ac0575f80fd5b905f5260205f20015f91509150505481565b610ada61156e565b610ae35f61159a565b565b5f8181526004602052604081206001815460ff166004811115610b0a57610b0a611905565b141580610b24575068022b1c8c1227a00000816002015410155b80610b485750610b40670de0b6b3a76400006308f0d1806119c7565b816003015410155b15610b5557505f92915050565b60028101546106209068022b1c8c1227a00000611c7c565b6002546001600160a01b03163314610bb65760405162461bcd60e51b815260206004820152600c60248201526b666163746f7279206f6e6c7960a01b6044820152606401610695565b5f8381526004602052604090206002815460ff166004811115610bdb57610bdb611905565b14610c145760405162461bcd60e51b81526020600482015260096024820152686e6f7420726561647960b81b6044820152606401610695565b805460ff191660031781556004810180546001600160a01b038481166001600160a01b031990921682179092559084165f818152600660209081526040918290208890556002850154915191825287917fa50e0b9679f5601c270cdad10a93f0cf7343e8bc4cd12d6c16db0567dc445195910160405180910390a450505050565b5f8181526004602052604081206001810154610cb49062278d006119fd565b4211801561062057506002015468022b1c8c1227a000001192915050565b610cda611544565b5f8181526004602052604090206001815460ff166004811115610cff57610cff611905565b14610d345760405162461bcd60e51b8152602060048201526005602482015264737461746560d81b6044820152606401610695565b335f90815260058201602052604090208054151580610d5657505f8160010154115b610d725760405162461bcd60e51b815260040161069590611a3b565b80546001820180545f8085559182905560028501805491928492610d97908490611c7c565b9250508190555080846003015f828254610db19190611c7c565b9091555050335f90815260068501602052604081208054839290610dd6908490611c7c565b909155505060405163a9059cbb60e01b81523360048201526024810183905273c190e6f26ce14e40d30251fde25927a73a5d58b69063a9059cbb906044016020604051808303815f875af1158015610e30573d5f5f3e3d5ffd5b505050506040513d601f19601f82011682018060405250810190610e549190611a68565b506040805183815260208101839052339187917f473ec725e4f427ee878c01533470f49b441bb2343a114ba06dc1817a04cf0a8d910160405180910390a35050505061088560018055565b610ea7611544565b5f8281526004602052604090206001815460ff166004811115610ecc57610ecc611905565b14610f045760405162461bcd60e51b8152602060048201526008602482015267696e61637469766560c01b6044820152606401610695565b6001810154610f169062278d006119fd565b421115610f4d5760405162461bcd60e51b8152602060048201526005602482015264195b99195960da1b6044820152606401610695565b5f8211610f855760405162461bcd60e51b8152600401610695906020808252600490820152637a65726f60e01b604082015260600190565b6040516323b872dd60e01b81523360048201523060248201526044810183905273c190e6f26ce14e40d30251fde25927a73a5d58b6906323b872dd906064016020604051808303815f875af1158015610fe0573d5f5f3e3d5ffd5b505050506040513d601f19601f820116820180604052508101906110049190611a68565b505f816002015468022b1c8c1227a0000061101f9190611c7c565b90505f81116110565760405162461bcd60e51b815260206004820152600360248201526206361760ec1b6044820152606401610695565b5f8184116110645783611066565b815b90505f643e16926aaa611081670de0b6b3a7640000846119c7565b61108b91906119de565b90505f8460030154670de0b6b3a76400006308f0d1806110ab91906119c7565b6110b59190611c7c565b9050808211156110e757905080670de0b6b3a76400006110da643e16926aaa836119c7565b6110e491906119de565b92505b5f8387116110f5575f6110ff565b6110ff8488611c7c565b905080156111825760405163a9059cbb60e01b81523360048201526024810182905273c190e6f26ce14e40d30251fde25927a73a5d58b69063a9059cbb906044016020604051808303815f875af115801561115c573d5f5f3e3d5ffd5b505050506040513d601f19601f820116820180604052508101906111809190611a68565b505b335f90815260058701602052604081208054909186918391906111a69084906119fd565b9250508190555083816001015f8282546111c091906119fd565b9250508190555083876003015f8282546111da91906119fd565b9250508190555084876002015f8282546111f491906119fd565b9091555050335f908152600688016020526040812080548692906112199084906119fd565b9091555050604080518681526020810186905233918b917f0a4a1371fe57a623579a431d46713995ff8d4d78dd0b6fcf591205f997ea45e1910160405180910390a368022b1c8c1227a000008760020154148061128e5750611287670de0b6b3a76400006308f0d1806119c7565b8760030154145b1561129c5761129c896115e9565b505050505050506112ac60018055565b5050565b5f6001600160a01b03821615611309576112c9826105e6565b6113095760405162461bcd60e51b8152602060048201526011602482015270626c6f636b6564206f722065786973747360781b6044820152606401610695565b6002546001600160a01b031633146113525760405162461bcd60e51b815260206004820152600c60248201526b666163746f7279206f6e6c7960a01b6044820152606401610695565b60038054905f61136183611c8f565b9091555050600380545f908152600460209081526040808320805460ff19166001908117825542818301819055600783018190556001600160a01b0389168087526005865293862087548154938401825590875294909520019290925592549092917fb6948299ea38c9d5ac9f98be169b0bff6eb2bf98881811a8518b8115731a7ebe906113f28162278d006119fd565b6040805192835260208301919091520160405180910390a35050600354919050565b61141c61156e565b6001600160a01b03811661144557604051631e4fbdf760e01b81525f6004820152602401610695565b6108858161159a565b6001600160a01b0381165f908152600560209081526040808320805482518185028101850190935280835284938301828280156114a857602002820191905f5260205f20905b815481526020019060010190808311611494575b509394505f93505050505b815181101561153b575f60045f8484815181106114d2576114d2611ca7565b60209081029190910181015182528101919091526040015f205460ff169050600381600481111561150557611505611905565b14806115225750600181600481111561152057611520611905565b145b1561153257506001949350505050565b506001016114b3565b505f9392505050565b60026001540361156757604051633ee5aeb560e01b815260040160405180910390fd5b6002600155565b5f546001600160a01b03163314610ae35760405163118cdaa760e01b8152336004820152602401610695565b5f80546001600160a01b038381166001600160a01b0319831681178455604051919092169283917f8be0079c531659141344cd1fd0a4f28419497f9722a3daafe3b4186f6b6457e09190a35050565b5f8181526004602052604090206001815460ff16600481111561160e5761160e611905565b146116435760405162461bcd60e51b8152602060048201526005602482015264737461746560d81b6044820152606401610695565b68022b1c8c1227a000008160020154146116885760405162461bcd60e51b8152600401610695906020808252600490820152630213d34360e41b604082015260600190565b5f6103e86116a0600a68022b1c8c1227a000006119c7565b6116aa91906119de565b905073c190e6f26ce14e40d30251fde25927a73a5d58b663a9059cbb6116d75f546001600160a01b031690565b6040516001600160e01b031960e084901b1681526001600160a01b039091166004820152602481018490526044016020604051808303815f875af1158015611721573d5f5f3e3d5ffd5b505050506040513d601f19601f820116820180604052508101906117459190611a68565b5060025473c190e6f26ce14e40d30251fde25927a73a5d58b69063a9059cbb906001600160a01b03166117818468022b1c8c1227a00000611c7c565b6040516001600160e01b031960e085901b1681526001600160a01b03909216600483015260248201526044016020604051808303815f875af11580156117c9573d5f5f3e3d5ffd5b505050506040513d601f19601f820116820180604052508101906117ed9190611a68565b50815460ff1916600217825560405183907fca57ed74e41661ab4c390df89db7dea5626a9ca998ed0bd135cf3ef5cee5daeb905f90a2505050565b5f60208284031215611838575f5ffd5b5035919050565b6001600160a01b0381168114610885575f5ffd5b5f60208284031215611863575f5ffd5b81356106208161183f565b5f5f6040838503121561187f575f5ffd5b8235915060208301356118918161183f565b809150509250929050565b5f5f604083850312156118ad575f5ffd5b82356118b88161183f565b946020939093013593505050565b5f5f5f606084860312156118d8575f5ffd5b8335925060208401356118ea8161183f565b915060408401356118fa8161183f565b809150509250925092565b634e487b7160e01b5f52602160045260245ffd5b6005811061193557634e487b7160e01b5f52602160045260245ffd5b9052565b604081016119478285611919565b8260208301529392505050565b60c081016119628289611919565b6020820196909652604081019490945260608401929092526001600160a01b0316608083015260a090910152919050565b5f5f604083850312156119a4575f5ffd5b50508035926020909101359150565b634e487b7160e01b5f52601160045260245ffd5b80820281158282048414176105e0576105e06119b3565b5f826119f857634e487b7160e01b5f52601260045260245ffd5b500490565b808201808211156105e0576105e06119b3565b8051611a1b8161183f565b919050565b5f60208284031215611a30575f5ffd5b81516106208161183f565b6020808252600490820152636e6f6e6560e01b604082015260600190565b80518015158114611a1b575f5ffd5b5f60208284031215611a78575f5ffd5b61062082611a59565b634e487b7160e01b5f52604160045260245ffd5b604051610100810167ffffffffffffffff81118282101715611ab957611ab9611a81565b60405290565b5f82601f830112611ace575f5ffd5b815167ffffffffffffffff811115611ae857611ae8611a81565b604051601f8201601f19908116603f0116810167ffffffffffffffff81118282101715611b1757611b17611a81565b604052818152838201602001851015611b2e575f5ffd5b8160208501602083015e5f918101602001919091529392505050565b5f60208284031215611b5a575f5ffd5b815167ffffffffffffffff811115611b70575f5ffd5b82016101008185031215611b82575f5ffd5b611b8a611a95565b611b9382611a10565b8152611ba160208301611a10565b6020820152611bb260408301611a10565b6040820152606082015167ffffffffffffffff811115611bd0575f5ffd5b611bdc86828501611abf565b606083015250608082015167ffffffffffffffff811115611bfb575f5ffd5b611c0786828501611abf565b60808301525060a082015167ffffffffffffffff811115611c26575f5ffd5b611c3286828501611abf565b60a08301525060c082015167ffffffffffffffff811115611c51575f5ffd5b611c5d86828501611abf565b60c083015250611c6f60e08301611a59565b60e0820152949350505050565b818103818111156105e0576105e06119b3565b5f60018201611ca057611ca06119b3565b5060010190565b634e487b7160e01b5f52603260045260245ffdfea26469706673582212206753ace00022364528743e2eef34e274c968f17967cd36ab00e27da025600ea964736f6c634300081c0033",
  "linkReferences": {},
  "deployedLinkReferences": {},
  "immutableReferences": {},
  "inputSourceName": "project/contracts/MemedTokenSale_test.sol",
  "buildInfoId": "solc-0_8_28-b499fa390fcf94cb8abbc30974ffd049fd056c6d"
}