{
  "_format": "hh3-artifact-1",
  "contractName": "MemedWarriorNFT",
  "sourceName": "contracts/MemedWarriorNFT.sol",
  "abi": [
    {
      "inputs": [
        {
          "internalType": "address",
          "name": "_memedToken",
          "type": "address"
        },
        {
          "internalType": "address",
          "name": "_memedBattle",
          "type": "address"
        },
        {
          "internalType": "address",
          "name": "_factory",
          "type": "address"
        }
      ],
      "stateMutability": "nonpayable",
      "type": "constructor"
    },
    {
      "inputs": [
        {
          "internalType": "address",
          "name": "sender",
          "type": "address"
        },
        {
          "internalType": "uint256",
          "name": "tokenId",
          "type": "uint256"
        },
        {
          "internalType": "address",
          "name": "owner",
          "type": "address"
        }
      ],
      "name": "ERC721IncorrectOwner",
      "type": "error"
    },
    {
      "inputs": [
        {
          "internalType": "address",
          "name": "operator",
          "type": "address"
        },
        {
          "internalType": "uint256",
          "name": "tokenId",
          "type": "uint256"
        }
      ],
      "name": "ERC721InsufficientApproval",
      "type": "error"
    },
    {
      "inputs": [
        {
          "internalType": "address",
          "name": "approver",
          "type": "address"
        }
      ],
      "name": "ERC721InvalidApprover",
      "type": "error"
    },
    {
      "inputs": [
        {
          "internalType": "address",
          "name": "operator",
          "type": "address"
        }
      ],
      "name": "ERC721InvalidOperator",
      "type": "error"
    },
    {
      "inputs": [
        {
          "internalType": "address",
          "name": "owner",
          "type": "address"
        }
      ],
      "name": "ERC721InvalidOwner",
      "type": "error"
    },
    {
      "inputs": [
        {
          "internalType": "address",
          "name": "receiver",
          "type": "address"
        }
      ],
      "name": "ERC721InvalidReceiver",
      "type": "error"
    },
    {
      "inputs": [
        {
          "internalType": "address",
          "name": "sender",
          "type": "address"
        }
      ],
      "name": "ERC721InvalidSender",
      "type": "error"
    },
    {
      "inputs": [
        {
          "internalType": "uint256",
          "name": "tokenId",
          "type": "uint256"
        }
      ],
      "name": "ERC721NonexistentToken",
      "type": "error"
    },
    {
      "inputs": [
        {
          "internalType": "address",
          "name": "owner",
          "type": "address"
        }
      ],
      "name": "OwnableInvalidOwner",
      "type": "error"
    },
    {
      "inputs": [
        {
          "internalType": "address",
          "name": "account",
          "type": "address"
        }
      ],
      "name": "OwnableUnauthorizedAccount",
      "type": "error"
    },
    {
      "inputs": [],
      "name": "ReentrancyGuardReentrantCall",
      "type": "error"
    },
    {
      "anonymous": false,
      "inputs": [
        {
          "indexed": true,
          "internalType": "address",
          "name": "owner",
          "type": "address"
        },
        {
          "indexed": true,
          "internalType": "address",
          "name": "approved",
          "type": "address"
        },
        {
          "indexed": true,
          "internalType": "uint256",
          "name": "tokenId",
          "type": "uint256"
        }
      ],
      "name": "Approval",
      "type": "event"
    },
    {
      "anonymous": false,
      "inputs": [
        {
          "indexed": true,
          "internalType": "address",
          "name": "owner",
          "type": "address"
        },
        {
          "indexed": true,
          "internalType": "address",
          "name": "operator",
          "type": "address"
        },
        {
          "indexed": false,
          "internalType": "bool",
          "name": "approved",
          "type": "bool"
        }
      ],
      "name": "ApprovalForAll",
      "type": "event"
    },
    {
      "anonymous": false,
      "inputs": [
        {
          "indexed": true,
          "internalType": "address",
          "name": "previousOwner",
          "type": "address"
        },
        {
          "indexed": true,
          "internalType": "address",
          "name": "newOwner",
          "type": "address"
        }
      ],
      "name": "OwnershipTransferred",
      "type": "event"
    },
    {
      "anonymous": false,
      "inputs": [
        {
          "indexed": false,
          "internalType": "uint256",
          "name": "amount",
          "type": "uint256"
        },
        {
          "indexed": false,
          "internalType": "uint256",
          "name": "totalPlatformHeat",
          "type": "uint256"
        }
      ],
      "name": "TokensBurned",
      "type": "event"
    },
    {
      "anonymous": false,
      "inputs": [
        {
          "indexed": true,
          "internalType": "address",
          "name": "from",
          "type": "address"
        },
        {
          "indexed": true,
          "internalType": "address",
          "name": "to",
          "type": "address"
        },
        {
          "indexed": true,
          "internalType": "uint256",
          "name": "tokenId",
          "type": "uint256"
        }
      ],
      "name": "Transfer",
      "type": "event"
    },
    {
      "anonymous": false,
      "inputs": [
        {
          "indexed": true,
          "internalType": "uint256",
          "name": "tokenId",
          "type": "uint256"
        },
        {
          "indexed": true,
          "internalType": "address",
          "name": "owner",
          "type": "address"
        }
      ],
      "name": "WarriorAllocated",
      "type": "event"
    },
    {
      "anonymous": false,
      "inputs": [
        {
          "indexed": true,
          "internalType": "uint256",
          "name": "tokenId",
          "type": "uint256"
        },
        {
          "indexed": true,
          "internalType": "address",
          "name": "owner",
          "type": "address"
        }
      ],
      "name": "WarriorGetBack",
      "type": "event"
    },
    {
      "anonymous": false,
      "inputs": [
        {
          "indexed": true,
          "internalType": "uint256",
          "name": "tokenId",
          "type": "uint256"
        },
        {
          "indexed": true,
          "internalType": "address",
          "name": "owner",
          "type": "address"
        },
        {
          "indexed": false,
          "internalType": "uint256",
          "name": "price",
          "type": "uint256"
        }
      ],
      "name": "WarriorMinted",
      "type": "event"
    },
    {
      "inputs": [],
      "name": "BASE_PRICE",
      "outputs": [
        {
          "internalType": "uint256",
          "name": "",
          "type": "uint256"
        }
      ],
      "stateMutability": "view",
      "type": "function"
    },
    {
      "inputs": [],
      "name": "HEAT_THRESHOLD",
      "outputs": [
        {
          "internalType": "uint256",
          "name": "",
          "type": "uint256"
        }
      ],
      "stateMutability": "view",
      "type": "function"
    },
    {
      "inputs": [],
      "name": "PRICE_INCREMENT",
      "outputs": [
        {
          "internalType": "uint256",
          "name": "",
          "type": "uint256"
        }
      ],
      "stateMutability": "view",
      "type": "function"
    },
    {
      "inputs": [
        {
          "internalType": "uint128",
          "name": "_battleId",
          "type": "uint128"
        },
        {
          "internalType": "address",
          "name": "_user",
          "type": "address"
        },
        {
          "internalType": "address",
          "name": "_supportedMeme",
          "type": "address"
        },
        {
          "internalType": "uint256[]",
          "name": "_nftsIds",
          "type": "uint256[]"
        }
      ],
      "name": "allocateNFTsToBattle",
      "outputs": [],
      "stateMutability": "nonpayable",
      "type": "function"
    },
    {
      "inputs": [
        {
          "internalType": "address",
          "name": "to",
          "type": "address"
        },
        {
          "internalType": "uint256",
          "name": "tokenId",
          "type": "uint256"
        }
      ],
      "name": "approve",
      "outputs": [],
      "stateMutability": "nonpayable",
      "type": "function"
    },
    {
      "inputs": [
        {
          "internalType": "address",
          "name": "owner",
          "type": "address"
        }
      ],
      "name": "balanceOf",
      "outputs": [
        {
          "internalType": "uint256",
          "name": "",
          "type": "uint256"
        }
      ],
      "stateMutability": "view",
      "type": "function"
    },
    {
      "inputs": [],
      "name": "currentTokenId",
      "outputs": [
        {
          "internalType": "uint256",
          "name": "",
          "type": "uint256"
        }
      ],
      "stateMutability": "view",
      "type": "function"
    },
    {
      "inputs": [],
      "name": "factory",
      "outputs": [
        {
          "internalType": "contract IMemedFactory",
          "name": "",
          "type": "address"
        }
      ],
      "stateMutability": "view",
      "type": "function"
    },
    {
      "inputs": [
        {
          "internalType": "uint256",
          "name": "tokenId",
          "type": "uint256"
        }
      ],
      "name": "getApproved",
      "outputs": [
        {
          "internalType": "address",
          "name": "",
          "type": "address"
        }
      ],
      "stateMutability": "view",
      "type": "function"
    },
    {
      "inputs": [
        {
          "internalType": "uint256",
          "name": "_battleId",
          "type": "uint256"
        }
      ],
      "name": "getBackWarrior",
      "outputs": [],
      "stateMutability": "nonpayable",
      "type": "function"
    },
    {
      "inputs": [],
      "name": "getCurrentPrice",
      "outputs": [
        {
          "internalType": "uint256",
          "name": "",
          "type": "uint256"
        }
      ],
      "stateMutability": "view",
      "type": "function"
    },
    {
      "inputs": [
        {
          "internalType": "address",
          "name": "_user",
          "type": "address"
        }
      ],
      "name": "getUserActiveNFTs",
      "outputs": [
        {
          "internalType": "uint256[]",
          "name": "",
          "type": "uint256[]"
        }
      ],
      "stateMutability": "view",
      "type": "function"
    },
    {
      "inputs": [
        {
          "internalType": "address",
          "name": "_user",
          "type": "address"
        },
        {
          "internalType": "uint256",
          "name": "_timestamp",
          "type": "uint256"
        }
      ],
      "name": "getWarriorMintedBeforeByUser",
      "outputs": [
        {
          "internalType": "uint256",
          "name": "",
          "type": "uint256"
        }
      ],
      "stateMutability": "view",
      "type": "function"
    },
    {
      "inputs": [
        {
          "internalType": "address",
          "name": "_user",
          "type": "address"
        }
      ],
      "name": "hasActiveWarrior",
      "outputs": [
        {
          "internalType": "bool",
          "name": "",
          "type": "bool"
        }
      ],
      "stateMutability": "view",
      "type": "function"
    },
    {
      "inputs": [
        {
          "internalType": "address",
          "name": "owner",
          "type": "address"
        },
        {
          "internalType": "address",
          "name": "operator",
          "type": "address"
        }
      ],
      "name": "isApprovedForAll",
      "outputs": [
        {
          "internalType": "bool",
          "name": "",
          "type": "bool"
        }
      ],
      "stateMutability": "view",
      "type": "function"
    },
    {
      "inputs": [],
      "name": "memedBattle",
      "outputs": [
        {
          "internalType": "contract IMemedBattle",
          "name": "",
          "type": "address"
        }
      ],
      "stateMutability": "view",
      "type": "function"
    },
    {
      "inputs": [],
      "name": "memedToken",
      "outputs": [
        {
          "internalType": "address",
          "name": "",
          "type": "address"
        }
      ],
      "stateMutability": "view",
      "type": "function"
    },
    {
      "inputs": [],
      "name": "mintWarrior",
      "outputs": [
        {
          "internalType": "uint256",
          "name": "",
          "type": "uint256"
        }
      ],
      "stateMutability": "nonpayable",
      "type": "function"
    },
    {
      "inputs": [],
      "name": "name",
      "outputs": [
        {
          "internalType": "string",
          "name": "",
          "type": "string"
        }
      ],
      "stateMutability": "view",
      "type": "function"
    },
    {
      "inputs": [],
      "name": "owner",
      "outputs": [
        {
          "internalType": "address",
          "name": "",
          "type": "address"
        }
      ],
      "stateMutability": "view",
      "type": "function"
    },
    {
      "inputs": [
        {
          "internalType": "uint256",
          "name": "tokenId",
          "type": "uint256"
        }
      ],
      "name": "ownerOf",
      "outputs": [
        {
          "internalType": "address",
          "name": "",
          "type": "address"
        }
      ],
      "stateMutability": "view",
      "type": "function"
    },
    {
      "inputs": [],
      "name": "renounceOwnership",
      "outputs": [],
      "stateMutability": "nonpayable",
      "type": "function"
    },
    {
      "inputs": [
        {
          "internalType": "address",
          "name": "from",
          "type": "address"
        },
        {
          "internalType": "address",
          "name": "to",
          "type": "address"
        },
        {
          "internalType": "uint256",
          "name": "tokenId",
          "type": "uint256"
        }
      ],
      "name": "safeTransferFrom",
      "outputs": [],
      "stateMutability": "nonpayable",
      "type": "function"
    },
    {
      "inputs": [
        {
          "internalType": "address",
          "name": "from",
          "type": "address"
        },
        {
          "internalType": "address",
          "name": "to",
          "type": "address"
        },
        {
          "internalType": "uint256",
          "name": "tokenId",
          "type": "uint256"
        },
        {
          "internalType": "bytes",
          "name": "data",
          "type": "bytes"
        }
      ],
      "name": "safeTransferFrom",
      "outputs": [],
      "stateMutability": "nonpayable",
      "type": "function"
    },
    {
      "inputs": [
        {
          "internalType": "address",
          "name": "operator",
          "type": "address"
        },
        {
          "internalType": "bool",
          "name": "approved",
          "type": "bool"
        }
      ],
      "name": "setApprovalForAll",
      "outputs": [],
      "stateMutability": "nonpayable",
      "type": "function"
    },
    {
      "inputs": [
        {
          "internalType": "bytes4",
          "name": "interfaceId",
          "type": "bytes4"
        }
      ],
      "name": "supportsInterface",
      "outputs": [
        {
          "internalType": "bool",
          "name": "",
          "type": "bool"
        }
      ],
      "stateMutability": "view",
      "type": "function"
    },
    {
      "inputs": [],
      "name": "symbol",
      "outputs": [
        {
          "internalType": "string",
          "name": "",
          "type": "string"
        }
      ],
      "stateMutability": "view",
      "type": "function"
    },
    {
      "inputs": [
        {
          "internalType": "uint256",
          "name": "tokenId",
          "type": "uint256"
        }
      ],
      "name": "tokenURI",
      "outputs": [
        {
          "internalType": "string",
          "name": "",
          "type": "string"
        }
      ],
      "stateMutability": "view",
      "type": "function"
    },
    {
      "inputs": [
        {
          "internalType": "address",
          "name": "from",
          "type": "address"
        },
        {
          "internalType": "address",
          "name": "to",
          "type": "address"
        },
        {
          "internalType": "uint256",
          "name": "tokenId",
          "type": "uint256"
        }
      ],
      "name": "transferFrom",
      "outputs": [],
      "stateMutability": "nonpayable",
      "type": "function"
    },
    {
      "inputs": [
        {
          "internalType": "address",
          "name": "newOwner",
          "type": "address"
        }
      ],
      "name": "transferOwnership",
      "outputs": [],
      "stateMutability": "nonpayable",
      "type": "function"
    },
    {
      "inputs": [
        {
          "internalType": "address",
          "name": "",
          "type": "address"
        },
        {
          "internalType": "uint256",
          "name": "",
          "type": "uint256"
        }
      ],
      "name": "userNFTs",
      "outputs": [
        {
          "internalType": "uint256",
          "name": "",
          "type": "uint256"
        }
      ],
      "stateMutability": "view",
      "type": "function"
    },
    {
      "inputs": [
        {
          "internalType": "uint256",
          "name": "",
          "type": "uint256"
        }
      ],
      "name": "warriors",
      "outputs": [
        {
          "internalType": "uint256",
          "name": "tokenId",
          "type": "uint256"
        },
        {
          "internalType": "address",
          "name": "owner",
          "type": "address"
        },
        {
          "internalType": "uint256",
          "name": "mintPrice",
          "type": "uint256"
        },
        {
          "internalType": "uint256",
          "name": "mintedAt",
          "type": "uint256"
        },
        {
          "internalType": "bool",
          "name": "allocated",
          "type": "bool"
        }
      ],
      "stateMutability": "view",
      "type": "function"
    }
  ],
  "bytecode": "0x60e060405234801561000f575f5ffd5b50604051614b0e380380614b0e8339818101604052810190610031919061030c565b336040518060400160405280600d81526020017f4d656d65642057617272696f72000000000000000000000000000000000000008152506040518060400160405280600781526020017f57415252494f5200000000000000000000000000000000000000000000000000815250815f90816100ac9190610599565b5080600190816100bc9190610599565b5050505f73ffffffffffffffffffffffffffffffffffffffff168173ffffffffffffffffffffffffffffffffffffffff160361012f575f6040517f1e4fbdf70000000000000000000000000000000000000000000000000000000081526004016101269190610677565b60405180910390fd5b61013e816101eb60201b60201c565b5060016007819055508273ffffffffffffffffffffffffffffffffffffffff1660c08173ffffffffffffffffffffffffffffffffffffffff16815250508073ffffffffffffffffffffffffffffffffffffffff1660808173ffffffffffffffffffffffffffffffffffffffff16815250508173ffffffffffffffffffffffffffffffffffffffff1660a08173ffffffffffffffffffffffffffffffffffffffff1681525050505050610690565b5f60065f9054906101000a900473ffffffffffffffffffffffffffffffffffffffff1690508160065f6101000a81548173ffffffffffffffffffffffffffffffffffffffff021916908373ffffffffffffffffffffffffffffffffffffffff1602179055508173ffffffffffffffffffffffffffffffffffffffff168173ffffffffffffffffffffffffffffffffffffffff167f8be0079c531659141344cd1fd0a4f28419497f9722a3daafe3b4186f6b6457e060405160405180910390a35050565b5f5ffd5b5f73ffffffffffffffffffffffffffffffffffffffff82169050919050565b5f6102db826102b2565b9050919050565b6102eb816102d1565b81146102f5575f5ffd5b50565b5f81519050610306816102e2565b92915050565b5f5f5f60608486031215610323576103226102ae565b5b5f610330868287016102f8565b9350506020610341868287016102f8565b9250506040610352868287016102f8565b9150509250925092565b5f81519050919050565b7f4e487b71000000000000000000000000000000000000000000000000000000005f52604160045260245ffd5b7f4e487b71000000000000000000000000000000000000000000000000000000005f52602260045260245ffd5b5f60028204905060018216806103d757607f821691505b6020821081036103ea576103e9610393565b5b50919050565b5f819050815f5260205f209050919050565b5f6020601f8301049050919050565b5f82821b905092915050565b5f6008830261044c7fffffffffffffffffffffffffffffffffffffffffffffffffffffffffffffffff82610411565b6104568683610411565b95508019841693508086168417925050509392505050565b5f819050919050565b5f819050919050565b5f61049a6104956104908461046e565b610477565b61046e565b9050919050565b5f819050919050565b6104b383610480565b6104c76104bf826104a1565b84845461041d565b825550505050565b5f5f905090565b6104de6104cf565b6104e98184846104aa565b505050565b5b8181101561050c576105015f826104d6565b6001810190506104ef565b5050565b601f82111561055157610522816103f0565b61052b84610402565b8101602085101561053a578190505b61054e61054685610402565b8301826104ee565b50505b505050565b5f82821c905092915050565b5f6105715f1984600802610556565b1980831691505092915050565b5f6105898383610562565b9150826002028217905092915050565b6105a28261035c565b67ffffffffffffffff8111156105bb576105ba610366565b5b6105c582546103c0565b6105d0828285610510565b5f60209050601f831160018114610601575f84156105ef578287015190505b6105f9858261057e565b865550610660565b601f19841661060f866103f0565b5f5b8281101561063657848901518255600182019150602085019450602081019050610611565b86831015610653578489015161064f601f891682610562565b8355505b6001600288020188555050505b505050505050565b610671816102d1565b82525050565b5f60208201905061068a5f830184610668565b92915050565b60805160a05160c0516143eb6107235f395f818161093101528181610e4201528181610f1401528181611122015281816112bc01528181611395015281816118970152818161219d01526122d501525f818161069e01528181610c7301528181610da701528181610ed60152610fde01525f81816110790152818161165a0152818161185b015261229901526143eb5ff3fe608060405234801561000f575f5ffd5b50600436106101ec575f3560e01c806370a082311161010d578063c45a0155116100a0578063eb91d37e1161006f578063eb91d37e146105ce578063f2fde38b146105ec578063f696a42814610608578063f86325ed14610638576101ec565b8063c45a015514610520578063c87b56dd1461053e578063debc2f921461056e578063e985e9c51461059e576101ec565b806395d89b41116100dc57806395d89b41146104ac578063a22cb465146104ca578063b52ce8e6146104e6578063b88d4fde14610504576101ec565b806370a0823114610438578063715018a6146104685780638da5cb5b1461047257806394de221914610490576101ec565b80631df0cd131161018557806342842e0e1161015457806342842e0e146103b05780635153563b146103cc5780636352211e146103ea5780636d25d8021461041a576101ec565b80631df0cd131461031657806323b872dd14610334578063291c73c3146103505780632eb3740614610380576101ec565b8063081812fc116101c1578063081812fc14610278578063095ea7b3146102a85780631a170712146102c45780631b74c9e3146102f8576101ec565b80629a9b7b146101f0578062f4820a1461020e57806301ffc9a71461022a57806306fdde031461025a575b5f5ffd5b6101f8610656565b6040516102059190612f1a565b60405180910390f35b61022860048036038101906102239190613044565b61065c565b005b610244600480360381019061023f919061311d565b610731565b6040516102519190613162565b60405180910390f35b610262610812565b60405161026f91906131eb565b60405180910390f35b610292600480360381019061028d9190613235565b6108a1565b60405161029f919061326f565b60405180910390f35b6102c260048036038101906102bd9190613288565b6108bc565b005b6102de60048036038101906102d99190613235565b6108d2565b6040516102ef9594939291906132c6565b60405180910390f35b61030061092f565b60405161030d919061326f565b60405180910390f35b61031e610953565b60405161032b9190612f1a565b60405180910390f35b61034e60048036038101906103499190613317565b610959565b005b61036a60048036038101906103659190613288565b610a58565b6040516103779190612f1a565b60405180910390f35b61039a60048036038101906103959190613367565b610a83565b6040516103a79190613449565b60405180910390f35b6103ca60048036038101906103c59190613317565b610c52565b005b6103d4610c71565b6040516103e191906134c4565b60405180910390f35b61040460048036038101906103ff9190613235565b610c95565b604051610411919061326f565b60405180910390f35b610422610ca6565b60405161042f9190612f1a565b60405180910390f35b610452600480360381019061044d9190613367565b610cb3565b60405161045f9190612f1a565b60405180910390f35b610470610d69565b005b61047a610d7c565b604051610487919061326f565b60405180910390f35b6104aa60048036038101906104a59190613235565b610da4565b005b6104b46111ff565b6040516104c191906131eb565b60405180910390f35b6104e460048036038101906104df9190613507565b61128f565b005b6104ee6112a5565b6040516104fb9190612f1a565b60405180910390f35b61051e6004803603810190610519919061366d565b611633565b005b610528611658565b604051610535919061370d565b60405180910390f35b61055860048036038101906105539190613235565b61167c565b60405161056591906131eb565b60405180910390f35b61058860048036038101906105839190613367565b6116e2565b6040516105959190613162565b60405180910390f35b6105b860048036038101906105b39190613726565b6117c9565b6040516105c59190613162565b60405180910390f35b6105d6611857565b6040516105e39190612f1a565b60405180910390f35b61060660048036038101906106019190613367565b611955565b005b610622600480360381019061061d9190613288565b6119d9565b60405161062f9190612f1a565b60405180910390f35b610640611ad7565b60405161064d9190612f1a565b60405180910390f35b60085481565b5f5f90505b8282905081101561069b5761068e83838381811061068257610681613764565b5b90506020020135611ae5565b8080600101915050610661565b507f000000000000000000000000000000000000000000000000000000000000000073ffffffffffffffffffffffffffffffffffffffff1663c24b952b86868686866040518663ffffffff1660e01b81526004016106fd959493929190613829565b5f604051808303815f87803b158015610714575f5ffd5b505af1158015610726573d5f5f3e3d5ffd5b505050505050505050565b5f7f80ac58cd000000000000000000000000000000000000000000000000000000007bffffffffffffffffffffffffffffffffffffffffffffffffffffffff1916827bffffffffffffffffffffffffffffffffffffffffffffffffffffffff191614806107fb57507f5b5e139f000000000000000000000000000000000000000000000000000000007bffffffffffffffffffffffffffffffffffffffffffffffffffffffff1916827bffffffffffffffffffffffffffffffffffffffffffffffffffffffff1916145b8061080b575061080a82611c0e565b5b9050919050565b60605f8054610820906138a2565b80601f016020809104026020016040519081016040528092919081815260200182805461084c906138a2565b80156108975780601f1061086e57610100808354040283529160200191610897565b820191905f5260205f20905b81548152906001019060200180831161087a57829003601f168201915b5050505050905090565b5f6108ab82611c77565b506108b582611cfd565b9050919050565b6108ce82826108c9611d36565b611d3d565b5050565b6009602052805f5260405f205f91509050805f015490806001015f9054906101000a900473ffffffffffffffffffffffffffffffffffffffff1690806002015490806003015490806004015f9054906101000a900460ff16905085565b7f000000000000000000000000000000000000000000000000000000000000000081565b61271081565b5f73ffffffffffffffffffffffffffffffffffffffff168273ffffffffffffffffffffffffffffffffffffffff16036109c9575f6040517f64a0ae920000000000000000000000000000000000000000000000000000000081526004016109c0919061326f565b60405180910390fd5b5f6109dc83836109d7611d36565b611d4f565b90508373ffffffffffffffffffffffffffffffffffffffff168173ffffffffffffffffffffffffffffffffffffffff1614610a52578382826040517f64283d7b000000000000000000000000000000000000000000000000000000008152600401610a49939291906138d2565b60405180910390fd5b50505050565b600a602052815f5260405f208181548110610a71575f80fd5b905f5260205f20015f91509150505481565b60605f600a5f8473ffffffffffffffffffffffffffffffffffffffff1673ffffffffffffffffffffffffffffffffffffffff1681526020019081526020015f20805480602002602001604051908101604052809291908181526020018280548015610b0b57602002820191905f5260205f20905b815481526020019060010190808311610af7575b505050505090505f5f90505f5f90505b8251811015610b6857610b47838281518110610b3a57610b39613764565b5b6020026020010151611e94565b15610b5b578180610b5790613934565b9250505b8080600101915050610b1b565b505f8167ffffffffffffffff811115610b8457610b83613549565b5b604051908082528060200260200182016040528015610bb25781602001602082028036833780820191505090505b5090505f5f90505f5f90505b8451811015610c4557610bea858281518110610bdd57610bdc613764565b5b6020026020010151611e94565b15610c3857848181518110610c0257610c01613764565b5b6020026020010151838381518110610c1d57610c1c613764565b5b6020026020010181815250508180610c3490613934565b9250505b8080600101915050610bbe565b5081945050505050919050565b610c6c83838360405180602001604052805f815250611633565b505050565b7f000000000000000000000000000000000000000000000000000000000000000081565b5f610c9f82611c77565b9050919050565b68056bc75e2d6310000081565b5f5f73ffffffffffffffffffffffffffffffffffffffff168273ffffffffffffffffffffffffffffffffffffffff1603610d24575f6040517f89c62b64000000000000000000000000000000000000000000000000000000008152600401610d1b919061326f565b60405180910390fd5b60035f8373ffffffffffffffffffffffffffffffffffffffff1673ffffffffffffffffffffffffffffffffffffffff1681526020019081526020015f20549050919050565b610d71611ea2565b610d7a5f611f29565b565b5f60065f9054906101000a900473ffffffffffffffffffffffffffffffffffffffff16905090565b5f7f000000000000000000000000000000000000000000000000000000000000000073ffffffffffffffffffffffffffffffffffffffff16636dd0ce7a836040518263ffffffff1660e01b8152600401610dfe9190612f1a565b61018060405180830381865afa158015610e1a573d5f5f3e3d5ffd5b505050506040513d601f19601f82011682018060405250810190610e3e9190613aed565b90507f000000000000000000000000000000000000000000000000000000000000000073ffffffffffffffffffffffffffffffffffffffff1681610140015173ffffffffffffffffffffffffffffffffffffffff1614610ed3576040517f08c379a0000000000000000000000000000000000000000000000000000000008152600401610eca90613b63565b60405180910390fd5b5f7f000000000000000000000000000000000000000000000000000000000000000073ffffffffffffffffffffffffffffffffffffffff16636c35243984337f00000000000000000000000000000000000000000000000000000000000000006040518463ffffffff1660e01b8152600401610f5193929190613b81565b5f60405180830381865afa158015610f6b573d5f5f3e3d5ffd5b505050506040513d5f823e3d601f19601f82011682018060405250810190610f939190613d43565b90505f81606001515111610fdc576040517f08c379a0000000000000000000000000000000000000000000000000000000008152600401610fd390613dd4565b60405180910390fd5b7f000000000000000000000000000000000000000000000000000000000000000073ffffffffffffffffffffffffffffffffffffffff1663327b390084336040518363ffffffff1660e01b8152600401611037929190613df2565b5f604051808303815f87803b15801561104e575f5ffd5b505af1158015611060573d5f5f3e3d5ffd5b505050505f5f90505b8160600151518110156111f9575f7f000000000000000000000000000000000000000000000000000000000000000073ffffffffffffffffffffffffffffffffffffffff166377e989f36040518163ffffffff1660e01b8152600401602060405180830381865afa1580156110e0573d5f5f3e3d5ffd5b505050506040513d601f19601f820116820180604052508101906111049190613e19565b73ffffffffffffffffffffffffffffffffffffffff16633901e015337f00000000000000000000000000000000000000000000000000000000000000006040518363ffffffff1660e01b815260040161115e929190613e44565b602060405180830381865afa158015611179573d5f5f3e3d5ffd5b505050506040513d601f19601f8201168201806040525081019061119d9190613e6b565b116111ec575f60095f846060015184815181106111bd576111bc613764565b5b602002602001015181526020019081526020015f206004015f6101000a81548160ff0219169083151502179055505b8080600101915050611069565b50505050565b60606001805461120e906138a2565b80601f016020809104026020016040519081016040528092919081815260200182805461123a906138a2565b80156112855780601f1061125c57610100808354040283529160200191611285565b820191905f5260205f20905b81548152906001019060200180831161126857829003601f168201915b5050505050905090565b6112a161129a611d36565b8383611fec565b5050565b5f6112ae612155565b5f6112b7611857565b9050807f000000000000000000000000000000000000000000000000000000000000000073ffffffffffffffffffffffffffffffffffffffff166370a08231336040518263ffffffff1660e01b8152600401611313919061326f565b602060405180830381865afa15801561132e573d5f5f3e3d5ffd5b505050506040513d601f19601f820116820180604052508101906113529190613e6b565b1015611393576040517f08c379a000000000000000000000000000000000000000000000000000000000815260040161138a90613ee0565b60405180910390fd5b7f000000000000000000000000000000000000000000000000000000000000000073ffffffffffffffffffffffffffffffffffffffff166323b872dd3330846040518463ffffffff1660e01b81526004016113f093929190613efe565b6020604051808303815f875af115801561140c573d5f5f3e3d5ffd5b505050506040513d601f19601f820116820180604052508101906114309190613f33565b61146f576040517f08c379a000000000000000000000000000000000000000000000000000000000815260040161146690613fa8565b60405180910390fd5b6114788161219b565b60085f81548092919061148a90613934565b91905055505f600854905061149f3382612368565b6040518060a001604052808281526020013373ffffffffffffffffffffffffffffffffffffffff1681526020018381526020014281526020015f151581525060095f8381526020019081526020015f205f820151815f01556020820151816001015f6101000a81548173ffffffffffffffffffffffffffffffffffffffff021916908373ffffffffffffffffffffffffffffffffffffffff16021790555060408201518160020155606082015181600301556080820151816004015f6101000a81548160ff021916908315150217905550905050600a5f3373ffffffffffffffffffffffffffffffffffffffff1673ffffffffffffffffffffffffffffffffffffffff1681526020019081526020015f2081908060018154018082558091505060019003905f5260205f20015f90919091909150553373ffffffffffffffffffffffffffffffffffffffff16817f972b595ca48df89bdf5d8ed153814654b794988833678cd40cb375ff28bd87e48460405161161b9190612f1a565b60405180910390a38092505050611630612385565b90565b61163e848484610959565b611652611649611d36565b8585858561238f565b50505050565b7f000000000000000000000000000000000000000000000000000000000000000081565b606061168782611c77565b505f61169161253b565b90505f8151116116af5760405180602001604052805f8152506116da565b806116b984612551565b6040516020016116ca929190614000565b6040516020818303038152906040525b915050919050565b5f5f600a5f8473ffffffffffffffffffffffffffffffffffffffff1673ffffffffffffffffffffffffffffffffffffffff1681526020019081526020015f2080548060200260200160405190810160405280929190818152602001828054801561176957602002820191905f5260205f20905b815481526020019060010190808311611755575b505050505090505f5f90505b81518110156117be576117a182828151811061179457611793613764565b5b6020026020010151611e94565b156117b1576001925050506117c4565b8080600101915050611775565b505f9150505b919050565b5f60055f8473ffffffffffffffffffffffffffffffffffffffff1673ffffffffffffffffffffffffffffffffffffffff1681526020019081526020015f205f8373ffffffffffffffffffffffffffffffffffffffff1673ffffffffffffffffffffffffffffffffffffffff1681526020019081526020015f205f9054906101000a900460ff16905092915050565b5f5f7f000000000000000000000000000000000000000000000000000000000000000073ffffffffffffffffffffffffffffffffffffffff1663306d35087f00000000000000000000000000000000000000000000000000000000000000006040518263ffffffff1660e01b81526004016118d2919061326f565b602060405180830381865afa1580156118ed573d5f5f3e3d5ffd5b505050506040513d601f19601f820116820180604052508101906119119190613e6b565b90505f68056bc75e2d631000006127108361192c9190614050565b6119369190614080565b90508069010f0cf064dd5920000061194e91906140c1565b9250505090565b61195d611ea2565b5f73ffffffffffffffffffffffffffffffffffffffff168173ffffffffffffffffffffffffffffffffffffffff16036119cd575f6040517f1e4fbdf70000000000000000000000000000000000000000000000000000000081526004016119c4919061326f565b60405180910390fd5b6119d681611f29565b50565b5f5f600a5f8573ffffffffffffffffffffffffffffffffffffffff1673ffffffffffffffffffffffffffffffffffffffff1681526020019081526020015f20805480602002602001604051908101604052809291908181526020018280548015611a6057602002820191905f5260205f20905b815481526020019060010190808311611a4c575b505050505090505f5f90505f5f90505b8251811015611acb578460095f858481518110611a9057611a8f613764565b5b602002602001015181526020019081526020015f20600301541015611abe578180611aba90613934565b9250505b8080600101915050611a70565b50809250505092915050565b69010f0cf064dd5920000081565b611aee81611e94565b611b2d576040517f08c379a0000000000000000000000000000000000000000000000000000000008152600401611b249061413e565b60405180910390fd5b60095f8281526020019081526020015f206004015f9054906101000a900460ff1615611b8e576040517f08c379a0000000000000000000000000000000000000000000000000000000008152600401611b85906141a6565b60405180910390fd5b5f611b9882610c95565b9050600160095f8481526020019081526020015f206004015f6101000a81548160ff0219169083151502179055508073ffffffffffffffffffffffffffffffffffffffff16827fced437231aa98bcedae3308779b046af7bc82d93f3e58a096dc847c95b13af8060405160405180910390a35050565b5f7f01ffc9a7000000000000000000000000000000000000000000000000000000007bffffffffffffffffffffffffffffffffffffffffffffffffffffffff1916827bffffffffffffffffffffffffffffffffffffffffffffffffffffffff1916149050919050565b5f5f611c828361261b565b90505f73ffffffffffffffffffffffffffffffffffffffff168173ffffffffffffffffffffffffffffffffffffffff1603611cf457826040517f7e273289000000000000000000000000000000000000000000000000000000008152600401611ceb9190612f1a565b60405180910390fd5b80915050919050565b5f60045f8381526020019081526020015f205f9054906101000a900473ffffffffffffffffffffffffffffffffffffffff169050919050565b5f33905090565b611d4a8383836001612654565b505050565b5f5f611d5c858585612813565b90505f73ffffffffffffffffffffffffffffffffffffffff168173ffffffffffffffffffffffffffffffffffffffff1614158015611dc657505f73ffffffffffffffffffffffffffffffffffffffff168573ffffffffffffffffffffffffffffffffffffffff1614155b15611e89578460095f8681526020019081526020015f206001015f6101000a81548173ffffffffffffffffffffffffffffffffffffffff021916908373ffffffffffffffffffffffffffffffffffffffff160217905550611e278185612a1e565b600a5f8673ffffffffffffffffffffffffffffffffffffffff1673ffffffffffffffffffffffffffffffffffffffff1681526020019081526020015f2084908060018154018082558091505060019003905f5260205f20015f90919091909150555b809150509392505050565b5f6008548211159050919050565b611eaa611d36565b73ffffffffffffffffffffffffffffffffffffffff16611ec8610d7c565b73ffffffffffffffffffffffffffffffffffffffff1614611f2757611eeb611d36565b6040517f118cdaa7000000000000000000000000000000000000000000000000000000008152600401611f1e919061326f565b60405180910390fd5b565b5f60065f9054906101000a900473ffffffffffffffffffffffffffffffffffffffff1690508160065f6101000a81548173ffffffffffffffffffffffffffffffffffffffff021916908373ffffffffffffffffffffffffffffffffffffffff1602179055508173ffffffffffffffffffffffffffffffffffffffff168173ffffffffffffffffffffffffffffffffffffffff167f8be0079c531659141344cd1fd0a4f28419497f9722a3daafe3b4186f6b6457e060405160405180910390a35050565b5f73ffffffffffffffffffffffffffffffffffffffff168273ffffffffffffffffffffffffffffffffffffffff160361205c57816040517f5b08ba18000000000000000000000000000000000000000000000000000000008152600401612053919061326f565b60405180910390fd5b8060055f8573ffffffffffffffffffffffffffffffffffffffff1673ffffffffffffffffffffffffffffffffffffffff1681526020019081526020015f205f8473ffffffffffffffffffffffffffffffffffffffff1673ffffffffffffffffffffffffffffffffffffffff1681526020019081526020015f205f6101000a81548160ff0219169083151502179055508173ffffffffffffffffffffffffffffffffffffffff168373ffffffffffffffffffffffffffffffffffffffff167f17307eab39ab6107e8899845ad3d59bd9653f200f220920489ca2b5937696c31836040516121489190613162565b60405180910390a3505050565b600260075403612191576040517f3ee5aeb500000000000000000000000000000000000000000000000000000000815260040160405180910390fd5b6002600781905550565b7f000000000000000000000000000000000000000000000000000000000000000073ffffffffffffffffffffffffffffffffffffffff1663a9059cbb5f836040518363ffffffff1660e01b81526004016121f69291906141c4565b6020604051808303815f875af1158015612212573d5f5f3e3d5ffd5b505050506040513d601f19601f820116820180604052508101906122369190613f33565b612275576040517f08c379a000000000000000000000000000000000000000000000000000000000815260040161226c90614235565b60405180910390fd5b7f8bc81353cf6671d259d22783e39ed930583c86f3f4cf7e981298e6a872dfb15d817f000000000000000000000000000000000000000000000000000000000000000073ffffffffffffffffffffffffffffffffffffffff1663306d35087f00000000000000000000000000000000000000000000000000000000000000006040518263ffffffff1660e01b8152600401612310919061326f565b602060405180830381865afa15801561232b573d5f5f3e3d5ffd5b505050506040513d601f19601f8201168201806040525081019061234f9190613e6b565b60405161235d929190614253565b60405180910390a150565b612381828260405180602001604052805f815250612b18565b5050565b6001600781905550565b5f8373ffffffffffffffffffffffffffffffffffffffff163b1115612534578273ffffffffffffffffffffffffffffffffffffffff1663150b7a02868685856040518563ffffffff1660e01b81526004016123ed94939291906142cc565b6020604051808303815f875af192505050801561242857506040513d601f19601f82011682018060405250810190612425919061432a565b60015b6124a9573d805f8114612456576040519150601f19603f3d011682016040523d82523d5f602084013e61245b565b606091505b505f8151036124a157836040517f64a0ae92000000000000000000000000000000000000000000000000000000008152600401612498919061326f565b60405180910390fd5b805160208201fd5b63150b7a0260e01b7bffffffffffffffffffffffffffffffffffffffffffffffffffffffff1916817bffffffffffffffffffffffffffffffffffffffffffffffffffffffff19161461253257836040517f64a0ae92000000000000000000000000000000000000000000000000000000008152600401612529919061326f565b60405180910390fd5b505b5050505050565b606060405180602001604052805f815250905090565b60605f600161255f84612b3b565b0190505f8167ffffffffffffffff81111561257d5761257c613549565b5b6040519080825280601f01601f1916602001820160405280156125af5781602001600182028036833780820191505090505b5090505f82602083010190505b600115612610578080600190039150507f3031323334353637383961626364656600000000000000000000000000000000600a86061a8153600a858161260557612604614023565b5b0494505f85036125bc575b819350505050919050565b5f60025f8381526020019081526020015f205f9054906101000a900473ffffffffffffffffffffffffffffffffffffffff169050919050565b808061268c57505f73ffffffffffffffffffffffffffffffffffffffff168273ffffffffffffffffffffffffffffffffffffffff1614155b156127be575f61269b84611c77565b90505f73ffffffffffffffffffffffffffffffffffffffff168373ffffffffffffffffffffffffffffffffffffffff161415801561270557508273ffffffffffffffffffffffffffffffffffffffff168173ffffffffffffffffffffffffffffffffffffffff1614155b8015612718575061271681846117c9565b155b1561275a57826040517fa9fbf51f000000000000000000000000000000000000000000000000000000008152600401612751919061326f565b60405180910390fd5b81156127bc57838573ffffffffffffffffffffffffffffffffffffffff168273ffffffffffffffffffffffffffffffffffffffff167f8c5be1e5ebec7d5bd14f71427d1e84f3dd0314c0f7b2291e5b200ac8c7c3b92560405160405180910390a45b505b8360045f8581526020019081526020015f205f6101000a81548173ffffffffffffffffffffffffffffffffffffffff021916908373ffffffffffffffffffffffffffffffffffffffff16021790555050505050565b5f5f61281e8461261b565b90505f73ffffffffffffffffffffffffffffffffffffffff168373ffffffffffffffffffffffffffffffffffffffff161461285f5761285e818486612c8c565b5b5f73ffffffffffffffffffffffffffffffffffffffff168173ffffffffffffffffffffffffffffffffffffffff16146128ea5761289e5f855f5f612654565b600160035f8373ffffffffffffffffffffffffffffffffffffffff1673ffffffffffffffffffffffffffffffffffffffff1681526020019081526020015f205f82825403925050819055505b5f73ffffffffffffffffffffffffffffffffffffffff168573ffffffffffffffffffffffffffffffffffffffff161461296957600160035f8773ffffffffffffffffffffffffffffffffffffffff1673ffffffffffffffffffffffffffffffffffffffff1681526020019081526020015f205f82825401925050819055505b8460025f8681526020019081526020015f205f6101000a81548173ffffffffffffffffffffffffffffffffffffffff021916908373ffffffffffffffffffffffffffffffffffffffff160217905550838573ffffffffffffffffffffffffffffffffffffffff168273ffffffffffffffffffffffffffffffffffffffff167fddf252ad1be2c89b69c2b068fc378daa952ba7f163c4a11628f55a4df523b3ef60405160405180910390a4809150509392505050565b5f600a5f8473ffffffffffffffffffffffffffffffffffffffff1673ffffffffffffffffffffffffffffffffffffffff1681526020019081526020015f2090505f5f90505b8180549050811015612b125782828281548110612a8357612a82613764565b5b905f5260205f20015403612b05578160018380549050612aa39190614355565b81548110612ab457612ab3613764565b5b905f5260205f200154828281548110612ad057612acf613764565b5b905f5260205f20018190555081805480612aed57612aec614388565b5b600190038181905f5260205f20015f90559055612b12565b8080600101915050612a63565b50505050565b612b228383612d4f565b612b36612b2d611d36565b5f85858561238f565b505050565b5f5f5f90507a184f03e93ff9f4daa797ed6e38ed64bf6a1f0100000000000000008310612b97577a184f03e93ff9f4daa797ed6e38ed64bf6a1f0100000000000000008381612b8d57612b8c614023565b5b0492506040810190505b6d04ee2d6d415b85acef81000000008310612bd4576d04ee2d6d415b85acef81000000008381612bca57612bc9614023565b5b0492506020810190505b662386f26fc100008310612c0357662386f26fc100008381612bf957612bf8614023565b5b0492506010810190505b6305f5e1008310612c2c576305f5e1008381612c2257612c21614023565b5b0492506008810190505b6127108310612c51576127108381612c4757612c46614023565b5b0492506004810190505b60648310612c745760648381612c6a57612c69614023565b5b0492506002810190505b600a8310612c83576001810190505b80915050919050565b612c97838383612e42565b612d4a575f73ffffffffffffffffffffffffffffffffffffffff168373ffffffffffffffffffffffffffffffffffffffff1603612d0b57806040517f7e273289000000000000000000000000000000000000000000000000000000008152600401612d029190612f1a565b60405180910390fd5b81816040517f177e802f000000000000000000000000000000000000000000000000000000008152600401612d419291906141c4565b60405180910390fd5b505050565b5f73ffffffffffffffffffffffffffffffffffffffff168273ffffffffffffffffffffffffffffffffffffffff1603612dbf575f6040517f64a0ae92000000000000000000000000000000000000000000000000000000008152600401612db6919061326f565b60405180910390fd5b5f612dcb83835f611d4f565b90505f73ffffffffffffffffffffffffffffffffffffffff168173ffffffffffffffffffffffffffffffffffffffff1614612e3d575f6040517f73c6ac6e000000000000000000000000000000000000000000000000000000008152600401612e34919061326f565b60405180910390fd5b505050565b5f5f73ffffffffffffffffffffffffffffffffffffffff168373ffffffffffffffffffffffffffffffffffffffff1614158015612ef957508273ffffffffffffffffffffffffffffffffffffffff168473ffffffffffffffffffffffffffffffffffffffff161480612eba5750612eb984846117c9565b5b80612ef857508273ffffffffffffffffffffffffffffffffffffffff16612ee083611cfd565b73ffffffffffffffffffffffffffffffffffffffff16145b5b90509392505050565b5f819050919050565b612f1481612f02565b82525050565b5f602082019050612f2d5f830184612f0b565b92915050565b5f604051905090565b5f5ffd5b5f5ffd5b5f6fffffffffffffffffffffffffffffffff82169050919050565b612f6881612f44565b8114612f72575f5ffd5b50565b5f81359050612f8381612f5f565b92915050565b5f73ffffffffffffffffffffffffffffffffffffffff82169050919050565b5f612fb282612f89565b9050919050565b612fc281612fa8565b8114612fcc575f5ffd5b50565b5f81359050612fdd81612fb9565b92915050565b5f5ffd5b5f5ffd5b5f5ffd5b5f5f83601f84011261300457613003612fe3565b5b8235905067ffffffffffffffff81111561302157613020612fe7565b5b60208301915083602082028301111561303d5761303c612feb565b5b9250929050565b5f5f5f5f5f6080868803121561305d5761305c612f3c565b5b5f61306a88828901612f75565b955050602061307b88828901612fcf565b945050604061308c88828901612fcf565b935050606086013567ffffffffffffffff8111156130ad576130ac612f40565b5b6130b988828901612fef565b92509250509295509295909350565b5f7fffffffff0000000000000000000000000000000000000000000000000000000082169050919050565b6130fc816130c8565b8114613106575f5ffd5b50565b5f81359050613117816130f3565b92915050565b5f6020828403121561313257613131612f3c565b5b5f61313f84828501613109565b91505092915050565b5f8115159050919050565b61315c81613148565b82525050565b5f6020820190506131755f830184613153565b92915050565b5f81519050919050565b5f82825260208201905092915050565b8281835e5f83830152505050565b5f601f19601f8301169050919050565b5f6131bd8261317b565b6131c78185613185565b93506131d7818560208601613195565b6131e0816131a3565b840191505092915050565b5f6020820190508181035f83015261320381846131b3565b905092915050565b61321481612f02565b811461321e575f5ffd5b50565b5f8135905061322f8161320b565b92915050565b5f6020828403121561324a57613249612f3c565b5b5f61325784828501613221565b91505092915050565b61326981612fa8565b82525050565b5f6020820190506132825f830184613260565b92915050565b5f5f6040838503121561329e5761329d612f3c565b5b5f6132ab85828601612fcf565b92505060206132bc85828601613221565b9150509250929050565b5f60a0820190506132d95f830188612f0b565b6132e66020830187613260565b6132f36040830186612f0b565b6133006060830185612f0b565b61330d6080830184613153565b9695505050505050565b5f5f5f6060848603121561332e5761332d612f3c565b5b5f61333b86828701612fcf565b935050602061334c86828701612fcf565b925050604061335d86828701613221565b9150509250925092565b5f6020828403121561337c5761337b612f3c565b5b5f61338984828501612fcf565b91505092915050565b5f81519050919050565b5f82825260208201905092915050565b5f819050602082019050919050565b6133c481612f02565b82525050565b5f6133d583836133bb565b60208301905092915050565b5f602082019050919050565b5f6133f782613392565b613401818561339c565b935061340c836133ac565b805f5b8381101561343c57815161342388826133ca565b975061342e836133e1565b92505060018101905061340f565b5085935050505092915050565b5f6020820190508181035f83015261346181846133ed565b905092915050565b5f819050919050565b5f61348c61348761348284612f89565b613469565b612f89565b9050919050565b5f61349d82613472565b9050919050565b5f6134ae82613493565b9050919050565b6134be816134a4565b82525050565b5f6020820190506134d75f8301846134b5565b92915050565b6134e681613148565b81146134f0575f5ffd5b50565b5f81359050613501816134dd565b92915050565b5f5f6040838503121561351d5761351c612f3c565b5b5f61352a85828601612fcf565b925050602061353b858286016134f3565b9150509250929050565b5f5ffd5b7f4e487b71000000000000000000000000000000000000000000000000000000005f52604160045260245ffd5b61357f826131a3565b810181811067ffffffffffffffff8211171561359e5761359d613549565b5b80604052505050565b5f6135b0612f33565b90506135bc8282613576565b919050565b5f67ffffffffffffffff8211156135db576135da613549565b5b6135e4826131a3565b9050602081019050919050565b828183375f83830152505050565b5f61361161360c846135c1565b6135a7565b90508281526020810184848401111561362d5761362c613545565b5b6136388482856135f1565b509392505050565b5f82601f83011261365457613653612fe3565b5b81356136648482602086016135ff565b91505092915050565b5f5f5f5f6080858703121561368557613684612f3c565b5b5f61369287828801612fcf565b94505060206136a387828801612fcf565b93505060406136b487828801613221565b925050606085013567ffffffffffffffff8111156136d5576136d4612f40565b5b6136e187828801613640565b91505092959194509250565b5f6136f782613493565b9050919050565b613707816136ed565b82525050565b5f6020820190506137205f8301846136fe565b92915050565b5f5f6040838503121561373c5761373b612f3c565b5b5f61374985828601612fcf565b925050602061375a85828601612fcf565b9150509250929050565b7f4e487b71000000000000000000000000000000000000000000000000000000005f52603260045260245ffd5b5f6137ab6137a66137a184612f44565b613469565b612f02565b9050919050565b6137bb81613791565b82525050565b5f5ffd5b82818337505050565b5f6137d9838561339c565b93507f07ffffffffffffffffffffffffffffffffffffffffffffffffffffffffffffff83111561380c5761380b6137c1565b5b60208302925061381d8385846137c5565b82840190509392505050565b5f60808201905061383c5f8301886137b2565b6138496020830187613260565b6138566040830186613260565b81810360608301526138698184866137ce565b90509695505050505050565b7f4e487b71000000000000000000000000000000000000000000000000000000005f52602260045260245ffd5b5f60028204905060018216806138b957607f821691505b6020821081036138cc576138cb613875565b5b50919050565b5f6060820190506138e55f830186613260565b6138f26020830185612f0b565b6138ff6040830184613260565b949350505050565b7f4e487b71000000000000000000000000000000000000000000000000000000005f52601160045260245ffd5b5f61393e82612f02565b91507fffffffffffffffffffffffffffffffffffffffffffffffffffffffffffffffff82036139705761396f613907565b5b600182019050919050565b5f5ffd5b5f5ffd5b5f815190506139918161320b565b92915050565b5f815190506139a581612fb9565b92915050565b600481106139b7575f5ffd5b50565b5f815190506139c8816139ab565b92915050565b5f61018082840312156139e4576139e361397b565b5b6139ef6101806135a7565b90505f6139fe84828501613983565b5f830152506020613a1184828501613997565b6020830152506040613a2584828501613997565b6040830152506060613a3984828501613983565b6060830152506080613a4d84828501613983565b60808301525060a0613a6184828501613983565b60a08301525060c0613a7584828501613983565b60c08301525060e0613a8984828501613983565b60e083015250610100613a9e84828501613983565b61010083015250610120613ab4848285016139ba565b61012083015250610140613aca84828501613997565b61014083015250610160613ae084828501613983565b6101608301525092915050565b5f6101808284031215613b0357613b02612f3c565b5b5f613b10848285016139ce565b91505092915050565b7f4e6f74207468652077696e6e65720000000000000000000000000000000000005f82015250565b5f613b4d600e83613185565b9150613b5882613b19565b602082019050919050565b5f6020820190508181035f830152613b7a81613b41565b9050919050565b5f606082019050613b945f830186612f0b565b613ba16020830185613260565b613bae6040830184613260565b949350505050565b5f67ffffffffffffffff821115613bd057613bcf613549565b5b602082029050602081019050919050565b5f613bf3613bee84613bb6565b6135a7565b90508083825260208201905060208402830185811115613c1657613c15612feb565b5b835b81811015613c3f5780613c2b8882613983565b845260208401935050602081019050613c18565b5050509392505050565b5f82601f830112613c5d57613c5c612fe3565b5b8151613c6d848260208601613be1565b91505092915050565b5f81519050613c84816134dd565b92915050565b5f60c08284031215613c9f57613c9e61397b565b5b613ca960c06135a7565b90505f613cb884828501613983565b5f830152506020613ccb84828501613997565b6020830152506040613cdf84828501613997565b604083015250606082015167ffffffffffffffff811115613d0357613d0261397f565b5b613d0f84828501613c49565b6060830152506080613d2384828501613c76565b60808301525060a0613d3784828501613c76565b60a08301525092915050565b5f60208284031215613d5857613d57612f3c565b5b5f82015167ffffffffffffffff811115613d7557613d74612f40565b5b613d8184828501613c8a565b91505092915050565b7f4e6f20616c6c6f636174696f6e20666f756e64000000000000000000000000005f82015250565b5f613dbe601383613185565b9150613dc982613d8a565b602082019050919050565b5f6020820190508181035f830152613deb81613db2565b9050919050565b5f604082019050613e055f830185612f0b565b613e126020830184613260565b9392505050565b5f60208284031215613e2e57613e2d612f3c565b5b5f613e3b84828501613997565b91505092915050565b5f604082019050613e575f830185613260565b613e646020830184613260565b9392505050565b5f60208284031215613e8057613e7f612f3c565b5b5f613e8d84828501613983565b91505092915050565b7f496e73756666696369656e74204d454d4520746f6b656e7300000000000000005f82015250565b5f613eca601883613185565b9150613ed582613e96565b602082019050919050565b5f6020820190508181035f830152613ef781613ebe565b9050919050565b5f606082019050613f115f830186613260565b613f1e6020830185613260565b613f2b6040830184612f0b565b949350505050565b5f60208284031215613f4857613f47612f3c565b5b5f613f5584828501613c76565b91505092915050565b7f5472616e73666572206661696c656400000000000000000000000000000000005f82015250565b5f613f92600f83613185565b9150613f9d82613f5e565b602082019050919050565b5f6020820190508181035f830152613fbf81613f86565b9050919050565b5f81905092915050565b5f613fda8261317b565b613fe48185613fc6565b9350613ff4818560208601613195565b80840191505092915050565b5f61400b8285613fd0565b91506140178284613fd0565b91508190509392505050565b7f4e487b71000000000000000000000000000000000000000000000000000000005f52601260045260245ffd5b5f61405a82612f02565b915061406583612f02565b92508261407557614074614023565b5b828204905092915050565b5f61408a82612f02565b915061409583612f02565b92508282026140a381612f02565b915082820484148315176140ba576140b9613907565b5b5092915050565b5f6140cb82612f02565b91506140d683612f02565b92508282019050808211156140ee576140ed613907565b5b92915050565b7f4e465420646f6573206e6f7420657869737400000000000000000000000000005f82015250565b5f614128601283613185565b9150614133826140f4565b602082019050919050565b5f6020820190508181035f8301526141558161411c565b9050919050565b7f4e465420616c726561647920616c6c6f636174656400000000000000000000005f82015250565b5f614190601583613185565b915061419b8261415c565b602082019050919050565b5f6020820190508181035f8301526141bd81614184565b9050919050565b5f6040820190506141d75f830185613260565b6141e46020830184612f0b565b9392505050565b7f4275726e206661696c65640000000000000000000000000000000000000000005f82015250565b5f61421f600b83613185565b915061422a826141eb565b602082019050919050565b5f6020820190508181035f83015261424c81614213565b9050919050565b5f6040820190506142665f830185612f0b565b6142736020830184612f0b565b9392505050565b5f81519050919050565b5f82825260208201905092915050565b5f61429e8261427a565b6142a88185614284565b93506142b8818560208601613195565b6142c1816131a3565b840191505092915050565b5f6080820190506142df5f830187613260565b6142ec6020830186613260565b6142f96040830185612f0b565b818103606083015261430b8184614294565b905095945050505050565b5f81519050614324816130f3565b92915050565b5f6020828403121561433f5761433e612f3c565b5b5f61434c84828501614316565b91505092915050565b5f61435f82612f02565b915061436a83612f02565b925082820390508181111561438257614381613907565b5b92915050565b7f4e487b71000000000000000000000000000000000000000000000000000000005f52603160045260245ffdfea264697066735822122004236e5302b3415559ddb37876eafc5906df6086332c5281499fe0ea3f5b228f64736f6c634300081c0033",
  "linkReferences": {},
  "deployedLinkReferences": {},
  "immutableReferences": {
    "13690": [
      {
        "length": 32,
        "start": 4217
      },
      {
        "length": 32,
        "start": 5722
      },
      {
        "length": 32,
        "start": 6235
      },
      {
        "length": 32,
        "start": 8857
      }
    ],
    "13693": [
      {
        "length": 32,
        "start": 1694
      },
      {
        "length": 32,
        "start": 3187
      },
      {
        "length": 32,
        "start": 3495
      },
      {
        "length": 32,
        "start": 3798
      },
      {
        "length": 32,
        "start": 4062
      }
    ],
    "13695": [
      {
        "length": 32,
        "start": 2353
      },
      {
        "length": 32,
        "start": 3650
      },
      {
        "length": 32,
        "start": 3860
      },
      {
        "length": 32,
        "start": 4386
      },
      {
        "length": 32,
        "start": 4796
      },
      {
        "length": 32,
        "start": 5013
      },
      {
        "length": 32,
        "start": 6295
      },
      {
        "length": 32,
        "start": 8605
      },
      {
        "length": 32,
        "start": 8917
      }
    ]
  },
  "inputSourceName": "project/contracts/MemedWarriorNFT.sol",
  "buildInfoId": "solc-0_8_28-8a335b4dbecdf22c2c747ce20952671aee752173"
}