{
  "_format": "hh3-artifact-1",
  "contractName": "MemedWarriorNFT",
  "sourceName": "contracts/MemedWarriorNFT.sol",
  "abi": [
    {
      "inputs": [
        {
          "internalType": "address",
          "name": "_memedToken",
          "type": "address"
        },
        {
          "internalType": "address",
          "name": "_memedBattle",
          "type": "address"
        },
        {
          "internalType": "address",
          "name": "_factory",
          "type": "address"
        }
      ],
      "stateMutability": "nonpayable",
      "type": "constructor"
    },
    {
      "inputs": [
        {
          "internalType": "address",
          "name": "sender",
          "type": "address"
        },
        {
          "internalType": "uint256",
          "name": "tokenId",
          "type": "uint256"
        },
        {
          "internalType": "address",
          "name": "owner",
          "type": "address"
        }
      ],
      "name": "ERC721IncorrectOwner",
      "type": "error"
    },
    {
      "inputs": [
        {
          "internalType": "address",
          "name": "operator",
          "type": "address"
        },
        {
          "internalType": "uint256",
          "name": "tokenId",
          "type": "uint256"
        }
      ],
      "name": "ERC721InsufficientApproval",
      "type": "error"
    },
    {
      "inputs": [
        {
          "internalType": "address",
          "name": "approver",
          "type": "address"
        }
      ],
      "name": "ERC721InvalidApprover",
      "type": "error"
    },
    {
      "inputs": [
        {
          "internalType": "address",
          "name": "operator",
          "type": "address"
        }
      ],
      "name": "ERC721InvalidOperator",
      "type": "error"
    },
    {
      "inputs": [
        {
          "internalType": "address",
          "name": "owner",
          "type": "address"
        }
      ],
      "name": "ERC721InvalidOwner",
      "type": "error"
    },
    {
      "inputs": [
        {
          "internalType": "address",
          "name": "receiver",
          "type": "address"
        }
      ],
      "name": "ERC721InvalidReceiver",
      "type": "error"
    },
    {
      "inputs": [
        {
          "internalType": "address",
          "name": "sender",
          "type": "address"
        }
      ],
      "name": "ERC721InvalidSender",
      "type": "error"
    },
    {
      "inputs": [
        {
          "internalType": "uint256",
          "name": "tokenId",
          "type": "uint256"
        }
      ],
      "name": "ERC721NonexistentToken",
      "type": "error"
    },
    {
      "inputs": [
        {
          "internalType": "address",
          "name": "owner",
          "type": "address"
        }
      ],
      "name": "OwnableInvalidOwner",
      "type": "error"
    },
    {
      "inputs": [
        {
          "internalType": "address",
          "name": "account",
          "type": "address"
        }
      ],
      "name": "OwnableUnauthorizedAccount",
      "type": "error"
    },
    {
      "inputs": [],
      "name": "ReentrancyGuardReentrantCall",
      "type": "error"
    },
    {
      "anonymous": false,
      "inputs": [
        {
          "indexed": true,
          "internalType": "address",
          "name": "owner",
          "type": "address"
        },
        {
          "indexed": true,
          "internalType": "address",
          "name": "approved",
          "type": "address"
        },
        {
          "indexed": true,
          "internalType": "uint256",
          "name": "tokenId",
          "type": "uint256"
        }
      ],
      "name": "Approval",
      "type": "event"
    },
    {
      "anonymous": false,
      "inputs": [
        {
          "indexed": true,
          "internalType": "address",
          "name": "owner",
          "type": "address"
        },
        {
          "indexed": true,
          "internalType": "address",
          "name": "operator",
          "type": "address"
        },
        {
          "indexed": false,
          "internalType": "bool",
          "name": "approved",
          "type": "bool"
        }
      ],
      "name": "ApprovalForAll",
      "type": "event"
    },
    {
      "anonymous": false,
      "inputs": [
        {
          "indexed": true,
          "internalType": "address",
          "name": "previousOwner",
          "type": "address"
        },
        {
          "indexed": true,
          "internalType": "address",
          "name": "newOwner",
          "type": "address"
        }
      ],
      "name": "OwnershipTransferred",
      "type": "event"
    },
    {
      "anonymous": false,
      "inputs": [
        {
          "indexed": false,
          "internalType": "uint256",
          "name": "amount",
          "type": "uint256"
        },
        {
          "indexed": false,
          "internalType": "uint256",
          "name": "totalPlatformHeat",
          "type": "uint256"
        }
      ],
      "name": "TokensBurned",
      "type": "event"
    },
    {
      "anonymous": false,
      "inputs": [
        {
          "indexed": true,
          "internalType": "address",
          "name": "from",
          "type": "address"
        },
        {
          "indexed": true,
          "internalType": "address",
          "name": "to",
          "type": "address"
        },
        {
          "indexed": true,
          "internalType": "uint256",
          "name": "tokenId",
          "type": "uint256"
        }
      ],
      "name": "Transfer",
      "type": "event"
    },
    {
      "anonymous": false,
      "inputs": [
        {
          "indexed": true,
          "internalType": "uint256",
          "name": "tokenId",
          "type": "uint256"
        },
        {
          "indexed": true,
          "internalType": "address",
          "name": "owner",
          "type": "address"
        }
      ],
      "name": "WarriorAllocated",
      "type": "event"
    },
    {
      "anonymous": false,
      "inputs": [
        {
          "indexed": true,
          "internalType": "uint256",
          "name": "tokenId",
          "type": "uint256"
        },
        {
          "indexed": true,
          "internalType": "address",
          "name": "owner",
          "type": "address"
        }
      ],
      "name": "WarriorGetBack",
      "type": "event"
    },
    {
      "anonymous": false,
      "inputs": [
        {
          "indexed": true,
          "internalType": "uint256",
          "name": "tokenId",
          "type": "uint256"
        },
        {
          "indexed": true,
          "internalType": "address",
          "name": "owner",
          "type": "address"
        },
        {
          "indexed": false,
          "internalType": "uint256",
          "name": "price",
          "type": "uint256"
        }
      ],
      "name": "WarriorMinted",
      "type": "event"
    },
    {
      "inputs": [],
      "name": "BASE_PRICE",
      "outputs": [
        {
          "internalType": "uint256",
          "name": "",
          "type": "uint256"
        }
      ],
      "stateMutability": "view",
      "type": "function"
    },
    {
      "inputs": [],
      "name": "HEAT_THRESHOLD",
      "outputs": [
        {
          "internalType": "uint256",
          "name": "",
          "type": "uint256"
        }
      ],
      "stateMutability": "view",
      "type": "function"
    },
    {
      "inputs": [],
      "name": "PRICE_INCREMENT",
      "outputs": [
        {
          "internalType": "uint256",
          "name": "",
          "type": "uint256"
        }
      ],
      "stateMutability": "view",
      "type": "function"
    },
    {
      "inputs": [
        {
          "internalType": "address",
          "name": "_user",
          "type": "address"
        },
        {
          "internalType": "uint256[]",
          "name": "_nftsIds",
          "type": "uint256[]"
        }
      ],
      "name": "allocateNFTsToBattle",
      "outputs": [],
      "stateMutability": "nonpayable",
      "type": "function"
    },
    {
      "inputs": [
        {
          "internalType": "address",
          "name": "to",
          "type": "address"
        },
        {
          "internalType": "uint256",
          "name": "tokenId",
          "type": "uint256"
        }
      ],
      "name": "approve",
      "outputs": [],
      "stateMutability": "nonpayable",
      "type": "function"
    },
    {
      "inputs": [
        {
          "internalType": "address",
          "name": "owner",
          "type": "address"
        }
      ],
      "name": "balanceOf",
      "outputs": [
        {
          "internalType": "uint256",
          "name": "",
          "type": "uint256"
        }
      ],
      "stateMutability": "view",
      "type": "function"
    },
    {
      "inputs": [],
      "name": "currentTokenId",
      "outputs": [
        {
          "internalType": "uint256",
          "name": "",
          "type": "uint256"
        }
      ],
      "stateMutability": "view",
      "type": "function"
    },
    {
      "inputs": [],
      "name": "factory",
      "outputs": [
        {
          "internalType": "contract IMemedFactory",
          "name": "",
          "type": "address"
        }
      ],
      "stateMutability": "view",
      "type": "function"
    },
    {
      "inputs": [
        {
          "internalType": "uint256",
          "name": "tokenId",
          "type": "uint256"
        }
      ],
      "name": "getApproved",
      "outputs": [
        {
          "internalType": "address",
          "name": "",
          "type": "address"
        }
      ],
      "stateMutability": "view",
      "type": "function"
    },
    {
      "inputs": [
        {
          "internalType": "uint256",
          "name": "_nftId",
          "type": "uint256"
        }
      ],
      "name": "getBackWarrior",
      "outputs": [],
      "stateMutability": "nonpayable",
      "type": "function"
    },
    {
      "inputs": [],
      "name": "getCurrentPrice",
      "outputs": [
        {
          "internalType": "uint256",
          "name": "",
          "type": "uint256"
        }
      ],
      "stateMutability": "view",
      "type": "function"
    },
    {
      "inputs": [
        {
          "internalType": "address",
          "name": "_user",
          "type": "address"
        }
      ],
      "name": "getUserActiveNFTs",
      "outputs": [
        {
          "internalType": "uint256[]",
          "name": "",
          "type": "uint256[]"
        }
      ],
      "stateMutability": "view",
      "type": "function"
    },
    {
      "inputs": [
        {
          "internalType": "address",
          "name": "_user",
          "type": "address"
        },
        {
          "internalType": "uint256",
          "name": "_timestamp",
          "type": "uint256"
        }
      ],
      "name": "getWarriorMintedBeforeByUser",
      "outputs": [
        {
          "internalType": "uint256[]",
          "name": "",
          "type": "uint256[]"
        }
      ],
      "stateMutability": "view",
      "type": "function"
    },
    {
      "inputs": [
        {
          "internalType": "address",
          "name": "_user",
          "type": "address"
        }
      ],
      "name": "hasActiveWarrior",
      "outputs": [
        {
          "internalType": "bool",
          "name": "",
          "type": "bool"
        }
      ],
      "stateMutability": "view",
      "type": "function"
    },
    {
      "inputs": [
        {
          "internalType": "address",
          "name": "owner",
          "type": "address"
        },
        {
          "internalType": "address",
          "name": "operator",
          "type": "address"
        }
      ],
      "name": "isApprovedForAll",
      "outputs": [
        {
          "internalType": "bool",
          "name": "",
          "type": "bool"
        }
      ],
      "stateMutability": "view",
      "type": "function"
    },
    {
      "inputs": [],
      "name": "memedBattle",
      "outputs": [
        {
          "internalType": "contract IMemedBattle",
          "name": "",
          "type": "address"
        }
      ],
      "stateMutability": "view",
      "type": "function"
    },
    {
      "inputs": [],
      "name": "memedToken",
      "outputs": [
        {
          "internalType": "address",
          "name": "",
          "type": "address"
        }
      ],
      "stateMutability": "view",
      "type": "function"
    },
    {
      "inputs": [],
      "name": "mintWarrior",
      "outputs": [
        {
          "internalType": "uint256",
          "name": "",
          "type": "uint256"
        }
      ],
      "stateMutability": "nonpayable",
      "type": "function"
    },
    {
      "inputs": [],
      "name": "name",
      "outputs": [
        {
          "internalType": "string",
          "name": "",
          "type": "string"
        }
      ],
      "stateMutability": "view",
      "type": "function"
    },
    {
      "inputs": [],
      "name": "owner",
      "outputs": [
        {
          "internalType": "address",
          "name": "",
          "type": "address"
        }
      ],
      "stateMutability": "view",
      "type": "function"
    },
    {
      "inputs": [
        {
          "internalType": "uint256",
          "name": "tokenId",
          "type": "uint256"
        }
      ],
      "name": "ownerOf",
      "outputs": [
        {
          "internalType": "address",
          "name": "",
          "type": "address"
        }
      ],
      "stateMutability": "view",
      "type": "function"
    },
    {
      "inputs": [],
      "name": "renounceOwnership",
      "outputs": [],
      "stateMutability": "nonpayable",
      "type": "function"
    },
    {
      "inputs": [
        {
          "internalType": "address",
          "name": "from",
          "type": "address"
        },
        {
          "internalType": "address",
          "name": "to",
          "type": "address"
        },
        {
          "internalType": "uint256",
          "name": "tokenId",
          "type": "uint256"
        }
      ],
      "name": "safeTransferFrom",
      "outputs": [],
      "stateMutability": "nonpayable",
      "type": "function"
    },
    {
      "inputs": [
        {
          "internalType": "address",
          "name": "from",
          "type": "address"
        },
        {
          "internalType": "address",
          "name": "to",
          "type": "address"
        },
        {
          "internalType": "uint256",
          "name": "tokenId",
          "type": "uint256"
        },
        {
          "internalType": "bytes",
          "name": "data",
          "type": "bytes"
        }
      ],
      "name": "safeTransferFrom",
      "outputs": [],
      "stateMutability": "nonpayable",
      "type": "function"
    },
    {
      "inputs": [
        {
          "internalType": "address",
          "name": "operator",
          "type": "address"
        },
        {
          "internalType": "bool",
          "name": "approved",
          "type": "bool"
        }
      ],
      "name": "setApprovalForAll",
      "outputs": [],
      "stateMutability": "nonpayable",
      "type": "function"
    },
    {
      "inputs": [
        {
          "internalType": "bytes4",
          "name": "interfaceId",
          "type": "bytes4"
        }
      ],
      "name": "supportsInterface",
      "outputs": [
        {
          "internalType": "bool",
          "name": "",
          "type": "bool"
        }
      ],
      "stateMutability": "view",
      "type": "function"
    },
    {
      "inputs": [],
      "name": "symbol",
      "outputs": [
        {
          "internalType": "string",
          "name": "",
          "type": "string"
        }
      ],
      "stateMutability": "view",
      "type": "function"
    },
    {
      "inputs": [
        {
          "internalType": "uint256",
          "name": "tokenId",
          "type": "uint256"
        }
      ],
      "name": "tokenURI",
      "outputs": [
        {
          "internalType": "string",
          "name": "",
          "type": "string"
        }
      ],
      "stateMutability": "view",
      "type": "function"
    },
    {
      "inputs": [
        {
          "internalType": "address",
          "name": "from",
          "type": "address"
        },
        {
          "internalType": "address",
          "name": "to",
          "type": "address"
        },
        {
          "internalType": "uint256",
          "name": "tokenId",
          "type": "uint256"
        }
      ],
      "name": "transferFrom",
      "outputs": [],
      "stateMutability": "nonpayable",
      "type": "function"
    },
    {
      "inputs": [
        {
          "internalType": "address",
          "name": "newOwner",
          "type": "address"
        }
      ],
      "name": "transferOwnership",
      "outputs": [],
      "stateMutability": "nonpayable",
      "type": "function"
    },
    {
      "inputs": [
        {
          "internalType": "address",
          "name": "",
          "type": "address"
        },
        {
          "internalType": "uint256",
          "name": "",
          "type": "uint256"
        }
      ],
      "name": "userNFTs",
      "outputs": [
        {
          "internalType": "uint256",
          "name": "",
          "type": "uint256"
        }
      ],
      "stateMutability": "view",
      "type": "function"
    },
    {
      "inputs": [
        {
          "internalType": "uint256",
          "name": "",
          "type": "uint256"
        }
      ],
      "name": "warriors",
      "outputs": [
        {
          "internalType": "uint256",
          "name": "tokenId",
          "type": "uint256"
        },
        {
          "internalType": "address",
          "name": "owner",
          "type": "address"
        },
        {
          "internalType": "uint256",
          "name": "mintPrice",
          "type": "uint256"
        },
        {
          "internalType": "uint256",
          "name": "mintedAt",
          "type": "uint256"
        },
        {
          "internalType": "bool",
          "name": "allocated",
          "type": "bool"
        }
      ],
      "stateMutability": "view",
      "type": "function"
    }
  ],
  "bytecode": "0x60e060405234801561000f575f5ffd5b506040516125a83803806125a883398101604081905261002e91610157565b336040518060400160405280600d81526020016c26b2b6b2b2102bb0b93934b7b960991b815250604051806040016040528060078152602001662ba0a92924a7a960c91b815250815f9081610083919061022f565b506001610090828261022f565b5050506001600160a01b0381166100c057604051631e4fbdf760e01b81525f600482015260240160405180910390fd5b6100c9816100eb565b5060016007556001600160a01b0392831660c05282166080521660a0526102e9565b600680546001600160a01b038381166001600160a01b0319831681179093556040519116919082907f8be0079c531659141344cd1fd0a4f28419497f9722a3daafe3b4186f6b6457e0905f90a35050565b80516001600160a01b0381168114610152575f5ffd5b919050565b5f5f5f60608486031215610169575f5ffd5b6101728461013c565b92506101806020850161013c565b915061018e6040850161013c565b90509250925092565b634e487b7160e01b5f52604160045260245ffd5b600181811c908216806101bf57607f821691505b6020821081036101dd57634e487b7160e01b5f52602260045260245ffd5b50919050565b601f82111561022a57805f5260205f20601f840160051c810160208510156102085750805b601f840160051c820191505b81811015610227575f8155600101610214565b50505b505050565b81516001600160401b0381111561024857610248610197565b61025c8161025684546101ab565b846101e3565b6020601f82116001811461028e575f83156102775750848201515b5f19600385901b1c1916600184901b178455610227565b5f84815260208120601f198516915b828110156102bd578785015182556020948501946001909201910161029d565b50848210156102da57868401515f19600387901b60f8161c191681555b50505050600190811b01905550565b60805160a05160c0516122566103525f395f81816102fe01528181610c2101528181610d95015281816110c90152818161156e01526115da01525f8181610387015281816108c20152610c5201525f8181610459015281816110f5015261162801526122565ff3fe608060405234801561000f575f5ffd5b50600436106101e6575f3560e01c8063715018a611610109578063c45a01551161009e578063eb91d37e1161006e578063eb91d37e146104b4578063f2fde38b146104bc578063f696a428146104cf578063f86325ed146104e2575f5ffd5b8063c45a015514610454578063c87b56dd1461047b578063debc2f921461048e578063e985e9c5146104a1575f5ffd5b806395d89b41116100d957806395d89b411461041e578063a22cb46514610426578063b52ce8e614610439578063b88d4fde14610441575f5ffd5b8063715018a6146103df5780638da5cb5b146103e757806391386df3146103f857806394de22191461040b575f5ffd5b806323b872dd1161017f5780635153563b1161014f5780635153563b146103825780636352211e146103a95780636d25d802146103bc57806370a08231146103cc575f5ffd5b806323b872dd14610329578063291c73c31461033c5780632eb374061461034f57806342842e0e1461036f575f5ffd5b8063095ea7b3116101ba578063095ea7b3146102695780631a1707121461027e5780631b74c9e3146102f95780631df0cd1314610320575f5ffd5b80629a9b7b146101ea57806301ffc9a71461020657806306fdde0314610229578063081812fc1461023e575b5f5ffd5b6101f360085481565b6040519081526020015b60405180910390f35b610219610214366004611d57565b6104f3565b60405190151581526020016101fd565b610231610544565b6040516101fd9190611da0565b61025161024c366004611db2565b6105d3565b6040516001600160a01b0390911681526020016101fd565b61027c610277366004611de4565b6105fa565b005b6102c761028c366004611db2565b60096020525f90815260409020805460018201546002830154600384015460049094015492936001600160a01b039092169290919060ff1685565b604080519586526001600160a01b0390941660208601529284019190915260608301521515608082015260a0016101fd565b6102517f000000000000000000000000000000000000000000000000000000000000000081565b6101f361271081565b61027c610337366004611e0c565b610609565b6101f361034a366004611de4565b610697565b61036261035d366004611e46565b6106c2565b6040516101fd9190611e5f565b61027c61037d366004611e0c565b610836565b6102517f000000000000000000000000000000000000000000000000000000000000000081565b6102516103b7366004611db2565b610855565b6101f368056bc75e2d6310000081565b6101f36103da366004611e46565b61085f565b61027c6108a4565b6006546001600160a01b0316610251565b61027c610406366004611e96565b6108b7565b61027c610419366004611db2565b610b1c565b610231610d47565b61027c610434366004611f24565b610d56565b6101f3610d61565b61027c61044f366004611f6d565b610f59565b6102517f000000000000000000000000000000000000000000000000000000000000000081565b610231610489366004611db2565b610f71565b61021961049c366004611e46565b610fe2565b6102196104af36600461204a565b611085565b6101f36110b2565b61027c6104ca366004611e46565b61119e565b6103626104dd366004611de4565b6111db565b6101f369010f0cf064dd5920000081565b5f6001600160e01b031982166380ac58cd60e01b148061052357506001600160e01b03198216635b5e139f60e01b145b8061053e57506301ffc9a760e01b6001600160e01b03198316145b92915050565b60605f80546105529061207b565b80601f016020809104026020016040519081016040528092919081815260200182805461057e9061207b565b80156105c95780601f106105a0576101008083540402835291602001916105c9565b820191905f5260205f20905b8154815290600101906020018083116105ac57829003601f168201915b5050505050905090565b5f6105dd8261130f565b505f828152600460205260409020546001600160a01b031661053e565b610605828233611347565b5050565b6001600160a01b03821661063757604051633250574960e11b81525f60048201526024015b60405180910390fd5b5f610643838333611354565b9050836001600160a01b0316816001600160a01b031614610691576040516364283d7b60e01b81526001600160a01b038086166004830152602482018490528216604482015260640161062e565b50505050565b600a602052815f5260405f2081815481106106b0575f80fd5b905f5260205f20015f91509150505481565b6001600160a01b0381165f908152600a6020908152604080832080548251818502810185019093528083526060949383018282801561071e57602002820191905f5260205f20905b81548152602001906001019080831161070a575b509394505f935083925050505b825181101561077157610756838281518110610749576107496120b3565b60200260200101516113ee565b156107695781610765816120db565b9250505b60010161072b565b505f8167ffffffffffffffff81111561078c5761078c611f59565b6040519080825280602002602001820160405280156107b5578160200160208202803683370190505b5090505f805b845181101561082b576107d9858281518110610749576107496120b3565b15610823578481815181106107f0576107f06120b3565b602002602001015183838151811061080a5761080a6120b3565b60209081029190910101528161081f816120db565b9250505b6001016107bb565b509095945050505050565b61085083838360405180602001604052805f815250610f59565b505050565b5f61053e8261130f565b5f6001600160a01b038216610889576040516322718ad960e21b81525f600482015260240161062e565b506001600160a01b03165f9081526003602052604090205490565b6108ac611402565b6108b55f61142f565b565b336001600160a01b037f000000000000000000000000000000000000000000000000000000000000000016146109265760405162461bcd60e51b815260206004820152601460248201527313db9b1e4818985d1d1b194818dbdb9d1c9858dd60621b604482015260640161062e565b5f5b8181101561069157610951838383818110610945576109456120b3565b905060200201356113ee565b6109925760405162461bcd60e51b815260206004820152601260248201527113919508191bd95cc81b9bdd08195e1a5cdd60721b604482015260640161062e565b60095f8484848181106109a7576109a76120b3565b602090810292909201358352508101919091526040015f206004015460ff1615610a0b5760405162461bcd60e51b815260206004820152601560248201527413919508185b1c9958591e48185b1b1bd8d85d1959605a1b604482015260640161062e565b5f610a2d848484818110610a2157610a216120b3565b90506020020135610855565b9050846001600160a01b0316816001600160a01b031614610a805760405162461bcd60e51b815260206004820152600d60248201526c2737ba103a34329037bbb732b960991b604482015260640161062e565b600160095f868686818110610a9757610a976120b3565b9050602002013581526020019081526020015f206004015f6101000a81548160ff021916908315150217905550806001600160a01b0316848484818110610ae057610ae06120b3565b905060200201357fced437231aa98bcedae3308779b046af7bc82d93f3e58a096dc847c95b13af8060405160405180910390a350600101610928565b610b25816113ee565b610b665760405162461bcd60e51b815260206004820152601260248201527113919508191bd95cc81b9bdd08195e1a5cdd60721b604482015260640161062e565b33610b7082610855565b6001600160a01b031614610bb65760405162461bcd60e51b815260206004820152600d60248201526c2737ba103a34329037bbb732b960991b604482015260640161062e565b5f8181526009602052604090206004015460ff16610c0a5760405162461bcd60e51b8152602060048201526011602482015270139195081b9bdd08185b1b1bd8d85d1959607a1b604482015260640161062e565b604051635b6804b560e01b81526001600160a01b037f000000000000000000000000000000000000000000000000000000000000000081166004830152602482018390525f917f000000000000000000000000000000000000000000000000000000000000000090911690635b6804b5906044016040805180830381865afa158015610c98573d5f5f3e3d5ffd5b505050506040513d601f19601f82011682018060405250810190610cbc91906120f3565b91505080610d015760405162461bcd60e51b81526020600482015260126024820152714e4654206e6f742072657475726e61626c6560701b604482015260640161062e565b5f82815260096020526040808220600401805460ff1916905551339184917f7eca0018813579d62e1aa0322810239e3618dc43bf46040d9405855e18896f5a9190a35050565b6060600180546105529061207b565b610605338383611480565b5f610d6a61151e565b5f610d736110b2565b6040516370a0823160e01b815233600482015290915081906001600160a01b037f000000000000000000000000000000000000000000000000000000000000000016906370a0823190602401602060405180830381865afa158015610dda573d5f5f3e3d5ffd5b505050506040513d601f19601f82011682018060405250810190610dfe9190612117565b1015610e4c5760405162461bcd60e51b815260206004820152601860248201527f496e73756666696369656e74204d454d4520746f6b656e730000000000000000604482015260640161062e565b610e563382611548565b60088054905f610e65836120db565b9091555050600854610e7733826116ad565b6040805160a08101825282815233602080830182815283850187815242606086019081525f6080870181815289825260098652888220975188559351600180890180546001600160a01b0319166001600160a01b0390931692909217909155925160028801559051600387015591516004909501805460ff191695151595909517909455828152600a8252848120805494850181558152819020909201849055915184815283917f972b595ca48df89bdf5d8ed153814654b794988833678cd40cb375ff28bd87e4910160405180910390a3915050610f566001600755565b90565b610f64848484610609565b61069133858585856116c6565b6060610f7c8261130f565b505f610f9260408051602081019091525f815290565b90505f815111610fb05760405180602001604052805f815250610fdb565b80610fba846117ee565b604051602001610fcb929190612145565b6040516020818303038152906040525b9392505050565b6001600160a01b0381165f908152600a602090815260408083208054825181850281018501909352808352849383018282801561103c57602002820191905f5260205f20905b815481526020019060010190808311611028575b509394505f93505050505b815181101561107c57611065828281518110610749576107496120b3565b15611074575060019392505050565b600101611047565b505f9392505050565b6001600160a01b039182165f90815260056020908152604080832093909416825291909152205460ff1690565b60405163060da6a160e31b81526001600160a01b037f0000000000000000000000000000000000000000000000000000000000000000811660048301525f9182917f0000000000000000000000000000000000000000000000000000000000000000169063306d350890602401602060405180830381865afa15801561113a573d5f5f3e3d5ffd5b505050506040513d601f19601f8201168201806040525081019061115e9190612117565b90505f68056bc75e2d6310000061117761271084612159565b6111819190612178565b90506111978169010f0cf064dd5920000061218f565b9250505090565b6111a6611402565b6001600160a01b0381166111cf57604051631e4fbdf760e01b81525f600482015260240161062e565b6111d88161142f565b50565b6001600160a01b0382165f908152600a6020908152604080832080548251818502810185019093528083526060949383018282801561123757602002820191905f5260205f20905b815481526020019060010190808311611223575b505050505090505f815167ffffffffffffffff81111561125957611259611f59565b604051908082528060200260200182016040528015611282578160200160208202803683370190505b5090505f5b8251811015611306578460095f8584815181106112a6576112a66120b3565b602002602001015181526020019081526020015f206003015410156112fe578281815181106112d7576112d76120b3565b60200260200101518282815181106112f1576112f16120b3565b6020026020010181815250505b600101611287565b50949350505050565b5f818152600260205260408120546001600160a01b03168061053e57604051637e27328960e01b81526004810184905260240161062e565b610850838383600161187e565b5f5f611361858585611982565b90506001600160a01b0381161580159061138357506001600160a01b03851615155b156113e6575f84815260096020526040902060010180546001600160a01b0319166001600160a01b0387161790556113bb8185611a74565b6001600160a01b0385165f908152600a60209081526040822080546001810182559083529120018490555b949350505050565b5f5f8211801561053e575050600854101590565b6006546001600160a01b031633146108b55760405163118cdaa760e01b815233600482015260240161062e565b600680546001600160a01b038381166001600160a01b0319831681179093556040519116919082907f8be0079c531659141344cd1fd0a4f28419497f9722a3daafe3b4186f6b6457e0905f90a35050565b6001600160a01b0382166114b257604051630b61174360e31b81526001600160a01b038316600482015260240161062e565b6001600160a01b038381165f81815260056020908152604080832094871680845294825291829020805460ff191686151590811790915591519182527f17307eab39ab6107e8899845ad3d59bd9653f200f220920489ca2b5937696c31910160405180910390a3505050565b60026007540361154157604051633ee5aeb560e01b815260040160405180910390fd5b6002600755565b60405163079cc67960e41b81526001600160a01b038381166004830152602482018390527f000000000000000000000000000000000000000000000000000000000000000016906379cc6790906044015f604051808303815f87803b1580156115af575f5ffd5b505af11580156115c1573d5f5f3e3d5ffd5b505060405163060da6a160e31b81526001600160a01b037f0000000000000000000000000000000000000000000000000000000000000000811660048301527f8bc81353cf6671d259d22783e39ed930583c86f3f4cf7e981298e6a872dfb15d93508492507f0000000000000000000000000000000000000000000000000000000000000000169063306d350890602401602060405180830381865afa15801561166d573d5f5f3e3d5ffd5b505050506040513d601f19601f820116820180604052508101906116919190612117565b6040805192835260208301919091520160405180910390a15050565b610605828260405180602001604052805f815250611b2e565b6001600160a01b0383163b156117e757604051630a85bd0160e11b81526001600160a01b0384169063150b7a02906117089088908890879087906004016121a2565b6020604051808303815f875af1925050508015611742575060408051601f3d908101601f1916820190925261173f918101906121de565b60015b6117a9573d80801561176f576040519150601f19603f3d011682016040523d82523d5f602084013e611774565b606091505b5080515f036117a157604051633250574960e11b81526001600160a01b038516600482015260240161062e565b805160208201fd5b6001600160e01b03198116630a85bd0160e11b146117e557604051633250574960e11b81526001600160a01b038516600482015260240161062e565b505b5050505050565b60605f6117fa83611b45565b60010190505f8167ffffffffffffffff81111561181957611819611f59565b6040519080825280601f01601f191660200182016040528015611843576020820181803683370190505b5090508181016020015b5f19016f181899199a1a9b1b9c1cb0b131b232b360811b600a86061a8153600a850494508461184d57509392505050565b808061189257506001600160a01b03821615155b15611953575f6118a18461130f565b90506001600160a01b038316158015906118cd5750826001600160a01b0316816001600160a01b031614155b80156118e057506118de8184611085565b155b156119095760405163a9fbf51f60e01b81526001600160a01b038416600482015260240161062e565b81156119515783856001600160a01b0316826001600160a01b03167f8c5be1e5ebec7d5bd14f71427d1e84f3dd0314c0f7b2291e5b200ac8c7c3b92560405160405180910390a45b505b50505f90815260046020526040902080546001600160a01b0319166001600160a01b0392909216919091179055565b5f828152600260205260408120546001600160a01b03908116908316156119ae576119ae818486611c1c565b6001600160a01b038116156119e8576119c95f855f5f61187e565b6001600160a01b0381165f90815260036020526040902080545f190190555b6001600160a01b03851615611a16576001600160a01b0385165f908152600360205260409020805460010190555b5f8481526002602052604080822080546001600160a01b0319166001600160a01b0389811691821790925591518793918516917fddf252ad1be2c89b69c2b068fc378daa952ba7f163c4a11628f55a4df523b3ef91a4949350505050565b6001600160a01b0382165f908152600a60205260408120905b81548110156106915782828281548110611aa957611aa96120b3565b905f5260205f20015403611b265781548290611ac7906001906121f9565b81548110611ad757611ad76120b3565b905f5260205f200154828281548110611af257611af26120b3565b905f5260205f20018190555081805480611b0e57611b0e61220c565b600190038181905f5260205f20015f90559055610691565b600101611a8d565b611b388383611c80565b610850335f8585856116c6565b5f8072184f03e93ff9f4daa797ed6e38ed64bf6a1f0160401b8310611b835772184f03e93ff9f4daa797ed6e38ed64bf6a1f0160401b830492506040015b6d04ee2d6d415b85acef81000000008310611baf576d04ee2d6d415b85acef8100000000830492506020015b662386f26fc100008310611bcd57662386f26fc10000830492506010015b6305f5e1008310611be5576305f5e100830492506008015b6127108310611bf957612710830492506004015b60648310611c0b576064830492506002015b600a831061053e5760010192915050565b611c27838383611ce1565b610850576001600160a01b038316611c5557604051637e27328960e01b81526004810182905260240161062e565b60405163177e802f60e01b81526001600160a01b03831660048201526024810182905260440161062e565b6001600160a01b038216611ca957604051633250574960e11b81525f600482015260240161062e565b5f611cb583835f611354565b90506001600160a01b03811615610850576040516339e3563760e11b81525f600482015260240161062e565b5f6001600160a01b038316158015906113e65750826001600160a01b0316846001600160a01b03161480611d1a5750611d1a8484611085565b806113e65750505f908152600460205260409020546001600160a01b03908116911614919050565b6001600160e01b0319811681146111d8575f5ffd5b5f60208284031215611d67575f5ffd5b8135610fdb81611d42565b5f81518084528060208401602086015e5f602082860101526020601f19601f83011685010191505092915050565b602081525f610fdb6020830184611d72565b5f60208284031215611dc2575f5ffd5b5035919050565b80356001600160a01b0381168114611ddf575f5ffd5b919050565b5f5f60408385031215611df5575f5ffd5b611dfe83611dc9565b946020939093013593505050565b5f5f5f60608486031215611e1e575f5ffd5b611e2784611dc9565b9250611e3560208501611dc9565b929592945050506040919091013590565b5f60208284031215611e56575f5ffd5b610fdb82611dc9565b602080825282518282018190525f918401906040840190835b8181101561082b578351835260209384019390920191600101611e78565b5f5f5f60408486031215611ea8575f5ffd5b611eb184611dc9565b9250602084013567ffffffffffffffff811115611ecc575f5ffd5b8401601f81018613611edc575f5ffd5b803567ffffffffffffffff811115611ef2575f5ffd5b8660208260051b8401011115611f06575f5ffd5b939660209190910195509293505050565b80151581146111d8575f5ffd5b5f5f60408385031215611f35575f5ffd5b611f3e83611dc9565b91506020830135611f4e81611f17565b809150509250929050565b634e487b7160e01b5f52604160045260245ffd5b5f5f5f5f60808587031215611f80575f5ffd5b611f8985611dc9565b9350611f9760208601611dc9565b925060408501359150606085013567ffffffffffffffff811115611fb9575f5ffd5b8501601f81018713611fc9575f5ffd5b803567ffffffffffffffff811115611fe357611fe3611f59565b604051601f8201601f19908116603f0116810167ffffffffffffffff8111828210171561201257612012611f59565b604052818152828201602001891015612029575f5ffd5b816020840160208301375f6020838301015280935050505092959194509250565b5f5f6040838503121561205b575f5ffd5b61206483611dc9565b915061207260208401611dc9565b90509250929050565b600181811c9082168061208f57607f821691505b6020821081036120ad57634e487b7160e01b5f52602260045260245ffd5b50919050565b634e487b7160e01b5f52603260045260245ffd5b634e487b7160e01b5f52601160045260245ffd5b5f600182016120ec576120ec6120c7565b5060010190565b5f5f60408385031215612104575f5ffd5b82516020840151909250611f4e81611f17565b5f60208284031215612127575f5ffd5b5051919050565b5f81518060208401855e5f93019283525090919050565b5f6113e6612153838661212e565b8461212e565b5f8261217357634e487b7160e01b5f52601260045260245ffd5b500490565b808202811582820484141761053e5761053e6120c7565b8082018082111561053e5761053e6120c7565b6001600160a01b03858116825284166020820152604081018390526080606082018190525f906121d490830184611d72565b9695505050505050565b5f602082840312156121ee575f5ffd5b8151610fdb81611d42565b8181038181111561053e5761053e6120c7565b634e487b7160e01b5f52603160045260245ffdfea2646970667358221220d1ef1f922c2e75a2e4b02d8cd5acfb8aabe7a1c1dd68ec5d55c4655c5556cae464736f6c634300081c0033",
  "linkReferences": {},
  "deployedLinkReferences": {},
  "immutableReferences": {
    "14320": [
      {
        "length": 32,
        "start": 1113
      },
      {
        "length": 32,
        "start": 4341
      },
      {
        "length": 32,
        "start": 5672
      }
    ],
    "14323": [
      {
        "length": 32,
        "start": 903
      },
      {
        "length": 32,
        "start": 2242
      },
      {
        "length": 32,
        "start": 3154
      }
    ],
    "14325": [
      {
        "length": 32,
        "start": 766
      },
      {
        "length": 32,
        "start": 3105
      },
      {
        "length": 32,
        "start": 3477
      },
      {
        "length": 32,
        "start": 4297
      },
      {
        "length": 32,
        "start": 5486
      },
      {
        "length": 32,
        "start": 5594
      }
    ]
  },
  "inputSourceName": "project/contracts/MemedWarriorNFT.sol",
  "buildInfoId": "solc-0_8_28-a140a589261e9fcc41f3b15f41e6372e3f5527c7"
}