{
  "_format": "hh3-artifact-1",
  "contractName": "MemedToken",
  "sourceName": "contracts/MemedToken.sol",
  "abi": [
    {
      "inputs": [
        {
          "internalType": "string",
          "name": "_name",
          "type": "string"
        },
        {
          "internalType": "string",
          "name": "_ticker",
          "type": "string"
        },
        {
          "internalType": "address",
          "name": "_creator",
          "type": "address"
        },
        {
          "internalType": "address",
          "name": "_factoryContract",
          "type": "address"
        },
        {
          "internalType": "address",
          "name": "_engageToEarnContract",
          "type": "address"
        },
        {
          "internalType": "address",
          "name": "_memedTokenSale",
          "type": "address"
        }
      ],
      "stateMutability": "nonpayable",
      "type": "constructor"
    },
    {
      "inputs": [
        {
          "internalType": "address",
          "name": "spender",
          "type": "address"
        },
        {
          "internalType": "uint256",
          "name": "allowance",
          "type": "uint256"
        },
        {
          "internalType": "uint256",
          "name": "needed",
          "type": "uint256"
        }
      ],
      "name": "ERC20InsufficientAllowance",
      "type": "error"
    },
    {
      "inputs": [
        {
          "internalType": "address",
          "name": "sender",
          "type": "address"
        },
        {
          "internalType": "uint256",
          "name": "balance",
          "type": "uint256"
        },
        {
          "internalType": "uint256",
          "name": "needed",
          "type": "uint256"
        }
      ],
      "name": "ERC20InsufficientBalance",
      "type": "error"
    },
    {
      "inputs": [
        {
          "internalType": "address",
          "name": "approver",
          "type": "address"
        }
      ],
      "name": "ERC20InvalidApprover",
      "type": "error"
    },
    {
      "inputs": [
        {
          "internalType": "address",
          "name": "receiver",
          "type": "address"
        }
      ],
      "name": "ERC20InvalidReceiver",
      "type": "error"
    },
    {
      "inputs": [
        {
          "internalType": "address",
          "name": "sender",
          "type": "address"
        }
      ],
      "name": "ERC20InvalidSender",
      "type": "error"
    },
    {
      "inputs": [
        {
          "internalType": "address",
          "name": "spender",
          "type": "address"
        }
      ],
      "name": "ERC20InvalidSpender",
      "type": "error"
    },
    {
      "inputs": [
        {
          "internalType": "address",
          "name": "owner",
          "type": "address"
        }
      ],
      "name": "OwnableInvalidOwner",
      "type": "error"
    },
    {
      "inputs": [
        {
          "internalType": "address",
          "name": "account",
          "type": "address"
        }
      ],
      "name": "OwnableUnauthorizedAccount",
      "type": "error"
    },
    {
      "anonymous": false,
      "inputs": [
        {
          "indexed": true,
          "internalType": "address",
          "name": "owner",
          "type": "address"
        },
        {
          "indexed": true,
          "internalType": "address",
          "name": "spender",
          "type": "address"
        },
        {
          "indexed": false,
          "internalType": "uint256",
          "name": "value",
          "type": "uint256"
        }
      ],
      "name": "Approval",
      "type": "event"
    },
    {
      "anonymous": false,
      "inputs": [
        {
          "indexed": false,
          "internalType": "uint256",
          "name": "amount",
          "type": "uint256"
        }
      ],
      "name": "CreatorIncentivesClaimed",
      "type": "event"
    },
    {
      "anonymous": false,
      "inputs": [
        {
          "indexed": false,
          "internalType": "uint256",
          "name": "amount",
          "type": "uint256"
        }
      ],
      "name": "CreatorIncentivesUnlocked",
      "type": "event"
    },
    {
      "anonymous": false,
      "inputs": [
        {
          "indexed": false,
          "internalType": "address",
          "name": "to",
          "type": "address"
        }
      ],
      "name": "CreatorSet",
      "type": "event"
    },
    {
      "anonymous": false,
      "inputs": [
        {
          "indexed": false,
          "internalType": "uint256",
          "name": "amount",
          "type": "uint256"
        }
      ],
      "name": "LpAllocated",
      "type": "event"
    },
    {
      "anonymous": false,
      "inputs": [
        {
          "indexed": true,
          "internalType": "address",
          "name": "previousOwner",
          "type": "address"
        },
        {
          "indexed": true,
          "internalType": "address",
          "name": "newOwner",
          "type": "address"
        }
      ],
      "name": "OwnershipTransferred",
      "type": "event"
    },
    {
      "anonymous": false,
      "inputs": [
        {
          "indexed": true,
          "internalType": "address",
          "name": "from",
          "type": "address"
        },
        {
          "indexed": true,
          "internalType": "address",
          "name": "to",
          "type": "address"
        },
        {
          "indexed": false,
          "internalType": "uint256",
          "name": "value",
          "type": "uint256"
        }
      ],
      "name": "Transfer",
      "type": "event"
    },
    {
      "inputs": [],
      "name": "CREATOR_INCENTIVES_ALLOCATION",
      "outputs": [
        {
          "internalType": "uint256",
          "name": "",
          "type": "uint256"
        }
      ],
      "stateMutability": "view",
      "type": "function"
    },
    {
      "inputs": [],
      "name": "CREATOR_INITIAL_ALLOCATION",
      "outputs": [
        {
          "internalType": "uint256",
          "name": "",
          "type": "uint256"
        }
      ],
      "stateMutability": "view",
      "type": "function"
    },
    {
      "inputs": [],
      "name": "CREATOR_INITIAL_ALLOCATION_PER_UNLOCK",
      "outputs": [
        {
          "internalType": "uint256",
          "name": "",
          "type": "uint256"
        }
      ],
      "stateMutability": "view",
      "type": "function"
    },
    {
      "inputs": [],
      "name": "ENGAGEMENT_REWARDS_ALLOCATION",
      "outputs": [
        {
          "internalType": "uint256",
          "name": "",
          "type": "uint256"
        }
      ],
      "stateMutability": "view",
      "type": "function"
    },
    {
      "inputs": [],
      "name": "FAIR_LAUNCH_ALLOCATION",
      "outputs": [
        {
          "internalType": "uint256",
          "name": "",
          "type": "uint256"
        }
      ],
      "stateMutability": "view",
      "type": "function"
    },
    {
      "inputs": [],
      "name": "LP_ALLOCATION",
      "outputs": [
        {
          "internalType": "uint256",
          "name": "",
          "type": "uint256"
        }
      ],
      "stateMutability": "view",
      "type": "function"
    },
    {
      "inputs": [],
      "name": "MAX_SUPPLY",
      "outputs": [
        {
          "internalType": "uint256",
          "name": "",
          "type": "uint256"
        }
      ],
      "stateMutability": "view",
      "type": "function"
    },
    {
      "inputs": [],
      "name": "allocateLp",
      "outputs": [],
      "stateMutability": "nonpayable",
      "type": "function"
    },
    {
      "inputs": [
        {
          "internalType": "address",
          "name": "owner",
          "type": "address"
        },
        {
          "internalType": "address",
          "name": "spender",
          "type": "address"
        }
      ],
      "name": "allowance",
      "outputs": [
        {
          "internalType": "uint256",
          "name": "",
          "type": "uint256"
        }
      ],
      "stateMutability": "view",
      "type": "function"
    },
    {
      "inputs": [
        {
          "internalType": "address",
          "name": "spender",
          "type": "address"
        },
        {
          "internalType": "uint256",
          "name": "value",
          "type": "uint256"
        }
      ],
      "name": "approve",
      "outputs": [
        {
          "internalType": "bool",
          "name": "",
          "type": "bool"
        }
      ],
      "stateMutability": "nonpayable",
      "type": "function"
    },
    {
      "inputs": [
        {
          "internalType": "address",
          "name": "account",
          "type": "address"
        }
      ],
      "name": "balanceOf",
      "outputs": [
        {
          "internalType": "uint256",
          "name": "",
          "type": "uint256"
        }
      ],
      "stateMutability": "view",
      "type": "function"
    },
    {
      "inputs": [
        {
          "internalType": "uint256",
          "name": "amount",
          "type": "uint256"
        }
      ],
      "name": "burn",
      "outputs": [],
      "stateMutability": "nonpayable",
      "type": "function"
    },
    {
      "inputs": [
        {
          "internalType": "address",
          "name": "account",
          "type": "address"
        },
        {
          "internalType": "uint256",
          "name": "amount",
          "type": "uint256"
        }
      ],
      "name": "burnFrom",
      "outputs": [],
      "stateMutability": "nonpayable",
      "type": "function"
    },
    {
      "inputs": [],
      "name": "claimCreatorIncentives",
      "outputs": [],
      "stateMutability": "nonpayable",
      "type": "function"
    },
    {
      "inputs": [
        {
          "internalType": "address",
          "name": "to",
          "type": "address"
        }
      ],
      "name": "claimUnclaimedTokens",
      "outputs": [],
      "stateMutability": "nonpayable",
      "type": "function"
    },
    {
      "inputs": [],
      "name": "creatorData",
      "outputs": [
        {
          "internalType": "address",
          "name": "creator",
          "type": "address"
        },
        {
          "internalType": "uint256",
          "name": "balance",
          "type": "uint256"
        },
        {
          "internalType": "uint256",
          "name": "unlockedBalance",
          "type": "uint256"
        }
      ],
      "stateMutability": "view",
      "type": "function"
    },
    {
      "inputs": [],
      "name": "decimals",
      "outputs": [
        {
          "internalType": "uint8",
          "name": "",
          "type": "uint8"
        }
      ],
      "stateMutability": "view",
      "type": "function"
    },
    {
      "inputs": [],
      "name": "engageToEarnContract",
      "outputs": [
        {
          "internalType": "address",
          "name": "",
          "type": "address"
        }
      ],
      "stateMutability": "view",
      "type": "function"
    },
    {
      "inputs": [],
      "name": "factoryContract",
      "outputs": [
        {
          "internalType": "address",
          "name": "",
          "type": "address"
        }
      ],
      "stateMutability": "view",
      "type": "function"
    },
    {
      "inputs": [],
      "name": "isLpAllocated",
      "outputs": [
        {
          "internalType": "bool",
          "name": "",
          "type": "bool"
        }
      ],
      "stateMutability": "view",
      "type": "function"
    },
    {
      "inputs": [],
      "name": "isRewardable",
      "outputs": [
        {
          "internalType": "bool",
          "name": "",
          "type": "bool"
        }
      ],
      "stateMutability": "view",
      "type": "function"
    },
    {
      "inputs": [],
      "name": "name",
      "outputs": [
        {
          "internalType": "string",
          "name": "",
          "type": "string"
        }
      ],
      "stateMutability": "view",
      "type": "function"
    },
    {
      "inputs": [],
      "name": "owner",
      "outputs": [
        {
          "internalType": "address",
          "name": "",
          "type": "address"
        }
      ],
      "stateMutability": "view",
      "type": "function"
    },
    {
      "inputs": [],
      "name": "renounceOwnership",
      "outputs": [],
      "stateMutability": "nonpayable",
      "type": "function"
    },
    {
      "inputs": [],
      "name": "symbol",
      "outputs": [
        {
          "internalType": "string",
          "name": "",
          "type": "string"
        }
      ],
      "stateMutability": "view",
      "type": "function"
    },
    {
      "inputs": [],
      "name": "totalSupply",
      "outputs": [
        {
          "internalType": "uint256",
          "name": "",
          "type": "uint256"
        }
      ],
      "stateMutability": "view",
      "type": "function"
    },
    {
      "inputs": [
        {
          "internalType": "address",
          "name": "to",
          "type": "address"
        },
        {
          "internalType": "uint256",
          "name": "value",
          "type": "uint256"
        }
      ],
      "name": "transfer",
      "outputs": [
        {
          "internalType": "bool",
          "name": "",
          "type": "bool"
        }
      ],
      "stateMutability": "nonpayable",
      "type": "function"
    },
    {
      "inputs": [
        {
          "internalType": "address",
          "name": "from",
          "type": "address"
        },
        {
          "internalType": "address",
          "name": "to",
          "type": "address"
        },
        {
          "internalType": "uint256",
          "name": "value",
          "type": "uint256"
        }
      ],
      "name": "transferFrom",
      "outputs": [
        {
          "internalType": "bool",
          "name": "",
          "type": "bool"
        }
      ],
      "stateMutability": "nonpayable",
      "type": "function"
    },
    {
      "inputs": [
        {
          "internalType": "address",
          "name": "newOwner",
          "type": "address"
        }
      ],
      "name": "transferOwnership",
      "outputs": [],
      "stateMutability": "nonpayable",
      "type": "function"
    },
    {
      "inputs": [],
      "name": "unlockCreatorIncentives",
      "outputs": [],
      "stateMutability": "nonpayable",
      "type": "function"
    }
  ],
  "bytecode": "0x608060405234801561000f575f5ffd5b50604051612bef380380612bef8339818101604052810190610031919061077f565b33868681600390816100439190610a50565b5080600490816100539190610a50565b5050505f73ffffffffffffffffffffffffffffffffffffffff168173ffffffffffffffffffffffffffffffffffffffff16036100c6575f6040517f1e4fbdf70000000000000000000000000000000000000000000000000000000081526004016100bd9190610b2e565b60405180910390fd5b6100d58161027760201b60201c565b508360085f015f6101000a81548173ffffffffffffffffffffffffffffffffffffffff021916908373ffffffffffffffffffffffffffffffffffffffff160217905550606460466aa56fa5b99019a5c80000006101329190610b74565b61013c9190610be2565b6008600101819055508260075f6101000a81548173ffffffffffffffffffffffffffffffffffffffff021916908373ffffffffffffffffffffffffffffffffffffffff1602179055508160065f6101000a81548173ffffffffffffffffffffffffffffffffffffffff021916908373ffffffffffffffffffffffffffffffffffffffff16021790555061020260065f9054906101000a900473ffffffffffffffffffffffffffffffffffffffff166b019d971e4fe8401e7400000061033a60201b60201c565b61021d816aa56fa5b99019a5c800000061033a60201b60201c565b5f73ffffffffffffffffffffffffffffffffffffffff168473ffffffffffffffffffffffffffffffffffffffff161461026c5761026b846a31a17e847807b1bc00000061033a60201b60201c565b5b505050505050610ca2565b5f60055f9054906101000a900473ffffffffffffffffffffffffffffffffffffffff1690508160055f6101000a81548173ffffffffffffffffffffffffffffffffffffffff021916908373ffffffffffffffffffffffffffffffffffffffff1602179055508173ffffffffffffffffffffffffffffffffffffffff168173ffffffffffffffffffffffffffffffffffffffff167f8be0079c531659141344cd1fd0a4f28419497f9722a3daafe3b4186f6b6457e060405160405180910390a35050565b5f73ffffffffffffffffffffffffffffffffffffffff168273ffffffffffffffffffffffffffffffffffffffff16036103aa575f6040517fec442f050000000000000000000000000000000000000000000000000000000081526004016103a19190610b2e565b60405180910390fd5b6103bb5f83836103bf60201b60201c565b5050565b5f73ffffffffffffffffffffffffffffffffffffffff168373ffffffffffffffffffffffffffffffffffffffff160361040f578060025f8282546104039190610c12565b925050819055506104dd565b5f5f5f8573ffffffffffffffffffffffffffffffffffffffff1673ffffffffffffffffffffffffffffffffffffffff1681526020019081526020015f2054905081811015610498578381836040517fe450d38c00000000000000000000000000000000000000000000000000000000815260040161048f93929190610c54565b60405180910390fd5b8181035f5f8673ffffffffffffffffffffffffffffffffffffffff1673ffffffffffffffffffffffffffffffffffffffff1681526020019081526020015f2081905550505b5f73ffffffffffffffffffffffffffffffffffffffff168273ffffffffffffffffffffffffffffffffffffffff1603610524578060025f828254039250508190555061056e565b805f5f8473ffffffffffffffffffffffffffffffffffffffff1673ffffffffffffffffffffffffffffffffffffffff1681526020019081526020015f205f82825401925050819055505b8173ffffffffffffffffffffffffffffffffffffffff168373ffffffffffffffffffffffffffffffffffffffff167fddf252ad1be2c89b69c2b068fc378daa952ba7f163c4a11628f55a4df523b3ef836040516105cb9190610c89565b60405180910390a3505050565b5f604051905090565b5f5ffd5b5f5ffd5b5f5ffd5b5f5ffd5b5f601f19601f8301169050919050565b7f4e487b71000000000000000000000000000000000000000000000000000000005f52604160045260245ffd5b610637826105f1565b810181811067ffffffffffffffff8211171561065657610655610601565b5b80604052505050565b5f6106686105d8565b9050610674828261062e565b919050565b5f67ffffffffffffffff82111561069357610692610601565b5b61069c826105f1565b9050602081019050919050565b8281835e5f83830152505050565b5f6106c96106c484610679565b61065f565b9050828152602081018484840111156106e5576106e46105ed565b5b6106f08482856106a9565b509392505050565b5f82601f83011261070c5761070b6105e9565b5b815161071c8482602086016106b7565b91505092915050565b5f73ffffffffffffffffffffffffffffffffffffffff82169050919050565b5f61074e82610725565b9050919050565b61075e81610744565b8114610768575f5ffd5b50565b5f8151905061077981610755565b92915050565b5f5f5f5f5f5f60c08789031215610799576107986105e1565b5b5f87015167ffffffffffffffff8111156107b6576107b56105e5565b5b6107c289828a016106f8565b965050602087015167ffffffffffffffff8111156107e3576107e26105e5565b5b6107ef89828a016106f8565b955050604061080089828a0161076b565b945050606061081189828a0161076b565b935050608061082289828a0161076b565b92505060a061083389828a0161076b565b9150509295509295509295565b5f81519050919050565b7f4e487b71000000000000000000000000000000000000000000000000000000005f52602260045260245ffd5b5f600282049050600182168061088e57607f821691505b6020821081036108a1576108a061084a565b5b50919050565b5f819050815f5260205f209050919050565b5f6020601f8301049050919050565b5f82821b905092915050565b5f600883026109037fffffffffffffffffffffffffffffffffffffffffffffffffffffffffffffffff826108c8565b61090d86836108c8565b95508019841693508086168417925050509392505050565b5f819050919050565b5f819050919050565b5f61095161094c61094784610925565b61092e565b610925565b9050919050565b5f819050919050565b61096a83610937565b61097e61097682610958565b8484546108d4565b825550505050565b5f5f905090565b610995610986565b6109a0818484610961565b505050565b5b818110156109c3576109b85f8261098d565b6001810190506109a6565b5050565b601f821115610a08576109d9816108a7565b6109e2846108b9565b810160208510156109f1578190505b610a056109fd856108b9565b8301826109a5565b50505b505050565b5f82821c905092915050565b5f610a285f1984600802610a0d565b1980831691505092915050565b5f610a408383610a19565b9150826002028217905092915050565b610a5982610840565b67ffffffffffffffff811115610a7257610a71610601565b5b610a7c8254610877565b610a878282856109c7565b5f60209050601f831160018114610ab8575f8415610aa6578287015190505b610ab08582610a35565b865550610b17565b601f198416610ac6866108a7565b5f5b82811015610aed57848901518255600182019150602085019450602081019050610ac8565b86831015610b0a5784890151610b06601f891682610a19565b8355505b6001600288020188555050505b505050505050565b610b2881610744565b82525050565b5f602082019050610b415f830184610b1f565b92915050565b7f4e487b71000000000000000000000000000000000000000000000000000000005f52601160045260245ffd5b5f610b7e82610925565b9150610b8983610925565b9250828202610b9781610925565b91508282048414831517610bae57610bad610b47565b5b5092915050565b7f4e487b71000000000000000000000000000000000000000000000000000000005f52601260045260245ffd5b5f610bec82610925565b9150610bf783610925565b925082610c0757610c06610bb5565b5b828204905092915050565b5f610c1c82610925565b9150610c2783610925565b9250828201905080821115610c3f57610c3e610b47565b5b92915050565b610c4e81610925565b82525050565b5f606082019050610c675f830186610b1f565b610c746020830185610c45565b610c816040830184610c45565b949350505050565b5f602082019050610c9c5f830184610c45565b92915050565b611f4080610caf5f395ff3fe608060405234801561000f575f5ffd5b50600436106101d8575f3560e01c80637de48f0411610102578063c52aa2cf116100a0578063de11c94a1161006f578063de11c94a146104ee578063eab7f50c1461050c578063ebda16eb1461052a578063f2fde38b14610548576101d8565b8063c52aa2cf14610478578063cd1b213814610496578063dd282ae4146104b4578063dd62ed3e146104be576101d8565b806395d89b41116100dc57806395d89b4114610400578063a431831e1461041e578063a9059cbb14610428578063c350368a14610458576101d8565b80637de48f04146103ba5780638da5cb5b146103c45780638fc857d4146103e2576101d8565b806332cb6b0c1161017a57806358328dbd1161014957806358328dbd1461034657806370a0823114610364578063715018a61461039457806379cc67901461039e576101d8565b806332cb6b0c146102d25780633977c2f2146102f057806342966c681461030c578063492aebb914610328576101d8565b806318160ddd116101b657806318160ddd146102485780631a5e3c9d1461026657806323b872dd14610284578063313ce567146102b4576101d8565b806306fdde03146101dc578063095ea7b3146101fa578063178c99fe1461022a575b5f5ffd5b6101e4610564565b6040516101f19190611827565b60405180910390f35b610214600480360381019061020f91906118d8565b6105f4565b6040516102219190611930565b60405180910390f35b610232610616565b60405161023f9190611958565b60405180910390f35b61025061063b565b60405161025d9190611980565b60405180910390f35b61026e610644565b60405161027b9190611980565b60405180910390f35b61029e60048036038101906102999190611999565b610653565b6040516102ab9190611930565b60405180910390f35b6102bc610681565b6040516102c99190611a04565b60405180910390f35b6102da610689565b6040516102e79190611980565b60405180910390f35b61030a60048036038101906103059190611a1d565b610699565b005b61032660048036038101906103219190611a48565b6108e5565b005b6103306108f2565b60405161033d9190611980565b60405180910390f35b61034e610901565b60405161035b9190611980565b60405180910390f35b61037e60048036038101906103799190611a1d565b610910565b60405161038b9190611980565b60405180910390f35b61039c610955565b005b6103b860048036038101906103b391906118d8565b610968565b005b6103c2610981565b005b6103cc610af5565b6040516103d99190611958565b60405180910390f35b6103ea610b1d565b6040516103f79190611930565b60405180910390f35b610408610b30565b6040516104159190611827565b60405180910390f35b610426610bc0565b005b610442600480360381019061043d91906118d8565b610d16565b60405161044f9190611930565b60405180910390f35b610460610d38565b60405161046f93929190611a73565b60405180910390f35b610480610d6e565b60405161048d9190611930565b60405180910390f35b61049e610d87565b6040516104ab9190611980565b60405180910390f35b6104bc610d96565b005b6104d860048036038101906104d39190611aa8565b610ea1565b6040516104e59190611980565b60405180910390f35b6104f6610f23565b6040516105039190611958565b60405180910390f35b610514610f48565b6040516105219190611980565b60405180910390f35b610532610f58565b60405161053f9190611980565b60405180910390f35b610562600480360381019061055d9190611a1d565b610f67565b005b60606003805461057390611b13565b80601f016020809104026020016040519081016040528092919081815260200182805461059f90611b13565b80156105ea5780601f106105c1576101008083540402835291602001916105ea565b820191905f5260205f20905b8154815290600101906020018083116105cd57829003601f168201915b5050505050905090565b5f5f6105fe610feb565b905061060b818585610ff2565b600191505092915050565b60065f9054906101000a900473ffffffffffffffffffffffffffffffffffffffff1681565b5f600254905090565b6aa56fa5b99019a5c800000081565b5f5f61065d610feb565b905061066a858285611004565b610675858585611097565b60019150509392505050565b5f6012905090565b6b033b2e3c9fd0803ce800000081565b60075f9054906101000a900473ffffffffffffffffffffffffffffffffffffffff1673ffffffffffffffffffffffffffffffffffffffff163373ffffffffffffffffffffffffffffffffffffffff1614610728576040517f08c379a000000000000000000000000000000000000000000000000000000000815260040161071f90611bb3565b60405180910390fd5b5f73ffffffffffffffffffffffffffffffffffffffff168173ffffffffffffffffffffffffffffffffffffffff1603610796576040517f08c379a000000000000000000000000000000000000000000000000000000000815260040161078d90611c1b565b60405180910390fd5b5f73ffffffffffffffffffffffffffffffffffffffff1660085f015f9054906101000a900473ffffffffffffffffffffffffffffffffffffffff1673ffffffffffffffffffffffffffffffffffffffff1614610827576040517f08c379a000000000000000000000000000000000000000000000000000000000815260040161081e90611c83565b60405180910390fd5b8060085f015f6101000a81548173ffffffffffffffffffffffffffffffffffffffff021916908373ffffffffffffffffffffffffffffffffffffffff160217905550606460466aa56fa5b99019a5c80000006108839190611cce565b61088d9190611d3c565b6008600101819055506108ab816a31a17e847807b1bc000000611187565b7fd4396a7e1ee1013c611432f59b862687db5c35b5ae1fd43334ccba88fac8e678816040516108da9190611958565b60405180910390a150565b6108ef3382611206565b50565b6a01a784379d99db4200000081565b6a31a17e847807b1bc00000081565b5f5f5f8373ffffffffffffffffffffffffffffffffffffffff1673ffffffffffffffffffffffffffffffffffffffff1681526020019081526020015f20549050919050565b61095d611285565b6109665f61130c565b565b610973823383611004565b61097d8282611206565b5050565b60075f9054906101000a900473ffffffffffffffffffffffffffffffffffffffff1673ffffffffffffffffffffffffffffffffffffffff163373ffffffffffffffffffffffffffffffffffffffff1614610a10576040517f08c379a0000000000000000000000000000000000000000000000000000000008152600401610a0790611bb3565b60405180910390fd5b600560149054906101000a900460ff1615610a60576040517f08c379a0000000000000000000000000000000000000000000000000000000008152600401610a5790611db6565b60405180910390fd5b610a9660075f9054906101000a900473ffffffffffffffffffffffffffffffffffffffff166a52b7d2dcc80cd2e4000000611187565b6001600560146101000a81548160ff0219169083151502179055507ffe52c86b79d5742b050f2e2efeca8e935f088ac2e5e16a3c7b709f95c0636df46a52b7d2dcc80cd2e4000000604051610aeb9190611980565b60405180910390a1565b5f60055f9054906101000a900473ffffffffffffffffffffffffffffffffffffffff16905090565b600560149054906101000a900460ff1681565b606060048054610b3f90611b13565b80601f0160208091040260200160405190810160405280929190818152602001828054610b6b90611b13565b8015610bb65780601f10610b8d57610100808354040283529160200191610bb6565b820191905f5260205f20905b815481529060010190602001808311610b9957829003601f168201915b5050505050905090565b60075f9054906101000a900473ffffffffffffffffffffffffffffffffffffffff1673ffffffffffffffffffffffffffffffffffffffff163373ffffffffffffffffffffffffffffffffffffffff1614610c4f576040517f08c379a0000000000000000000000000000000000000000000000000000000008152600401610c4690611bb3565b60405180910390fd5b5f6a01a784379d99db420000009050806008600101541015610ca6576040517f08c379a0000000000000000000000000000000000000000000000000000000008152600401610c9d90611e1e565b60405180910390fd5b8060086002015f828254610cba9190611e3c565b925050819055508060086001015f828254610cd59190611e6f565b925050819055507f20e6b5faba158691cec289aa69971b114cbde320ad56ed660db2223c86bf0c2b81604051610d0b9190611980565b60405180910390a150565b5f5f610d20610feb565b9050610d2d818585611097565b600191505092915050565b6008805f015f9054906101000a900473ffffffffffffffffffffffffffffffffffffffff16908060010154908060020154905083565b5f6a01a784379d99db4200000060086001015411905090565b6aa56fa5b99019a5c800000081565b60085f015f9054906101000a900473ffffffffffffffffffffffffffffffffffffffff1673ffffffffffffffffffffffffffffffffffffffff163373ffffffffffffffffffffffffffffffffffffffff1614610e27576040517f08c379a0000000000000000000000000000000000000000000000000000000008152600401610e1e90611eec565b60405180910390fd5b5f60086002015490505f600860020181905550610e6760085f015f9054906101000a900473ffffffffffffffffffffffffffffffffffffffff1682611187565b7f85210f592f3f6c0e04a0bbe66c0b4c3a93803fda97ceac60f5be26c0cd6612da81604051610e969190611980565b60405180910390a150565b5f60015f8473ffffffffffffffffffffffffffffffffffffffff1673ffffffffffffffffffffffffffffffffffffffff1681526020019081526020015f205f8373ffffffffffffffffffffffffffffffffffffffff1673ffffffffffffffffffffffffffffffffffffffff1681526020019081526020015f2054905092915050565b60075f9054906101000a900473ffffffffffffffffffffffffffffffffffffffff1681565b6b019d971e4fe8401e7400000081565b6a52b7d2dcc80cd2e400000081565b610f6f611285565b5f73ffffffffffffffffffffffffffffffffffffffff168173ffffffffffffffffffffffffffffffffffffffff1603610fdf575f6040517f1e4fbdf7000000000000000000000000000000000000000000000000000000008152600401610fd69190611958565b60405180910390fd5b610fe88161130c565b50565b5f33905090565b610fff83838360016113cf565b505050565b5f61100f8484610ea1565b90507fffffffffffffffffffffffffffffffffffffffffffffffffffffffffffffffff8110156110915781811015611082578281836040517ffb8f41b200000000000000000000000000000000000000000000000000000000815260040161107993929190611a73565b60405180910390fd5b61109084848484035f6113cf565b5b50505050565b5f73ffffffffffffffffffffffffffffffffffffffff168373ffffffffffffffffffffffffffffffffffffffff1603611107575f6040517f96c6fd1e0000000000000000000000000000000000000000000000000000000081526004016110fe9190611958565b60405180910390fd5b5f73ffffffffffffffffffffffffffffffffffffffff168273ffffffffffffffffffffffffffffffffffffffff1603611177575f6040517fec442f0500000000000000000000000000000000000000000000000000000000815260040161116e9190611958565b60405180910390fd5b61118283838361159e565b505050565b5f73ffffffffffffffffffffffffffffffffffffffff168273ffffffffffffffffffffffffffffffffffffffff16036111f7575f6040517fec442f050000000000000000000000000000000000000000000000000000000081526004016111ee9190611958565b60405180910390fd5b6112025f838361159e565b5050565b5f73ffffffffffffffffffffffffffffffffffffffff168273ffffffffffffffffffffffffffffffffffffffff1603611276575f6040517f96c6fd1e00000000000000000000000000000000000000000000000000000000815260040161126d9190611958565b60405180910390fd5b611281825f8361159e565b5050565b61128d610feb565b73ffffffffffffffffffffffffffffffffffffffff166112ab610af5565b73ffffffffffffffffffffffffffffffffffffffff161461130a576112ce610feb565b6040517f118cdaa70000000000000000000000000000000000000000000000000000000081526004016113019190611958565b60405180910390fd5b565b5f60055f9054906101000a900473ffffffffffffffffffffffffffffffffffffffff1690508160055f6101000a81548173ffffffffffffffffffffffffffffffffffffffff021916908373ffffffffffffffffffffffffffffffffffffffff1602179055508173ffffffffffffffffffffffffffffffffffffffff168173ffffffffffffffffffffffffffffffffffffffff167f8be0079c531659141344cd1fd0a4f28419497f9722a3daafe3b4186f6b6457e060405160405180910390a35050565b5f73ffffffffffffffffffffffffffffffffffffffff168473ffffffffffffffffffffffffffffffffffffffff160361143f575f6040517fe602df050000000000000000000000000000000000000000000000000000000081526004016114369190611958565b60405180910390fd5b5f73ffffffffffffffffffffffffffffffffffffffff168373ffffffffffffffffffffffffffffffffffffffff16036114af575f6040517f94280d620000000000000000000000000000000000000000000000000000000081526004016114a69190611958565b60405180910390fd5b8160015f8673ffffffffffffffffffffffffffffffffffffffff1673ffffffffffffffffffffffffffffffffffffffff1681526020019081526020015f205f8573ffffffffffffffffffffffffffffffffffffffff1673ffffffffffffffffffffffffffffffffffffffff1681526020019081526020015f20819055508015611598578273ffffffffffffffffffffffffffffffffffffffff168473ffffffffffffffffffffffffffffffffffffffff167f8c5be1e5ebec7d5bd14f71427d1e84f3dd0314c0f7b2291e5b200ac8c7c3b9258460405161158f9190611980565b60405180910390a35b50505050565b5f73ffffffffffffffffffffffffffffffffffffffff168373ffffffffffffffffffffffffffffffffffffffff16036115ee578060025f8282546115e29190611e3c565b925050819055506116bc565b5f5f5f8573ffffffffffffffffffffffffffffffffffffffff1673ffffffffffffffffffffffffffffffffffffffff1681526020019081526020015f2054905081811015611677578381836040517fe450d38c00000000000000000000000000000000000000000000000000000000815260040161166e93929190611a73565b60405180910390fd5b8181035f5f8673ffffffffffffffffffffffffffffffffffffffff1673ffffffffffffffffffffffffffffffffffffffff1681526020019081526020015f2081905550505b5f73ffffffffffffffffffffffffffffffffffffffff168273ffffffffffffffffffffffffffffffffffffffff1603611703578060025f828254039250508190555061174d565b805f5f8473ffffffffffffffffffffffffffffffffffffffff1673ffffffffffffffffffffffffffffffffffffffff1681526020019081526020015f205f82825401925050819055505b8173ffffffffffffffffffffffffffffffffffffffff168373ffffffffffffffffffffffffffffffffffffffff167fddf252ad1be2c89b69c2b068fc378daa952ba7f163c4a11628f55a4df523b3ef836040516117aa9190611980565b60405180910390a3505050565b5f81519050919050565b5f82825260208201905092915050565b8281835e5f83830152505050565b5f601f19601f8301169050919050565b5f6117f9826117b7565b61180381856117c1565b93506118138185602086016117d1565b61181c816117df565b840191505092915050565b5f6020820190508181035f83015261183f81846117ef565b905092915050565b5f5ffd5b5f73ffffffffffffffffffffffffffffffffffffffff82169050919050565b5f6118748261184b565b9050919050565b6118848161186a565b811461188e575f5ffd5b50565b5f8135905061189f8161187b565b92915050565b5f819050919050565b6118b7816118a5565b81146118c1575f5ffd5b50565b5f813590506118d2816118ae565b92915050565b5f5f604083850312156118ee576118ed611847565b5b5f6118fb85828601611891565b925050602061190c858286016118c4565b9150509250929050565b5f8115159050919050565b61192a81611916565b82525050565b5f6020820190506119435f830184611921565b92915050565b6119528161186a565b82525050565b5f60208201905061196b5f830184611949565b92915050565b61197a816118a5565b82525050565b5f6020820190506119935f830184611971565b92915050565b5f5f5f606084860312156119b0576119af611847565b5b5f6119bd86828701611891565b93505060206119ce86828701611891565b92505060406119df868287016118c4565b9150509250925092565b5f60ff82169050919050565b6119fe816119e9565b82525050565b5f602082019050611a175f8301846119f5565b92915050565b5f60208284031215611a3257611a31611847565b5b5f611a3f84828501611891565b91505092915050565b5f60208284031215611a5d57611a5c611847565b5b5f611a6a848285016118c4565b91505092915050565b5f606082019050611a865f830186611949565b611a936020830185611971565b611aa06040830184611971565b949350505050565b5f5f60408385031215611abe57611abd611847565b5b5f611acb85828601611891565b9250506020611adc85828601611891565b9150509250929050565b7f4e487b71000000000000000000000000000000000000000000000000000000005f52602260045260245ffd5b5f6002820490506001821680611b2a57607f821691505b602082108103611b3d57611b3c611ae6565b5b50919050565b7f4f6e6c7920666163746f72792063616e2063616c6c20746869732066756e63745f8201527f696f6e0000000000000000000000000000000000000000000000000000000000602082015250565b5f611b9d6023836117c1565b9150611ba882611b43565b604082019050919050565b5f6020820190508181035f830152611bca81611b91565b9050919050565b7f496e76616c6964206164647265737300000000000000000000000000000000005f82015250565b5f611c05600f836117c1565b9150611c1082611bd1565b602082019050919050565b5f6020820190508181035f830152611c3281611bf9565b9050919050565b7f43726561746f7220616c726561647920736574000000000000000000000000005f82015250565b5f611c6d6013836117c1565b9150611c7882611c39565b602082019050919050565b5f6020820190508181035f830152611c9a81611c61565b9050919050565b7f4e487b71000000000000000000000000000000000000000000000000000000005f52601160045260245ffd5b5f611cd8826118a5565b9150611ce3836118a5565b9250828202611cf1816118a5565b91508282048414831517611d0857611d07611ca1565b5b5092915050565b7f4e487b71000000000000000000000000000000000000000000000000000000005f52601260045260245ffd5b5f611d46826118a5565b9150611d51836118a5565b925082611d6157611d60611d0f565b5b828204905092915050565b7f4c7020616c726561647920616c6c6f63617465640000000000000000000000005f82015250565b5f611da06014836117c1565b9150611dab82611d6c565b602082019050919050565b5f6020820190508181035f830152611dcd81611d94565b9050919050565b7f4e6f7420656e6f7567682062616c616e636520746f20756e6c6f636b000000005f82015250565b5f611e08601c836117c1565b9150611e1382611dd4565b602082019050919050565b5f6020820190508181035f830152611e3581611dfc565b9050919050565b5f611e46826118a5565b9150611e51836118a5565b9250828201905080821115611e6957611e68611ca1565b5b92915050565b5f611e79826118a5565b9150611e84836118a5565b9250828203905081811115611e9c57611e9b611ca1565b5b92915050565b7f4f6e6c792063726561746f722063616e20636c61696d000000000000000000005f82015250565b5f611ed66016836117c1565b9150611ee182611ea2565b602082019050919050565b5f6020820190508181035f830152611f0381611eca565b905091905056fea2646970667358221220a87d810d643ecee06f47654ab35a3c04e0436cc7b9b9992e02135281643d692664736f6c634300081c0033",
  "linkReferences": {},
  "deployedLinkReferences": {},
  "immutableReferences": {},
  "inputSourceName": "project/contracts/MemedToken.sol",
  "buildInfoId": "solc-0_8_28-27c69b873bd06e8efaf9ee307d3f53a0f863b83b"
}