{
  "_format": "hh3-artifact-1",
  "contractName": "MemedTokenSale_test",
  "sourceName": "contracts/MemedTokenSale_test.sol",
  "abi": [
    {
      "inputs": [],
      "stateMutability": "nonpayable",
      "type": "constructor"
    },
    {
      "inputs": [
        {
          "internalType": "address",
          "name": "owner",
          "type": "address"
        }
      ],
      "name": "OwnableInvalidOwner",
      "type": "error"
    },
    {
      "inputs": [
        {
          "internalType": "address",
          "name": "account",
          "type": "address"
        }
      ],
      "name": "OwnableUnauthorizedAccount",
      "type": "error"
    },
    {
      "inputs": [],
      "name": "ReentrancyGuardReentrantCall",
      "type": "error"
    },
    {
      "anonymous": false,
      "inputs": [
        {
          "indexed": true,
          "internalType": "uint256",
          "name": "id",
          "type": "uint256"
        },
        {
          "indexed": true,
          "internalType": "address",
          "name": "user",
          "type": "address"
        },
        {
          "indexed": false,
          "internalType": "uint256",
          "name": "amount",
          "type": "uint256"
        }
      ],
      "name": "CommitmentMade",
      "type": "event"
    },
    {
      "anonymous": false,
      "inputs": [
        {
          "indexed": true,
          "internalType": "address",
          "name": "creator",
          "type": "address"
        },
        {
          "indexed": false,
          "internalType": "uint256",
          "name": "blockExpiresAt",
          "type": "uint256"
        },
        {
          "indexed": false,
          "internalType": "string",
          "name": "reason",
          "type": "string"
        }
      ],
      "name": "CreatorBlocked",
      "type": "event"
    },
    {
      "anonymous": false,
      "inputs": [
        {
          "indexed": true,
          "internalType": "uint256",
          "name": "id",
          "type": "uint256"
        },
        {
          "indexed": true,
          "internalType": "address",
          "name": "token",
          "type": "address"
        },
        {
          "indexed": true,
          "internalType": "address",
          "name": "warriorNFT",
          "type": "address"
        },
        {
          "indexed": false,
          "internalType": "uint256",
          "name": "totalRaised",
          "type": "uint256"
        }
      ],
      "name": "FairLaunchCompleted",
      "type": "event"
    },
    {
      "anonymous": false,
      "inputs": [
        {
          "indexed": true,
          "internalType": "uint256",
          "name": "id",
          "type": "uint256"
        },
        {
          "indexed": false,
          "internalType": "uint256",
          "name": "totalRaised",
          "type": "uint256"
        }
      ],
      "name": "FairLaunchFailed",
      "type": "event"
    },
    {
      "anonymous": false,
      "inputs": [
        {
          "indexed": true,
          "internalType": "uint256",
          "name": "id",
          "type": "uint256"
        }
      ],
      "name": "FairLaunchReadyToComplete",
      "type": "event"
    },
    {
      "anonymous": false,
      "inputs": [
        {
          "indexed": true,
          "internalType": "uint256",
          "name": "id",
          "type": "uint256"
        },
        {
          "indexed": true,
          "internalType": "address",
          "name": "creator",
          "type": "address"
        },
        {
          "indexed": false,
          "internalType": "uint256",
          "name": "startTime",
          "type": "uint256"
        },
        {
          "indexed": false,
          "internalType": "uint256",
          "name": "endTime",
          "type": "uint256"
        }
      ],
      "name": "FairLaunchStarted",
      "type": "event"
    },
    {
      "anonymous": false,
      "inputs": [
        {
          "indexed": true,
          "internalType": "uint256",
          "name": "id",
          "type": "uint256"
        },
        {
          "indexed": true,
          "internalType": "address",
          "name": "pair",
          "type": "address"
        },
        {
          "indexed": false,
          "internalType": "uint256",
          "name": "tokenAmount",
          "type": "uint256"
        },
        {
          "indexed": false,
          "internalType": "uint256",
          "name": "ethAmount",
          "type": "uint256"
        },
        {
          "indexed": false,
          "internalType": "uint256",
          "name": "liquidity",
          "type": "uint256"
        }
      ],
      "name": "LiquidityAdded",
      "type": "event"
    },
    {
      "anonymous": false,
      "inputs": [
        {
          "indexed": true,
          "internalType": "address",
          "name": "previousOwner",
          "type": "address"
        },
        {
          "indexed": true,
          "internalType": "address",
          "name": "newOwner",
          "type": "address"
        }
      ],
      "name": "OwnershipTransferred",
      "type": "event"
    },
    {
      "anonymous": false,
      "inputs": [
        {
          "indexed": true,
          "internalType": "uint256",
          "name": "id",
          "type": "uint256"
        },
        {
          "indexed": true,
          "internalType": "address",
          "name": "user",
          "type": "address"
        },
        {
          "indexed": false,
          "internalType": "uint256",
          "name": "feeAmount",
          "type": "uint256"
        },
        {
          "indexed": false,
          "internalType": "string",
          "name": "transactionType",
          "type": "string"
        }
      ],
      "name": "PlatformFeeCollected",
      "type": "event"
    },
    {
      "anonymous": false,
      "inputs": [
        {
          "indexed": false,
          "internalType": "uint256",
          "name": "platformFeePercentage",
          "type": "uint256"
        },
        {
          "indexed": false,
          "internalType": "uint256",
          "name": "feeDenominator",
          "type": "uint256"
        }
      ],
      "name": "PlatformFeeSet",
      "type": "event"
    },
    {
      "anonymous": false,
      "inputs": [
        {
          "indexed": true,
          "internalType": "uint256",
          "name": "id",
          "type": "uint256"
        },
        {
          "indexed": true,
          "internalType": "address",
          "name": "seller",
          "type": "address"
        },
        {
          "indexed": false,
          "internalType": "uint256",
          "name": "tokenAmount",
          "type": "uint256"
        },
        {
          "indexed": false,
          "internalType": "uint256",
          "name": "ethReceived",
          "type": "uint256"
        }
      ],
      "name": "TokenSold",
      "type": "event"
    },
    {
      "anonymous": false,
      "inputs": [
        {
          "indexed": true,
          "internalType": "uint256",
          "name": "id",
          "type": "uint256"
        },
        {
          "indexed": true,
          "internalType": "address",
          "name": "user",
          "type": "address"
        },
        {
          "indexed": false,
          "internalType": "uint256",
          "name": "tokenAmount",
          "type": "uint256"
        }
      ],
      "name": "TokensClaimed",
      "type": "event"
    },
    {
      "inputs": [],
      "name": "DECIMALS",
      "outputs": [
        {
          "internalType": "uint256",
          "name": "",
          "type": "uint256"
        }
      ],
      "stateMutability": "view",
      "type": "function"
    },
    {
      "inputs": [],
      "name": "FAIR_LAUNCH_DURATION",
      "outputs": [
        {
          "internalType": "uint256",
          "name": "",
          "type": "uint256"
        }
      ],
      "stateMutability": "view",
      "type": "function"
    },
    {
      "inputs": [],
      "name": "INITIAL_SUPPLY",
      "outputs": [
        {
          "internalType": "uint256",
          "name": "",
          "type": "uint256"
        }
      ],
      "stateMutability": "view",
      "type": "function"
    },
    {
      "inputs": [],
      "name": "MEMED_TEST_ETH",
      "outputs": [
        {
          "internalType": "address",
          "name": "",
          "type": "address"
        }
      ],
      "stateMutability": "view",
      "type": "function"
    },
    {
      "inputs": [],
      "name": "SCALE",
      "outputs": [
        {
          "internalType": "uint256",
          "name": "",
          "type": "uint256"
        }
      ],
      "stateMutability": "view",
      "type": "function"
    },
    {
      "inputs": [],
      "name": "SLOPE",
      "outputs": [
        {
          "internalType": "uint256",
          "name": "",
          "type": "uint256"
        }
      ],
      "stateMutability": "view",
      "type": "function"
    },
    {
      "inputs": [],
      "name": "TARGET_ETH_WEI",
      "outputs": [
        {
          "internalType": "uint256",
          "name": "",
          "type": "uint256"
        }
      ],
      "stateMutability": "view",
      "type": "function"
    },
    {
      "inputs": [],
      "name": "TOTAL_FOR_SALE",
      "outputs": [
        {
          "internalType": "uint256",
          "name": "",
          "type": "uint256"
        }
      ],
      "stateMutability": "view",
      "type": "function"
    },
    {
      "inputs": [
        {
          "internalType": "address",
          "name": "",
          "type": "address"
        }
      ],
      "name": "blockedCreators",
      "outputs": [
        {
          "internalType": "uint256",
          "name": "",
          "type": "uint256"
        }
      ],
      "stateMutability": "view",
      "type": "function"
    },
    {
      "inputs": [
        {
          "internalType": "uint256",
          "name": "_id",
          "type": "uint256"
        }
      ],
      "name": "claim",
      "outputs": [],
      "stateMutability": "nonpayable",
      "type": "function"
    },
    {
      "inputs": [
        {
          "internalType": "uint256",
          "name": "_id",
          "type": "uint256"
        },
        {
          "internalType": "uint256",
          "name": "_amount",
          "type": "uint256"
        }
      ],
      "name": "commitToFairLaunch",
      "outputs": [],
      "stateMutability": "nonpayable",
      "type": "function"
    },
    {
      "inputs": [
        {
          "internalType": "uint256",
          "name": "_id",
          "type": "uint256"
        },
        {
          "internalType": "address",
          "name": "_token",
          "type": "address"
        },
        {
          "internalType": "address",
          "name": "_pair",
          "type": "address"
        }
      ],
      "name": "completeFairLaunch",
      "outputs": [],
      "stateMutability": "nonpayable",
      "type": "function"
    },
    {
      "inputs": [
        {
          "internalType": "uint256",
          "name": "",
          "type": "uint256"
        }
      ],
      "name": "fairLaunchData",
      "outputs": [
        {
          "internalType": "enum FairLaunchStatus",
          "name": "status",
          "type": "uint8"
        },
        {
          "internalType": "uint256",
          "name": "fairLaunchStartTime",
          "type": "uint256"
        },
        {
          "internalType": "uint256",
          "name": "totalCommitted",
          "type": "uint256"
        },
        {
          "internalType": "uint256",
          "name": "totalSold",
          "type": "uint256"
        },
        {
          "internalType": "address",
          "name": "uniswapPair",
          "type": "address"
        },
        {
          "internalType": "uint256",
          "name": "createdAt",
          "type": "uint256"
        }
      ],
      "stateMutability": "view",
      "type": "function"
    },
    {
      "inputs": [],
      "name": "feeDenominator",
      "outputs": [
        {
          "internalType": "uint256",
          "name": "",
          "type": "uint256"
        }
      ],
      "stateMutability": "view",
      "type": "function"
    },
    {
      "inputs": [
        {
          "internalType": "address",
          "name": "_token",
          "type": "address"
        }
      ],
      "name": "getFairLaunchActive",
      "outputs": [
        {
          "internalType": "bool",
          "name": "",
          "type": "bool"
        }
      ],
      "stateMutability": "view",
      "type": "function"
    },
    {
      "inputs": [
        {
          "internalType": "uint256",
          "name": "_id",
          "type": "uint256"
        }
      ],
      "name": "getFairLaunchData",
      "outputs": [
        {
          "internalType": "enum FairLaunchStatus",
          "name": "",
          "type": "uint8"
        },
        {
          "internalType": "uint256",
          "name": "",
          "type": "uint256"
        }
      ],
      "stateMutability": "view",
      "type": "function"
    },
    {
      "inputs": [
        {
          "internalType": "uint256",
          "name": "_id",
          "type": "uint256"
        }
      ],
      "name": "getMaxCommittableETH",
      "outputs": [
        {
          "internalType": "uint256",
          "name": "",
          "type": "uint256"
        }
      ],
      "stateMutability": "view",
      "type": "function"
    },
    {
      "inputs": [
        {
          "internalType": "uint256",
          "name": "_id",
          "type": "uint256"
        },
        {
          "internalType": "uint256",
          "name": "_ethAmount",
          "type": "uint256"
        }
      ],
      "name": "getNativeToTokenAmount",
      "outputs": [
        {
          "internalType": "uint256",
          "name": "tokenAmount",
          "type": "uint256"
        }
      ],
      "stateMutability": "view",
      "type": "function"
    },
    {
      "inputs": [
        {
          "internalType": "uint256",
          "name": "_id",
          "type": "uint256"
        },
        {
          "internalType": "uint256",
          "name": "_delta",
          "type": "uint256"
        }
      ],
      "name": "getTokenToNativeToken",
      "outputs": [
        {
          "internalType": "uint256",
          "name": "ethValue",
          "type": "uint256"
        }
      ],
      "stateMutability": "view",
      "type": "function"
    },
    {
      "inputs": [
        {
          "internalType": "uint256",
          "name": "_id",
          "type": "uint256"
        },
        {
          "internalType": "address",
          "name": "_user",
          "type": "address"
        }
      ],
      "name": "getUserCommitment",
      "outputs": [
        {
          "components": [
            {
              "internalType": "uint256",
              "name": "amount",
              "type": "uint256"
            },
            {
              "internalType": "uint256",
              "name": "tokenAmount",
              "type": "uint256"
            },
            {
              "internalType": "bool",
              "name": "claimed",
              "type": "bool"
            },
            {
              "internalType": "bool",
              "name": "refunded",
              "type": "bool"
            }
          ],
          "internalType": "struct Commitment",
          "name": "",
          "type": "tuple"
        }
      ],
      "stateMutability": "view",
      "type": "function"
    },
    {
      "inputs": [],
      "name": "id",
      "outputs": [
        {
          "internalType": "uint256",
          "name": "",
          "type": "uint256"
        }
      ],
      "stateMutability": "view",
      "type": "function"
    },
    {
      "inputs": [
        {
          "internalType": "address",
          "name": "_creator",
          "type": "address"
        }
      ],
      "name": "isCreatorBlocked",
      "outputs": [
        {
          "internalType": "bool",
          "name": "blocked",
          "type": "bool"
        },
        {
          "internalType": "uint256",
          "name": "blockExpiresAt",
          "type": "uint256"
        }
      ],
      "stateMutability": "view",
      "type": "function"
    },
    {
      "inputs": [
        {
          "internalType": "address",
          "name": "_creator",
          "type": "address"
        }
      ],
      "name": "isMintable",
      "outputs": [
        {
          "internalType": "bool",
          "name": "",
          "type": "bool"
        }
      ],
      "stateMutability": "view",
      "type": "function"
    },
    {
      "inputs": [
        {
          "internalType": "uint256",
          "name": "_id",
          "type": "uint256"
        }
      ],
      "name": "isRefundable",
      "outputs": [
        {
          "internalType": "bool",
          "name": "",
          "type": "bool"
        }
      ],
      "stateMutability": "view",
      "type": "function"
    },
    {
      "inputs": [],
      "name": "memedFactory",
      "outputs": [
        {
          "internalType": "contract IMemedFactory",
          "name": "",
          "type": "address"
        }
      ],
      "stateMutability": "view",
      "type": "function"
    },
    {
      "inputs": [],
      "name": "owner",
      "outputs": [
        {
          "internalType": "address",
          "name": "",
          "type": "address"
        }
      ],
      "stateMutability": "view",
      "type": "function"
    },
    {
      "inputs": [],
      "name": "platformFeePercentage",
      "outputs": [
        {
          "internalType": "uint256",
          "name": "",
          "type": "uint256"
        }
      ],
      "stateMutability": "view",
      "type": "function"
    },
    {
      "inputs": [
        {
          "internalType": "uint256",
          "name": "s",
          "type": "uint256"
        }
      ],
      "name": "priceAt",
      "outputs": [
        {
          "internalType": "uint256",
          "name": "",
          "type": "uint256"
        }
      ],
      "stateMutability": "pure",
      "type": "function"
    },
    {
      "inputs": [
        {
          "internalType": "uint256",
          "name": "_id",
          "type": "uint256"
        }
      ],
      "name": "refund",
      "outputs": [],
      "stateMutability": "nonpayable",
      "type": "function"
    },
    {
      "inputs": [],
      "name": "renounceOwnership",
      "outputs": [],
      "stateMutability": "nonpayable",
      "type": "function"
    },
    {
      "inputs": [
        {
          "internalType": "uint256",
          "name": "_id",
          "type": "uint256"
        },
        {
          "internalType": "uint256",
          "name": "_amount",
          "type": "uint256"
        }
      ],
      "name": "sellTokens",
      "outputs": [],
      "stateMutability": "nonpayable",
      "type": "function"
    },
    {
      "inputs": [
        {
          "internalType": "address",
          "name": "_memedFactory",
          "type": "address"
        }
      ],
      "name": "setFactory",
      "outputs": [],
      "stateMutability": "nonpayable",
      "type": "function"
    },
    {
      "inputs": [
        {
          "internalType": "uint256",
          "name": "_platformFeePercentage",
          "type": "uint256"
        },
        {
          "internalType": "uint256",
          "name": "_feeDenominator",
          "type": "uint256"
        }
      ],
      "name": "setPlatformFee",
      "outputs": [],
      "stateMutability": "nonpayable",
      "type": "function"
    },
    {
      "inputs": [
        {
          "internalType": "address",
          "name": "_creator",
          "type": "address"
        }
      ],
      "name": "startFairLaunch",
      "outputs": [
        {
          "internalType": "uint256",
          "name": "",
          "type": "uint256"
        }
      ],
      "stateMutability": "nonpayable",
      "type": "function"
    },
    {
      "inputs": [
        {
          "internalType": "address",
          "name": "",
          "type": "address"
        }
      ],
      "name": "tokenIdByAddress",
      "outputs": [
        {
          "internalType": "uint256",
          "name": "",
          "type": "uint256"
        }
      ],
      "stateMutability": "view",
      "type": "function"
    },
    {
      "inputs": [
        {
          "internalType": "address",
          "name": "",
          "type": "address"
        },
        {
          "internalType": "uint256",
          "name": "",
          "type": "uint256"
        }
      ],
      "name": "tokenIdsByCreator",
      "outputs": [
        {
          "internalType": "uint256",
          "name": "",
          "type": "uint256"
        }
      ],
      "stateMutability": "view",
      "type": "function"
    },
    {
      "inputs": [
        {
          "internalType": "address",
          "name": "newOwner",
          "type": "address"
        }
      ],
      "name": "transferOwnership",
      "outputs": [],
      "stateMutability": "nonpayable",
      "type": "function"
    },
    {
      "stateMutability": "payable",
      "type": "receive"
    }
  ],
  "bytecode": "0x60806040526af8277896582678ac000000600255600a6003556103e8600455348015610029575f5ffd5b50335f73ffffffffffffffffffffffffffffffffffffffff168173ffffffffffffffffffffffffffffffffffffffff160361009b575f6040517f1e4fbdf700000000000000000000000000000000000000000000000000000000815260040161009291906101b7565b60405180910390fd5b6100aa816100b760201b60201c565b50600180819055506101d0565b5f5f5f9054906101000a900473ffffffffffffffffffffffffffffffffffffffff169050815f5f6101000a81548173ffffffffffffffffffffffffffffffffffffffff021916908373ffffffffffffffffffffffffffffffffffffffff1602179055508173ffffffffffffffffffffffffffffffffffffffff168173ffffffffffffffffffffffffffffffffffffffff167f8be0079c531659141344cd1fd0a4f28419497f9722a3daafe3b4186f6b6457e060405160405180910390a35050565b5f73ffffffffffffffffffffffffffffffffffffffff82169050919050565b5f6101a182610178565b9050919050565b6101b181610197565b82525050565b5f6020820190506101ca5f8301846101a8565b92915050565b6144da806101dd5f395ff3fe60806040526004361061021d575f3560e01c80638da5cb5b11610122578063cdd78cfc116100aa578063e8378fbf1161006e578063e8378fbf1461084b578063eced552614610887578063ed9772b6146108b1578063efa4a329146108d9578063f2fde38b1461090357610224565b8063cdd78cfc1461076b578063dba64bb614610795578063dc5ea5d9146107bf578063dd125a0a146107e7578063e0eeb3d31461080f57610224565b8063ae9abdf0116100f1578063ae9abdf01461065d578063af640d0f14610687578063bcd658ad146106b1578063c06ac352146106ee578063cce6ef441461072f57610224565b80638da5cb5b146105935780639dab2054146105bd578063abf599fc146105f9578063ad7738d41461062157610224565b8063468dacad116101a5578063715018a611610174578063715018a61461049e57806375808d5b146104b45780637f1b6bab146104f1578063899456571461052d5780638b7cc6291461056957610224565b8063468dacad146103c257806347b4812f146103fe5780635bb478081461043a57806365c252691461046257610224565b80632badbfc0116101ec5780632badbfc0146102e05780632e0f26251461030a5780632ff2e9dc14610334578063379607f51461035e578063416155ac1461038657610224565b8063180b0d7e146102285780631eec71fb14610252578063222b15fb1461027c578063278ecde1146102b857610224565b3661022457005b5f5ffd5b348015610233575f5ffd5b5061023c61092b565b6040516102499190612efe565b60405180910390f35b34801561025d575f5ffd5b50610266610931565b6040516102739190612efe565b60405180910390f35b348015610287575f5ffd5b506102a2600480360381019061029d9190612f82565b61094c565b6040516102af9190612fc7565b60405180910390f35b3480156102c3575f5ffd5b506102de60048036038101906102d9919061300a565b610976565b005b3480156102eb575f5ffd5b506102f4610e28565b6040516103019190613044565b60405180910390f35b348015610315575f5ffd5b5061031e610e40565b60405161032b9190612efe565b60405180910390f35b34801561033f575f5ffd5b50610348610e4c565b6040516103559190612efe565b60405180910390f35b348015610369575f5ffd5b50610384600480360381019061037f919061300a565b610e52565b005b348015610391575f5ffd5b506103ac60048036038101906103a79190612f82565b611143565b6040516103b99190612fc7565b60405180910390f35b3480156103cd575f5ffd5b506103e860048036038101906103e3919061305d565b6111ea565b6040516103f5919061310c565b60405180910390f35b348015610409575f5ffd5b50610424600480360381019061041f9190613125565b61129c565b6040516104319190612efe565b60405180910390f35b348015610445575f5ffd5b50610460600480360381019061045b9190612f82565b6113ab565b005b34801561046d575f5ffd5b5061048860048036038101906104839190613163565b611485565b6040516104959190612efe565b60405180910390f35b3480156104a9575f5ffd5b506104b26114b0565b005b3480156104bf575f5ffd5b506104da60048036038101906104d59190612f82565b6114c3565b6040516104e89291906131a1565b60405180910390f35b3480156104fc575f5ffd5b5061051760048036038101906105129190612f82565b61150f565b6040516105249190612efe565b60405180910390f35b348015610538575f5ffd5b50610553600480360381019061054e919061300a565b611524565b6040516105609190612efe565b60405180910390f35b348015610574575f5ffd5b5061057d6116ff565b60405161058a9190612efe565b60405180910390f35b34801561059e575f5ffd5b506105a761170c565b6040516105b49190613044565b60405180910390f35b3480156105c8575f5ffd5b506105e360048036038101906105de919061300a565b611733565b6040516105f09190612efe565b60405180910390f35b348015610604575f5ffd5b5061061f600480360381019061061a91906131c8565b61177b565b005b34801561062c575f5ffd5b5061064760048036038101906106429190613125565b6119b3565b6040516106549190612efe565b60405180910390f35b348015610668575f5ffd5b50610671611af9565b60405161067e9190612efe565b60405180910390f35b348015610692575f5ffd5b5061069b611b06565b6040516106a89190612efe565b60405180910390f35b3480156106bc575f5ffd5b506106d760048036038101906106d2919061300a565b611b0c565b6040516106e592919061328b565b60405180910390f35b3480156106f9575f5ffd5b50610714600480360381019061070f919061300a565b611b41565b604051610726969594939291906132b2565b60405180910390f35b34801561073a575f5ffd5b506107556004803603810190610750919061300a565b611ba4565b6040516107629190612fc7565b60405180910390f35b348015610776575f5ffd5b5061077f611bee565b60405161078c9190612efe565b60405180910390f35b3480156107a0575f5ffd5b506107a9611bf4565b6040516107b6919061336c565b60405180910390f35b3480156107ca575f5ffd5b506107e560048036038101906107e09190613125565b611c19565b005b3480156107f2575f5ffd5b5061080d60048036038101906108089190613125565b611c6c565b005b34801561081a575f5ffd5b5061083560048036038101906108309190612f82565b612177565b6040516108429190612efe565b60405180910390f35b348015610856575f5ffd5b50610871600480360381019061086c9190612f82565b6123bc565b60405161087e9190612efe565b60405180910390f35b348015610892575f5ffd5b5061089b6123d1565b6040516108a89190612efe565b60405180910390f35b3480156108bc575f5ffd5b506108d760048036038101906108d29190613125565b6123dd565b005b3480156108e4575f5ffd5b506108ed61283e565b6040516108fa9190612efe565b60405180910390f35b34801561090e575f5ffd5b5061092960048036038101906109249190612f82565b612845565b005b60045481565b670de0b6b3a7640000630bebc20061094991906133b2565b81565b5f5f610957836114c3565b509050610963836128c9565b15801561096e575080155b915050919050565b61097e612a56565b5f60075f8381526020019081526020015f20905061099b82611ba4565b6109da576040517f08c379a00000000000000000000000000000000000000000000000000000000081526004016109d19061344d565b60405180910390fd5b6004808111156109ed576109ec613218565b5b815f015f9054906101000a900460ff166004811115610a0f57610a0e613218565b5b14610c4f576004815f015f6101000a81548160ff02191690836004811115610a3a57610a39613218565b5b02179055505f62278d0042610a4f919061346b565b905080600a5f60055f9054906101000a900473ffffffffffffffffffffffffffffffffffffffff1673ffffffffffffffffffffffffffffffffffffffff16635d3575a6876040518263ffffffff1660e01b8152600401610aaf9190612efe565b602060405180830381865afa158015610aca573d5f5f3e3d5ffd5b505050506040513d601f19601f82011682018060405250810190610aee91906134b2565b73ffffffffffffffffffffffffffffffffffffffff1673ffffffffffffffffffffffffffffffffffffffff1681526020019081526020015f208190555060055f9054906101000a900473ffffffffffffffffffffffffffffffffffffffff1673ffffffffffffffffffffffffffffffffffffffff16635d3575a6846040518263ffffffff1660e01b8152600401610b859190612efe565b602060405180830381865afa158015610ba0573d5f5f3e3d5ffd5b505050506040513d601f19601f82011682018060405250810190610bc491906134b2565b73ffffffffffffffffffffffffffffffffffffffff167fbcd955d7cef17ce72a0bc972618a13a1ea8cccd6447662596a5db5c43e0b587582604051610c099190613527565b60405180910390a2827f17150adeeda7158a6b2adf5e6065d6ad3f05dcbb2ab7520f383c53edf0f799f78360020154604051610c459190612efe565b60405180910390a2505b5f816005015f3373ffffffffffffffffffffffffffffffffffffffff1673ffffffffffffffffffffffffffffffffffffffff1681526020019081526020015f2090505f815f015411610cd6576040517f08c379a0000000000000000000000000000000000000000000000000000000008152600401610ccd9061359d565b60405180910390fd5b8060020160019054906101000a900460ff1615610d28576040517f08c379a0000000000000000000000000000000000000000000000000000000008152600401610d1f90613605565b60405180910390fd5b5f73c190e6f26ce14e40d30251fde25927a73a5d58b673ffffffffffffffffffffffffffffffffffffffff1663a9059cbb33845f01546040518363ffffffff1660e01b8152600401610d7b929190613623565b6020604051808303815f875af1158015610d97573d5f5f3e3d5ffd5b505050506040513d601f19601f82011682018060405250810190610dbb9190613674565b905080610dfd576040517f08c379a0000000000000000000000000000000000000000000000000000000008152600401610df4906136e9565b60405180910390fd5b60018260020160016101000a81548160ff021916908315150217905550505050610e25612a9c565b50565b73c190e6f26ce14e40d30251fde25927a73a5d58b681565b670de0b6b3a764000081565b60025481565b610e5a612a56565b5f60075f8381526020019081526020015f20905060036004811115610e8257610e81613218565b5b815f015f9054906101000a900460ff166004811115610ea457610ea3613218565b5b14610ee4576040517f08c379a0000000000000000000000000000000000000000000000000000000008152600401610edb90613751565b60405180910390fd5b5f816005015f3373ffffffffffffffffffffffffffffffffffffffff1673ffffffffffffffffffffffffffffffffffffffff1681526020019081526020015f2090505f816001015411610f6c576040517f08c379a0000000000000000000000000000000000000000000000000000000008152600401610f63906137b9565b60405180910390fd5b806002015f9054906101000a900460ff1615610fbd576040517f08c379a0000000000000000000000000000000000000000000000000000000008152600401610fb490613821565b60405180910390fd5b6001816002015f6101000a81548160ff02191690831515021790555060055f9054906101000a900473ffffffffffffffffffffffffffffffffffffffff1673ffffffffffffffffffffffffffffffffffffffff16637bdc60d9846040518263ffffffff1660e01b81526004016110339190612efe565b5f60405180830381865afa15801561104d573d5f5f3e3d5ffd5b505050506040513d5f823e3d601f19601f820116820180604052508101906110759190613aba565b5f015173ffffffffffffffffffffffffffffffffffffffff1663aad3ec963383600101546040518363ffffffff1660e01b81526004016110b6929190613623565b5f604051808303815f87803b1580156110cd575f5ffd5b505af11580156110df573d5f5f3e3d5ffd5b505050503373ffffffffffffffffffffffffffffffffffffffff16837f880f2ef2613b092f1a0a819f294155c98667eb294b7e6bf7a3810278142c1a1c836001015460405161112e9190612efe565b60405180910390a35050611140612a9c565b50565b5f5f60095f8473ffffffffffffffffffffffffffffffffffffffff1673ffffffffffffffffffffffffffffffffffffffff1681526020019081526020015f205490505f8103611195575f9150506111e5565b5f60075f8381526020019081526020015f209050600160048111156111bd576111bc613218565b5b815f015f9054906101000a900460ff1660048111156111df576111de613218565b5b14925050505b919050565b6111f2612ebe565b60075f8481526020019081526020015f206005015f8373ffffffffffffffffffffffffffffffffffffffff1673ffffffffffffffffffffffffffffffffffffffff1681526020019081526020015f206040518060800160405290815f820154815260200160018201548152602001600282015f9054906101000a900460ff161515151581526020016002820160019054906101000a900460ff161515151581525050905092915050565b5f5f60075f8581526020019081526020015f2090505f81600301549050808411156112fc576040517f08c379a00000000000000000000000000000000000000000000000000000000081526004016112f390613b4b565b60405180910390fd5b5f670de0b6b3a7640000826113119190613b96565b90505f670de0b6b3a7640000866113289190613b96565b90505f8183600261133991906133b2565b61134391906133b2565b90505f828361135291906133b2565b90505f81836113619190613bc6565b686c6b935b8bbd40000061137591906133b2565b90505f670de0b6b3a7640000600261138d91906133b2565b9050808261139b9190613b96565b9850505050505050505092915050565b6113b3612aa5565b5f73ffffffffffffffffffffffffffffffffffffffff1660055f9054906101000a900473ffffffffffffffffffffffffffffffffffffffff1673ffffffffffffffffffffffffffffffffffffffff1614611442576040517f08c379a000000000000000000000000000000000000000000000000000000000815260040161143990613c43565b60405180910390fd5b8060055f6101000a81548173ffffffffffffffffffffffffffffffffffffffff021916908373ffffffffffffffffffffffffffffffffffffffff16021790555050565b6008602052815f5260405f20818154811061149e575f80fd5b905f5260205f20015f91509150505481565b6114b8612aa5565b6114c15f612b2c565b565b5f5f600a5f8473ffffffffffffffffffffffffffffffffffffffff1673ffffffffffffffffffffffffffffffffffffffff1681526020019081526020015f205490508042109150915091565b600a602052805f5260405f205f915090505481565b5f5f60075f8481526020019081526020015f2090506001600481111561154d5761154c613218565b5b815f015f9054906101000a900460ff16600481111561156f5761156e613218565b5b1461157d575f9150506116fa565b68022b1c8c1227a0000081600201541061159a575f9150506116fa565b5f816002015468022b1c8c1227a000006115b49190613bc6565b9050670de0b6b3a7640000630bebc2006115ce91906133b2565b8260030154106115e2575f925050506116fa565b5f8260030154670de0b6b3a7640000630bebc20061160091906133b2565b61160a9190613bc6565b90505f836003015490505f670de0b6b3a7640000826116299190613b96565b90505f670de0b6b3a7640000846116409190613b96565b90505f8183600261165191906133b2565b61165b91906133b2565b90505f828361166a91906133b2565b90505f670de0b6b3a7640000600261168291906133b2565b828461168e919061346b565b686c6b935b8bbd4000006116a291906133b2565b6116ac9190613b96565b90505f8189106116bc57816116be565b885b90505f6003546004546116d19190613bc6565b600454836116df91906133b2565b6116e99190613b96565b9050809b5050505050505050505050505b919050565b686c6b935b8bbd40000081565b5f5f5f9054906101000a900473ffffffffffffffffffffffffffffffffffffffff16905090565b5f5f670de0b6b3a7640000836117499190613b96565b9050670de0b6b3a764000081686c6b935b8bbd40000061176991906133b2565b6117739190613b96565b915050919050565b60055f9054906101000a900473ffffffffffffffffffffffffffffffffffffffff1673ffffffffffffffffffffffffffffffffffffffff163373ffffffffffffffffffffffffffffffffffffffff161461180a576040517f08c379a000000000000000000000000000000000000000000000000000000000815260040161180190613cd1565b60405180910390fd5b5f60075f8581526020019081526020015f2090506002600481111561183257611831613218565b5b815f015f9054906101000a900460ff16600481111561185457611853613218565b5b14611894576040517f08c379a000000000000000000000000000000000000000000000000000000000815260040161188b90613d5f565b60405180910390fd5b6003815f015f6101000a81548160ff021916908360048111156118ba576118b9613218565b5b021790555081816004015f6101000a81548173ffffffffffffffffffffffffffffffffffffffff021916908373ffffffffffffffffffffffffffffffffffffffff1602179055508360095f8573ffffffffffffffffffffffffffffffffffffffff1673ffffffffffffffffffffffffffffffffffffffff1681526020019081526020015f20819055508173ffffffffffffffffffffffffffffffffffffffff168373ffffffffffffffffffffffffffffffffffffffff16857fa50e0b9679f5601c270cdad10a93f0cf7343e8bc4cd12d6c16db0567dc44519584600201546040516119a59190612efe565b60405180910390a450505050565b5f5f60075f8581526020019081526020015f2090505f816003015490505f84036119e1575f92505050611af3565b5f670de0b6b3a7640000826119f69190613b96565b90505f686c6b935b8bbd40000090505f82686c6b935b8bbd4000006002611a1d91906133b2565b611a2791906133b2565b90505f8182611a3691906133b2565b90505f88670de0b6b3a7640000686c6b935b8bbd4000006008611a5991906133b2565b611a6391906133b2565b611a6d91906133b2565b90505f8183611a7c919061346b565b90505f611a8882612bed565b9050848111611aa2575f9950505050505050505050611af3565b5f8582611aaf9190613bc6565b90505f876002611abf91906133b2565b90505f8183611ace9190613b96565b9050670de0b6b3a764000081611ae491906133b2565b9c505050505050505050505050505b92915050565b68022b1c8c1227a0000081565b60065481565b5f5f5f60075f8581526020019081526020015f209050805f015f9054906101000a900460ff1681600201549250925050915091565b6007602052805f5260405f205f91509050805f015f9054906101000a900460ff1690806001015490806002015490806003015490806004015f9054906101000a900473ffffffffffffffffffffffffffffffffffffffff16908060070154905086565b5f5f60075f8481526020019081526020015f20905062278d008160010154611bcc919061346b565b42118015611be6575068022b1c8c1227a000008160020154105b915050919050565b60035481565b60055f9054906101000a900473ffffffffffffffffffffffffffffffffffffffff1681565b611c21612aa5565b81600381905550806004819055507fa30569950bb598ed8c92d36b49faae45e5cebba0f03647831e801b95cae04b3c8282604051611c60929190613d7d565b60405180910390a15050565b611c74612a56565b5f60075f8481526020019081526020015f20905060016004811115611c9c57611c9b613218565b5b815f015f9054906101000a900460ff166004811115611cbe57611cbd613218565b5b14611cfe576040517f08c379a0000000000000000000000000000000000000000000000000000000008152600401611cf590613dee565b60405180910390fd5b62278d008160010154611d11919061346b565b421115611d53576040517f08c379a0000000000000000000000000000000000000000000000000000000008152600401611d4a90613e56565b60405180910390fd5b5f8211611d95576040517f08c379a0000000000000000000000000000000000000000000000000000000008152600401611d8c90613ebe565b60405180910390fd5b73c190e6f26ce14e40d30251fde25927a73a5d58b673ffffffffffffffffffffffffffffffffffffffff166323b872dd3330856040518463ffffffff1660e01b8152600401611de693929190613edc565b6020604051808303815f875af1158015611e02573d5f5f3e3d5ffd5b505050506040513d601f19601f82011682018060405250810190611e269190613674565b505f60045460035484611e3991906133b2565b611e439190613b96565b90505f8184611e529190613bc6565b90505f611e5f86836119b3565b90505f8111611ea3576040517f08c379a0000000000000000000000000000000000000000000000000000000008152600401611e9a90613f5b565b60405180910390fd5b670de0b6b3a7640000630bebc200611ebb91906133b2565b818560030154611ecb919061346b565b1115611f0c576040517f08c379a0000000000000000000000000000000000000000000000000000000008152600401611f0390613fc3565b60405180910390fd5b5f831115611ffb5773c190e6f26ce14e40d30251fde25927a73a5d58b673ffffffffffffffffffffffffffffffffffffffff1663a9059cbb611f4c61170c565b856040518363ffffffff1660e01b8152600401611f6a929190613623565b6020604051808303815f875af1158015611f86573d5f5f3e3d5ffd5b505050506040513d601f19601f82011682018060405250810190611faa9190613674565b503373ffffffffffffffffffffffffffffffffffffffff16867f6f125bf8171b68b20f1b35b7783bcadd05ce66efeb4e38768a9ddcb1092255d185604051611ff2919061402b565b60405180910390a35b5f846005015f3373ffffffffffffffffffffffffffffffffffffffff1673ffffffffffffffffffffffffffffffffffffffff1681526020019081526020015f20905082815f015f82825461204f919061346b565b9250508190555081816001015f828254612069919061346b565b9250508190555081856003015f828254612083919061346b565b9250508190555082856002015f82825461209d919061346b565b9250508190555081856006015f3373ffffffffffffffffffffffffffffffffffffffff1673ffffffffffffffffffffffffffffffffffffffff1681526020019081526020015f205f8282546120f2919061346b565b925050819055503373ffffffffffffffffffffffffffffffffffffffff16877ff5882f2b24a419b3c13b05df32cf16a803f2fa76ec81659cdb868658816d4249886040516121409190612efe565b60405180910390a368022b1c8c1227a000008560020154106121665761216587612c5e565b5b5050505050612173612a9c565b5050565b5f5f73ffffffffffffffffffffffffffffffffffffffff168273ffffffffffffffffffffffffffffffffffffffff16146121f4576121b48261094c565b6121f3576040517f08c379a00000000000000000000000000000000000000000000000000000000081526004016121ea906140c7565b60405180910390fd5b5b60055f9054906101000a900473ffffffffffffffffffffffffffffffffffffffff1673ffffffffffffffffffffffffffffffffffffffff163373ffffffffffffffffffffffffffffffffffffffff1614612283576040517f08c379a000000000000000000000000000000000000000000000000000000000815260040161227a90614155565b60405180910390fd5b60065f81548092919061229590614173565b91905055505f60075f60065481526020019081526020015f2090506001815f015f6101000a81548160ff021916908360048111156122d6576122d5613218565b5b021790555042816001018190555042816007018190555060085f8473ffffffffffffffffffffffffffffffffffffffff1673ffffffffffffffffffffffffffffffffffffffff1681526020019081526020015f20600654908060018154018082558091505060019003905f5260205f20015f90919091909150558273ffffffffffffffffffffffffffffffffffffffff166006547fb6948299ea38c9d5ac9f98be169b0bff6eb2bf98881811a8518b8115731a7ebe4262278d004261239b919061346b565b6040516123a9929190613d7d565b60405180910390a3600654915050919050565b6009602052805f5260405f205f915090505481565b670de0b6b3a764000081565b6123e5612a56565b5f8111612427576040517f08c379a000000000000000000000000000000000000000000000000000000000815260040161241e90614204565b60405180910390fd5b8060075f8481526020019081526020015f206006015f3373ffffffffffffffffffffffffffffffffffffffff1673ffffffffffffffffffffffffffffffffffffffff1681526020019081526020015f205410156124b9576040517f08c379a00000000000000000000000000000000000000000000000000000000081526004016124b09061426c565b60405180910390fd5b5f60075f8481526020019081526020015f2090505f6124d8848461129c565b90505f600454600354836124ec91906133b2565b6124f69190613b96565b90505f81836125059190613bc6565b90508273c190e6f26ce14e40d30251fde25927a73a5d58b673ffffffffffffffffffffffffffffffffffffffff166370a08231306040518263ffffffff1660e01b81526004016125559190613044565b602060405180830381865afa158015612570573d5f5f3e3d5ffd5b505050506040513d601f19601f82011682018060405250810190612594919061429e565b10156125d5576040517f08c379a00000000000000000000000000000000000000000000000000000000081526004016125cc90614313565b60405180910390fd5b5f8211156126c45773c190e6f26ce14e40d30251fde25927a73a5d58b673ffffffffffffffffffffffffffffffffffffffff1663a9059cbb61261561170c565b846040518363ffffffff1660e01b8152600401612633929190613623565b6020604051808303815f875af115801561264f573d5f5f3e3d5ffd5b505050506040513d601f19601f820116820180604052508101906126739190613674565b503373ffffffffffffffffffffffffffffffffffffffff16867f6f125bf8171b68b20f1b35b7783bcadd05ce66efeb4e38768a9ddcb1092255d1846040516126bb919061437b565b60405180910390a35b84846006015f3373ffffffffffffffffffffffffffffffffffffffff1673ffffffffffffffffffffffffffffffffffffffff1681526020019081526020015f205f8282546127129190613bc6565b9250508190555084846003015f82825461272c9190613bc6565b9250508190555082846002015f8282546127469190613bc6565b9250508190555073c190e6f26ce14e40d30251fde25927a73a5d58b673ffffffffffffffffffffffffffffffffffffffff1663a9059cbb33836040518363ffffffff1660e01b815260040161279c929190613623565b6020604051808303815f875af11580156127b8573d5f5f3e3d5ffd5b505050506040513d601f19601f820116820180604052508101906127dc9190613674565b503373ffffffffffffffffffffffffffffffffffffffff16867ff37a75478aa82ebef98fa4a7c71324f93c6c5d6236ba80a86ed5f703dc5520388784604051612826929190613d7d565b60405180910390a35050505061283a612a9c565b5050565b62278d0081565b61284d612aa5565b5f73ffffffffffffffffffffffffffffffffffffffff168173ffffffffffffffffffffffffffffffffffffffff16036128bd575f6040517f1e4fbdf70000000000000000000000000000000000000000000000000000000081526004016128b49190613044565b60405180910390fd5b6128c681612b2c565b50565b5f5f60085f8473ffffffffffffffffffffffffffffffffffffffff1673ffffffffffffffffffffffffffffffffffffffff1681526020019081526020015f2080548060200260200160405190810160405280929190818152602001828054801561295057602002820191905f5260205f20905b81548152602001906001019080831161293c575b505050505090505f5f90505b8151811015612a4b576003600481111561297957612978613218565b5b60075f84848151811061298f5761298e6143a7565b5b602002602001015181526020019081526020015f205f015f9054906101000a900460ff1660048111156129c5576129c4613218565b5b1480612a2e5750600160048111156129e0576129df613218565b5b60075f8484815181106129f6576129f56143a7565b5b602002602001015181526020019081526020015f205f015f9054906101000a900460ff166004811115612a2c57612a2b613218565b5b145b15612a3e57600192505050612a51565b808060010191505061295c565b505f9150505b919050565b600260015403612a92576040517f3ee5aeb500000000000000000000000000000000000000000000000000000000815260040160405180910390fd5b6002600181905550565b60018081905550565b612aad612eb7565b73ffffffffffffffffffffffffffffffffffffffff16612acb61170c565b73ffffffffffffffffffffffffffffffffffffffff1614612b2a57612aee612eb7565b6040517f118cdaa7000000000000000000000000000000000000000000000000000000008152600401612b219190613044565b60405180910390fd5b565b5f5f5f9054906101000a900473ffffffffffffffffffffffffffffffffffffffff169050815f5f6101000a81548173ffffffffffffffffffffffffffffffffffffffff021916908373ffffffffffffffffffffffffffffffffffffffff1602179055508173ffffffffffffffffffffffffffffffffffffffff168173ffffffffffffffffffffffffffffffffffffffff167f8be0079c531659141344cd1fd0a4f28419497f9722a3daafe3b4186f6b6457e060405160405180910390a35050565b5f5f8203612bfd575f9050612c59565b5f6002600184612c0d919061346b565b612c179190613b96565b90505f8390505b80821015612c53578190506002828386612c389190613b96565b612c42919061346b565b612c4c9190613b96565b9150612c1e565b80925050505b919050565b5f60075f8381526020019081526020015f20905060016004811115612c8657612c85613218565b5b815f015f9054906101000a900460ff166004811115612ca857612ca7613218565b5b14612ce8576040517f08c379a0000000000000000000000000000000000000000000000000000000008152600401612cdf9061441e565b60405180910390fd5b68022b1c8c1227a0000081600201541015612d38576040517f08c379a0000000000000000000000000000000000000000000000000000000008152600401612d2f90614486565b60405180910390fd5b6003815f015f6101000a81548160ff02191690836004811115612d5e57612d5d613218565b5b02179055505f73c190e6f26ce14e40d30251fde25927a73a5d58b673ffffffffffffffffffffffffffffffffffffffff1663a9059cbb60055f9054906101000a900473ffffffffffffffffffffffffffffffffffffffff1684600201546040518363ffffffff1660e01b8152600401612dd8929190613623565b6020604051808303815f875af1158015612df4573d5f5f3e3d5ffd5b505050506040513d601f19601f82011682018060405250810190612e189190613674565b905080612e5a576040517f08c379a0000000000000000000000000000000000000000000000000000000008152600401612e51906136e9565b60405180910390fd5b6002825f015f6101000a81548160ff02191690836004811115612e8057612e7f613218565b5b0217905550827fca57ed74e41661ab4c390df89db7dea5626a9ca998ed0bd135cf3ef5cee5daeb60405160405180910390a2505050565b5f33905090565b60405180608001604052805f81526020015f81526020015f151581526020015f151581525090565b5f819050919050565b612ef881612ee6565b82525050565b5f602082019050612f115f830184612eef565b92915050565b5f604051905090565b5f5ffd5b5f5ffd5b5f73ffffffffffffffffffffffffffffffffffffffff82169050919050565b5f612f5182612f28565b9050919050565b612f6181612f47565b8114612f6b575f5ffd5b50565b5f81359050612f7c81612f58565b92915050565b5f60208284031215612f9757612f96612f20565b5b5f612fa484828501612f6e565b91505092915050565b5f8115159050919050565b612fc181612fad565b82525050565b5f602082019050612fda5f830184612fb8565b92915050565b612fe981612ee6565b8114612ff3575f5ffd5b50565b5f8135905061300481612fe0565b92915050565b5f6020828403121561301f5761301e612f20565b5b5f61302c84828501612ff6565b91505092915050565b61303e81612f47565b82525050565b5f6020820190506130575f830184613035565b92915050565b5f5f6040838503121561307357613072612f20565b5b5f61308085828601612ff6565b925050602061309185828601612f6e565b9150509250929050565b6130a481612ee6565b82525050565b6130b381612fad565b82525050565b608082015f8201516130cd5f85018261309b565b5060208201516130e0602085018261309b565b5060408201516130f360408501826130aa565b50606082015161310660608501826130aa565b50505050565b5f60808201905061311f5f8301846130b9565b92915050565b5f5f6040838503121561313b5761313a612f20565b5b5f61314885828601612ff6565b925050602061315985828601612ff6565b9150509250929050565b5f5f6040838503121561317957613178612f20565b5b5f61318685828601612f6e565b925050602061319785828601612ff6565b9150509250929050565b5f6040820190506131b45f830185612fb8565b6131c16020830184612eef565b9392505050565b5f5f5f606084860312156131df576131de612f20565b5b5f6131ec86828701612ff6565b93505060206131fd86828701612f6e565b925050604061320e86828701612f6e565b9150509250925092565b7f4e487b71000000000000000000000000000000000000000000000000000000005f52602160045260245ffd5b6005811061325657613255613218565b5b50565b5f81905061326682613245565b919050565b5f61327582613259565b9050919050565b6132858161326b565b82525050565b5f60408201905061329e5f83018561327c565b6132ab6020830184612eef565b9392505050565b5f60c0820190506132c55f83018961327c565b6132d26020830188612eef565b6132df6040830187612eef565b6132ec6060830186612eef565b6132f96080830185613035565b61330660a0830184612eef565b979650505050505050565b5f819050919050565b5f61333461332f61332a84612f28565b613311565b612f28565b9050919050565b5f6133458261331a565b9050919050565b5f6133568261333b565b9050919050565b6133668161334c565b82525050565b5f60208201905061337f5f83018461335d565b92915050565b7f4e487b71000000000000000000000000000000000000000000000000000000005f52601160045260245ffd5b5f6133bc82612ee6565b91506133c783612ee6565b92508282026133d581612ee6565b915082820484148315176133ec576133eb613385565b5b5092915050565b5f82825260208201905092915050565b7f46616972206c61756e6368206e6f74206661696c6564000000000000000000005f82015250565b5f6134376016836133f3565b915061344282613403565b602082019050919050565b5f6020820190508181035f8301526134648161342b565b9050919050565b5f61347582612ee6565b915061348083612ee6565b925082820190508082111561349857613497613385565b5b92915050565b5f815190506134ac81612f58565b92915050565b5f602082840312156134c7576134c6612f20565b5b5f6134d48482850161349e565b91505092915050565b7f4661696c65642066616972206c61756e636800000000000000000000000000005f82015250565b5f6135116012836133f3565b915061351c826134dd565b602082019050919050565b5f60408201905061353a5f830184612eef565b818103602083015261354b81613505565b905092915050565b7f4e6f20636f6d6d69746d656e74000000000000000000000000000000000000005f82015250565b5f613587600d836133f3565b915061359282613553565b602082019050919050565b5f6020820190508181035f8301526135b48161357b565b9050919050565b7f416c726561647920726566756e646564000000000000000000000000000000005f82015250565b5f6135ef6010836133f3565b91506135fa826135bb565b602082019050919050565b5f6020820190508181035f83015261361c816135e3565b9050919050565b5f6040820190506136365f830185613035565b6136436020830184612eef565b9392505050565b61365381612fad565b811461365d575f5ffd5b50565b5f8151905061366e8161364a565b92915050565b5f6020828403121561368957613688612f20565b5b5f61369684828501613660565b91505092915050565b7f5472616e73666572206661696c656400000000000000000000000000000000005f82015250565b5f6136d3600f836133f3565b91506136de8261369f565b602082019050919050565b5f6020820190508181035f830152613700816136c7565b9050919050565b7f46616972206c61756e6368206e6f7420636f6d706c65746564000000000000005f82015250565b5f61373b6019836133f3565b915061374682613707565b602082019050919050565b5f6020820190508181035f8301526137688161372f565b9050919050565b7f4e6f20746f6b656e7320746f20636c61696d00000000000000000000000000005f82015250565b5f6137a36012836133f3565b91506137ae8261376f565b602082019050919050565b5f6020820190508181035f8301526137d081613797565b9050919050565b7f416c726561647920636c61696d656400000000000000000000000000000000005f82015250565b5f61380b600f836133f3565b9150613816826137d7565b602082019050919050565b5f6020820190508181035f830152613838816137ff565b9050919050565b5f5ffd5b5f601f19601f8301169050919050565b7f4e487b71000000000000000000000000000000000000000000000000000000005f52604160045260245ffd5b61388982613843565b810181811067ffffffffffffffff821117156138a8576138a7613853565b5b80604052505050565b5f6138ba612f17565b90506138c68282613880565b919050565b5f5ffd5b5f5ffd5b5f5ffd5b5f67ffffffffffffffff8211156138f1576138f0613853565b5b6138fa82613843565b9050602081019050919050565b8281835e5f83830152505050565b5f613927613922846138d7565b6138b1565b905082815260208101848484011115613943576139426138d3565b5b61394e848285613907565b509392505050565b5f82601f83011261396a576139696138cf565b5b815161397a848260208601613915565b91505092915050565b5f61010082840312156139995761399861383f565b5b6139a46101006138b1565b90505f6139b38482850161349e565b5f8301525060206139c68482850161349e565b60208301525060406139da8482850161349e565b604083015250606082015167ffffffffffffffff8111156139fe576139fd6138cb565b5b613a0a84828501613956565b606083015250608082015167ffffffffffffffff811115613a2e57613a2d6138cb565b5b613a3a84828501613956565b60808301525060a082015167ffffffffffffffff811115613a5e57613a5d6138cb565b5b613a6a84828501613956565b60a08301525060c082015167ffffffffffffffff811115613a8e57613a8d6138cb565b5b613a9a84828501613956565b60c08301525060e0613aae84828501613660565b60e08301525092915050565b5f60208284031215613acf57613ace612f20565b5b5f82015167ffffffffffffffff811115613aec57613aeb612f24565b5b613af884828501613983565b91505092915050565b7f64656c7461203e207300000000000000000000000000000000000000000000005f82015250565b5f613b356009836133f3565b9150613b4082613b01565b602082019050919050565b5f6020820190508181035f830152613b6281613b29565b9050919050565b7f4e487b71000000000000000000000000000000000000000000000000000000005f52601260045260245ffd5b5f613ba082612ee6565b9150613bab83612ee6565b925082613bbb57613bba613b69565b5b828204905092915050565b5f613bd082612ee6565b9150613bdb83612ee6565b9250828203905081811115613bf357613bf2613385565b5b92915050565b7f466163746f727920616c726561647920736574000000000000000000000000005f82015250565b5f613c2d6013836133f3565b9150613c3882613bf9565b602082019050919050565b5f6020820190508181035f830152613c5a81613c21565b9050919050565b7f4f6e6c7920666163746f72792063616e2063616c6c20746869732066756e63745f8201527f696f6e0000000000000000000000000000000000000000000000000000000000602082015250565b5f613cbb6023836133f3565b9150613cc682613c61565b604082019050919050565b5f6020820190508181035f830152613ce881613caf565b9050919050565b7f46616972206c61756e6368206e6f7420726561647920746f20636f6d706c65745f8201527f6500000000000000000000000000000000000000000000000000000000000000602082015250565b5f613d496021836133f3565b9150613d5482613cef565b604082019050919050565b5f6020820190508181035f830152613d7681613d3d565b9050919050565b5f604082019050613d905f830185612eef565b613d9d6020830184612eef565b9392505050565b7f46616972206c61756e6368206e6f7420616374697665000000000000000000005f82015250565b5f613dd86016836133f3565b9150613de382613da4565b602082019050919050565b5f6020820190508181035f830152613e0581613dcc565b9050919050565b7f46616972206c61756e636820656e6465640000000000000000000000000000005f82015250565b5f613e406011836133f3565b9150613e4b82613e0c565b602082019050919050565b5f6020820190508181035f830152613e6d81613e34565b9050919050565b7f4d7573742073656e6420455448000000000000000000000000000000000000005f82015250565b5f613ea8600d836133f3565b9150613eb382613e74565b602082019050919050565b5f6020820190508181035f830152613ed581613e9c565b9050919050565b5f606082019050613eef5f830186613035565b613efc6020830185613035565b613f096040830184612eef565b949350505050565b7f496e73756666696369656e7420455448000000000000000000000000000000005f82015250565b5f613f456010836133f3565b9150613f5082613f11565b602082019050919050565b5f6020820190508181035f830152613f7281613f39565b9050919050565b7f4578636565647320746f6b656e7320666f722073616c650000000000000000005f82015250565b5f613fad6017836133f3565b9150613fb882613f79565b602082019050919050565b5f6020820190508181035f830152613fda81613fa1565b9050919050565b7f62757900000000000000000000000000000000000000000000000000000000005f82015250565b5f6140156003836133f3565b915061402082613fe1565b602082019050919050565b5f60408201905061403e5f830184612eef565b818103602083015261404f81614009565b905092915050565b7f43726561746f7220697320626c6f636b6564206f7220616c72656164792068615f8201527f73206120746f6b656e0000000000000000000000000000000000000000000000602082015250565b5f6140b16029836133f3565b91506140bc82614057565b604082019050919050565b5f6020820190508181035f8301526140de816140a5565b9050919050565b7f4f6e6c7920666163746f72792063616e2073746172742066616972206c61756e5f8201527f6368000000000000000000000000000000000000000000000000000000000000602082015250565b5f61413f6022836133f3565b915061414a826140e5565b604082019050919050565b5f6020820190508181035f83015261416c81614133565b9050919050565b5f61417d82612ee6565b91507fffffffffffffffffffffffffffffffffffffffffffffffffffffffffffffffff82036141af576141ae613385565b5b600182019050919050565b7f416d6f756e74206d75737420626520706f7369746976650000000000000000005f82015250565b5f6141ee6017836133f3565b91506141f9826141ba565b602082019050919050565b5f6020820190508181035f83015261421b816141e2565b9050919050565b7f496e73756666696369656e7420746f6b656e2062616c616e63650000000000005f82015250565b5f614256601a836133f3565b915061426182614222565b602082019050919050565b5f6020820190508181035f8301526142838161424a565b9050919050565b5f8151905061429881612fe0565b92915050565b5f602082840312156142b3576142b2612f20565b5b5f6142c08482850161428a565b91505092915050565b7f496e73756666696369656e742045544820696e20636f6e7472616374000000005f82015250565b5f6142fd601c836133f3565b9150614308826142c9565b602082019050919050565b5f6020820190508181035f83015261432a816142f1565b9050919050565b7f73656c6c000000000000000000000000000000000000000000000000000000005f82015250565b5f6143656004836133f3565b915061437082614331565b602082019050919050565b5f60408201905061438e5f830184612eef565b818103602083015261439f81614359565b905092915050565b7f4e487b71000000000000000000000000000000000000000000000000000000005f52603260045260245ffd5b7f46616972206c61756e6368206e6f74206c61756e6368696e67000000000000005f82015250565b5f6144086019836133f3565b9150614413826143d4565b602082019050919050565b5f6020820190508181035f830152614435816143fc565b9050919050565b7f496e73756666696369656e7420455448207261697365640000000000000000005f82015250565b5f6144706017836133f3565b915061447b8261443c565b602082019050919050565b5f6020820190508181035f83015261449d81614464565b905091905056fea26469706673582212200cc0002eea3e06cd9192b080a62e47dbd705b66a8bfcf60c5162f007b4d0f09964736f6c634300081c0033",
  "linkReferences": {},
  "deployedLinkReferences": {},
  "immutableReferences": {},
  "inputSourceName": "project/contracts/MemedTokenSale_test.sol",
  "buildInfoId": "solc-0_8_28-655e91b594218f13c975ba30c22a07f76a8f9328"
}