{
  "_format": "hh3-artifact-1",
  "contractName": "MemedFactory",
  "sourceName": "contracts/MemedFactory.sol",
  "abi": [
    {
      "inputs": [
        {
          "internalType": "address",
          "name": "_memedTokenSale",
          "type": "address"
        },
        {
          "internalType": "address",
          "name": "_memedBattle",
          "type": "address"
        },
        {
          "internalType": "address",
          "name": "_memedEngageToEarn",
          "type": "address"
        },
        {
          "internalType": "address",
          "name": "_uniswapV2Router",
          "type": "address"
        }
      ],
      "stateMutability": "nonpayable",
      "type": "constructor"
    },
    {
      "inputs": [
        {
          "internalType": "address",
          "name": "owner",
          "type": "address"
        }
      ],
      "name": "OwnableInvalidOwner",
      "type": "error"
    },
    {
      "inputs": [
        {
          "internalType": "address",
          "name": "account",
          "type": "address"
        }
      ],
      "name": "OwnableUnauthorizedAccount",
      "type": "error"
    },
    {
      "inputs": [],
      "name": "ReentrancyGuardReentrantCall",
      "type": "error"
    },
    {
      "anonymous": false,
      "inputs": [
        {
          "indexed": true,
          "internalType": "address",
          "name": "winner",
          "type": "address"
        },
        {
          "indexed": true,
          "internalType": "address",
          "name": "loser",
          "type": "address"
        },
        {
          "indexed": false,
          "internalType": "uint256",
          "name": "creatorIncentivesUnlocksAtWinner",
          "type": "uint256"
        },
        {
          "indexed": false,
          "internalType": "uint256",
          "name": "creatorIncentivesUnlocksAtLoser",
          "type": "uint256"
        }
      ],
      "name": "BattleUpdated",
      "type": "event"
    },
    {
      "anonymous": false,
      "inputs": [
        {
          "indexed": true,
          "internalType": "address",
          "name": "token",
          "type": "address"
        },
        {
          "indexed": false,
          "internalType": "uint256",
          "name": "heat",
          "type": "uint256"
        },
        {
          "indexed": false,
          "internalType": "uint256",
          "name": "timestamp",
          "type": "uint256"
        }
      ],
      "name": "HeatUpdated",
      "type": "event"
    },
    {
      "anonymous": false,
      "inputs": [
        {
          "indexed": true,
          "internalType": "address",
          "name": "previousOwner",
          "type": "address"
        },
        {
          "indexed": true,
          "internalType": "address",
          "name": "newOwner",
          "type": "address"
        }
      ],
      "name": "OwnershipTransferred",
      "type": "event"
    },
    {
      "anonymous": false,
      "inputs": [
        {
          "indexed": true,
          "internalType": "uint256",
          "name": "id",
          "type": "uint256"
        },
        {
          "indexed": true,
          "internalType": "address",
          "name": "token",
          "type": "address"
        },
        {
          "indexed": true,
          "internalType": "address",
          "name": "warriorNFT",
          "type": "address"
        }
      ],
      "name": "TokenCompletedFairLaunch",
      "type": "event"
    },
    {
      "anonymous": false,
      "inputs": [
        {
          "indexed": true,
          "internalType": "address",
          "name": "token",
          "type": "address"
        },
        {
          "indexed": true,
          "internalType": "address",
          "name": "owner",
          "type": "address"
        },
        {
          "indexed": false,
          "internalType": "string",
          "name": "name",
          "type": "string"
        },
        {
          "indexed": false,
          "internalType": "string",
          "name": "ticker",
          "type": "string"
        },
        {
          "indexed": false,
          "internalType": "string",
          "name": "description",
          "type": "string"
        },
        {
          "indexed": false,
          "internalType": "string",
          "name": "image",
          "type": "string"
        },
        {
          "indexed": false,
          "internalType": "bool",
          "name": "isClaimedByCreator",
          "type": "bool"
        },
        {
          "indexed": false,
          "internalType": "uint256",
          "name": "createdAt",
          "type": "uint256"
        }
      ],
      "name": "TokenCreated",
      "type": "event"
    },
    {
      "inputs": [],
      "name": "BATTLE_REWARDS_PERCENTAGE",
      "outputs": [
        {
          "internalType": "uint256",
          "name": "",
          "type": "uint256"
        }
      ],
      "stateMutability": "view",
      "type": "function"
    },
    {
      "inputs": [],
      "name": "ENGAGEMENT_REWARDS_PER_NEW_HEAT",
      "outputs": [
        {
          "internalType": "uint256",
          "name": "",
          "type": "uint256"
        }
      ],
      "stateMutability": "view",
      "type": "function"
    },
    {
      "inputs": [],
      "name": "INITIAL_REWARDS_PER_HEAT",
      "outputs": [
        {
          "internalType": "uint256",
          "name": "",
          "type": "uint256"
        }
      ],
      "stateMutability": "view",
      "type": "function"
    },
    {
      "inputs": [],
      "name": "MAX_ENGAGE_CREATOR_REWARD_PERCENTAGE",
      "outputs": [
        {
          "internalType": "uint256",
          "name": "",
          "type": "uint256"
        }
      ],
      "stateMutability": "view",
      "type": "function"
    },
    {
      "inputs": [],
      "name": "MAX_ENGAGE_USER_REWARD_PERCENTAGE",
      "outputs": [
        {
          "internalType": "uint256",
          "name": "",
          "type": "uint256"
        }
      ],
      "stateMutability": "view",
      "type": "function"
    },
    {
      "inputs": [],
      "name": "REWARD_PER_ENGAGEMENT",
      "outputs": [
        {
          "internalType": "uint256",
          "name": "",
          "type": "uint256"
        }
      ],
      "stateMutability": "view",
      "type": "function"
    },
    {
      "inputs": [
        {
          "internalType": "address",
          "name": "_winner",
          "type": "address"
        },
        {
          "internalType": "address",
          "name": "_loser",
          "type": "address"
        }
      ],
      "name": "battleUpdate",
      "outputs": [],
      "stateMutability": "nonpayable",
      "type": "function"
    },
    {
      "inputs": [
        {
          "internalType": "address",
          "name": "_token",
          "type": "address"
        },
        {
          "internalType": "address",
          "name": "_creator",
          "type": "address"
        }
      ],
      "name": "claimToken",
      "outputs": [],
      "stateMutability": "nonpayable",
      "type": "function"
    },
    {
      "inputs": [
        {
          "internalType": "uint256",
          "name": "_id",
          "type": "uint256"
        },
        {
          "internalType": "address",
          "name": "_token",
          "type": "address"
        },
        {
          "internalType": "address",
          "name": "_warriorNFT",
          "type": "address"
        }
      ],
      "name": "completeFairLaunch",
      "outputs": [],
      "stateMutability": "nonpayable",
      "type": "function"
    },
    {
      "inputs": [
        {
          "internalType": "address",
          "name": "_token",
          "type": "address"
        }
      ],
      "name": "getByToken",
      "outputs": [
        {
          "components": [
            {
              "internalType": "address",
              "name": "token",
              "type": "address"
            },
            {
              "internalType": "address",
              "name": "warriorNFT",
              "type": "address"
            },
            {
              "internalType": "address",
              "name": "creator",
              "type": "address"
            },
            {
              "internalType": "string",
              "name": "name",
              "type": "string"
            },
            {
              "internalType": "string",
              "name": "ticker",
              "type": "string"
            },
            {
              "internalType": "string",
              "name": "description",
              "type": "string"
            },
            {
              "internalType": "string",
              "name": "image",
              "type": "string"
            },
            {
              "internalType": "bool",
              "name": "isClaimedByCreator",
              "type": "bool"
            }
          ],
          "internalType": "struct TokenData",
          "name": "",
          "type": "tuple"
        }
      ],
      "stateMutability": "view",
      "type": "function"
    },
    {
      "inputs": [
        {
          "internalType": "uint256",
          "name": "_id",
          "type": "uint256"
        }
      ],
      "name": "getCreatorById",
      "outputs": [
        {
          "internalType": "address",
          "name": "",
          "type": "address"
        }
      ],
      "stateMutability": "view",
      "type": "function"
    },
    {
      "inputs": [
        {
          "internalType": "address",
          "name": "_token",
          "type": "address"
        }
      ],
      "name": "getHeat",
      "outputs": [
        {
          "internalType": "uint256",
          "name": "",
          "type": "uint256"
        }
      ],
      "stateMutability": "view",
      "type": "function"
    },
    {
      "inputs": [],
      "name": "getMemedBattle",
      "outputs": [
        {
          "internalType": "address",
          "name": "",
          "type": "address"
        }
      ],
      "stateMutability": "view",
      "type": "function"
    },
    {
      "inputs": [],
      "name": "getMemedEngageToEarn",
      "outputs": [
        {
          "internalType": "contract IMemedEngageToEarn",
          "name": "",
          "type": "address"
        }
      ],
      "stateMutability": "view",
      "type": "function"
    },
    {
      "inputs": [
        {
          "internalType": "address",
          "name": "_token",
          "type": "address"
        }
      ],
      "name": "getTokenByAddress",
      "outputs": [
        {
          "components": [
            {
              "internalType": "address",
              "name": "token",
              "type": "address"
            },
            {
              "internalType": "address",
              "name": "warriorNFT",
              "type": "address"
            },
            {
              "internalType": "address",
              "name": "creator",
              "type": "address"
            },
            {
              "internalType": "string",
              "name": "name",
              "type": "string"
            },
            {
              "internalType": "string",
              "name": "ticker",
              "type": "string"
            },
            {
              "internalType": "string",
              "name": "description",
              "type": "string"
            },
            {
              "internalType": "string",
              "name": "image",
              "type": "string"
            },
            {
              "internalType": "bool",
              "name": "isClaimedByCreator",
              "type": "bool"
            }
          ],
          "internalType": "struct TokenData",
          "name": "",
          "type": "tuple"
        }
      ],
      "stateMutability": "view",
      "type": "function"
    },
    {
      "inputs": [
        {
          "internalType": "uint256",
          "name": "_id",
          "type": "uint256"
        }
      ],
      "name": "getTokenById",
      "outputs": [
        {
          "components": [
            {
              "internalType": "address",
              "name": "token",
              "type": "address"
            },
            {
              "internalType": "address",
              "name": "warriorNFT",
              "type": "address"
            },
            {
              "internalType": "address",
              "name": "creator",
              "type": "address"
            },
            {
              "internalType": "string",
              "name": "name",
              "type": "string"
            },
            {
              "internalType": "string",
              "name": "ticker",
              "type": "string"
            },
            {
              "internalType": "string",
              "name": "description",
              "type": "string"
            },
            {
              "internalType": "string",
              "name": "image",
              "type": "string"
            },
            {
              "internalType": "bool",
              "name": "isClaimedByCreator",
              "type": "bool"
            }
          ],
          "internalType": "struct TokenData",
          "name": "",
          "type": "tuple"
        }
      ],
      "stateMutability": "view",
      "type": "function"
    },
    {
      "inputs": [],
      "name": "getTokens",
      "outputs": [
        {
          "components": [
            {
              "internalType": "address",
              "name": "token",
              "type": "address"
            },
            {
              "internalType": "address",
              "name": "warriorNFT",
              "type": "address"
            },
            {
              "internalType": "address",
              "name": "creator",
              "type": "address"
            },
            {
              "internalType": "string",
              "name": "name",
              "type": "string"
            },
            {
              "internalType": "string",
              "name": "ticker",
              "type": "string"
            },
            {
              "internalType": "string",
              "name": "description",
              "type": "string"
            },
            {
              "internalType": "string",
              "name": "image",
              "type": "string"
            },
            {
              "internalType": "bool",
              "name": "isClaimedByCreator",
              "type": "bool"
            }
          ],
          "internalType": "struct TokenData[]",
          "name": "",
          "type": "tuple[]"
        }
      ],
      "stateMutability": "view",
      "type": "function"
    },
    {
      "inputs": [
        {
          "internalType": "address",
          "name": "_token",
          "type": "address"
        }
      ],
      "name": "getWarriorNFT",
      "outputs": [
        {
          "internalType": "address",
          "name": "",
          "type": "address"
        }
      ],
      "stateMutability": "view",
      "type": "function"
    },
    {
      "inputs": [],
      "name": "memedBattle",
      "outputs": [
        {
          "internalType": "contract IMemedBattle",
          "name": "",
          "type": "address"
        }
      ],
      "stateMutability": "view",
      "type": "function"
    },
    {
      "inputs": [],
      "name": "memedEngageToEarn",
      "outputs": [
        {
          "internalType": "contract IMemedEngageToEarn",
          "name": "",
          "type": "address"
        }
      ],
      "stateMutability": "view",
      "type": "function"
    },
    {
      "inputs": [],
      "name": "memedTokenSale",
      "outputs": [
        {
          "internalType": "contract IMemedTokenSale",
          "name": "",
          "type": "address"
        }
      ],
      "stateMutability": "view",
      "type": "function"
    },
    {
      "inputs": [],
      "name": "owner",
      "outputs": [
        {
          "internalType": "address",
          "name": "",
          "type": "address"
        }
      ],
      "stateMutability": "view",
      "type": "function"
    },
    {
      "inputs": [],
      "name": "renounceOwnership",
      "outputs": [],
      "stateMutability": "nonpayable",
      "type": "function"
    },
    {
      "inputs": [
        {
          "internalType": "address",
          "name": "_creator",
          "type": "address"
        },
        {
          "internalType": "string",
          "name": "_name",
          "type": "string"
        },
        {
          "internalType": "string",
          "name": "_ticker",
          "type": "string"
        },
        {
          "internalType": "string",
          "name": "_description",
          "type": "string"
        },
        {
          "internalType": "string",
          "name": "_image",
          "type": "string"
        }
      ],
      "name": "startFairLaunch",
      "outputs": [],
      "stateMutability": "nonpayable",
      "type": "function"
    },
    {
      "inputs": [
        {
          "internalType": "uint256",
          "name": "_amount",
          "type": "uint256"
        },
        {
          "internalType": "address[]",
          "name": "_path",
          "type": "address[]"
        },
        {
          "internalType": "address",
          "name": "_to",
          "type": "address"
        }
      ],
      "name": "swap",
      "outputs": [
        {
          "internalType": "uint256[]",
          "name": "",
          "type": "uint256[]"
        }
      ],
      "stateMutability": "nonpayable",
      "type": "function"
    },
    {
      "inputs": [
        {
          "internalType": "uint256",
          "name": "",
          "type": "uint256"
        }
      ],
      "name": "tokenData",
      "outputs": [
        {
          "internalType": "address",
          "name": "token",
          "type": "address"
        },
        {
          "internalType": "address",
          "name": "warriorNFT",
          "type": "address"
        },
        {
          "internalType": "address",
          "name": "creator",
          "type": "address"
        },
        {
          "internalType": "string",
          "name": "name",
          "type": "string"
        },
        {
          "internalType": "string",
          "name": "ticker",
          "type": "string"
        },
        {
          "internalType": "string",
          "name": "description",
          "type": "string"
        },
        {
          "internalType": "string",
          "name": "image",
          "type": "string"
        },
        {
          "internalType": "bool",
          "name": "isClaimedByCreator",
          "type": "bool"
        }
      ],
      "stateMutability": "view",
      "type": "function"
    },
    {
      "inputs": [
        {
          "internalType": "uint256",
          "name": "",
          "type": "uint256"
        }
      ],
      "name": "tokenRewardData",
      "outputs": [
        {
          "internalType": "uint256",
          "name": "lastRewardAt",
          "type": "uint256"
        },
        {
          "internalType": "uint256",
          "name": "creatorIncentivesUnlocksAt",
          "type": "uint256"
        },
        {
          "internalType": "uint256",
          "name": "creatorIncentivesUnlockedAt",
          "type": "uint256"
        },
        {
          "internalType": "uint256",
          "name": "lastEngagementBoost",
          "type": "uint256"
        },
        {
          "internalType": "uint256",
          "name": "heat",
          "type": "uint256"
        },
        {
          "internalType": "uint256",
          "name": "lastHeatUpdate",
          "type": "uint256"
        },
        {
          "internalType": "uint256",
          "name": "createdAt",
          "type": "uint256"
        }
      ],
      "stateMutability": "view",
      "type": "function"
    },
    {
      "inputs": [
        {
          "internalType": "uint256",
          "name": "",
          "type": "uint256"
        }
      ],
      "name": "tokens",
      "outputs": [
        {
          "internalType": "address",
          "name": "",
          "type": "address"
        }
      ],
      "stateMutability": "view",
      "type": "function"
    },
    {
      "inputs": [
        {
          "internalType": "address",
          "name": "newOwner",
          "type": "address"
        }
      ],
      "name": "transferOwnership",
      "outputs": [],
      "stateMutability": "nonpayable",
      "type": "function"
    },
    {
      "inputs": [],
      "name": "uniswapV2Factory",
      "outputs": [
        {
          "internalType": "contract IUniswapV2Factory",
          "name": "",
          "type": "address"
        }
      ],
      "stateMutability": "view",
      "type": "function"
    },
    {
      "inputs": [],
      "name": "uniswapV2Router",
      "outputs": [
        {
          "internalType": "contract IUniswapV2Router02",
          "name": "",
          "type": "address"
        }
      ],
      "stateMutability": "view",
      "type": "function"
    },
    {
      "inputs": [
        {
          "components": [
            {
              "internalType": "address",
              "name": "token",
              "type": "address"
            },
            {
              "internalType": "uint256",
              "name": "heat",
              "type": "uint256"
            }
          ],
          "internalType": "struct HeatUpdate[]",
          "name": "_heatUpdates",
          "type": "tuple[]"
        }
      ],
      "name": "updateHeat",
      "outputs": [],
      "stateMutability": "nonpayable",
      "type": "function"
    },
    {
      "stateMutability": "payable",
      "type": "receive"
    }
  ],
  "bytecode": "0x6080604052620186a0600255601460035534801561001b575f5ffd5b50604051615ca6380380615ca6833981810160405281019061003d91906103ba565b335f73ffffffffffffffffffffffffffffffffffffffff168173ffffffffffffffffffffffffffffffffffffffff16036100ae575f6040517f1e4fbdf70000000000000000000000000000000000000000000000000000000081526004016100a5919061042d565b60405180910390fd5b6100bd8161029b60201b60201c565b50600180819055508360045f6101000a81548173ffffffffffffffffffffffffffffffffffffffff021916908373ffffffffffffffffffffffffffffffffffffffff1602179055508260055f6101000a81548173ffffffffffffffffffffffffffffffffffffffff021916908373ffffffffffffffffffffffffffffffffffffffff1602179055508160065f6101000a81548173ffffffffffffffffffffffffffffffffffffffff021916908373ffffffffffffffffffffffffffffffffffffffff16021790555080600a5f6101000a81548173ffffffffffffffffffffffffffffffffffffffff021916908373ffffffffffffffffffffffffffffffffffffffff160217905550600a5f9054906101000a900473ffffffffffffffffffffffffffffffffffffffff1673ffffffffffffffffffffffffffffffffffffffff1663c45a01556040518163ffffffff1660e01b8152600401602060405180830381865afa15801561022f573d5f5f3e3d5ffd5b505050506040513d601f19601f820116820180604052508101906102539190610446565b600b5f6101000a81548173ffffffffffffffffffffffffffffffffffffffff021916908373ffffffffffffffffffffffffffffffffffffffff16021790555050505050610471565b5f5f5f9054906101000a900473ffffffffffffffffffffffffffffffffffffffff169050815f5f6101000a81548173ffffffffffffffffffffffffffffffffffffffff021916908373ffffffffffffffffffffffffffffffffffffffff1602179055508173ffffffffffffffffffffffffffffffffffffffff168173ffffffffffffffffffffffffffffffffffffffff167f8be0079c531659141344cd1fd0a4f28419497f9722a3daafe3b4186f6b6457e060405160405180910390a35050565b5f5ffd5b5f73ffffffffffffffffffffffffffffffffffffffff82169050919050565b5f61038982610360565b9050919050565b6103998161037f565b81146103a3575f5ffd5b50565b5f815190506103b481610390565b92915050565b5f5f5f5f608085870312156103d2576103d161035c565b5b5f6103df878288016103a6565b94505060206103f0878288016103a6565b9350506040610401878288016103a6565b9250506060610412878288016103a6565b91505092959194509250565b6104278161037f565b82525050565b5f6020820190506104405f83018461041e565b92915050565b5f6020828403121561045b5761045a61035c565b5b5f610468848285016103a6565b91505092915050565b6158288061047e5f395ff3fe6080604052600436106101e6575f3560e01c80638da5cb5b11610101578063c923563411610094578063dd743bc811610063578063dd743bc81461071a578063e5659f0714610756578063f2fde38b14610780578063f797113f146107a8576101ed565b8063c923563414610676578063ca31879d1461069e578063d1f6d04a146106c6578063dc6930a3146106f0576101ed565b8063a40103d4116100d0578063a40103d4146105a5578063aa6ca808146105e1578063abf599fc1461060b578063b4b5b48f14610633576101ed565b80638da5cb5b146104d357806391ded8fa146104fd57806392ac258214610539578063a11d8ac71461057b576101ed565b80635153563b11610179578063715018a611610148578063715018a61461042d578063741c6ae81461044357806377e989f31461046d5780637bdc60d914610497576101ed565b80635153563b1461037357806359d0f7131461039d5780635d3575a6146103c75780635de7c44a14610403576101ed565b806327e2fee4116101b557806327e2fee414610295578063306d3508146102d1578063320dc01b1461030d5780634f64b2be14610337576101ed565b80630280a16f146101f157806311eefb291461021b5780631694505e14610243578063263a61001461026d576101ed565b366101ed57005b5f5ffd5b3480156101fc575f5ffd5b506102056107d2565b6040516102129190614093565b60405180910390f35b348015610226575f5ffd5b50610241600480360381019061023c919061411e565b6107d8565b005b34801561024e575f5ffd5b50610257610971565b60405161026491906141e3565b60405180910390f35b348015610278575f5ffd5b50610293600480360381019061028e919061428c565b610996565b005b3480156102a0575f5ffd5b506102bb60048036038101906102b69190614382565b611116565b6040516102c891906143bc565b60405180910390f35b3480156102dc575f5ffd5b506102f760048036038101906102f29190614382565b6111ea565b6040516103049190614093565b60405180910390f35b348015610318575f5ffd5b5061032161129f565b60405161032e9190614093565b60405180910390f35b348015610342575f5ffd5b5061035d600480360381019061035891906143ff565b6112a6565b60405161036a91906143bc565b60405180910390f35b34801561037e575f5ffd5b506103876112e1565b604051610394919061444a565b60405180910390f35b3480156103a8575f5ffd5b506103b1611306565b6040516103be9190614483565b60405180910390f35b3480156103d2575f5ffd5b506103ed60048036038101906103e891906143ff565b61132b565b6040516103fa91906143bc565b60405180910390f35b34801561040e575f5ffd5b50610417611367565b6040516104249190614093565b60405180910390f35b348015610438575f5ffd5b5061044161136d565b005b34801561044e575f5ffd5b50610457611380565b6040516104649190614093565b60405180910390f35b348015610478575f5ffd5b50610481611385565b60405161048e91906144bc565b60405180910390f35b3480156104a2575f5ffd5b506104bd60048036038101906104b891906143ff565b6113ad565b6040516104ca9190614630565b60405180910390f35b3480156104de575f5ffd5b506104e7611731565b6040516104f491906143bc565b60405180910390f35b348015610508575f5ffd5b50610523600480360381019061051e9190614382565b611758565b6040516105309190614630565b60405180910390f35b348015610544575f5ffd5b5061055f600480360381019061055a91906143ff565b611bea565b6040516105729796959493929190614650565b60405180910390f35b348015610586575f5ffd5b5061058f611c28565b60405161059c91906144bc565b60405180910390f35b3480156105b0575f5ffd5b506105cb60048036038101906105c69190614712565b611c4d565b6040516105d8919061483a565b60405180910390f35b3480156105ec575f5ffd5b506105f5611ecc565b60405161060291906149d7565b60405180910390f35b348015610616575f5ffd5b50610631600480360381019061062c91906149f7565b611fb3565b005b34801561063e575f5ffd5b50610659600480360381019061065491906143ff565b612952565b60405161066d989796959493929190614a9e565b60405180910390f35b348015610681575f5ffd5b5061069c60048036038101906106979190614b36565b612c17565b005b3480156106a9575f5ffd5b506106c460048036038101906106bf9190614b36565b612f7f565b005b3480156106d1575f5ffd5b506106da6133b9565b6040516106e791906143bc565b60405180910390f35b3480156106fb575f5ffd5b506107046133e1565b6040516107119190614b94565b60405180910390f35b348015610725575f5ffd5b50610740600480360381019061073b9190614382565b613406565b60405161074d9190614630565b60405180910390f35b348015610761575f5ffd5b5061076a613822565b6040516107779190614093565b60405180910390f35b34801561078b575f5ffd5b506107a660048036038101906107a19190614382565b613828565b005b3480156107b3575f5ffd5b506107bc6138ac565b6040516107c99190614093565b60405180910390f35b61c35081565b60055f9054906101000a900473ffffffffffffffffffffffffffffffffffffffff1673ffffffffffffffffffffffffffffffffffffffff163373ffffffffffffffffffffffffffffffffffffffff1614806108655750610836611731565b73ffffffffffffffffffffffffffffffffffffffff163373ffffffffffffffffffffffffffffffffffffffff16145b6108a4576040517f08c379a000000000000000000000000000000000000000000000000000000000815260040161089b90614bf7565b60405180910390fd5b5f8282905067ffffffffffffffff8111156108c2576108c1614c15565b5b6040519080825280602002602001820160405280156108fb57816020015b6108e8613fc8565b8152602001906001900390816108e05790505b5090505f5f90505b838390508110156109625783838281811061092157610920614c42565b5b9050604002018036038101906109379190614d0b565b82828151811061094a57610949614c42565b5b60200260200101819052508080600101915050610903565b5061096c816138b1565b505050565b600a5f9054906101000a900473ffffffffffffffffffffffffffffffffffffffff1681565b61099e613e2a565b5f73ffffffffffffffffffffffffffffffffffffffff168973ffffffffffffffffffffffffffffffffffffffff1614610aaa5760045f9054906101000a900473ffffffffffffffffffffffffffffffffffffffff1673ffffffffffffffffffffffffffffffffffffffff1663222b15fb8a6040518263ffffffff1660e01b8152600401610a2b91906143bc565b602060405180830381865afa158015610a46573d5f5f3e3d5ffd5b505050506040513d601f19601f82011682018060405250810190610a6a9190614d60565b610aa9576040517f08c379a0000000000000000000000000000000000000000000000000000000008152600401610aa090614dfb565b60405180910390fd5b5b5f60045f9054906101000a900473ffffffffffffffffffffffffffffffffffffffff1673ffffffffffffffffffffffffffffffffffffffff1663e0eeb3d38b6040518263ffffffff1660e01b8152600401610b0591906143bc565b6020604051808303815f875af1158015610b21573d5f5f3e3d5ffd5b505050506040513d601f19601f82011682018060405250810190610b459190614e2d565b90505f60075f8381526020019081526020015f20604051806101000160405290815f82015f9054906101000a900473ffffffffffffffffffffffffffffffffffffffff1673ffffffffffffffffffffffffffffffffffffffff1673ffffffffffffffffffffffffffffffffffffffff168152602001600182015f9054906101000a900473ffffffffffffffffffffffffffffffffffffffff1673ffffffffffffffffffffffffffffffffffffffff1673ffffffffffffffffffffffffffffffffffffffff168152602001600282015f9054906101000a900473ffffffffffffffffffffffffffffffffffffffff1673ffffffffffffffffffffffffffffffffffffffff1673ffffffffffffffffffffffffffffffffffffffff168152602001600382018054610c7390614e85565b80601f0160208091040260200160405190810160405280929190818152602001828054610c9f90614e85565b8015610cea5780601f10610cc157610100808354040283529160200191610cea565b820191905f5260205f20905b815481529060010190602001808311610ccd57829003601f168201915b50505050508152602001600482018054610d0390614e85565b80601f0160208091040260200160405190810160405280929190818152602001828054610d2f90614e85565b8015610d7a5780601f10610d5157610100808354040283529160200191610d7a565b820191905f5260205f20905b815481529060010190602001808311610d5d57829003601f168201915b50505050508152602001600582018054610d9390614e85565b80601f0160208091040260200160405190810160405280929190818152602001828054610dbf90614e85565b8015610e0a5780601f10610de157610100808354040283529160200191610e0a565b820191905f5260205f20905b815481529060010190602001808311610ded57829003601f168201915b50505050508152602001600682018054610e2390614e85565b80601f0160208091040260200160405190810160405280929190818152602001828054610e4f90614e85565b8015610e9a5780601f10610e7157610100808354040283529160200191610e9a565b820191905f5260205f20905b815481529060010190602001808311610e7d57829003601f168201915b50505050508152602001600782015f9054906101000a900460ff16151515158152505090508a816040019073ffffffffffffffffffffffffffffffffffffffff16908173ffffffffffffffffffffffffffffffffffffffff168152505089898080601f0160208091040260200160405190810160405280939291908181526020018383808284375f81840152601f19601f82011690508083019250505050505050816060018190525087878080601f0160208091040260200160405190810160405280939291908181526020018383808284375f81840152601f19601f82011690508083019250505050505050816080018190525085858080601f0160208091040260200160405190810160405280939291908181526020018383808284375f81840152601f19601f820116905080830192505050505050508160a0018190525083838080601f0160208091040260200160405190810160405280939291908181526020018383808284375f81840152601f19601f820116905080830192505050505050508160c001819052505f73ffffffffffffffffffffffffffffffffffffffff168b73ffffffffffffffffffffffffffffffffffffffff16148160e001901515908115158152505060025460085f8481526020019081526020015f205f0181905550806040015173ffffffffffffffffffffffffffffffffffffffff16815f015173ffffffffffffffffffffffffffffffffffffffff167fcb7f82b085ed59e06c3230e8120bd35445378a29a889d150ffda71e80b39d06b836060015184608001518560a001518660c001518760e001514260405161110196959493929190614eb5565b60405180910390a35050505050505050505050565b5f60075f60045f9054906101000a900473ffffffffffffffffffffffffffffffffffffffff1673ffffffffffffffffffffffffffffffffffffffff1663e8378fbf856040518263ffffffff1660e01b815260040161117491906143bc565b602060405180830381865afa15801561118f573d5f5f3e3d5ffd5b505050506040513d601f19601f820116820180604052508101906111b39190614e2d565b81526020019081526020015f206001015f9054906101000a900473ffffffffffffffffffffffffffffffffffffffff169050919050565b5f60085f60045f9054906101000a900473ffffffffffffffffffffffffffffffffffffffff1673ffffffffffffffffffffffffffffffffffffffff1663e8378fbf856040518263ffffffff1660e01b815260040161124891906143bc565b602060405180830381865afa158015611263573d5f5f3e3d5ffd5b505050506040513d601f19601f820116820180604052508101906112879190614e2d565b81526020019081526020015f20600401549050919050565b620186a081565b600981815481106112b5575f80fd5b905f5260205f20015f915054906101000a900473ffffffffffffffffffffffffffffffffffffffff1681565b60055f9054906101000a900473ffffffffffffffffffffffffffffffffffffffff1681565b600b5f9054906101000a900473ffffffffffffffffffffffffffffffffffffffff1681565b5f60075f8381526020019081526020015f206002015f9054906101000a900473ffffffffffffffffffffffffffffffffffffffff169050919050565b60025481565b611375613e2a565b61137e5f613eb1565b565b600281565b5f60065f9054906101000a900473ffffffffffffffffffffffffffffffffffffffff16905090565b6113b5613ff6565b60075f8381526020019081526020015f20604051806101000160405290815f82015f9054906101000a900473ffffffffffffffffffffffffffffffffffffffff1673ffffffffffffffffffffffffffffffffffffffff1673ffffffffffffffffffffffffffffffffffffffff168152602001600182015f9054906101000a900473ffffffffffffffffffffffffffffffffffffffff1673ffffffffffffffffffffffffffffffffffffffff1673ffffffffffffffffffffffffffffffffffffffff168152602001600282015f9054906101000a900473ffffffffffffffffffffffffffffffffffffffff1673ffffffffffffffffffffffffffffffffffffffff1673ffffffffffffffffffffffffffffffffffffffff1681526020016003820180546114e090614e85565b80601f016020809104026020016040519081016040528092919081815260200182805461150c90614e85565b80156115575780601f1061152e57610100808354040283529160200191611557565b820191905f5260205f20905b81548152906001019060200180831161153a57829003601f168201915b5050505050815260200160048201805461157090614e85565b80601f016020809104026020016040519081016040528092919081815260200182805461159c90614e85565b80156115e75780601f106115be576101008083540402835291602001916115e7565b820191905f5260205f20905b8154815290600101906020018083116115ca57829003601f168201915b5050505050815260200160058201805461160090614e85565b80601f016020809104026020016040519081016040528092919081815260200182805461162c90614e85565b80156116775780601f1061164e57610100808354040283529160200191611677565b820191905f5260205f20905b81548152906001019060200180831161165a57829003601f168201915b5050505050815260200160068201805461169090614e85565b80601f01602080910402602001604051908101604052809291908181526020018280546116bc90614e85565b80156117075780601f106116de57610100808354040283529160200191611707565b820191905f5260205f20905b8154815290600101906020018083116116ea57829003601f168201915b50505050508152602001600782015f9054906101000a900460ff1615151515815250509050919050565b5f5f5f9054906101000a900473ffffffffffffffffffffffffffffffffffffffff16905090565b611760613ff6565b5f60075f60045f9054906101000a900473ffffffffffffffffffffffffffffffffffffffff1673ffffffffffffffffffffffffffffffffffffffff1663e8378fbf866040518263ffffffff1660e01b81526004016117be91906143bc565b602060405180830381865afa1580156117d9573d5f5f3e3d5ffd5b505050506040513d601f19601f820116820180604052508101906117fd9190614e2d565b81526020019081526020015f20604051806101000160405290815f82015f9054906101000a900473ffffffffffffffffffffffffffffffffffffffff1673ffffffffffffffffffffffffffffffffffffffff1673ffffffffffffffffffffffffffffffffffffffff168152602001600182015f9054906101000a900473ffffffffffffffffffffffffffffffffffffffff1673ffffffffffffffffffffffffffffffffffffffff1673ffffffffffffffffffffffffffffffffffffffff168152602001600282015f9054906101000a900473ffffffffffffffffffffffffffffffffffffffff1673ffffffffffffffffffffffffffffffffffffffff1673ffffffffffffffffffffffffffffffffffffffff16815260200160038201805461192490614e85565b80601f016020809104026020016040519081016040528092919081815260200182805461195090614e85565b801561199b5780601f106119725761010080835404028352916020019161199b565b820191905f5260205f20905b81548152906001019060200180831161197e57829003601f168201915b505050505081526020016004820180546119b490614e85565b80601f01602080910402602001604051908101604052809291908181526020018280546119e090614e85565b8015611a2b5780601f10611a0257610100808354040283529160200191611a2b565b820191905f5260205f20905b815481529060010190602001808311611a0e57829003601f168201915b50505050508152602001600582018054611a4490614e85565b80601f0160208091040260200160405190810160405280929190818152602001828054611a7090614e85565b8015611abb5780601f10611a9257610100808354040283529160200191611abb565b820191905f5260205f20905b815481529060010190602001808311611a9e57829003601f168201915b50505050508152602001600682018054611ad490614e85565b80601f0160208091040260200160405190810160405280929190818152602001828054611b0090614e85565b8015611b4b5780601f10611b2257610100808354040283529160200191611b4b565b820191905f5260205f20905b815481529060010190602001808311611b2e57829003601f168201915b50505050508152602001600782015f9054906101000a900460ff16151515158152505090505f73ffffffffffffffffffffffffffffffffffffffff16815f015173ffffffffffffffffffffffffffffffffffffffff1603611be1576040517f08c379a0000000000000000000000000000000000000000000000000000000008152600401611bd890614f7a565b60405180910390fd5b80915050919050565b6008602052805f5260405f205f91509050805f0154908060010154908060020154908060030154908060040154908060050154908060060154905087565b60065f9054906101000a900473ffffffffffffffffffffffffffffffffffffffff1681565b6060611c57613f72565b60055f9054906101000a900473ffffffffffffffffffffffffffffffffffffffff1673ffffffffffffffffffffffffffffffffffffffff163373ffffffffffffffffffffffffffffffffffffffff161480611cfe575060065f9054906101000a900473ffffffffffffffffffffffffffffffffffffffff1673ffffffffffffffffffffffffffffffffffffffff163373ffffffffffffffffffffffffffffffffffffffff16145b611d3d576040517f08c379a0000000000000000000000000000000000000000000000000000000008152600401611d3490615008565b60405180910390fd5b83835f818110611d5057611d4f614c42565b5b9050602002016020810190611d659190614382565b73ffffffffffffffffffffffffffffffffffffffff1663095ea7b3600a5f9054906101000a900473ffffffffffffffffffffffffffffffffffffffff16876040518363ffffffff1660e01b8152600401611dc0929190615026565b6020604051808303815f875af1158015611ddc573d5f5f3e3d5ffd5b505050506040513d601f19601f82011682018060405250810190611e009190614d60565b505f600a5f9054906101000a900473ffffffffffffffffffffffffffffffffffffffff1673ffffffffffffffffffffffffffffffffffffffff166338ed1739875f88888861012c42611e52919061507a565b6040518763ffffffff1660e01b8152600401611e7396959493929190615193565b5f604051808303815f875af1158015611e8e573d5f5f3e3d5ffd5b505050506040513d5f823e3d601f19601f82011682018060405250810190611eb691906152ad565b905080915050611ec4613fb8565b949350505050565b60605f60098054905067ffffffffffffffff811115611eee57611eed614c15565b5b604051908082528060200260200182016040528015611f2757816020015b611f14613ff6565b815260200190600190039081611f0c5790505b5090505f5f90505b600980549050811015611fab57611f8060098281548110611f5357611f52614c42565b5b905f5260205f20015f9054906101000a900473ffffffffffffffffffffffffffffffffffffffff16611758565b828281518110611f9357611f92614c42565b5b60200260200101819052508080600101915050611f2f565b508091505090565b611fbb613e2a565b5f60075f8581526020019081526020015f20604051806101000160405290815f82015f9054906101000a900473ffffffffffffffffffffffffffffffffffffffff1673ffffffffffffffffffffffffffffffffffffffff1673ffffffffffffffffffffffffffffffffffffffff168152602001600182015f9054906101000a900473ffffffffffffffffffffffffffffffffffffffff1673ffffffffffffffffffffffffffffffffffffffff1673ffffffffffffffffffffffffffffffffffffffff168152602001600282015f9054906101000a900473ffffffffffffffffffffffffffffffffffffffff1673ffffffffffffffffffffffffffffffffffffffff1673ffffffffffffffffffffffffffffffffffffffff1681526020016003820180546120e790614e85565b80601f016020809104026020016040519081016040528092919081815260200182805461211390614e85565b801561215e5780601f106121355761010080835404028352916020019161215e565b820191905f5260205f20905b81548152906001019060200180831161214157829003601f168201915b5050505050815260200160048201805461217790614e85565b80601f01602080910402602001604051908101604052809291908181526020018280546121a390614e85565b80156121ee5780601f106121c5576101008083540402835291602001916121ee565b820191905f5260205f20905b8154815290600101906020018083116121d157829003601f168201915b5050505050815260200160058201805461220790614e85565b80601f016020809104026020016040519081016040528092919081815260200182805461223390614e85565b801561227e5780601f106122555761010080835404028352916020019161227e565b820191905f5260205f20905b81548152906001019060200180831161226157829003601f168201915b5050505050815260200160068201805461229790614e85565b80601f01602080910402602001604051908101604052809291908181526020018280546122c390614e85565b801561230e5780601f106122e55761010080835404028352916020019161230e565b820191905f5260205f20905b8154815290600101906020018083116122f157829003601f168201915b50505050508152602001600782015f9054906101000a900460ff16151515158152505090505f5f60045f9054906101000a900473ffffffffffffffffffffffffffffffffffffffff1673ffffffffffffffffffffffffffffffffffffffff1663bcd658ad876040518263ffffffff1660e01b815260040161238f9190614093565b6040805180830381865afa1580156123a9573d5f5f3e3d5ffd5b505050506040513d601f19601f820116820180604052508101906123cd9190615317565b91509150600260048111156123e5576123e4615355565b5b8260048111156123f8576123f7615355565b5b14612438576040517f08c379a000000000000000000000000000000000000000000000000000000000815260040161242f906153f2565b60405180910390fd5b5f8573ffffffffffffffffffffffffffffffffffffffff1663ebda16eb6040518163ffffffff1660e01b8152600401602060405180830381865afa158015612482573d5f5f3e3d5ffd5b505050506040513d601f19601f820116820180604052508101906124a69190614e2d565b905085845f019073ffffffffffffffffffffffffffffffffffffffff16908173ffffffffffffffffffffffffffffffffffffffff168152505084846020019073ffffffffffffffffffffffffffffffffffffffff16908173ffffffffffffffffffffffffffffffffffffffff1681525050600986908060018154018082558091505060019003905f5260205f20015f9091909190916101000a81548173ffffffffffffffffffffffffffffffffffffffff021916908373ffffffffffffffffffffffffffffffffffffffff1602179055508473ffffffffffffffffffffffffffffffffffffffff168673ffffffffffffffffffffffffffffffffffffffff16887fdbd3908ed1551f131cac0b0e54b86f03495799941eeb3290140b962f787409d460405160405180910390a45f600b5f9054906101000a900473ffffffffffffffffffffffffffffffffffffffff1673ffffffffffffffffffffffffffffffffffffffff1663c9c6539688600a5f9054906101000a900473ffffffffffffffffffffffffffffffffffffffff1673ffffffffffffffffffffffffffffffffffffffff1663ad5c46486040518163ffffffff1660e01b8152600401602060405180830381865afa15801561267b573d5f5f3e3d5ffd5b505050506040513d601f19601f8201168201806040525081019061269f9190615424565b6040518363ffffffff1660e01b81526004016126bc92919061544f565b6020604051808303815f875af11580156126d8573d5f5f3e3d5ffd5b505050506040513d601f19601f820116820180604052508101906126fc9190615424565b90508673ffffffffffffffffffffffffffffffffffffffff1663095ea7b3600a5f9054906101000a900473ffffffffffffffffffffffffffffffffffffffff168973ffffffffffffffffffffffffffffffffffffffff1663ebda16eb6040518163ffffffff1660e01b8152600401602060405180830381865afa158015612785573d5f5f3e3d5ffd5b505050506040513d601f19601f820116820180604052508101906127a99190614e2d565b6040518363ffffffff1660e01b81526004016127c6929190615026565b6020604051808303815f875af11580156127e2573d5f5f3e3d5ffd5b505050506040513d601f19601f820116820180604052508101906128069190614d60565b50600a5f9054906101000a900473ffffffffffffffffffffffffffffffffffffffff1673ffffffffffffffffffffffffffffffffffffffff1663f305d7198489855f5f5f61012c42612858919061507a565b6040518863ffffffff1660e01b815260040161287996959493929190615476565b60606040518083038185885af1158015612895573d5f5f3e3d5ffd5b50505050506040513d601f19601f820116820180604052508101906128ba91906154d5565b50505060045f9054906101000a900473ffffffffffffffffffffffffffffffffffffffff1673ffffffffffffffffffffffffffffffffffffffff1663abf599fc8989846040518463ffffffff1660e01b815260040161291b93929190615525565b5f604051808303815f87803b158015612932575f5ffd5b505af1158015612944573d5f5f3e3d5ffd5b505050505050505050505050565b6007602052805f5260405f205f91509050805f015f9054906101000a900473ffffffffffffffffffffffffffffffffffffffff1690806001015f9054906101000a900473ffffffffffffffffffffffffffffffffffffffff1690806002015f9054906101000a900473ffffffffffffffffffffffffffffffffffffffff16908060030180546129e090614e85565b80601f0160208091040260200160405190810160405280929190818152602001828054612a0c90614e85565b8015612a575780601f10612a2e57610100808354040283529160200191612a57565b820191905f5260205f20905b815481529060010190602001808311612a3a57829003601f168201915b505050505090806004018054612a6c90614e85565b80601f0160208091040260200160405190810160405280929190818152602001828054612a9890614e85565b8015612ae35780601f10612aba57610100808354040283529160200191612ae3565b820191905f5260205f20905b815481529060010190602001808311612ac657829003601f168201915b505050505090806005018054612af890614e85565b80601f0160208091040260200160405190810160405280929190818152602001828054612b2490614e85565b8015612b6f5780601f10612b4657610100808354040283529160200191612b6f565b820191905f5260205f20905b815481529060010190602001808311612b5257829003601f168201915b505050505090806006018054612b8490614e85565b80601f0160208091040260200160405190810160405280929190818152602001828054612bb090614e85565b8015612bfb5780601f10612bd257610100808354040283529160200191612bfb565b820191905f5260205f20905b815481529060010190602001808311612bde57829003601f168201915b505050505090806007015f9054906101000a900460ff16905088565b60055f9054906101000a900473ffffffffffffffffffffffffffffffffffffffff1673ffffffffffffffffffffffffffffffffffffffff163373ffffffffffffffffffffffffffffffffffffffff1614612ca6576040517f08c379a0000000000000000000000000000000000000000000000000000000008152600401612c9d90614bf7565b60405180910390fd5b5f60085f60045f9054906101000a900473ffffffffffffffffffffffffffffffffffffffff1673ffffffffffffffffffffffffffffffffffffffff1663e8378fbf866040518263ffffffff1660e01b8152600401612d0491906143bc565b602060405180830381865afa158015612d1f573d5f5f3e3d5ffd5b505050506040513d601f19601f82011682018060405250810190612d439190614e2d565b81526020019081526020015f206040518060e00160405290815f8201548152602001600182015481526020016002820154815260200160038201548152602001600482015481526020016005820154815260200160068201548152505090505f60085f60045f9054906101000a900473ffffffffffffffffffffffffffffffffffffffff1673ffffffffffffffffffffffffffffffffffffffff1663e8378fbf866040518263ffffffff1660e01b8152600401612e0091906143bc565b602060405180830381865afa158015612e1b573d5f5f3e3d5ffd5b505050506040513d601f19601f82011682018060405250810190612e3f9190614e2d565b81526020019081526020015f206040518060e00160405290815f82015481526020016001820154815260200160028201548152602001600382015481526020016004820154815260200160058201548152602001600682015481525050905060646003548360200151612eb2919061555a565b612ebc91906155c8565b8260200151612ecb91906155f8565b82602001818152505060646003548260200151612ee8919061555a565b612ef291906155c8565b8160200151612f01919061507a565b8160200181815250508273ffffffffffffffffffffffffffffffffffffffff168473ffffffffffffffffffffffffffffffffffffffff167faecea04ec10c6c0b9d91c8e45440289d97d5737d78401b23bc3ca82031eae93284602001518460200151604051612f7192919061562b565b60405180910390a350505050565b612f87613f72565b612f8f613e2a565b5f612f9983611758565b90508173ffffffffffffffffffffffffffffffffffffffff16816040015173ffffffffffffffffffffffffffffffffffffffff161461300d576040517f08c379a00000000000000000000000000000000000000000000000000000000081526004016130049061569c565b60405180910390fd5b8060e0015115613052576040517f08c379a000000000000000000000000000000000000000000000000000000000815260040161304990615704565b60405180910390fd5b60045f9054906101000a900473ffffffffffffffffffffffffffffffffffffffff1673ffffffffffffffffffffffffffffffffffffffff1663222b15fb836040518263ffffffff1660e01b81526004016130ac91906143bc565b602060405180830381865afa1580156130c7573d5f5f3e3d5ffd5b505050506040513d601f19601f820116820180604052508101906130eb9190614d60565b1561312b576040517f08c379a00000000000000000000000000000000000000000000000000000000081526004016131229061576c565b60405180910390fd5b60018160e001901515908115158152505060085f60045f9054906101000a900473ffffffffffffffffffffffffffffffffffffffff1673ffffffffffffffffffffffffffffffffffffffff1663e8378fbf866040518263ffffffff1660e01b815260040161319991906143bc565b602060405180830381865afa1580156131b4573d5f5f3e3d5ffd5b505050506040513d601f19601f820116820180604052508101906131d89190614e2d565b81526020019081526020015f206004015460085f60045f9054906101000a900473ffffffffffffffffffffffffffffffffffffffff1673ffffffffffffffffffffffffffffffffffffffff1663e8378fbf876040518263ffffffff1660e01b815260040161324691906143bc565b602060405180830381865afa158015613261573d5f5f3e3d5ffd5b505050506040513d601f19601f820116820180604052508101906132859190614e2d565b81526020019081526020015f205f0181905550805f015173ffffffffffffffffffffffffffffffffffffffff1663aad3ec9682604001516064600560045f9054906101000a900473ffffffffffffffffffffffffffffffffffffffff1673ffffffffffffffffffffffffffffffffffffffff16632ff2e9dc6040518163ffffffff1660e01b8152600401602060405180830381865afa15801561332a573d5f5f3e3d5ffd5b505050506040513d601f19601f8201168201806040525081019061334e9190614e2d565b613358919061555a565b61336291906155c8565b6040518363ffffffff1660e01b815260040161337f929190615026565b5f604051808303815f87803b158015613396575f5ffd5b505af11580156133a8573d5f5f3e3d5ffd5b50505050506133b5613fb8565b5050565b5f60055f9054906101000a900473ffffffffffffffffffffffffffffffffffffffff16905090565b60045f9054906101000a900473ffffffffffffffffffffffffffffffffffffffff1681565b61340e613ff6565b60075f60045f9054906101000a900473ffffffffffffffffffffffffffffffffffffffff1673ffffffffffffffffffffffffffffffffffffffff1663e8378fbf856040518263ffffffff1660e01b815260040161346b91906143bc565b602060405180830381865afa158015613486573d5f5f3e3d5ffd5b505050506040513d601f19601f820116820180604052508101906134aa9190614e2d565b81526020019081526020015f20604051806101000160405290815f82015f9054906101000a900473ffffffffffffffffffffffffffffffffffffffff1673ffffffffffffffffffffffffffffffffffffffff1673ffffffffffffffffffffffffffffffffffffffff168152602001600182015f9054906101000a900473ffffffffffffffffffffffffffffffffffffffff1673ffffffffffffffffffffffffffffffffffffffff1673ffffffffffffffffffffffffffffffffffffffff168152602001600282015f9054906101000a900473ffffffffffffffffffffffffffffffffffffffff1673ffffffffffffffffffffffffffffffffffffffff1673ffffffffffffffffffffffffffffffffffffffff1681526020016003820180546135d190614e85565b80601f01602080910402602001604051908101604052809291908181526020018280546135fd90614e85565b80156136485780601f1061361f57610100808354040283529160200191613648565b820191905f5260205f20905b81548152906001019060200180831161362b57829003601f168201915b5050505050815260200160048201805461366190614e85565b80601f016020809104026020016040519081016040528092919081815260200182805461368d90614e85565b80156136d85780601f106136af576101008083540402835291602001916136d8565b820191905f5260205f20905b8154815290600101906020018083116136bb57829003601f168201915b505050505081526020016005820180546136f190614e85565b80601f016020809104026020016040519081016040528092919081815260200182805461371d90614e85565b80156137685780601f1061373f57610100808354040283529160200191613768565b820191905f5260205f20905b81548152906001019060200180831161374b57829003601f168201915b5050505050815260200160068201805461378190614e85565b80601f01602080910402602001604051908101604052809291908181526020018280546137ad90614e85565b80156137f85780601f106137cf576101008083540402835291602001916137f8565b820191905f5260205f20905b8154815290600101906020018083116137db57829003601f168201915b50505050508152602001600782015f9054906101000a900460ff1615151515815250509050919050565b60035481565b613830613e2a565b5f73ffffffffffffffffffffffffffffffffffffffff168173ffffffffffffffffffffffffffffffffffffffff16036138a0575f6040517f1e4fbdf700000000000000000000000000000000000000000000000000000000815260040161389791906143bc565b60405180910390fd5b6138a981613eb1565b50565b600181565b5f5f90505b8151811015613e26575f6138e68383815181106138d6576138d5614c42565b5b60200260200101515f0151611758565b90505f73ffffffffffffffffffffffffffffffffffffffff16815f015173ffffffffffffffffffffffffffffffffffffffff1603613959576040517f08c379a000000000000000000000000000000000000000000000000000000000815260040161395090614f7a565b60405180910390fd5b5f60085f60045f9054906101000a900473ffffffffffffffffffffffffffffffffffffffff1673ffffffffffffffffffffffffffffffffffffffff1663e8378fbf8787815181106139ad576139ac614c42565b5b60200260200101515f01516040518263ffffffff1660e01b81526004016139d491906143bc565b602060405180830381865afa1580156139ef573d5f5f3e3d5ffd5b505050506040513d601f19601f82011682018060405250810190613a139190614e2d565b81526020019081526020015f206040518060e00160405290815f82015481526020016001820154815260200160028201548152602001600382015481526020016004820154815260200160058201548152602001600682015481525050905062015180815f0151613a84919061507a565b421015613ac6576040517f08c379a0000000000000000000000000000000000000000000000000000000008152600401613abd906157d4565b60405180910390fd5b42815f018181525050838381518110613ae257613ae1614c42565b5b602002602001015160200151815f018181525050805f0151848481518110613b0d57613b0c614c42565b5b602002602001015160200151613b2391906155f8565b81608001818151613b34919061507a565b9150818152505061c350815f01518260800151613b5191906155f8565b10158015613bf7575060065f9054906101000a900473ffffffffffffffffffffffffffffffffffffffff1673ffffffffffffffffffffffffffffffffffffffff1663f251f45f835f01516040518263ffffffff1660e01b8152600401613bb791906143bc565b602060405180830381865afa158015613bd2573d5f5f3e3d5ffd5b505050506040513d601f19601f82011682018060405250810190613bf69190614d60565b5b15613c945760065f9054906101000a900473ffffffffffffffffffffffffffffffffffffffff1673ffffffffffffffffffffffffffffffffffffffff16636491e566835f01516040518263ffffffff1660e01b8152600401613c5991906143bc565b5f604051808303815f87803b158015613c70575f5ffd5b505af1158015613c82573d5f5f3e3d5ffd5b505050508060800151815f0181815250505b8160e001518015613cbc5750806020015181604001518260800151613cb991906155f8565b10155b8015613d345750815f015173ffffffffffffffffffffffffffffffffffffffff1663c52aa2cf6040518163ffffffff1660e01b8152600401602060405180830381865afa158015613d0f573d5f5f3e3d5ffd5b505050506040513d601f19601f82011682018060405250810190613d339190614d60565b5b15613da6578060800151816040018181525050815f015173ffffffffffffffffffffffffffffffffffffffff1663a431831e6040518163ffffffff1660e01b81526004015f604051808303815f87803b158015613d8f575f5ffd5b505af1158015613da1573d5f5f3e3d5ffd5b505050505b838381518110613db957613db8614c42565b5b60200260200101515f015173ffffffffffffffffffffffffffffffffffffffff167f17f0fa8193ad599e6d9e20fb742ac1d5fd0b1bf4246f0aa664a4c293863ffac0826080015142604051613e0f92919061562b565b60405180910390a2505080806001019150506138b6565b5050565b613e32613fc1565b73ffffffffffffffffffffffffffffffffffffffff16613e50611731565b73ffffffffffffffffffffffffffffffffffffffff1614613eaf57613e73613fc1565b6040517f118cdaa7000000000000000000000000000000000000000000000000000000008152600401613ea691906143bc565b60405180910390fd5b565b5f5f5f9054906101000a900473ffffffffffffffffffffffffffffffffffffffff169050815f5f6101000a81548173ffffffffffffffffffffffffffffffffffffffff021916908373ffffffffffffffffffffffffffffffffffffffff1602179055508173ffffffffffffffffffffffffffffffffffffffff168173ffffffffffffffffffffffffffffffffffffffff167f8be0079c531659141344cd1fd0a4f28419497f9722a3daafe3b4186f6b6457e060405160405180910390a35050565b600260015403613fae576040517f3ee5aeb500000000000000000000000000000000000000000000000000000000815260040160405180910390fd5b6002600181905550565b60018081905550565b5f33905090565b60405180604001604052805f73ffffffffffffffffffffffffffffffffffffffff1681526020015f81525090565b6040518061010001604052805f73ffffffffffffffffffffffffffffffffffffffff1681526020015f73ffffffffffffffffffffffffffffffffffffffff1681526020015f73ffffffffffffffffffffffffffffffffffffffff168152602001606081526020016060815260200160608152602001606081526020015f151581525090565b5f819050919050565b61408d8161407b565b82525050565b5f6020820190506140a65f830184614084565b92915050565b5f604051905090565b5f5ffd5b5f5ffd5b5f5ffd5b5f5ffd5b5f5ffd5b5f5f83601f8401126140de576140dd6140bd565b5b8235905067ffffffffffffffff8111156140fb576140fa6140c1565b5b602083019150836040820283011115614117576141166140c5565b5b9250929050565b5f5f60208385031215614134576141336140b5565b5b5f83013567ffffffffffffffff811115614151576141506140b9565b5b61415d858286016140c9565b92509250509250929050565b5f73ffffffffffffffffffffffffffffffffffffffff82169050919050565b5f819050919050565b5f6141ab6141a66141a184614169565b614188565b614169565b9050919050565b5f6141bc82614191565b9050919050565b5f6141cd826141b2565b9050919050565b6141dd816141c3565b82525050565b5f6020820190506141f65f8301846141d4565b92915050565b5f61420682614169565b9050919050565b614216816141fc565b8114614220575f5ffd5b50565b5f813590506142318161420d565b92915050565b5f5f83601f84011261424c5761424b6140bd565b5b8235905067ffffffffffffffff811115614269576142686140c1565b5b602083019150836001820283011115614285576142846140c5565b5b9250929050565b5f5f5f5f5f5f5f5f5f60a08a8c0312156142a9576142a86140b5565b5b5f6142b68c828d01614223565b99505060208a013567ffffffffffffffff8111156142d7576142d66140b9565b5b6142e38c828d01614237565b985098505060408a013567ffffffffffffffff811115614306576143056140b9565b5b6143128c828d01614237565b965096505060608a013567ffffffffffffffff811115614335576143346140b9565b5b6143418c828d01614237565b945094505060808a013567ffffffffffffffff811115614364576143636140b9565b5b6143708c828d01614237565b92509250509295985092959850929598565b5f60208284031215614397576143966140b5565b5b5f6143a484828501614223565b91505092915050565b6143b6816141fc565b82525050565b5f6020820190506143cf5f8301846143ad565b92915050565b6143de8161407b565b81146143e8575f5ffd5b50565b5f813590506143f9816143d5565b92915050565b5f60208284031215614414576144136140b5565b5b5f614421848285016143eb565b91505092915050565b5f614434826141b2565b9050919050565b6144448161442a565b82525050565b5f60208201905061445d5f83018461443b565b92915050565b5f61446d826141b2565b9050919050565b61447d81614463565b82525050565b5f6020820190506144965f830184614474565b92915050565b5f6144a6826141b2565b9050919050565b6144b68161449c565b82525050565b5f6020820190506144cf5f8301846144ad565b92915050565b6144de816141fc565b82525050565b5f81519050919050565b5f82825260208201905092915050565b8281835e5f83830152505050565b5f601f19601f8301169050919050565b5f614526826144e4565b61453081856144ee565b93506145408185602086016144fe565b6145498161450c565b840191505092915050565b5f8115159050919050565b61456881614554565b82525050565b5f61010083015f8301516145845f8601826144d5565b50602083015161459760208601826144d5565b5060408301516145aa60408601826144d5565b50606083015184820360608601526145c2828261451c565b915050608083015184820360808601526145dc828261451c565b91505060a083015184820360a08601526145f6828261451c565b91505060c083015184820360c0860152614610828261451c565b91505060e083015161462560e086018261455f565b508091505092915050565b5f6020820190508181035f830152614648818461456e565b905092915050565b5f60e0820190506146635f83018a614084565b6146706020830189614084565b61467d6040830188614084565b61468a6060830187614084565b6146976080830186614084565b6146a460a0830185614084565b6146b160c0830184614084565b98975050505050505050565b5f5f83601f8401126146d2576146d16140bd565b5b8235905067ffffffffffffffff8111156146ef576146ee6140c1565b5b60208301915083602082028301111561470b5761470a6140c5565b5b9250929050565b5f5f5f5f6060858703121561472a576147296140b5565b5b5f614737878288016143eb565b945050602085013567ffffffffffffffff811115614758576147576140b9565b5b614764878288016146bd565b9350935050604061477787828801614223565b91505092959194509250565b5f81519050919050565b5f82825260208201905092915050565b5f819050602082019050919050565b6147b58161407b565b82525050565b5f6147c683836147ac565b60208301905092915050565b5f602082019050919050565b5f6147e882614783565b6147f2818561478d565b93506147fd8361479d565b805f5b8381101561482d57815161481488826147bb565b975061481f836147d2565b925050600181019050614800565b5085935050505092915050565b5f6020820190508181035f83015261485281846147de565b905092915050565b5f81519050919050565b5f82825260208201905092915050565b5f819050602082019050919050565b5f61010083015f8301516148995f8601826144d5565b5060208301516148ac60208601826144d5565b5060408301516148bf60408601826144d5565b50606083015184820360608601526148d7828261451c565b915050608083015184820360808601526148f1828261451c565b91505060a083015184820360a086015261490b828261451c565b91505060c083015184820360c0860152614925828261451c565b91505060e083015161493a60e086018261455f565b508091505092915050565b5f6149508383614883565b905092915050565b5f602082019050919050565b5f61496e8261485a565b6149788185614864565b93508360208202850161498a85614874565b805f5b858110156149c557848403895281516149a68582614945565b94506149b183614958565b925060208a0199505060018101905061498d565b50829750879550505050505092915050565b5f6020820190508181035f8301526149ef8184614964565b905092915050565b5f5f5f60608486031215614a0e57614a0d6140b5565b5b5f614a1b868287016143eb565b9350506020614a2c86828701614223565b9250506040614a3d86828701614223565b9150509250925092565b5f82825260208201905092915050565b5f614a61826144e4565b614a6b8185614a47565b9350614a7b8185602086016144fe565b614a848161450c565b840191505092915050565b614a9881614554565b82525050565b5f61010082019050614ab25f83018b6143ad565b614abf602083018a6143ad565b614acc60408301896143ad565b8181036060830152614ade8188614a57565b90508181036080830152614af28187614a57565b905081810360a0830152614b068186614a57565b905081810360c0830152614b1a8185614a57565b9050614b2960e0830184614a8f565b9998505050505050505050565b5f5f60408385031215614b4c57614b4b6140b5565b5b5f614b5985828601614223565b9250506020614b6a85828601614223565b9150509250929050565b5f614b7e826141b2565b9050919050565b614b8e81614b74565b82525050565b5f602082019050614ba75f830184614b85565b92915050565b7f756e617574686f72697a656400000000000000000000000000000000000000005f82015250565b5f614be1600c83614a47565b9150614bec82614bad565b602082019050919050565b5f6020820190508181035f830152614c0e81614bd5565b9050919050565b7f4e487b71000000000000000000000000000000000000000000000000000000005f52604160045260245ffd5b7f4e487b71000000000000000000000000000000000000000000000000000000005f52603260045260245ffd5b5f5ffd5b614c7c8261450c565b810181811067ffffffffffffffff82111715614c9b57614c9a614c15565b5b80604052505050565b5f614cad6140ac565b9050614cb98282614c73565b919050565b5f60408284031215614cd357614cd2614c6f565b5b614cdd6040614ca4565b90505f614cec84828501614223565b5f830152506020614cff848285016143eb565b60208301525092915050565b5f60408284031215614d2057614d1f6140b5565b5b5f614d2d84828501614cbe565b91505092915050565b614d3f81614554565b8114614d49575f5ffd5b50565b5f81519050614d5a81614d36565b92915050565b5f60208284031215614d7557614d746140b5565b5b5f614d8284828501614d4c565b91505092915050565b7f43726561746f7220697320626c6f636b6564206f7220616c72656164792068615f8201527f73206120746f6b656e0000000000000000000000000000000000000000000000602082015250565b5f614de5602983614a47565b9150614df082614d8b565b604082019050919050565b5f6020820190508181035f830152614e1281614dd9565b9050919050565b5f81519050614e27816143d5565b92915050565b5f60208284031215614e4257614e416140b5565b5b5f614e4f84828501614e19565b91505092915050565b7f4e487b71000000000000000000000000000000000000000000000000000000005f52602260045260245ffd5b5f6002820490506001821680614e9c57607f821691505b602082108103614eaf57614eae614e58565b5b50919050565b5f60c0820190508181035f830152614ecd8189614a57565b90508181036020830152614ee18188614a57565b90508181036040830152614ef58187614a57565b90508181036060830152614f098186614a57565b9050614f186080830185614a8f565b614f2560a0830184614084565b979650505050505050565b7f546f6b656e206e6f7420637265617465640000000000000000000000000000005f82015250565b5f614f64601183614a47565b9150614f6f82614f30565b602082019050919050565b5f6020820190508181035f830152614f9181614f58565b9050919050565b7f4f6e6c7920626174746c65206f7220656e6761676520746f206561726e2063615f8201527f6e20737761700000000000000000000000000000000000000000000000000000602082015250565b5f614ff2602683614a47565b9150614ffd82614f98565b604082019050919050565b5f6020820190508181035f83015261501f81614fe6565b9050919050565b5f6040820190506150395f8301856143ad565b6150466020830184614084565b9392505050565b7f4e487b71000000000000000000000000000000000000000000000000000000005f52601160045260245ffd5b5f6150848261407b565b915061508f8361407b565b92508282019050808211156150a7576150a661504d565b5b92915050565b5f819050919050565b5f6150d06150cb6150c6846150ad565b614188565b61407b565b9050919050565b6150e0816150b6565b82525050565b5f82825260208201905092915050565b5f819050919050565b5f61510a83836144d5565b60208301905092915050565b5f6151246020840184614223565b905092915050565b5f602082019050919050565b5f61514383856150e6565b935061514e826150f6565b805f5b85811015615186576151638284615116565b61516d88826150ff565b97506151788361512c565b925050600181019050615151565b5085925050509392505050565b5f60a0820190506151a65f830189614084565b6151b360208301886150d7565b81810360408301526151c6818688615138565b90506151d560608301856143ad565b6151e26080830184614084565b979650505050505050565b5f67ffffffffffffffff82111561520757615206614c15565b5b602082029050602081019050919050565b5f61522a615225846151ed565b614ca4565b9050808382526020820190506020840283018581111561524d5761524c6140c5565b5b835b8181101561527657806152628882614e19565b84526020840193505060208101905061524f565b5050509392505050565b5f82601f830112615294576152936140bd565b5b81516152a4848260208601615218565b91505092915050565b5f602082840312156152c2576152c16140b5565b5b5f82015167ffffffffffffffff8111156152df576152de6140b9565b5b6152eb84828501615280565b91505092915050565b60058110615300575f5ffd5b50565b5f81519050615311816152f4565b92915050565b5f5f6040838503121561532d5761532c6140b5565b5b5f61533a85828601615303565b925050602061534b85828601614e19565b9150509250929050565b7f4e487b71000000000000000000000000000000000000000000000000000000005f52602160045260245ffd5b7f46616972206c61756e6368206e6f7420726561647920746f20636f6d706c65745f8201527f6500000000000000000000000000000000000000000000000000000000000000602082015250565b5f6153dc602183614a47565b91506153e782615382565b604082019050919050565b5f6020820190508181035f830152615409816153d0565b9050919050565b5f8151905061541e8161420d565b92915050565b5f60208284031215615439576154386140b5565b5b5f61544684828501615410565b91505092915050565b5f6040820190506154625f8301856143ad565b61546f60208301846143ad565b9392505050565b5f60c0820190506154895f8301896143ad565b6154966020830188614084565b6154a360408301876150d7565b6154b060608301866150d7565b6154bd60808301856143ad565b6154ca60a0830184614084565b979650505050505050565b5f5f5f606084860312156154ec576154eb6140b5565b5b5f6154f986828701614e19565b935050602061550a86828701614e19565b925050604061551b86828701614e19565b9150509250925092565b5f6060820190506155385f830186614084565b61554560208301856143ad565b61555260408301846143ad565b949350505050565b5f6155648261407b565b915061556f8361407b565b925082820261557d8161407b565b915082820484148315176155945761559361504d565b5b5092915050565b7f4e487b71000000000000000000000000000000000000000000000000000000005f52601260045260245ffd5b5f6155d28261407b565b91506155dd8361407b565b9250826155ed576155ec61559b565b5b828204905092915050565b5f6156028261407b565b915061560d8361407b565b92508282039050818111156156255761562461504d565b5b92915050565b5f60408201905061563e5f830185614084565b61564b6020830184614084565b9392505050565b7f43726561746f72206d69736d61746368000000000000000000000000000000005f82015250565b5f615686601083614a47565b915061569182615652565b602082019050919050565b5f6020820190508181035f8301526156b38161567a565b9050919050565b7f416c726561647920636c61696d65642062792063726561746f720000000000005f82015250565b5f6156ee601a83614a47565b91506156f9826156ba565b602082019050919050565b5f6020820190508181035f83015261571b816156e2565b9050919050565b7f43726561746f7220616c726561647920686173206120746f6b656e00000000005f82015250565b5f615756601b83614a47565b915061576182615722565b602082019050919050565b5f6020820190508181035f8301526157838161574a565b9050919050565b7f486561742075706461746520746f6f206672657175656e7400000000000000005f82015250565b5f6157be601883614a47565b91506157c98261578a565b602082019050919050565b5f6020820190508181035f8301526157eb816157b2565b905091905056fea2646970667358221220fc770bf39fb9c62094f351c763b1f6b700b9c5232eb67320c1893b7a37d1dc6764736f6c634300081c0033",
  "linkReferences": {},
  "deployedLinkReferences": {},
  "immutableReferences": {},
  "inputSourceName": "project/contracts/MemedFactory.sol",
  "buildInfoId": "solc-0_8_28-bde6213d1d0d5724f3c86326b3a140e1e4409fce"
}