{
  "_format": "hh3-artifact-1",
  "contractName": "MemedFactory_test",
  "sourceName": "contracts/MemedFactory_test.sol",
  "abi": [
    {
      "inputs": [
        {
          "internalType": "address",
          "name": "_memedTokenSale",
          "type": "address"
        },
        {
          "internalType": "address",
          "name": "_memedBattle",
          "type": "address"
        },
        {
          "internalType": "address",
          "name": "_memedEngageToEarn",
          "type": "address"
        },
        {
          "internalType": "address",
          "name": "_positionManager",
          "type": "address"
        },
        {
          "internalType": "address",
          "name": "_swapRouter",
          "type": "address"
        }
      ],
      "stateMutability": "nonpayable",
      "type": "constructor"
    },
    {
      "inputs": [
        {
          "internalType": "address",
          "name": "owner",
          "type": "address"
        }
      ],
      "name": "OwnableInvalidOwner",
      "type": "error"
    },
    {
      "inputs": [
        {
          "internalType": "address",
          "name": "account",
          "type": "address"
        }
      ],
      "name": "OwnableUnauthorizedAccount",
      "type": "error"
    },
    {
      "inputs": [],
      "name": "R",
      "type": "error"
    },
    {
      "inputs": [],
      "name": "ReentrancyGuardReentrantCall",
      "type": "error"
    },
    {
      "inputs": [],
      "name": "T",
      "type": "error"
    },
    {
      "anonymous": false,
      "inputs": [
        {
          "indexed": true,
          "internalType": "address",
          "name": "winner",
          "type": "address"
        },
        {
          "indexed": true,
          "internalType": "address",
          "name": "loser",
          "type": "address"
        },
        {
          "indexed": false,
          "internalType": "uint256",
          "name": "creatorIncentivesUnlocksAtWinner",
          "type": "uint256"
        },
        {
          "indexed": false,
          "internalType": "uint256",
          "name": "creatorIncentivesUnlocksAtLoser",
          "type": "uint256"
        }
      ],
      "name": "BattleUpdated",
      "type": "event"
    },
    {
      "anonymous": false,
      "inputs": [
        {
          "indexed": true,
          "internalType": "address",
          "name": "token",
          "type": "address"
        },
        {
          "indexed": false,
          "internalType": "uint256",
          "name": "heat",
          "type": "uint256"
        },
        {
          "indexed": false,
          "internalType": "uint256",
          "name": "timestamp",
          "type": "uint256"
        }
      ],
      "name": "HeatUpdated",
      "type": "event"
    },
    {
      "anonymous": false,
      "inputs": [
        {
          "indexed": true,
          "internalType": "address",
          "name": "previousOwner",
          "type": "address"
        },
        {
          "indexed": true,
          "internalType": "address",
          "name": "newOwner",
          "type": "address"
        }
      ],
      "name": "OwnershipTransferred",
      "type": "event"
    },
    {
      "anonymous": false,
      "inputs": [
        {
          "indexed": true,
          "internalType": "uint256",
          "name": "id",
          "type": "uint256"
        },
        {
          "indexed": true,
          "internalType": "address",
          "name": "token",
          "type": "address"
        },
        {
          "indexed": true,
          "internalType": "address",
          "name": "warriorNFT",
          "type": "address"
        }
      ],
      "name": "TokenCompletedFairLaunch",
      "type": "event"
    },
    {
      "anonymous": false,
      "inputs": [
        {
          "indexed": true,
          "internalType": "uint256",
          "name": "id",
          "type": "uint256"
        },
        {
          "indexed": true,
          "internalType": "address",
          "name": "token",
          "type": "address"
        },
        {
          "indexed": true,
          "internalType": "address",
          "name": "owner",
          "type": "address"
        },
        {
          "indexed": false,
          "internalType": "bool",
          "name": "isClaimedByCreator",
          "type": "bool"
        },
        {
          "indexed": false,
          "internalType": "uint256",
          "name": "endTime",
          "type": "uint256"
        }
      ],
      "name": "TokenCreated",
      "type": "event"
    },
    {
      "inputs": [],
      "name": "BATTLE_REWARDS_PERCENTAGE",
      "outputs": [
        {
          "internalType": "uint256",
          "name": "",
          "type": "uint256"
        }
      ],
      "stateMutability": "view",
      "type": "function"
    },
    {
      "inputs": [],
      "name": "CREATOR_INCENTIVE_STEP",
      "outputs": [
        {
          "internalType": "uint256",
          "name": "",
          "type": "uint256"
        }
      ],
      "stateMutability": "view",
      "type": "function"
    },
    {
      "inputs": [],
      "name": "ENGAGEMENT_REWARDS_PER_NEW_HEAT",
      "outputs": [
        {
          "internalType": "uint256",
          "name": "",
          "type": "uint256"
        }
      ],
      "stateMutability": "view",
      "type": "function"
    },
    {
      "inputs": [],
      "name": "INITIAL_REWARDS_PER_HEAT",
      "outputs": [
        {
          "internalType": "uint256",
          "name": "",
          "type": "uint256"
        }
      ],
      "stateMutability": "view",
      "type": "function"
    },
    {
      "inputs": [],
      "name": "MAX_ENGAGE_CREATOR_REWARD_PERCENTAGE",
      "outputs": [
        {
          "internalType": "uint256",
          "name": "",
          "type": "uint256"
        }
      ],
      "stateMutability": "view",
      "type": "function"
    },
    {
      "inputs": [],
      "name": "MAX_ENGAGE_USER_REWARD_PERCENTAGE",
      "outputs": [
        {
          "internalType": "uint256",
          "name": "",
          "type": "uint256"
        }
      ],
      "stateMutability": "view",
      "type": "function"
    },
    {
      "inputs": [],
      "name": "MEMED_TEST_ETH",
      "outputs": [
        {
          "internalType": "address",
          "name": "",
          "type": "address"
        }
      ],
      "stateMutability": "view",
      "type": "function"
    },
    {
      "inputs": [],
      "name": "POOL_FEE",
      "outputs": [
        {
          "internalType": "uint24",
          "name": "",
          "type": "uint24"
        }
      ],
      "stateMutability": "view",
      "type": "function"
    },
    {
      "inputs": [],
      "name": "REWARD_PER_ENGAGEMENT",
      "outputs": [
        {
          "internalType": "uint256",
          "name": "",
          "type": "uint256"
        }
      ],
      "stateMutability": "view",
      "type": "function"
    },
    {
      "inputs": [
        {
          "internalType": "address",
          "name": "_winner",
          "type": "address"
        },
        {
          "internalType": "address",
          "name": "_loser",
          "type": "address"
        }
      ],
      "name": "battleUpdate",
      "outputs": [],
      "stateMutability": "nonpayable",
      "type": "function"
    },
    {
      "inputs": [
        {
          "internalType": "address",
          "name": "_token",
          "type": "address"
        },
        {
          "internalType": "address",
          "name": "_creator",
          "type": "address"
        }
      ],
      "name": "claimToken",
      "outputs": [],
      "stateMutability": "nonpayable",
      "type": "function"
    },
    {
      "inputs": [
        {
          "internalType": "address",
          "name": "_token",
          "type": "address"
        }
      ],
      "name": "collectFees",
      "outputs": [
        {
          "internalType": "uint256",
          "name": "amount0",
          "type": "uint256"
        },
        {
          "internalType": "uint256",
          "name": "amount1",
          "type": "uint256"
        }
      ],
      "stateMutability": "nonpayable",
      "type": "function"
    },
    {
      "inputs": [
        {
          "internalType": "uint256",
          "name": "_id",
          "type": "uint256"
        },
        {
          "internalType": "address",
          "name": "_token",
          "type": "address"
        },
        {
          "internalType": "address",
          "name": "_warriorNFT",
          "type": "address"
        }
      ],
      "name": "completeFairLaunch",
      "outputs": [],
      "stateMutability": "nonpayable",
      "type": "function"
    },
    {
      "inputs": [
        {
          "internalType": "address",
          "name": "_token",
          "type": "address"
        }
      ],
      "name": "getByToken",
      "outputs": [
        {
          "components": [
            {
              "internalType": "address",
              "name": "token",
              "type": "address"
            },
            {
              "internalType": "address",
              "name": "warriorNFT",
              "type": "address"
            },
            {
              "internalType": "address",
              "name": "creator",
              "type": "address"
            },
            {
              "internalType": "bool",
              "name": "isClaimedByCreator",
              "type": "bool"
            }
          ],
          "internalType": "struct TokenData",
          "name": "",
          "type": "tuple"
        }
      ],
      "stateMutability": "view",
      "type": "function"
    },
    {
      "inputs": [
        {
          "internalType": "uint256",
          "name": "_id",
          "type": "uint256"
        }
      ],
      "name": "getCreatorById",
      "outputs": [
        {
          "internalType": "address",
          "name": "",
          "type": "address"
        }
      ],
      "stateMutability": "view",
      "type": "function"
    },
    {
      "inputs": [
        {
          "internalType": "address",
          "name": "_token",
          "type": "address"
        }
      ],
      "name": "getHeat",
      "outputs": [
        {
          "internalType": "uint256",
          "name": "",
          "type": "uint256"
        }
      ],
      "stateMutability": "view",
      "type": "function"
    },
    {
      "inputs": [],
      "name": "getMemedBattle",
      "outputs": [
        {
          "internalType": "address",
          "name": "",
          "type": "address"
        }
      ],
      "stateMutability": "view",
      "type": "function"
    },
    {
      "inputs": [],
      "name": "getMemedEngageToEarn",
      "outputs": [
        {
          "internalType": "contract IMemedEngageToEarn",
          "name": "",
          "type": "address"
        }
      ],
      "stateMutability": "view",
      "type": "function"
    },
    {
      "inputs": [
        {
          "internalType": "address",
          "name": "_token",
          "type": "address"
        }
      ],
      "name": "getTokenByAddress",
      "outputs": [
        {
          "components": [
            {
              "internalType": "address",
              "name": "token",
              "type": "address"
            },
            {
              "internalType": "address",
              "name": "warriorNFT",
              "type": "address"
            },
            {
              "internalType": "address",
              "name": "creator",
              "type": "address"
            },
            {
              "internalType": "bool",
              "name": "isClaimedByCreator",
              "type": "bool"
            }
          ],
          "internalType": "struct TokenData",
          "name": "",
          "type": "tuple"
        }
      ],
      "stateMutability": "view",
      "type": "function"
    },
    {
      "inputs": [
        {
          "internalType": "uint256",
          "name": "_id",
          "type": "uint256"
        }
      ],
      "name": "getTokenById",
      "outputs": [
        {
          "components": [
            {
              "internalType": "address",
              "name": "token",
              "type": "address"
            },
            {
              "internalType": "address",
              "name": "warriorNFT",
              "type": "address"
            },
            {
              "internalType": "address",
              "name": "creator",
              "type": "address"
            },
            {
              "internalType": "bool",
              "name": "isClaimedByCreator",
              "type": "bool"
            }
          ],
          "internalType": "struct TokenData",
          "name": "",
          "type": "tuple"
        }
      ],
      "stateMutability": "view",
      "type": "function"
    },
    {
      "inputs": [],
      "name": "getTokens",
      "outputs": [
        {
          "components": [
            {
              "internalType": "address",
              "name": "token",
              "type": "address"
            },
            {
              "internalType": "address",
              "name": "warriorNFT",
              "type": "address"
            },
            {
              "internalType": "address",
              "name": "creator",
              "type": "address"
            },
            {
              "internalType": "bool",
              "name": "isClaimedByCreator",
              "type": "bool"
            }
          ],
          "internalType": "struct TokenData[]",
          "name": "",
          "type": "tuple[]"
        }
      ],
      "stateMutability": "view",
      "type": "function"
    },
    {
      "inputs": [
        {
          "internalType": "address",
          "name": "_token",
          "type": "address"
        }
      ],
      "name": "getWarriorNFT",
      "outputs": [
        {
          "internalType": "address",
          "name": "",
          "type": "address"
        }
      ],
      "stateMutability": "view",
      "type": "function"
    },
    {
      "inputs": [
        {
          "internalType": "address",
          "name": "",
          "type": "address"
        }
      ],
      "name": "lpTokenIds",
      "outputs": [
        {
          "internalType": "uint256",
          "name": "",
          "type": "uint256"
        }
      ],
      "stateMutability": "view",
      "type": "function"
    },
    {
      "inputs": [],
      "name": "memedBattle",
      "outputs": [
        {
          "internalType": "contract IMemedBattle",
          "name": "",
          "type": "address"
        }
      ],
      "stateMutability": "view",
      "type": "function"
    },
    {
      "inputs": [],
      "name": "memedEngageToEarn",
      "outputs": [
        {
          "internalType": "contract IMemedEngageToEarn",
          "name": "",
          "type": "address"
        }
      ],
      "stateMutability": "view",
      "type": "function"
    },
    {
      "inputs": [],
      "name": "memedTokenSale",
      "outputs": [
        {
          "internalType": "contract IMemedTokenSale",
          "name": "",
          "type": "address"
        }
      ],
      "stateMutability": "view",
      "type": "function"
    },
    {
      "inputs": [],
      "name": "owner",
      "outputs": [
        {
          "internalType": "address",
          "name": "",
          "type": "address"
        }
      ],
      "stateMutability": "view",
      "type": "function"
    },
    {
      "inputs": [],
      "name": "positionManager",
      "outputs": [
        {
          "internalType": "contract INonfungiblePositionManager",
          "name": "",
          "type": "address"
        }
      ],
      "stateMutability": "view",
      "type": "function"
    },
    {
      "inputs": [],
      "name": "renounceOwnership",
      "outputs": [],
      "stateMutability": "nonpayable",
      "type": "function"
    },
    {
      "inputs": [
        {
          "internalType": "address",
          "name": "_creator",
          "type": "address"
        }
      ],
      "name": "startFairLaunch",
      "outputs": [],
      "stateMutability": "nonpayable",
      "type": "function"
    },
    {
      "inputs": [
        {
          "internalType": "uint256",
          "name": "_amount",
          "type": "uint256"
        },
        {
          "internalType": "address[]",
          "name": "_path",
          "type": "address[]"
        },
        {
          "internalType": "address",
          "name": "_to",
          "type": "address"
        }
      ],
      "name": "swap",
      "outputs": [
        {
          "internalType": "uint256",
          "name": "",
          "type": "uint256"
        }
      ],
      "stateMutability": "nonpayable",
      "type": "function"
    },
    {
      "inputs": [],
      "name": "swapRouter",
      "outputs": [
        {
          "internalType": "contract ISwapRouter",
          "name": "",
          "type": "address"
        }
      ],
      "stateMutability": "view",
      "type": "function"
    },
    {
      "inputs": [
        {
          "internalType": "uint256",
          "name": "",
          "type": "uint256"
        }
      ],
      "name": "tokenData",
      "outputs": [
        {
          "internalType": "address",
          "name": "token",
          "type": "address"
        },
        {
          "internalType": "address",
          "name": "warriorNFT",
          "type": "address"
        },
        {
          "internalType": "address",
          "name": "creator",
          "type": "address"
        },
        {
          "internalType": "bool",
          "name": "isClaimedByCreator",
          "type": "bool"
        }
      ],
      "stateMutability": "view",
      "type": "function"
    },
    {
      "inputs": [
        {
          "internalType": "uint256",
          "name": "",
          "type": "uint256"
        }
      ],
      "name": "tokenRewardData",
      "outputs": [
        {
          "internalType": "uint256",
          "name": "lastRewardAt",
          "type": "uint256"
        },
        {
          "internalType": "uint256",
          "name": "creatorIncentivesUnlocksAt",
          "type": "uint256"
        },
        {
          "internalType": "uint256",
          "name": "creatorIncentivesUnlockedAt",
          "type": "uint256"
        },
        {
          "internalType": "uint256",
          "name": "lastEngagementBoost",
          "type": "uint256"
        },
        {
          "internalType": "uint256",
          "name": "heat",
          "type": "uint256"
        },
        {
          "internalType": "uint256",
          "name": "lastHeatUpdate",
          "type": "uint256"
        },
        {
          "internalType": "uint256",
          "name": "createdAt",
          "type": "uint256"
        }
      ],
      "stateMutability": "view",
      "type": "function"
    },
    {
      "inputs": [
        {
          "internalType": "uint256",
          "name": "",
          "type": "uint256"
        }
      ],
      "name": "tokens",
      "outputs": [
        {
          "internalType": "address",
          "name": "",
          "type": "address"
        }
      ],
      "stateMutability": "view",
      "type": "function"
    },
    {
      "inputs": [
        {
          "internalType": "address",
          "name": "newOwner",
          "type": "address"
        }
      ],
      "name": "transferOwnership",
      "outputs": [],
      "stateMutability": "nonpayable",
      "type": "function"
    },
    {
      "inputs": [],
      "name": "uniswapV3Factory",
      "outputs": [
        {
          "internalType": "contract IUniswapV3Factory",
          "name": "",
          "type": "address"
        }
      ],
      "stateMutability": "view",
      "type": "function"
    },
    {
      "inputs": [
        {
          "components": [
            {
              "internalType": "address",
              "name": "token",
              "type": "address"
            },
            {
              "internalType": "uint256",
              "name": "heat",
              "type": "uint256"
            }
          ],
          "internalType": "struct HeatUpdate[]",
          "name": "_heatUpdates",
          "type": "tuple[]"
        }
      ],
      "name": "updateHeat",
      "outputs": [],
      "stateMutability": "nonpayable",
      "type": "function"
    },
    {
      "stateMutability": "payable",
      "type": "receive"
    }
  ],
  "bytecode": "0x6080604052620186a0600255601460035534801561001b575f5ffd5b50604051613f46380380613f4683398101604081905261003a916101b6565b338061005f57604051631e4fbdf760e01b81525f600482015260240160405180910390fd5b6100688161014c565b5060018055600480546001600160a01b038088166001600160a01b03199283161783556005805488831690841617905560068054878316908416179055600b80548683169084168117909155600d805492861692909316919091179091556040805163c45a015560e01b81529051919263c45a01559282820192602092908290030181865afa1580156100fd573d5f5f3e3d5ffd5b505050506040513d601f19601f820116820180604052508101906101219190610217565b600c80546001600160a01b0319166001600160a01b0392909216919091179055506102379350505050565b5f80546001600160a01b038381166001600160a01b0319831681178455604051919092169283917f8be0079c531659141344cd1fd0a4f28419497f9722a3daafe3b4186f6b6457e09190a35050565b80516001600160a01b03811681146101b1575f5ffd5b919050565b5f5f5f5f5f60a086880312156101ca575f5ffd5b6101d38661019b565b94506101e16020870161019b565b93506101ef6040870161019b565b92506101fd6060870161019b565b915061020b6080870161019b565b90509295509295909350565b5f60208284031215610227575f5ffd5b6102308261019b565b9392505050565b613d02806102445f395ff3fe608060405260043610610220575f3560e01c806391ded8fa1161011e578063c9235634116100a8578063dd743bc81161006d578063dd743bc814610791578063e0eeb3d3146107b0578063e5659f07146107cf578063f2fde38b146107e4578063f797113f14610803575f5ffd5b8063c9235634146106ee578063ca31879d1461070d578063d1f6d04a1461072c578063dc6930a314610749578063dd1b9c4a14610768575f5ffd5b8063a480ca79116100ee578063a480ca79146105d3578063aa6ca80814610607578063abf599fc14610628578063b4b5b48f14610647578063c31c9c07146106cf575f5ffd5b806391ded8fa146104eb57806392ac25821461050a578063a11d8ac714610595578063a40103d4146105b4575f5ffd5b80635153563b116101aa578063741c6ae81161016f578063741c6ae8146103da57806377e989f3146103ee578063791b98bc1461040b5780637bdc60d91461042a5780638da5cb5b146104cf575f5ffd5b80635153563b1461033c5780635b5491821461035b5780635d3575a61461037a5780635de7c44a146103b1578063715018a6146103c6575f5ffd5b80632badbfc0116101f05780632badbfc0146102d7578063306d3508146102fe578063320dc01b1461022b57806343038e891461022b5780634f64b2be1461031d575f5ffd5b80630280a16f1461022b57806311eefb29146102545780631d08ac9d1461027557806327e2fee4146102a0575f5ffd5b3661022757005b5f5ffd5b348015610236575f5ffd5b50610241620186a081565b6040519081526020015b60405180910390f35b34801561025f575f5ffd5b5061027361026e3660046136be565b610817565b005b348015610280575f5ffd5b5061024161028f366004613743565b60096020525f908152604090205481565b3480156102ab575f5ffd5b506102bf6102ba366004613743565b6109cf565b6040516001600160a01b03909116815260200161024b565b3480156102e2575f5ffd5b506102bf73c190e6f26ce14e40d30251fde25927a73a5d58b681565b348015610309575f5ffd5b50610241610318366004613743565b610a66565b348015610328575f5ffd5b506102bf61033736600461375e565b610af3565b348015610347575f5ffd5b506005546102bf906001600160a01b031681565b348015610366575f5ffd5b50600c546102bf906001600160a01b031681565b348015610385575f5ffd5b506102bf61039436600461375e565b5f908152600760205260409020600201546001600160a01b031690565b3480156103bc575f5ffd5b5061024160025481565b3480156103d1575f5ffd5b50610273610b1b565b3480156103e5575f5ffd5b50610241600281565b3480156103f9575f5ffd5b506006546001600160a01b03166102bf565b348015610416575f5ffd5b50600b546102bf906001600160a01b031681565b348015610435575f5ffd5b506104c261044436600461375e565b604080516080810182525f808252602082018190529181018290526060810191909152505f90815260076020908152604091829020825160808101845281546001600160a01b039081168252600183015481169382019390935260029091015491821692810192909252600160a01b900460ff161515606082015290565b60405161024b9190613775565b3480156104da575f5ffd5b505f546001600160a01b03166102bf565b3480156104f6575f5ffd5b506104c2610505366004613743565b610b2e565b348015610515575f5ffd5b5061056061052436600461375e565b60086020525f90815260409020805460018201546002830154600384015460048501546005860154600690960154949593949293919290919087565b604080519788526020880196909652948601939093526060850191909152608084015260a083015260c082015260e00161024b565b3480156105a0575f5ffd5b506006546102bf906001600160a01b031681565b3480156105bf575f5ffd5b506102416105ce3660046137b2565b610c61565b3480156105de575f5ffd5b506105f26105ed366004613743565b611056565b6040805192835260208301919091520161024b565b348015610612575f5ffd5b5061061b611197565b60405161024b919061383f565b348015610633575f5ffd5b506102736106423660046138bc565b611270565b348015610652575f5ffd5b5061069a61066136600461375e565b60076020525f90815260409020805460018201546002909201546001600160a01b0391821692821691811690600160a01b900460ff1684565b60405161024b94939291906001600160a01b039485168152928416602084015292166040820152901515606082015260800190565b3480156106da575f5ffd5b50600d546102bf906001600160a01b031681565b3480156106f9575f5ffd5b506102736107083660046138fb565b61160c565b348015610718575f5ffd5b506102736107273660046138fb565b6118b5565b348015610737575f5ffd5b506005546001600160a01b03166102bf565b348015610754575f5ffd5b506004546102bf906001600160a01b031681565b348015610773575f5ffd5b5061077d610bb881565b60405162ffffff909116815260200161024b565b34801561079c575f5ffd5b506104c26107ab366004613743565b611bce565b3480156107bb575f5ffd5b506102736107ca366004613743565b611cc2565b3480156107da575f5ffd5b5061024160035481565b3480156107ef575f5ffd5b506102736107fe366004613743565b611ea8565b34801561080e575f5ffd5b50610241600181565b6005546001600160a01b03163314806108b4575060055f9054906101000a90046001600160a01b03166001600160a01b031663a9dc491d6040518163ffffffff1660e01b8152600401602060405180830381865afa15801561087b573d5f5f3e3d5ffd5b505050506040513d601f19601f8201168201806040525081019061089f9190613932565b6001600160a01b0316336001600160a01b0316145b806108c857505f546001600160a01b031633145b6109085760405162461bcd60e51b815260206004820152600c60248201526b1d5b985d5d1a1bdc9a5e995960a21b60448201526064015b60405180910390fd5b5f8167ffffffffffffffff8111156109225761092261394d565b60405190808252806020026020018201604052801561096657816020015b604080518082019091525f80825260208201528152602001906001900390816109405790505b5090505f5b828110156109c05783838281811061098557610985613961565b90506040020180360381019061099b9190613975565b8282815181106109ad576109ad613961565b602090810291909101015260010161096b565b506109ca81611ee5565b505050565b6004805460405163e8378fbf60e01b81526001600160a01b03848116938201939093525f92600792849291169063e8378fbf90602401602060405180830381865afa158015610a20573d5f5f3e3d5ffd5b505050506040513d601f19601f82011682018060405250810190610a4491906139d9565b815260208101919091526040015f20600101546001600160a01b031692915050565b6004805460405163e8378fbf60e01b81526001600160a01b03848116938201939093525f92600892849291169063e8378fbf90602401602060405180830381865afa158015610ab7573d5f5f3e3d5ffd5b505050506040513d601f19601f82011682018060405250810190610adb91906139d9565b81526020019081526020015f20600401549050919050565b600a8181548110610b02575f80fd5b5f918252602090912001546001600160a01b0316905081565b610b2361254b565b610b2c5f612577565b565b604080516080810182525f8082526020820181905291810182905260608101919091526004805460405163e8378fbf60e01b81526001600160a01b03858116938201939093525f92600792849291169063e8378fbf90602401602060405180830381865afa158015610ba2573d5f5f3e3d5ffd5b505050506040513d601f19601f82011682018060405250810190610bc691906139d9565b815260208082019290925260409081015f20815160808101835281546001600160a01b03908116808352600184015482169583019590955260029092015491821692810192909252600160a01b900460ff16151560608201529150610c5b5760405162461bcd60e51b815260206004820152600b60248201526a1b9bdd0818dc99585d195960aa1b60448201526064016108ff565b92915050565b5f610c6a6125c6565b6006546001600160a01b03163314610cc45760405162461bcd60e51b815260206004820152601c60248201527f4f6e6c7920656e6761676520746f206561726e2063616e20737761700000000060448201526064016108ff565b6002831015610cfe5760405162461bcd60e51b81526004016108ff906020808252600490820152630e0c2e8d60e31b604082015260600190565b5f84845f818110610d1157610d11613961565b9050602002016020810190610d269190613743565b90505f8585610d36600182613a04565b818110610d4557610d45613961565b9050602002016020810190610d5a9190613743565b600c54604051630b4c774160e11b81529192505f916001600160a01b0390911690631698ee8290610da990869073c190e6f26ce14e40d30251fde25927a73a5d58b690610bb890600401613a17565b602060405180830381865afa158015610dc4573d5f5f3e3d5ffd5b505050506040513d601f19601f82011682018060405250810190610de89190613932565b600c54604051630b4c774160e11b81529192505f916001600160a01b0390911690631698ee8290610e379073c190e6f26ce14e40d30251fde25927a73a5d58b6908790610bb890600401613a17565b602060405180830381865afa158015610e52573d5f5f3e3d5ffd5b505050506040513d601f19601f82011682018060405250810190610e769190613932565b90506001600160a01b03821615801590610e9857506001600160a01b03811615155b610ed35760405162461bcd60e51b815260206004820152600c60248201526b1b5a5cdcda5b99c81c1bdbdb60a21b60448201526064016108ff565b600d5460405163095ea7b360e01b81526001600160a01b039182166004820152602481018b90529085169063095ea7b3906044016020604051808303815f875af1158015610f23573d5f5f3e3d5ffd5b505050506040513d601f19601f82011682018060405250810190610f479190613a3f565b506040516bffffffffffffffffffffffff19606086811b8216602084015261017760eb1b603484018190527360c873793670a720698128fef12c93d39d2eac5b60611b6037850152604b84015285901b16604e8201525f9060620160408051601f19818403018152600d546080840183528184526001600160a01b038b811660208601528484018f90525f6060860152925163b858183f60e01b8152919450919091169163b858183f91610ffe9190600401613a5e565b6020604051808303815f875af115801561101a573d5f5f3e3d5ffd5b505050506040513d601f19601f8201168201806040525081019061103e91906139d9565b9550505050505061104e60018055565b949350505050565b5f5f61106061254b565b6001600160a01b0383165f90815260096020526040812054908190036110b05760405162461bcd60e51b815260206004820152600560248201526406e6f204c560dc1b60448201526064016108ff565b600b5460408051608081019091528281526001600160a01b039091169063fc6f786590602081016110e85f546001600160a01b031690565b6001600160a01b0390811682526001600160801b0360208084018290526040938401829052835160e087901b6001600160e01b031916815285516004820152908501519092166024830152918301518216604482015260609092015116606482015260840160408051808303815f875af1158015611168573d5f5f3e3d5ffd5b505050506040513d601f19601f8201168201806040525081019061118c9190613ac3565b909590945092505050565b600a546060905f9067ffffffffffffffff8111156111b7576111b761394d565b60405190808252806020026020018201604052801561120757816020015b604080516080810182525f8082526020808301829052928201819052606082015282525f199092019101816111d55790505b5090505f5b600a5481101561126a57611245600a828154811061122c5761122c613961565b5f918252602090912001546001600160a01b0316610b2e565b82828151811061125757611257613961565b602090810291909101015260010161120c565b50919050565b61127861254b565b5f8381526007602052604090819020600480549251632c2c7ef960e21b815290810186905290916001600160a01b03169063b0b1fbe490602401602060405180830381865afa1580156112cd573d5f5f3e3d5ffd5b505050506040513d601f19601f820116820180604052508101906112f19190613a3f565b61132f5760405162461bcd60e51b815260206004820152600f60248201526e6e6f7420636f6d706c657461626c6560881b60448201526064016108ff565b60048054604051630155252760e71b81529182018690526001600160a01b03169063aa929380906024015f604051808303815f87803b158015611370575f5ffd5b505af1158015611382573d5f5f3e3d5ffd5b505082546001600160a01b038087166001600160a01b0319928316811786556001808701805493891693851684179055600a805491820181555f9081527fc65a7bb8d6351c1cf70c95a316cc6a92839c986682d98bc35f958f4883f9d2a890910180549094168217909355604051919450925087917fdbd3908ed1551f131cac0b0e54b86f03495799941eeb3290140b962f787409d491a45f611424846125f0565b90505f6114f985866001600160a01b031663ebda16eb6040518163ffffffff1660e01b8152600401602060405180830381865afa158015611467573d5f5f3e3d5ffd5b505050506040513d601f19601f8201168201806040525081019061148b91906139d9565b6004805460408051631dbb6dbd60e21b815290516001600160a01b03909216926376edb6f49282820192602092908290030181865afa1580156114d0573d5f5f3e3d5ffd5b505050506040513d601f19601f820116820180604052508101906114f491906139d9565b612960565b6001600160a01b038681165f8181526009602052604090819020849055600480549151632afd667f60e21b81529081018b90526024810192909252858316604483015292935091169063abf599fc906064015f604051808303815f87803b158015611562575f5ffd5b505af1158015611574573d5f5f3e3d5ffd5b505050506002830154600160a01b900460ff161561160457600654600284015460405163038918e360e61b81526001600160a01b038881166004830152918216602482015291169063e24638c0906044015f604051808303815f87803b1580156115dc575f5ffd5b505af11580156115ee573d5f5f3e3d5ffd5b5050505f87815260086020526040812060020155505b505050505050565b6005546001600160a01b03163314806116a9575060055f9054906101000a90046001600160a01b03166001600160a01b031663a9dc491d6040518163ffffffff1660e01b8152600401602060405180830381865afa158015611670573d5f5f3e3d5ffd5b505050506040513d601f19601f820116820180604052508101906116949190613932565b6001600160a01b0316336001600160a01b0316145b6116e45760405162461bcd60e51b815260206004820152600c60248201526b1d5b985d5d1a1bdc9a5e995960a21b60448201526064016108ff565b6004805460405163e8378fbf60e01b81526001600160a01b03858116938201939093525f92600892849291169063e8378fbf90602401602060405180830381865afa158015611735573d5f5f3e3d5ffd5b505050506040513d601f19601f8201168201806040525081019061175991906139d9565b8152602081019190915260409081015f90812060048054935163e8378fbf60e01b81526001600160a01b03878116928201929092529194509192600892849291169063e8378fbf90602401602060405180830381865afa1580156117bf573d5f5f3e3d5ffd5b505050506040513d601f19601f820116820180604052508101906117e391906139d9565b81526020019081526020015f209050606460035483600101546118069190613ae5565b6118109190613b10565b826001015461181f9190613a04565b82600101819055506064600354826001015461183b9190613ae5565b6118459190613b10565b81600101546118549190613b23565b60018083018290558301546040516001600160a01b0380871693908816927faecea04ec10c6c0b9d91c8e45440289d97d5737d78401b23bc3ca82031eae932926118a79290918252602082015260400190565b60405180910390a350505050565b6118bd6125c6565b6118c561254b565b6004805460405163e8378fbf60e01b81526001600160a01b03858116938201939093525f92600792849291169063e8378fbf90602401602060405180830381865afa158015611916573d5f5f3e3d5ffd5b505050506040513d601f19601f8201168201806040525081019061193a91906139d9565b815260208101919091526040015f2060028101549091506001600160a01b0383811691161461199e5760405162461bcd60e51b815260206004820152601060248201526f0c6e4cac2e8dee440dad2e6dac2e8c6d60831b60448201526064016108ff565b6002810154600160a01b900460ff16156119ec5760405162461bcd60e51b815260206004820152600f60248201526e185b1c9958591e4818db185a5b5959608a1b60448201526064016108ff565b6004805460405163222b15fb60e01b81526001600160a01b038581169382019390935291169063222b15fb90602401602060405180830381865afa158015611a36573d5f5f3e3d5ffd5b505050506040513d601f19601f82011682018060405250810190611a5a9190613a3f565b15611aa75760405162461bcd60e51b815260206004820152601960248201527f63726561746f7220616c72656164792068617320746f6b656e0000000000000060448201526064016108ff565b60028101805460ff60a01b1916600160a01b1790556004805460405163e8378fbf60e01b81526001600160a01b03868116938201939093525f92600892849291169063e8378fbf90602401602060405180830381865afa158015611b0d573d5f5f3e3d5ffd5b505050506040513d601f19601f82011682018060405250810190611b3191906139d9565b8152602081019190915260409081015f20600480820154808355600280840191909155600654865491870154945163038918e360e61b81526001600160a01b0392831693810193909352938116602483015291935091169063e24638c0906044015f604051808303815f87803b158015611ba9575f5ffd5b505af1158015611bbb573d5f5f3e3d5ffd5b505050505050611bca60018055565b5050565b604080516080810182525f8082526020820181905291810182905260608101919091526004805460405163e8378fbf60e01b81526001600160a01b03858116938201939093526007925f92169063e8378fbf90602401602060405180830381865afa158015611c3f573d5f5f3e3d5ffd5b505050506040513d601f19601f82011682018060405250810190611c6391906139d9565b815260208082019290925260409081015f20815160808101835281546001600160a01b039081168252600183015481169482019490945260029091015492831691810191909152600160a01b90910460ff161515606082015292915050565b611cca61254b565b6001600160a01b03811615611d93576004805460405163222b15fb60e01b81526001600160a01b038481169382019390935291169063222b15fb90602401602060405180830381865afa158015611d23573d5f5f3e3d5ffd5b505050506040513d601f19601f82011682018060405250810190611d479190613a3f565b611d935760405162461bcd60e51b815260206004820152601960248201527f63726561746f7220626c6f636b65642f68617320746f6b656e0000000000000060448201526064016108ff565b6004805460405163e0eeb3d360e01b81526001600160a01b03848116938201939093525f928392169063e0eeb3d39060240160408051808303815f875af1158015611de0573d5f5f3e3d5ffd5b505050506040513d601f19601f82011682018060405250810190611e049190613ac3565b5f82815260076020908152604080832060028082018054600160a01b6001600160a01b038d811680151583026001600160a81b0319909416179290921783559254600887529685902096909655548254845192820460ff161515835294820187905296985094965094831693919092169186917ff0c0bc2d3fca58ed0faa7b1b3cdfe520dc530b72e249182a61b923ec6067d997910160405180910390a450505050565b611eb061254b565b6001600160a01b038116611ed957604051631e4fbdf760e01b81525f60048201526024016108ff565b611ee281612577565b50565b5f5b8151811015611bca5760045482515f9160079183916001600160a01b03169063e8378fbf90879087908110611f1e57611f1e613961565b6020908102919091010151516040516001600160e01b031960e084901b1681526001600160a01b039091166004820152602401602060405180830381865afa158015611f6c573d5f5f3e3d5ffd5b505050506040513d601f19601f82011682018060405250810190611f9091906139d9565b815260208101919091526040015f2080549091506001600160a01b0316611fed5760405162461bcd60e51b8152602060048201526011602482015270151bdad95b881b9bdd0818dc99585d1959607a1b60448201526064016108ff565b60045483515f9160089183916001600160a01b03169063e8378fbf9088908890811061201b5761201b613961565b6020908102919091010151516040516001600160e01b031960e084901b1681526001600160a01b039091166004820152602401602060405180830381865afa158015612069573d5f5f3e3d5ffd5b505050506040513d601f19601f8201168201806040525081019061208d91906139d9565b81526020019081526020015f20905080600501545f14806120bf575060058101546120bb9062015180613b23565b4210155b8061214e575060055f9054906101000a90046001600160a01b03166001600160a01b031663a9dc491d6040518163ffffffff1660e01b8152600401602060405180830381865afa158015612115573d5f5f3e3d5ffd5b505050506040513d601f19601f820116820180604052508101906121399190613932565b6001600160a01b0316336001600160a01b0316145b61219a5760405162461bcd60e51b815260206004820152601860248201527f486561742075706461746520746f6f206672657175656e74000000000000000060448201526064016108ff565b5f816004015490505f8585815181106121b5576121b5613961565b60200260200101516020015190508181101561220b5760405162461bcd60e51b8152602060048201526015602482015274496e76616c6964206865617420646563726561736560581b60448201526064016108ff565b600483018190554260058401556002548354148015612228575081155b15612231575f83555b600654845460405163f251f45f60e01b81526001600160a01b03918216600482015291169063f251f45f90602401602060405180830381865afa15801561227a573d5f5f3e3d5ffd5b505050506040513d601f19601f8201168201806040525081019061229e9190613a3f565b1561236657825460048401545f916122b591613a04565b90505f6122c5620186a083613b10565b90508015612363575f5b8181101561233e576006548754604051633248f2b360e11b81526001600160a01b039182166004820152911690636491e566906024015f604051808303815f87803b15801561231c575f5ffd5b505af115801561232e573d5f5f3e3d5ffd5b5050600190920191506122cf9050565b5061234c620186a082613ae5565b855f015f82825461235d9190613b23565b90915550505b50505b6002840154600160a01b900460ff1680156123e957506006548454604051634ed599fb60e11b81526001600160a01b039182166004820152911690639dab33f690602401602060405180830381865afa1580156123c5573d5f5f3e3d5ffd5b505050506040513d601f19601f820116820180604052508101906123e99190613a3f565b156124cf5782600101545f0361240357620186a060018401555b5f836002015484600401546124189190613a04565b90505f84600101548261242b9190613b10565b905080156124cc575f5b818110156124a457600654875460405163641d27ab60e01b81526001600160a01b03918216600482015291169063641d27ab906024015f604051808303815f87803b158015612482575f5ffd5b505af1158015612494573d5f5f3e3d5ffd5b5050600190920191506124359050565b5060018501546124b49082613ae5565b856002015f8282546124c69190613b23565b90915550505b50505b8585815181106124e1576124e1613961565b60200260200101515f01516001600160a01b03167f17f0fa8193ad599e6d9e20fb742ac1d5fd0b1bf4246f0aa664a4c293863ffac0846004015442604051612533929190918252602082015260400190565b60405180910390a2505060019092019150611ee79050565b5f546001600160a01b03163314610b2c5760405163118cdaa760e01b81523360048201526024016108ff565b5f80546001600160a01b038381166001600160a01b0319831681178455604051919092169283917f8be0079c531659141344cd1fd0a4f28419497f9722a3daafe3b4186f6b6457e09190a35050565b6002600154036125e957604051633ee5aeb560e01b815260040160405180910390fd5b6002600155565b5f808073c190e6f26ce14e40d30251fde25927a73a5d58b66001600160a01b038516106126325773c190e6f26ce14e40d30251fde25927a73a5d58b684612649565b8373c190e6f26ce14e40d30251fde25927a73a5d58b65b915091505f846001600160a01b031663ebda16eb6040518163ffffffff1660e01b8152600401602060405180830381865afa15801561268a573d5f5f3e3d5ffd5b505050506040513d601f19601f820116820180604052508101906126ae91906139d9565b90505f60045f9054906101000a90046001600160a01b03166001600160a01b03166376edb6f46040518163ffffffff1660e01b8152600401602060405180830381865afa158015612701573d5f5f3e3d5ffd5b505050506040513d601f19601f8201168201806040525081019061272591906139d9565b90505f8211801561273557505f81115b6127705760405162461bcd60e51b815260206004820152600c60248201526b7a65726f20616d6f756e747360a01b60448201526064016108ff565b5f866001600160a01b0316856001600160a01b0316146127905781612792565b825b90505f876001600160a01b0316866001600160a01b0316146127b457836127b6565b825b600c54604051630b4c774160e11b81529192505f916001600160a01b0390911690631698ee82906127f1908a908a90610bb890600401613a17565b602060405180830381865afa15801561280c573d5f5f3e3d5ffd5b505050506040513d601f19601f820116820180604052508101906128309190613932565b90506001600160a01b038116156128775760405162461bcd60e51b815260206004820152600b60248201526a504f4f4c5f45584953545360a81b60448201526064016108ff565b5f6128828385612e79565b600c5460405163a167129560e01b81529192506001600160a01b03169063a1671295906128b9908b908b90610bb890600401613a17565b6020604051808303815f875af11580156128d5573d5f5f3e3d5ffd5b505050506040513d601f19601f820116820180604052508101906128f99190613932565b60405163f637731d60e01b81526001600160a01b038381166004830152919a50908a169063f637731d906024015f604051808303815f87803b15801561293d575f5ffd5b505af115801561294f573d5f5f3e3d5ffd5b505050505050505050505050919050565b5f808073c190e6f26ce14e40d30251fde25927a73a5d58b66001600160a01b038716106129a25773c190e6f26ce14e40d30251fde25927a73a5d58b6866129b9565b8573c190e6f26ce14e40d30251fde25927a73a5d58b65b915091505f866001600160a01b0316836001600160a01b0316146129dd57846129df565b855b90505f876001600160a01b0316846001600160a01b031614612a015786612a03565b855b6040516370a0823160e01b815230600482015290915082906001600160a01b038616906370a0823190602401602060405180830381865afa158015612a4a573d5f5f3e3d5ffd5b505050506040513d601f19601f82011682018060405250810190612a6e91906139d9565b1015612ab55760405162461bcd60e51b815260206004820152601660248201527504d495353494e475f42414c414e43455f544f4b454e360541b60448201526064016108ff565b6040516370a0823160e01b815230600482015281906001600160a01b038516906370a0823190602401602060405180830381865afa158015612af9573d5f5f3e3d5ffd5b505050506040513d601f19601f82011682018060405250810190612b1d91906139d9565b1015612b645760405162461bcd60e51b81526020600482015260166024820152754d495353494e475f42414c414e43455f544f4b454e3160501b60448201526064016108ff565b5f612bae896001600160a01b0316866001600160a01b031614612b875788612b89565b875b8a6001600160a01b0316876001600160a01b031614612ba85788612e79565b89612e79565b90505f612bba82612f25565b9050603c5f612bcb61271084613b36565b90505f612bda84612710613b5b565b90505f612be98385600161322a565b90505f612bf783865f61322a565b9050620d89e719600283900b1215612c2857612c1785620d89e719613b80565b612c2590620d89e719613b36565b91505b612c35620d89e719613ba1565b60020b8160020b1315612c745784612c50620d89e719613ba1565b612c5a9190613b80565b612c67620d89e719613ba1565b612c719190613b36565b90505b600b5460405163095ea7b360e01b81526001600160a01b039182166004820152602481018b9052908c169063095ea7b3906044016020604051808303815f875af1158015612cc4573d5f5f3e3d5ffd5b505050506040513d601f19601f82011682018060405250810190612ce89190613a3f565b50600b5460405163095ea7b360e01b81526001600160a01b039182166004820152602481018a9052908b169063095ea7b3906044016020604051808303815f875af1158015612d39573d5f5f3e3d5ffd5b505050506040513d601f19601f82011682018060405250810190612d5d9190613a3f565b505f600b5f9054906101000a90046001600160a01b03166001600160a01b031663883164566040518061016001604052808f6001600160a01b031681526020018e6001600160a01b03168152602001610bb862ffffff1681526020018660020b81526020018560020b81526020018d81526020018c81526020015f81526020015f8152602001306001600160a01b0316815260200142610258612e009190613b23565b8152506040518263ffffffff1660e01b8152600401612e1f9190613bc1565b6080604051808303815f875af1158015612e3b573d5f5f3e3d5ffd5b505050506040513d601f19601f82011682018060405250810190612e5f9190613c85565b50919e5050505050505050505050505050505b9392505050565b5f5f82118015612e8857505f83115b612ec05760405162461bcd60e51b815260206004820152600960248201526862616420726174696f60b81b60448201526064016108ff565b5f612ed084600160c01b856132aa565b90505f612edc82613354565b90506001600160a01b0381111561104e5760405162461bcd60e51b815260206004820152600d60248201526c73717274206f766572666c6f7760981b60448201526064016108ff565b5f6401000276a36001600160a01b03831610801590612f60575073fffd8963efd1fc6a506488495d951d5263988d266001600160a01b038316105b612f7d576040516324c070df60e11b815260040160405180910390fd5b640100000000600160c01b03602083901b166001600160801b03811160071b81811c67ffffffffffffffff811160061b90811c63ffffffff811160051b90811c61ffff811160041b90811c60ff8111600390811b91821c600f811160021b90811c918211600190811b92831c9790881196179094179092171790911717176080811061301157607f810383901c915061301b565b80607f0383901b91505b908002607f81811c60ff83811c9190911c800280831c81831c1c800280841c81841c1c800280851c81851c1c800280861c81861c1c800280871c81871c1c800280881c81881c1c800280891c81891c1c8002808a1c818a1c1c8002808b1c818b1c1c8002808c1c818c1c1c8002808d1c818d1c1c8002808e1c9c81901c9c909c1c80029c8d901c9e9d607f198f0160401b60c09190911c678000000000000000161760c19b909b1c674000000000000000169a909a1760c29990991c672000000000000000169890981760c39790971c671000000000000000169690961760c49590951c670800000000000000169490941760c59390931c670400000000000000169290921760c69190911c670200000000000000161760c79190911c670100000000000000161760c89190911c6680000000000000161760c99190911c6640000000000000161760ca9190911c6620000000000000161760cb9190911c6610000000000000161760cc9190911c6608000000000000161760cd9190911c66040000000000001617693627a301d71055774c8581026f028f6481ab7f045a5af012a19d003aa9198101608090811d906fdb2df09e81959a81455e260799a0632f8301901d600281810b9083900b1461321b57886001600160a01b0316613200826133a3565b6001600160a01b03161115613215578161321d565b8061321d565b815b9998505050505050505050565b5f806132368486613b80565b90508060020b5f0361324b5784915050612e72565b8261327b575f8560020b13613260575f613262565b835b61326c8287613b36565b6132769190613b5b565b6132a1565b5f8560020b1261328b575f61328d565b835b6132978287613b36565b6132a19190613b36565b95945050505050565b5f80805f19858709858702925082811083820303915050805f036132de575f84116132d3575f5ffd5b508290049050612e72565b8084116132e9575f5ffd5b5f848688095f868103871696879004966002600389028118808a02820302808a02820302808a02820302808a02820302808a02820302808a02909103029181900381900460010186841190950394909402919094039290920491909117919091029150509392505050565b5f815f0361336357505f919050565b5f60016133708482613b23565b901c90508291505b8181101561126a579050806001816133908186613b10565b61339a9190613b23565b901c9050613378565b5f5f5f8360020b126133b8578260020b6133bf565b8260020b5f035b9050620d89e88111156133e5576040516315e4079d60e11b815260040160405180910390fd5b5f816001165f036133fa57600160801b61340c565b6ffffcb933bd6fad37aa2d162d1a5940015b70ffffffffffffffffffffffffffffffffff1690506002821615613440576ffff97272373d413259a46990580e213a0260801c5b600482161561345f576ffff2e50f5f656932ef12357cf3c7fdcc0260801c5b600882161561347e576fffe5caca7e10e4e61c3624eaa0941cd00260801c5b601082161561349d576fffcb9843d60f6159c9db58835c9266440260801c5b60208216156134bc576fff973b41fa98c081472e6896dfb254c00260801c5b60408216156134db576fff2ea16466c96a3843ec78b326b528610260801c5b60808216156134fa576ffe5dee046a99a2a811c461f1969c30530260801c5b61010082161561351a576ffcbe86c7900a88aedcffc83b479aa3a40260801c5b61020082161561353a576ff987a7253ac413176f2b074cf7815e540260801c5b61040082161561355a576ff3392b0822b70005940c7a398e4b70f30260801c5b61080082161561357a576fe7159475a2c29b7443b29c7fa6e889d90260801c5b61100082161561359a576fd097f3bdfd2022b8845ad8f792aa58250260801c5b6120008216156135ba576fa9f746462d870fdf8a65dc1f90e061e50260801c5b6140008216156135da576f70d869a156d2a1b890bb3df62baf32f70260801c5b6180008216156135fa576f31be135f97d08fd981231505542fcfa60260801c5b6201000082161561361b576f09aa508b5b7a84e1c677de54f3e99bc90260801c5b6202000082161561363b576e5d6af8dedb81196699c329225ee6040260801c5b6204000082161561365a576d2216e584f5fa1ea926041bedfe980260801c5b62080000821615613677576b048a170391f7dc42444e8fa20260801c5b5f8460020b131561369657805f198161369257613692613afc565b0490505b6401000000008106156136aa5760016136ac565b5f5b60ff16602082901c0192505050919050565b5f5f602083850312156136cf575f5ffd5b823567ffffffffffffffff8111156136e5575f5ffd5b8301601f810185136136f5575f5ffd5b803567ffffffffffffffff81111561370b575f5ffd5b8560208260061b840101111561371f575f5ffd5b6020919091019590945092505050565b6001600160a01b0381168114611ee2575f5ffd5b5f60208284031215613753575f5ffd5b8135612e728161372f565b5f6020828403121561376e575f5ffd5b5035919050565b81516001600160a01b0390811682526020808401518216908301526040808401519091169082015260608083015115159082015260808101610c5b565b5f5f5f5f606085870312156137c5575f5ffd5b84359350602085013567ffffffffffffffff8111156137e2575f5ffd5b8501601f810187136137f2575f5ffd5b803567ffffffffffffffff811115613808575f5ffd5b8760208260051b840101111561381c575f5ffd5b6020919091019350915060408501356138348161372f565b939692955090935050565b602080825282518282018190525f918401906040840190835b818110156138b15761389b83855180516001600160a01b039081168352602080830151821690840152604080830151909116908301526060908101511515910152565b6020939093019260809290920191600101613858565b509095945050505050565b5f5f5f606084860312156138ce575f5ffd5b8335925060208401356138e08161372f565b915060408401356138f08161372f565b809150509250925092565b5f5f6040838503121561390c575f5ffd5b82356139178161372f565b915060208301356139278161372f565b809150509250929050565b5f60208284031215613942575f5ffd5b8151612e728161372f565b634e487b7160e01b5f52604160045260245ffd5b634e487b7160e01b5f52603260045260245ffd5b5f6040828403128015613986575f5ffd5b506040805190810167ffffffffffffffff811182821017156139b657634e487b7160e01b5f52604160045260245ffd5b60405282356139c48161372f565b81526020928301359281019290925250919050565b5f602082840312156139e9575f5ffd5b5051919050565b634e487b7160e01b5f52601160045260245ffd5b81810381811115610c5b57610c5b6139f0565b6001600160a01b03938416815291909216602082015262ffffff909116604082015260600190565b5f60208284031215613a4f575f5ffd5b81518015158114612e72575f5ffd5b602081525f82516080602084015280518060a0850152806020830160c086015e5f60c0828601015260018060a01b036020860151166040850152604085015160608501526060850151608085015260c0601f19601f8301168501019250505092915050565b5f5f60408385031215613ad4575f5ffd5b505080516020909101519092909150565b8082028115828204841417610c5b57610c5b6139f0565b634e487b7160e01b5f52601260045260245ffd5b5f82613b1e57613b1e613afc565b500490565b80820180821115610c5b57610c5b6139f0565b600282810b9082900b03627fffff198112627fffff82131715610c5b57610c5b6139f0565b600281810b9083900b01627fffff8113627fffff1982121715610c5b57610c5b6139f0565b5f8260020b80613b9257613b92613afc565b808360020b0791505092915050565b5f8160020b627fffff198103613bb957613bb96139f0565b5f0392915050565b81516001600160a01b0316815261016081016020830151613bed60208401826001600160a01b03169052565b506040830151613c04604084018262ffffff169052565b506060830151613c19606084018260020b9052565b506080830151613c2e608084018260020b9052565b5060a083015160a083015260c083015160c083015260e083015160e0830152610100830151610100830152610120830151613c756101208401826001600160a01b03169052565b5061014092830151919092015290565b5f5f5f5f60808587031215613c98575f5ffd5b845160208601519094506001600160801b0381168114613cb6575f5ffd5b604086015160609096015194979096509250505056fea2646970667358221220e3f71448da13900f367d71b5590a760f379ac47fe6a7534b9c4f0341e5e7af1964736f6c634300081c0033",
  "linkReferences": {},
  "deployedLinkReferences": {},
  "immutableReferences": {},
  "inputSourceName": "project/contracts/MemedFactory_test.sol",
  "buildInfoId": "solc-0_8_28-491c3931dc1c3f900633d2c62129191fd75d2328"
}