{
  "_format": "hh3-artifact-1",
  "contractName": "MemedTokenSale_test",
  "sourceName": "contracts/MemedTokenSale_test.sol",
  "abi": [
    {
      "inputs": [],
      "stateMutability": "nonpayable",
      "type": "constructor"
    },
    {
      "inputs": [
        {
          "internalType": "address",
          "name": "owner",
          "type": "address"
        }
      ],
      "name": "OwnableInvalidOwner",
      "type": "error"
    },
    {
      "inputs": [
        {
          "internalType": "address",
          "name": "account",
          "type": "address"
        }
      ],
      "name": "OwnableUnauthorizedAccount",
      "type": "error"
    },
    {
      "inputs": [],
      "name": "ReentrancyGuardReentrantCall",
      "type": "error"
    },
    {
      "anonymous": false,
      "inputs": [
        {
          "indexed": true,
          "internalType": "uint256",
          "name": "id",
          "type": "uint256"
        },
        {
          "indexed": true,
          "internalType": "address",
          "name": "user",
          "type": "address"
        },
        {
          "indexed": false,
          "internalType": "uint256",
          "name": "amount",
          "type": "uint256"
        }
      ],
      "name": "CommitmentMade",
      "type": "event"
    },
    {
      "anonymous": false,
      "inputs": [
        {
          "indexed": true,
          "internalType": "address",
          "name": "creator",
          "type": "address"
        },
        {
          "indexed": false,
          "internalType": "uint256",
          "name": "blockExpiresAt",
          "type": "uint256"
        },
        {
          "indexed": false,
          "internalType": "string",
          "name": "reason",
          "type": "string"
        }
      ],
      "name": "CreatorBlocked",
      "type": "event"
    },
    {
      "anonymous": false,
      "inputs": [
        {
          "indexed": true,
          "internalType": "uint256",
          "name": "id",
          "type": "uint256"
        },
        {
          "indexed": true,
          "internalType": "address",
          "name": "token",
          "type": "address"
        },
        {
          "indexed": true,
          "internalType": "address",
          "name": "warriorNFT",
          "type": "address"
        },
        {
          "indexed": false,
          "internalType": "uint256",
          "name": "totalRaised",
          "type": "uint256"
        }
      ],
      "name": "FairLaunchCompleted",
      "type": "event"
    },
    {
      "anonymous": false,
      "inputs": [
        {
          "indexed": true,
          "internalType": "uint256",
          "name": "id",
          "type": "uint256"
        },
        {
          "indexed": false,
          "internalType": "uint256",
          "name": "totalRaised",
          "type": "uint256"
        }
      ],
      "name": "FairLaunchFailed",
      "type": "event"
    },
    {
      "anonymous": false,
      "inputs": [
        {
          "indexed": true,
          "internalType": "uint256",
          "name": "id",
          "type": "uint256"
        },
        {
          "indexed": false,
          "internalType": "uint256",
          "name": "lpSupply",
          "type": "uint256"
        },
        {
          "indexed": false,
          "internalType": "uint256",
          "name": "totalRaised",
          "type": "uint256"
        }
      ],
      "name": "FairLaunchReadyToComplete",
      "type": "event"
    },
    {
      "anonymous": false,
      "inputs": [
        {
          "indexed": true,
          "internalType": "uint256",
          "name": "id",
          "type": "uint256"
        },
        {
          "indexed": true,
          "internalType": "address",
          "name": "creator",
          "type": "address"
        },
        {
          "indexed": false,
          "internalType": "uint256",
          "name": "startTime",
          "type": "uint256"
        },
        {
          "indexed": false,
          "internalType": "uint256",
          "name": "endTime",
          "type": "uint256"
        }
      ],
      "name": "FairLaunchStarted",
      "type": "event"
    },
    {
      "anonymous": false,
      "inputs": [
        {
          "indexed": true,
          "internalType": "uint256",
          "name": "id",
          "type": "uint256"
        },
        {
          "indexed": true,
          "internalType": "address",
          "name": "pair",
          "type": "address"
        },
        {
          "indexed": false,
          "internalType": "uint256",
          "name": "tokenAmount",
          "type": "uint256"
        },
        {
          "indexed": false,
          "internalType": "uint256",
          "name": "ethAmount",
          "type": "uint256"
        },
        {
          "indexed": false,
          "internalType": "uint256",
          "name": "liquidity",
          "type": "uint256"
        }
      ],
      "name": "LiquidityAdded",
      "type": "event"
    },
    {
      "anonymous": false,
      "inputs": [
        {
          "indexed": true,
          "internalType": "address",
          "name": "previousOwner",
          "type": "address"
        },
        {
          "indexed": true,
          "internalType": "address",
          "name": "newOwner",
          "type": "address"
        }
      ],
      "name": "OwnershipTransferred",
      "type": "event"
    },
    {
      "anonymous": false,
      "inputs": [
        {
          "indexed": true,
          "internalType": "uint256",
          "name": "id",
          "type": "uint256"
        },
        {
          "indexed": true,
          "internalType": "address",
          "name": "user",
          "type": "address"
        },
        {
          "indexed": false,
          "internalType": "uint256",
          "name": "feeAmount",
          "type": "uint256"
        },
        {
          "indexed": false,
          "internalType": "string",
          "name": "transactionType",
          "type": "string"
        }
      ],
      "name": "PlatformFeeCollected",
      "type": "event"
    },
    {
      "anonymous": false,
      "inputs": [
        {
          "indexed": false,
          "internalType": "uint256",
          "name": "platformFeePercentage",
          "type": "uint256"
        },
        {
          "indexed": false,
          "internalType": "uint256",
          "name": "feeDenominator",
          "type": "uint256"
        }
      ],
      "name": "PlatformFeeSet",
      "type": "event"
    },
    {
      "anonymous": false,
      "inputs": [
        {
          "indexed": true,
          "internalType": "uint256",
          "name": "id",
          "type": "uint256"
        },
        {
          "indexed": true,
          "internalType": "address",
          "name": "seller",
          "type": "address"
        },
        {
          "indexed": false,
          "internalType": "uint256",
          "name": "tokenAmount",
          "type": "uint256"
        },
        {
          "indexed": false,
          "internalType": "uint256",
          "name": "ethReceived",
          "type": "uint256"
        }
      ],
      "name": "TokenSold",
      "type": "event"
    },
    {
      "inputs": [],
      "name": "DECIMALS",
      "outputs": [
        {
          "internalType": "uint256",
          "name": "",
          "type": "uint256"
        }
      ],
      "stateMutability": "view",
      "type": "function"
    },
    {
      "inputs": [],
      "name": "FAIR_LAUNCH_DURATION",
      "outputs": [
        {
          "internalType": "uint256",
          "name": "",
          "type": "uint256"
        }
      ],
      "stateMutability": "view",
      "type": "function"
    },
    {
      "inputs": [],
      "name": "INITIAL_SUPPLY",
      "outputs": [
        {
          "internalType": "uint256",
          "name": "",
          "type": "uint256"
        }
      ],
      "stateMutability": "view",
      "type": "function"
    },
    {
      "inputs": [],
      "name": "MEMED_TEST_ETH",
      "outputs": [
        {
          "internalType": "address",
          "name": "",
          "type": "address"
        }
      ],
      "stateMutability": "view",
      "type": "function"
    },
    {
      "inputs": [],
      "name": "SCALE",
      "outputs": [
        {
          "internalType": "uint256",
          "name": "",
          "type": "uint256"
        }
      ],
      "stateMutability": "view",
      "type": "function"
    },
    {
      "inputs": [],
      "name": "SLOPE",
      "outputs": [
        {
          "internalType": "uint256",
          "name": "",
          "type": "uint256"
        }
      ],
      "stateMutability": "view",
      "type": "function"
    },
    {
      "inputs": [],
      "name": "TARGET_ETH_WEI",
      "outputs": [
        {
          "internalType": "uint256",
          "name": "",
          "type": "uint256"
        }
      ],
      "stateMutability": "view",
      "type": "function"
    },
    {
      "inputs": [],
      "name": "TOTAL_FOR_SALE",
      "outputs": [
        {
          "internalType": "uint256",
          "name": "",
          "type": "uint256"
        }
      ],
      "stateMutability": "view",
      "type": "function"
    },
    {
      "inputs": [
        {
          "internalType": "address",
          "name": "",
          "type": "address"
        }
      ],
      "name": "blockedCreators",
      "outputs": [
        {
          "internalType": "uint256",
          "name": "",
          "type": "uint256"
        }
      ],
      "stateMutability": "view",
      "type": "function"
    },
    {
      "inputs": [
        {
          "internalType": "uint256",
          "name": "_id",
          "type": "uint256"
        },
        {
          "internalType": "uint256",
          "name": "_amount",
          "type": "uint256"
        }
      ],
      "name": "commitToFairLaunch",
      "outputs": [],
      "stateMutability": "nonpayable",
      "type": "function"
    },
    {
      "inputs": [
        {
          "internalType": "uint256",
          "name": "_id",
          "type": "uint256"
        },
        {
          "internalType": "address",
          "name": "_token",
          "type": "address"
        },
        {
          "internalType": "address",
          "name": "_pair",
          "type": "address"
        }
      ],
      "name": "completeFairLaunch",
      "outputs": [],
      "stateMutability": "nonpayable",
      "type": "function"
    },
    {
      "inputs": [
        {
          "internalType": "uint256",
          "name": "",
          "type": "uint256"
        }
      ],
      "name": "fairLaunchData",
      "outputs": [
        {
          "internalType": "enum FairLaunchStatus",
          "name": "status",
          "type": "uint8"
        },
        {
          "internalType": "uint256",
          "name": "fairLaunchStartTime",
          "type": "uint256"
        },
        {
          "internalType": "uint256",
          "name": "totalCommitted",
          "type": "uint256"
        },
        {
          "internalType": "uint256",
          "name": "totalSold",
          "type": "uint256"
        },
        {
          "internalType": "address",
          "name": "uniswapPair",
          "type": "address"
        },
        {
          "internalType": "uint256",
          "name": "createdAt",
          "type": "uint256"
        }
      ],
      "stateMutability": "view",
      "type": "function"
    },
    {
      "inputs": [],
      "name": "feeDenominator",
      "outputs": [
        {
          "internalType": "uint256",
          "name": "",
          "type": "uint256"
        }
      ],
      "stateMutability": "view",
      "type": "function"
    },
    {
      "inputs": [
        {
          "internalType": "address",
          "name": "_token",
          "type": "address"
        }
      ],
      "name": "getFairLaunchActive",
      "outputs": [
        {
          "internalType": "bool",
          "name": "",
          "type": "bool"
        }
      ],
      "stateMutability": "view",
      "type": "function"
    },
    {
      "inputs": [
        {
          "internalType": "uint256",
          "name": "_id",
          "type": "uint256"
        }
      ],
      "name": "getFairLaunchData",
      "outputs": [
        {
          "internalType": "enum FairLaunchStatus",
          "name": "",
          "type": "uint8"
        },
        {
          "internalType": "uint256",
          "name": "",
          "type": "uint256"
        }
      ],
      "stateMutability": "view",
      "type": "function"
    },
    {
      "inputs": [
        {
          "internalType": "uint256",
          "name": "_id",
          "type": "uint256"
        }
      ],
      "name": "getMaxCommittableETH",
      "outputs": [
        {
          "internalType": "uint256",
          "name": "",
          "type": "uint256"
        }
      ],
      "stateMutability": "view",
      "type": "function"
    },
    {
      "inputs": [
        {
          "internalType": "uint256",
          "name": "_id",
          "type": "uint256"
        },
        {
          "internalType": "uint256",
          "name": "_ethAmount",
          "type": "uint256"
        }
      ],
      "name": "getNativeToTokenAmount",
      "outputs": [
        {
          "internalType": "uint256",
          "name": "tokenAmount",
          "type": "uint256"
        }
      ],
      "stateMutability": "view",
      "type": "function"
    },
    {
      "inputs": [
        {
          "internalType": "uint256",
          "name": "_id",
          "type": "uint256"
        },
        {
          "internalType": "uint256",
          "name": "_delta",
          "type": "uint256"
        }
      ],
      "name": "getTokenToNativeToken",
      "outputs": [
        {
          "internalType": "uint256",
          "name": "ethValue",
          "type": "uint256"
        }
      ],
      "stateMutability": "view",
      "type": "function"
    },
    {
      "inputs": [
        {
          "internalType": "uint256",
          "name": "_id",
          "type": "uint256"
        },
        {
          "internalType": "address",
          "name": "_user",
          "type": "address"
        }
      ],
      "name": "getUserCommitment",
      "outputs": [
        {
          "components": [
            {
              "internalType": "uint256",
              "name": "amount",
              "type": "uint256"
            },
            {
              "internalType": "uint256",
              "name": "tokenAmount",
              "type": "uint256"
            },
            {
              "internalType": "bool",
              "name": "claimed",
              "type": "bool"
            },
            {
              "internalType": "bool",
              "name": "refunded",
              "type": "bool"
            }
          ],
          "internalType": "struct Commitment",
          "name": "",
          "type": "tuple"
        }
      ],
      "stateMutability": "view",
      "type": "function"
    },
    {
      "inputs": [],
      "name": "id",
      "outputs": [
        {
          "internalType": "uint256",
          "name": "",
          "type": "uint256"
        }
      ],
      "stateMutability": "view",
      "type": "function"
    },
    {
      "inputs": [
        {
          "internalType": "address",
          "name": "_creator",
          "type": "address"
        }
      ],
      "name": "isCreatorBlocked",
      "outputs": [
        {
          "internalType": "bool",
          "name": "blocked",
          "type": "bool"
        },
        {
          "internalType": "uint256",
          "name": "blockExpiresAt",
          "type": "uint256"
        }
      ],
      "stateMutability": "view",
      "type": "function"
    },
    {
      "inputs": [
        {
          "internalType": "address",
          "name": "_creator",
          "type": "address"
        }
      ],
      "name": "isMintable",
      "outputs": [
        {
          "internalType": "bool",
          "name": "",
          "type": "bool"
        }
      ],
      "stateMutability": "view",
      "type": "function"
    },
    {
      "inputs": [
        {
          "internalType": "uint256",
          "name": "_id",
          "type": "uint256"
        }
      ],
      "name": "isRefundable",
      "outputs": [
        {
          "internalType": "bool",
          "name": "",
          "type": "bool"
        }
      ],
      "stateMutability": "view",
      "type": "function"
    },
    {
      "inputs": [],
      "name": "memedFactory",
      "outputs": [
        {
          "internalType": "contract IMemedFactory",
          "name": "",
          "type": "address"
        }
      ],
      "stateMutability": "view",
      "type": "function"
    },
    {
      "inputs": [],
      "name": "owner",
      "outputs": [
        {
          "internalType": "address",
          "name": "",
          "type": "address"
        }
      ],
      "stateMutability": "view",
      "type": "function"
    },
    {
      "inputs": [],
      "name": "platformFeePercentage",
      "outputs": [
        {
          "internalType": "uint256",
          "name": "",
          "type": "uint256"
        }
      ],
      "stateMutability": "view",
      "type": "function"
    },
    {
      "inputs": [
        {
          "internalType": "uint256",
          "name": "s",
          "type": "uint256"
        }
      ],
      "name": "priceAt",
      "outputs": [
        {
          "internalType": "uint256",
          "name": "",
          "type": "uint256"
        }
      ],
      "stateMutability": "pure",
      "type": "function"
    },
    {
      "inputs": [
        {
          "internalType": "uint256",
          "name": "_id",
          "type": "uint256"
        }
      ],
      "name": "refund",
      "outputs": [],
      "stateMutability": "nonpayable",
      "type": "function"
    },
    {
      "inputs": [],
      "name": "renounceOwnership",
      "outputs": [],
      "stateMutability": "nonpayable",
      "type": "function"
    },
    {
      "inputs": [
        {
          "internalType": "uint256",
          "name": "_id",
          "type": "uint256"
        },
        {
          "internalType": "uint256",
          "name": "_amount",
          "type": "uint256"
        }
      ],
      "name": "sellTokens",
      "outputs": [],
      "stateMutability": "nonpayable",
      "type": "function"
    },
    {
      "inputs": [
        {
          "internalType": "address",
          "name": "_memedFactory",
          "type": "address"
        }
      ],
      "name": "setFactory",
      "outputs": [],
      "stateMutability": "nonpayable",
      "type": "function"
    },
    {
      "inputs": [
        {
          "internalType": "uint256",
          "name": "_platformFeePercentage",
          "type": "uint256"
        },
        {
          "internalType": "uint256",
          "name": "_feeDenominator",
          "type": "uint256"
        }
      ],
      "name": "setPlatformFee",
      "outputs": [],
      "stateMutability": "nonpayable",
      "type": "function"
    },
    {
      "inputs": [
        {
          "internalType": "address",
          "name": "_creator",
          "type": "address"
        }
      ],
      "name": "startFairLaunch",
      "outputs": [
        {
          "internalType": "uint256",
          "name": "",
          "type": "uint256"
        }
      ],
      "stateMutability": "nonpayable",
      "type": "function"
    },
    {
      "inputs": [
        {
          "internalType": "address",
          "name": "",
          "type": "address"
        }
      ],
      "name": "tokenIdByAddress",
      "outputs": [
        {
          "internalType": "uint256",
          "name": "",
          "type": "uint256"
        }
      ],
      "stateMutability": "view",
      "type": "function"
    },
    {
      "inputs": [
        {
          "internalType": "address",
          "name": "",
          "type": "address"
        },
        {
          "internalType": "uint256",
          "name": "",
          "type": "uint256"
        }
      ],
      "name": "tokenIdsByCreator",
      "outputs": [
        {
          "internalType": "uint256",
          "name": "",
          "type": "uint256"
        }
      ],
      "stateMutability": "view",
      "type": "function"
    },
    {
      "inputs": [
        {
          "internalType": "address",
          "name": "newOwner",
          "type": "address"
        }
      ],
      "name": "transferOwnership",
      "outputs": [],
      "stateMutability": "nonpayable",
      "type": "function"
    },
    {
      "stateMutability": "payable",
      "type": "receive"
    }
  ],
  "bytecode": "0x60806040526b033b2e3c9fd0803ce8000000600255600a6003556103e860045534801561002a575f5ffd5b50335f73ffffffffffffffffffffffffffffffffffffffff168173ffffffffffffffffffffffffffffffffffffffff160361009c575f6040517f1e4fbdf700000000000000000000000000000000000000000000000000000000815260040161009391906101b8565b60405180910390fd5b6100ab816100b860201b60201c565b50600180819055506101d1565b5f5f5f9054906101000a900473ffffffffffffffffffffffffffffffffffffffff169050815f5f6101000a81548173ffffffffffffffffffffffffffffffffffffffff021916908373ffffffffffffffffffffffffffffffffffffffff1602179055508173ffffffffffffffffffffffffffffffffffffffff168173ffffffffffffffffffffffffffffffffffffffff167f8be0079c531659141344cd1fd0a4f28419497f9722a3daafe3b4186f6b6457e060405160405180910390a35050565b5f73ffffffffffffffffffffffffffffffffffffffff82169050919050565b5f6101a282610179565b9050919050565b6101b281610198565b82525050565b5f6020820190506101cb5f8301846101a9565b92915050565b613dd5806101de5f395ff3fe608060405260043610610212575f3560e01c80639dab205411610117578063dba64bb61161009f578063e8378fbf1161006e578063e8378fbf14610818578063eced552614610854578063ed9772b61461087e578063efa4a329146108a6578063f2fde38b146108d057610219565b8063dba64bb614610762578063dc5ea5d91461078c578063dd125a0a146107b4578063e0eeb3d3146107dc57610219565b8063af640d0f116100e6578063af640d0f14610654578063bcd658ad1461067e578063c06ac352146106bb578063cce6ef44146106fc578063cdd78cfc1461073857610219565b80639dab20541461058a578063abf599fc146105c6578063ad7738d4146105ee578063ae9abdf01461062a57610219565b806347b4812f1161019a57806375808d5b1161016957806375808d5b146104815780637f1b6bab146104be57806389945657146104fa5780638b7cc629146105365780638da5cb5b1461056057610219565b806347b4812f146103cb5780635bb478081461040757806365c252691461042f578063715018a61461046b57610219565b80632badbfc0116101e15780632badbfc0146102d55780632e0f2625146102ff5780632ff2e9dc14610329578063416155ac14610353578063468dacad1461038f57610219565b8063180b0d7e1461021d5780631eec71fb14610247578063222b15fb14610271578063278ecde1146102ad57610219565b3661021957005b5f5ffd5b348015610228575f5ffd5b506102316108f8565b60405161023e9190612bbf565b60405180910390f35b348015610252575f5ffd5b5061025b6108fe565b6040516102689190612bbf565b60405180910390f35b34801561027c575f5ffd5b5061029760048036038101906102929190612c36565b610919565b6040516102a49190612c7b565b60405180910390f35b3480156102b8575f5ffd5b506102d360048036038101906102ce9190612cbe565b610943565b005b3480156102e0575f5ffd5b506102e9610dcb565b6040516102f69190612cf8565b60405180910390f35b34801561030a575f5ffd5b50610313610de3565b6040516103209190612bbf565b60405180910390f35b348015610334575f5ffd5b5061033d610def565b60405161034a9190612bbf565b60405180910390f35b34801561035e575f5ffd5b5061037960048036038101906103749190612c36565b610df5565b6040516103869190612c7b565b60405180910390f35b34801561039a575f5ffd5b506103b560048036038101906103b09190612d11565b610e9c565b6040516103c29190612dc0565b60405180910390f35b3480156103d6575f5ffd5b506103f160048036038101906103ec9190612dd9565b610f4e565b6040516103fe9190612bbf565b60405180910390f35b348015610412575f5ffd5b5061042d60048036038101906104289190612c36565b61105d565b005b34801561043a575f5ffd5b5061045560048036038101906104509190612e17565b611137565b6040516104629190612bbf565b60405180910390f35b348015610476575f5ffd5b5061047f611162565b005b34801561048c575f5ffd5b506104a760048036038101906104a29190612c36565b611175565b6040516104b5929190612e55565b60405180910390f35b3480156104c9575f5ffd5b506104e460048036038101906104df9190612c36565b6111c1565b6040516104f19190612bbf565b60405180910390f35b348015610505575f5ffd5b50610520600480360381019061051b9190612cbe565b6111d6565b60405161052d9190612bbf565b60405180910390f35b348015610541575f5ffd5b5061054a611387565b6040516105579190612bbf565b60405180910390f35b34801561056b575f5ffd5b50610574611394565b6040516105819190612cf8565b60405180910390f35b348015610595575f5ffd5b506105b060048036038101906105ab9190612cbe565b6113bb565b6040516105bd9190612bbf565b60405180910390f35b3480156105d1575f5ffd5b506105ec60048036038101906105e79190612e7c565b611403565b005b3480156105f9575f5ffd5b50610614600480360381019061060f9190612dd9565b61163b565b6040516106219190612bbf565b60405180910390f35b348015610635575f5ffd5b5061063e611781565b60405161064b9190612bbf565b60405180910390f35b34801561065f575f5ffd5b5061066861178e565b6040516106759190612bbf565b60405180910390f35b348015610689575f5ffd5b506106a4600480360381019061069f9190612cbe565b611794565b6040516106b2929190612f3f565b60405180910390f35b3480156106c6575f5ffd5b506106e160048036038101906106dc9190612cbe565b6117c9565b6040516106f396959493929190612f66565b60405180910390f35b348015610707575f5ffd5b50610722600480360381019061071d9190612cbe565b61182c565b60405161072f9190612c7b565b60405180910390f35b348015610743575f5ffd5b5061074c611876565b6040516107599190612bbf565b60405180910390f35b34801561076d575f5ffd5b5061077661187c565b6040516107839190613020565b60405180910390f35b348015610797575f5ffd5b506107b260048036038101906107ad9190612dd9565b6118a1565b005b3480156107bf575f5ffd5b506107da60048036038101906107d59190612dd9565b6118f4565b005b3480156107e7575f5ffd5b5061080260048036038101906107fd9190612c36565b611dea565b60405161080f9190612bbf565b60405180910390f35b348015610823575f5ffd5b5061083e60048036038101906108399190612c36565b61202f565b60405161084b9190612bbf565b60405180910390f35b34801561085f575f5ffd5b50610868612044565b6040516108759190612bbf565b60405180910390f35b348015610889575f5ffd5b506108a4600480360381019061089f9190612dd9565b612050565b005b3480156108b1575f5ffd5b506108ba6124b1565b6040516108c79190612bbf565b60405180910390f35b3480156108db575f5ffd5b506108f660048036038101906108f19190612c36565b6124b8565b005b60045481565b670de0b6b3a7640000630bebc2006109169190613066565b81565b5f5f61092483611175565b5090506109308361253c565b15801561093b575080155b915050919050565b61094b6126c9565b5f60075f8381526020019081526020015f2090506109688261182c565b6109a7576040517f08c379a000000000000000000000000000000000000000000000000000000000815260040161099e90613101565b60405180910390fd5b6004808111156109ba576109b9612ecc565b5b815f015f9054906101000a900460ff1660048111156109dc576109db612ecc565b5b14610c1c576004815f015f6101000a81548160ff02191690836004811115610a0757610a06612ecc565b5b02179055505f62278d0042610a1c919061311f565b905080600a5f60055f9054906101000a900473ffffffffffffffffffffffffffffffffffffffff1673ffffffffffffffffffffffffffffffffffffffff16635d3575a6876040518263ffffffff1660e01b8152600401610a7c9190612bbf565b602060405180830381865afa158015610a97573d5f5f3e3d5ffd5b505050506040513d601f19601f82011682018060405250810190610abb9190613166565b73ffffffffffffffffffffffffffffffffffffffff1673ffffffffffffffffffffffffffffffffffffffff1681526020019081526020015f208190555060055f9054906101000a900473ffffffffffffffffffffffffffffffffffffffff1673ffffffffffffffffffffffffffffffffffffffff16635d3575a6846040518263ffffffff1660e01b8152600401610b529190612bbf565b602060405180830381865afa158015610b6d573d5f5f3e3d5ffd5b505050506040513d601f19601f82011682018060405250810190610b919190613166565b73ffffffffffffffffffffffffffffffffffffffff167fbcd955d7cef17ce72a0bc972618a13a1ea8cccd6447662596a5db5c43e0b587582604051610bd691906131db565b60405180910390a2827f17150adeeda7158a6b2adf5e6065d6ad3f05dcbb2ab7520f383c53edf0f799f78360020154604051610c129190612bbf565b60405180910390a2505b5f816005015f3373ffffffffffffffffffffffffffffffffffffffff1673ffffffffffffffffffffffffffffffffffffffff1681526020019081526020015f2090505f815f015411610ca3576040517f08c379a0000000000000000000000000000000000000000000000000000000008152600401610c9a90613251565b60405180910390fd5b8060020160019054906101000a900460ff1615610cf5576040517f08c379a0000000000000000000000000000000000000000000000000000000008152600401610cec906132b9565b60405180910390fd5b5f3373ffffffffffffffffffffffffffffffffffffffff16825f0154604051610d1d90613304565b5f6040518083038185875af1925050503d805f8114610d57576040519150601f19603f3d011682016040523d82523d5f602084013e610d5c565b606091505b5050905080610da0576040517f08c379a0000000000000000000000000000000000000000000000000000000008152600401610d9790613362565b60405180910390fd5b60018260020160016101000a81548160ff021916908315150217905550505050610dc861270f565b50565b73c190e6f26ce14e40d30251fde25927a73a5d58b681565b670de0b6b3a764000081565b60025481565b5f5f60095f8473ffffffffffffffffffffffffffffffffffffffff1673ffffffffffffffffffffffffffffffffffffffff1681526020019081526020015f205490505f8103610e47575f915050610e97565b5f60075f8381526020019081526020015f20905060016004811115610e6f57610e6e612ecc565b5b815f015f9054906101000a900460ff166004811115610e9157610e90612ecc565b5b14925050505b919050565b610ea4612b7f565b60075f8481526020019081526020015f206005015f8373ffffffffffffffffffffffffffffffffffffffff1673ffffffffffffffffffffffffffffffffffffffff1681526020019081526020015f206040518060800160405290815f820154815260200160018201548152602001600282015f9054906101000a900460ff161515151581526020016002820160019054906101000a900460ff161515151581525050905092915050565b5f5f60075f8581526020019081526020015f2090505f8160030154905080841115610fae576040517f08c379a0000000000000000000000000000000000000000000000000000000008152600401610fa5906133ca565b60405180910390fd5b5f670de0b6b3a764000082610fc39190613415565b90505f670de0b6b3a764000086610fda9190613415565b90505f81836002610feb9190613066565b610ff59190613066565b90505f82836110049190613066565b90505f81836110139190613445565b686c6b935b8bbd4000006110279190613066565b90505f670de0b6b3a7640000600261103f9190613066565b9050808261104d9190613415565b9850505050505050505092915050565b611065612718565b5f73ffffffffffffffffffffffffffffffffffffffff1660055f9054906101000a900473ffffffffffffffffffffffffffffffffffffffff1673ffffffffffffffffffffffffffffffffffffffff16146110f4576040517f08c379a00000000000000000000000000000000000000000000000000000000081526004016110eb906134c2565b60405180910390fd5b8060055f6101000a81548173ffffffffffffffffffffffffffffffffffffffff021916908373ffffffffffffffffffffffffffffffffffffffff16021790555050565b6008602052815f5260405f208181548110611150575f80fd5b905f5260205f20015f91509150505481565b61116a612718565b6111735f61279f565b565b5f5f600a5f8473ffffffffffffffffffffffffffffffffffffffff1673ffffffffffffffffffffffffffffffffffffffff1681526020019081526020015f205490508042109150915091565b600a602052805f5260405f205f915090505481565b5f5f60075f8481526020019081526020015f209050600160048111156111ff576111fe612ecc565b5b815f015f9054906101000a900460ff16600481111561122157611220612ecc565b5b1461122f575f915050611382565b68022b1c8c1227a0000081600201541061124c575f915050611382565b5f816002015468022b1c8c1227a000006112669190613445565b905060025482600301541061127f575f92505050611382565b5f82600301546002546112929190613445565b90505f836003015490505f670de0b6b3a7640000826112b19190613415565b90505f670de0b6b3a7640000846112c89190613415565b90505f818360026112d99190613066565b6112e39190613066565b90505f82836112f29190613066565b90505f670de0b6b3a7640000600261130a9190613066565b8284611316919061311f565b686c6b935b8bbd40000061132a9190613066565b6113349190613415565b90505f8189106113445781611346565b885b90505f6003546004546113599190613445565b600454836113679190613066565b6113719190613415565b9050809b5050505050505050505050505b919050565b686c6b935b8bbd40000081565b5f5f5f9054906101000a900473ffffffffffffffffffffffffffffffffffffffff16905090565b5f5f670de0b6b3a7640000836113d19190613415565b9050670de0b6b3a764000081686c6b935b8bbd4000006113f19190613066565b6113fb9190613415565b915050919050565b60055f9054906101000a900473ffffffffffffffffffffffffffffffffffffffff1673ffffffffffffffffffffffffffffffffffffffff163373ffffffffffffffffffffffffffffffffffffffff1614611492576040517f08c379a000000000000000000000000000000000000000000000000000000000815260040161148990613550565b60405180910390fd5b5f60075f8581526020019081526020015f209050600260048111156114ba576114b9612ecc565b5b815f015f9054906101000a900460ff1660048111156114dc576114db612ecc565b5b1461151c576040517f08c379a0000000000000000000000000000000000000000000000000000000008152600401611513906135de565b60405180910390fd5b6003815f015f6101000a81548160ff0219169083600481111561154257611541612ecc565b5b021790555081816004015f6101000a81548173ffffffffffffffffffffffffffffffffffffffff021916908373ffffffffffffffffffffffffffffffffffffffff1602179055508360095f8573ffffffffffffffffffffffffffffffffffffffff1673ffffffffffffffffffffffffffffffffffffffff1681526020019081526020015f20819055508173ffffffffffffffffffffffffffffffffffffffff168373ffffffffffffffffffffffffffffffffffffffff16857fa50e0b9679f5601c270cdad10a93f0cf7343e8bc4cd12d6c16db0567dc445195846002015460405161162d9190612bbf565b60405180910390a450505050565b5f5f60075f8581526020019081526020015f2090505f816003015490505f8403611669575f9250505061177b565b5f670de0b6b3a76400008261167e9190613415565b90505f686c6b935b8bbd40000090505f82686c6b935b8bbd40000060026116a59190613066565b6116af9190613066565b90505f81826116be9190613066565b90505f88670de0b6b3a7640000686c6b935b8bbd40000060086116e19190613066565b6116eb9190613066565b6116f59190613066565b90505f8183611704919061311f565b90505f61171082612860565b905084811161172a575f995050505050505050505061177b565b5f85826117379190613445565b90505f8760026117479190613066565b90505f81836117569190613415565b9050670de0b6b3a76400008161176c9190613066565b9c505050505050505050505050505b92915050565b68022b1c8c1227a0000081565b60065481565b5f5f5f60075f8581526020019081526020015f209050805f015f9054906101000a900460ff1681600201549250925050915091565b6007602052805f5260405f205f91509050805f015f9054906101000a900460ff1690806001015490806002015490806003015490806004015f9054906101000a900473ffffffffffffffffffffffffffffffffffffffff16908060070154905086565b5f5f60075f8481526020019081526020015f20905062278d008160010154611854919061311f565b4211801561186e575068022b1c8c1227a000008160020154105b915050919050565b60035481565b60055f9054906101000a900473ffffffffffffffffffffffffffffffffffffffff1681565b6118a9612718565b81600381905550806004819055507fa30569950bb598ed8c92d36b49faae45e5cebba0f03647831e801b95cae04b3c82826040516118e89291906135fc565b60405180910390a15050565b6118fc6126c9565b5f60075f8481526020019081526020015f2090506001600481111561192457611923612ecc565b5b815f015f9054906101000a900460ff16600481111561194657611945612ecc565b5b14611986576040517f08c379a000000000000000000000000000000000000000000000000000000000815260040161197d9061366d565b60405180910390fd5b62278d008160010154611999919061311f565b4211156119db576040517f08c379a00000000000000000000000000000000000000000000000000000000081526004016119d2906136d5565b60405180910390fd5b5f8211611a1d576040517f08c379a0000000000000000000000000000000000000000000000000000000008152600401611a149061373d565b60405180910390fd5b73c190e6f26ce14e40d30251fde25927a73a5d58b673ffffffffffffffffffffffffffffffffffffffff166323b872dd3330856040518463ffffffff1660e01b8152600401611a6e9392919061375b565b6020604051808303815f875af1158015611a8a573d5f5f3e3d5ffd5b505050506040513d601f19601f82011682018060405250810190611aae91906137ba565b505f60045460035484611ac19190613066565b611acb9190613415565b90505f8184611ada9190613445565b90505f611ae7868361163b565b90505f8111611b2b576040517f08c379a0000000000000000000000000000000000000000000000000000000008152600401611b229061382f565b60405180910390fd5b600254818560030154611b3e919061311f565b1115611b7f576040517f08c379a0000000000000000000000000000000000000000000000000000000008152600401611b7690613897565b60405180910390fd5b5f831115611c6e5773c190e6f26ce14e40d30251fde25927a73a5d58b673ffffffffffffffffffffffffffffffffffffffff1663a9059cbb611bbf611394565b856040518363ffffffff1660e01b8152600401611bdd9291906138b5565b6020604051808303815f875af1158015611bf9573d5f5f3e3d5ffd5b505050506040513d601f19601f82011682018060405250810190611c1d91906137ba565b503373ffffffffffffffffffffffffffffffffffffffff16867f6f125bf8171b68b20f1b35b7783bcadd05ce66efeb4e38768a9ddcb1092255d185604051611c659190613926565b60405180910390a35b5f846005015f3373ffffffffffffffffffffffffffffffffffffffff1673ffffffffffffffffffffffffffffffffffffffff1681526020019081526020015f20905082815f015f828254611cc2919061311f565b9250508190555081816001015f828254611cdc919061311f565b9250508190555081856003015f828254611cf6919061311f565b9250508190555082856002015f828254611d10919061311f565b9250508190555081856006015f3373ffffffffffffffffffffffffffffffffffffffff1673ffffffffffffffffffffffffffffffffffffffff1681526020019081526020015f205f828254611d65919061311f565b925050819055503373ffffffffffffffffffffffffffffffffffffffff16877ff5882f2b24a419b3c13b05df32cf16a803f2fa76ec81659cdb868658816d424988604051611db39190612bbf565b60405180910390a368022b1c8c1227a00000856002015410611dd957611dd8876128d1565b5b5050505050611de661270f565b5050565b5f5f73ffffffffffffffffffffffffffffffffffffffff168273ffffffffffffffffffffffffffffffffffffffff1614611e6757611e2782610919565b611e66576040517f08c379a0000000000000000000000000000000000000000000000000000000008152600401611e5d906139c2565b60405180910390fd5b5b60055f9054906101000a900473ffffffffffffffffffffffffffffffffffffffff1673ffffffffffffffffffffffffffffffffffffffff163373ffffffffffffffffffffffffffffffffffffffff1614611ef6576040517f08c379a0000000000000000000000000000000000000000000000000000000008152600401611eed90613a50565b60405180910390fd5b60065f815480929190611f0890613a6e565b91905055505f60075f60065481526020019081526020015f2090506001815f015f6101000a81548160ff02191690836004811115611f4957611f48612ecc565b5b021790555042816001018190555042816007018190555060085f8473ffffffffffffffffffffffffffffffffffffffff1673ffffffffffffffffffffffffffffffffffffffff1681526020019081526020015f20600654908060018154018082558091505060019003905f5260205f20015f90919091909150558273ffffffffffffffffffffffffffffffffffffffff166006547fb6948299ea38c9d5ac9f98be169b0bff6eb2bf98881811a8518b8115731a7ebe4262278d004261200e919061311f565b60405161201c9291906135fc565b60405180910390a3600654915050919050565b6009602052805f5260405f205f915090505481565b670de0b6b3a764000081565b6120586126c9565b5f811161209a576040517f08c379a000000000000000000000000000000000000000000000000000000000815260040161209190613aff565b60405180910390fd5b8060075f8481526020019081526020015f206006015f3373ffffffffffffffffffffffffffffffffffffffff1673ffffffffffffffffffffffffffffffffffffffff1681526020019081526020015f2054101561212c576040517f08c379a000000000000000000000000000000000000000000000000000000000815260040161212390613b67565b60405180910390fd5b5f60075f8481526020019081526020015f2090505f61214b8484610f4e565b90505f6004546003548361215f9190613066565b6121699190613415565b90505f81836121789190613445565b90508273c190e6f26ce14e40d30251fde25927a73a5d58b673ffffffffffffffffffffffffffffffffffffffff166370a08231306040518263ffffffff1660e01b81526004016121c89190612cf8565b602060405180830381865afa1580156121e3573d5f5f3e3d5ffd5b505050506040513d601f19601f820116820180604052508101906122079190613b99565b1015612248576040517f08c379a000000000000000000000000000000000000000000000000000000000815260040161223f90613c0e565b60405180910390fd5b5f8211156123375773c190e6f26ce14e40d30251fde25927a73a5d58b673ffffffffffffffffffffffffffffffffffffffff1663a9059cbb612288611394565b846040518363ffffffff1660e01b81526004016122a69291906138b5565b6020604051808303815f875af11580156122c2573d5f5f3e3d5ffd5b505050506040513d601f19601f820116820180604052508101906122e691906137ba565b503373ffffffffffffffffffffffffffffffffffffffff16867f6f125bf8171b68b20f1b35b7783bcadd05ce66efeb4e38768a9ddcb1092255d18460405161232e9190613c76565b60405180910390a35b84846006015f3373ffffffffffffffffffffffffffffffffffffffff1673ffffffffffffffffffffffffffffffffffffffff1681526020019081526020015f205f8282546123859190613445565b9250508190555084846003015f82825461239f9190613445565b9250508190555082846002015f8282546123b99190613445565b9250508190555073c190e6f26ce14e40d30251fde25927a73a5d58b673ffffffffffffffffffffffffffffffffffffffff1663a9059cbb33836040518363ffffffff1660e01b815260040161240f9291906138b5565b6020604051808303815f875af115801561242b573d5f5f3e3d5ffd5b505050506040513d601f19601f8201168201806040525081019061244f91906137ba565b503373ffffffffffffffffffffffffffffffffffffffff16867ff37a75478aa82ebef98fa4a7c71324f93c6c5d6236ba80a86ed5f703dc55203887846040516124999291906135fc565b60405180910390a3505050506124ad61270f565b5050565b62278d0081565b6124c0612718565b5f73ffffffffffffffffffffffffffffffffffffffff168173ffffffffffffffffffffffffffffffffffffffff1603612530575f6040517f1e4fbdf70000000000000000000000000000000000000000000000000000000081526004016125279190612cf8565b60405180910390fd5b6125398161279f565b50565b5f5f60085f8473ffffffffffffffffffffffffffffffffffffffff1673ffffffffffffffffffffffffffffffffffffffff1681526020019081526020015f208054806020026020016040519081016040528092919081815260200182805480156125c357602002820191905f5260205f20905b8154815260200190600101908083116125af575b505050505090505f5f90505b81518110156126be57600360048111156125ec576125eb612ecc565b5b60075f84848151811061260257612601613ca2565b5b602002602001015181526020019081526020015f205f015f9054906101000a900460ff16600481111561263857612637612ecc565b5b14806126a157506001600481111561265357612652612ecc565b5b60075f84848151811061266957612668613ca2565b5b602002602001015181526020019081526020015f205f015f9054906101000a900460ff16600481111561269f5761269e612ecc565b5b145b156126b1576001925050506126c4565b80806001019150506125cf565b505f9150505b919050565b600260015403612705576040517f3ee5aeb500000000000000000000000000000000000000000000000000000000815260040160405180910390fd5b6002600181905550565b60018081905550565b612720612b78565b73ffffffffffffffffffffffffffffffffffffffff1661273e611394565b73ffffffffffffffffffffffffffffffffffffffff161461279d57612761612b78565b6040517f118cdaa70000000000000000000000000000000000000000000000000000000081526004016127949190612cf8565b60405180910390fd5b565b5f5f5f9054906101000a900473ffffffffffffffffffffffffffffffffffffffff169050815f5f6101000a81548173ffffffffffffffffffffffffffffffffffffffff021916908373ffffffffffffffffffffffffffffffffffffffff1602179055508173ffffffffffffffffffffffffffffffffffffffff168173ffffffffffffffffffffffffffffffffffffffff167f8be0079c531659141344cd1fd0a4f28419497f9722a3daafe3b4186f6b6457e060405160405180910390a35050565b5f5f8203612870575f90506128cc565b5f6002600184612880919061311f565b61288a9190613415565b90505f8390505b808210156128c65781905060028283866128ab9190613415565b6128b5919061311f565b6128bf9190613415565b9150612891565b80925050505b919050565b5f60075f8381526020019081526020015f209050600160048111156128f9576128f8612ecc565b5b815f015f9054906101000a900460ff16600481111561291b5761291a612ecc565b5b1461295b576040517f08c379a000000000000000000000000000000000000000000000000000000000815260040161295290613d19565b60405180910390fd5b5f816003015490505f61296d826113bb565b90505f81116129b1576040517f08c379a00000000000000000000000000000000000000000000000000000000081526004016129a890613d81565b60405180910390fd5b5f81670de0b6b3a764000068022b1c8c1227a000006129d09190613066565b6129da9190613415565b90505f83670de0b6b3a7640000630bebc2006129f69190613066565b612a009190613445565b905080821115612a0e578091505b6003855f015f6101000a81548160ff02191690836004811115612a3457612a33612ecc565b5b02179055505f60055f9054906101000a900473ffffffffffffffffffffffffffffffffffffffff1673ffffffffffffffffffffffffffffffffffffffff168660020154604051612a8390613304565b5f6040518083038185875af1925050503d805f8114612abd576040519150601f19603f3d011682016040523d82523d5f602084013e612ac2565b606091505b5050905080612b06576040517f08c379a0000000000000000000000000000000000000000000000000000000008152600401612afd90613362565b60405180910390fd5b6002865f015f6101000a81548160ff02191690836004811115612b2c57612b2b612ecc565b5b0217905550867f1a7333d4a8e3da2ea5a9db3d4c061100dd99472e61af794621abdbbd680214e1876002015485604051612b679291906135fc565b60405180910390a250505050505050565b5f33905090565b60405180608001604052805f81526020015f81526020015f151581526020015f151581525090565b5f819050919050565b612bb981612ba7565b82525050565b5f602082019050612bd25f830184612bb0565b92915050565b5f5ffd5b5f73ffffffffffffffffffffffffffffffffffffffff82169050919050565b5f612c0582612bdc565b9050919050565b612c1581612bfb565b8114612c1f575f5ffd5b50565b5f81359050612c3081612c0c565b92915050565b5f60208284031215612c4b57612c4a612bd8565b5b5f612c5884828501612c22565b91505092915050565b5f8115159050919050565b612c7581612c61565b82525050565b5f602082019050612c8e5f830184612c6c565b92915050565b612c9d81612ba7565b8114612ca7575f5ffd5b50565b5f81359050612cb881612c94565b92915050565b5f60208284031215612cd357612cd2612bd8565b5b5f612ce084828501612caa565b91505092915050565b612cf281612bfb565b82525050565b5f602082019050612d0b5f830184612ce9565b92915050565b5f5f60408385031215612d2757612d26612bd8565b5b5f612d3485828601612caa565b9250506020612d4585828601612c22565b9150509250929050565b612d5881612ba7565b82525050565b612d6781612c61565b82525050565b608082015f820151612d815f850182612d4f565b506020820151612d946020850182612d4f565b506040820151612da76040850182612d5e565b506060820151612dba6060850182612d5e565b50505050565b5f608082019050612dd35f830184612d6d565b92915050565b5f5f60408385031215612def57612dee612bd8565b5b5f612dfc85828601612caa565b9250506020612e0d85828601612caa565b9150509250929050565b5f5f60408385031215612e2d57612e2c612bd8565b5b5f612e3a85828601612c22565b9250506020612e4b85828601612caa565b9150509250929050565b5f604082019050612e685f830185612c6c565b612e756020830184612bb0565b9392505050565b5f5f5f60608486031215612e9357612e92612bd8565b5b5f612ea086828701612caa565b9350506020612eb186828701612c22565b9250506040612ec286828701612c22565b9150509250925092565b7f4e487b71000000000000000000000000000000000000000000000000000000005f52602160045260245ffd5b60058110612f0a57612f09612ecc565b5b50565b5f819050612f1a82612ef9565b919050565b5f612f2982612f0d565b9050919050565b612f3981612f1f565b82525050565b5f604082019050612f525f830185612f30565b612f5f6020830184612bb0565b9392505050565b5f60c082019050612f795f830189612f30565b612f866020830188612bb0565b612f936040830187612bb0565b612fa06060830186612bb0565b612fad6080830185612ce9565b612fba60a0830184612bb0565b979650505050505050565b5f819050919050565b5f612fe8612fe3612fde84612bdc565b612fc5565b612bdc565b9050919050565b5f612ff982612fce565b9050919050565b5f61300a82612fef565b9050919050565b61301a81613000565b82525050565b5f6020820190506130335f830184613011565b92915050565b7f4e487b71000000000000000000000000000000000000000000000000000000005f52601160045260245ffd5b5f61307082612ba7565b915061307b83612ba7565b925082820261308981612ba7565b915082820484148315176130a05761309f613039565b5b5092915050565b5f82825260208201905092915050565b7f46616972206c61756e6368206e6f74206661696c6564000000000000000000005f82015250565b5f6130eb6016836130a7565b91506130f6826130b7565b602082019050919050565b5f6020820190508181035f830152613118816130df565b9050919050565b5f61312982612ba7565b915061313483612ba7565b925082820190508082111561314c5761314b613039565b5b92915050565b5f8151905061316081612c0c565b92915050565b5f6020828403121561317b5761317a612bd8565b5b5f61318884828501613152565b91505092915050565b7f4661696c65642066616972206c61756e636800000000000000000000000000005f82015250565b5f6131c56012836130a7565b91506131d082613191565b602082019050919050565b5f6040820190506131ee5f830184612bb0565b81810360208301526131ff816131b9565b905092915050565b7f4e6f20636f6d6d69746d656e74000000000000000000000000000000000000005f82015250565b5f61323b600d836130a7565b915061324682613207565b602082019050919050565b5f6020820190508181035f8301526132688161322f565b9050919050565b7f416c726561647920726566756e646564000000000000000000000000000000005f82015250565b5f6132a36010836130a7565b91506132ae8261326f565b602082019050919050565b5f6020820190508181035f8301526132d081613297565b9050919050565b5f81905092915050565b50565b5f6132ef5f836132d7565b91506132fa826132e1565b5f82019050919050565b5f61330e826132e4565b9150819050919050565b7f5472616e73666572206661696c656400000000000000000000000000000000005f82015250565b5f61334c600f836130a7565b915061335782613318565b602082019050919050565b5f6020820190508181035f83015261337981613340565b9050919050565b7f64656c7461203e207300000000000000000000000000000000000000000000005f82015250565b5f6133b46009836130a7565b91506133bf82613380565b602082019050919050565b5f6020820190508181035f8301526133e1816133a8565b9050919050565b7f4e487b71000000000000000000000000000000000000000000000000000000005f52601260045260245ffd5b5f61341f82612ba7565b915061342a83612ba7565b92508261343a576134396133e8565b5b828204905092915050565b5f61344f82612ba7565b915061345a83612ba7565b925082820390508181111561347257613471613039565b5b92915050565b7f466163746f727920616c726561647920736574000000000000000000000000005f82015250565b5f6134ac6013836130a7565b91506134b782613478565b602082019050919050565b5f6020820190508181035f8301526134d9816134a0565b9050919050565b7f4f6e6c7920666163746f72792063616e2063616c6c20746869732066756e63745f8201527f696f6e0000000000000000000000000000000000000000000000000000000000602082015250565b5f61353a6023836130a7565b9150613545826134e0565b604082019050919050565b5f6020820190508181035f8301526135678161352e565b9050919050565b7f46616972206c61756e6368206e6f7420726561647920746f20636f6d706c65745f8201527f6500000000000000000000000000000000000000000000000000000000000000602082015250565b5f6135c86021836130a7565b91506135d38261356e565b604082019050919050565b5f6020820190508181035f8301526135f5816135bc565b9050919050565b5f60408201905061360f5f830185612bb0565b61361c6020830184612bb0565b9392505050565b7f46616972206c61756e6368206e6f7420616374697665000000000000000000005f82015250565b5f6136576016836130a7565b915061366282613623565b602082019050919050565b5f6020820190508181035f8301526136848161364b565b9050919050565b7f46616972206c61756e636820656e6465640000000000000000000000000000005f82015250565b5f6136bf6011836130a7565b91506136ca8261368b565b602082019050919050565b5f6020820190508181035f8301526136ec816136b3565b9050919050565b7f4d7573742073656e6420455448000000000000000000000000000000000000005f82015250565b5f613727600d836130a7565b9150613732826136f3565b602082019050919050565b5f6020820190508181035f8301526137548161371b565b9050919050565b5f60608201905061376e5f830186612ce9565b61377b6020830185612ce9565b6137886040830184612bb0565b949350505050565b61379981612c61565b81146137a3575f5ffd5b50565b5f815190506137b481613790565b92915050565b5f602082840312156137cf576137ce612bd8565b5b5f6137dc848285016137a6565b91505092915050565b7f496e73756666696369656e7420455448000000000000000000000000000000005f82015250565b5f6138196010836130a7565b9150613824826137e5565b602082019050919050565b5f6020820190508181035f8301526138468161380d565b9050919050565b7f4578636565647320696e697469616c20737570706c79000000000000000000005f82015250565b5f6138816016836130a7565b915061388c8261384d565b602082019050919050565b5f6020820190508181035f8301526138ae81613875565b9050919050565b5f6040820190506138c85f830185612ce9565b6138d56020830184612bb0565b9392505050565b7f62757900000000000000000000000000000000000000000000000000000000005f82015250565b5f6139106003836130a7565b915061391b826138dc565b602082019050919050565b5f6040820190506139395f830184612bb0565b818103602083015261394a81613904565b905092915050565b7f43726561746f7220697320626c6f636b6564206f7220616c72656164792068615f8201527f73206120746f6b656e0000000000000000000000000000000000000000000000602082015250565b5f6139ac6029836130a7565b91506139b782613952565b604082019050919050565b5f6020820190508181035f8301526139d9816139a0565b9050919050565b7f4f6e6c7920666163746f72792063616e2073746172742066616972206c61756e5f8201527f6368000000000000000000000000000000000000000000000000000000000000602082015250565b5f613a3a6022836130a7565b9150613a45826139e0565b604082019050919050565b5f6020820190508181035f830152613a6781613a2e565b9050919050565b5f613a7882612ba7565b91507fffffffffffffffffffffffffffffffffffffffffffffffffffffffffffffffff8203613aaa57613aa9613039565b5b600182019050919050565b7f416d6f756e74206d75737420626520706f7369746976650000000000000000005f82015250565b5f613ae96017836130a7565b9150613af482613ab5565b602082019050919050565b5f6020820190508181035f830152613b1681613add565b9050919050565b7f496e73756666696369656e7420746f6b656e2062616c616e63650000000000005f82015250565b5f613b51601a836130a7565b9150613b5c82613b1d565b602082019050919050565b5f6020820190508181035f830152613b7e81613b45565b9050919050565b5f81519050613b9381612c94565b92915050565b5f60208284031215613bae57613bad612bd8565b5b5f613bbb84828501613b85565b91505092915050565b7f496e73756666696369656e742045544820696e20636f6e7472616374000000005f82015250565b5f613bf8601c836130a7565b9150613c0382613bc4565b602082019050919050565b5f6020820190508181035f830152613c2581613bec565b9050919050565b7f73656c6c000000000000000000000000000000000000000000000000000000005f82015250565b5f613c606004836130a7565b9150613c6b82613c2c565b602082019050919050565b5f604082019050613c895f830184612bb0565b8181036020830152613c9a81613c54565b905092915050565b7f4e487b71000000000000000000000000000000000000000000000000000000005f52603260045260245ffd5b7f46616972206c61756e6368206e6f74206c61756e6368696e67000000000000005f82015250565b5f613d036019836130a7565b9150613d0e82613ccf565b602082019050919050565b5f6020820190508181035f830152613d3081613cf7565b9050919050565b7f7072696365207a65726f000000000000000000000000000000000000000000005f82015250565b5f613d6b600a836130a7565b9150613d7682613d37565b602082019050919050565b5f6020820190508181035f830152613d9881613d5f565b905091905056fea2646970667358221220325d0d609eb06e728977458f2beb75572b6c316531056b381a4c909dab04566764736f6c634300081c0033",
  "linkReferences": {},
  "deployedLinkReferences": {},
  "immutableReferences": {},
  "inputSourceName": "project/contracts/MemedTokenSale_test.sol",
  "buildInfoId": "solc-0_8_28-93d9282ca9660b43a4fc087c3315badefa69cf48"
}