{
  "_format": "hh3-artifact-1",
  "contractName": "MemedToken",
  "sourceName": "contracts/MemedToken.sol",
  "abi": [
    {
      "inputs": [
        {
          "internalType": "string",
          "name": "_name",
          "type": "string"
        },
        {
          "internalType": "string",
          "name": "_ticker",
          "type": "string"
        },
        {
          "internalType": "address",
          "name": "_creator",
          "type": "address"
        },
        {
          "internalType": "address",
          "name": "_factoryContract",
          "type": "address"
        },
        {
          "internalType": "address",
          "name": "_engageToEarnContract",
          "type": "address"
        }
      ],
      "stateMutability": "nonpayable",
      "type": "constructor"
    },
    {
      "inputs": [
        {
          "internalType": "address",
          "name": "spender",
          "type": "address"
        },
        {
          "internalType": "uint256",
          "name": "allowance",
          "type": "uint256"
        },
        {
          "internalType": "uint256",
          "name": "needed",
          "type": "uint256"
        }
      ],
      "name": "ERC20InsufficientAllowance",
      "type": "error"
    },
    {
      "inputs": [
        {
          "internalType": "address",
          "name": "sender",
          "type": "address"
        },
        {
          "internalType": "uint256",
          "name": "balance",
          "type": "uint256"
        },
        {
          "internalType": "uint256",
          "name": "needed",
          "type": "uint256"
        }
      ],
      "name": "ERC20InsufficientBalance",
      "type": "error"
    },
    {
      "inputs": [
        {
          "internalType": "address",
          "name": "approver",
          "type": "address"
        }
      ],
      "name": "ERC20InvalidApprover",
      "type": "error"
    },
    {
      "inputs": [
        {
          "internalType": "address",
          "name": "receiver",
          "type": "address"
        }
      ],
      "name": "ERC20InvalidReceiver",
      "type": "error"
    },
    {
      "inputs": [
        {
          "internalType": "address",
          "name": "sender",
          "type": "address"
        }
      ],
      "name": "ERC20InvalidSender",
      "type": "error"
    },
    {
      "inputs": [
        {
          "internalType": "address",
          "name": "spender",
          "type": "address"
        }
      ],
      "name": "ERC20InvalidSpender",
      "type": "error"
    },
    {
      "inputs": [
        {
          "internalType": "address",
          "name": "owner",
          "type": "address"
        }
      ],
      "name": "OwnableInvalidOwner",
      "type": "error"
    },
    {
      "inputs": [
        {
          "internalType": "address",
          "name": "account",
          "type": "address"
        }
      ],
      "name": "OwnableUnauthorizedAccount",
      "type": "error"
    },
    {
      "anonymous": false,
      "inputs": [
        {
          "indexed": true,
          "internalType": "address",
          "name": "owner",
          "type": "address"
        },
        {
          "indexed": true,
          "internalType": "address",
          "name": "spender",
          "type": "address"
        },
        {
          "indexed": false,
          "internalType": "uint256",
          "name": "value",
          "type": "uint256"
        }
      ],
      "name": "Approval",
      "type": "event"
    },
    {
      "anonymous": false,
      "inputs": [
        {
          "indexed": false,
          "internalType": "uint256",
          "name": "amount",
          "type": "uint256"
        }
      ],
      "name": "CreatorIncentivesClaimed",
      "type": "event"
    },
    {
      "anonymous": false,
      "inputs": [
        {
          "indexed": false,
          "internalType": "uint256",
          "name": "amount",
          "type": "uint256"
        }
      ],
      "name": "CreatorIncentivesUnlocked",
      "type": "event"
    },
    {
      "anonymous": false,
      "inputs": [
        {
          "indexed": false,
          "internalType": "uint256",
          "name": "amount",
          "type": "uint256"
        }
      ],
      "name": "LpAllocated",
      "type": "event"
    },
    {
      "anonymous": false,
      "inputs": [
        {
          "indexed": true,
          "internalType": "address",
          "name": "previousOwner",
          "type": "address"
        },
        {
          "indexed": true,
          "internalType": "address",
          "name": "newOwner",
          "type": "address"
        }
      ],
      "name": "OwnershipTransferred",
      "type": "event"
    },
    {
      "anonymous": false,
      "inputs": [
        {
          "indexed": true,
          "internalType": "address",
          "name": "from",
          "type": "address"
        },
        {
          "indexed": true,
          "internalType": "address",
          "name": "to",
          "type": "address"
        },
        {
          "indexed": false,
          "internalType": "uint256",
          "name": "value",
          "type": "uint256"
        }
      ],
      "name": "Transfer",
      "type": "event"
    },
    {
      "inputs": [],
      "name": "CREATOR_INCENTIVES_ALLOCATION",
      "outputs": [
        {
          "internalType": "uint256",
          "name": "",
          "type": "uint256"
        }
      ],
      "stateMutability": "view",
      "type": "function"
    },
    {
      "inputs": [],
      "name": "CREATOR_INITIAL_ALLOCATION",
      "outputs": [
        {
          "internalType": "uint256",
          "name": "",
          "type": "uint256"
        }
      ],
      "stateMutability": "view",
      "type": "function"
    },
    {
      "inputs": [],
      "name": "CREATOR_INITIAL_ALLOCATION_PER_UNLOCK",
      "outputs": [
        {
          "internalType": "uint256",
          "name": "",
          "type": "uint256"
        }
      ],
      "stateMutability": "view",
      "type": "function"
    },
    {
      "inputs": [],
      "name": "ENGAGEMENT_REWARDS_ALLOCATION",
      "outputs": [
        {
          "internalType": "uint256",
          "name": "",
          "type": "uint256"
        }
      ],
      "stateMutability": "view",
      "type": "function"
    },
    {
      "inputs": [],
      "name": "FAIR_LAUNCH_ALLOCATION",
      "outputs": [
        {
          "internalType": "uint256",
          "name": "",
          "type": "uint256"
        }
      ],
      "stateMutability": "view",
      "type": "function"
    },
    {
      "inputs": [],
      "name": "LP_ALLOCATION",
      "outputs": [
        {
          "internalType": "uint256",
          "name": "",
          "type": "uint256"
        }
      ],
      "stateMutability": "view",
      "type": "function"
    },
    {
      "inputs": [],
      "name": "MAX_SUPPLY",
      "outputs": [
        {
          "internalType": "uint256",
          "name": "",
          "type": "uint256"
        }
      ],
      "stateMutability": "view",
      "type": "function"
    },
    {
      "inputs": [],
      "name": "allocateLp",
      "outputs": [],
      "stateMutability": "nonpayable",
      "type": "function"
    },
    {
      "inputs": [
        {
          "internalType": "address",
          "name": "owner",
          "type": "address"
        },
        {
          "internalType": "address",
          "name": "spender",
          "type": "address"
        }
      ],
      "name": "allowance",
      "outputs": [
        {
          "internalType": "uint256",
          "name": "",
          "type": "uint256"
        }
      ],
      "stateMutability": "view",
      "type": "function"
    },
    {
      "inputs": [
        {
          "internalType": "address",
          "name": "spender",
          "type": "address"
        },
        {
          "internalType": "uint256",
          "name": "value",
          "type": "uint256"
        }
      ],
      "name": "approve",
      "outputs": [
        {
          "internalType": "bool",
          "name": "",
          "type": "bool"
        }
      ],
      "stateMutability": "nonpayable",
      "type": "function"
    },
    {
      "inputs": [
        {
          "internalType": "address",
          "name": "account",
          "type": "address"
        }
      ],
      "name": "balanceOf",
      "outputs": [
        {
          "internalType": "uint256",
          "name": "",
          "type": "uint256"
        }
      ],
      "stateMutability": "view",
      "type": "function"
    },
    {
      "inputs": [
        {
          "internalType": "address",
          "name": "to",
          "type": "address"
        },
        {
          "internalType": "uint256",
          "name": "amount",
          "type": "uint256"
        }
      ],
      "name": "claim",
      "outputs": [],
      "stateMutability": "nonpayable",
      "type": "function"
    },
    {
      "inputs": [],
      "name": "claimCreatorIncentives",
      "outputs": [],
      "stateMutability": "nonpayable",
      "type": "function"
    },
    {
      "inputs": [],
      "name": "creatorData",
      "outputs": [
        {
          "internalType": "address",
          "name": "creator",
          "type": "address"
        },
        {
          "internalType": "uint256",
          "name": "balance",
          "type": "uint256"
        },
        {
          "internalType": "uint256",
          "name": "unlockedBalance",
          "type": "uint256"
        }
      ],
      "stateMutability": "view",
      "type": "function"
    },
    {
      "inputs": [],
      "name": "decimals",
      "outputs": [
        {
          "internalType": "uint8",
          "name": "",
          "type": "uint8"
        }
      ],
      "stateMutability": "view",
      "type": "function"
    },
    {
      "inputs": [],
      "name": "engageToEarnContract",
      "outputs": [
        {
          "internalType": "address",
          "name": "",
          "type": "address"
        }
      ],
      "stateMutability": "view",
      "type": "function"
    },
    {
      "inputs": [],
      "name": "factoryContract",
      "outputs": [
        {
          "internalType": "address",
          "name": "",
          "type": "address"
        }
      ],
      "stateMutability": "view",
      "type": "function"
    },
    {
      "inputs": [],
      "name": "isLpAllocated",
      "outputs": [
        {
          "internalType": "bool",
          "name": "",
          "type": "bool"
        }
      ],
      "stateMutability": "view",
      "type": "function"
    },
    {
      "inputs": [],
      "name": "isRewardable",
      "outputs": [
        {
          "internalType": "bool",
          "name": "",
          "type": "bool"
        }
      ],
      "stateMutability": "view",
      "type": "function"
    },
    {
      "inputs": [],
      "name": "name",
      "outputs": [
        {
          "internalType": "string",
          "name": "",
          "type": "string"
        }
      ],
      "stateMutability": "view",
      "type": "function"
    },
    {
      "inputs": [],
      "name": "owner",
      "outputs": [
        {
          "internalType": "address",
          "name": "",
          "type": "address"
        }
      ],
      "stateMutability": "view",
      "type": "function"
    },
    {
      "inputs": [],
      "name": "renounceOwnership",
      "outputs": [],
      "stateMutability": "nonpayable",
      "type": "function"
    },
    {
      "inputs": [],
      "name": "symbol",
      "outputs": [
        {
          "internalType": "string",
          "name": "",
          "type": "string"
        }
      ],
      "stateMutability": "view",
      "type": "function"
    },
    {
      "inputs": [],
      "name": "totalSupply",
      "outputs": [
        {
          "internalType": "uint256",
          "name": "",
          "type": "uint256"
        }
      ],
      "stateMutability": "view",
      "type": "function"
    },
    {
      "inputs": [
        {
          "internalType": "address",
          "name": "to",
          "type": "address"
        },
        {
          "internalType": "uint256",
          "name": "value",
          "type": "uint256"
        }
      ],
      "name": "transfer",
      "outputs": [
        {
          "internalType": "bool",
          "name": "",
          "type": "bool"
        }
      ],
      "stateMutability": "nonpayable",
      "type": "function"
    },
    {
      "inputs": [
        {
          "internalType": "address",
          "name": "from",
          "type": "address"
        },
        {
          "internalType": "address",
          "name": "to",
          "type": "address"
        },
        {
          "internalType": "uint256",
          "name": "value",
          "type": "uint256"
        }
      ],
      "name": "transferFrom",
      "outputs": [
        {
          "internalType": "bool",
          "name": "",
          "type": "bool"
        }
      ],
      "stateMutability": "nonpayable",
      "type": "function"
    },
    {
      "inputs": [
        {
          "internalType": "address",
          "name": "newOwner",
          "type": "address"
        }
      ],
      "name": "transferOwnership",
      "outputs": [],
      "stateMutability": "nonpayable",
      "type": "function"
    },
    {
      "inputs": [],
      "name": "unlockCreatorIncentives",
      "outputs": [],
      "stateMutability": "nonpayable",
      "type": "function"
    }
  ],
  "bytecode": "0x608060405234801561000f575f5ffd5b506040516129cf3803806129cf83398181016040528101906100319190610763565b33858581600390816100439190610a22565b5080600490816100539190610a22565b5050505f73ffffffffffffffffffffffffffffffffffffffff168173ffffffffffffffffffffffffffffffffffffffff16036100c6575f6040517f1e4fbdf70000000000000000000000000000000000000000000000000000000081526004016100bd9190610b00565b60405180910390fd5b6100d58161025b60201b60201c565b508260085f015f6101000a81548173ffffffffffffffffffffffffffffffffffffffff021916908373ffffffffffffffffffffffffffffffffffffffff160217905550606460466aa56fa5b99019a5c80000006101329190610b46565b61013c9190610bb4565b6008600101819055508160075f6101000a81548173ffffffffffffffffffffffffffffffffffffffff021916908373ffffffffffffffffffffffffffffffffffffffff1602179055508060065f6101000a81548173ffffffffffffffffffffffffffffffffffffffff021916908373ffffffffffffffffffffffffffffffffffffffff16021790555061020260065f9054906101000a900473ffffffffffffffffffffffffffffffffffffffff166b019d971e4fe8401e7400000061031e60201b60201c565b5f73ffffffffffffffffffffffffffffffffffffffff168373ffffffffffffffffffffffffffffffffffffffff161461025157610250836a295be96e6406697200000061031e60201b60201c565b5b5050505050610c74565b5f60055f9054906101000a900473ffffffffffffffffffffffffffffffffffffffff1690508160055f6101000a81548173ffffffffffffffffffffffffffffffffffffffff021916908373ffffffffffffffffffffffffffffffffffffffff1602179055508173ffffffffffffffffffffffffffffffffffffffff168173ffffffffffffffffffffffffffffffffffffffff167f8be0079c531659141344cd1fd0a4f28419497f9722a3daafe3b4186f6b6457e060405160405180910390a35050565b5f73ffffffffffffffffffffffffffffffffffffffff168273ffffffffffffffffffffffffffffffffffffffff160361038e575f6040517fec442f050000000000000000000000000000000000000000000000000000000081526004016103859190610b00565b60405180910390fd5b61039f5f83836103a360201b60201c565b5050565b5f73ffffffffffffffffffffffffffffffffffffffff168373ffffffffffffffffffffffffffffffffffffffff16036103f3578060025f8282546103e79190610be4565b925050819055506104c1565b5f5f5f8573ffffffffffffffffffffffffffffffffffffffff1673ffffffffffffffffffffffffffffffffffffffff1681526020019081526020015f205490508181101561047c578381836040517fe450d38c00000000000000000000000000000000000000000000000000000000815260040161047393929190610c26565b60405180910390fd5b8181035f5f8673ffffffffffffffffffffffffffffffffffffffff1673ffffffffffffffffffffffffffffffffffffffff1681526020019081526020015f2081905550505b5f73ffffffffffffffffffffffffffffffffffffffff168273ffffffffffffffffffffffffffffffffffffffff1603610508578060025f8282540392505081905550610552565b805f5f8473ffffffffffffffffffffffffffffffffffffffff1673ffffffffffffffffffffffffffffffffffffffff1681526020019081526020015f205f82825401925050819055505b8173ffffffffffffffffffffffffffffffffffffffff168373ffffffffffffffffffffffffffffffffffffffff167fddf252ad1be2c89b69c2b068fc378daa952ba7f163c4a11628f55a4df523b3ef836040516105af9190610c5b565b60405180910390a3505050565b5f604051905090565b5f5ffd5b5f5ffd5b5f5ffd5b5f5ffd5b5f601f19601f8301169050919050565b7f4e487b71000000000000000000000000000000000000000000000000000000005f52604160045260245ffd5b61061b826105d5565b810181811067ffffffffffffffff8211171561063a576106396105e5565b5b80604052505050565b5f61064c6105bc565b90506106588282610612565b919050565b5f67ffffffffffffffff821115610677576106766105e5565b5b610680826105d5565b9050602081019050919050565b8281835e5f83830152505050565b5f6106ad6106a88461065d565b610643565b9050828152602081018484840111156106c9576106c86105d1565b5b6106d484828561068d565b509392505050565b5f82601f8301126106f0576106ef6105cd565b5b815161070084826020860161069b565b91505092915050565b5f73ffffffffffffffffffffffffffffffffffffffff82169050919050565b5f61073282610709565b9050919050565b61074281610728565b811461074c575f5ffd5b50565b5f8151905061075d81610739565b92915050565b5f5f5f5f5f60a0868803121561077c5761077b6105c5565b5b5f86015167ffffffffffffffff811115610799576107986105c9565b5b6107a5888289016106dc565b955050602086015167ffffffffffffffff8111156107c6576107c56105c9565b5b6107d2888289016106dc565b94505060406107e38882890161074f565b93505060606107f48882890161074f565b92505060806108058882890161074f565b9150509295509295909350565b5f81519050919050565b7f4e487b71000000000000000000000000000000000000000000000000000000005f52602260045260245ffd5b5f600282049050600182168061086057607f821691505b6020821081036108735761087261081c565b5b50919050565b5f819050815f5260205f209050919050565b5f6020601f8301049050919050565b5f82821b905092915050565b5f600883026108d57fffffffffffffffffffffffffffffffffffffffffffffffffffffffffffffffff8261089a565b6108df868361089a565b95508019841693508086168417925050509392505050565b5f819050919050565b5f819050919050565b5f61092361091e610919846108f7565b610900565b6108f7565b9050919050565b5f819050919050565b61093c83610909565b6109506109488261092a565b8484546108a6565b825550505050565b5f5f905090565b610967610958565b610972818484610933565b505050565b5b818110156109955761098a5f8261095f565b600181019050610978565b5050565b601f8211156109da576109ab81610879565b6109b48461088b565b810160208510156109c3578190505b6109d76109cf8561088b565b830182610977565b50505b505050565b5f82821c905092915050565b5f6109fa5f19846008026109df565b1980831691505092915050565b5f610a1283836109eb565b9150826002028217905092915050565b610a2b82610812565b67ffffffffffffffff811115610a4457610a436105e5565b5b610a4e8254610849565b610a59828285610999565b5f60209050601f831160018114610a8a575f8415610a78578287015190505b610a828582610a07565b865550610ae9565b601f198416610a9886610879565b5f5b82811015610abf57848901518255600182019150602085019450602081019050610a9a565b86831015610adc5784890151610ad8601f8916826109eb565b8355505b6001600288020188555050505b505050505050565b610afa81610728565b82525050565b5f602082019050610b135f830184610af1565b92915050565b7f4e487b71000000000000000000000000000000000000000000000000000000005f52601160045260245ffd5b5f610b50826108f7565b9150610b5b836108f7565b9250828202610b69816108f7565b91508282048414831517610b8057610b7f610b19565b5b5092915050565b7f4e487b71000000000000000000000000000000000000000000000000000000005f52601260045260245ffd5b5f610bbe826108f7565b9150610bc9836108f7565b925082610bd957610bd8610b87565b5b828204905092915050565b5f610bee826108f7565b9150610bf9836108f7565b9250828201905080821115610c1157610c10610b19565b5b92915050565b610c20816108f7565b82525050565b5f606082019050610c395f830186610af1565b610c466020830185610c17565b610c536040830184610c17565b949350505050565b5f602082019050610c6e5f830184610c17565b92915050565b611d4e80610c815f395ff3fe608060405234801561000f575f5ffd5b50600436106101c2575f3560e01c80638fc857d4116100f7578063cd1b213811610095578063de11c94a1161006f578063de11c94a146104a0578063eab7f50c146104be578063ebda16eb146104dc578063f2fde38b146104fa576101c2565b8063cd1b213814610448578063dd282ae414610466578063dd62ed3e14610470576101c2565b8063a9059cbb116100d1578063a9059cbb146103be578063aad3ec96146103ee578063c350368a1461040a578063c52aa2cf1461042a576101c2565b80638fc857d41461037857806395d89b4114610396578063a431831e146103b4576101c2565b806332cb6b0c1161016457806370a082311161013e57806370a0823114610316578063715018a6146103465780637de48f04146103505780638da5cb5b1461035a576101c2565b806332cb6b0c146102bc578063492aebb9146102da57806358328dbd146102f8576101c2565b806318160ddd116101a057806318160ddd146102325780631a5e3c9d1461025057806323b872dd1461026e578063313ce5671461029e576101c2565b806306fdde03146101c6578063095ea7b3146101e4578063178c99fe14610214575b5f5ffd5b6101ce610516565b6040516101db9190611696565b60405180910390f35b6101fe60048036038101906101f99190611747565b6105a6565b60405161020b919061179f565b60405180910390f35b61021c6105c8565b60405161022991906117c7565b60405180910390f35b61023a6105ed565b60405161024791906117ef565b60405180910390f35b6102586105f6565b60405161026591906117ef565b60405180910390f35b61028860048036038101906102839190611808565b610605565b604051610295919061179f565b60405180910390f35b6102a6610633565b6040516102b39190611873565b60405180910390f35b6102c461063b565b6040516102d191906117ef565b60405180910390f35b6102e261064b565b6040516102ef91906117ef565b60405180910390f35b61030061065a565b60405161030d91906117ef565b60405180910390f35b610330600480360381019061032b919061188c565b610669565b60405161033d91906117ef565b60405180910390f35b61034e6106ae565b005b6103586106c1565b005b610362610835565b60405161036f91906117c7565b60405180910390f35b61038061085d565b60405161038d919061179f565b60405180910390f35b61039e610870565b6040516103ab9190611696565b60405180910390f35b6103bc610900565b005b6103d860048036038101906103d39190611747565b610a56565b6040516103e5919061179f565b60405180910390f35b61040860048036038101906104039190611747565b610a78565b005b610412610c26565b604051610421939291906118b7565b60405180910390f35b610432610c5c565b60405161043f919061179f565b60405180910390f35b610450610c75565b60405161045d91906117ef565b60405180910390f35b61046e610c84565b005b61048a600480360381019061048591906118ec565b610d8f565b60405161049791906117ef565b60405180910390f35b6104a8610e11565b6040516104b591906117c7565b60405180910390f35b6104c6610e36565b6040516104d391906117ef565b60405180910390f35b6104e4610e46565b6040516104f191906117ef565b60405180910390f35b610514600480360381019061050f919061188c565b610e55565b005b60606003805461052590611957565b80601f016020809104026020016040519081016040528092919081815260200182805461055190611957565b801561059c5780601f106105735761010080835404028352916020019161059c565b820191905f5260205f20905b81548152906001019060200180831161057f57829003601f168201915b5050505050905090565b5f5f6105b0610ed9565b90506105bd818585610ee0565b600191505092915050565b60065f9054906101000a900473ffffffffffffffffffffffffffffffffffffffff1681565b5f600254905090565b6aa56fa5b99019a5c800000081565b5f5f61060f610ed9565b905061061c858285610ef2565b610627858585610f85565b60019150509392505050565b5f6012905090565b6b033b2e3c9fd0803ce800000081565b6a01a784379d99db4200000081565b6a295be96e6406697200000081565b5f5f5f8373ffffffffffffffffffffffffffffffffffffffff1673ffffffffffffffffffffffffffffffffffffffff1681526020019081526020015f20549050919050565b6106b6611075565b6106bf5f6110fc565b565b60075f9054906101000a900473ffffffffffffffffffffffffffffffffffffffff1673ffffffffffffffffffffffffffffffffffffffff163373ffffffffffffffffffffffffffffffffffffffff1614610750576040517f08c379a0000000000000000000000000000000000000000000000000000000008152600401610747906119f7565b60405180910390fd5b600560149054906101000a900460ff16156107a0576040517f08c379a000000000000000000000000000000000000000000000000000000000815260040161079790611a5f565b60405180910390fd5b6107d660075f9054906101000a900473ffffffffffffffffffffffffffffffffffffffff166a52b7d2dcc80cd2e40000006111bf565b6001600560146101000a81548160ff0219169083151502179055507ffe52c86b79d5742b050f2e2efeca8e935f088ac2e5e16a3c7b709f95c0636df46a52b7d2dcc80cd2e400000060405161082b91906117ef565b60405180910390a1565b5f60055f9054906101000a900473ffffffffffffffffffffffffffffffffffffffff16905090565b600560149054906101000a900460ff1681565b60606004805461087f90611957565b80601f01602080910402602001604051908101604052809291908181526020018280546108ab90611957565b80156108f65780601f106108cd576101008083540402835291602001916108f6565b820191905f5260205f20905b8154815290600101906020018083116108d957829003601f168201915b5050505050905090565b60075f9054906101000a900473ffffffffffffffffffffffffffffffffffffffff1673ffffffffffffffffffffffffffffffffffffffff163373ffffffffffffffffffffffffffffffffffffffff161461098f576040517f08c379a0000000000000000000000000000000000000000000000000000000008152600401610986906119f7565b60405180910390fd5b5f6a01a784379d99db4200000090508060086001015410156109e6576040517f08c379a00000000000000000000000000000000000000000000000000000000081526004016109dd90611ac7565b60405180910390fd5b8060086002015f8282546109fa9190611b12565b925050819055508060086001015f828254610a159190611b45565b925050819055507f20e6b5faba158691cec289aa69971b114cbde320ad56ed660db2223c86bf0c2b81604051610a4b91906117ef565b60405180910390a150565b5f5f610a60610ed9565b9050610a6d818585610f85565b600191505092915050565b60075f9054906101000a900473ffffffffffffffffffffffffffffffffffffffff1673ffffffffffffffffffffffffffffffffffffffff163373ffffffffffffffffffffffffffffffffffffffff1614610b07576040517f08c379a0000000000000000000000000000000000000000000000000000000008152600401610afe906119f7565b60405180910390fd5b5f73ffffffffffffffffffffffffffffffffffffffff168273ffffffffffffffffffffffffffffffffffffffff1603610b75576040517f08c379a0000000000000000000000000000000000000000000000000000000008152600401610b6c90611bc2565b60405180910390fd5b5f8111610bb7576040517f08c379a0000000000000000000000000000000000000000000000000000000008152600401610bae90611c2a565b60405180910390fd5b6b033b2e3c9fd0803ce800000081610bcd6105ed565b610bd79190611b12565b1115610c18576040517f08c379a0000000000000000000000000000000000000000000000000000000008152600401610c0f90611c92565b60405180910390fd5b610c2282826111bf565b5050565b6008805f015f9054906101000a900473ffffffffffffffffffffffffffffffffffffffff16908060010154908060020154905083565b5f6a01a784379d99db4200000060086001015411905090565b6aa56fa5b99019a5c800000081565b60085f015f9054906101000a900473ffffffffffffffffffffffffffffffffffffffff1673ffffffffffffffffffffffffffffffffffffffff163373ffffffffffffffffffffffffffffffffffffffff1614610d15576040517f08c379a0000000000000000000000000000000000000000000000000000000008152600401610d0c90611cfa565b60405180910390fd5b5f60086002015490505f600860020181905550610d5560085f015f9054906101000a900473ffffffffffffffffffffffffffffffffffffffff16826111bf565b7f85210f592f3f6c0e04a0bbe66c0b4c3a93803fda97ceac60f5be26c0cd6612da81604051610d8491906117ef565b60405180910390a150565b5f60015f8473ffffffffffffffffffffffffffffffffffffffff1673ffffffffffffffffffffffffffffffffffffffff1681526020019081526020015f205f8373ffffffffffffffffffffffffffffffffffffffff1673ffffffffffffffffffffffffffffffffffffffff1681526020019081526020015f2054905092915050565b60075f9054906101000a900473ffffffffffffffffffffffffffffffffffffffff1681565b6b019d971e4fe8401e7400000081565b6a52b7d2dcc80cd2e400000081565b610e5d611075565b5f73ffffffffffffffffffffffffffffffffffffffff168173ffffffffffffffffffffffffffffffffffffffff1603610ecd575f6040517f1e4fbdf7000000000000000000000000000000000000000000000000000000008152600401610ec491906117c7565b60405180910390fd5b610ed6816110fc565b50565b5f33905090565b610eed838383600161123e565b505050565b5f610efd8484610d8f565b90507fffffffffffffffffffffffffffffffffffffffffffffffffffffffffffffffff811015610f7f5781811015610f70578281836040517ffb8f41b2000000000000000000000000000000000000000000000000000000008152600401610f67939291906118b7565b60405180910390fd5b610f7e84848484035f61123e565b5b50505050565b5f73ffffffffffffffffffffffffffffffffffffffff168373ffffffffffffffffffffffffffffffffffffffff1603610ff5575f6040517f96c6fd1e000000000000000000000000000000000000000000000000000000008152600401610fec91906117c7565b60405180910390fd5b5f73ffffffffffffffffffffffffffffffffffffffff168273ffffffffffffffffffffffffffffffffffffffff1603611065575f6040517fec442f0500000000000000000000000000000000000000000000000000000000815260040161105c91906117c7565b60405180910390fd5b61107083838361140d565b505050565b61107d610ed9565b73ffffffffffffffffffffffffffffffffffffffff1661109b610835565b73ffffffffffffffffffffffffffffffffffffffff16146110fa576110be610ed9565b6040517f118cdaa70000000000000000000000000000000000000000000000000000000081526004016110f191906117c7565b60405180910390fd5b565b5f60055f9054906101000a900473ffffffffffffffffffffffffffffffffffffffff1690508160055f6101000a81548173ffffffffffffffffffffffffffffffffffffffff021916908373ffffffffffffffffffffffffffffffffffffffff1602179055508173ffffffffffffffffffffffffffffffffffffffff168173ffffffffffffffffffffffffffffffffffffffff167f8be0079c531659141344cd1fd0a4f28419497f9722a3daafe3b4186f6b6457e060405160405180910390a35050565b5f73ffffffffffffffffffffffffffffffffffffffff168273ffffffffffffffffffffffffffffffffffffffff160361122f575f6040517fec442f0500000000000000000000000000000000000000000000000000000000815260040161122691906117c7565b60405180910390fd5b61123a5f838361140d565b5050565b5f73ffffffffffffffffffffffffffffffffffffffff168473ffffffffffffffffffffffffffffffffffffffff16036112ae575f6040517fe602df050000000000000000000000000000000000000000000000000000000081526004016112a591906117c7565b60405180910390fd5b5f73ffffffffffffffffffffffffffffffffffffffff168373ffffffffffffffffffffffffffffffffffffffff160361131e575f6040517f94280d6200000000000000000000000000000000000000000000000000000000815260040161131591906117c7565b60405180910390fd5b8160015f8673ffffffffffffffffffffffffffffffffffffffff1673ffffffffffffffffffffffffffffffffffffffff1681526020019081526020015f205f8573ffffffffffffffffffffffffffffffffffffffff1673ffffffffffffffffffffffffffffffffffffffff1681526020019081526020015f20819055508015611407578273ffffffffffffffffffffffffffffffffffffffff168473ffffffffffffffffffffffffffffffffffffffff167f8c5be1e5ebec7d5bd14f71427d1e84f3dd0314c0f7b2291e5b200ac8c7c3b925846040516113fe91906117ef565b60405180910390a35b50505050565b5f73ffffffffffffffffffffffffffffffffffffffff168373ffffffffffffffffffffffffffffffffffffffff160361145d578060025f8282546114519190611b12565b9250508190555061152b565b5f5f5f8573ffffffffffffffffffffffffffffffffffffffff1673ffffffffffffffffffffffffffffffffffffffff1681526020019081526020015f20549050818110156114e6578381836040517fe450d38c0000000000000000000000000000000000000000000000000000000081526004016114dd939291906118b7565b60405180910390fd5b8181035f5f8673ffffffffffffffffffffffffffffffffffffffff1673ffffffffffffffffffffffffffffffffffffffff1681526020019081526020015f2081905550505b5f73ffffffffffffffffffffffffffffffffffffffff168273ffffffffffffffffffffffffffffffffffffffff1603611572578060025f82825403925050819055506115bc565b805f5f8473ffffffffffffffffffffffffffffffffffffffff1673ffffffffffffffffffffffffffffffffffffffff1681526020019081526020015f205f82825401925050819055505b8173ffffffffffffffffffffffffffffffffffffffff168373ffffffffffffffffffffffffffffffffffffffff167fddf252ad1be2c89b69c2b068fc378daa952ba7f163c4a11628f55a4df523b3ef8360405161161991906117ef565b60405180910390a3505050565b5f81519050919050565b5f82825260208201905092915050565b8281835e5f83830152505050565b5f601f19601f8301169050919050565b5f61166882611626565b6116728185611630565b9350611682818560208601611640565b61168b8161164e565b840191505092915050565b5f6020820190508181035f8301526116ae818461165e565b905092915050565b5f5ffd5b5f73ffffffffffffffffffffffffffffffffffffffff82169050919050565b5f6116e3826116ba565b9050919050565b6116f3816116d9565b81146116fd575f5ffd5b50565b5f8135905061170e816116ea565b92915050565b5f819050919050565b61172681611714565b8114611730575f5ffd5b50565b5f813590506117418161171d565b92915050565b5f5f6040838503121561175d5761175c6116b6565b5b5f61176a85828601611700565b925050602061177b85828601611733565b9150509250929050565b5f8115159050919050565b61179981611785565b82525050565b5f6020820190506117b25f830184611790565b92915050565b6117c1816116d9565b82525050565b5f6020820190506117da5f8301846117b8565b92915050565b6117e981611714565b82525050565b5f6020820190506118025f8301846117e0565b92915050565b5f5f5f6060848603121561181f5761181e6116b6565b5b5f61182c86828701611700565b935050602061183d86828701611700565b925050604061184e86828701611733565b9150509250925092565b5f60ff82169050919050565b61186d81611858565b82525050565b5f6020820190506118865f830184611864565b92915050565b5f602082840312156118a1576118a06116b6565b5b5f6118ae84828501611700565b91505092915050565b5f6060820190506118ca5f8301866117b8565b6118d760208301856117e0565b6118e460408301846117e0565b949350505050565b5f5f60408385031215611902576119016116b6565b5b5f61190f85828601611700565b925050602061192085828601611700565b9150509250929050565b7f4e487b71000000000000000000000000000000000000000000000000000000005f52602260045260245ffd5b5f600282049050600182168061196e57607f821691505b6020821081036119815761198061192a565b5b50919050565b7f4f6e6c7920666163746f72792063616e2063616c6c20746869732066756e63745f8201527f696f6e0000000000000000000000000000000000000000000000000000000000602082015250565b5f6119e1602383611630565b91506119ec82611987565b604082019050919050565b5f6020820190508181035f830152611a0e816119d5565b9050919050565b7f4c7020616c726561647920616c6c6f63617465640000000000000000000000005f82015250565b5f611a49601483611630565b9150611a5482611a15565b602082019050919050565b5f6020820190508181035f830152611a7681611a3d565b9050919050565b7f4e6f7420656e6f7567682062616c616e636520746f20756e6c6f636b000000005f82015250565b5f611ab1601c83611630565b9150611abc82611a7d565b602082019050919050565b5f6020820190508181035f830152611ade81611aa5565b9050919050565b7f4e487b71000000000000000000000000000000000000000000000000000000005f52601160045260245ffd5b5f611b1c82611714565b9150611b2783611714565b9250828201905080821115611b3f57611b3e611ae5565b5b92915050565b5f611b4f82611714565b9150611b5a83611714565b9250828203905081811115611b7257611b71611ae5565b5b92915050565b7f496e76616c6964206164647265737300000000000000000000000000000000005f82015250565b5f611bac600f83611630565b9150611bb782611b78565b602082019050919050565b5f6020820190508181035f830152611bd981611ba0565b9050919050565b7f496e76616c696420616d6f756e740000000000000000000000000000000000005f82015250565b5f611c14600e83611630565b9150611c1f82611be0565b602082019050919050565b5f6020820190508181035f830152611c4181611c08565b9050919050565b7f45786365656473206d617820737570706c7900000000000000000000000000005f82015250565b5f611c7c601283611630565b9150611c8782611c48565b602082019050919050565b5f6020820190508181035f830152611ca981611c70565b9050919050565b7f4f6e6c792063726561746f722063616e20636c61696d000000000000000000005f82015250565b5f611ce4601683611630565b9150611cef82611cb0565b602082019050919050565b5f6020820190508181035f830152611d1181611cd8565b905091905056fea2646970667358221220949695074707a538153d121d635ddf9c539f269421d997328b84b62a3ef3164164736f6c634300081c0033",
  "linkReferences": {},
  "deployedLinkReferences": {},
  "immutableReferences": {},
  "inputSourceName": "project/contracts/MemedToken.sol",
  "buildInfoId": "solc-0_8_28-d1ed3c067fd8a924bfa2d50a075a0c9e488acfcd"
}