{
  "_format": "hh3-artifact-1",
  "contractName": "MemedFactory",
  "sourceName": "contracts/MemedFactory.sol",
  "abi": [
    {
      "inputs": [
        {
          "internalType": "address",
          "name": "_memedTokenSale",
          "type": "address"
        },
        {
          "internalType": "address",
          "name": "_memedBattle",
          "type": "address"
        },
        {
          "internalType": "address",
          "name": "_memedEngageToEarn",
          "type": "address"
        },
        {
          "internalType": "address",
          "name": "_uniswapV2Router",
          "type": "address"
        }
      ],
      "stateMutability": "nonpayable",
      "type": "constructor"
    },
    {
      "inputs": [
        {
          "internalType": "address",
          "name": "owner",
          "type": "address"
        }
      ],
      "name": "OwnableInvalidOwner",
      "type": "error"
    },
    {
      "inputs": [
        {
          "internalType": "address",
          "name": "account",
          "type": "address"
        }
      ],
      "name": "OwnableUnauthorizedAccount",
      "type": "error"
    },
    {
      "inputs": [],
      "name": "ReentrancyGuardReentrantCall",
      "type": "error"
    },
    {
      "anonymous": false,
      "inputs": [
        {
          "indexed": true,
          "internalType": "address",
          "name": "winner",
          "type": "address"
        },
        {
          "indexed": true,
          "internalType": "address",
          "name": "loser",
          "type": "address"
        },
        {
          "indexed": false,
          "internalType": "uint256",
          "name": "creatorIncentivesUnlocksAtWinner",
          "type": "uint256"
        },
        {
          "indexed": false,
          "internalType": "uint256",
          "name": "creatorIncentivesUnlocksAtLoser",
          "type": "uint256"
        }
      ],
      "name": "BattleUpdated",
      "type": "event"
    },
    {
      "anonymous": false,
      "inputs": [
        {
          "indexed": true,
          "internalType": "address",
          "name": "token",
          "type": "address"
        },
        {
          "indexed": false,
          "internalType": "uint256",
          "name": "heat",
          "type": "uint256"
        },
        {
          "indexed": false,
          "internalType": "uint256",
          "name": "timestamp",
          "type": "uint256"
        }
      ],
      "name": "HeatUpdated",
      "type": "event"
    },
    {
      "anonymous": false,
      "inputs": [
        {
          "indexed": true,
          "internalType": "address",
          "name": "previousOwner",
          "type": "address"
        },
        {
          "indexed": true,
          "internalType": "address",
          "name": "newOwner",
          "type": "address"
        }
      ],
      "name": "OwnershipTransferred",
      "type": "event"
    },
    {
      "anonymous": false,
      "inputs": [
        {
          "indexed": true,
          "internalType": "uint256",
          "name": "id",
          "type": "uint256"
        },
        {
          "indexed": true,
          "internalType": "address",
          "name": "token",
          "type": "address"
        },
        {
          "indexed": true,
          "internalType": "address",
          "name": "warriorNFT",
          "type": "address"
        }
      ],
      "name": "TokenCompletedFairLaunch",
      "type": "event"
    },
    {
      "anonymous": false,
      "inputs": [
        {
          "indexed": true,
          "internalType": "address",
          "name": "token",
          "type": "address"
        },
        {
          "indexed": true,
          "internalType": "address",
          "name": "owner",
          "type": "address"
        },
        {
          "indexed": false,
          "internalType": "string",
          "name": "name",
          "type": "string"
        },
        {
          "indexed": false,
          "internalType": "string",
          "name": "ticker",
          "type": "string"
        },
        {
          "indexed": false,
          "internalType": "string",
          "name": "description",
          "type": "string"
        },
        {
          "indexed": false,
          "internalType": "string",
          "name": "image",
          "type": "string"
        },
        {
          "indexed": false,
          "internalType": "bool",
          "name": "isClaimedByCreator",
          "type": "bool"
        },
        {
          "indexed": false,
          "internalType": "uint256",
          "name": "createdAt",
          "type": "uint256"
        }
      ],
      "name": "TokenCreated",
      "type": "event"
    },
    {
      "inputs": [],
      "name": "BATTLE_REWARDS_PERCENTAGE",
      "outputs": [
        {
          "internalType": "uint256",
          "name": "",
          "type": "uint256"
        }
      ],
      "stateMutability": "view",
      "type": "function"
    },
    {
      "inputs": [],
      "name": "ENGAGEMENT_REWARDS_PER_NEW_HEAT",
      "outputs": [
        {
          "internalType": "uint256",
          "name": "",
          "type": "uint256"
        }
      ],
      "stateMutability": "view",
      "type": "function"
    },
    {
      "inputs": [],
      "name": "INITIAL_REWARDS_PER_HEAT",
      "outputs": [
        {
          "internalType": "uint256",
          "name": "",
          "type": "uint256"
        }
      ],
      "stateMutability": "view",
      "type": "function"
    },
    {
      "inputs": [],
      "name": "MAX_ENGAGE_CREATOR_REWARD_PERCENTAGE",
      "outputs": [
        {
          "internalType": "uint256",
          "name": "",
          "type": "uint256"
        }
      ],
      "stateMutability": "view",
      "type": "function"
    },
    {
      "inputs": [],
      "name": "MAX_ENGAGE_USER_REWARD_PERCENTAGE",
      "outputs": [
        {
          "internalType": "uint256",
          "name": "",
          "type": "uint256"
        }
      ],
      "stateMutability": "view",
      "type": "function"
    },
    {
      "inputs": [],
      "name": "REWARD_PER_ENGAGEMENT",
      "outputs": [
        {
          "internalType": "uint256",
          "name": "",
          "type": "uint256"
        }
      ],
      "stateMutability": "view",
      "type": "function"
    },
    {
      "inputs": [
        {
          "internalType": "address",
          "name": "_winner",
          "type": "address"
        },
        {
          "internalType": "address",
          "name": "_loser",
          "type": "address"
        }
      ],
      "name": "battleUpdate",
      "outputs": [],
      "stateMutability": "nonpayable",
      "type": "function"
    },
    {
      "inputs": [
        {
          "internalType": "address",
          "name": "_token",
          "type": "address"
        },
        {
          "internalType": "address",
          "name": "_creator",
          "type": "address"
        }
      ],
      "name": "claimToken",
      "outputs": [],
      "stateMutability": "nonpayable",
      "type": "function"
    },
    {
      "inputs": [
        {
          "internalType": "uint256",
          "name": "_id",
          "type": "uint256"
        },
        {
          "internalType": "address",
          "name": "_token",
          "type": "address"
        },
        {
          "internalType": "address",
          "name": "_warriorNFT",
          "type": "address"
        }
      ],
      "name": "completeFairLaunch",
      "outputs": [],
      "stateMutability": "nonpayable",
      "type": "function"
    },
    {
      "inputs": [
        {
          "internalType": "address",
          "name": "_token",
          "type": "address"
        }
      ],
      "name": "getByToken",
      "outputs": [
        {
          "components": [
            {
              "internalType": "address",
              "name": "token",
              "type": "address"
            },
            {
              "internalType": "address",
              "name": "warriorNFT",
              "type": "address"
            },
            {
              "internalType": "address",
              "name": "creator",
              "type": "address"
            },
            {
              "internalType": "string",
              "name": "name",
              "type": "string"
            },
            {
              "internalType": "string",
              "name": "ticker",
              "type": "string"
            },
            {
              "internalType": "string",
              "name": "description",
              "type": "string"
            },
            {
              "internalType": "string",
              "name": "image",
              "type": "string"
            },
            {
              "internalType": "bool",
              "name": "isClaimedByCreator",
              "type": "bool"
            }
          ],
          "internalType": "struct TokenData",
          "name": "",
          "type": "tuple"
        }
      ],
      "stateMutability": "view",
      "type": "function"
    },
    {
      "inputs": [
        {
          "internalType": "uint256",
          "name": "_id",
          "type": "uint256"
        }
      ],
      "name": "getCreatorById",
      "outputs": [
        {
          "internalType": "address",
          "name": "",
          "type": "address"
        }
      ],
      "stateMutability": "view",
      "type": "function"
    },
    {
      "inputs": [
        {
          "internalType": "address",
          "name": "_token",
          "type": "address"
        }
      ],
      "name": "getHeat",
      "outputs": [
        {
          "internalType": "uint256",
          "name": "",
          "type": "uint256"
        }
      ],
      "stateMutability": "view",
      "type": "function"
    },
    {
      "inputs": [],
      "name": "getMemedBattle",
      "outputs": [
        {
          "internalType": "address",
          "name": "",
          "type": "address"
        }
      ],
      "stateMutability": "view",
      "type": "function"
    },
    {
      "inputs": [],
      "name": "getMemedEngageToEarn",
      "outputs": [
        {
          "internalType": "contract IMemedEngageToEarn",
          "name": "",
          "type": "address"
        }
      ],
      "stateMutability": "view",
      "type": "function"
    },
    {
      "inputs": [
        {
          "internalType": "address",
          "name": "_token",
          "type": "address"
        }
      ],
      "name": "getTokenByAddress",
      "outputs": [
        {
          "components": [
            {
              "internalType": "address",
              "name": "token",
              "type": "address"
            },
            {
              "internalType": "address",
              "name": "warriorNFT",
              "type": "address"
            },
            {
              "internalType": "address",
              "name": "creator",
              "type": "address"
            },
            {
              "internalType": "string",
              "name": "name",
              "type": "string"
            },
            {
              "internalType": "string",
              "name": "ticker",
              "type": "string"
            },
            {
              "internalType": "string",
              "name": "description",
              "type": "string"
            },
            {
              "internalType": "string",
              "name": "image",
              "type": "string"
            },
            {
              "internalType": "bool",
              "name": "isClaimedByCreator",
              "type": "bool"
            }
          ],
          "internalType": "struct TokenData",
          "name": "",
          "type": "tuple"
        }
      ],
      "stateMutability": "view",
      "type": "function"
    },
    {
      "inputs": [
        {
          "internalType": "uint256",
          "name": "_id",
          "type": "uint256"
        }
      ],
      "name": "getTokenById",
      "outputs": [
        {
          "components": [
            {
              "internalType": "address",
              "name": "token",
              "type": "address"
            },
            {
              "internalType": "address",
              "name": "warriorNFT",
              "type": "address"
            },
            {
              "internalType": "address",
              "name": "creator",
              "type": "address"
            },
            {
              "internalType": "string",
              "name": "name",
              "type": "string"
            },
            {
              "internalType": "string",
              "name": "ticker",
              "type": "string"
            },
            {
              "internalType": "string",
              "name": "description",
              "type": "string"
            },
            {
              "internalType": "string",
              "name": "image",
              "type": "string"
            },
            {
              "internalType": "bool",
              "name": "isClaimedByCreator",
              "type": "bool"
            }
          ],
          "internalType": "struct TokenData",
          "name": "",
          "type": "tuple"
        }
      ],
      "stateMutability": "view",
      "type": "function"
    },
    {
      "inputs": [],
      "name": "getTokens",
      "outputs": [
        {
          "components": [
            {
              "internalType": "address",
              "name": "token",
              "type": "address"
            },
            {
              "internalType": "address",
              "name": "warriorNFT",
              "type": "address"
            },
            {
              "internalType": "address",
              "name": "creator",
              "type": "address"
            },
            {
              "internalType": "string",
              "name": "name",
              "type": "string"
            },
            {
              "internalType": "string",
              "name": "ticker",
              "type": "string"
            },
            {
              "internalType": "string",
              "name": "description",
              "type": "string"
            },
            {
              "internalType": "string",
              "name": "image",
              "type": "string"
            },
            {
              "internalType": "bool",
              "name": "isClaimedByCreator",
              "type": "bool"
            }
          ],
          "internalType": "struct TokenData[]",
          "name": "",
          "type": "tuple[]"
        }
      ],
      "stateMutability": "view",
      "type": "function"
    },
    {
      "inputs": [
        {
          "internalType": "address",
          "name": "_token",
          "type": "address"
        }
      ],
      "name": "getWarriorNFT",
      "outputs": [
        {
          "internalType": "address",
          "name": "",
          "type": "address"
        }
      ],
      "stateMutability": "view",
      "type": "function"
    },
    {
      "inputs": [],
      "name": "memedBattle",
      "outputs": [
        {
          "internalType": "contract IMemedBattle",
          "name": "",
          "type": "address"
        }
      ],
      "stateMutability": "view",
      "type": "function"
    },
    {
      "inputs": [],
      "name": "memedEngageToEarn",
      "outputs": [
        {
          "internalType": "contract IMemedEngageToEarn",
          "name": "",
          "type": "address"
        }
      ],
      "stateMutability": "view",
      "type": "function"
    },
    {
      "inputs": [],
      "name": "memedTokenSale",
      "outputs": [
        {
          "internalType": "contract IMemedTokenSale",
          "name": "",
          "type": "address"
        }
      ],
      "stateMutability": "view",
      "type": "function"
    },
    {
      "inputs": [],
      "name": "owner",
      "outputs": [
        {
          "internalType": "address",
          "name": "",
          "type": "address"
        }
      ],
      "stateMutability": "view",
      "type": "function"
    },
    {
      "inputs": [],
      "name": "renounceOwnership",
      "outputs": [],
      "stateMutability": "nonpayable",
      "type": "function"
    },
    {
      "inputs": [
        {
          "internalType": "address",
          "name": "_creator",
          "type": "address"
        },
        {
          "internalType": "string",
          "name": "_name",
          "type": "string"
        },
        {
          "internalType": "string",
          "name": "_ticker",
          "type": "string"
        },
        {
          "internalType": "string",
          "name": "_description",
          "type": "string"
        },
        {
          "internalType": "string",
          "name": "_image",
          "type": "string"
        }
      ],
      "name": "startFairLaunch",
      "outputs": [],
      "stateMutability": "nonpayable",
      "type": "function"
    },
    {
      "inputs": [
        {
          "internalType": "uint256",
          "name": "_amount",
          "type": "uint256"
        },
        {
          "internalType": "address[]",
          "name": "_path",
          "type": "address[]"
        },
        {
          "internalType": "address",
          "name": "_to",
          "type": "address"
        }
      ],
      "name": "swap",
      "outputs": [
        {
          "internalType": "uint256[]",
          "name": "",
          "type": "uint256[]"
        }
      ],
      "stateMutability": "nonpayable",
      "type": "function"
    },
    {
      "inputs": [
        {
          "internalType": "uint256",
          "name": "",
          "type": "uint256"
        }
      ],
      "name": "tokenData",
      "outputs": [
        {
          "internalType": "address",
          "name": "token",
          "type": "address"
        },
        {
          "internalType": "address",
          "name": "warriorNFT",
          "type": "address"
        },
        {
          "internalType": "address",
          "name": "creator",
          "type": "address"
        },
        {
          "internalType": "string",
          "name": "name",
          "type": "string"
        },
        {
          "internalType": "string",
          "name": "ticker",
          "type": "string"
        },
        {
          "internalType": "string",
          "name": "description",
          "type": "string"
        },
        {
          "internalType": "string",
          "name": "image",
          "type": "string"
        },
        {
          "internalType": "bool",
          "name": "isClaimedByCreator",
          "type": "bool"
        }
      ],
      "stateMutability": "view",
      "type": "function"
    },
    {
      "inputs": [
        {
          "internalType": "uint256",
          "name": "",
          "type": "uint256"
        }
      ],
      "name": "tokenRewardData",
      "outputs": [
        {
          "internalType": "uint256",
          "name": "lastRewardAt",
          "type": "uint256"
        },
        {
          "internalType": "uint256",
          "name": "creatorIncentivesUnlocksAt",
          "type": "uint256"
        },
        {
          "internalType": "uint256",
          "name": "creatorIncentivesUnlockedAt",
          "type": "uint256"
        },
        {
          "internalType": "uint256",
          "name": "lastEngagementBoost",
          "type": "uint256"
        },
        {
          "internalType": "uint256",
          "name": "heat",
          "type": "uint256"
        },
        {
          "internalType": "uint256",
          "name": "lastHeatUpdate",
          "type": "uint256"
        },
        {
          "internalType": "uint256",
          "name": "createdAt",
          "type": "uint256"
        }
      ],
      "stateMutability": "view",
      "type": "function"
    },
    {
      "inputs": [
        {
          "internalType": "uint256",
          "name": "",
          "type": "uint256"
        }
      ],
      "name": "tokens",
      "outputs": [
        {
          "internalType": "address",
          "name": "",
          "type": "address"
        }
      ],
      "stateMutability": "view",
      "type": "function"
    },
    {
      "inputs": [
        {
          "internalType": "address",
          "name": "newOwner",
          "type": "address"
        }
      ],
      "name": "transferOwnership",
      "outputs": [],
      "stateMutability": "nonpayable",
      "type": "function"
    },
    {
      "inputs": [],
      "name": "uniswapV2Factory",
      "outputs": [
        {
          "internalType": "contract IUniswapV2Factory",
          "name": "",
          "type": "address"
        }
      ],
      "stateMutability": "view",
      "type": "function"
    },
    {
      "inputs": [],
      "name": "uniswapV2Router",
      "outputs": [
        {
          "internalType": "contract IUniswapV2Router02",
          "name": "",
          "type": "address"
        }
      ],
      "stateMutability": "view",
      "type": "function"
    },
    {
      "stateMutability": "payable",
      "type": "receive"
    }
  ],
  "bytecode": "0x6080604052620186a0600255601460035534801561001b575f5ffd5b506040516153af3803806153af833981810160405281019061003d91906103ba565b335f73ffffffffffffffffffffffffffffffffffffffff168173ffffffffffffffffffffffffffffffffffffffff16036100ae575f6040517f1e4fbdf70000000000000000000000000000000000000000000000000000000081526004016100a5919061042d565b60405180910390fd5b6100bd8161029b60201b60201c565b50600180819055508360045f6101000a81548173ffffffffffffffffffffffffffffffffffffffff021916908373ffffffffffffffffffffffffffffffffffffffff1602179055508260055f6101000a81548173ffffffffffffffffffffffffffffffffffffffff021916908373ffffffffffffffffffffffffffffffffffffffff1602179055508160065f6101000a81548173ffffffffffffffffffffffffffffffffffffffff021916908373ffffffffffffffffffffffffffffffffffffffff16021790555080600a5f6101000a81548173ffffffffffffffffffffffffffffffffffffffff021916908373ffffffffffffffffffffffffffffffffffffffff160217905550600a5f9054906101000a900473ffffffffffffffffffffffffffffffffffffffff1673ffffffffffffffffffffffffffffffffffffffff1663c45a01556040518163ffffffff1660e01b8152600401602060405180830381865afa15801561022f573d5f5f3e3d5ffd5b505050506040513d601f19601f820116820180604052508101906102539190610446565b600b5f6101000a81548173ffffffffffffffffffffffffffffffffffffffff021916908373ffffffffffffffffffffffffffffffffffffffff16021790555050505050610471565b5f5f5f9054906101000a900473ffffffffffffffffffffffffffffffffffffffff169050815f5f6101000a81548173ffffffffffffffffffffffffffffffffffffffff021916908373ffffffffffffffffffffffffffffffffffffffff1602179055508173ffffffffffffffffffffffffffffffffffffffff168173ffffffffffffffffffffffffffffffffffffffff167f8be0079c531659141344cd1fd0a4f28419497f9722a3daafe3b4186f6b6457e060405160405180910390a35050565b5f5ffd5b5f73ffffffffffffffffffffffffffffffffffffffff82169050919050565b5f61038982610360565b9050919050565b6103998161037f565b81146103a3575f5ffd5b50565b5f815190506103b481610390565b92915050565b5f5f5f5f608085870312156103d2576103d161035c565b5b5f6103df878288016103a6565b94505060206103f0878288016103a6565b9350506040610401878288016103a6565b9250506060610412878288016103a6565b91505092959194509250565b6104278161037f565b82525050565b5f6020820190506104405f83018461041e565b92915050565b5f6020828403121561045b5761045a61035c565b5b5f610468848285016103a6565b91505092915050565b614f318061047e5f395ff3fe6080604052600436106101db575f3560e01c80638da5cb5b11610101578063c923563411610094578063dd743bc811610063578063dd743bc8146106e7578063e5659f0714610723578063f2fde38b1461074d578063f797113f14610775576101e2565b8063c923563414610643578063ca31879d1461066b578063d1f6d04a14610693578063dc6930a3146106bd576101e2565b8063a40103d4116100d0578063a40103d414610572578063aa6ca808146105ae578063abf599fc146105d8578063b4b5b48f14610600576101e2565b80638da5cb5b146104a057806391ded8fa146104ca57806392ac258214610506578063a11d8ac714610548576101e2565b80635153563b11610179578063715018a611610148578063715018a6146103fa578063741c6ae81461041057806377e989f31461043a5780637bdc60d914610464576101e2565b80635153563b1461034057806359d0f7131461036a5780635d3575a6146103945780635de7c44a146103d0576101e2565b806327e2fee4116101b557806327e2fee414610262578063306d35081461029e578063320dc01b146102da5780634f64b2be14610304576101e2565b80630280a16f146101e65780631694505e14610210578063263a61001461023a576101e2565b366101e257005b5f5ffd5b3480156101f1575f5ffd5b506101fa61079f565b6040516102079190613920565b60405180910390f35b34801561021b575f5ffd5b506102246107a5565b60405161023191906139b3565b60405180910390f35b348015610245575f5ffd5b50610260600480360381019061025b9190613a79565b6107ca565b005b34801561026d575f5ffd5b5061028860048036038101906102839190613b6f565b610f4a565b6040516102959190613ba9565b60405180910390f35b3480156102a9575f5ffd5b506102c460048036038101906102bf9190613b6f565b61101e565b6040516102d19190613920565b60405180910390f35b3480156102e5575f5ffd5b506102ee6110d3565b6040516102fb9190613920565b60405180910390f35b34801561030f575f5ffd5b5061032a60048036038101906103259190613bec565b6110da565b6040516103379190613ba9565b60405180910390f35b34801561034b575f5ffd5b50610354611115565b6040516103619190613c37565b60405180910390f35b348015610375575f5ffd5b5061037e61113a565b60405161038b9190613c70565b60405180910390f35b34801561039f575f5ffd5b506103ba60048036038101906103b59190613bec565b61115f565b6040516103c79190613ba9565b60405180910390f35b3480156103db575f5ffd5b506103e461119b565b6040516103f19190613920565b60405180910390f35b348015610405575f5ffd5b5061040e6111a1565b005b34801561041b575f5ffd5b506104246111b4565b6040516104319190613920565b60405180910390f35b348015610445575f5ffd5b5061044e6111b9565b60405161045b9190613ca9565b60405180910390f35b34801561046f575f5ffd5b5061048a60048036038101906104859190613bec565b6111e1565b6040516104979190613e1d565b60405180910390f35b3480156104ab575f5ffd5b506104b4611565565b6040516104c19190613ba9565b60405180910390f35b3480156104d5575f5ffd5b506104f060048036038101906104eb9190613b6f565b61158c565b6040516104fd9190613e1d565b60405180910390f35b348015610511575f5ffd5b5061052c60048036038101906105279190613bec565b611a1e565b60405161053f9796959493929190613e3d565b60405180910390f35b348015610553575f5ffd5b5061055c611a5c565b6040516105699190613ca9565b60405180910390f35b34801561057d575f5ffd5b5061059860048036038101906105939190613eff565b611a81565b6040516105a59190614027565b60405180910390f35b3480156105b9575f5ffd5b506105c2611d00565b6040516105cf91906141c4565b60405180910390f35b3480156105e3575f5ffd5b506105fe60048036038101906105f991906141e4565b611de7565b005b34801561060b575f5ffd5b5061062660048036038101906106219190613bec565b612786565b60405161063a98979695949392919061428b565b60405180910390f35b34801561064e575f5ffd5b5061066960048036038101906106649190614323565b612a4b565b005b348015610676575f5ffd5b50610691600480360381019061068c9190614323565b612db3565b005b34801561069e575f5ffd5b506106a76131ed565b6040516106b49190613ba9565b60405180910390f35b3480156106c8575f5ffd5b506106d1613215565b6040516106de9190614381565b60405180910390f35b3480156106f2575f5ffd5b5061070d60048036038101906107089190613b6f565b61323a565b60405161071a9190613e1d565b60405180910390f35b34801561072e575f5ffd5b50610737613656565b6040516107449190613920565b60405180910390f35b348015610758575f5ffd5b50610773600480360381019061076e9190613b6f565b61365c565b005b348015610780575f5ffd5b506107896136e0565b6040516107969190613920565b60405180910390f35b61c35081565b600a5f9054906101000a900473ffffffffffffffffffffffffffffffffffffffff1681565b6107d26136e5565b5f73ffffffffffffffffffffffffffffffffffffffff168973ffffffffffffffffffffffffffffffffffffffff16146108de5760045f9054906101000a900473ffffffffffffffffffffffffffffffffffffffff1673ffffffffffffffffffffffffffffffffffffffff1663222b15fb8a6040518263ffffffff1660e01b815260040161085f9190613ba9565b602060405180830381865afa15801561087a573d5f5f3e3d5ffd5b505050506040513d601f19601f8201168201806040525081019061089e91906143c4565b6108dd576040517f08c379a00000000000000000000000000000000000000000000000000000000081526004016108d49061445f565b60405180910390fd5b5b5f60045f9054906101000a900473ffffffffffffffffffffffffffffffffffffffff1673ffffffffffffffffffffffffffffffffffffffff1663e0eeb3d38b6040518263ffffffff1660e01b81526004016109399190613ba9565b6020604051808303815f875af1158015610955573d5f5f3e3d5ffd5b505050506040513d601f19601f820116820180604052508101906109799190614491565b90505f60075f8381526020019081526020015f20604051806101000160405290815f82015f9054906101000a900473ffffffffffffffffffffffffffffffffffffffff1673ffffffffffffffffffffffffffffffffffffffff1673ffffffffffffffffffffffffffffffffffffffff168152602001600182015f9054906101000a900473ffffffffffffffffffffffffffffffffffffffff1673ffffffffffffffffffffffffffffffffffffffff1673ffffffffffffffffffffffffffffffffffffffff168152602001600282015f9054906101000a900473ffffffffffffffffffffffffffffffffffffffff1673ffffffffffffffffffffffffffffffffffffffff1673ffffffffffffffffffffffffffffffffffffffff168152602001600382018054610aa7906144e9565b80601f0160208091040260200160405190810160405280929190818152602001828054610ad3906144e9565b8015610b1e5780601f10610af557610100808354040283529160200191610b1e565b820191905f5260205f20905b815481529060010190602001808311610b0157829003601f168201915b50505050508152602001600482018054610b37906144e9565b80601f0160208091040260200160405190810160405280929190818152602001828054610b63906144e9565b8015610bae5780601f10610b8557610100808354040283529160200191610bae565b820191905f5260205f20905b815481529060010190602001808311610b9157829003601f168201915b50505050508152602001600582018054610bc7906144e9565b80601f0160208091040260200160405190810160405280929190818152602001828054610bf3906144e9565b8015610c3e5780601f10610c1557610100808354040283529160200191610c3e565b820191905f5260205f20905b815481529060010190602001808311610c2157829003601f168201915b50505050508152602001600682018054610c57906144e9565b80601f0160208091040260200160405190810160405280929190818152602001828054610c83906144e9565b8015610cce5780601f10610ca557610100808354040283529160200191610cce565b820191905f5260205f20905b815481529060010190602001808311610cb157829003601f168201915b50505050508152602001600782015f9054906101000a900460ff16151515158152505090508a816040019073ffffffffffffffffffffffffffffffffffffffff16908173ffffffffffffffffffffffffffffffffffffffff168152505089898080601f0160208091040260200160405190810160405280939291908181526020018383808284375f81840152601f19601f82011690508083019250505050505050816060018190525087878080601f0160208091040260200160405190810160405280939291908181526020018383808284375f81840152601f19601f82011690508083019250505050505050816080018190525085858080601f0160208091040260200160405190810160405280939291908181526020018383808284375f81840152601f19601f820116905080830192505050505050508160a0018190525083838080601f0160208091040260200160405190810160405280939291908181526020018383808284375f81840152601f19601f820116905080830192505050505050508160c001819052505f73ffffffffffffffffffffffffffffffffffffffff168b73ffffffffffffffffffffffffffffffffffffffff16148160e001901515908115158152505060025460085f8481526020019081526020015f205f0181905550806040015173ffffffffffffffffffffffffffffffffffffffff16815f015173ffffffffffffffffffffffffffffffffffffffff167fcb7f82b085ed59e06c3230e8120bd35445378a29a889d150ffda71e80b39d06b836060015184608001518560a001518660c001518760e0015142604051610f3596959493929190614519565b60405180910390a35050505050505050505050565b5f60075f60045f9054906101000a900473ffffffffffffffffffffffffffffffffffffffff1673ffffffffffffffffffffffffffffffffffffffff1663e8378fbf856040518263ffffffff1660e01b8152600401610fa89190613ba9565b602060405180830381865afa158015610fc3573d5f5f3e3d5ffd5b505050506040513d601f19601f82011682018060405250810190610fe79190614491565b81526020019081526020015f206001015f9054906101000a900473ffffffffffffffffffffffffffffffffffffffff169050919050565b5f60085f60045f9054906101000a900473ffffffffffffffffffffffffffffffffffffffff1673ffffffffffffffffffffffffffffffffffffffff1663e8378fbf856040518263ffffffff1660e01b815260040161107c9190613ba9565b602060405180830381865afa158015611097573d5f5f3e3d5ffd5b505050506040513d601f19601f820116820180604052508101906110bb9190614491565b81526020019081526020015f20600401549050919050565b620186a081565b600981815481106110e9575f80fd5b905f5260205f20015f915054906101000a900473ffffffffffffffffffffffffffffffffffffffff1681565b60055f9054906101000a900473ffffffffffffffffffffffffffffffffffffffff1681565b600b5f9054906101000a900473ffffffffffffffffffffffffffffffffffffffff1681565b5f60075f8381526020019081526020015f206002015f9054906101000a900473ffffffffffffffffffffffffffffffffffffffff169050919050565b60025481565b6111a96136e5565b6111b25f61376c565b565b600281565b5f60065f9054906101000a900473ffffffffffffffffffffffffffffffffffffffff16905090565b6111e9613883565b60075f8381526020019081526020015f20604051806101000160405290815f82015f9054906101000a900473ffffffffffffffffffffffffffffffffffffffff1673ffffffffffffffffffffffffffffffffffffffff1673ffffffffffffffffffffffffffffffffffffffff168152602001600182015f9054906101000a900473ffffffffffffffffffffffffffffffffffffffff1673ffffffffffffffffffffffffffffffffffffffff1673ffffffffffffffffffffffffffffffffffffffff168152602001600282015f9054906101000a900473ffffffffffffffffffffffffffffffffffffffff1673ffffffffffffffffffffffffffffffffffffffff1673ffffffffffffffffffffffffffffffffffffffff168152602001600382018054611314906144e9565b80601f0160208091040260200160405190810160405280929190818152602001828054611340906144e9565b801561138b5780601f106113625761010080835404028352916020019161138b565b820191905f5260205f20905b81548152906001019060200180831161136e57829003601f168201915b505050505081526020016004820180546113a4906144e9565b80601f01602080910402602001604051908101604052809291908181526020018280546113d0906144e9565b801561141b5780601f106113f25761010080835404028352916020019161141b565b820191905f5260205f20905b8154815290600101906020018083116113fe57829003601f168201915b50505050508152602001600582018054611434906144e9565b80601f0160208091040260200160405190810160405280929190818152602001828054611460906144e9565b80156114ab5780601f10611482576101008083540402835291602001916114ab565b820191905f5260205f20905b81548152906001019060200180831161148e57829003601f168201915b505050505081526020016006820180546114c4906144e9565b80601f01602080910402602001604051908101604052809291908181526020018280546114f0906144e9565b801561153b5780601f106115125761010080835404028352916020019161153b565b820191905f5260205f20905b81548152906001019060200180831161151e57829003601f168201915b50505050508152602001600782015f9054906101000a900460ff1615151515815250509050919050565b5f5f5f9054906101000a900473ffffffffffffffffffffffffffffffffffffffff16905090565b611594613883565b5f60075f60045f9054906101000a900473ffffffffffffffffffffffffffffffffffffffff1673ffffffffffffffffffffffffffffffffffffffff1663e8378fbf866040518263ffffffff1660e01b81526004016115f29190613ba9565b602060405180830381865afa15801561160d573d5f5f3e3d5ffd5b505050506040513d601f19601f820116820180604052508101906116319190614491565b81526020019081526020015f20604051806101000160405290815f82015f9054906101000a900473ffffffffffffffffffffffffffffffffffffffff1673ffffffffffffffffffffffffffffffffffffffff1673ffffffffffffffffffffffffffffffffffffffff168152602001600182015f9054906101000a900473ffffffffffffffffffffffffffffffffffffffff1673ffffffffffffffffffffffffffffffffffffffff1673ffffffffffffffffffffffffffffffffffffffff168152602001600282015f9054906101000a900473ffffffffffffffffffffffffffffffffffffffff1673ffffffffffffffffffffffffffffffffffffffff1673ffffffffffffffffffffffffffffffffffffffff168152602001600382018054611758906144e9565b80601f0160208091040260200160405190810160405280929190818152602001828054611784906144e9565b80156117cf5780601f106117a6576101008083540402835291602001916117cf565b820191905f5260205f20905b8154815290600101906020018083116117b257829003601f168201915b505050505081526020016004820180546117e8906144e9565b80601f0160208091040260200160405190810160405280929190818152602001828054611814906144e9565b801561185f5780601f106118365761010080835404028352916020019161185f565b820191905f5260205f20905b81548152906001019060200180831161184257829003601f168201915b50505050508152602001600582018054611878906144e9565b80601f01602080910402602001604051908101604052809291908181526020018280546118a4906144e9565b80156118ef5780601f106118c6576101008083540402835291602001916118ef565b820191905f5260205f20905b8154815290600101906020018083116118d257829003601f168201915b50505050508152602001600682018054611908906144e9565b80601f0160208091040260200160405190810160405280929190818152602001828054611934906144e9565b801561197f5780601f106119565761010080835404028352916020019161197f565b820191905f5260205f20905b81548152906001019060200180831161196257829003601f168201915b50505050508152602001600782015f9054906101000a900460ff16151515158152505090505f73ffffffffffffffffffffffffffffffffffffffff16815f015173ffffffffffffffffffffffffffffffffffffffff1603611a15576040517f08c379a0000000000000000000000000000000000000000000000000000000008152600401611a0c906145de565b60405180910390fd5b80915050919050565b6008602052805f5260405f205f91509050805f0154908060010154908060020154908060030154908060040154908060050154908060060154905087565b60065f9054906101000a900473ffffffffffffffffffffffffffffffffffffffff1681565b6060611a8b61382d565b60055f9054906101000a900473ffffffffffffffffffffffffffffffffffffffff1673ffffffffffffffffffffffffffffffffffffffff163373ffffffffffffffffffffffffffffffffffffffff161480611b32575060065f9054906101000a900473ffffffffffffffffffffffffffffffffffffffff1673ffffffffffffffffffffffffffffffffffffffff163373ffffffffffffffffffffffffffffffffffffffff16145b611b71576040517f08c379a0000000000000000000000000000000000000000000000000000000008152600401611b689061466c565b60405180910390fd5b83835f818110611b8457611b8361468a565b5b9050602002016020810190611b999190613b6f565b73ffffffffffffffffffffffffffffffffffffffff1663095ea7b3600a5f9054906101000a900473ffffffffffffffffffffffffffffffffffffffff16876040518363ffffffff1660e01b8152600401611bf49291906146b7565b6020604051808303815f875af1158015611c10573d5f5f3e3d5ffd5b505050506040513d601f19601f82011682018060405250810190611c3491906143c4565b505f600a5f9054906101000a900473ffffffffffffffffffffffffffffffffffffffff1673ffffffffffffffffffffffffffffffffffffffff166338ed1739875f88888861012c42611c86919061470b565b6040518763ffffffff1660e01b8152600401611ca796959493929190614824565b5f604051808303815f875af1158015611cc2573d5f5f3e3d5ffd5b505050506040513d5f823e3d601f19601f82011682018060405250810190611cea91906149b6565b905080915050611cf8613873565b949350505050565b60605f60098054905067ffffffffffffffff811115611d2257611d2161487e565b5b604051908082528060200260200182016040528015611d5b57816020015b611d48613883565b815260200190600190039081611d405790505b5090505f5f90505b600980549050811015611ddf57611db460098281548110611d8757611d8661468a565b5b905f5260205f20015f9054906101000a900473ffffffffffffffffffffffffffffffffffffffff1661158c565b828281518110611dc757611dc661468a565b5b60200260200101819052508080600101915050611d63565b508091505090565b611def6136e5565b5f60075f8581526020019081526020015f20604051806101000160405290815f82015f9054906101000a900473ffffffffffffffffffffffffffffffffffffffff1673ffffffffffffffffffffffffffffffffffffffff1673ffffffffffffffffffffffffffffffffffffffff168152602001600182015f9054906101000a900473ffffffffffffffffffffffffffffffffffffffff1673ffffffffffffffffffffffffffffffffffffffff1673ffffffffffffffffffffffffffffffffffffffff168152602001600282015f9054906101000a900473ffffffffffffffffffffffffffffffffffffffff1673ffffffffffffffffffffffffffffffffffffffff1673ffffffffffffffffffffffffffffffffffffffff168152602001600382018054611f1b906144e9565b80601f0160208091040260200160405190810160405280929190818152602001828054611f47906144e9565b8015611f925780601f10611f6957610100808354040283529160200191611f92565b820191905f5260205f20905b815481529060010190602001808311611f7557829003601f168201915b50505050508152602001600482018054611fab906144e9565b80601f0160208091040260200160405190810160405280929190818152602001828054611fd7906144e9565b80156120225780601f10611ff957610100808354040283529160200191612022565b820191905f5260205f20905b81548152906001019060200180831161200557829003601f168201915b5050505050815260200160058201805461203b906144e9565b80601f0160208091040260200160405190810160405280929190818152602001828054612067906144e9565b80156120b25780601f10612089576101008083540402835291602001916120b2565b820191905f5260205f20905b81548152906001019060200180831161209557829003601f168201915b505050505081526020016006820180546120cb906144e9565b80601f01602080910402602001604051908101604052809291908181526020018280546120f7906144e9565b80156121425780601f1061211957610100808354040283529160200191612142565b820191905f5260205f20905b81548152906001019060200180831161212557829003601f168201915b50505050508152602001600782015f9054906101000a900460ff16151515158152505090505f5f60045f9054906101000a900473ffffffffffffffffffffffffffffffffffffffff1673ffffffffffffffffffffffffffffffffffffffff1663bcd658ad876040518263ffffffff1660e01b81526004016121c39190613920565b6040805180830381865afa1580156121dd573d5f5f3e3d5ffd5b505050506040513d601f19601f820116820180604052508101906122019190614a20565b915091506002600481111561221957612218614a5e565b5b82600481111561222c5761222b614a5e565b5b1461226c576040517f08c379a000000000000000000000000000000000000000000000000000000000815260040161226390614afb565b60405180910390fd5b5f8573ffffffffffffffffffffffffffffffffffffffff1663ebda16eb6040518163ffffffff1660e01b8152600401602060405180830381865afa1580156122b6573d5f5f3e3d5ffd5b505050506040513d601f19601f820116820180604052508101906122da9190614491565b905085845f019073ffffffffffffffffffffffffffffffffffffffff16908173ffffffffffffffffffffffffffffffffffffffff168152505084846020019073ffffffffffffffffffffffffffffffffffffffff16908173ffffffffffffffffffffffffffffffffffffffff1681525050600986908060018154018082558091505060019003905f5260205f20015f9091909190916101000a81548173ffffffffffffffffffffffffffffffffffffffff021916908373ffffffffffffffffffffffffffffffffffffffff1602179055508473ffffffffffffffffffffffffffffffffffffffff168673ffffffffffffffffffffffffffffffffffffffff16887fdbd3908ed1551f131cac0b0e54b86f03495799941eeb3290140b962f787409d460405160405180910390a45f600b5f9054906101000a900473ffffffffffffffffffffffffffffffffffffffff1673ffffffffffffffffffffffffffffffffffffffff1663c9c6539688600a5f9054906101000a900473ffffffffffffffffffffffffffffffffffffffff1673ffffffffffffffffffffffffffffffffffffffff1663ad5c46486040518163ffffffff1660e01b8152600401602060405180830381865afa1580156124af573d5f5f3e3d5ffd5b505050506040513d601f19601f820116820180604052508101906124d39190614b2d565b6040518363ffffffff1660e01b81526004016124f0929190614b58565b6020604051808303815f875af115801561250c573d5f5f3e3d5ffd5b505050506040513d601f19601f820116820180604052508101906125309190614b2d565b90508673ffffffffffffffffffffffffffffffffffffffff1663095ea7b3600a5f9054906101000a900473ffffffffffffffffffffffffffffffffffffffff168973ffffffffffffffffffffffffffffffffffffffff1663ebda16eb6040518163ffffffff1660e01b8152600401602060405180830381865afa1580156125b9573d5f5f3e3d5ffd5b505050506040513d601f19601f820116820180604052508101906125dd9190614491565b6040518363ffffffff1660e01b81526004016125fa9291906146b7565b6020604051808303815f875af1158015612616573d5f5f3e3d5ffd5b505050506040513d601f19601f8201168201806040525081019061263a91906143c4565b50600a5f9054906101000a900473ffffffffffffffffffffffffffffffffffffffff1673ffffffffffffffffffffffffffffffffffffffff1663f305d7198489855f5f5f61012c4261268c919061470b565b6040518863ffffffff1660e01b81526004016126ad96959493929190614b7f565b60606040518083038185885af11580156126c9573d5f5f3e3d5ffd5b50505050506040513d601f19601f820116820180604052508101906126ee9190614bde565b50505060045f9054906101000a900473ffffffffffffffffffffffffffffffffffffffff1673ffffffffffffffffffffffffffffffffffffffff1663abf599fc8989846040518463ffffffff1660e01b815260040161274f93929190614c2e565b5f604051808303815f87803b158015612766575f5ffd5b505af1158015612778573d5f5f3e3d5ffd5b505050505050505050505050565b6007602052805f5260405f205f91509050805f015f9054906101000a900473ffffffffffffffffffffffffffffffffffffffff1690806001015f9054906101000a900473ffffffffffffffffffffffffffffffffffffffff1690806002015f9054906101000a900473ffffffffffffffffffffffffffffffffffffffff1690806003018054612814906144e9565b80601f0160208091040260200160405190810160405280929190818152602001828054612840906144e9565b801561288b5780601f106128625761010080835404028352916020019161288b565b820191905f5260205f20905b81548152906001019060200180831161286e57829003601f168201915b5050505050908060040180546128a0906144e9565b80601f01602080910402602001604051908101604052809291908181526020018280546128cc906144e9565b80156129175780601f106128ee57610100808354040283529160200191612917565b820191905f5260205f20905b8154815290600101906020018083116128fa57829003601f168201915b50505050509080600501805461292c906144e9565b80601f0160208091040260200160405190810160405280929190818152602001828054612958906144e9565b80156129a35780601f1061297a576101008083540402835291602001916129a3565b820191905f5260205f20905b81548152906001019060200180831161298657829003601f168201915b5050505050908060060180546129b8906144e9565b80601f01602080910402602001604051908101604052809291908181526020018280546129e4906144e9565b8015612a2f5780601f10612a0657610100808354040283529160200191612a2f565b820191905f5260205f20905b815481529060010190602001808311612a1257829003601f168201915b505050505090806007015f9054906101000a900460ff16905088565b60055f9054906101000a900473ffffffffffffffffffffffffffffffffffffffff1673ffffffffffffffffffffffffffffffffffffffff163373ffffffffffffffffffffffffffffffffffffffff1614612ada576040517f08c379a0000000000000000000000000000000000000000000000000000000008152600401612ad190614cad565b60405180910390fd5b5f60085f60045f9054906101000a900473ffffffffffffffffffffffffffffffffffffffff1673ffffffffffffffffffffffffffffffffffffffff1663e8378fbf866040518263ffffffff1660e01b8152600401612b389190613ba9565b602060405180830381865afa158015612b53573d5f5f3e3d5ffd5b505050506040513d601f19601f82011682018060405250810190612b779190614491565b81526020019081526020015f206040518060e00160405290815f8201548152602001600182015481526020016002820154815260200160038201548152602001600482015481526020016005820154815260200160068201548152505090505f60085f60045f9054906101000a900473ffffffffffffffffffffffffffffffffffffffff1673ffffffffffffffffffffffffffffffffffffffff1663e8378fbf866040518263ffffffff1660e01b8152600401612c349190613ba9565b602060405180830381865afa158015612c4f573d5f5f3e3d5ffd5b505050506040513d601f19601f82011682018060405250810190612c739190614491565b81526020019081526020015f206040518060e00160405290815f82015481526020016001820154815260200160028201548152602001600382015481526020016004820154815260200160058201548152602001600682015481525050905060646003548360200151612ce69190614ccb565b612cf09190614d39565b8260200151612cff9190614d69565b82602001818152505060646003548260200151612d1c9190614ccb565b612d269190614d39565b8160200151612d35919061470b565b8160200181815250508273ffffffffffffffffffffffffffffffffffffffff168473ffffffffffffffffffffffffffffffffffffffff167faecea04ec10c6c0b9d91c8e45440289d97d5737d78401b23bc3ca82031eae93284602001518460200151604051612da5929190614d9c565b60405180910390a350505050565b612dbb61382d565b612dc36136e5565b5f612dcd8361158c565b90508173ffffffffffffffffffffffffffffffffffffffff16816040015173ffffffffffffffffffffffffffffffffffffffff1614612e41576040517f08c379a0000000000000000000000000000000000000000000000000000000008152600401612e3890614e0d565b60405180910390fd5b8060e0015115612e86576040517f08c379a0000000000000000000000000000000000000000000000000000000008152600401612e7d90614e75565b60405180910390fd5b60045f9054906101000a900473ffffffffffffffffffffffffffffffffffffffff1673ffffffffffffffffffffffffffffffffffffffff1663222b15fb836040518263ffffffff1660e01b8152600401612ee09190613ba9565b602060405180830381865afa158015612efb573d5f5f3e3d5ffd5b505050506040513d601f19601f82011682018060405250810190612f1f91906143c4565b15612f5f576040517f08c379a0000000000000000000000000000000000000000000000000000000008152600401612f5690614edd565b60405180910390fd5b60018160e001901515908115158152505060085f60045f9054906101000a900473ffffffffffffffffffffffffffffffffffffffff1673ffffffffffffffffffffffffffffffffffffffff1663e8378fbf866040518263ffffffff1660e01b8152600401612fcd9190613ba9565b602060405180830381865afa158015612fe8573d5f5f3e3d5ffd5b505050506040513d601f19601f8201168201806040525081019061300c9190614491565b81526020019081526020015f206004015460085f60045f9054906101000a900473ffffffffffffffffffffffffffffffffffffffff1673ffffffffffffffffffffffffffffffffffffffff1663e8378fbf876040518263ffffffff1660e01b815260040161307a9190613ba9565b602060405180830381865afa158015613095573d5f5f3e3d5ffd5b505050506040513d601f19601f820116820180604052508101906130b99190614491565b81526020019081526020015f205f0181905550805f015173ffffffffffffffffffffffffffffffffffffffff1663aad3ec9682604001516064600560045f9054906101000a900473ffffffffffffffffffffffffffffffffffffffff1673ffffffffffffffffffffffffffffffffffffffff16632ff2e9dc6040518163ffffffff1660e01b8152600401602060405180830381865afa15801561315e573d5f5f3e3d5ffd5b505050506040513d601f19601f820116820180604052508101906131829190614491565b61318c9190614ccb565b6131969190614d39565b6040518363ffffffff1660e01b81526004016131b39291906146b7565b5f604051808303815f87803b1580156131ca575f5ffd5b505af11580156131dc573d5f5f3e3d5ffd5b50505050506131e9613873565b5050565b5f60055f9054906101000a900473ffffffffffffffffffffffffffffffffffffffff16905090565b60045f9054906101000a900473ffffffffffffffffffffffffffffffffffffffff1681565b613242613883565b60075f60045f9054906101000a900473ffffffffffffffffffffffffffffffffffffffff1673ffffffffffffffffffffffffffffffffffffffff1663e8378fbf856040518263ffffffff1660e01b815260040161329f9190613ba9565b602060405180830381865afa1580156132ba573d5f5f3e3d5ffd5b505050506040513d601f19601f820116820180604052508101906132de9190614491565b81526020019081526020015f20604051806101000160405290815f82015f9054906101000a900473ffffffffffffffffffffffffffffffffffffffff1673ffffffffffffffffffffffffffffffffffffffff1673ffffffffffffffffffffffffffffffffffffffff168152602001600182015f9054906101000a900473ffffffffffffffffffffffffffffffffffffffff1673ffffffffffffffffffffffffffffffffffffffff1673ffffffffffffffffffffffffffffffffffffffff168152602001600282015f9054906101000a900473ffffffffffffffffffffffffffffffffffffffff1673ffffffffffffffffffffffffffffffffffffffff1673ffffffffffffffffffffffffffffffffffffffff168152602001600382018054613405906144e9565b80601f0160208091040260200160405190810160405280929190818152602001828054613431906144e9565b801561347c5780601f106134535761010080835404028352916020019161347c565b820191905f5260205f20905b81548152906001019060200180831161345f57829003601f168201915b50505050508152602001600482018054613495906144e9565b80601f01602080910402602001604051908101604052809291908181526020018280546134c1906144e9565b801561350c5780601f106134e35761010080835404028352916020019161350c565b820191905f5260205f20905b8154815290600101906020018083116134ef57829003601f168201915b50505050508152602001600582018054613525906144e9565b80601f0160208091040260200160405190810160405280929190818152602001828054613551906144e9565b801561359c5780601f106135735761010080835404028352916020019161359c565b820191905f5260205f20905b81548152906001019060200180831161357f57829003601f168201915b505050505081526020016006820180546135b5906144e9565b80601f01602080910402602001604051908101604052809291908181526020018280546135e1906144e9565b801561362c5780601f106136035761010080835404028352916020019161362c565b820191905f5260205f20905b81548152906001019060200180831161360f57829003601f168201915b50505050508152602001600782015f9054906101000a900460ff1615151515815250509050919050565b60035481565b6136646136e5565b5f73ffffffffffffffffffffffffffffffffffffffff168173ffffffffffffffffffffffffffffffffffffffff16036136d4575f6040517f1e4fbdf70000000000000000000000000000000000000000000000000000000081526004016136cb9190613ba9565b60405180910390fd5b6136dd8161376c565b50565b600181565b6136ed61387c565b73ffffffffffffffffffffffffffffffffffffffff1661370b611565565b73ffffffffffffffffffffffffffffffffffffffff161461376a5761372e61387c565b6040517f118cdaa70000000000000000000000000000000000000000000000000000000081526004016137619190613ba9565b60405180910390fd5b565b5f5f5f9054906101000a900473ffffffffffffffffffffffffffffffffffffffff169050815f5f6101000a81548173ffffffffffffffffffffffffffffffffffffffff021916908373ffffffffffffffffffffffffffffffffffffffff1602179055508173ffffffffffffffffffffffffffffffffffffffff168173ffffffffffffffffffffffffffffffffffffffff167f8be0079c531659141344cd1fd0a4f28419497f9722a3daafe3b4186f6b6457e060405160405180910390a35050565b600260015403613869576040517f3ee5aeb500000000000000000000000000000000000000000000000000000000815260040160405180910390fd5b6002600181905550565b60018081905550565b5f33905090565b6040518061010001604052805f73ffffffffffffffffffffffffffffffffffffffff1681526020015f73ffffffffffffffffffffffffffffffffffffffff1681526020015f73ffffffffffffffffffffffffffffffffffffffff168152602001606081526020016060815260200160608152602001606081526020015f151581525090565b5f819050919050565b61391a81613908565b82525050565b5f6020820190506139335f830184613911565b92915050565b5f73ffffffffffffffffffffffffffffffffffffffff82169050919050565b5f819050919050565b5f61397b61397661397184613939565b613958565b613939565b9050919050565b5f61398c82613961565b9050919050565b5f61399d82613982565b9050919050565b6139ad81613993565b82525050565b5f6020820190506139c65f8301846139a4565b92915050565b5f604051905090565b5f5ffd5b5f5ffd5b5f6139e782613939565b9050919050565b6139f7816139dd565b8114613a01575f5ffd5b50565b5f81359050613a12816139ee565b92915050565b5f5ffd5b5f5ffd5b5f5ffd5b5f5f83601f840112613a3957613a38613a18565b5b8235905067ffffffffffffffff811115613a5657613a55613a1c565b5b602083019150836001820283011115613a7257613a71613a20565b5b9250929050565b5f5f5f5f5f5f5f5f5f60a08a8c031215613a9657613a956139d5565b5b5f613aa38c828d01613a04565b99505060208a013567ffffffffffffffff811115613ac457613ac36139d9565b5b613ad08c828d01613a24565b985098505060408a013567ffffffffffffffff811115613af357613af26139d9565b5b613aff8c828d01613a24565b965096505060608a013567ffffffffffffffff811115613b2257613b216139d9565b5b613b2e8c828d01613a24565b945094505060808a013567ffffffffffffffff811115613b5157613b506139d9565b5b613b5d8c828d01613a24565b92509250509295985092959850929598565b5f60208284031215613b8457613b836139d5565b5b5f613b9184828501613a04565b91505092915050565b613ba3816139dd565b82525050565b5f602082019050613bbc5f830184613b9a565b92915050565b613bcb81613908565b8114613bd5575f5ffd5b50565b5f81359050613be681613bc2565b92915050565b5f60208284031215613c0157613c006139d5565b5b5f613c0e84828501613bd8565b91505092915050565b5f613c2182613982565b9050919050565b613c3181613c17565b82525050565b5f602082019050613c4a5f830184613c28565b92915050565b5f613c5a82613982565b9050919050565b613c6a81613c50565b82525050565b5f602082019050613c835f830184613c61565b92915050565b5f613c9382613982565b9050919050565b613ca381613c89565b82525050565b5f602082019050613cbc5f830184613c9a565b92915050565b613ccb816139dd565b82525050565b5f81519050919050565b5f82825260208201905092915050565b8281835e5f83830152505050565b5f601f19601f8301169050919050565b5f613d1382613cd1565b613d1d8185613cdb565b9350613d2d818560208601613ceb565b613d3681613cf9565b840191505092915050565b5f8115159050919050565b613d5581613d41565b82525050565b5f61010083015f830151613d715f860182613cc2565b506020830151613d846020860182613cc2565b506040830151613d976040860182613cc2565b5060608301518482036060860152613daf8282613d09565b91505060808301518482036080860152613dc98282613d09565b91505060a083015184820360a0860152613de38282613d09565b91505060c083015184820360c0860152613dfd8282613d09565b91505060e0830151613e1260e0860182613d4c565b508091505092915050565b5f6020820190508181035f830152613e358184613d5b565b905092915050565b5f60e082019050613e505f83018a613911565b613e5d6020830189613911565b613e6a6040830188613911565b613e776060830187613911565b613e846080830186613911565b613e9160a0830185613911565b613e9e60c0830184613911565b98975050505050505050565b5f5f83601f840112613ebf57613ebe613a18565b5b8235905067ffffffffffffffff811115613edc57613edb613a1c565b5b602083019150836020820283011115613ef857613ef7613a20565b5b9250929050565b5f5f5f5f60608587031215613f1757613f166139d5565b5b5f613f2487828801613bd8565b945050602085013567ffffffffffffffff811115613f4557613f446139d9565b5b613f5187828801613eaa565b93509350506040613f6487828801613a04565b91505092959194509250565b5f81519050919050565b5f82825260208201905092915050565b5f819050602082019050919050565b613fa281613908565b82525050565b5f613fb38383613f99565b60208301905092915050565b5f602082019050919050565b5f613fd582613f70565b613fdf8185613f7a565b9350613fea83613f8a565b805f5b8381101561401a5781516140018882613fa8565b975061400c83613fbf565b925050600181019050613fed565b5085935050505092915050565b5f6020820190508181035f83015261403f8184613fcb565b905092915050565b5f81519050919050565b5f82825260208201905092915050565b5f819050602082019050919050565b5f61010083015f8301516140865f860182613cc2565b5060208301516140996020860182613cc2565b5060408301516140ac6040860182613cc2565b50606083015184820360608601526140c48282613d09565b915050608083015184820360808601526140de8282613d09565b91505060a083015184820360a08601526140f88282613d09565b91505060c083015184820360c08601526141128282613d09565b91505060e083015161412760e0860182613d4c565b508091505092915050565b5f61413d8383614070565b905092915050565b5f602082019050919050565b5f61415b82614047565b6141658185614051565b93508360208202850161417785614061565b805f5b858110156141b257848403895281516141938582614132565b945061419e83614145565b925060208a0199505060018101905061417a565b50829750879550505050505092915050565b5f6020820190508181035f8301526141dc8184614151565b905092915050565b5f5f5f606084860312156141fb576141fa6139d5565b5b5f61420886828701613bd8565b935050602061421986828701613a04565b925050604061422a86828701613a04565b9150509250925092565b5f82825260208201905092915050565b5f61424e82613cd1565b6142588185614234565b9350614268818560208601613ceb565b61427181613cf9565b840191505092915050565b61428581613d41565b82525050565b5f6101008201905061429f5f83018b613b9a565b6142ac602083018a613b9a565b6142b96040830189613b9a565b81810360608301526142cb8188614244565b905081810360808301526142df8187614244565b905081810360a08301526142f38186614244565b905081810360c08301526143078185614244565b905061431660e083018461427c565b9998505050505050505050565b5f5f60408385031215614339576143386139d5565b5b5f61434685828601613a04565b925050602061435785828601613a04565b9150509250929050565b5f61436b82613982565b9050919050565b61437b81614361565b82525050565b5f6020820190506143945f830184614372565b92915050565b6143a381613d41565b81146143ad575f5ffd5b50565b5f815190506143be8161439a565b92915050565b5f602082840312156143d9576143d86139d5565b5b5f6143e6848285016143b0565b91505092915050565b7f43726561746f7220697320626c6f636b6564206f7220616c72656164792068615f8201527f73206120746f6b656e0000000000000000000000000000000000000000000000602082015250565b5f614449602983614234565b9150614454826143ef565b604082019050919050565b5f6020820190508181035f8301526144768161443d565b9050919050565b5f8151905061448b81613bc2565b92915050565b5f602082840312156144a6576144a56139d5565b5b5f6144b38482850161447d565b91505092915050565b7f4e487b71000000000000000000000000000000000000000000000000000000005f52602260045260245ffd5b5f600282049050600182168061450057607f821691505b602082108103614513576145126144bc565b5b50919050565b5f60c0820190508181035f8301526145318189614244565b905081810360208301526145458188614244565b905081810360408301526145598187614244565b9050818103606083015261456d8186614244565b905061457c608083018561427c565b61458960a0830184613911565b979650505050505050565b7f546f6b656e206e6f7420637265617465640000000000000000000000000000005f82015250565b5f6145c8601183614234565b91506145d382614594565b602082019050919050565b5f6020820190508181035f8301526145f5816145bc565b9050919050565b7f4f6e6c7920626174746c65206f7220656e6761676520746f206561726e2063615f8201527f6e20737761700000000000000000000000000000000000000000000000000000602082015250565b5f614656602683614234565b9150614661826145fc565b604082019050919050565b5f6020820190508181035f8301526146838161464a565b9050919050565b7f4e487b71000000000000000000000000000000000000000000000000000000005f52603260045260245ffd5b5f6040820190506146ca5f830185613b9a565b6146d76020830184613911565b9392505050565b7f4e487b71000000000000000000000000000000000000000000000000000000005f52601160045260245ffd5b5f61471582613908565b915061472083613908565b9250828201905080821115614738576147376146de565b5b92915050565b5f819050919050565b5f61476161475c6147578461473e565b613958565b613908565b9050919050565b61477181614747565b82525050565b5f82825260208201905092915050565b5f819050919050565b5f61479b8383613cc2565b60208301905092915050565b5f6147b56020840184613a04565b905092915050565b5f602082019050919050565b5f6147d48385614777565b93506147df82614787565b805f5b85811015614817576147f482846147a7565b6147fe8882614790565b9750614809836147bd565b9250506001810190506147e2565b5085925050509392505050565b5f60a0820190506148375f830189613911565b6148446020830188614768565b81810360408301526148578186886147c9565b90506148666060830185613b9a565b6148736080830184613911565b979650505050505050565b7f4e487b71000000000000000000000000000000000000000000000000000000005f52604160045260245ffd5b6148b482613cf9565b810181811067ffffffffffffffff821117156148d3576148d261487e565b5b80604052505050565b5f6148e56139cc565b90506148f182826148ab565b919050565b5f67ffffffffffffffff8211156149105761490f61487e565b5b602082029050602081019050919050565b5f61493361492e846148f6565b6148dc565b9050808382526020820190506020840283018581111561495657614955613a20565b5b835b8181101561497f578061496b888261447d565b845260208401935050602081019050614958565b5050509392505050565b5f82601f83011261499d5761499c613a18565b5b81516149ad848260208601614921565b91505092915050565b5f602082840312156149cb576149ca6139d5565b5b5f82015167ffffffffffffffff8111156149e8576149e76139d9565b5b6149f484828501614989565b91505092915050565b60058110614a09575f5ffd5b50565b5f81519050614a1a816149fd565b92915050565b5f5f60408385031215614a3657614a356139d5565b5b5f614a4385828601614a0c565b9250506020614a548582860161447d565b9150509250929050565b7f4e487b71000000000000000000000000000000000000000000000000000000005f52602160045260245ffd5b7f46616972206c61756e6368206e6f7420726561647920746f20636f6d706c65745f8201527f6500000000000000000000000000000000000000000000000000000000000000602082015250565b5f614ae5602183614234565b9150614af082614a8b565b604082019050919050565b5f6020820190508181035f830152614b1281614ad9565b9050919050565b5f81519050614b27816139ee565b92915050565b5f60208284031215614b4257614b416139d5565b5b5f614b4f84828501614b19565b91505092915050565b5f604082019050614b6b5f830185613b9a565b614b786020830184613b9a565b9392505050565b5f60c082019050614b925f830189613b9a565b614b9f6020830188613911565b614bac6040830187614768565b614bb96060830186614768565b614bc66080830185613b9a565b614bd360a0830184613911565b979650505050505050565b5f5f5f60608486031215614bf557614bf46139d5565b5b5f614c028682870161447d565b9350506020614c138682870161447d565b9250506040614c248682870161447d565b9150509250925092565b5f606082019050614c415f830186613911565b614c4e6020830185613b9a565b614c5b6040830184613b9a565b949350505050565b7f756e617574686f72697a656400000000000000000000000000000000000000005f82015250565b5f614c97600c83614234565b9150614ca282614c63565b602082019050919050565b5f6020820190508181035f830152614cc481614c8b565b9050919050565b5f614cd582613908565b9150614ce083613908565b9250828202614cee81613908565b91508282048414831517614d0557614d046146de565b5b5092915050565b7f4e487b71000000000000000000000000000000000000000000000000000000005f52601260045260245ffd5b5f614d4382613908565b9150614d4e83613908565b925082614d5e57614d5d614d0c565b5b828204905092915050565b5f614d7382613908565b9150614d7e83613908565b9250828203905081811115614d9657614d956146de565b5b92915050565b5f604082019050614daf5f830185613911565b614dbc6020830184613911565b9392505050565b7f43726561746f72206d69736d61746368000000000000000000000000000000005f82015250565b5f614df7601083614234565b9150614e0282614dc3565b602082019050919050565b5f6020820190508181035f830152614e2481614deb565b9050919050565b7f416c726561647920636c61696d65642062792063726561746f720000000000005f82015250565b5f614e5f601a83614234565b9150614e6a82614e2b565b602082019050919050565b5f6020820190508181035f830152614e8c81614e53565b9050919050565b7f43726561746f7220616c726561647920686173206120746f6b656e00000000005f82015250565b5f614ec7601b83614234565b9150614ed282614e93565b602082019050919050565b5f6020820190508181035f830152614ef481614ebb565b905091905056fea26469706673582212208fd50d2bd552ad7fb0957e8e8a3f75a9c2c5d6ad7f26a3dfc20e2465df006f7564736f6c634300081c0033",
  "linkReferences": {},
  "deployedLinkReferences": {},
  "immutableReferences": {},
  "inputSourceName": "project/contracts/MemedFactory.sol",
  "buildInfoId": "solc-0_8_28-8a335b4dbecdf22c2c747ce20952671aee752173"
}