{
  "_format": "hh3-artifact-1",
  "contractName": "MemedTokenSale_test",
  "sourceName": "contracts/MemedTokenSale_test.sol",
  "abi": [
    {
      "inputs": [],
      "stateMutability": "nonpayable",
      "type": "constructor"
    },
    {
      "inputs": [
        {
          "internalType": "address",
          "name": "owner",
          "type": "address"
        }
      ],
      "name": "OwnableInvalidOwner",
      "type": "error"
    },
    {
      "inputs": [
        {
          "internalType": "address",
          "name": "account",
          "type": "address"
        }
      ],
      "name": "OwnableUnauthorizedAccount",
      "type": "error"
    },
    {
      "inputs": [],
      "name": "ReentrancyGuardReentrantCall",
      "type": "error"
    },
    {
      "anonymous": false,
      "inputs": [
        {
          "indexed": true,
          "internalType": "uint256",
          "name": "id",
          "type": "uint256"
        },
        {
          "indexed": true,
          "internalType": "address",
          "name": "user",
          "type": "address"
        },
        {
          "indexed": false,
          "internalType": "uint256",
          "name": "tokens",
          "type": "uint256"
        },
        {
          "indexed": false,
          "internalType": "uint256",
          "name": "refund",
          "type": "uint256"
        }
      ],
      "name": "Claimed",
      "type": "event"
    },
    {
      "anonymous": false,
      "inputs": [
        {
          "indexed": true,
          "internalType": "uint256",
          "name": "id",
          "type": "uint256"
        },
        {
          "indexed": true,
          "internalType": "address",
          "name": "user",
          "type": "address"
        },
        {
          "indexed": false,
          "internalType": "uint256",
          "name": "amount",
          "type": "uint256"
        },
        {
          "indexed": false,
          "internalType": "uint256",
          "name": "tokens",
          "type": "uint256"
        }
      ],
      "name": "CommitmentCancelled",
      "type": "event"
    },
    {
      "anonymous": false,
      "inputs": [
        {
          "indexed": true,
          "internalType": "uint256",
          "name": "id",
          "type": "uint256"
        },
        {
          "indexed": true,
          "internalType": "address",
          "name": "user",
          "type": "address"
        },
        {
          "indexed": false,
          "internalType": "uint256",
          "name": "amount",
          "type": "uint256"
        },
        {
          "indexed": false,
          "internalType": "uint256",
          "name": "tokens",
          "type": "uint256"
        }
      ],
      "name": "CommitmentMade",
      "type": "event"
    },
    {
      "anonymous": false,
      "inputs": [
        {
          "indexed": true,
          "internalType": "uint256",
          "name": "id",
          "type": "uint256"
        },
        {
          "indexed": true,
          "internalType": "address",
          "name": "token",
          "type": "address"
        },
        {
          "indexed": true,
          "internalType": "address",
          "name": "pair",
          "type": "address"
        },
        {
          "indexed": false,
          "internalType": "uint256",
          "name": "totalRaised",
          "type": "uint256"
        }
      ],
      "name": "FairLaunchCompleted",
      "type": "event"
    },
    {
      "anonymous": false,
      "inputs": [
        {
          "indexed": true,
          "internalType": "uint256",
          "name": "id",
          "type": "uint256"
        },
        {
          "indexed": false,
          "internalType": "uint256",
          "name": "totalRaised",
          "type": "uint256"
        }
      ],
      "name": "FairLaunchFailed",
      "type": "event"
    },
    {
      "anonymous": false,
      "inputs": [
        {
          "indexed": true,
          "internalType": "uint256",
          "name": "id",
          "type": "uint256"
        },
        {
          "indexed": true,
          "internalType": "address",
          "name": "creator",
          "type": "address"
        },
        {
          "indexed": false,
          "internalType": "uint256",
          "name": "start",
          "type": "uint256"
        },
        {
          "indexed": false,
          "internalType": "uint256",
          "name": "end",
          "type": "uint256"
        }
      ],
      "name": "FairLaunchStarted",
      "type": "event"
    },
    {
      "anonymous": false,
      "inputs": [
        {
          "indexed": true,
          "internalType": "address",
          "name": "previousOwner",
          "type": "address"
        },
        {
          "indexed": true,
          "internalType": "address",
          "name": "newOwner",
          "type": "address"
        }
      ],
      "name": "OwnershipTransferred",
      "type": "event"
    },
    {
      "inputs": [],
      "name": "DECIMALS",
      "outputs": [
        {
          "internalType": "uint256",
          "name": "",
          "type": "uint256"
        }
      ],
      "stateMutability": "view",
      "type": "function"
    },
    {
      "inputs": [],
      "name": "FAIR_LAUNCH_COOLDOWN",
      "outputs": [
        {
          "internalType": "uint256",
          "name": "",
          "type": "uint256"
        }
      ],
      "stateMutability": "view",
      "type": "function"
    },
    {
      "inputs": [],
      "name": "FAIR_LAUNCH_DURATION",
      "outputs": [
        {
          "internalType": "uint256",
          "name": "",
          "type": "uint256"
        }
      ],
      "stateMutability": "view",
      "type": "function"
    },
    {
      "inputs": [],
      "name": "LP_ETH",
      "outputs": [
        {
          "internalType": "uint256",
          "name": "",
          "type": "uint256"
        }
      ],
      "stateMutability": "view",
      "type": "function"
    },
    {
      "inputs": [],
      "name": "MEMED_TEST_ETH",
      "outputs": [
        {
          "internalType": "address",
          "name": "",
          "type": "address"
        }
      ],
      "stateMutability": "view",
      "type": "function"
    },
    {
      "inputs": [],
      "name": "PRICE_PER_TOKEN_WEI",
      "outputs": [
        {
          "internalType": "uint256",
          "name": "",
          "type": "uint256"
        }
      ],
      "stateMutability": "view",
      "type": "function"
    },
    {
      "inputs": [],
      "name": "RAISE_ETH",
      "outputs": [
        {
          "internalType": "uint256",
          "name": "",
          "type": "uint256"
        }
      ],
      "stateMutability": "view",
      "type": "function"
    },
    {
      "inputs": [],
      "name": "TOTAL_FOR_SALE",
      "outputs": [
        {
          "internalType": "uint256",
          "name": "",
          "type": "uint256"
        }
      ],
      "stateMutability": "view",
      "type": "function"
    },
    {
      "inputs": [
        {
          "internalType": "address",
          "name": "",
          "type": "address"
        }
      ],
      "name": "blockedCreators",
      "outputs": [
        {
          "internalType": "uint256",
          "name": "",
          "type": "uint256"
        }
      ],
      "stateMutability": "view",
      "type": "function"
    },
    {
      "inputs": [
        {
          "internalType": "uint256",
          "name": "_id",
          "type": "uint256"
        }
      ],
      "name": "cancelCommit",
      "outputs": [],
      "stateMutability": "nonpayable",
      "type": "function"
    },
    {
      "inputs": [
        {
          "internalType": "uint256",
          "name": "_id",
          "type": "uint256"
        }
      ],
      "name": "claim",
      "outputs": [],
      "stateMutability": "nonpayable",
      "type": "function"
    },
    {
      "inputs": [
        {
          "internalType": "uint256",
          "name": "_id",
          "type": "uint256"
        },
        {
          "internalType": "uint256",
          "name": "amount",
          "type": "uint256"
        }
      ],
      "name": "commitToFairLaunch",
      "outputs": [],
      "stateMutability": "nonpayable",
      "type": "function"
    },
    {
      "inputs": [
        {
          "internalType": "uint256",
          "name": "_id",
          "type": "uint256"
        },
        {
          "internalType": "address",
          "name": "_token",
          "type": "address"
        },
        {
          "internalType": "address",
          "name": "_pair",
          "type": "address"
        }
      ],
      "name": "completeFairLaunch",
      "outputs": [],
      "stateMutability": "nonpayable",
      "type": "function"
    },
    {
      "inputs": [
        {
          "internalType": "uint256",
          "name": "",
          "type": "uint256"
        }
      ],
      "name": "fairLaunchData",
      "outputs": [
        {
          "internalType": "enum FairLaunchStatus",
          "name": "status",
          "type": "uint8"
        },
        {
          "internalType": "uint256",
          "name": "fairLaunchStartTime",
          "type": "uint256"
        },
        {
          "internalType": "uint256",
          "name": "totalCommitted",
          "type": "uint256"
        },
        {
          "internalType": "uint256",
          "name": "totalSold",
          "type": "uint256"
        },
        {
          "internalType": "address",
          "name": "uniswapPair",
          "type": "address"
        },
        {
          "internalType": "uint256",
          "name": "createdAt",
          "type": "uint256"
        }
      ],
      "stateMutability": "view",
      "type": "function"
    },
    {
      "inputs": [
        {
          "internalType": "uint256",
          "name": "_id",
          "type": "uint256"
        }
      ],
      "name": "finalizeSale",
      "outputs": [],
      "stateMutability": "nonpayable",
      "type": "function"
    },
    {
      "inputs": [
        {
          "internalType": "uint256",
          "name": "_id",
          "type": "uint256"
        },
        {
          "internalType": "address",
          "name": "user",
          "type": "address"
        }
      ],
      "name": "getExpectedClaim",
      "outputs": [
        {
          "internalType": "uint256",
          "name": "tokens",
          "type": "uint256"
        },
        {
          "internalType": "uint256",
          "name": "refundAmount",
          "type": "uint256"
        }
      ],
      "stateMutability": "view",
      "type": "function"
    },
    {
      "inputs": [
        {
          "internalType": "address",
          "name": "_t",
          "type": "address"
        }
      ],
      "name": "getFairLaunchActive",
      "outputs": [
        {
          "internalType": "bool",
          "name": "",
          "type": "bool"
        }
      ],
      "stateMutability": "view",
      "type": "function"
    },
    {
      "inputs": [
        {
          "internalType": "uint256",
          "name": "_id",
          "type": "uint256"
        }
      ],
      "name": "getFairLaunchStatus",
      "outputs": [
        {
          "internalType": "enum FairLaunchStatus",
          "name": "",
          "type": "uint8"
        }
      ],
      "stateMutability": "view",
      "type": "function"
    },
    {
      "inputs": [
        {
          "internalType": "uint256",
          "name": "_id",
          "type": "uint256"
        },
        {
          "internalType": "address",
          "name": "u",
          "type": "address"
        }
      ],
      "name": "getUserCommitment",
      "outputs": [
        {
          "components": [
            {
              "internalType": "uint256",
              "name": "amount",
              "type": "uint256"
            },
            {
              "internalType": "uint256",
              "name": "tokenAmount",
              "type": "uint256"
            },
            {
              "internalType": "bool",
              "name": "claimed",
              "type": "bool"
            },
            {
              "internalType": "bool",
              "name": "refunded",
              "type": "bool"
            }
          ],
          "internalType": "struct Commitment",
          "name": "",
          "type": "tuple"
        }
      ],
      "stateMutability": "view",
      "type": "function"
    },
    {
      "inputs": [],
      "name": "id",
      "outputs": [
        {
          "internalType": "uint256",
          "name": "",
          "type": "uint256"
        }
      ],
      "stateMutability": "view",
      "type": "function"
    },
    {
      "inputs": [
        {
          "internalType": "uint256",
          "name": "_id",
          "type": "uint256"
        }
      ],
      "name": "isCompletable",
      "outputs": [
        {
          "internalType": "bool",
          "name": "",
          "type": "bool"
        }
      ],
      "stateMutability": "view",
      "type": "function"
    },
    {
      "inputs": [
        {
          "internalType": "address",
          "name": "_c",
          "type": "address"
        }
      ],
      "name": "isCreatorBlocked",
      "outputs": [
        {
          "internalType": "bool",
          "name": "",
          "type": "bool"
        },
        {
          "internalType": "uint256",
          "name": "",
          "type": "uint256"
        }
      ],
      "stateMutability": "view",
      "type": "function"
    },
    {
      "inputs": [
        {
          "internalType": "address",
          "name": "_c",
          "type": "address"
        }
      ],
      "name": "isMintable",
      "outputs": [
        {
          "internalType": "bool",
          "name": "",
          "type": "bool"
        }
      ],
      "stateMutability": "view",
      "type": "function"
    },
    {
      "inputs": [
        {
          "internalType": "uint256",
          "name": "_id",
          "type": "uint256"
        }
      ],
      "name": "isRefundable",
      "outputs": [
        {
          "internalType": "bool",
          "name": "",
          "type": "bool"
        }
      ],
      "stateMutability": "view",
      "type": "function"
    },
    {
      "inputs": [],
      "name": "memedFactory",
      "outputs": [
        {
          "internalType": "contract IMemedFactory",
          "name": "",
          "type": "address"
        }
      ],
      "stateMutability": "view",
      "type": "function"
    },
    {
      "inputs": [],
      "name": "owner",
      "outputs": [
        {
          "internalType": "address",
          "name": "",
          "type": "address"
        }
      ],
      "stateMutability": "view",
      "type": "function"
    },
    {
      "inputs": [
        {
          "internalType": "uint256",
          "name": "tokenAmount",
          "type": "uint256"
        }
      ],
      "name": "quoteNetForTokens",
      "outputs": [
        {
          "internalType": "uint256",
          "name": "",
          "type": "uint256"
        }
      ],
      "stateMutability": "pure",
      "type": "function"
    },
    {
      "inputs": [
        {
          "internalType": "uint256",
          "name": "_id",
          "type": "uint256"
        }
      ],
      "name": "refund",
      "outputs": [],
      "stateMutability": "nonpayable",
      "type": "function"
    },
    {
      "inputs": [],
      "name": "renounceOwnership",
      "outputs": [],
      "stateMutability": "nonpayable",
      "type": "function"
    },
    {
      "inputs": [
        {
          "internalType": "address",
          "name": "_f",
          "type": "address"
        }
      ],
      "name": "setFactory",
      "outputs": [],
      "stateMutability": "nonpayable",
      "type": "function"
    },
    {
      "inputs": [
        {
          "internalType": "address",
          "name": "_creator",
          "type": "address"
        }
      ],
      "name": "startFairLaunch",
      "outputs": [
        {
          "internalType": "uint256",
          "name": "",
          "type": "uint256"
        }
      ],
      "stateMutability": "nonpayable",
      "type": "function"
    },
    {
      "inputs": [
        {
          "internalType": "address",
          "name": "",
          "type": "address"
        }
      ],
      "name": "tokenIdByAddress",
      "outputs": [
        {
          "internalType": "uint256",
          "name": "",
          "type": "uint256"
        }
      ],
      "stateMutability": "view",
      "type": "function"
    },
    {
      "inputs": [
        {
          "internalType": "address",
          "name": "",
          "type": "address"
        },
        {
          "internalType": "uint256",
          "name": "",
          "type": "uint256"
        }
      ],
      "name": "tokenIdsByCreator",
      "outputs": [
        {
          "internalType": "uint256",
          "name": "",
          "type": "uint256"
        }
      ],
      "stateMutability": "view",
      "type": "function"
    },
    {
      "inputs": [
        {
          "internalType": "address",
          "name": "newOwner",
          "type": "address"
        }
      ],
      "name": "transferOwnership",
      "outputs": [],
      "stateMutability": "nonpayable",
      "type": "function"
    }
  ],
  "bytecode": "0x6080604052348015600e575f5ffd5b503380603357604051631e4fbdf760e01b81525f600482015260240160405180910390fd5b603a816043565b50600180556092565b5f80546001600160a01b038381166001600160a01b0319831681178455604051919092169283917f8be0079c531659141344cd1fd0a4f28419497f9722a3daafe3b4186f6b6457e09190a35050565b611c6c8061009f5f395ff3fe608060405234801561000f575f5ffd5b50600436106101fd575f3560e01c8063aa92938011610114578063cce6ef44116100a9578063e0eeb3d311610079578063e0eeb3d3146105b0578063e8378fbf146105c3578063efa4a329146105e2578063f2fde38b146105eb578063fc15ce79146105e2575f5ffd5b8063cce6ef4414610564578063d6e3b25214610577578063dba64bb61461058a578063dd125a0a1461059d575f5ffd5b8063bb69c711116100e4578063bb69c7111461049d578063bc2ecdac146104a9578063c06ac352146104d8578063caa551eb1461053c575f5ffd5b8063aa9293801461045b578063abf599fc1461046e578063af640d0f14610481578063b0b1fbe41461048a575f5ffd5b8063416155ac11610195578063715018a611610165578063715018a6146103d257806375808d5b146103da57806376edb6f41461041c5780637f1b6bab1461042c5780638da5cb5b1461044b575f5ffd5b8063416155ac146102cc578063468dacad146102df5780635bb47808146103ac57806365c25269146103bf575f5ffd5b8063278ecde1116101d0578063278ecde1146102625780632badbfc0146102775780632e0f2625146102aa578063379607f5146102b9575f5ffd5b80631eec71fb146102015780631f67e7a21461021c5780632145dd661461022c578063222b15fb1461023f575b5f5ffd5b6102096105fe565b6040519081526020015b60405180910390f35b61020968022b1c8c1227a0000081565b61020961023a366004611915565b610617565b61025261024d366004611940565b610640565b6040519015158152602001610213565b610275610270366004611915565b610681565b005b61029273c190e6f26ce14e40d30251fde25927a73a5d58b681565b6040516001600160a01b039091168152602001610213565b610209670de0b6b3a764000081565b6102756102c7366004611915565b61081a565b6102526102da366004611940565b610b7e565b6103756102ed36600461195b565b604080516080810182525f808252602082018190529181018290526060810191909152505f8281526004602090815260408083206001600160a01b03851684526005018252918290208251608081018452815481526001820154928101929092526002015460ff80821615159383019390935261010090049091161515606082015292915050565b6040516102139190815181526020808301519082015260408083015115159082015260609182015115159181019190915260800190565b6102756103ba366004611940565b610bd1565b6102096103cd366004611989565b610c3a565b610275610c65565b6104056103e8366004611940565b6001600160a01b03165f9081526007602052604090205442811191565b604080519215158352602083019190915201610213565b6102096802258f7630b178000081565b61020961043a366004611940565b60076020525f908152604090205481565b5f546001600160a01b0316610292565b610275610469366004611915565b610c78565b61027561047c3660046119b3565b610f31565b61020960035481565b610252610498366004611915565b610fe8565b610209643e16926aaa81565b6104cb6104b7366004611915565b5f9081526004602052604090205460ff1690565b6040516102139190611a26565b61052a6104e6366004611915565b600460208190525f918252604090912080546001820154600283015460038401549484015460079094015460ff90931694919390926001600160a01b039091169086565b60405161021396959493929190611a34565b61054f61054a36600461195b565b611047565b60408051928352602083019190915201610213565b610252610572366004611915565b61116e565b610275610585366004611915565b6111ec565b600254610292906001600160a01b031681565b6102756105ab366004611a73565b6113a6565b6102096105be366004611940565b61159a565b6102096105d1366004611940565b60066020525f908152604090205481565b6102096104b081565b6102756105f9366004611940565b611716565b610614670de0b6b3a76400006308f0d180611aa7565b81565b5f670de0b6b3a7640000610630643e16926aaa84611aa7565b61063a9190611abe565b92915050565b5f5f610663836001600160a01b03165f9081526007602052604090205442811191565b50905061066f83611750565b15801561067a575080155b9392505050565b610689611870565b5f81815260046020526040902061069f8261116e565b6106d55760405162461bcd60e51b81526020600482015260026024820152616e6f60f01b60448201526064015b60405180910390fd5b6003815460ff1660038111156106ed576106ed6119f2565b1461073857805460ff19166003178155600281015460405190815282907f17150adeeda7158a6b2adf5e6065d6ad3f05dcbb2ab7520f383c53edf0f799f79060200160405180910390a25b335f908152600582016020526040902080541580159061076257506002810154610100900460ff16155b61077e5760405162461bcd60e51b81526004016106cc90611add565b60028101805461ff001916610100179055805460405163a9059cbb60e01b8152336004820152602481019190915273c190e6f26ce14e40d30251fde25927a73a5d58b69063a9059cbb906044016020604051808303815f875af11580156107e7573d5f5f3e3d5ffd5b505050506040513d601f19601f8201168201806040525081019061080b9190611b0f565b50505061081760018055565b50565b610822611870565b5f8181526004602052604090206002815460ff166003811115610847576108476119f2565b146108815760405162461bcd60e51b815260206004820152600a602482015269696e636f6d706c65746560b01b60448201526064016106cc565b335f90815260058201602052604090208054158015906108a65750600281015460ff16155b6108c25760405162461bcd60e51b81526004016106cc90611add565b5f68022b1c8c1227a0000083600201541061090f5760028301546108f2670de0b6b3a76400006308f0d180611aa7565b83546108fe9190611aa7565b6109089190611abe565b9050610938565b8154643e16926aaa9061092b90670de0b6b3a764000090611aa7565b6109359190611abe565b90505b6002828101805460ff191660019081179091558301829055335f9081526006850160205260409081902083905590549051637bdc60d960e01b8152600481018690526001600160a01b0390911690637bdc60d990602401608060405180830381865afa1580156109aa573d5f5f3e3d5ffd5b505050506040513d601f19601f820116820180604052508101906109ce9190611b33565b5160405163a9059cbb60e01b8152336004820152602481018390526001600160a01b039091169063a9059cbb906044016020604051808303815f875af1158015610a1a573d5f5f3e3d5ffd5b505050506040513d601f19601f82011682018060405250810190610a3e9190611b0f565b5060028301545f9068022b1c8c1227a00000108015610a6757506002830154610100900460ff16155b15610b34575f846002015468022b1c8c1227a00000855f0154610a8a9190611aa7565b610a949190611abe565b8454909150610aa4908290611bbe565b60028501805461ff00191661010017905560405163a9059cbb60e01b81523360048201526024810182905290925073c190e6f26ce14e40d30251fde25927a73a5d58b69063a9059cbb906044016020604051808303815f875af1158015610b0d573d5f5f3e3d5ffd5b505050506040513d601f19601f82011682018060405250810190610b319190611b0f565b50505b6040805183815260208101839052339187917fd9cb1e2714d65a111c0f20f060176ad657496bd47a3de04ec7c3d4ca232112ac910160405180910390a35050505061081760018055565b6001600160a01b0381165f90815260066020526040812054808203610ba557505f92915050565b60015f8281526004602052604090205460ff166003811115610bc957610bc96119f2565b149392505050565b610bd961189a565b6002546001600160a01b031615610c185760405162461bcd60e51b81526020600482015260036024820152621cd95d60ea1b60448201526064016106cc565b600280546001600160a01b0319166001600160a01b0392909216919091179055565b6005602052815f5260405f208181548110610c53575f80fd5b905f5260205f20015f91509150505481565b610c6d61189a565b610c765f6118c6565b565b610c80611870565b6002546001600160a01b03163314610caa5760405162461bcd60e51b81526004016106cc90611bd1565b5f8181526004602052604090206001815460ff166003811115610ccf57610ccf6119f2565b14610d045760405162461bcd60e51b8152602060048201526005602482015264737461746560d81b60448201526064016106cc565b6104b08160010154610d169190611bf7565b4211610d505760405162461bcd60e51b81526020600482015260096024820152681b9bdd08195b99195960ba1b60448201526064016106cc565b68022b1c8c1227a0000081600201541015610d9f5760405162461bcd60e51b815260206004820152600f60248201526e1b5a5b881b9bdd081c995858da1959608a1b60448201526064016106cc565b5f68022b1c8c1227a00000826002015411610dbe578160020154610dc9565b68022b1c8c1227a000005b9050610de1670de0b6b3a76400006308f0d180611aa7565b60038301555f610dfa6802258f7630b178000083611bbe565b905073c190e6f26ce14e40d30251fde25927a73a5d58b663a9059cbb610e275f546001600160a01b031690565b6040516001600160e01b031960e084901b1681526001600160a01b039091166004820152602481018490526044016020604051808303815f875af1158015610e71573d5f5f3e3d5ffd5b505050506040513d601f19601f82011682018060405250810190610e959190611b0f565b5060025460405163a9059cbb60e01b81526001600160a01b0390911660048201526802258f7630b1780000602482015273c190e6f26ce14e40d30251fde25927a73a5d58b69063a9059cbb906044016020604051808303815f875af1158015610f00573d5f5f3e3d5ffd5b505050506040513d601f19601f82011682018060405250810190610f249190611b0f565b5050505061081760018055565b6002546001600160a01b03163314610f5b5760405162461bcd60e51b81526004016106cc90611bd1565b5f838152600460208181526040808420805460ff19166002908117825593810180546001600160a01b038881166001600160a01b031990921682179092559088168087526006855295839020899055938101549151918252939187917fa50e0b9679f5601c270cdad10a93f0cf7343e8bc4cd12d6c16db0567dc445195910160405180910390a450505050565b5f8181526004602052604081206001815460ff16600381111561100d5761100d6119f2565b14801561102a57506104b081600101546110279190611bf7565b42115b801561067a57506002015468022b1c8c1227a00000111592915050565b5f8281526004602090815260408083206001600160a01b03851684526005810190925282208054839291908303611085575f5f935093505050611167565b68022b1c8c1227a000008260020154106111385760028201546110b4670de0b6b3a76400006308f0d180611aa7565b82546110c09190611aa7565b6110ca9190611abe565b935068022b1c8c1227a0000082600201541180156110f257506002810154610100900460ff16155b15611133575f826002015468022b1c8c1227a00000835f01546111159190611aa7565b61111f9190611abe565b825490915061112f908290611bbe565b9350505b611164565b8054643e16926aaa9061115490670de0b6b3a764000090611aa7565b61115e9190611abe565b93505f92505b50505b9250929050565b5f8181526004602052604081206003815460ff166003811115611193576111936119f2565b14806111b457506001815460ff1660038111156111b2576111b26119f2565b145b80156111d057506104b081600101546111cd9190611bf7565b42115b801561067a57506002015468022b1c8c1227a000001192915050565b6111f4611870565b5f8181526004602052604090206001815460ff166003811115611219576112196119f2565b1461124e5760405162461bcd60e51b8152602060048201526005602482015264737461746560d81b60448201526064016106cc565b6104b081600101546112609190611bf7565b4211156112975760405162461bcd60e51b8152602060048201526005602482015264195b99195960da1b60448201526064016106cc565b335f908152600582016020526040902080546112c55760405162461bcd60e51b81526004016106cc90611add565b80545f8083556002840180548392906112df908490611bbe565b909155505060405163a9059cbb60e01b81523360048201526024810182905273c190e6f26ce14e40d30251fde25927a73a5d58b69063a9059cbb906044016020604051808303815f875af1158015611339573d5f5f3e3d5ffd5b505050506040513d601f19601f8201168201806040525081019061135d9190611b0f565b50604080518281525f6020820152339186917f473ec725e4f427ee878c01533470f49b441bb2343a114ba06dc1817a04cf0a8d910160405180910390a350505061081760018055565b6113ae611870565b5f8281526004602052604090206001815460ff1660038111156113d3576113d36119f2565b1461140b5760405162461bcd60e51b8152602060048201526008602482015267696e61637469766560c01b60448201526064016106cc565b6104b0816001015461141d9190611bf7565b4211156114545760405162461bcd60e51b8152602060048201526005602482015264195b99195960da1b60448201526064016106cc565b5f821161148c5760405162461bcd60e51b81526004016106cc906020808252600490820152637a65726f60e01b604082015260600190565b6040516323b872dd60e01b81523360048201523060248201526044810183905273c190e6f26ce14e40d30251fde25927a73a5d58b6906323b872dd906064016020604051808303815f875af11580156114e7573d5f5f3e3d5ffd5b505050506040513d601f19601f8201168201806040525081019061150b9190611b0f565b50335f9081526005820160205260408120805490918491839190611530908490611bf7565b9250508190555082826002015f82825461154a9190611bf7565b9091555050604080518481525f6020820152339186917f0a4a1371fe57a623579a431d46713995ff8d4d78dd0b6fcf591205f997ea45e1910160405180910390a3505061159660018055565b5050565b5f6001600160a01b038216156115f3576115b382610640565b6115f35760405162461bcd60e51b8152602060048201526011602482015270626c6f636b6564206f722065786973747360781b60448201526064016106cc565b6002546001600160a01b0316331461161d5760405162461bcd60e51b81526004016106cc90611bd1565b60038054905f61162c83611c0a565b90915550506003545f9081526004602052604090208054600190829060ff191682800217905550426001808301829055600783018290556001600160a01b0385165f9081526005602090815260408220600354815494850182559083529120909101556104b09061169e908290611bf7565b6116a89190611bf7565b6001600160a01b0384165f818152600760205260409020919091556003547fb6948299ea38c9d5ac9f98be169b0bff6eb2bf98881811a8518b8115731a7ebe426116f46104b082611bf7565b6040805192835260208301919091520160405180910390a35050600354919050565b61171e61189a565b6001600160a01b03811661174757604051631e4fbdf760e01b81525f60048201526024016106cc565b610817816118c6565b6001600160a01b0381165f908152600560209081526040808320805482518185028101850190935280835284938301828280156117aa57602002820191905f5260205f20905b815481526020019060010190808311611796575b509394505f93505050505b8151811015611867575f60045f8484815181106117d4576117d4611c22565b60209081029190910181015182528101919091526040015f205460ff1690506002816003811115611807576118076119f2565b148061184e57506001816003811115611822576118226119f2565b14801561184e575061184c83838151811061183f5761183f611c22565b602002602001015161116e565b155b1561185e57506001949350505050565b506001016117b5565b505f9392505050565b60026001540361189357604051633ee5aeb560e01b815260040160405180910390fd5b6002600155565b5f546001600160a01b03163314610c765760405163118cdaa760e01b81523360048201526024016106cc565b5f80546001600160a01b038381166001600160a01b0319831681178455604051919092169283917f8be0079c531659141344cd1fd0a4f28419497f9722a3daafe3b4186f6b6457e09190a35050565b5f60208284031215611925575f5ffd5b5035919050565b6001600160a01b0381168114610817575f5ffd5b5f60208284031215611950575f5ffd5b813561067a8161192c565b5f5f6040838503121561196c575f5ffd5b82359150602083013561197e8161192c565b809150509250929050565b5f5f6040838503121561199a575f5ffd5b82356119a58161192c565b946020939093013593505050565b5f5f5f606084860312156119c5575f5ffd5b8335925060208401356119d78161192c565b915060408401356119e78161192c565b809150509250925092565b634e487b7160e01b5f52602160045260245ffd5b60048110611a2257634e487b7160e01b5f52602160045260245ffd5b9052565b6020810161063a8284611a06565b60c08101611a428289611a06565b6020820196909652604081019490945260608401929092526001600160a01b0316608083015260a090910152919050565b5f5f60408385031215611a84575f5ffd5b50508035926020909101359150565b634e487b7160e01b5f52601160045260245ffd5b808202811582820484141761063a5761063a611a93565b5f82611ad857634e487b7160e01b5f52601260045260245ffd5b500490565b6020808252600490820152636e6f6e6560e01b604082015260600190565b80518015158114611b0a575f5ffd5b919050565b5f60208284031215611b1f575f5ffd5b61067a82611afb565b8051611b0a8161192c565b5f6080828403128015611b44575f5ffd5b506040516080810167ffffffffffffffff81118282101715611b7457634e487b7160e01b5f52604160045260245ffd5b6040528251611b828161192c565b8152611b9060208401611b28565b6020820152611ba160408401611b28565b6040820152611bb260608401611afb565b60608201529392505050565b8181038181111561063a5761063a611a93565b6020808252600c908201526b666163746f7279206f6e6c7960a01b604082015260600190565b8082018082111561063a5761063a611a93565b5f60018201611c1b57611c1b611a93565b5060010190565b634e487b7160e01b5f52603260045260245ffdfea264697066735822122061d098bc69a423d48a7f5266373845a9f186fd029cae436302382c69e34995f764736f6c634300081c0033",
  "linkReferences": {},
  "deployedLinkReferences": {},
  "immutableReferences": {},
  "inputSourceName": "project/contracts/MemedTokenSale_test.sol",
  "buildInfoId": "solc-0_8_28-ac83b3cad0dc1f29bd1b73a9a87b2fa5d0ebb501"
}