{
  "_format": "hh3-artifact-1",
  "contractName": "MemedFactory_test",
  "sourceName": "contracts/MemedFactory_test.sol",
  "abi": [
    {
      "inputs": [
        {
          "internalType": "address",
          "name": "_memedTokenSale",
          "type": "address"
        },
        {
          "internalType": "address",
          "name": "_memedBattle",
          "type": "address"
        },
        {
          "internalType": "address",
          "name": "_memedEngageToEarn",
          "type": "address"
        },
        {
          "internalType": "address",
          "name": "_positionManager",
          "type": "address"
        },
        {
          "internalType": "address",
          "name": "_swapRouter",
          "type": "address"
        }
      ],
      "stateMutability": "nonpayable",
      "type": "constructor"
    },
    {
      "inputs": [
        {
          "internalType": "address",
          "name": "owner",
          "type": "address"
        }
      ],
      "name": "OwnableInvalidOwner",
      "type": "error"
    },
    {
      "inputs": [
        {
          "internalType": "address",
          "name": "account",
          "type": "address"
        }
      ],
      "name": "OwnableUnauthorizedAccount",
      "type": "error"
    },
    {
      "inputs": [],
      "name": "R",
      "type": "error"
    },
    {
      "inputs": [],
      "name": "ReentrancyGuardReentrantCall",
      "type": "error"
    },
    {
      "inputs": [],
      "name": "T",
      "type": "error"
    },
    {
      "anonymous": false,
      "inputs": [
        {
          "indexed": true,
          "internalType": "address",
          "name": "winner",
          "type": "address"
        },
        {
          "indexed": true,
          "internalType": "address",
          "name": "loser",
          "type": "address"
        },
        {
          "indexed": false,
          "internalType": "uint256",
          "name": "creatorIncentivesUnlocksAtWinner",
          "type": "uint256"
        },
        {
          "indexed": false,
          "internalType": "uint256",
          "name": "creatorIncentivesUnlocksAtLoser",
          "type": "uint256"
        }
      ],
      "name": "BattleUpdated",
      "type": "event"
    },
    {
      "anonymous": false,
      "inputs": [
        {
          "indexed": true,
          "internalType": "address",
          "name": "token",
          "type": "address"
        },
        {
          "indexed": false,
          "internalType": "uint256",
          "name": "heat",
          "type": "uint256"
        },
        {
          "indexed": false,
          "internalType": "uint256",
          "name": "timestamp",
          "type": "uint256"
        }
      ],
      "name": "HeatUpdated",
      "type": "event"
    },
    {
      "anonymous": false,
      "inputs": [
        {
          "indexed": true,
          "internalType": "address",
          "name": "previousOwner",
          "type": "address"
        },
        {
          "indexed": true,
          "internalType": "address",
          "name": "newOwner",
          "type": "address"
        }
      ],
      "name": "OwnershipTransferred",
      "type": "event"
    },
    {
      "anonymous": false,
      "inputs": [
        {
          "indexed": true,
          "internalType": "uint256",
          "name": "id",
          "type": "uint256"
        },
        {
          "indexed": true,
          "internalType": "address",
          "name": "token",
          "type": "address"
        },
        {
          "indexed": true,
          "internalType": "address",
          "name": "warriorNFT",
          "type": "address"
        }
      ],
      "name": "TokenCompletedFairLaunch",
      "type": "event"
    },
    {
      "anonymous": false,
      "inputs": [
        {
          "indexed": true,
          "internalType": "uint256",
          "name": "id",
          "type": "uint256"
        },
        {
          "indexed": true,
          "internalType": "address",
          "name": "token",
          "type": "address"
        },
        {
          "indexed": true,
          "internalType": "address",
          "name": "owner",
          "type": "address"
        },
        {
          "indexed": false,
          "internalType": "bool",
          "name": "isClaimedByCreator",
          "type": "bool"
        },
        {
          "indexed": false,
          "internalType": "uint256",
          "name": "createdAt",
          "type": "uint256"
        }
      ],
      "name": "TokenCreated",
      "type": "event"
    },
    {
      "inputs": [],
      "name": "BATTLE_REWARDS_PERCENTAGE",
      "outputs": [
        {
          "internalType": "uint256",
          "name": "",
          "type": "uint256"
        }
      ],
      "stateMutability": "view",
      "type": "function"
    },
    {
      "inputs": [],
      "name": "ENGAGEMENT_REWARDS_PER_NEW_HEAT",
      "outputs": [
        {
          "internalType": "uint256",
          "name": "",
          "type": "uint256"
        }
      ],
      "stateMutability": "view",
      "type": "function"
    },
    {
      "inputs": [],
      "name": "INITIAL_REWARDS_PER_HEAT",
      "outputs": [
        {
          "internalType": "uint256",
          "name": "",
          "type": "uint256"
        }
      ],
      "stateMutability": "view",
      "type": "function"
    },
    {
      "inputs": [],
      "name": "MAX_ENGAGE_CREATOR_REWARD_PERCENTAGE",
      "outputs": [
        {
          "internalType": "uint256",
          "name": "",
          "type": "uint256"
        }
      ],
      "stateMutability": "view",
      "type": "function"
    },
    {
      "inputs": [],
      "name": "MAX_ENGAGE_USER_REWARD_PERCENTAGE",
      "outputs": [
        {
          "internalType": "uint256",
          "name": "",
          "type": "uint256"
        }
      ],
      "stateMutability": "view",
      "type": "function"
    },
    {
      "inputs": [],
      "name": "MEMED_TEST_ETH",
      "outputs": [
        {
          "internalType": "address",
          "name": "",
          "type": "address"
        }
      ],
      "stateMutability": "view",
      "type": "function"
    },
    {
      "inputs": [],
      "name": "POOL_FEE",
      "outputs": [
        {
          "internalType": "uint24",
          "name": "",
          "type": "uint24"
        }
      ],
      "stateMutability": "view",
      "type": "function"
    },
    {
      "inputs": [],
      "name": "REWARD_PER_ENGAGEMENT",
      "outputs": [
        {
          "internalType": "uint256",
          "name": "",
          "type": "uint256"
        }
      ],
      "stateMutability": "view",
      "type": "function"
    },
    {
      "inputs": [
        {
          "internalType": "address",
          "name": "_winner",
          "type": "address"
        },
        {
          "internalType": "address",
          "name": "_loser",
          "type": "address"
        }
      ],
      "name": "battleUpdate",
      "outputs": [],
      "stateMutability": "nonpayable",
      "type": "function"
    },
    {
      "inputs": [
        {
          "internalType": "address",
          "name": "_token",
          "type": "address"
        },
        {
          "internalType": "address",
          "name": "_creator",
          "type": "address"
        }
      ],
      "name": "claimToken",
      "outputs": [],
      "stateMutability": "nonpayable",
      "type": "function"
    },
    {
      "inputs": [
        {
          "internalType": "address",
          "name": "_token",
          "type": "address"
        }
      ],
      "name": "collectFees",
      "outputs": [
        {
          "internalType": "uint256",
          "name": "amount0",
          "type": "uint256"
        },
        {
          "internalType": "uint256",
          "name": "amount1",
          "type": "uint256"
        }
      ],
      "stateMutability": "nonpayable",
      "type": "function"
    },
    {
      "inputs": [
        {
          "internalType": "uint256",
          "name": "_id",
          "type": "uint256"
        },
        {
          "internalType": "address",
          "name": "_token",
          "type": "address"
        },
        {
          "internalType": "address",
          "name": "_warriorNFT",
          "type": "address"
        }
      ],
      "name": "completeFairLaunch",
      "outputs": [],
      "stateMutability": "nonpayable",
      "type": "function"
    },
    {
      "inputs": [
        {
          "internalType": "address",
          "name": "_token",
          "type": "address"
        }
      ],
      "name": "getByToken",
      "outputs": [
        {
          "components": [
            {
              "internalType": "address",
              "name": "token",
              "type": "address"
            },
            {
              "internalType": "address",
              "name": "warriorNFT",
              "type": "address"
            },
            {
              "internalType": "address",
              "name": "creator",
              "type": "address"
            },
            {
              "internalType": "bool",
              "name": "isClaimedByCreator",
              "type": "bool"
            }
          ],
          "internalType": "struct TokenData",
          "name": "",
          "type": "tuple"
        }
      ],
      "stateMutability": "view",
      "type": "function"
    },
    {
      "inputs": [
        {
          "internalType": "uint256",
          "name": "_id",
          "type": "uint256"
        }
      ],
      "name": "getCreatorById",
      "outputs": [
        {
          "internalType": "address",
          "name": "",
          "type": "address"
        }
      ],
      "stateMutability": "view",
      "type": "function"
    },
    {
      "inputs": [
        {
          "internalType": "address",
          "name": "_token",
          "type": "address"
        }
      ],
      "name": "getHeat",
      "outputs": [
        {
          "internalType": "uint256",
          "name": "",
          "type": "uint256"
        }
      ],
      "stateMutability": "view",
      "type": "function"
    },
    {
      "inputs": [],
      "name": "getMemedBattle",
      "outputs": [
        {
          "internalType": "address",
          "name": "",
          "type": "address"
        }
      ],
      "stateMutability": "view",
      "type": "function"
    },
    {
      "inputs": [],
      "name": "getMemedEngageToEarn",
      "outputs": [
        {
          "internalType": "contract IMemedEngageToEarn",
          "name": "",
          "type": "address"
        }
      ],
      "stateMutability": "view",
      "type": "function"
    },
    {
      "inputs": [
        {
          "internalType": "address",
          "name": "_token",
          "type": "address"
        }
      ],
      "name": "getTokenByAddress",
      "outputs": [
        {
          "components": [
            {
              "internalType": "address",
              "name": "token",
              "type": "address"
            },
            {
              "internalType": "address",
              "name": "warriorNFT",
              "type": "address"
            },
            {
              "internalType": "address",
              "name": "creator",
              "type": "address"
            },
            {
              "internalType": "bool",
              "name": "isClaimedByCreator",
              "type": "bool"
            }
          ],
          "internalType": "struct TokenData",
          "name": "",
          "type": "tuple"
        }
      ],
      "stateMutability": "view",
      "type": "function"
    },
    {
      "inputs": [
        {
          "internalType": "uint256",
          "name": "_id",
          "type": "uint256"
        }
      ],
      "name": "getTokenById",
      "outputs": [
        {
          "components": [
            {
              "internalType": "address",
              "name": "token",
              "type": "address"
            },
            {
              "internalType": "address",
              "name": "warriorNFT",
              "type": "address"
            },
            {
              "internalType": "address",
              "name": "creator",
              "type": "address"
            },
            {
              "internalType": "bool",
              "name": "isClaimedByCreator",
              "type": "bool"
            }
          ],
          "internalType": "struct TokenData",
          "name": "",
          "type": "tuple"
        }
      ],
      "stateMutability": "view",
      "type": "function"
    },
    {
      "inputs": [],
      "name": "getTokens",
      "outputs": [
        {
          "components": [
            {
              "internalType": "address",
              "name": "token",
              "type": "address"
            },
            {
              "internalType": "address",
              "name": "warriorNFT",
              "type": "address"
            },
            {
              "internalType": "address",
              "name": "creator",
              "type": "address"
            },
            {
              "internalType": "bool",
              "name": "isClaimedByCreator",
              "type": "bool"
            }
          ],
          "internalType": "struct TokenData[]",
          "name": "",
          "type": "tuple[]"
        }
      ],
      "stateMutability": "view",
      "type": "function"
    },
    {
      "inputs": [
        {
          "internalType": "address",
          "name": "_token",
          "type": "address"
        }
      ],
      "name": "getWarriorNFT",
      "outputs": [
        {
          "internalType": "address",
          "name": "",
          "type": "address"
        }
      ],
      "stateMutability": "view",
      "type": "function"
    },
    {
      "inputs": [
        {
          "internalType": "address",
          "name": "",
          "type": "address"
        }
      ],
      "name": "lpTokenIds",
      "outputs": [
        {
          "internalType": "uint256",
          "name": "",
          "type": "uint256"
        }
      ],
      "stateMutability": "view",
      "type": "function"
    },
    {
      "inputs": [],
      "name": "memedBattle",
      "outputs": [
        {
          "internalType": "contract IMemedBattle",
          "name": "",
          "type": "address"
        }
      ],
      "stateMutability": "view",
      "type": "function"
    },
    {
      "inputs": [],
      "name": "memedEngageToEarn",
      "outputs": [
        {
          "internalType": "contract IMemedEngageToEarn",
          "name": "",
          "type": "address"
        }
      ],
      "stateMutability": "view",
      "type": "function"
    },
    {
      "inputs": [],
      "name": "memedTokenSale",
      "outputs": [
        {
          "internalType": "contract IMemedTokenSale",
          "name": "",
          "type": "address"
        }
      ],
      "stateMutability": "view",
      "type": "function"
    },
    {
      "inputs": [],
      "name": "owner",
      "outputs": [
        {
          "internalType": "address",
          "name": "",
          "type": "address"
        }
      ],
      "stateMutability": "view",
      "type": "function"
    },
    {
      "inputs": [],
      "name": "positionManager",
      "outputs": [
        {
          "internalType": "contract INonfungiblePositionManager",
          "name": "",
          "type": "address"
        }
      ],
      "stateMutability": "view",
      "type": "function"
    },
    {
      "inputs": [],
      "name": "renounceOwnership",
      "outputs": [],
      "stateMutability": "nonpayable",
      "type": "function"
    },
    {
      "inputs": [
        {
          "internalType": "address",
          "name": "_creator",
          "type": "address"
        }
      ],
      "name": "startFairLaunch",
      "outputs": [],
      "stateMutability": "nonpayable",
      "type": "function"
    },
    {
      "inputs": [
        {
          "internalType": "uint256",
          "name": "_amount",
          "type": "uint256"
        },
        {
          "internalType": "address[]",
          "name": "_path",
          "type": "address[]"
        },
        {
          "internalType": "address",
          "name": "_to",
          "type": "address"
        }
      ],
      "name": "swap",
      "outputs": [
        {
          "internalType": "uint256",
          "name": "",
          "type": "uint256"
        }
      ],
      "stateMutability": "nonpayable",
      "type": "function"
    },
    {
      "inputs": [],
      "name": "swapRouter",
      "outputs": [
        {
          "internalType": "contract ISwapRouter",
          "name": "",
          "type": "address"
        }
      ],
      "stateMutability": "view",
      "type": "function"
    },
    {
      "inputs": [
        {
          "internalType": "uint256",
          "name": "",
          "type": "uint256"
        }
      ],
      "name": "tokenData",
      "outputs": [
        {
          "internalType": "address",
          "name": "token",
          "type": "address"
        },
        {
          "internalType": "address",
          "name": "warriorNFT",
          "type": "address"
        },
        {
          "internalType": "address",
          "name": "creator",
          "type": "address"
        },
        {
          "internalType": "bool",
          "name": "isClaimedByCreator",
          "type": "bool"
        }
      ],
      "stateMutability": "view",
      "type": "function"
    },
    {
      "inputs": [
        {
          "internalType": "uint256",
          "name": "",
          "type": "uint256"
        }
      ],
      "name": "tokenRewardData",
      "outputs": [
        {
          "internalType": "uint256",
          "name": "lastRewardAt",
          "type": "uint256"
        },
        {
          "internalType": "uint256",
          "name": "creatorIncentivesUnlocksAt",
          "type": "uint256"
        },
        {
          "internalType": "uint256",
          "name": "creatorIncentivesUnlockedAt",
          "type": "uint256"
        },
        {
          "internalType": "uint256",
          "name": "lastEngagementBoost",
          "type": "uint256"
        },
        {
          "internalType": "uint256",
          "name": "heat",
          "type": "uint256"
        },
        {
          "internalType": "uint256",
          "name": "lastHeatUpdate",
          "type": "uint256"
        },
        {
          "internalType": "uint256",
          "name": "createdAt",
          "type": "uint256"
        }
      ],
      "stateMutability": "view",
      "type": "function"
    },
    {
      "inputs": [
        {
          "internalType": "uint256",
          "name": "",
          "type": "uint256"
        }
      ],
      "name": "tokens",
      "outputs": [
        {
          "internalType": "address",
          "name": "",
          "type": "address"
        }
      ],
      "stateMutability": "view",
      "type": "function"
    },
    {
      "inputs": [
        {
          "internalType": "address",
          "name": "newOwner",
          "type": "address"
        }
      ],
      "name": "transferOwnership",
      "outputs": [],
      "stateMutability": "nonpayable",
      "type": "function"
    },
    {
      "inputs": [],
      "name": "uniswapV3Factory",
      "outputs": [
        {
          "internalType": "contract IUniswapV3Factory",
          "name": "",
          "type": "address"
        }
      ],
      "stateMutability": "view",
      "type": "function"
    },
    {
      "inputs": [
        {
          "components": [
            {
              "internalType": "address",
              "name": "token",
              "type": "address"
            },
            {
              "internalType": "uint256",
              "name": "heat",
              "type": "uint256"
            }
          ],
          "internalType": "struct HeatUpdate[]",
          "name": "_heatUpdates",
          "type": "tuple[]"
        }
      ],
      "name": "updateHeat",
      "outputs": [],
      "stateMutability": "nonpayable",
      "type": "function"
    },
    {
      "stateMutability": "payable",
      "type": "receive"
    }
  ],
  "bytecode": "0x6080604052620186a0600255601460035534801561001b575f5ffd5b50604051613f0d380380613f0d83398101604081905261003a916101b6565b338061005f57604051631e4fbdf760e01b81525f600482015260240160405180910390fd5b6100688161014c565b5060018055600480546001600160a01b038088166001600160a01b03199283161783556005805488831690841617905560068054878316908416179055600b80548683169084168117909155600d805492861692909316919091179091556040805163c45a015560e01b81529051919263c45a01559282820192602092908290030181865afa1580156100fd573d5f5f3e3d5ffd5b505050506040513d601f19601f820116820180604052508101906101219190610217565b600c80546001600160a01b0319166001600160a01b0392909216919091179055506102379350505050565b5f80546001600160a01b038381166001600160a01b0319831681178455604051919092169283917f8be0079c531659141344cd1fd0a4f28419497f9722a3daafe3b4186f6b6457e09190a35050565b80516001600160a01b03811681146101b1575f5ffd5b919050565b5f5f5f5f5f60a086880312156101ca575f5ffd5b6101d38661019b565b94506101e16020870161019b565b93506101ef6040870161019b565b92506101fd6060870161019b565b915061020b6080870161019b565b90509295509295909350565b5f60208284031215610227575f5ffd5b6102308261019b565b9392505050565b613cc9806102445f395ff3fe608060405260043610610215575f3560e01c806391ded8fa1161011e578063c9235634116100a8578063dd743bc81161006d578063dd743bc81461079b578063e0eeb3d3146107ba578063e5659f07146107d9578063f2fde38b146107ee578063f797113f1461080d575f5ffd5b8063c9235634146106f8578063ca31879d14610717578063d1f6d04a14610736578063dc6930a314610753578063dd1b9c4a14610772575f5ffd5b8063a480ca79116100ee578063a480ca79146105dd578063aa6ca80814610611578063abf599fc14610632578063b4b5b48f14610651578063c31c9c07146106d9575f5ffd5b806391ded8fa146104f557806392ac258214610514578063a11d8ac71461059f578063a40103d4146105be575f5ffd5b80635b5491821161019f578063741c6ae81161016f578063741c6ae8146103e457806377e989f3146103f8578063791b98bc146104155780637bdc60d9146104345780638da5cb5b146104d9575f5ffd5b80635b549182146103655780635d3575a6146103845780635de7c44a146103bb578063715018a6146103d0575f5ffd5b80632badbfc0116101e55780632badbfc0146102cb578063306d3508146102f2578063320dc01b146103115780634f64b2be146103275780635153563b14610346575f5ffd5b80630280a16f1461022057806311eefb29146102485780631d08ac9d1461026957806327e2fee414610294575f5ffd5b3661021c57005b5f5ffd5b34801561022b575f5ffd5b5061023561c35081565b6040519081526020015b60405180910390f35b348015610253575f5ffd5b50610267610262366004613653565b610821565b005b348015610274575f5ffd5b506102356102833660046136d8565b60096020525f908152604090205481565b34801561029f575f5ffd5b506102b36102ae3660046136d8565b6109d9565b6040516001600160a01b03909116815260200161023f565b3480156102d6575f5ffd5b506102b373c190e6f26ce14e40d30251fde25927a73a5d58b681565b3480156102fd575f5ffd5b5061023561030c3660046136d8565b610a70565b34801561031c575f5ffd5b50610235620186a081565b348015610332575f5ffd5b506102b36103413660046136f3565b610afd565b348015610351575f5ffd5b506005546102b3906001600160a01b031681565b348015610370575f5ffd5b50600c546102b3906001600160a01b031681565b34801561038f575f5ffd5b506102b361039e3660046136f3565b5f908152600760205260409020600201546001600160a01b031690565b3480156103c6575f5ffd5b5061023560025481565b3480156103db575f5ffd5b50610267610b25565b3480156103ef575f5ffd5b50610235600281565b348015610403575f5ffd5b506006546001600160a01b03166102b3565b348015610420575f5ffd5b50600b546102b3906001600160a01b031681565b34801561043f575f5ffd5b506104cc61044e3660046136f3565b604080516080810182525f808252602082018190529181018290526060810191909152505f90815260076020908152604091829020825160808101845281546001600160a01b039081168252600183015481169382019390935260029091015491821692810192909252600160a01b900460ff161515606082015290565b60405161023f919061370a565b3480156104e4575f5ffd5b505f546001600160a01b03166102b3565b348015610500575f5ffd5b506104cc61050f3660046136d8565b610b38565b34801561051f575f5ffd5b5061056a61052e3660046136f3565b60086020525f90815260409020805460018201546002830154600384015460048501546005860154600690960154949593949293919290919087565b604080519788526020880196909652948601939093526060850191909152608084015260a083015260c082015260e00161023f565b3480156105aa575f5ffd5b506006546102b3906001600160a01b031681565b3480156105c9575f5ffd5b506102356105d8366004613747565b610c6b565b3480156105e8575f5ffd5b506105fc6105f73660046136d8565b611060565b6040805192835260208301919091520161023f565b34801561061c575f5ffd5b506106256111a1565b60405161023f91906137d4565b34801561063d575f5ffd5b5061026761064c366004613851565b61127a565b34801561065c575f5ffd5b506106a461066b3660046136f3565b60076020525f90815260409020805460018201546002909201546001600160a01b0391821692821691811690600160a01b900460ff1684565b60405161023f94939291906001600160a01b039485168152928416602084015292166040820152901515606082015260800190565b3480156106e4575f5ffd5b50600d546102b3906001600160a01b031681565b348015610703575f5ffd5b50610267610712366004613890565b6115c1565b348015610722575f5ffd5b50610267610731366004613890565b61186a565b348015610741575f5ffd5b506005546001600160a01b03166102b3565b34801561075e575f5ffd5b506004546102b3906001600160a01b031681565b34801561077d575f5ffd5b50610787610bb881565b60405162ffffff909116815260200161023f565b3480156107a6575f5ffd5b506104cc6107b53660046136d8565b611b7a565b3480156107c5575f5ffd5b506102676107d43660046136d8565b611c6e565b3480156107e4575f5ffd5b5061023560035481565b3480156107f9575f5ffd5b506102676108083660046136d8565b611e54565b348015610818575f5ffd5b50610235600181565b6005546001600160a01b03163314806108be575060055f9054906101000a90046001600160a01b03166001600160a01b031663a9dc491d6040518163ffffffff1660e01b8152600401602060405180830381865afa158015610885573d5f5f3e3d5ffd5b505050506040513d601f19601f820116820180604052508101906108a991906138c7565b6001600160a01b0316336001600160a01b0316145b806108d257505f546001600160a01b031633145b6109125760405162461bcd60e51b815260206004820152600c60248201526b1d5b985d5d1a1bdc9a5e995960a21b60448201526064015b60405180910390fd5b5f8167ffffffffffffffff81111561092c5761092c6138e2565b60405190808252806020026020018201604052801561097057816020015b604080518082019091525f808252602082015281526020019060019003908161094a5790505b5090505f5b828110156109ca5783838281811061098f5761098f6138f6565b9050604002018036038101906109a5919061390a565b8282815181106109b7576109b76138f6565b6020908102919091010152600101610975565b506109d481611e91565b505050565b6004805460405163e8378fbf60e01b81526001600160a01b03848116938201939093525f92600792849291169063e8378fbf90602401602060405180830381865afa158015610a2a573d5f5f3e3d5ffd5b505050506040513d601f19601f82011682018060405250810190610a4e919061396e565b815260208101919091526040015f20600101546001600160a01b031692915050565b6004805460405163e8378fbf60e01b81526001600160a01b03848116938201939093525f92600892849291169063e8378fbf90602401602060405180830381865afa158015610ac1573d5f5f3e3d5ffd5b505050506040513d601f19601f82011682018060405250810190610ae5919061396e565b81526020019081526020015f20600401549050919050565b600a8181548110610b0c575f80fd5b5f918252602090912001546001600160a01b0316905081565b610b2d6124e0565b610b365f61250c565b565b604080516080810182525f8082526020820181905291810182905260608101919091526004805460405163e8378fbf60e01b81526001600160a01b03858116938201939093525f92600792849291169063e8378fbf90602401602060405180830381865afa158015610bac573d5f5f3e3d5ffd5b505050506040513d601f19601f82011682018060405250810190610bd0919061396e565b815260208082019290925260409081015f20815160808101835281546001600160a01b03908116808352600184015482169583019590955260029092015491821692810192909252600160a01b900460ff16151560608201529150610c655760405162461bcd60e51b815260206004820152600b60248201526a1b9bdd0818dc99585d195960aa1b6044820152606401610909565b92915050565b5f610c7461255b565b6006546001600160a01b03163314610cce5760405162461bcd60e51b815260206004820152601c60248201527f4f6e6c7920656e6761676520746f206561726e2063616e2073776170000000006044820152606401610909565b6002831015610d085760405162461bcd60e51b8152600401610909906020808252600490820152630e0c2e8d60e31b604082015260600190565b5f84845f818110610d1b57610d1b6138f6565b9050602002016020810190610d3091906136d8565b90505f8585610d40600182613999565b818110610d4f57610d4f6138f6565b9050602002016020810190610d6491906136d8565b600c54604051630b4c774160e11b81529192505f916001600160a01b0390911690631698ee8290610db390869073c190e6f26ce14e40d30251fde25927a73a5d58b690610bb8906004016139ac565b602060405180830381865afa158015610dce573d5f5f3e3d5ffd5b505050506040513d601f19601f82011682018060405250810190610df291906138c7565b600c54604051630b4c774160e11b81529192505f916001600160a01b0390911690631698ee8290610e419073c190e6f26ce14e40d30251fde25927a73a5d58b6908790610bb8906004016139ac565b602060405180830381865afa158015610e5c573d5f5f3e3d5ffd5b505050506040513d601f19601f82011682018060405250810190610e8091906138c7565b90506001600160a01b03821615801590610ea257506001600160a01b03811615155b610edd5760405162461bcd60e51b815260206004820152600c60248201526b1b5a5cdcda5b99c81c1bdbdb60a21b6044820152606401610909565b600d5460405163095ea7b360e01b81526001600160a01b039182166004820152602481018b90529085169063095ea7b3906044016020604051808303815f875af1158015610f2d573d5f5f3e3d5ffd5b505050506040513d601f19601f82011682018060405250810190610f5191906139d4565b506040516bffffffffffffffffffffffff19606086811b8216602084015261017760eb1b603484018190527360c873793670a720698128fef12c93d39d2eac5b60611b6037850152604b84015285901b16604e8201525f9060620160408051601f19818403018152600d546080840183528184526001600160a01b038b811660208601528484018f90525f6060860152925163b858183f60e01b8152919450919091169163b858183f9161100891906004016139f3565b6020604051808303815f875af1158015611024573d5f5f3e3d5ffd5b505050506040513d601f19601f82011682018060405250810190611048919061396e565b9550505050505061105860018055565b949350505050565b5f5f61106a6124e0565b6001600160a01b0383165f90815260096020526040812054908190036110ba5760405162461bcd60e51b815260206004820152600560248201526406e6f204c560dc1b6044820152606401610909565b600b5460408051608081019091528281526001600160a01b039091169063fc6f786590602081016110f25f546001600160a01b031690565b6001600160a01b0390811682526001600160801b0360208084018290526040938401829052835160e087901b6001600160e01b031916815285516004820152908501519092166024830152918301518216604482015260609092015116606482015260840160408051808303815f875af1158015611172573d5f5f3e3d5ffd5b505050506040513d601f19601f820116820180604052508101906111969190613a58565b909590945092505050565b600a546060905f9067ffffffffffffffff8111156111c1576111c16138e2565b60405190808252806020026020018201604052801561121157816020015b604080516080810182525f8082526020808301829052928201819052606082015282525f199092019101816111df5790505b5090505f5b600a548110156112745761124f600a8281548110611236576112366138f6565b5f918252602090912001546001600160a01b0316610b38565b828281518110611261576112616138f6565b6020908102919091010152600101611216565b50919050565b6112826124e0565b5f83815260076020526040808220600480549251632f0bb36b60e21b81529081018790529092916001600160a01b03169063bc2ecdac90602401602060405180830381865afa1580156112d7573d5f5f3e3d5ffd5b505050506040513d601f19601f820116820180604052508101906112fb9190613a7a565b9050600281600481111561131157611311613a98565b1461134a5760405162461bcd60e51b81526020600482015260096024820152686e6f7420726561647960b81b6044820152606401610909565b81546001600160a01b038086166001600160a01b0319928316811785556001808601805493881693851684179055600a805491820181555f9081527fc65a7bb8d6351c1cf70c95a316cc6a92839c986682d98bc35f958f4883f9d2a8909101805490941682179093556040519192909188917fdbd3908ed1551f131cac0b0e54b86f03495799941eeb3290140b962f787409d491a45f6113e985612585565b90505f6114be86876001600160a01b031663ebda16eb6040518163ffffffff1660e01b8152600401602060405180830381865afa15801561142c573d5f5f3e3d5ffd5b505050506040513d601f19601f82011682018060405250810190611450919061396e565b6004805460408051631dbb6dbd60e21b815290516001600160a01b03909216926376edb6f49282820192602092908290030181865afa158015611495573d5f5f3e3d5ffd5b505050506040513d601f19601f820116820180604052508101906114b9919061396e565b6128f5565b6001600160a01b038781165f8181526009602052604090819020849055600480549151632afd667f60e21b81529081018c90526024810192909252858316604483015292935091169063abf599fc906064015f604051808303815f87803b158015611527575f5ffd5b505af1158015611539573d5f5f3e3d5ffd5b505050506002840154600160a01b900460ff16156115b857600654600285015460405163038918e360e61b81526001600160a01b038981166004830152918216602482015291169063e24638c0906044015f604051808303815f87803b1580156115a1575f5ffd5b505af11580156115b3573d5f5f3e3d5ffd5b505050505b50505050505050565b6005546001600160a01b031633148061165e575060055f9054906101000a90046001600160a01b03166001600160a01b031663a9dc491d6040518163ffffffff1660e01b8152600401602060405180830381865afa158015611625573d5f5f3e3d5ffd5b505050506040513d601f19601f8201168201806040525081019061164991906138c7565b6001600160a01b0316336001600160a01b0316145b6116995760405162461bcd60e51b815260206004820152600c60248201526b1d5b985d5d1a1bdc9a5e995960a21b6044820152606401610909565b6004805460405163e8378fbf60e01b81526001600160a01b03858116938201939093525f92600892849291169063e8378fbf90602401602060405180830381865afa1580156116ea573d5f5f3e3d5ffd5b505050506040513d601f19601f8201168201806040525081019061170e919061396e565b8152602081019190915260409081015f90812060048054935163e8378fbf60e01b81526001600160a01b03878116928201929092529194509192600892849291169063e8378fbf90602401602060405180830381865afa158015611774573d5f5f3e3d5ffd5b505050506040513d601f19601f82011682018060405250810190611798919061396e565b81526020019081526020015f209050606460035483600101546117bb9190613aac565b6117c59190613ad7565b82600101546117d49190613999565b8260010181905550606460035482600101546117f09190613aac565b6117fa9190613ad7565b81600101546118099190613aea565b60018083018290558301546040516001600160a01b0380871693908816927faecea04ec10c6c0b9d91c8e45440289d97d5737d78401b23bc3ca82031eae9329261185c9290918252602082015260400190565b60405180910390a350505050565b61187261255b565b61187a6124e0565b6004805460405163e8378fbf60e01b81526001600160a01b03858116938201939093525f92600792849291169063e8378fbf90602401602060405180830381865afa1580156118cb573d5f5f3e3d5ffd5b505050506040513d601f19601f820116820180604052508101906118ef919061396e565b815260208101919091526040015f2060028101549091506001600160a01b038381169116146119535760405162461bcd60e51b815260206004820152601060248201526f0c6e4cac2e8dee440dad2e6dac2e8c6d60831b6044820152606401610909565b6002810154600160a01b900460ff16156119a15760405162461bcd60e51b815260206004820152600f60248201526e185b1c9958591e4818db185a5b5959608a1b6044820152606401610909565b6004805460405163222b15fb60e01b81526001600160a01b038581169382019390935291169063222b15fb90602401602060405180830381865afa1580156119eb573d5f5f3e3d5ffd5b505050506040513d601f19601f82011682018060405250810190611a0f91906139d4565b15611a5c5760405162461bcd60e51b815260206004820152601960248201527f63726561746f7220616c72656164792068617320746f6b656e000000000000006044820152606401610909565b60028101805460ff60a01b1916600160a01b1790556004805460405163e8378fbf60e01b81526001600160a01b03868116938201939093525f92600892849291169063e8378fbf90602401602060405180830381865afa158015611ac2573d5f5f3e3d5ffd5b505050506040513d601f19601f82011682018060405250810190611ae6919061396e565b8152602081019190915260409081015f20600480820154825560065485546002870154945163038918e360e61b81526001600160a01b0391821693810193909352938416602483015291935091169063e24638c0906044015f604051808303815f87803b158015611b55575f5ffd5b505af1158015611b67573d5f5f3e3d5ffd5b505050505050611b7660018055565b5050565b604080516080810182525f8082526020820181905291810182905260608101919091526004805460405163e8378fbf60e01b81526001600160a01b03858116938201939093526007925f92169063e8378fbf90602401602060405180830381865afa158015611beb573d5f5f3e3d5ffd5b505050506040513d601f19601f82011682018060405250810190611c0f919061396e565b815260208082019290925260409081015f20815160808101835281546001600160a01b039081168252600183015481169482019490945260029091015492831691810191909152600160a01b90910460ff161515606082015292915050565b611c766124e0565b6001600160a01b03811615611d3f576004805460405163222b15fb60e01b81526001600160a01b038481169382019390935291169063222b15fb90602401602060405180830381865afa158015611ccf573d5f5f3e3d5ffd5b505050506040513d601f19601f82011682018060405250810190611cf391906139d4565b611d3f5760405162461bcd60e51b815260206004820152601960248201527f63726561746f7220626c6f636b65642f68617320746f6b656e000000000000006044820152606401610909565b6004805460405163e0eeb3d360e01b81526001600160a01b03848116938201939093525f929091169063e0eeb3d3906024016020604051808303815f875af1158015611d8d573d5f5f3e3d5ffd5b505050506040513d601f19601f82011682018060405250810190611db1919061396e565b5f81815260076020908152604080832060028082018054600160a01b6001600160a01b038b811680151583026001600160a81b0319909416179290921783559254600887529685902096909655548254845192820460ff161515835242958301959095529596509094841693929092169185917ff0c0bc2d3fca58ed0faa7b1b3cdfe520dc530b72e249182a61b923ec6067d997910160405180910390a4505050565b611e5c6124e0565b6001600160a01b038116611e8557604051631e4fbdf760e01b81525f6004820152602401610909565b611e8e8161250c565b50565b5f5b8151811015611b765760045482515f9160079183916001600160a01b03169063e8378fbf90879087908110611eca57611eca6138f6565b6020908102919091010151516040516001600160e01b031960e084901b1681526001600160a01b039091166004820152602401602060405180830381865afa158015611f18573d5f5f3e3d5ffd5b505050506040513d601f19601f82011682018060405250810190611f3c919061396e565b815260208101919091526040015f2080549091506001600160a01b0316611f995760405162461bcd60e51b8152602060048201526011602482015270151bdad95b881b9bdd0818dc99585d1959607a1b6044820152606401610909565b60045483515f9160089183916001600160a01b03169063e8378fbf90889088908110611fc757611fc76138f6565b6020908102919091010151516040516001600160e01b031960e084901b1681526001600160a01b039091166004820152602401602060405180830381865afa158015612015573d5f5f3e3d5ffd5b505050506040513d601f19601f82011682018060405250810190612039919061396e565b81526020019081526020015f20905080600501545f148061206b575060058101546120679062015180613aea565b4210155b806120fa575060055f9054906101000a90046001600160a01b03166001600160a01b031663a9dc491d6040518163ffffffff1660e01b8152600401602060405180830381865afa1580156120c1573d5f5f3e3d5ffd5b505050506040513d601f19601f820116820180604052508101906120e591906138c7565b6001600160a01b0316336001600160a01b0316145b6121465760405162461bcd60e51b815260206004820152601860248201527f486561742075706461746520746f6f206672657175656e7400000000000000006044820152606401610909565b5f816004015490505f858581518110612161576121616138f6565b6020026020010151602001519050818110156121b75760405162461bcd60e51b8152602060048201526015602482015274496e76616c6964206865617420646563726561736560581b6044820152606401610909565b6004830181905542600584015560025483541480156121d4575081155b156121dd575f83555b600654845460405163f251f45f60e01b81526001600160a01b03918216600482015291169063f251f45f90602401602060405180830381865afa158015612226573d5f5f3e3d5ffd5b505050506040513d601f19601f8201168201806040525081019061224a91906139d4565b1561231057825460048401545f9161226191613999565b90505f61227061c35083613ad7565b9050801561230d575f5b818110156122e9576006548754604051633248f2b360e11b81526001600160a01b039182166004820152911690636491e566906024015f604051808303815f87803b1580156122c7575f5ffd5b505af11580156122d9573d5f5f3e3d5ffd5b50506001909201915061227a9050565b506122f661c35082613aac565b855f015f8282546123079190613aea565b90915550505b50505b6002840154600160a01b900460ff16801561239357506006548454604051634ed599fb60e11b81526001600160a01b039182166004820152911690639dab33f690602401602060405180830381865afa15801561236f573d5f5f3e3d5ffd5b505050506040513d601f19601f8201168201806040525081019061239391906139d4565b15612464575f836002015484600401546123ad9190613999565b90505f8460010154826123c09190613ad7565b90508015612461575f5b8181101561243957600654875460405163641d27ab60e01b81526001600160a01b03918216600482015291169063641d27ab906024015f604051808303815f87803b158015612417575f5ffd5b505af1158015612429573d5f5f3e3d5ffd5b5050600190920191506123ca9050565b5060018501546124499082613aac565b856002015f82825461245b9190613aea565b90915550505b50505b858581518110612476576124766138f6565b60200260200101515f01516001600160a01b03167f17f0fa8193ad599e6d9e20fb742ac1d5fd0b1bf4246f0aa664a4c293863ffac08460040154426040516124c8929190918252602082015260400190565b60405180910390a2505060019092019150611e939050565b5f546001600160a01b03163314610b365760405163118cdaa760e01b8152336004820152602401610909565b5f80546001600160a01b038381166001600160a01b0319831681178455604051919092169283917f8be0079c531659141344cd1fd0a4f28419497f9722a3daafe3b4186f6b6457e09190a35050565b60026001540361257e57604051633ee5aeb560e01b815260040160405180910390fd5b6002600155565b5f808073c190e6f26ce14e40d30251fde25927a73a5d58b66001600160a01b038516106125c75773c190e6f26ce14e40d30251fde25927a73a5d58b6846125de565b8373c190e6f26ce14e40d30251fde25927a73a5d58b65b915091505f846001600160a01b031663ebda16eb6040518163ffffffff1660e01b8152600401602060405180830381865afa15801561261f573d5f5f3e3d5ffd5b505050506040513d601f19601f82011682018060405250810190612643919061396e565b90505f60045f9054906101000a90046001600160a01b03166001600160a01b03166376edb6f46040518163ffffffff1660e01b8152600401602060405180830381865afa158015612696573d5f5f3e3d5ffd5b505050506040513d601f19601f820116820180604052508101906126ba919061396e565b90505f821180156126ca57505f81115b6127055760405162461bcd60e51b815260206004820152600c60248201526b7a65726f20616d6f756e747360a01b6044820152606401610909565b5f866001600160a01b0316856001600160a01b0316146127255781612727565b825b90505f876001600160a01b0316866001600160a01b031614612749578361274b565b825b600c54604051630b4c774160e11b81529192505f916001600160a01b0390911690631698ee8290612786908a908a90610bb8906004016139ac565b602060405180830381865afa1580156127a1573d5f5f3e3d5ffd5b505050506040513d601f19601f820116820180604052508101906127c591906138c7565b90506001600160a01b0381161561280c5760405162461bcd60e51b815260206004820152600b60248201526a504f4f4c5f45584953545360a81b6044820152606401610909565b5f6128178385612e0e565b600c5460405163a167129560e01b81529192506001600160a01b03169063a16712959061284e908b908b90610bb8906004016139ac565b6020604051808303815f875af115801561286a573d5f5f3e3d5ffd5b505050506040513d601f19601f8201168201806040525081019061288e91906138c7565b60405163f637731d60e01b81526001600160a01b038381166004830152919a50908a169063f637731d906024015f604051808303815f87803b1580156128d2575f5ffd5b505af11580156128e4573d5f5f3e3d5ffd5b505050505050505050505050919050565b5f808073c190e6f26ce14e40d30251fde25927a73a5d58b66001600160a01b038716106129375773c190e6f26ce14e40d30251fde25927a73a5d58b68661294e565b8573c190e6f26ce14e40d30251fde25927a73a5d58b65b915091505f866001600160a01b0316836001600160a01b0316146129725784612974565b855b90505f876001600160a01b0316846001600160a01b0316146129965786612998565b855b6040516370a0823160e01b815230600482015290915082906001600160a01b038616906370a0823190602401602060405180830381865afa1580156129df573d5f5f3e3d5ffd5b505050506040513d601f19601f82011682018060405250810190612a03919061396e565b1015612a4a5760405162461bcd60e51b815260206004820152601660248201527504d495353494e475f42414c414e43455f544f4b454e360541b6044820152606401610909565b6040516370a0823160e01b815230600482015281906001600160a01b038516906370a0823190602401602060405180830381865afa158015612a8e573d5f5f3e3d5ffd5b505050506040513d601f19601f82011682018060405250810190612ab2919061396e565b1015612af95760405162461bcd60e51b81526020600482015260166024820152754d495353494e475f42414c414e43455f544f4b454e3160501b6044820152606401610909565b5f612b43896001600160a01b0316866001600160a01b031614612b1c5788612b1e565b875b8a6001600160a01b0316876001600160a01b031614612b3d5788612e0e565b89612e0e565b90505f612b4f82612eba565b9050603c5f612b6061271084613afd565b90505f612b6f84612710613b22565b90505f612b7e838560016131bf565b90505f612b8c83865f6131bf565b9050620d89e719600283900b1215612bbd57612bac85620d89e719613b47565b612bba90620d89e719613afd565b91505b612bca620d89e719613b68565b60020b8160020b1315612c095784612be5620d89e719613b68565b612bef9190613b47565b612bfc620d89e719613b68565b612c069190613afd565b90505b600b5460405163095ea7b360e01b81526001600160a01b039182166004820152602481018b9052908c169063095ea7b3906044016020604051808303815f875af1158015612c59573d5f5f3e3d5ffd5b505050506040513d601f19601f82011682018060405250810190612c7d91906139d4565b50600b5460405163095ea7b360e01b81526001600160a01b039182166004820152602481018a9052908b169063095ea7b3906044016020604051808303815f875af1158015612cce573d5f5f3e3d5ffd5b505050506040513d601f19601f82011682018060405250810190612cf291906139d4565b505f600b5f9054906101000a90046001600160a01b03166001600160a01b031663883164566040518061016001604052808f6001600160a01b031681526020018e6001600160a01b03168152602001610bb862ffffff1681526020018660020b81526020018560020b81526020018d81526020018c81526020015f81526020015f8152602001306001600160a01b0316815260200142610258612d959190613aea565b8152506040518263ffffffff1660e01b8152600401612db49190613b88565b6080604051808303815f875af1158015612dd0573d5f5f3e3d5ffd5b505050506040513d601f19601f82011682018060405250810190612df49190613c4c565b50919e5050505050505050505050505050505b9392505050565b5f5f82118015612e1d57505f83115b612e555760405162461bcd60e51b815260206004820152600960248201526862616420726174696f60b81b6044820152606401610909565b5f612e6584600160c01b8561323f565b90505f612e71826132e9565b90506001600160a01b038111156110585760405162461bcd60e51b815260206004820152600d60248201526c73717274206f766572666c6f7760981b6044820152606401610909565b5f6401000276a36001600160a01b03831610801590612ef5575073fffd8963efd1fc6a506488495d951d5263988d266001600160a01b038316105b612f12576040516324c070df60e11b815260040160405180910390fd5b640100000000600160c01b03602083901b166001600160801b03811160071b81811c67ffffffffffffffff811160061b90811c63ffffffff811160051b90811c61ffff811160041b90811c60ff8111600390811b91821c600f811160021b90811c918211600190811b92831c97908811961790941790921717909117171760808110612fa657607f810383901c9150612fb0565b80607f0383901b91505b908002607f81811c60ff83811c9190911c800280831c81831c1c800280841c81841c1c800280851c81851c1c800280861c81861c1c800280871c81871c1c800280881c81881c1c800280891c81891c1c8002808a1c818a1c1c8002808b1c818b1c1c8002808c1c818c1c1c8002808d1c818d1c1c8002808e1c9c81901c9c909c1c80029c8d901c9e9d607f198f0160401b60c09190911c678000000000000000161760c19b909b1c674000000000000000169a909a1760c29990991c672000000000000000169890981760c39790971c671000000000000000169690961760c49590951c670800000000000000169490941760c59390931c670400000000000000169290921760c69190911c670200000000000000161760c79190911c670100000000000000161760c89190911c6680000000000000161760c99190911c6640000000000000161760ca9190911c6620000000000000161760cb9190911c6610000000000000161760cc9190911c6608000000000000161760cd9190911c66040000000000001617693627a301d71055774c8581026f028f6481ab7f045a5af012a19d003aa9198101608090811d906fdb2df09e81959a81455e260799a0632f8301901d600281810b9083900b146131b057886001600160a01b031661319582613338565b6001600160a01b031611156131aa57816131b2565b806131b2565b815b9998505050505050505050565b5f806131cb8486613b47565b90508060020b5f036131e05784915050612e07565b82613210575f8560020b136131f5575f6131f7565b835b6132018287613afd565b61320b9190613b22565b613236565b5f8560020b12613220575f613222565b835b61322c8287613afd565b6132369190613afd565b95945050505050565b5f80805f19858709858702925082811083820303915050805f03613273575f8411613268575f5ffd5b508290049050612e07565b80841161327e575f5ffd5b5f848688095f868103871696879004966002600389028118808a02820302808a02820302808a02820302808a02820302808a02820302808a02909103029181900381900460010186841190950394909402919094039290920491909117919091029150509392505050565b5f815f036132f857505f919050565b5f60016133058482613aea565b901c90508291505b81811015611274579050806001816133258186613ad7565b61332f9190613aea565b901c905061330d565b5f5f5f8360020b1261334d578260020b613354565b8260020b5f035b9050620d89e881111561337a576040516315e4079d60e11b815260040160405180910390fd5b5f816001165f0361338f57600160801b6133a1565b6ffffcb933bd6fad37aa2d162d1a5940015b70ffffffffffffffffffffffffffffffffff16905060028216156133d5576ffff97272373d413259a46990580e213a0260801c5b60048216156133f4576ffff2e50f5f656932ef12357cf3c7fdcc0260801c5b6008821615613413576fffe5caca7e10e4e61c3624eaa0941cd00260801c5b6010821615613432576fffcb9843d60f6159c9db58835c9266440260801c5b6020821615613451576fff973b41fa98c081472e6896dfb254c00260801c5b6040821615613470576fff2ea16466c96a3843ec78b326b528610260801c5b608082161561348f576ffe5dee046a99a2a811c461f1969c30530260801c5b6101008216156134af576ffcbe86c7900a88aedcffc83b479aa3a40260801c5b6102008216156134cf576ff987a7253ac413176f2b074cf7815e540260801c5b6104008216156134ef576ff3392b0822b70005940c7a398e4b70f30260801c5b61080082161561350f576fe7159475a2c29b7443b29c7fa6e889d90260801c5b61100082161561352f576fd097f3bdfd2022b8845ad8f792aa58250260801c5b61200082161561354f576fa9f746462d870fdf8a65dc1f90e061e50260801c5b61400082161561356f576f70d869a156d2a1b890bb3df62baf32f70260801c5b61800082161561358f576f31be135f97d08fd981231505542fcfa60260801c5b620100008216156135b0576f09aa508b5b7a84e1c677de54f3e99bc90260801c5b620200008216156135d0576e5d6af8dedb81196699c329225ee6040260801c5b620400008216156135ef576d2216e584f5fa1ea926041bedfe980260801c5b6208000082161561360c576b048a170391f7dc42444e8fa20260801c5b5f8460020b131561362b57805f198161362757613627613ac3565b0490505b64010000000081061561363f576001613641565b5f5b60ff16602082901c0192505050919050565b5f5f60208385031215613664575f5ffd5b823567ffffffffffffffff81111561367a575f5ffd5b8301601f8101851361368a575f5ffd5b803567ffffffffffffffff8111156136a0575f5ffd5b8560208260061b84010111156136b4575f5ffd5b6020919091019590945092505050565b6001600160a01b0381168114611e8e575f5ffd5b5f602082840312156136e8575f5ffd5b8135612e07816136c4565b5f60208284031215613703575f5ffd5b5035919050565b81516001600160a01b0390811682526020808401518216908301526040808401519091169082015260608083015115159082015260808101610c65565b5f5f5f5f6060858703121561375a575f5ffd5b84359350602085013567ffffffffffffffff811115613777575f5ffd5b8501601f81018713613787575f5ffd5b803567ffffffffffffffff81111561379d575f5ffd5b8760208260051b84010111156137b1575f5ffd5b6020919091019350915060408501356137c9816136c4565b939692955090935050565b602080825282518282018190525f918401906040840190835b818110156138465761383083855180516001600160a01b039081168352602080830151821690840152604080830151909116908301526060908101511515910152565b60209390930192608092909201916001016137ed565b509095945050505050565b5f5f5f60608486031215613863575f5ffd5b833592506020840135613875816136c4565b91506040840135613885816136c4565b809150509250925092565b5f5f604083850312156138a1575f5ffd5b82356138ac816136c4565b915060208301356138bc816136c4565b809150509250929050565b5f602082840312156138d7575f5ffd5b8151612e07816136c4565b634e487b7160e01b5f52604160045260245ffd5b634e487b7160e01b5f52603260045260245ffd5b5f604082840312801561391b575f5ffd5b506040805190810167ffffffffffffffff8111828210171561394b57634e487b7160e01b5f52604160045260245ffd5b6040528235613959816136c4565b81526020928301359281019290925250919050565b5f6020828403121561397e575f5ffd5b5051919050565b634e487b7160e01b5f52601160045260245ffd5b81810381811115610c6557610c65613985565b6001600160a01b03938416815291909216602082015262ffffff909116604082015260600190565b5f602082840312156139e4575f5ffd5b81518015158114612e07575f5ffd5b602081525f82516080602084015280518060a0850152806020830160c086015e5f60c0828601015260018060a01b036020860151166040850152604085015160608501526060850151608085015260c0601f19601f8301168501019250505092915050565b5f5f60408385031215613a69575f5ffd5b505080516020909101519092909150565b5f60208284031215613a8a575f5ffd5b815160058110612e07575f5ffd5b634e487b7160e01b5f52602160045260245ffd5b8082028115828204841417610c6557610c65613985565b634e487b7160e01b5f52601260045260245ffd5b5f82613ae557613ae5613ac3565b500490565b80820180821115610c6557610c65613985565b600282810b9082900b03627fffff198112627fffff82131715610c6557610c65613985565b600281810b9083900b01627fffff8113627fffff1982121715610c6557610c65613985565b5f8260020b80613b5957613b59613ac3565b808360020b0791505092915050565b5f8160020b627fffff198103613b8057613b80613985565b5f0392915050565b81516001600160a01b0316815261016081016020830151613bb460208401826001600160a01b03169052565b506040830151613bcb604084018262ffffff169052565b506060830151613be0606084018260020b9052565b506080830151613bf5608084018260020b9052565b5060a083015160a083015260c083015160c083015260e083015160e0830152610100830151610100830152610120830151613c3c6101208401826001600160a01b03169052565b5061014092830151919092015290565b5f5f5f5f60808587031215613c5f575f5ffd5b845160208601519094506001600160801b0381168114613c7d575f5ffd5b604086015160609096015194979096509250505056fea2646970667358221220fd90a6b811d4b4888496201bd30b430cd7a5b36075872d1090a6b112bdb2984b64736f6c634300081c0033",
  "linkReferences": {},
  "deployedLinkReferences": {},
  "immutableReferences": {},
  "inputSourceName": "project/contracts/MemedFactory_test.sol",
  "buildInfoId": "solc-0_8_28-1575ebd4240c8cbbcb9d3a7799aa02f9c05100d3"
}