{
  "_format": "hh3-artifact-1",
  "contractName": "MemedFactory",
  "sourceName": "contracts/MemedFactory.sol",
  "abi": [
    {
      "inputs": [
        {
          "internalType": "address",
          "name": "_memedTokenSale",
          "type": "address"
        },
        {
          "internalType": "address",
          "name": "_memedBattle",
          "type": "address"
        },
        {
          "internalType": "address",
          "name": "_memedEngageToEarn",
          "type": "address"
        },
        {
          "internalType": "address",
          "name": "_uniswapV2Router",
          "type": "address"
        }
      ],
      "stateMutability": "nonpayable",
      "type": "constructor"
    },
    {
      "inputs": [
        {
          "internalType": "address",
          "name": "owner",
          "type": "address"
        }
      ],
      "name": "OwnableInvalidOwner",
      "type": "error"
    },
    {
      "inputs": [
        {
          "internalType": "address",
          "name": "account",
          "type": "address"
        }
      ],
      "name": "OwnableUnauthorizedAccount",
      "type": "error"
    },
    {
      "inputs": [],
      "name": "ReentrancyGuardReentrantCall",
      "type": "error"
    },
    {
      "anonymous": false,
      "inputs": [
        {
          "indexed": true,
          "internalType": "address",
          "name": "winner",
          "type": "address"
        },
        {
          "indexed": true,
          "internalType": "address",
          "name": "loser",
          "type": "address"
        },
        {
          "indexed": false,
          "internalType": "uint256",
          "name": "creatorIncentivesUnlocksAtWinner",
          "type": "uint256"
        },
        {
          "indexed": false,
          "internalType": "uint256",
          "name": "creatorIncentivesUnlocksAtLoser",
          "type": "uint256"
        }
      ],
      "name": "BattleUpdated",
      "type": "event"
    },
    {
      "anonymous": false,
      "inputs": [
        {
          "indexed": true,
          "internalType": "address",
          "name": "token",
          "type": "address"
        },
        {
          "indexed": false,
          "internalType": "uint256",
          "name": "heat",
          "type": "uint256"
        },
        {
          "indexed": false,
          "internalType": "uint256",
          "name": "timestamp",
          "type": "uint256"
        }
      ],
      "name": "HeatUpdated",
      "type": "event"
    },
    {
      "anonymous": false,
      "inputs": [
        {
          "indexed": true,
          "internalType": "address",
          "name": "previousOwner",
          "type": "address"
        },
        {
          "indexed": true,
          "internalType": "address",
          "name": "newOwner",
          "type": "address"
        }
      ],
      "name": "OwnershipTransferred",
      "type": "event"
    },
    {
      "anonymous": false,
      "inputs": [
        {
          "indexed": true,
          "internalType": "uint256",
          "name": "id",
          "type": "uint256"
        },
        {
          "indexed": true,
          "internalType": "address",
          "name": "token",
          "type": "address"
        },
        {
          "indexed": true,
          "internalType": "address",
          "name": "warriorNFT",
          "type": "address"
        }
      ],
      "name": "TokenCompletedFairLaunch",
      "type": "event"
    },
    {
      "anonymous": false,
      "inputs": [
        {
          "indexed": true,
          "internalType": "uint256",
          "name": "id",
          "type": "uint256"
        },
        {
          "indexed": true,
          "internalType": "address",
          "name": "token",
          "type": "address"
        },
        {
          "indexed": true,
          "internalType": "address",
          "name": "owner",
          "type": "address"
        },
        {
          "indexed": false,
          "internalType": "string",
          "name": "name",
          "type": "string"
        },
        {
          "indexed": false,
          "internalType": "string",
          "name": "ticker",
          "type": "string"
        },
        {
          "indexed": false,
          "internalType": "string",
          "name": "description",
          "type": "string"
        },
        {
          "indexed": false,
          "internalType": "string",
          "name": "image",
          "type": "string"
        },
        {
          "indexed": false,
          "internalType": "bool",
          "name": "isClaimedByCreator",
          "type": "bool"
        },
        {
          "indexed": false,
          "internalType": "uint256",
          "name": "createdAt",
          "type": "uint256"
        }
      ],
      "name": "TokenCreated",
      "type": "event"
    },
    {
      "inputs": [],
      "name": "BATTLE_REWARDS_PERCENTAGE",
      "outputs": [
        {
          "internalType": "uint256",
          "name": "",
          "type": "uint256"
        }
      ],
      "stateMutability": "view",
      "type": "function"
    },
    {
      "inputs": [],
      "name": "ENGAGEMENT_REWARDS_PER_NEW_HEAT",
      "outputs": [
        {
          "internalType": "uint256",
          "name": "",
          "type": "uint256"
        }
      ],
      "stateMutability": "view",
      "type": "function"
    },
    {
      "inputs": [],
      "name": "INITIAL_REWARDS_PER_HEAT",
      "outputs": [
        {
          "internalType": "uint256",
          "name": "",
          "type": "uint256"
        }
      ],
      "stateMutability": "view",
      "type": "function"
    },
    {
      "inputs": [],
      "name": "MAX_ENGAGE_CREATOR_REWARD_PERCENTAGE",
      "outputs": [
        {
          "internalType": "uint256",
          "name": "",
          "type": "uint256"
        }
      ],
      "stateMutability": "view",
      "type": "function"
    },
    {
      "inputs": [],
      "name": "MAX_ENGAGE_USER_REWARD_PERCENTAGE",
      "outputs": [
        {
          "internalType": "uint256",
          "name": "",
          "type": "uint256"
        }
      ],
      "stateMutability": "view",
      "type": "function"
    },
    {
      "inputs": [],
      "name": "REWARD_PER_ENGAGEMENT",
      "outputs": [
        {
          "internalType": "uint256",
          "name": "",
          "type": "uint256"
        }
      ],
      "stateMutability": "view",
      "type": "function"
    },
    {
      "inputs": [
        {
          "internalType": "address",
          "name": "_winner",
          "type": "address"
        },
        {
          "internalType": "address",
          "name": "_loser",
          "type": "address"
        }
      ],
      "name": "battleUpdate",
      "outputs": [],
      "stateMutability": "nonpayable",
      "type": "function"
    },
    {
      "inputs": [
        {
          "internalType": "address",
          "name": "_token",
          "type": "address"
        },
        {
          "internalType": "address",
          "name": "_creator",
          "type": "address"
        }
      ],
      "name": "claimToken",
      "outputs": [],
      "stateMutability": "nonpayable",
      "type": "function"
    },
    {
      "inputs": [
        {
          "internalType": "uint256",
          "name": "_id",
          "type": "uint256"
        },
        {
          "internalType": "address",
          "name": "_token",
          "type": "address"
        },
        {
          "internalType": "address",
          "name": "_warriorNFT",
          "type": "address"
        }
      ],
      "name": "completeFairLaunch",
      "outputs": [],
      "stateMutability": "nonpayable",
      "type": "function"
    },
    {
      "inputs": [
        {
          "internalType": "address",
          "name": "_token",
          "type": "address"
        }
      ],
      "name": "getByToken",
      "outputs": [
        {
          "components": [
            {
              "internalType": "address",
              "name": "token",
              "type": "address"
            },
            {
              "internalType": "address",
              "name": "warriorNFT",
              "type": "address"
            },
            {
              "internalType": "address",
              "name": "creator",
              "type": "address"
            },
            {
              "internalType": "string",
              "name": "name",
              "type": "string"
            },
            {
              "internalType": "string",
              "name": "ticker",
              "type": "string"
            },
            {
              "internalType": "string",
              "name": "description",
              "type": "string"
            },
            {
              "internalType": "string",
              "name": "image",
              "type": "string"
            },
            {
              "internalType": "bool",
              "name": "isClaimedByCreator",
              "type": "bool"
            }
          ],
          "internalType": "struct TokenData",
          "name": "",
          "type": "tuple"
        }
      ],
      "stateMutability": "view",
      "type": "function"
    },
    {
      "inputs": [
        {
          "internalType": "uint256",
          "name": "_id",
          "type": "uint256"
        }
      ],
      "name": "getCreatorById",
      "outputs": [
        {
          "internalType": "address",
          "name": "",
          "type": "address"
        }
      ],
      "stateMutability": "view",
      "type": "function"
    },
    {
      "inputs": [
        {
          "internalType": "address",
          "name": "_token",
          "type": "address"
        }
      ],
      "name": "getHeat",
      "outputs": [
        {
          "internalType": "uint256",
          "name": "",
          "type": "uint256"
        }
      ],
      "stateMutability": "view",
      "type": "function"
    },
    {
      "inputs": [],
      "name": "getMemedBattle",
      "outputs": [
        {
          "internalType": "address",
          "name": "",
          "type": "address"
        }
      ],
      "stateMutability": "view",
      "type": "function"
    },
    {
      "inputs": [],
      "name": "getMemedEngageToEarn",
      "outputs": [
        {
          "internalType": "contract IMemedEngageToEarn",
          "name": "",
          "type": "address"
        }
      ],
      "stateMutability": "view",
      "type": "function"
    },
    {
      "inputs": [
        {
          "internalType": "address",
          "name": "_token",
          "type": "address"
        }
      ],
      "name": "getTokenByAddress",
      "outputs": [
        {
          "components": [
            {
              "internalType": "address",
              "name": "token",
              "type": "address"
            },
            {
              "internalType": "address",
              "name": "warriorNFT",
              "type": "address"
            },
            {
              "internalType": "address",
              "name": "creator",
              "type": "address"
            },
            {
              "internalType": "string",
              "name": "name",
              "type": "string"
            },
            {
              "internalType": "string",
              "name": "ticker",
              "type": "string"
            },
            {
              "internalType": "string",
              "name": "description",
              "type": "string"
            },
            {
              "internalType": "string",
              "name": "image",
              "type": "string"
            },
            {
              "internalType": "bool",
              "name": "isClaimedByCreator",
              "type": "bool"
            }
          ],
          "internalType": "struct TokenData",
          "name": "",
          "type": "tuple"
        }
      ],
      "stateMutability": "view",
      "type": "function"
    },
    {
      "inputs": [
        {
          "internalType": "uint256",
          "name": "_id",
          "type": "uint256"
        }
      ],
      "name": "getTokenById",
      "outputs": [
        {
          "components": [
            {
              "internalType": "address",
              "name": "token",
              "type": "address"
            },
            {
              "internalType": "address",
              "name": "warriorNFT",
              "type": "address"
            },
            {
              "internalType": "address",
              "name": "creator",
              "type": "address"
            },
            {
              "internalType": "string",
              "name": "name",
              "type": "string"
            },
            {
              "internalType": "string",
              "name": "ticker",
              "type": "string"
            },
            {
              "internalType": "string",
              "name": "description",
              "type": "string"
            },
            {
              "internalType": "string",
              "name": "image",
              "type": "string"
            },
            {
              "internalType": "bool",
              "name": "isClaimedByCreator",
              "type": "bool"
            }
          ],
          "internalType": "struct TokenData",
          "name": "",
          "type": "tuple"
        }
      ],
      "stateMutability": "view",
      "type": "function"
    },
    {
      "inputs": [],
      "name": "getTokens",
      "outputs": [
        {
          "components": [
            {
              "internalType": "address",
              "name": "token",
              "type": "address"
            },
            {
              "internalType": "address",
              "name": "warriorNFT",
              "type": "address"
            },
            {
              "internalType": "address",
              "name": "creator",
              "type": "address"
            },
            {
              "internalType": "string",
              "name": "name",
              "type": "string"
            },
            {
              "internalType": "string",
              "name": "ticker",
              "type": "string"
            },
            {
              "internalType": "string",
              "name": "description",
              "type": "string"
            },
            {
              "internalType": "string",
              "name": "image",
              "type": "string"
            },
            {
              "internalType": "bool",
              "name": "isClaimedByCreator",
              "type": "bool"
            }
          ],
          "internalType": "struct TokenData[]",
          "name": "",
          "type": "tuple[]"
        }
      ],
      "stateMutability": "view",
      "type": "function"
    },
    {
      "inputs": [
        {
          "internalType": "address",
          "name": "_token",
          "type": "address"
        }
      ],
      "name": "getWarriorNFT",
      "outputs": [
        {
          "internalType": "address",
          "name": "",
          "type": "address"
        }
      ],
      "stateMutability": "view",
      "type": "function"
    },
    {
      "inputs": [],
      "name": "memedBattle",
      "outputs": [
        {
          "internalType": "contract IMemedBattle",
          "name": "",
          "type": "address"
        }
      ],
      "stateMutability": "view",
      "type": "function"
    },
    {
      "inputs": [],
      "name": "memedEngageToEarn",
      "outputs": [
        {
          "internalType": "contract IMemedEngageToEarn",
          "name": "",
          "type": "address"
        }
      ],
      "stateMutability": "view",
      "type": "function"
    },
    {
      "inputs": [],
      "name": "memedTokenSale",
      "outputs": [
        {
          "internalType": "contract IMemedTokenSale",
          "name": "",
          "type": "address"
        }
      ],
      "stateMutability": "view",
      "type": "function"
    },
    {
      "inputs": [],
      "name": "owner",
      "outputs": [
        {
          "internalType": "address",
          "name": "",
          "type": "address"
        }
      ],
      "stateMutability": "view",
      "type": "function"
    },
    {
      "inputs": [],
      "name": "renounceOwnership",
      "outputs": [],
      "stateMutability": "nonpayable",
      "type": "function"
    },
    {
      "inputs": [
        {
          "internalType": "address",
          "name": "_creator",
          "type": "address"
        },
        {
          "internalType": "string",
          "name": "_name",
          "type": "string"
        },
        {
          "internalType": "string",
          "name": "_ticker",
          "type": "string"
        },
        {
          "internalType": "string",
          "name": "_description",
          "type": "string"
        },
        {
          "internalType": "string",
          "name": "_image",
          "type": "string"
        }
      ],
      "name": "startFairLaunch",
      "outputs": [],
      "stateMutability": "nonpayable",
      "type": "function"
    },
    {
      "inputs": [
        {
          "internalType": "uint256",
          "name": "_amount",
          "type": "uint256"
        },
        {
          "internalType": "address[]",
          "name": "_path",
          "type": "address[]"
        },
        {
          "internalType": "address",
          "name": "_to",
          "type": "address"
        }
      ],
      "name": "swap",
      "outputs": [
        {
          "internalType": "uint256[]",
          "name": "",
          "type": "uint256[]"
        }
      ],
      "stateMutability": "nonpayable",
      "type": "function"
    },
    {
      "inputs": [
        {
          "internalType": "uint256",
          "name": "",
          "type": "uint256"
        }
      ],
      "name": "tokenData",
      "outputs": [
        {
          "internalType": "address",
          "name": "token",
          "type": "address"
        },
        {
          "internalType": "address",
          "name": "warriorNFT",
          "type": "address"
        },
        {
          "internalType": "address",
          "name": "creator",
          "type": "address"
        },
        {
          "internalType": "string",
          "name": "name",
          "type": "string"
        },
        {
          "internalType": "string",
          "name": "ticker",
          "type": "string"
        },
        {
          "internalType": "string",
          "name": "description",
          "type": "string"
        },
        {
          "internalType": "string",
          "name": "image",
          "type": "string"
        },
        {
          "internalType": "bool",
          "name": "isClaimedByCreator",
          "type": "bool"
        }
      ],
      "stateMutability": "view",
      "type": "function"
    },
    {
      "inputs": [
        {
          "internalType": "uint256",
          "name": "",
          "type": "uint256"
        }
      ],
      "name": "tokenRewardData",
      "outputs": [
        {
          "internalType": "uint256",
          "name": "lastRewardAt",
          "type": "uint256"
        },
        {
          "internalType": "uint256",
          "name": "creatorIncentivesUnlocksAt",
          "type": "uint256"
        },
        {
          "internalType": "uint256",
          "name": "creatorIncentivesUnlockedAt",
          "type": "uint256"
        },
        {
          "internalType": "uint256",
          "name": "lastEngagementBoost",
          "type": "uint256"
        },
        {
          "internalType": "uint256",
          "name": "heat",
          "type": "uint256"
        },
        {
          "internalType": "uint256",
          "name": "lastHeatUpdate",
          "type": "uint256"
        },
        {
          "internalType": "uint256",
          "name": "createdAt",
          "type": "uint256"
        }
      ],
      "stateMutability": "view",
      "type": "function"
    },
    {
      "inputs": [
        {
          "internalType": "uint256",
          "name": "",
          "type": "uint256"
        }
      ],
      "name": "tokens",
      "outputs": [
        {
          "internalType": "address",
          "name": "",
          "type": "address"
        }
      ],
      "stateMutability": "view",
      "type": "function"
    },
    {
      "inputs": [
        {
          "internalType": "address",
          "name": "newOwner",
          "type": "address"
        }
      ],
      "name": "transferOwnership",
      "outputs": [],
      "stateMutability": "nonpayable",
      "type": "function"
    },
    {
      "inputs": [],
      "name": "uniswapV2Factory",
      "outputs": [
        {
          "internalType": "contract IUniswapV2Factory",
          "name": "",
          "type": "address"
        }
      ],
      "stateMutability": "view",
      "type": "function"
    },
    {
      "inputs": [],
      "name": "uniswapV2Router",
      "outputs": [
        {
          "internalType": "contract IUniswapV2Router02",
          "name": "",
          "type": "address"
        }
      ],
      "stateMutability": "view",
      "type": "function"
    },
    {
      "inputs": [
        {
          "components": [
            {
              "internalType": "address",
              "name": "token",
              "type": "address"
            },
            {
              "internalType": "uint256",
              "name": "heat",
              "type": "uint256"
            }
          ],
          "internalType": "struct HeatUpdate[]",
          "name": "_heatUpdates",
          "type": "tuple[]"
        }
      ],
      "name": "updateHeat",
      "outputs": [],
      "stateMutability": "nonpayable",
      "type": "function"
    },
    {
      "stateMutability": "payable",
      "type": "receive"
    }
  ],
  "bytecode": "0x6080604052620186a0600255601460035534801561001b575f5ffd5b50604051615ca7380380615ca7833981810160405281019061003d91906103ba565b335f73ffffffffffffffffffffffffffffffffffffffff168173ffffffffffffffffffffffffffffffffffffffff16036100ae575f6040517f1e4fbdf70000000000000000000000000000000000000000000000000000000081526004016100a5919061042d565b60405180910390fd5b6100bd8161029b60201b60201c565b50600180819055508360045f6101000a81548173ffffffffffffffffffffffffffffffffffffffff021916908373ffffffffffffffffffffffffffffffffffffffff1602179055508260055f6101000a81548173ffffffffffffffffffffffffffffffffffffffff021916908373ffffffffffffffffffffffffffffffffffffffff1602179055508160065f6101000a81548173ffffffffffffffffffffffffffffffffffffffff021916908373ffffffffffffffffffffffffffffffffffffffff16021790555080600a5f6101000a81548173ffffffffffffffffffffffffffffffffffffffff021916908373ffffffffffffffffffffffffffffffffffffffff160217905550600a5f9054906101000a900473ffffffffffffffffffffffffffffffffffffffff1673ffffffffffffffffffffffffffffffffffffffff1663c45a01556040518163ffffffff1660e01b8152600401602060405180830381865afa15801561022f573d5f5f3e3d5ffd5b505050506040513d601f19601f820116820180604052508101906102539190610446565b600b5f6101000a81548173ffffffffffffffffffffffffffffffffffffffff021916908373ffffffffffffffffffffffffffffffffffffffff16021790555050505050610471565b5f5f5f9054906101000a900473ffffffffffffffffffffffffffffffffffffffff169050815f5f6101000a81548173ffffffffffffffffffffffffffffffffffffffff021916908373ffffffffffffffffffffffffffffffffffffffff1602179055508173ffffffffffffffffffffffffffffffffffffffff168173ffffffffffffffffffffffffffffffffffffffff167f8be0079c531659141344cd1fd0a4f28419497f9722a3daafe3b4186f6b6457e060405160405180910390a35050565b5f5ffd5b5f73ffffffffffffffffffffffffffffffffffffffff82169050919050565b5f61038982610360565b9050919050565b6103998161037f565b81146103a3575f5ffd5b50565b5f815190506103b481610390565b92915050565b5f5f5f5f608085870312156103d2576103d161035c565b5b5f6103df878288016103a6565b94505060206103f0878288016103a6565b9350506040610401878288016103a6565b9250506060610412878288016103a6565b91505092959194509250565b6104278161037f565b82525050565b5f6020820190506104405f83018461041e565b92915050565b5f6020828403121561045b5761045a61035c565b5b5f610468848285016103a6565b91505092915050565b6158298061047e5f395ff3fe6080604052600436106101e6575f3560e01c80638da5cb5b11610101578063c923563411610094578063dd743bc811610063578063dd743bc81461071a578063e5659f0714610756578063f2fde38b14610780578063f797113f146107a8576101ed565b8063c923563414610676578063ca31879d1461069e578063d1f6d04a146106c6578063dc6930a3146106f0576101ed565b8063a40103d4116100d0578063a40103d4146105a5578063aa6ca808146105e1578063abf599fc1461060b578063b4b5b48f14610633576101ed565b80638da5cb5b146104d357806391ded8fa146104fd57806392ac258214610539578063a11d8ac71461057b576101ed565b80635153563b11610179578063715018a611610148578063715018a61461042d578063741c6ae81461044357806377e989f31461046d5780637bdc60d914610497576101ed565b80635153563b1461037357806359d0f7131461039d5780635d3575a6146103c75780635de7c44a14610403576101ed565b806327e2fee4116101b557806327e2fee414610295578063306d3508146102d1578063320dc01b1461030d5780634f64b2be14610337576101ed565b80630280a16f146101f157806311eefb291461021b5780631694505e14610243578063263a61001461026d576101ed565b366101ed57005b5f5ffd5b3480156101fc575f5ffd5b506102056107d2565b6040516102129190614094565b60405180910390f35b348015610226575f5ffd5b50610241600480360381019061023c919061411f565b6107d8565b005b34801561024e575f5ffd5b50610257610971565b60405161026491906141e4565b60405180910390f35b348015610278575f5ffd5b50610293600480360381019061028e919061428d565b610996565b005b3480156102a0575f5ffd5b506102bb60048036038101906102b69190614383565b611117565b6040516102c891906143bd565b60405180910390f35b3480156102dc575f5ffd5b506102f760048036038101906102f29190614383565b6111eb565b6040516103049190614094565b60405180910390f35b348015610318575f5ffd5b506103216112a0565b60405161032e9190614094565b60405180910390f35b348015610342575f5ffd5b5061035d60048036038101906103589190614400565b6112a7565b60405161036a91906143bd565b60405180910390f35b34801561037e575f5ffd5b506103876112e2565b604051610394919061444b565b60405180910390f35b3480156103a8575f5ffd5b506103b1611307565b6040516103be9190614484565b60405180910390f35b3480156103d2575f5ffd5b506103ed60048036038101906103e89190614400565b61132c565b6040516103fa91906143bd565b60405180910390f35b34801561040e575f5ffd5b50610417611368565b6040516104249190614094565b60405180910390f35b348015610438575f5ffd5b5061044161136e565b005b34801561044e575f5ffd5b50610457611381565b6040516104649190614094565b60405180910390f35b348015610478575f5ffd5b50610481611386565b60405161048e91906144bd565b60405180910390f35b3480156104a2575f5ffd5b506104bd60048036038101906104b89190614400565b6113ae565b6040516104ca9190614631565b60405180910390f35b3480156104de575f5ffd5b506104e7611732565b6040516104f491906143bd565b60405180910390f35b348015610508575f5ffd5b50610523600480360381019061051e9190614383565b611759565b6040516105309190614631565b60405180910390f35b348015610544575f5ffd5b5061055f600480360381019061055a9190614400565b611beb565b6040516105729796959493929190614651565b60405180910390f35b348015610586575f5ffd5b5061058f611c29565b60405161059c91906144bd565b60405180910390f35b3480156105b0575f5ffd5b506105cb60048036038101906105c69190614713565b611c4e565b6040516105d8919061483b565b60405180910390f35b3480156105ec575f5ffd5b506105f5611ecd565b60405161060291906149d8565b60405180910390f35b348015610616575f5ffd5b50610631600480360381019061062c91906149f8565b611fb4565b005b34801561063e575f5ffd5b5061065960048036038101906106549190614400565b612953565b60405161066d989796959493929190614a9f565b60405180910390f35b348015610681575f5ffd5b5061069c60048036038101906106979190614b37565b612c18565b005b3480156106a9575f5ffd5b506106c460048036038101906106bf9190614b37565b612f80565b005b3480156106d1575f5ffd5b506106da6133ba565b6040516106e791906143bd565b60405180910390f35b3480156106fb575f5ffd5b506107046133e2565b6040516107119190614b95565b60405180910390f35b348015610725575f5ffd5b50610740600480360381019061073b9190614383565b613407565b60405161074d9190614631565b60405180910390f35b348015610761575f5ffd5b5061076a613823565b6040516107779190614094565b60405180910390f35b34801561078b575f5ffd5b506107a660048036038101906107a19190614383565b613829565b005b3480156107b3575f5ffd5b506107bc6138ad565b6040516107c99190614094565b60405180910390f35b61c35081565b60055f9054906101000a900473ffffffffffffffffffffffffffffffffffffffff1673ffffffffffffffffffffffffffffffffffffffff163373ffffffffffffffffffffffffffffffffffffffff1614806108655750610836611732565b73ffffffffffffffffffffffffffffffffffffffff163373ffffffffffffffffffffffffffffffffffffffff16145b6108a4576040517f08c379a000000000000000000000000000000000000000000000000000000000815260040161089b90614bf8565b60405180910390fd5b5f8282905067ffffffffffffffff8111156108c2576108c1614c16565b5b6040519080825280602002602001820160405280156108fb57816020015b6108e8613fc9565b8152602001906001900390816108e05790505b5090505f5f90505b838390508110156109625783838281811061092157610920614c43565b5b9050604002018036038101906109379190614d0c565b82828151811061094a57610949614c43565b5b60200260200101819052508080600101915050610903565b5061096c816138b2565b505050565b600a5f9054906101000a900473ffffffffffffffffffffffffffffffffffffffff1681565b61099e613e2b565b5f73ffffffffffffffffffffffffffffffffffffffff168973ffffffffffffffffffffffffffffffffffffffff1614610aaa5760045f9054906101000a900473ffffffffffffffffffffffffffffffffffffffff1673ffffffffffffffffffffffffffffffffffffffff1663222b15fb8a6040518263ffffffff1660e01b8152600401610a2b91906143bd565b602060405180830381865afa158015610a46573d5f5f3e3d5ffd5b505050506040513d601f19601f82011682018060405250810190610a6a9190614d61565b610aa9576040517f08c379a0000000000000000000000000000000000000000000000000000000008152600401610aa090614dfc565b60405180910390fd5b5b5f60045f9054906101000a900473ffffffffffffffffffffffffffffffffffffffff1673ffffffffffffffffffffffffffffffffffffffff1663e0eeb3d38b6040518263ffffffff1660e01b8152600401610b0591906143bd565b6020604051808303815f875af1158015610b21573d5f5f3e3d5ffd5b505050506040513d601f19601f82011682018060405250810190610b459190614e2e565b90505f60075f8381526020019081526020015f20604051806101000160405290815f82015f9054906101000a900473ffffffffffffffffffffffffffffffffffffffff1673ffffffffffffffffffffffffffffffffffffffff1673ffffffffffffffffffffffffffffffffffffffff168152602001600182015f9054906101000a900473ffffffffffffffffffffffffffffffffffffffff1673ffffffffffffffffffffffffffffffffffffffff1673ffffffffffffffffffffffffffffffffffffffff168152602001600282015f9054906101000a900473ffffffffffffffffffffffffffffffffffffffff1673ffffffffffffffffffffffffffffffffffffffff1673ffffffffffffffffffffffffffffffffffffffff168152602001600382018054610c7390614e86565b80601f0160208091040260200160405190810160405280929190818152602001828054610c9f90614e86565b8015610cea5780601f10610cc157610100808354040283529160200191610cea565b820191905f5260205f20905b815481529060010190602001808311610ccd57829003601f168201915b50505050508152602001600482018054610d0390614e86565b80601f0160208091040260200160405190810160405280929190818152602001828054610d2f90614e86565b8015610d7a5780601f10610d5157610100808354040283529160200191610d7a565b820191905f5260205f20905b815481529060010190602001808311610d5d57829003601f168201915b50505050508152602001600582018054610d9390614e86565b80601f0160208091040260200160405190810160405280929190818152602001828054610dbf90614e86565b8015610e0a5780601f10610de157610100808354040283529160200191610e0a565b820191905f5260205f20905b815481529060010190602001808311610ded57829003601f168201915b50505050508152602001600682018054610e2390614e86565b80601f0160208091040260200160405190810160405280929190818152602001828054610e4f90614e86565b8015610e9a5780601f10610e7157610100808354040283529160200191610e9a565b820191905f5260205f20905b815481529060010190602001808311610e7d57829003601f168201915b50505050508152602001600782015f9054906101000a900460ff16151515158152505090508a816040019073ffffffffffffffffffffffffffffffffffffffff16908173ffffffffffffffffffffffffffffffffffffffff168152505089898080601f0160208091040260200160405190810160405280939291908181526020018383808284375f81840152601f19601f82011690508083019250505050505050816060018190525087878080601f0160208091040260200160405190810160405280939291908181526020018383808284375f81840152601f19601f82011690508083019250505050505050816080018190525085858080601f0160208091040260200160405190810160405280939291908181526020018383808284375f81840152601f19601f820116905080830192505050505050508160a0018190525083838080601f0160208091040260200160405190810160405280939291908181526020018383808284375f81840152601f19601f820116905080830192505050505050508160c001819052505f73ffffffffffffffffffffffffffffffffffffffff168b73ffffffffffffffffffffffffffffffffffffffff16148160e001901515908115158152505060025460085f8481526020019081526020015f205f0181905550806040015173ffffffffffffffffffffffffffffffffffffffff16815f015173ffffffffffffffffffffffffffffffffffffffff16837f61de3782e61b0bc571fd85abd9a902e9a0df5e58991896aa5fc45f8cd31fcf3e846060015185608001518660a001518760c001518860e001514260405161110296959493929190614eb6565b60405180910390a45050505050505050505050565b5f60075f60045f9054906101000a900473ffffffffffffffffffffffffffffffffffffffff1673ffffffffffffffffffffffffffffffffffffffff1663e8378fbf856040518263ffffffff1660e01b815260040161117591906143bd565b602060405180830381865afa158015611190573d5f5f3e3d5ffd5b505050506040513d601f19601f820116820180604052508101906111b49190614e2e565b81526020019081526020015f206001015f9054906101000a900473ffffffffffffffffffffffffffffffffffffffff169050919050565b5f60085f60045f9054906101000a900473ffffffffffffffffffffffffffffffffffffffff1673ffffffffffffffffffffffffffffffffffffffff1663e8378fbf856040518263ffffffff1660e01b815260040161124991906143bd565b602060405180830381865afa158015611264573d5f5f3e3d5ffd5b505050506040513d601f19601f820116820180604052508101906112889190614e2e565b81526020019081526020015f20600401549050919050565b620186a081565b600981815481106112b6575f80fd5b905f5260205f20015f915054906101000a900473ffffffffffffffffffffffffffffffffffffffff1681565b60055f9054906101000a900473ffffffffffffffffffffffffffffffffffffffff1681565b600b5f9054906101000a900473ffffffffffffffffffffffffffffffffffffffff1681565b5f60075f8381526020019081526020015f206002015f9054906101000a900473ffffffffffffffffffffffffffffffffffffffff169050919050565b60025481565b611376613e2b565b61137f5f613eb2565b565b600281565b5f60065f9054906101000a900473ffffffffffffffffffffffffffffffffffffffff16905090565b6113b6613ff7565b60075f8381526020019081526020015f20604051806101000160405290815f82015f9054906101000a900473ffffffffffffffffffffffffffffffffffffffff1673ffffffffffffffffffffffffffffffffffffffff1673ffffffffffffffffffffffffffffffffffffffff168152602001600182015f9054906101000a900473ffffffffffffffffffffffffffffffffffffffff1673ffffffffffffffffffffffffffffffffffffffff1673ffffffffffffffffffffffffffffffffffffffff168152602001600282015f9054906101000a900473ffffffffffffffffffffffffffffffffffffffff1673ffffffffffffffffffffffffffffffffffffffff1673ffffffffffffffffffffffffffffffffffffffff1681526020016003820180546114e190614e86565b80601f016020809104026020016040519081016040528092919081815260200182805461150d90614e86565b80156115585780601f1061152f57610100808354040283529160200191611558565b820191905f5260205f20905b81548152906001019060200180831161153b57829003601f168201915b5050505050815260200160048201805461157190614e86565b80601f016020809104026020016040519081016040528092919081815260200182805461159d90614e86565b80156115e85780601f106115bf576101008083540402835291602001916115e8565b820191905f5260205f20905b8154815290600101906020018083116115cb57829003601f168201915b5050505050815260200160058201805461160190614e86565b80601f016020809104026020016040519081016040528092919081815260200182805461162d90614e86565b80156116785780601f1061164f57610100808354040283529160200191611678565b820191905f5260205f20905b81548152906001019060200180831161165b57829003601f168201915b5050505050815260200160068201805461169190614e86565b80601f01602080910402602001604051908101604052809291908181526020018280546116bd90614e86565b80156117085780601f106116df57610100808354040283529160200191611708565b820191905f5260205f20905b8154815290600101906020018083116116eb57829003601f168201915b50505050508152602001600782015f9054906101000a900460ff1615151515815250509050919050565b5f5f5f9054906101000a900473ffffffffffffffffffffffffffffffffffffffff16905090565b611761613ff7565b5f60075f60045f9054906101000a900473ffffffffffffffffffffffffffffffffffffffff1673ffffffffffffffffffffffffffffffffffffffff1663e8378fbf866040518263ffffffff1660e01b81526004016117bf91906143bd565b602060405180830381865afa1580156117da573d5f5f3e3d5ffd5b505050506040513d601f19601f820116820180604052508101906117fe9190614e2e565b81526020019081526020015f20604051806101000160405290815f82015f9054906101000a900473ffffffffffffffffffffffffffffffffffffffff1673ffffffffffffffffffffffffffffffffffffffff1673ffffffffffffffffffffffffffffffffffffffff168152602001600182015f9054906101000a900473ffffffffffffffffffffffffffffffffffffffff1673ffffffffffffffffffffffffffffffffffffffff1673ffffffffffffffffffffffffffffffffffffffff168152602001600282015f9054906101000a900473ffffffffffffffffffffffffffffffffffffffff1673ffffffffffffffffffffffffffffffffffffffff1673ffffffffffffffffffffffffffffffffffffffff16815260200160038201805461192590614e86565b80601f016020809104026020016040519081016040528092919081815260200182805461195190614e86565b801561199c5780601f106119735761010080835404028352916020019161199c565b820191905f5260205f20905b81548152906001019060200180831161197f57829003601f168201915b505050505081526020016004820180546119b590614e86565b80601f01602080910402602001604051908101604052809291908181526020018280546119e190614e86565b8015611a2c5780601f10611a0357610100808354040283529160200191611a2c565b820191905f5260205f20905b815481529060010190602001808311611a0f57829003601f168201915b50505050508152602001600582018054611a4590614e86565b80601f0160208091040260200160405190810160405280929190818152602001828054611a7190614e86565b8015611abc5780601f10611a9357610100808354040283529160200191611abc565b820191905f5260205f20905b815481529060010190602001808311611a9f57829003601f168201915b50505050508152602001600682018054611ad590614e86565b80601f0160208091040260200160405190810160405280929190818152602001828054611b0190614e86565b8015611b4c5780601f10611b2357610100808354040283529160200191611b4c565b820191905f5260205f20905b815481529060010190602001808311611b2f57829003601f168201915b50505050508152602001600782015f9054906101000a900460ff16151515158152505090505f73ffffffffffffffffffffffffffffffffffffffff16815f015173ffffffffffffffffffffffffffffffffffffffff1603611be2576040517f08c379a0000000000000000000000000000000000000000000000000000000008152600401611bd990614f7b565b60405180910390fd5b80915050919050565b6008602052805f5260405f205f91509050805f0154908060010154908060020154908060030154908060040154908060050154908060060154905087565b60065f9054906101000a900473ffffffffffffffffffffffffffffffffffffffff1681565b6060611c58613f73565b60055f9054906101000a900473ffffffffffffffffffffffffffffffffffffffff1673ffffffffffffffffffffffffffffffffffffffff163373ffffffffffffffffffffffffffffffffffffffff161480611cff575060065f9054906101000a900473ffffffffffffffffffffffffffffffffffffffff1673ffffffffffffffffffffffffffffffffffffffff163373ffffffffffffffffffffffffffffffffffffffff16145b611d3e576040517f08c379a0000000000000000000000000000000000000000000000000000000008152600401611d3590615009565b60405180910390fd5b83835f818110611d5157611d50614c43565b5b9050602002016020810190611d669190614383565b73ffffffffffffffffffffffffffffffffffffffff1663095ea7b3600a5f9054906101000a900473ffffffffffffffffffffffffffffffffffffffff16876040518363ffffffff1660e01b8152600401611dc1929190615027565b6020604051808303815f875af1158015611ddd573d5f5f3e3d5ffd5b505050506040513d601f19601f82011682018060405250810190611e019190614d61565b505f600a5f9054906101000a900473ffffffffffffffffffffffffffffffffffffffff1673ffffffffffffffffffffffffffffffffffffffff166338ed1739875f88888861012c42611e53919061507b565b6040518763ffffffff1660e01b8152600401611e7496959493929190615194565b5f604051808303815f875af1158015611e8f573d5f5f3e3d5ffd5b505050506040513d5f823e3d601f19601f82011682018060405250810190611eb791906152ae565b905080915050611ec5613fb9565b949350505050565b60605f60098054905067ffffffffffffffff811115611eef57611eee614c16565b5b604051908082528060200260200182016040528015611f2857816020015b611f15613ff7565b815260200190600190039081611f0d5790505b5090505f5f90505b600980549050811015611fac57611f8160098281548110611f5457611f53614c43565b5b905f5260205f20015f9054906101000a900473ffffffffffffffffffffffffffffffffffffffff16611759565b828281518110611f9457611f93614c43565b5b60200260200101819052508080600101915050611f30565b508091505090565b611fbc613e2b565b5f60075f8581526020019081526020015f20604051806101000160405290815f82015f9054906101000a900473ffffffffffffffffffffffffffffffffffffffff1673ffffffffffffffffffffffffffffffffffffffff1673ffffffffffffffffffffffffffffffffffffffff168152602001600182015f9054906101000a900473ffffffffffffffffffffffffffffffffffffffff1673ffffffffffffffffffffffffffffffffffffffff1673ffffffffffffffffffffffffffffffffffffffff168152602001600282015f9054906101000a900473ffffffffffffffffffffffffffffffffffffffff1673ffffffffffffffffffffffffffffffffffffffff1673ffffffffffffffffffffffffffffffffffffffff1681526020016003820180546120e890614e86565b80601f016020809104026020016040519081016040528092919081815260200182805461211490614e86565b801561215f5780601f106121365761010080835404028352916020019161215f565b820191905f5260205f20905b81548152906001019060200180831161214257829003601f168201915b5050505050815260200160048201805461217890614e86565b80601f01602080910402602001604051908101604052809291908181526020018280546121a490614e86565b80156121ef5780601f106121c6576101008083540402835291602001916121ef565b820191905f5260205f20905b8154815290600101906020018083116121d257829003601f168201915b5050505050815260200160058201805461220890614e86565b80601f016020809104026020016040519081016040528092919081815260200182805461223490614e86565b801561227f5780601f106122565761010080835404028352916020019161227f565b820191905f5260205f20905b81548152906001019060200180831161226257829003601f168201915b5050505050815260200160068201805461229890614e86565b80601f01602080910402602001604051908101604052809291908181526020018280546122c490614e86565b801561230f5780601f106122e65761010080835404028352916020019161230f565b820191905f5260205f20905b8154815290600101906020018083116122f257829003601f168201915b50505050508152602001600782015f9054906101000a900460ff16151515158152505090505f5f60045f9054906101000a900473ffffffffffffffffffffffffffffffffffffffff1673ffffffffffffffffffffffffffffffffffffffff1663bcd658ad876040518263ffffffff1660e01b81526004016123909190614094565b6040805180830381865afa1580156123aa573d5f5f3e3d5ffd5b505050506040513d601f19601f820116820180604052508101906123ce9190615318565b91509150600260048111156123e6576123e5615356565b5b8260048111156123f9576123f8615356565b5b14612439576040517f08c379a0000000000000000000000000000000000000000000000000000000008152600401612430906153f3565b60405180910390fd5b5f8573ffffffffffffffffffffffffffffffffffffffff1663ebda16eb6040518163ffffffff1660e01b8152600401602060405180830381865afa158015612483573d5f5f3e3d5ffd5b505050506040513d601f19601f820116820180604052508101906124a79190614e2e565b905085845f019073ffffffffffffffffffffffffffffffffffffffff16908173ffffffffffffffffffffffffffffffffffffffff168152505084846020019073ffffffffffffffffffffffffffffffffffffffff16908173ffffffffffffffffffffffffffffffffffffffff1681525050600986908060018154018082558091505060019003905f5260205f20015f9091909190916101000a81548173ffffffffffffffffffffffffffffffffffffffff021916908373ffffffffffffffffffffffffffffffffffffffff1602179055508473ffffffffffffffffffffffffffffffffffffffff168673ffffffffffffffffffffffffffffffffffffffff16887fdbd3908ed1551f131cac0b0e54b86f03495799941eeb3290140b962f787409d460405160405180910390a45f600b5f9054906101000a900473ffffffffffffffffffffffffffffffffffffffff1673ffffffffffffffffffffffffffffffffffffffff1663c9c6539688600a5f9054906101000a900473ffffffffffffffffffffffffffffffffffffffff1673ffffffffffffffffffffffffffffffffffffffff1663ad5c46486040518163ffffffff1660e01b8152600401602060405180830381865afa15801561267c573d5f5f3e3d5ffd5b505050506040513d601f19601f820116820180604052508101906126a09190615425565b6040518363ffffffff1660e01b81526004016126bd929190615450565b6020604051808303815f875af11580156126d9573d5f5f3e3d5ffd5b505050506040513d601f19601f820116820180604052508101906126fd9190615425565b90508673ffffffffffffffffffffffffffffffffffffffff1663095ea7b3600a5f9054906101000a900473ffffffffffffffffffffffffffffffffffffffff168973ffffffffffffffffffffffffffffffffffffffff1663ebda16eb6040518163ffffffff1660e01b8152600401602060405180830381865afa158015612786573d5f5f3e3d5ffd5b505050506040513d601f19601f820116820180604052508101906127aa9190614e2e565b6040518363ffffffff1660e01b81526004016127c7929190615027565b6020604051808303815f875af11580156127e3573d5f5f3e3d5ffd5b505050506040513d601f19601f820116820180604052508101906128079190614d61565b50600a5f9054906101000a900473ffffffffffffffffffffffffffffffffffffffff1673ffffffffffffffffffffffffffffffffffffffff1663f305d7198489855f5f5f61012c42612859919061507b565b6040518863ffffffff1660e01b815260040161287a96959493929190615477565b60606040518083038185885af1158015612896573d5f5f3e3d5ffd5b50505050506040513d601f19601f820116820180604052508101906128bb91906154d6565b50505060045f9054906101000a900473ffffffffffffffffffffffffffffffffffffffff1673ffffffffffffffffffffffffffffffffffffffff1663abf599fc8989846040518463ffffffff1660e01b815260040161291c93929190615526565b5f604051808303815f87803b158015612933575f5ffd5b505af1158015612945573d5f5f3e3d5ffd5b505050505050505050505050565b6007602052805f5260405f205f91509050805f015f9054906101000a900473ffffffffffffffffffffffffffffffffffffffff1690806001015f9054906101000a900473ffffffffffffffffffffffffffffffffffffffff1690806002015f9054906101000a900473ffffffffffffffffffffffffffffffffffffffff16908060030180546129e190614e86565b80601f0160208091040260200160405190810160405280929190818152602001828054612a0d90614e86565b8015612a585780601f10612a2f57610100808354040283529160200191612a58565b820191905f5260205f20905b815481529060010190602001808311612a3b57829003601f168201915b505050505090806004018054612a6d90614e86565b80601f0160208091040260200160405190810160405280929190818152602001828054612a9990614e86565b8015612ae45780601f10612abb57610100808354040283529160200191612ae4565b820191905f5260205f20905b815481529060010190602001808311612ac757829003601f168201915b505050505090806005018054612af990614e86565b80601f0160208091040260200160405190810160405280929190818152602001828054612b2590614e86565b8015612b705780601f10612b4757610100808354040283529160200191612b70565b820191905f5260205f20905b815481529060010190602001808311612b5357829003601f168201915b505050505090806006018054612b8590614e86565b80601f0160208091040260200160405190810160405280929190818152602001828054612bb190614e86565b8015612bfc5780601f10612bd357610100808354040283529160200191612bfc565b820191905f5260205f20905b815481529060010190602001808311612bdf57829003601f168201915b505050505090806007015f9054906101000a900460ff16905088565b60055f9054906101000a900473ffffffffffffffffffffffffffffffffffffffff1673ffffffffffffffffffffffffffffffffffffffff163373ffffffffffffffffffffffffffffffffffffffff1614612ca7576040517f08c379a0000000000000000000000000000000000000000000000000000000008152600401612c9e90614bf8565b60405180910390fd5b5f60085f60045f9054906101000a900473ffffffffffffffffffffffffffffffffffffffff1673ffffffffffffffffffffffffffffffffffffffff1663e8378fbf866040518263ffffffff1660e01b8152600401612d0591906143bd565b602060405180830381865afa158015612d20573d5f5f3e3d5ffd5b505050506040513d601f19601f82011682018060405250810190612d449190614e2e565b81526020019081526020015f206040518060e00160405290815f8201548152602001600182015481526020016002820154815260200160038201548152602001600482015481526020016005820154815260200160068201548152505090505f60085f60045f9054906101000a900473ffffffffffffffffffffffffffffffffffffffff1673ffffffffffffffffffffffffffffffffffffffff1663e8378fbf866040518263ffffffff1660e01b8152600401612e0191906143bd565b602060405180830381865afa158015612e1c573d5f5f3e3d5ffd5b505050506040513d601f19601f82011682018060405250810190612e409190614e2e565b81526020019081526020015f206040518060e00160405290815f82015481526020016001820154815260200160028201548152602001600382015481526020016004820154815260200160058201548152602001600682015481525050905060646003548360200151612eb3919061555b565b612ebd91906155c9565b8260200151612ecc91906155f9565b82602001818152505060646003548260200151612ee9919061555b565b612ef391906155c9565b8160200151612f02919061507b565b8160200181815250508273ffffffffffffffffffffffffffffffffffffffff168473ffffffffffffffffffffffffffffffffffffffff167faecea04ec10c6c0b9d91c8e45440289d97d5737d78401b23bc3ca82031eae93284602001518460200151604051612f7292919061562c565b60405180910390a350505050565b612f88613f73565b612f90613e2b565b5f612f9a83611759565b90508173ffffffffffffffffffffffffffffffffffffffff16816040015173ffffffffffffffffffffffffffffffffffffffff161461300e576040517f08c379a00000000000000000000000000000000000000000000000000000000081526004016130059061569d565b60405180910390fd5b8060e0015115613053576040517f08c379a000000000000000000000000000000000000000000000000000000000815260040161304a90615705565b60405180910390fd5b60045f9054906101000a900473ffffffffffffffffffffffffffffffffffffffff1673ffffffffffffffffffffffffffffffffffffffff1663222b15fb836040518263ffffffff1660e01b81526004016130ad91906143bd565b602060405180830381865afa1580156130c8573d5f5f3e3d5ffd5b505050506040513d601f19601f820116820180604052508101906130ec9190614d61565b1561312c576040517f08c379a00000000000000000000000000000000000000000000000000000000081526004016131239061576d565b60405180910390fd5b60018160e001901515908115158152505060085f60045f9054906101000a900473ffffffffffffffffffffffffffffffffffffffff1673ffffffffffffffffffffffffffffffffffffffff1663e8378fbf866040518263ffffffff1660e01b815260040161319a91906143bd565b602060405180830381865afa1580156131b5573d5f5f3e3d5ffd5b505050506040513d601f19601f820116820180604052508101906131d99190614e2e565b81526020019081526020015f206004015460085f60045f9054906101000a900473ffffffffffffffffffffffffffffffffffffffff1673ffffffffffffffffffffffffffffffffffffffff1663e8378fbf876040518263ffffffff1660e01b815260040161324791906143bd565b602060405180830381865afa158015613262573d5f5f3e3d5ffd5b505050506040513d601f19601f820116820180604052508101906132869190614e2e565b81526020019081526020015f205f0181905550805f015173ffffffffffffffffffffffffffffffffffffffff1663aad3ec9682604001516064600560045f9054906101000a900473ffffffffffffffffffffffffffffffffffffffff1673ffffffffffffffffffffffffffffffffffffffff16632ff2e9dc6040518163ffffffff1660e01b8152600401602060405180830381865afa15801561332b573d5f5f3e3d5ffd5b505050506040513d601f19601f8201168201806040525081019061334f9190614e2e565b613359919061555b565b61336391906155c9565b6040518363ffffffff1660e01b8152600401613380929190615027565b5f604051808303815f87803b158015613397575f5ffd5b505af11580156133a9573d5f5f3e3d5ffd5b50505050506133b6613fb9565b5050565b5f60055f9054906101000a900473ffffffffffffffffffffffffffffffffffffffff16905090565b60045f9054906101000a900473ffffffffffffffffffffffffffffffffffffffff1681565b61340f613ff7565b60075f60045f9054906101000a900473ffffffffffffffffffffffffffffffffffffffff1673ffffffffffffffffffffffffffffffffffffffff1663e8378fbf856040518263ffffffff1660e01b815260040161346c91906143bd565b602060405180830381865afa158015613487573d5f5f3e3d5ffd5b505050506040513d601f19601f820116820180604052508101906134ab9190614e2e565b81526020019081526020015f20604051806101000160405290815f82015f9054906101000a900473ffffffffffffffffffffffffffffffffffffffff1673ffffffffffffffffffffffffffffffffffffffff1673ffffffffffffffffffffffffffffffffffffffff168152602001600182015f9054906101000a900473ffffffffffffffffffffffffffffffffffffffff1673ffffffffffffffffffffffffffffffffffffffff1673ffffffffffffffffffffffffffffffffffffffff168152602001600282015f9054906101000a900473ffffffffffffffffffffffffffffffffffffffff1673ffffffffffffffffffffffffffffffffffffffff1673ffffffffffffffffffffffffffffffffffffffff1681526020016003820180546135d290614e86565b80601f01602080910402602001604051908101604052809291908181526020018280546135fe90614e86565b80156136495780601f1061362057610100808354040283529160200191613649565b820191905f5260205f20905b81548152906001019060200180831161362c57829003601f168201915b5050505050815260200160048201805461366290614e86565b80601f016020809104026020016040519081016040528092919081815260200182805461368e90614e86565b80156136d95780601f106136b0576101008083540402835291602001916136d9565b820191905f5260205f20905b8154815290600101906020018083116136bc57829003601f168201915b505050505081526020016005820180546136f290614e86565b80601f016020809104026020016040519081016040528092919081815260200182805461371e90614e86565b80156137695780601f1061374057610100808354040283529160200191613769565b820191905f5260205f20905b81548152906001019060200180831161374c57829003601f168201915b5050505050815260200160068201805461378290614e86565b80601f01602080910402602001604051908101604052809291908181526020018280546137ae90614e86565b80156137f95780601f106137d0576101008083540402835291602001916137f9565b820191905f5260205f20905b8154815290600101906020018083116137dc57829003601f168201915b50505050508152602001600782015f9054906101000a900460ff1615151515815250509050919050565b60035481565b613831613e2b565b5f73ffffffffffffffffffffffffffffffffffffffff168173ffffffffffffffffffffffffffffffffffffffff16036138a1575f6040517f1e4fbdf700000000000000000000000000000000000000000000000000000000815260040161389891906143bd565b60405180910390fd5b6138aa81613eb2565b50565b600181565b5f5f90505b8151811015613e27575f6138e78383815181106138d7576138d6614c43565b5b60200260200101515f0151611759565b90505f73ffffffffffffffffffffffffffffffffffffffff16815f015173ffffffffffffffffffffffffffffffffffffffff160361395a576040517f08c379a000000000000000000000000000000000000000000000000000000000815260040161395190614f7b565b60405180910390fd5b5f60085f60045f9054906101000a900473ffffffffffffffffffffffffffffffffffffffff1673ffffffffffffffffffffffffffffffffffffffff1663e8378fbf8787815181106139ae576139ad614c43565b5b60200260200101515f01516040518263ffffffff1660e01b81526004016139d591906143bd565b602060405180830381865afa1580156139f0573d5f5f3e3d5ffd5b505050506040513d601f19601f82011682018060405250810190613a149190614e2e565b81526020019081526020015f206040518060e00160405290815f82015481526020016001820154815260200160028201548152602001600382015481526020016004820154815260200160058201548152602001600682015481525050905062015180815f0151613a85919061507b565b421015613ac7576040517f08c379a0000000000000000000000000000000000000000000000000000000008152600401613abe906157d5565b60405180910390fd5b42815f018181525050838381518110613ae357613ae2614c43565b5b602002602001015160200151815f018181525050805f0151848481518110613b0e57613b0d614c43565b5b602002602001015160200151613b2491906155f9565b81608001818151613b35919061507b565b9150818152505061c350815f01518260800151613b5291906155f9565b10158015613bf8575060065f9054906101000a900473ffffffffffffffffffffffffffffffffffffffff1673ffffffffffffffffffffffffffffffffffffffff1663f251f45f835f01516040518263ffffffff1660e01b8152600401613bb891906143bd565b602060405180830381865afa158015613bd3573d5f5f3e3d5ffd5b505050506040513d601f19601f82011682018060405250810190613bf79190614d61565b5b15613c955760065f9054906101000a900473ffffffffffffffffffffffffffffffffffffffff1673ffffffffffffffffffffffffffffffffffffffff16636491e566835f01516040518263ffffffff1660e01b8152600401613c5a91906143bd565b5f604051808303815f87803b158015613c71575f5ffd5b505af1158015613c83573d5f5f3e3d5ffd5b505050508060800151815f0181815250505b8160e001518015613cbd5750806020015181604001518260800151613cba91906155f9565b10155b8015613d355750815f015173ffffffffffffffffffffffffffffffffffffffff1663c52aa2cf6040518163ffffffff1660e01b8152600401602060405180830381865afa158015613d10573d5f5f3e3d5ffd5b505050506040513d601f19601f82011682018060405250810190613d349190614d61565b5b15613da7578060800151816040018181525050815f015173ffffffffffffffffffffffffffffffffffffffff1663a431831e6040518163ffffffff1660e01b81526004015f604051808303815f87803b158015613d90575f5ffd5b505af1158015613da2573d5f5f3e3d5ffd5b505050505b838381518110613dba57613db9614c43565b5b60200260200101515f015173ffffffffffffffffffffffffffffffffffffffff167f17f0fa8193ad599e6d9e20fb742ac1d5fd0b1bf4246f0aa664a4c293863ffac0826080015142604051613e1092919061562c565b60405180910390a2505080806001019150506138b7565b5050565b613e33613fc2565b73ffffffffffffffffffffffffffffffffffffffff16613e51611732565b73ffffffffffffffffffffffffffffffffffffffff1614613eb057613e74613fc2565b6040517f118cdaa7000000000000000000000000000000000000000000000000000000008152600401613ea791906143bd565b60405180910390fd5b565b5f5f5f9054906101000a900473ffffffffffffffffffffffffffffffffffffffff169050815f5f6101000a81548173ffffffffffffffffffffffffffffffffffffffff021916908373ffffffffffffffffffffffffffffffffffffffff1602179055508173ffffffffffffffffffffffffffffffffffffffff168173ffffffffffffffffffffffffffffffffffffffff167f8be0079c531659141344cd1fd0a4f28419497f9722a3daafe3b4186f6b6457e060405160405180910390a35050565b600260015403613faf576040517f3ee5aeb500000000000000000000000000000000000000000000000000000000815260040160405180910390fd5b6002600181905550565b60018081905550565b5f33905090565b60405180604001604052805f73ffffffffffffffffffffffffffffffffffffffff1681526020015f81525090565b6040518061010001604052805f73ffffffffffffffffffffffffffffffffffffffff1681526020015f73ffffffffffffffffffffffffffffffffffffffff1681526020015f73ffffffffffffffffffffffffffffffffffffffff168152602001606081526020016060815260200160608152602001606081526020015f151581525090565b5f819050919050565b61408e8161407c565b82525050565b5f6020820190506140a75f830184614085565b92915050565b5f604051905090565b5f5ffd5b5f5ffd5b5f5ffd5b5f5ffd5b5f5ffd5b5f5f83601f8401126140df576140de6140be565b5b8235905067ffffffffffffffff8111156140fc576140fb6140c2565b5b602083019150836040820283011115614118576141176140c6565b5b9250929050565b5f5f60208385031215614135576141346140b6565b5b5f83013567ffffffffffffffff811115614152576141516140ba565b5b61415e858286016140ca565b92509250509250929050565b5f73ffffffffffffffffffffffffffffffffffffffff82169050919050565b5f819050919050565b5f6141ac6141a76141a28461416a565b614189565b61416a565b9050919050565b5f6141bd82614192565b9050919050565b5f6141ce826141b3565b9050919050565b6141de816141c4565b82525050565b5f6020820190506141f75f8301846141d5565b92915050565b5f6142078261416a565b9050919050565b614217816141fd565b8114614221575f5ffd5b50565b5f813590506142328161420e565b92915050565b5f5f83601f84011261424d5761424c6140be565b5b8235905067ffffffffffffffff81111561426a576142696140c2565b5b602083019150836001820283011115614286576142856140c6565b5b9250929050565b5f5f5f5f5f5f5f5f5f60a08a8c0312156142aa576142a96140b6565b5b5f6142b78c828d01614224565b99505060208a013567ffffffffffffffff8111156142d8576142d76140ba565b5b6142e48c828d01614238565b985098505060408a013567ffffffffffffffff811115614307576143066140ba565b5b6143138c828d01614238565b965096505060608a013567ffffffffffffffff811115614336576143356140ba565b5b6143428c828d01614238565b945094505060808a013567ffffffffffffffff811115614365576143646140ba565b5b6143718c828d01614238565b92509250509295985092959850929598565b5f60208284031215614398576143976140b6565b5b5f6143a584828501614224565b91505092915050565b6143b7816141fd565b82525050565b5f6020820190506143d05f8301846143ae565b92915050565b6143df8161407c565b81146143e9575f5ffd5b50565b5f813590506143fa816143d6565b92915050565b5f60208284031215614415576144146140b6565b5b5f614422848285016143ec565b91505092915050565b5f614435826141b3565b9050919050565b6144458161442b565b82525050565b5f60208201905061445e5f83018461443c565b92915050565b5f61446e826141b3565b9050919050565b61447e81614464565b82525050565b5f6020820190506144975f830184614475565b92915050565b5f6144a7826141b3565b9050919050565b6144b78161449d565b82525050565b5f6020820190506144d05f8301846144ae565b92915050565b6144df816141fd565b82525050565b5f81519050919050565b5f82825260208201905092915050565b8281835e5f83830152505050565b5f601f19601f8301169050919050565b5f614527826144e5565b61453181856144ef565b93506145418185602086016144ff565b61454a8161450d565b840191505092915050565b5f8115159050919050565b61456981614555565b82525050565b5f61010083015f8301516145855f8601826144d6565b50602083015161459860208601826144d6565b5060408301516145ab60408601826144d6565b50606083015184820360608601526145c3828261451d565b915050608083015184820360808601526145dd828261451d565b91505060a083015184820360a08601526145f7828261451d565b91505060c083015184820360c0860152614611828261451d565b91505060e083015161462660e0860182614560565b508091505092915050565b5f6020820190508181035f830152614649818461456f565b905092915050565b5f60e0820190506146645f83018a614085565b6146716020830189614085565b61467e6040830188614085565b61468b6060830187614085565b6146986080830186614085565b6146a560a0830185614085565b6146b260c0830184614085565b98975050505050505050565b5f5f83601f8401126146d3576146d26140be565b5b8235905067ffffffffffffffff8111156146f0576146ef6140c2565b5b60208301915083602082028301111561470c5761470b6140c6565b5b9250929050565b5f5f5f5f6060858703121561472b5761472a6140b6565b5b5f614738878288016143ec565b945050602085013567ffffffffffffffff811115614759576147586140ba565b5b614765878288016146be565b9350935050604061477887828801614224565b91505092959194509250565b5f81519050919050565b5f82825260208201905092915050565b5f819050602082019050919050565b6147b68161407c565b82525050565b5f6147c783836147ad565b60208301905092915050565b5f602082019050919050565b5f6147e982614784565b6147f3818561478e565b93506147fe8361479e565b805f5b8381101561482e57815161481588826147bc565b9750614820836147d3565b925050600181019050614801565b5085935050505092915050565b5f6020820190508181035f83015261485381846147df565b905092915050565b5f81519050919050565b5f82825260208201905092915050565b5f819050602082019050919050565b5f61010083015f83015161489a5f8601826144d6565b5060208301516148ad60208601826144d6565b5060408301516148c060408601826144d6565b50606083015184820360608601526148d8828261451d565b915050608083015184820360808601526148f2828261451d565b91505060a083015184820360a086015261490c828261451d565b91505060c083015184820360c0860152614926828261451d565b91505060e083015161493b60e0860182614560565b508091505092915050565b5f6149518383614884565b905092915050565b5f602082019050919050565b5f61496f8261485b565b6149798185614865565b93508360208202850161498b85614875565b805f5b858110156149c657848403895281516149a78582614946565b94506149b283614959565b925060208a0199505060018101905061498e565b50829750879550505050505092915050565b5f6020820190508181035f8301526149f08184614965565b905092915050565b5f5f5f60608486031215614a0f57614a0e6140b6565b5b5f614a1c868287016143ec565b9350506020614a2d86828701614224565b9250506040614a3e86828701614224565b9150509250925092565b5f82825260208201905092915050565b5f614a62826144e5565b614a6c8185614a48565b9350614a7c8185602086016144ff565b614a858161450d565b840191505092915050565b614a9981614555565b82525050565b5f61010082019050614ab35f83018b6143ae565b614ac0602083018a6143ae565b614acd60408301896143ae565b8181036060830152614adf8188614a58565b90508181036080830152614af38187614a58565b905081810360a0830152614b078186614a58565b905081810360c0830152614b1b8185614a58565b9050614b2a60e0830184614a90565b9998505050505050505050565b5f5f60408385031215614b4d57614b4c6140b6565b5b5f614b5a85828601614224565b9250506020614b6b85828601614224565b9150509250929050565b5f614b7f826141b3565b9050919050565b614b8f81614b75565b82525050565b5f602082019050614ba85f830184614b86565b92915050565b7f756e617574686f72697a656400000000000000000000000000000000000000005f82015250565b5f614be2600c83614a48565b9150614bed82614bae565b602082019050919050565b5f6020820190508181035f830152614c0f81614bd6565b9050919050565b7f4e487b71000000000000000000000000000000000000000000000000000000005f52604160045260245ffd5b7f4e487b71000000000000000000000000000000000000000000000000000000005f52603260045260245ffd5b5f5ffd5b614c7d8261450d565b810181811067ffffffffffffffff82111715614c9c57614c9b614c16565b5b80604052505050565b5f614cae6140ad565b9050614cba8282614c74565b919050565b5f60408284031215614cd457614cd3614c70565b5b614cde6040614ca5565b90505f614ced84828501614224565b5f830152506020614d00848285016143ec565b60208301525092915050565b5f60408284031215614d2157614d206140b6565b5b5f614d2e84828501614cbf565b91505092915050565b614d4081614555565b8114614d4a575f5ffd5b50565b5f81519050614d5b81614d37565b92915050565b5f60208284031215614d7657614d756140b6565b5b5f614d8384828501614d4d565b91505092915050565b7f43726561746f7220697320626c6f636b6564206f7220616c72656164792068615f8201527f73206120746f6b656e0000000000000000000000000000000000000000000000602082015250565b5f614de6602983614a48565b9150614df182614d8c565b604082019050919050565b5f6020820190508181035f830152614e1381614dda565b9050919050565b5f81519050614e28816143d6565b92915050565b5f60208284031215614e4357614e426140b6565b5b5f614e5084828501614e1a565b91505092915050565b7f4e487b71000000000000000000000000000000000000000000000000000000005f52602260045260245ffd5b5f6002820490506001821680614e9d57607f821691505b602082108103614eb057614eaf614e59565b5b50919050565b5f60c0820190508181035f830152614ece8189614a58565b90508181036020830152614ee28188614a58565b90508181036040830152614ef68187614a58565b90508181036060830152614f0a8186614a58565b9050614f196080830185614a90565b614f2660a0830184614085565b979650505050505050565b7f546f6b656e206e6f7420637265617465640000000000000000000000000000005f82015250565b5f614f65601183614a48565b9150614f7082614f31565b602082019050919050565b5f6020820190508181035f830152614f9281614f59565b9050919050565b7f4f6e6c7920626174746c65206f7220656e6761676520746f206561726e2063615f8201527f6e20737761700000000000000000000000000000000000000000000000000000602082015250565b5f614ff3602683614a48565b9150614ffe82614f99565b604082019050919050565b5f6020820190508181035f83015261502081614fe7565b9050919050565b5f60408201905061503a5f8301856143ae565b6150476020830184614085565b9392505050565b7f4e487b71000000000000000000000000000000000000000000000000000000005f52601160045260245ffd5b5f6150858261407c565b91506150908361407c565b92508282019050808211156150a8576150a761504e565b5b92915050565b5f819050919050565b5f6150d16150cc6150c7846150ae565b614189565b61407c565b9050919050565b6150e1816150b7565b82525050565b5f82825260208201905092915050565b5f819050919050565b5f61510b83836144d6565b60208301905092915050565b5f6151256020840184614224565b905092915050565b5f602082019050919050565b5f61514483856150e7565b935061514f826150f7565b805f5b85811015615187576151648284615117565b61516e8882615100565b97506151798361512d565b925050600181019050615152565b5085925050509392505050565b5f60a0820190506151a75f830189614085565b6151b460208301886150d8565b81810360408301526151c7818688615139565b90506151d660608301856143ae565b6151e36080830184614085565b979650505050505050565b5f67ffffffffffffffff82111561520857615207614c16565b5b602082029050602081019050919050565b5f61522b615226846151ee565b614ca5565b9050808382526020820190506020840283018581111561524e5761524d6140c6565b5b835b8181101561527757806152638882614e1a565b845260208401935050602081019050615250565b5050509392505050565b5f82601f830112615295576152946140be565b5b81516152a5848260208601615219565b91505092915050565b5f602082840312156152c3576152c26140b6565b5b5f82015167ffffffffffffffff8111156152e0576152df6140ba565b5b6152ec84828501615281565b91505092915050565b60058110615301575f5ffd5b50565b5f81519050615312816152f5565b92915050565b5f5f6040838503121561532e5761532d6140b6565b5b5f61533b85828601615304565b925050602061534c85828601614e1a565b9150509250929050565b7f4e487b71000000000000000000000000000000000000000000000000000000005f52602160045260245ffd5b7f46616972206c61756e6368206e6f7420726561647920746f20636f6d706c65745f8201527f6500000000000000000000000000000000000000000000000000000000000000602082015250565b5f6153dd602183614a48565b91506153e882615383565b604082019050919050565b5f6020820190508181035f83015261540a816153d1565b9050919050565b5f8151905061541f8161420e565b92915050565b5f6020828403121561543a576154396140b6565b5b5f61544784828501615411565b91505092915050565b5f6040820190506154635f8301856143ae565b61547060208301846143ae565b9392505050565b5f60c08201905061548a5f8301896143ae565b6154976020830188614085565b6154a460408301876150d8565b6154b160608301866150d8565b6154be60808301856143ae565b6154cb60a0830184614085565b979650505050505050565b5f5f5f606084860312156154ed576154ec6140b6565b5b5f6154fa86828701614e1a565b935050602061550b86828701614e1a565b925050604061551c86828701614e1a565b9150509250925092565b5f6060820190506155395f830186614085565b61554660208301856143ae565b61555360408301846143ae565b949350505050565b5f6155658261407c565b91506155708361407c565b925082820261557e8161407c565b915082820484148315176155955761559461504e565b5b5092915050565b7f4e487b71000000000000000000000000000000000000000000000000000000005f52601260045260245ffd5b5f6155d38261407c565b91506155de8361407c565b9250826155ee576155ed61559c565b5b828204905092915050565b5f6156038261407c565b915061560e8361407c565b92508282039050818111156156265761562561504e565b5b92915050565b5f60408201905061563f5f830185614085565b61564c6020830184614085565b9392505050565b7f43726561746f72206d69736d61746368000000000000000000000000000000005f82015250565b5f615687601083614a48565b915061569282615653565b602082019050919050565b5f6020820190508181035f8301526156b48161567b565b9050919050565b7f416c726561647920636c61696d65642062792063726561746f720000000000005f82015250565b5f6156ef601a83614a48565b91506156fa826156bb565b602082019050919050565b5f6020820190508181035f83015261571c816156e3565b9050919050565b7f43726561746f7220616c726561647920686173206120746f6b656e00000000005f82015250565b5f615757601b83614a48565b915061576282615723565b602082019050919050565b5f6020820190508181035f8301526157848161574b565b9050919050565b7f486561742075706461746520746f6f206672657175656e7400000000000000005f82015250565b5f6157bf601883614a48565b91506157ca8261578b565b602082019050919050565b5f6020820190508181035f8301526157ec816157b3565b905091905056fea2646970667358221220de7840d0b3375bc5921e5a0b526c41b06eb0dd9ee59e8cf60dea85e17d74bd2364736f6c634300081c0033",
  "linkReferences": {},
  "deployedLinkReferences": {},
  "immutableReferences": {},
  "inputSourceName": "project/contracts/MemedFactory.sol",
  "buildInfoId": "solc-0_8_28-6b7a482da59986a22c7f6e6ad8fad9ae18d67810"
}