{
  "_format": "hh3-artifact-1",
  "contractName": "MemedWarriorNFT",
  "sourceName": "contracts/MemedWarriorNFT.sol",
  "abi": [
    {
      "inputs": [
        {
          "internalType": "string",
          "name": "_name",
          "type": "string"
        },
        {
          "internalType": "string",
          "name": "_symbol",
          "type": "string"
        },
        {
          "internalType": "address",
          "name": "_memedToken",
          "type": "address"
        },
        {
          "internalType": "address",
          "name": "_memedBattle",
          "type": "address"
        },
        {
          "internalType": "address",
          "name": "_factory",
          "type": "address"
        },
        {
          "internalType": "string",
          "name": "_uri",
          "type": "string"
        }
      ],
      "stateMutability": "nonpayable",
      "type": "constructor"
    },
    {
      "inputs": [
        {
          "internalType": "address",
          "name": "sender",
          "type": "address"
        },
        {
          "internalType": "uint256",
          "name": "tokenId",
          "type": "uint256"
        },
        {
          "internalType": "address",
          "name": "owner",
          "type": "address"
        }
      ],
      "name": "ERC721IncorrectOwner",
      "type": "error"
    },
    {
      "inputs": [
        {
          "internalType": "address",
          "name": "operator",
          "type": "address"
        },
        {
          "internalType": "uint256",
          "name": "tokenId",
          "type": "uint256"
        }
      ],
      "name": "ERC721InsufficientApproval",
      "type": "error"
    },
    {
      "inputs": [
        {
          "internalType": "address",
          "name": "approver",
          "type": "address"
        }
      ],
      "name": "ERC721InvalidApprover",
      "type": "error"
    },
    {
      "inputs": [
        {
          "internalType": "address",
          "name": "operator",
          "type": "address"
        }
      ],
      "name": "ERC721InvalidOperator",
      "type": "error"
    },
    {
      "inputs": [
        {
          "internalType": "address",
          "name": "owner",
          "type": "address"
        }
      ],
      "name": "ERC721InvalidOwner",
      "type": "error"
    },
    {
      "inputs": [
        {
          "internalType": "address",
          "name": "receiver",
          "type": "address"
        }
      ],
      "name": "ERC721InvalidReceiver",
      "type": "error"
    },
    {
      "inputs": [
        {
          "internalType": "address",
          "name": "sender",
          "type": "address"
        }
      ],
      "name": "ERC721InvalidSender",
      "type": "error"
    },
    {
      "inputs": [
        {
          "internalType": "uint256",
          "name": "tokenId",
          "type": "uint256"
        }
      ],
      "name": "ERC721NonexistentToken",
      "type": "error"
    },
    {
      "inputs": [
        {
          "internalType": "address",
          "name": "owner",
          "type": "address"
        }
      ],
      "name": "OwnableInvalidOwner",
      "type": "error"
    },
    {
      "inputs": [
        {
          "internalType": "address",
          "name": "account",
          "type": "address"
        }
      ],
      "name": "OwnableUnauthorizedAccount",
      "type": "error"
    },
    {
      "inputs": [],
      "name": "ReentrancyGuardReentrantCall",
      "type": "error"
    },
    {
      "anonymous": false,
      "inputs": [
        {
          "indexed": true,
          "internalType": "address",
          "name": "owner",
          "type": "address"
        },
        {
          "indexed": true,
          "internalType": "address",
          "name": "approved",
          "type": "address"
        },
        {
          "indexed": true,
          "internalType": "uint256",
          "name": "tokenId",
          "type": "uint256"
        }
      ],
      "name": "Approval",
      "type": "event"
    },
    {
      "anonymous": false,
      "inputs": [
        {
          "indexed": true,
          "internalType": "address",
          "name": "owner",
          "type": "address"
        },
        {
          "indexed": true,
          "internalType": "address",
          "name": "operator",
          "type": "address"
        },
        {
          "indexed": false,
          "internalType": "bool",
          "name": "approved",
          "type": "bool"
        }
      ],
      "name": "ApprovalForAll",
      "type": "event"
    },
    {
      "anonymous": false,
      "inputs": [
        {
          "indexed": false,
          "internalType": "uint256",
          "name": "_fromTokenId",
          "type": "uint256"
        },
        {
          "indexed": false,
          "internalType": "uint256",
          "name": "_toTokenId",
          "type": "uint256"
        }
      ],
      "name": "BatchMetadataUpdate",
      "type": "event"
    },
    {
      "anonymous": false,
      "inputs": [
        {
          "indexed": false,
          "internalType": "uint256",
          "name": "_tokenId",
          "type": "uint256"
        }
      ],
      "name": "MetadataUpdate",
      "type": "event"
    },
    {
      "anonymous": false,
      "inputs": [
        {
          "indexed": true,
          "internalType": "address",
          "name": "previousOwner",
          "type": "address"
        },
        {
          "indexed": true,
          "internalType": "address",
          "name": "newOwner",
          "type": "address"
        }
      ],
      "name": "OwnershipTransferred",
      "type": "event"
    },
    {
      "anonymous": false,
      "inputs": [
        {
          "indexed": false,
          "internalType": "uint256",
          "name": "amount",
          "type": "uint256"
        },
        {
          "indexed": false,
          "internalType": "uint256",
          "name": "totalPlatformHeat",
          "type": "uint256"
        }
      ],
      "name": "TokensBurned",
      "type": "event"
    },
    {
      "anonymous": false,
      "inputs": [
        {
          "indexed": true,
          "internalType": "address",
          "name": "from",
          "type": "address"
        },
        {
          "indexed": true,
          "internalType": "address",
          "name": "to",
          "type": "address"
        },
        {
          "indexed": true,
          "internalType": "uint256",
          "name": "tokenId",
          "type": "uint256"
        }
      ],
      "name": "Transfer",
      "type": "event"
    },
    {
      "anonymous": false,
      "inputs": [
        {
          "indexed": true,
          "internalType": "uint256",
          "name": "tokenId",
          "type": "uint256"
        },
        {
          "indexed": true,
          "internalType": "address",
          "name": "owner",
          "type": "address"
        }
      ],
      "name": "WarriorAllocated",
      "type": "event"
    },
    {
      "anonymous": false,
      "inputs": [
        {
          "indexed": true,
          "internalType": "uint256",
          "name": "tokenId",
          "type": "uint256"
        },
        {
          "indexed": true,
          "internalType": "address",
          "name": "owner",
          "type": "address"
        }
      ],
      "name": "WarriorGetBack",
      "type": "event"
    },
    {
      "anonymous": false,
      "inputs": [
        {
          "indexed": true,
          "internalType": "uint256",
          "name": "tokenId",
          "type": "uint256"
        },
        {
          "indexed": true,
          "internalType": "address",
          "name": "owner",
          "type": "address"
        },
        {
          "indexed": false,
          "internalType": "uint256",
          "name": "price",
          "type": "uint256"
        }
      ],
      "name": "WarriorMinted",
      "type": "event"
    },
    {
      "inputs": [],
      "name": "BASE_PRICE",
      "outputs": [
        {
          "internalType": "uint256",
          "name": "",
          "type": "uint256"
        }
      ],
      "stateMutability": "view",
      "type": "function"
    },
    {
      "inputs": [],
      "name": "HEAT_THRESHOLD",
      "outputs": [
        {
          "internalType": "uint256",
          "name": "",
          "type": "uint256"
        }
      ],
      "stateMutability": "view",
      "type": "function"
    },
    {
      "inputs": [],
      "name": "PRICE_INCREMENT",
      "outputs": [
        {
          "internalType": "uint256",
          "name": "",
          "type": "uint256"
        }
      ],
      "stateMutability": "view",
      "type": "function"
    },
    {
      "inputs": [
        {
          "internalType": "address",
          "name": "to",
          "type": "address"
        },
        {
          "internalType": "uint256",
          "name": "tokenId",
          "type": "uint256"
        }
      ],
      "name": "approve",
      "outputs": [],
      "stateMutability": "nonpayable",
      "type": "function"
    },
    {
      "inputs": [
        {
          "internalType": "address",
          "name": "owner",
          "type": "address"
        }
      ],
      "name": "balanceOf",
      "outputs": [
        {
          "internalType": "uint256",
          "name": "",
          "type": "uint256"
        }
      ],
      "stateMutability": "view",
      "type": "function"
    },
    {
      "inputs": [],
      "name": "currentTokenId",
      "outputs": [
        {
          "internalType": "uint256",
          "name": "",
          "type": "uint256"
        }
      ],
      "stateMutability": "view",
      "type": "function"
    },
    {
      "inputs": [],
      "name": "factory",
      "outputs": [
        {
          "internalType": "contract IMemedFactory",
          "name": "",
          "type": "address"
        }
      ],
      "stateMutability": "view",
      "type": "function"
    },
    {
      "inputs": [
        {
          "internalType": "uint256",
          "name": "tokenId",
          "type": "uint256"
        }
      ],
      "name": "getApproved",
      "outputs": [
        {
          "internalType": "address",
          "name": "",
          "type": "address"
        }
      ],
      "stateMutability": "view",
      "type": "function"
    },
    {
      "inputs": [],
      "name": "getCurrentPrice",
      "outputs": [
        {
          "internalType": "uint256",
          "name": "",
          "type": "uint256"
        }
      ],
      "stateMutability": "view",
      "type": "function"
    },
    {
      "inputs": [
        {
          "internalType": "address",
          "name": "_user",
          "type": "address"
        }
      ],
      "name": "getUserActiveNFTs",
      "outputs": [
        {
          "internalType": "uint256[]",
          "name": "",
          "type": "uint256[]"
        }
      ],
      "stateMutability": "view",
      "type": "function"
    },
    {
      "inputs": [
        {
          "internalType": "address",
          "name": "_user",
          "type": "address"
        },
        {
          "internalType": "uint256",
          "name": "_timestamp",
          "type": "uint256"
        }
      ],
      "name": "getWarriorMintedBeforeByUser",
      "outputs": [
        {
          "internalType": "uint256[]",
          "name": "",
          "type": "uint256[]"
        }
      ],
      "stateMutability": "view",
      "type": "function"
    },
    {
      "inputs": [
        {
          "internalType": "address",
          "name": "_user",
          "type": "address"
        }
      ],
      "name": "hasActiveWarrior",
      "outputs": [
        {
          "internalType": "bool",
          "name": "",
          "type": "bool"
        }
      ],
      "stateMutability": "view",
      "type": "function"
    },
    {
      "inputs": [
        {
          "internalType": "address",
          "name": "owner",
          "type": "address"
        },
        {
          "internalType": "address",
          "name": "operator",
          "type": "address"
        }
      ],
      "name": "isApprovedForAll",
      "outputs": [
        {
          "internalType": "bool",
          "name": "",
          "type": "bool"
        }
      ],
      "stateMutability": "view",
      "type": "function"
    },
    {
      "inputs": [],
      "name": "memedBattle",
      "outputs": [
        {
          "internalType": "contract IMemedBattle",
          "name": "",
          "type": "address"
        }
      ],
      "stateMutability": "view",
      "type": "function"
    },
    {
      "inputs": [],
      "name": "memedToken",
      "outputs": [
        {
          "internalType": "address",
          "name": "",
          "type": "address"
        }
      ],
      "stateMutability": "view",
      "type": "function"
    },
    {
      "inputs": [],
      "name": "mintWarrior",
      "outputs": [
        {
          "internalType": "uint256",
          "name": "",
          "type": "uint256"
        }
      ],
      "stateMutability": "nonpayable",
      "type": "function"
    },
    {
      "inputs": [],
      "name": "name",
      "outputs": [
        {
          "internalType": "string",
          "name": "",
          "type": "string"
        }
      ],
      "stateMutability": "view",
      "type": "function"
    },
    {
      "inputs": [],
      "name": "owner",
      "outputs": [
        {
          "internalType": "address",
          "name": "",
          "type": "address"
        }
      ],
      "stateMutability": "view",
      "type": "function"
    },
    {
      "inputs": [
        {
          "internalType": "uint256",
          "name": "tokenId",
          "type": "uint256"
        }
      ],
      "name": "ownerOf",
      "outputs": [
        {
          "internalType": "address",
          "name": "",
          "type": "address"
        }
      ],
      "stateMutability": "view",
      "type": "function"
    },
    {
      "inputs": [],
      "name": "renounceOwnership",
      "outputs": [],
      "stateMutability": "nonpayable",
      "type": "function"
    },
    {
      "inputs": [
        {
          "internalType": "address",
          "name": "from",
          "type": "address"
        },
        {
          "internalType": "address",
          "name": "to",
          "type": "address"
        },
        {
          "internalType": "uint256",
          "name": "tokenId",
          "type": "uint256"
        }
      ],
      "name": "safeTransferFrom",
      "outputs": [],
      "stateMutability": "nonpayable",
      "type": "function"
    },
    {
      "inputs": [
        {
          "internalType": "address",
          "name": "from",
          "type": "address"
        },
        {
          "internalType": "address",
          "name": "to",
          "type": "address"
        },
        {
          "internalType": "uint256",
          "name": "tokenId",
          "type": "uint256"
        },
        {
          "internalType": "bytes",
          "name": "data",
          "type": "bytes"
        }
      ],
      "name": "safeTransferFrom",
      "outputs": [],
      "stateMutability": "nonpayable",
      "type": "function"
    },
    {
      "inputs": [
        {
          "internalType": "address",
          "name": "operator",
          "type": "address"
        },
        {
          "internalType": "bool",
          "name": "approved",
          "type": "bool"
        }
      ],
      "name": "setApprovalForAll",
      "outputs": [],
      "stateMutability": "nonpayable",
      "type": "function"
    },
    {
      "inputs": [
        {
          "internalType": "bytes4",
          "name": "interfaceId",
          "type": "bytes4"
        }
      ],
      "name": "supportsInterface",
      "outputs": [
        {
          "internalType": "bool",
          "name": "",
          "type": "bool"
        }
      ],
      "stateMutability": "view",
      "type": "function"
    },
    {
      "inputs": [],
      "name": "symbol",
      "outputs": [
        {
          "internalType": "string",
          "name": "",
          "type": "string"
        }
      ],
      "stateMutability": "view",
      "type": "function"
    },
    {
      "inputs": [
        {
          "internalType": "uint256",
          "name": "tokenId",
          "type": "uint256"
        }
      ],
      "name": "tokenURI",
      "outputs": [
        {
          "internalType": "string",
          "name": "",
          "type": "string"
        }
      ],
      "stateMutability": "view",
      "type": "function"
    },
    {
      "inputs": [
        {
          "internalType": "address",
          "name": "from",
          "type": "address"
        },
        {
          "internalType": "address",
          "name": "to",
          "type": "address"
        },
        {
          "internalType": "uint256",
          "name": "tokenId",
          "type": "uint256"
        }
      ],
      "name": "transferFrom",
      "outputs": [],
      "stateMutability": "nonpayable",
      "type": "function"
    },
    {
      "inputs": [
        {
          "internalType": "address",
          "name": "newOwner",
          "type": "address"
        }
      ],
      "name": "transferOwnership",
      "outputs": [],
      "stateMutability": "nonpayable",
      "type": "function"
    },
    {
      "inputs": [],
      "name": "uri",
      "outputs": [
        {
          "internalType": "string",
          "name": "",
          "type": "string"
        }
      ],
      "stateMutability": "view",
      "type": "function"
    },
    {
      "inputs": [
        {
          "internalType": "address",
          "name": "",
          "type": "address"
        },
        {
          "internalType": "uint256",
          "name": "",
          "type": "uint256"
        }
      ],
      "name": "userNFTs",
      "outputs": [
        {
          "internalType": "uint256",
          "name": "",
          "type": "uint256"
        }
      ],
      "stateMutability": "view",
      "type": "function"
    },
    {
      "inputs": [
        {
          "internalType": "uint256",
          "name": "",
          "type": "uint256"
        }
      ],
      "name": "warriors",
      "outputs": [
        {
          "internalType": "uint256",
          "name": "tokenId",
          "type": "uint256"
        },
        {
          "internalType": "address",
          "name": "owner",
          "type": "address"
        },
        {
          "internalType": "uint256",
          "name": "mintPrice",
          "type": "uint256"
        },
        {
          "internalType": "uint256",
          "name": "mintedAt",
          "type": "uint256"
        }
      ],
      "stateMutability": "view",
      "type": "function"
    }
  ],
  "bytecode": "0x60e060405234801561000f575f5ffd5b506040516125d83803806125d883398101604081905261002e916101c2565b3386865f61003c8382610304565b5060016100498282610304565b5050506001600160a01b03811661007957604051631e4fbdf760e01b81525f600482015260240160405180910390fd5b610082816100b9565b5060016008556001600160a01b0380851660c052828116608052831660a05260096100ad8282610304565b505050505050506103be565b600780546001600160a01b038381166001600160a01b0319831681179093556040519116919082907f8be0079c531659141344cd1fd0a4f28419497f9722a3daafe3b4186f6b6457e0905f90a35050565b634e487b7160e01b5f52604160045260245ffd5b5f82601f83011261012d575f5ffd5b81516001600160401b038111156101465761014661010a565b604051601f8201601f19908116603f011681016001600160401b03811182821017156101745761017461010a565b60405281815283820160200185101561018b575f5ffd5b8160208501602083015e5f918101602001919091529392505050565b80516001600160a01b03811681146101bd575f5ffd5b919050565b5f5f5f5f5f5f60c087890312156101d7575f5ffd5b86516001600160401b038111156101ec575f5ffd5b6101f889828a0161011e565b602089015190975090506001600160401b03811115610215575f5ffd5b61022189828a0161011e565b955050610230604088016101a7565b935061023e606088016101a7565b925061024c608088016101a7565b60a08801519092506001600160401b03811115610267575f5ffd5b61027389828a0161011e565b9150509295509295509295565b600181811c9082168061029457607f821691505b6020821081036102b257634e487b7160e01b5f52602260045260245ffd5b50919050565b601f8211156102ff57805f5260205f20601f840160051c810160208510156102dd5750805b601f840160051c820191505b818110156102fc575f81556001016102e9565b50505b505050565b81516001600160401b0381111561031d5761031d61010a565b6103318161032b8454610280565b846102b8565b6020601f821160018114610363575f831561034c5750848201515b5f19600385901b1c1916600184901b1784556102fc565b5f84815260208120601f198516915b828110156103925787850151825560209485019460019092019101610372565b50848210156103af57868401515f19600387901b60f8161c191681555b50505050600190811b01905550565b60805160a05160c0516121bf6104195f395f81816102de015281816108a00152818161097401528181610e4d015281816113cc015261143801525f61036701525f818161041301528181610e79015261148601526121bf5ff3fe608060405234801561000f575f5ffd5b50600436106101db575f3560e01c806370a0823111610109578063c87b56dd1161009e578063eb91d37e1161006e578063eb91d37e14610476578063f2fde38b1461047e578063f696a42814610491578063f86325ed146104a4575f5ffd5b8063c87b56dd14610435578063debc2f9214610448578063e985e9c51461045b578063eac989f81461046e575f5ffd5b8063a22cb465116100d9578063a22cb465146103e0578063b52ce8e6146103f3578063b88d4fde146103fb578063c45a01551461040e575f5ffd5b806370a08231146103ac578063715018a6146103bf5780638da5cb5b146103c757806395d89b41146103d8575f5ffd5b80631df0cd131161017f57806342842e0e1161014f57806342842e0e1461034f5780635153563b146103625780636352211e146103895780636d25d8021461039c575f5ffd5b80631df0cd131461030057806323b872dd14610309578063291c73c31461031c5780632eb374061461032f575f5ffd5b8063081812fc116101ba578063081812fc14610233578063095ea7b31461025e5780631a170712146102735780631b74c9e3146102d9575f5ffd5b80629a9b7b146101df57806301ffc9a7146101fb57806306fdde031461021e575b5f5ffd5b6101e8600a5481565b6040519081526020015b60405180910390f35b61020e610209366004611c6f565b6104b5565b60405190151581526020016101f2565b6102266104df565b6040516101f29190611cb8565b610246610241366004611cca565b61056e565b6040516001600160a01b0390911681526020016101f2565b61027161026c366004611cfc565b610595565b005b6102b1610281366004611cca565b600b6020525f9081526040902080546001820154600283015460039093015491926001600160a01b039091169184565b604080519485526001600160a01b0390931660208501529183015260608201526080016101f2565b6102467f000000000000000000000000000000000000000000000000000000000000000081565b6101e861271081565b610271610317366004611d24565b6105a4565b6101e861032a366004611cfc565b610632565b61034261033d366004611d5e565b61065d565b6040516101f29190611d77565b61027161035d366004611d24565b6107d1565b6102467f000000000000000000000000000000000000000000000000000000000000000081565b610246610397366004611cca565b6107f0565b6101e868056bc75e2d6310000081565b6101e86103ba366004611d5e565b6107fa565b61027161083f565b6007546001600160a01b0316610246565b610226610852565b6102716103ee366004611dae565b610861565b6101e861086c565b610271610409366004611dfb565b610bb7565b6102467f000000000000000000000000000000000000000000000000000000000000000081565b610226610443366004611cca565b610bcf565b61020e610456366004611d5e565b610cda565b61020e610469366004611ed8565b610d7d565b610226610daa565b6101e8610e36565b61027161048c366004611d5e565b610f22565b61034261049f366004611cfc565b610f5f565b6101e869010f0cf064dd5920000081565b5f6001600160e01b03198216632483248360e11b14806104d957506104d9826110fd565b92915050565b60605f80546104ed90611f09565b80601f016020809104026020016040519081016040528092919081815260200182805461051990611f09565b80156105645780601f1061053b57610100808354040283529160200191610564565b820191905f5260205f20905b81548152906001019060200180831161054757829003601f168201915b5050505050905090565b5f6105788261114c565b505f828152600460205260409020546001600160a01b03166104d9565b6105a0828233611184565b5050565b6001600160a01b0382166105d257604051633250574960e11b81525f60048201526024015b60405180910390fd5b5f6105de838333611191565b9050836001600160a01b0316816001600160a01b03161461062c576040516364283d7b60e01b81526001600160a01b03808616600483015260248201849052821660448201526064016105c9565b50505050565b600c602052815f5260405f20818154811061064b575f80fd5b905f5260205f20015f91509150505481565b6001600160a01b0381165f908152600c602090815260408083208054825181850281018501909352808352606094938301828280156106b957602002820191905f5260205f20905b8154815260200190600101908083116106a5575b509394505f935083925050505b825181101561070c576106f18382815181106106e4576106e4611f41565b602002602001015161122a565b15610704578161070081611f69565b9250505b6001016106c6565b505f8167ffffffffffffffff81111561072757610727611de7565b604051908082528060200260200182016040528015610750578160200160208202803683370190505b5090505f805b84518110156107c6576107748582815181106106e4576106e4611f41565b156107be5784818151811061078b5761078b611f41565b60200260200101518383815181106107a5576107a5611f41565b6020908102919091010152816107ba81611f69565b9250505b600101610756565b509095945050505050565b6107eb83838360405180602001604052805f815250610bb7565b505050565b5f6104d98261114c565b5f6001600160a01b038216610824576040516322718ad960e21b81525f60048201526024016105c9565b506001600160a01b03165f9081526003602052604090205490565b610847611260565b6108505f61128d565b565b6060600180546104ed90611f09565b6105a03383836112de565b5f61087561137c565b5f61087e610e36565b6040516370a0823160e01b815233600482015290915081906001600160a01b037f000000000000000000000000000000000000000000000000000000000000000016906370a0823190602401602060405180830381865afa1580156108e5573d5f5f3e3d5ffd5b505050506040513d601f19601f820116820180604052508101906109099190611f81565b10156109575760405162461bcd60e51b815260206004820152601860248201527f496e73756666696369656e74204d454d4520746f6b656e73000000000000000060448201526064016105c9565b604051636eb1769f60e11b815233600482015230602482015281907f00000000000000000000000000000000000000000000000000000000000000006001600160a01b03169063dd62ed3e90604401602060405180830381865afa1580156109c1573d5f5f3e3d5ffd5b505050506040513d601f19601f820116820180604052508101906109e59190611f81565b1015610a335760405162461bcd60e51b815260206004820152601c60248201527f496e73756666696369656e7420746f6b656e20616c6c6f77616e63650000000060448201526064016105c9565b610a3d33826113a6565b600a8054905f610a4c83611f69565b9091555050600a54610a5e338261150c565b610af08160098054610a6f90611f09565b80601f0160208091040260200160405190810160405280929190818152602001828054610a9b90611f09565b8015610ae65780601f10610abd57610100808354040283529160200191610ae6565b820191905f5260205f20905b815481529060010190602001808311610ac957829003601f168201915b5050505050611525565b6040805160808101825282815233602080830182815283850187815242606086019081525f888152600b8552878120965187559251600180880180546001600160a01b0319166001600160a01b03909316929092179091559151600287015551600390950194909455828152600c8252848120805494850181558152819020909201849055915184815283917f972b595ca48df89bdf5d8ed153814654b794988833678cd40cb375ff28bd87e4910160405180910390a3915050610bb46001600855565b90565b610bc28484846105a4565b61062c338585858561156d565b6060610bda8261114c565b505f8281526006602052604081208054610bf390611f09565b80601f0160208091040260200160405190810160405280929190818152602001828054610c1f90611f09565b8015610c6a5780601f10610c4157610100808354040283529160200191610c6a565b820191905f5260205f20905b815481529060010190602001808311610c4d57829003601f168201915b505050505090505f610c8660408051602081019091525f815290565b905080515f03610c97575092915050565b815115610cc9578082604051602001610cb1929190611faf565b60405160208183030381529060405292505050919050565b610cd284611695565b949350505050565b6001600160a01b0381165f908152600c6020908152604080832080548251818502810185019093528083528493830182828015610d3457602002820191905f5260205f20905b815481526020019060010190808311610d20575b509394505f93505050505b8151811015610d7457610d5d8282815181106106e4576106e4611f41565b15610d6c575060019392505050565b600101610d3f565b505f9392505050565b6001600160a01b039182165f90815260056020908152604080832093909416825291909152205460ff1690565b60098054610db790611f09565b80601f0160208091040260200160405190810160405280929190818152602001828054610de390611f09565b8015610e2e5780601f10610e0557610100808354040283529160200191610e2e565b820191905f5260205f20905b815481529060010190602001808311610e1157829003601f168201915b505050505081565b60405163060da6a160e31b81526001600160a01b037f0000000000000000000000000000000000000000000000000000000000000000811660048301525f9182917f0000000000000000000000000000000000000000000000000000000000000000169063306d350890602401602060405180830381865afa158015610ebe573d5f5f3e3d5ffd5b505050506040513d601f19601f82011682018060405250810190610ee29190611f81565b90505f68056bc75e2d63100000610efb61271084611fc3565b610f059190611fe2565b9050610f1b8169010f0cf064dd59200000611ff9565b9250505090565b610f2a611260565b6001600160a01b038116610f5357604051631e4fbdf760e01b81525f60048201526024016105c9565b610f5c8161128d565b50565b6001600160a01b0382165f908152600c60209081526040808320805482518185028101850190935280835260609493830182828015610fbb57602002820191905f5260205f20905b815481526020019060010190808311610fa7575b509394505f935083925050505b825181101561101c5784600b5f858481518110610fe757610fe7611f41565b602002602001015181526020019081526020015f20600301541015611014578161101081611f69565b9250505b600101610fc8565b505f8167ffffffffffffffff81111561103757611037611de7565b604051908082528060200260200182016040528015611060578160200160208202803683370190505b5090505f805b84518110156110f15786600b5f87848151811061108557611085611f41565b602002602001015181526020019081526020015f206003015410156110e9578481815181106110b6576110b6611f41565b60200260200101518383806110ca90611f69565b9450815181106110dc576110dc611f41565b6020026020010181815250505b600101611066565b50909695505050505050565b5f6001600160e01b031982166380ac58cd60e01b148061112d57506001600160e01b03198216635b5e139f60e01b145b806104d957506301ffc9a760e01b6001600160e01b03198316146104d9565b5f818152600260205260408120546001600160a01b0316806104d957604051637e27328960e01b8152600481018490526024016105c9565b6107eb8383836001611706565b5f5f61119e85858561180a565b90506001600160a01b038116158015906111c057506001600160a01b03851615155b15610cd2575f848152600b6020526040902060010180546001600160a01b0319166001600160a01b0387161790556111f881856118fc565b6001600160a01b0385165f908152600c6020908152604082208054600181018255908352912001849055949350505050565b5f5f8211801561123c5750600a548211155b80156104d95750505f908152600260205260409020546001600160a01b0316151590565b6007546001600160a01b031633146108505760405163118cdaa760e01b81523360048201526024016105c9565b600780546001600160a01b038381166001600160a01b0319831681179093556040519116919082907f8be0079c531659141344cd1fd0a4f28419497f9722a3daafe3b4186f6b6457e0905f90a35050565b6001600160a01b03821661131057604051630b61174360e31b81526001600160a01b03831660048201526024016105c9565b6001600160a01b038381165f81815260056020908152604080832094871680845294825291829020805460ff191686151590811790915591519182527f17307eab39ab6107e8899845ad3d59bd9653f200f220920489ca2b5937696c31910160405180910390a3505050565b60026008540361139f57604051633ee5aeb560e01b815260040160405180910390fd5b6002600855565b60405163079cc67960e41b81526001600160a01b038381166004830152602482018390527f000000000000000000000000000000000000000000000000000000000000000016906379cc6790906044015f604051808303815f87803b15801561140d575f5ffd5b505af115801561141f573d5f5f3e3d5ffd5b505060405163060da6a160e31b81526001600160a01b037f0000000000000000000000000000000000000000000000000000000000000000811660048301527f8bc81353cf6671d259d22783e39ed930583c86f3f4cf7e981298e6a872dfb15d93508492507f0000000000000000000000000000000000000000000000000000000000000000169063306d350890602401602060405180830381865afa1580156114cb573d5f5f3e3d5ffd5b505050506040513d601f19601f820116820180604052508101906114ef9190611f81565b604080519283526020830191909152015b60405180910390a15050565b6105a0828260405180602001604052805f8152506119b6565b5f82815260066020526040902061153c8282612050565b506040518281527ff8e1a15aba9398e019f0b49df1a4fde98ee17ae345cb5f6b5e2c27f5033e8ce790602001611500565b6001600160a01b0383163b1561168e57604051630a85bd0160e11b81526001600160a01b0384169063150b7a02906115af90889088908790879060040161210b565b6020604051808303815f875af19250505080156115e9575060408051601f3d908101601f191682019092526115e691810190612147565b60015b611650573d808015611616576040519150601f19603f3d011682016040523d82523d5f602084013e61161b565b606091505b5080515f0361164857604051633250574960e11b81526001600160a01b03851660048201526024016105c9565b805160208201fd5b6001600160e01b03198116630a85bd0160e11b1461168c57604051633250574960e11b81526001600160a01b03851660048201526024016105c9565b505b5050505050565b60606116a08261114c565b505f6116b660408051602081019091525f815290565b90505f8151116116d45760405180602001604052805f8152506116ff565b806116de846119cd565b6040516020016116ef929190611faf565b6040516020818303038152906040525b9392505050565b808061171a57506001600160a01b03821615155b156117db575f6117298461114c565b90506001600160a01b038316158015906117555750826001600160a01b0316816001600160a01b031614155b801561176857506117668184610d7d565b155b156117915760405163a9fbf51f60e01b81526001600160a01b03841660048201526024016105c9565b81156117d95783856001600160a01b0316826001600160a01b03167f8c5be1e5ebec7d5bd14f71427d1e84f3dd0314c0f7b2291e5b200ac8c7c3b92560405160405180910390a45b505b50505f90815260046020526040902080546001600160a01b0319166001600160a01b0392909216919091179055565b5f828152600260205260408120546001600160a01b039081169083161561183657611836818486611a5d565b6001600160a01b03811615611870576118515f855f5f611706565b6001600160a01b0381165f90815260036020526040902080545f190190555b6001600160a01b0385161561189e576001600160a01b0385165f908152600360205260409020805460010190555b5f8481526002602052604080822080546001600160a01b0319166001600160a01b0389811691821790925591518793918516917fddf252ad1be2c89b69c2b068fc378daa952ba7f163c4a11628f55a4df523b3ef91a4949350505050565b6001600160a01b0382165f908152600c60205260408120905b815481101561062c578282828154811061193157611931611f41565b905f5260205f200154036119ae578154829061194f90600190612162565b8154811061195f5761195f611f41565b905f5260205f20015482828154811061197a5761197a611f41565b905f5260205f2001819055508180548061199657611996612175565b600190038181905f5260205f20015f9055905561062c565b600101611915565b6119c08383611ac1565b6107eb335f85858561156d565b60605f6119d983611b22565b60010190505f8167ffffffffffffffff8111156119f8576119f8611de7565b6040519080825280601f01601f191660200182016040528015611a22576020820181803683370190505b5090508181016020015b5f19016f181899199a1a9b1b9c1cb0b131b232b360811b600a86061a8153600a8504945084611a2c57509392505050565b611a68838383611bf9565b6107eb576001600160a01b038316611a9657604051637e27328960e01b8152600481018290526024016105c9565b60405163177e802f60e01b81526001600160a01b0383166004820152602481018290526044016105c9565b6001600160a01b038216611aea57604051633250574960e11b81525f60048201526024016105c9565b5f611af683835f611191565b90506001600160a01b038116156107eb576040516339e3563760e11b81525f60048201526024016105c9565b5f8072184f03e93ff9f4daa797ed6e38ed64bf6a1f0160401b8310611b605772184f03e93ff9f4daa797ed6e38ed64bf6a1f0160401b830492506040015b6d04ee2d6d415b85acef81000000008310611b8c576d04ee2d6d415b85acef8100000000830492506020015b662386f26fc100008310611baa57662386f26fc10000830492506010015b6305f5e1008310611bc2576305f5e100830492506008015b6127108310611bd657612710830492506004015b60648310611be8576064830492506002015b600a83106104d95760010192915050565b5f6001600160a01b03831615801590610cd25750826001600160a01b0316846001600160a01b03161480611c325750611c328484610d7d565b80610cd25750505f908152600460205260409020546001600160a01b03908116911614919050565b6001600160e01b031981168114610f5c575f5ffd5b5f60208284031215611c7f575f5ffd5b81356116ff81611c5a565b5f81518084528060208401602086015e5f602082860101526020601f19601f83011685010191505092915050565b602081525f6116ff6020830184611c8a565b5f60208284031215611cda575f5ffd5b5035919050565b80356001600160a01b0381168114611cf7575f5ffd5b919050565b5f5f60408385031215611d0d575f5ffd5b611d1683611ce1565b946020939093013593505050565b5f5f5f60608486031215611d36575f5ffd5b611d3f84611ce1565b9250611d4d60208501611ce1565b929592945050506040919091013590565b5f60208284031215611d6e575f5ffd5b6116ff82611ce1565b602080825282518282018190525f918401906040840190835b818110156107c6578351835260209384019390920191600101611d90565b5f5f60408385031215611dbf575f5ffd5b611dc883611ce1565b915060208301358015158114611ddc575f5ffd5b809150509250929050565b634e487b7160e01b5f52604160045260245ffd5b5f5f5f5f60808587031215611e0e575f5ffd5b611e1785611ce1565b9350611e2560208601611ce1565b925060408501359150606085013567ffffffffffffffff811115611e47575f5ffd5b8501601f81018713611e57575f5ffd5b803567ffffffffffffffff811115611e7157611e71611de7565b604051601f8201601f19908116603f0116810167ffffffffffffffff81118282101715611ea057611ea0611de7565b604052818152828201602001891015611eb7575f5ffd5b816020840160208301375f6020838301015280935050505092959194509250565b5f5f60408385031215611ee9575f5ffd5b611ef283611ce1565b9150611f0060208401611ce1565b90509250929050565b600181811c90821680611f1d57607f821691505b602082108103611f3b57634e487b7160e01b5f52602260045260245ffd5b50919050565b634e487b7160e01b5f52603260045260245ffd5b634e487b7160e01b5f52601160045260245ffd5b5f60018201611f7a57611f7a611f55565b5060010190565b5f60208284031215611f91575f5ffd5b5051919050565b5f81518060208401855e5f93019283525090919050565b5f610cd2611fbd8386611f98565b84611f98565b5f82611fdd57634e487b7160e01b5f52601260045260245ffd5b500490565b80820281158282048414176104d9576104d9611f55565b808201808211156104d9576104d9611f55565b601f8211156107eb57805f5260205f20601f840160051c810160208510156120315750805b601f840160051c820191505b8181101561168e575f815560010161203d565b815167ffffffffffffffff81111561206a5761206a611de7565b61207e816120788454611f09565b8461200c565b6020601f8211600181146120b0575f83156120995750848201515b5f19600385901b1c1916600184901b17845561168e565b5f84815260208120601f198516915b828110156120df57878501518255602094850194600190920191016120bf565b50848210156120fc57868401515f19600387901b60f8161c191681555b50505050600190811b01905550565b6001600160a01b03858116825284166020820152604081018390526080606082018190525f9061213d90830184611c8a565b9695505050505050565b5f60208284031215612157575f5ffd5b81516116ff81611c5a565b818103818111156104d9576104d9611f55565b634e487b7160e01b5f52603160045260245ffdfea2646970667358221220e7b00f3243823557f793de5de4cf1cf256a76a7dbfc375c2270dea0c41934f5f64736f6c634300081c0033",
  "linkReferences": {},
  "deployedLinkReferences": {},
  "immutableReferences": {
    "14048": [
      {
        "length": 32,
        "start": 1043
      },
      {
        "length": 32,
        "start": 3705
      },
      {
        "length": 32,
        "start": 5254
      }
    ],
    "14051": [
      {
        "length": 32,
        "start": 871
      }
    ],
    "14053": [
      {
        "length": 32,
        "start": 734
      },
      {
        "length": 32,
        "start": 2208
      },
      {
        "length": 32,
        "start": 2420
      },
      {
        "length": 32,
        "start": 3661
      },
      {
        "length": 32,
        "start": 5068
      },
      {
        "length": 32,
        "start": 5176
      }
    ]
  },
  "inputSourceName": "project/contracts/MemedWarriorNFT.sol",
  "buildInfoId": "solc-0_8_28-6381b0b2d8a155a4135a0480e399b2e6d1282174"
}