{
  "_format": "hh3-artifact-1",
  "contractName": "MemedWarriorNFT",
  "sourceName": "contracts/MemedWarriorNFT.sol",
  "abi": [
    {
      "inputs": [
        {
          "internalType": "string",
          "name": "_name",
          "type": "string"
        },
        {
          "internalType": "string",
          "name": "_symbol",
          "type": "string"
        },
        {
          "internalType": "address",
          "name": "_memedToken",
          "type": "address"
        },
        {
          "internalType": "address",
          "name": "_memedBattle",
          "type": "address"
        },
        {
          "internalType": "address",
          "name": "_factory",
          "type": "address"
        },
        {
          "internalType": "string",
          "name": "_uri",
          "type": "string"
        }
      ],
      "stateMutability": "nonpayable",
      "type": "constructor"
    },
    {
      "inputs": [
        {
          "internalType": "address",
          "name": "sender",
          "type": "address"
        },
        {
          "internalType": "uint256",
          "name": "tokenId",
          "type": "uint256"
        },
        {
          "internalType": "address",
          "name": "owner",
          "type": "address"
        }
      ],
      "name": "ERC721IncorrectOwner",
      "type": "error"
    },
    {
      "inputs": [
        {
          "internalType": "address",
          "name": "operator",
          "type": "address"
        },
        {
          "internalType": "uint256",
          "name": "tokenId",
          "type": "uint256"
        }
      ],
      "name": "ERC721InsufficientApproval",
      "type": "error"
    },
    {
      "inputs": [
        {
          "internalType": "address",
          "name": "approver",
          "type": "address"
        }
      ],
      "name": "ERC721InvalidApprover",
      "type": "error"
    },
    {
      "inputs": [
        {
          "internalType": "address",
          "name": "operator",
          "type": "address"
        }
      ],
      "name": "ERC721InvalidOperator",
      "type": "error"
    },
    {
      "inputs": [
        {
          "internalType": "address",
          "name": "owner",
          "type": "address"
        }
      ],
      "name": "ERC721InvalidOwner",
      "type": "error"
    },
    {
      "inputs": [
        {
          "internalType": "address",
          "name": "receiver",
          "type": "address"
        }
      ],
      "name": "ERC721InvalidReceiver",
      "type": "error"
    },
    {
      "inputs": [
        {
          "internalType": "address",
          "name": "sender",
          "type": "address"
        }
      ],
      "name": "ERC721InvalidSender",
      "type": "error"
    },
    {
      "inputs": [
        {
          "internalType": "uint256",
          "name": "tokenId",
          "type": "uint256"
        }
      ],
      "name": "ERC721NonexistentToken",
      "type": "error"
    },
    {
      "inputs": [
        {
          "internalType": "address",
          "name": "owner",
          "type": "address"
        }
      ],
      "name": "OwnableInvalidOwner",
      "type": "error"
    },
    {
      "inputs": [
        {
          "internalType": "address",
          "name": "account",
          "type": "address"
        }
      ],
      "name": "OwnableUnauthorizedAccount",
      "type": "error"
    },
    {
      "inputs": [],
      "name": "ReentrancyGuardReentrantCall",
      "type": "error"
    },
    {
      "anonymous": false,
      "inputs": [
        {
          "indexed": true,
          "internalType": "address",
          "name": "owner",
          "type": "address"
        },
        {
          "indexed": true,
          "internalType": "address",
          "name": "approved",
          "type": "address"
        },
        {
          "indexed": true,
          "internalType": "uint256",
          "name": "tokenId",
          "type": "uint256"
        }
      ],
      "name": "Approval",
      "type": "event"
    },
    {
      "anonymous": false,
      "inputs": [
        {
          "indexed": true,
          "internalType": "address",
          "name": "owner",
          "type": "address"
        },
        {
          "indexed": true,
          "internalType": "address",
          "name": "operator",
          "type": "address"
        },
        {
          "indexed": false,
          "internalType": "bool",
          "name": "approved",
          "type": "bool"
        }
      ],
      "name": "ApprovalForAll",
      "type": "event"
    },
    {
      "anonymous": false,
      "inputs": [
        {
          "indexed": false,
          "internalType": "uint256",
          "name": "_fromTokenId",
          "type": "uint256"
        },
        {
          "indexed": false,
          "internalType": "uint256",
          "name": "_toTokenId",
          "type": "uint256"
        }
      ],
      "name": "BatchMetadataUpdate",
      "type": "event"
    },
    {
      "anonymous": false,
      "inputs": [
        {
          "indexed": false,
          "internalType": "uint256",
          "name": "_tokenId",
          "type": "uint256"
        }
      ],
      "name": "MetadataUpdate",
      "type": "event"
    },
    {
      "anonymous": false,
      "inputs": [
        {
          "indexed": true,
          "internalType": "address",
          "name": "previousOwner",
          "type": "address"
        },
        {
          "indexed": true,
          "internalType": "address",
          "name": "newOwner",
          "type": "address"
        }
      ],
      "name": "OwnershipTransferred",
      "type": "event"
    },
    {
      "anonymous": false,
      "inputs": [
        {
          "indexed": false,
          "internalType": "uint256",
          "name": "amount",
          "type": "uint256"
        },
        {
          "indexed": false,
          "internalType": "uint256",
          "name": "totalPlatformHeat",
          "type": "uint256"
        }
      ],
      "name": "TokensBurned",
      "type": "event"
    },
    {
      "anonymous": false,
      "inputs": [
        {
          "indexed": true,
          "internalType": "address",
          "name": "from",
          "type": "address"
        },
        {
          "indexed": true,
          "internalType": "address",
          "name": "to",
          "type": "address"
        },
        {
          "indexed": true,
          "internalType": "uint256",
          "name": "tokenId",
          "type": "uint256"
        }
      ],
      "name": "Transfer",
      "type": "event"
    },
    {
      "anonymous": false,
      "inputs": [
        {
          "indexed": true,
          "internalType": "uint256",
          "name": "tokenId",
          "type": "uint256"
        },
        {
          "indexed": true,
          "internalType": "address",
          "name": "owner",
          "type": "address"
        }
      ],
      "name": "WarriorAllocated",
      "type": "event"
    },
    {
      "anonymous": false,
      "inputs": [
        {
          "indexed": true,
          "internalType": "uint256",
          "name": "tokenId",
          "type": "uint256"
        },
        {
          "indexed": true,
          "internalType": "address",
          "name": "owner",
          "type": "address"
        }
      ],
      "name": "WarriorGetBack",
      "type": "event"
    },
    {
      "anonymous": false,
      "inputs": [
        {
          "indexed": true,
          "internalType": "uint256",
          "name": "tokenId",
          "type": "uint256"
        },
        {
          "indexed": true,
          "internalType": "address",
          "name": "owner",
          "type": "address"
        },
        {
          "indexed": false,
          "internalType": "uint256",
          "name": "price",
          "type": "uint256"
        }
      ],
      "name": "WarriorMinted",
      "type": "event"
    },
    {
      "inputs": [],
      "name": "BASE_PRICE",
      "outputs": [
        {
          "internalType": "uint256",
          "name": "",
          "type": "uint256"
        }
      ],
      "stateMutability": "view",
      "type": "function"
    },
    {
      "inputs": [],
      "name": "HEAT_THRESHOLD",
      "outputs": [
        {
          "internalType": "uint256",
          "name": "",
          "type": "uint256"
        }
      ],
      "stateMutability": "view",
      "type": "function"
    },
    {
      "inputs": [],
      "name": "PRICE_INCREMENT",
      "outputs": [
        {
          "internalType": "uint256",
          "name": "",
          "type": "uint256"
        }
      ],
      "stateMutability": "view",
      "type": "function"
    },
    {
      "inputs": [
        {
          "internalType": "address",
          "name": "_user",
          "type": "address"
        },
        {
          "internalType": "uint256[]",
          "name": "_nftsIds",
          "type": "uint256[]"
        }
      ],
      "name": "allocateNFTsToBattle",
      "outputs": [],
      "stateMutability": "nonpayable",
      "type": "function"
    },
    {
      "inputs": [
        {
          "internalType": "address",
          "name": "to",
          "type": "address"
        },
        {
          "internalType": "uint256",
          "name": "tokenId",
          "type": "uint256"
        }
      ],
      "name": "approve",
      "outputs": [],
      "stateMutability": "nonpayable",
      "type": "function"
    },
    {
      "inputs": [
        {
          "internalType": "address",
          "name": "owner",
          "type": "address"
        }
      ],
      "name": "balanceOf",
      "outputs": [
        {
          "internalType": "uint256",
          "name": "",
          "type": "uint256"
        }
      ],
      "stateMutability": "view",
      "type": "function"
    },
    {
      "inputs": [],
      "name": "currentTokenId",
      "outputs": [
        {
          "internalType": "uint256",
          "name": "",
          "type": "uint256"
        }
      ],
      "stateMutability": "view",
      "type": "function"
    },
    {
      "inputs": [],
      "name": "factory",
      "outputs": [
        {
          "internalType": "contract IMemedFactory",
          "name": "",
          "type": "address"
        }
      ],
      "stateMutability": "view",
      "type": "function"
    },
    {
      "inputs": [
        {
          "internalType": "uint256",
          "name": "tokenId",
          "type": "uint256"
        }
      ],
      "name": "getApproved",
      "outputs": [
        {
          "internalType": "address",
          "name": "",
          "type": "address"
        }
      ],
      "stateMutability": "view",
      "type": "function"
    },
    {
      "inputs": [
        {
          "internalType": "uint256",
          "name": "_nftId",
          "type": "uint256"
        }
      ],
      "name": "getBackWarrior",
      "outputs": [],
      "stateMutability": "nonpayable",
      "type": "function"
    },
    {
      "inputs": [],
      "name": "getCurrentPrice",
      "outputs": [
        {
          "internalType": "uint256",
          "name": "",
          "type": "uint256"
        }
      ],
      "stateMutability": "view",
      "type": "function"
    },
    {
      "inputs": [
        {
          "internalType": "address",
          "name": "_user",
          "type": "address"
        }
      ],
      "name": "getUserActiveNFTs",
      "outputs": [
        {
          "internalType": "uint256[]",
          "name": "",
          "type": "uint256[]"
        }
      ],
      "stateMutability": "view",
      "type": "function"
    },
    {
      "inputs": [
        {
          "internalType": "address",
          "name": "_user",
          "type": "address"
        },
        {
          "internalType": "uint256",
          "name": "_timestamp",
          "type": "uint256"
        }
      ],
      "name": "getWarriorMintedBeforeByUser",
      "outputs": [
        {
          "internalType": "uint256[]",
          "name": "",
          "type": "uint256[]"
        }
      ],
      "stateMutability": "view",
      "type": "function"
    },
    {
      "inputs": [
        {
          "internalType": "address",
          "name": "_user",
          "type": "address"
        }
      ],
      "name": "hasActiveWarrior",
      "outputs": [
        {
          "internalType": "bool",
          "name": "",
          "type": "bool"
        }
      ],
      "stateMutability": "view",
      "type": "function"
    },
    {
      "inputs": [
        {
          "internalType": "address",
          "name": "owner",
          "type": "address"
        },
        {
          "internalType": "address",
          "name": "operator",
          "type": "address"
        }
      ],
      "name": "isApprovedForAll",
      "outputs": [
        {
          "internalType": "bool",
          "name": "",
          "type": "bool"
        }
      ],
      "stateMutability": "view",
      "type": "function"
    },
    {
      "inputs": [],
      "name": "memedBattle",
      "outputs": [
        {
          "internalType": "contract IMemedBattle",
          "name": "",
          "type": "address"
        }
      ],
      "stateMutability": "view",
      "type": "function"
    },
    {
      "inputs": [],
      "name": "memedToken",
      "outputs": [
        {
          "internalType": "address",
          "name": "",
          "type": "address"
        }
      ],
      "stateMutability": "view",
      "type": "function"
    },
    {
      "inputs": [],
      "name": "mintWarrior",
      "outputs": [
        {
          "internalType": "uint256",
          "name": "",
          "type": "uint256"
        }
      ],
      "stateMutability": "nonpayable",
      "type": "function"
    },
    {
      "inputs": [],
      "name": "name",
      "outputs": [
        {
          "internalType": "string",
          "name": "",
          "type": "string"
        }
      ],
      "stateMutability": "view",
      "type": "function"
    },
    {
      "inputs": [],
      "name": "owner",
      "outputs": [
        {
          "internalType": "address",
          "name": "",
          "type": "address"
        }
      ],
      "stateMutability": "view",
      "type": "function"
    },
    {
      "inputs": [
        {
          "internalType": "uint256",
          "name": "tokenId",
          "type": "uint256"
        }
      ],
      "name": "ownerOf",
      "outputs": [
        {
          "internalType": "address",
          "name": "",
          "type": "address"
        }
      ],
      "stateMutability": "view",
      "type": "function"
    },
    {
      "inputs": [],
      "name": "renounceOwnership",
      "outputs": [],
      "stateMutability": "nonpayable",
      "type": "function"
    },
    {
      "inputs": [
        {
          "internalType": "address",
          "name": "from",
          "type": "address"
        },
        {
          "internalType": "address",
          "name": "to",
          "type": "address"
        },
        {
          "internalType": "uint256",
          "name": "tokenId",
          "type": "uint256"
        }
      ],
      "name": "safeTransferFrom",
      "outputs": [],
      "stateMutability": "nonpayable",
      "type": "function"
    },
    {
      "inputs": [
        {
          "internalType": "address",
          "name": "from",
          "type": "address"
        },
        {
          "internalType": "address",
          "name": "to",
          "type": "address"
        },
        {
          "internalType": "uint256",
          "name": "tokenId",
          "type": "uint256"
        },
        {
          "internalType": "bytes",
          "name": "data",
          "type": "bytes"
        }
      ],
      "name": "safeTransferFrom",
      "outputs": [],
      "stateMutability": "nonpayable",
      "type": "function"
    },
    {
      "inputs": [
        {
          "internalType": "address",
          "name": "operator",
          "type": "address"
        },
        {
          "internalType": "bool",
          "name": "approved",
          "type": "bool"
        }
      ],
      "name": "setApprovalForAll",
      "outputs": [],
      "stateMutability": "nonpayable",
      "type": "function"
    },
    {
      "inputs": [
        {
          "internalType": "bytes4",
          "name": "interfaceId",
          "type": "bytes4"
        }
      ],
      "name": "supportsInterface",
      "outputs": [
        {
          "internalType": "bool",
          "name": "",
          "type": "bool"
        }
      ],
      "stateMutability": "view",
      "type": "function"
    },
    {
      "inputs": [],
      "name": "symbol",
      "outputs": [
        {
          "internalType": "string",
          "name": "",
          "type": "string"
        }
      ],
      "stateMutability": "view",
      "type": "function"
    },
    {
      "inputs": [
        {
          "internalType": "uint256",
          "name": "tokenId",
          "type": "uint256"
        }
      ],
      "name": "tokenURI",
      "outputs": [
        {
          "internalType": "string",
          "name": "",
          "type": "string"
        }
      ],
      "stateMutability": "view",
      "type": "function"
    },
    {
      "inputs": [
        {
          "internalType": "address",
          "name": "from",
          "type": "address"
        },
        {
          "internalType": "address",
          "name": "to",
          "type": "address"
        },
        {
          "internalType": "uint256",
          "name": "tokenId",
          "type": "uint256"
        }
      ],
      "name": "transferFrom",
      "outputs": [],
      "stateMutability": "nonpayable",
      "type": "function"
    },
    {
      "inputs": [
        {
          "internalType": "address",
          "name": "newOwner",
          "type": "address"
        }
      ],
      "name": "transferOwnership",
      "outputs": [],
      "stateMutability": "nonpayable",
      "type": "function"
    },
    {
      "inputs": [],
      "name": "uri",
      "outputs": [
        {
          "internalType": "string",
          "name": "",
          "type": "string"
        }
      ],
      "stateMutability": "view",
      "type": "function"
    },
    {
      "inputs": [
        {
          "internalType": "address",
          "name": "",
          "type": "address"
        },
        {
          "internalType": "uint256",
          "name": "",
          "type": "uint256"
        }
      ],
      "name": "userNFTs",
      "outputs": [
        {
          "internalType": "uint256",
          "name": "",
          "type": "uint256"
        }
      ],
      "stateMutability": "view",
      "type": "function"
    },
    {
      "inputs": [
        {
          "internalType": "uint256",
          "name": "",
          "type": "uint256"
        }
      ],
      "name": "warriors",
      "outputs": [
        {
          "internalType": "uint256",
          "name": "tokenId",
          "type": "uint256"
        },
        {
          "internalType": "address",
          "name": "owner",
          "type": "address"
        },
        {
          "internalType": "uint256",
          "name": "mintPrice",
          "type": "uint256"
        },
        {
          "internalType": "uint256",
          "name": "mintedAt",
          "type": "uint256"
        },
        {
          "internalType": "bool",
          "name": "allocated",
          "type": "bool"
        }
      ],
      "stateMutability": "view",
      "type": "function"
    }
  ],
  "bytecode": "0x60e060405234801561000f575f5ffd5b50604051612b97380380612b9783398101604081905261002e916101c2565b3386865f61003c8382610304565b5060016100498282610304565b5050506001600160a01b03811661007957604051631e4fbdf760e01b81525f600482015260240160405180910390fd5b610082816100b9565b5060016008556001600160a01b0380851660c052828116608052831660a05260096100ad8282610304565b505050505050506103be565b600780546001600160a01b038381166001600160a01b0319831681179093556040519116919082907f8be0079c531659141344cd1fd0a4f28419497f9722a3daafe3b4186f6b6457e0905f90a35050565b634e487b7160e01b5f52604160045260245ffd5b5f82601f83011261012d575f5ffd5b81516001600160401b038111156101465761014661010a565b604051601f8201601f19908116603f011681016001600160401b03811182821017156101745761017461010a565b60405281815283820160200185101561018b575f5ffd5b8160208501602083015e5f918101602001919091529392505050565b80516001600160a01b03811681146101bd575f5ffd5b919050565b5f5f5f5f5f5f60c087890312156101d7575f5ffd5b86516001600160401b038111156101ec575f5ffd5b6101f889828a0161011e565b602089015190975090506001600160401b03811115610215575f5ffd5b61022189828a0161011e565b955050610230604088016101a7565b935061023e606088016101a7565b925061024c608088016101a7565b60a08801519092506001600160401b03811115610267575f5ffd5b61027389828a0161011e565b9150509295509295509295565b600181811c9082168061029457607f821691505b6020821081036102b257634e487b7160e01b5f52602260045260245ffd5b50919050565b601f8211156102ff57805f5260205f20601f840160051c810160208510156102dd5750805b601f840160051c820191505b818110156102fc575f81556001016102e9565b50505b505050565b81516001600160401b0381111561031d5761031d61010a565b6103318161032b8454610280565b846102b8565b6020601f821160018114610363575f831561034c5750848201515b5f19600385901b1c1916600184901b1784556102fc565b5f84815260208120601f198516915b828110156103925787850151825560209485019460019092019101610372565b50848210156103af57868401515f19600387901b60f8161c191681555b50505050600190811b01905550565b60805160a05160c05161276961042e5f395f818161030901528181610c0d01528181610d8101528181610e5501528181611349015281816118c8015261193401525f8181610392015281816108ae0152610c3e01525f818161046401528181611375015261198201526127695ff3fe608060405234801561000f575f5ffd5b50600436106101f1575f3560e01c8063715018a611610114578063c45a0155116100a9578063eac989f811610079578063eac989f8146104bf578063eb91d37e146104c7578063f2fde38b146104cf578063f696a428146104e2578063f86325ed146104f5575f5ffd5b8063c45a01551461045f578063c87b56dd14610486578063debc2f9214610499578063e985e9c5146104ac575f5ffd5b806395d89b41116100e457806395d89b4114610429578063a22cb46514610431578063b52ce8e614610444578063b88d4fde1461044c575f5ffd5b8063715018a6146103ea5780638da5cb5b146103f257806391386df31461040357806394de221914610416575f5ffd5b806323b872dd1161018a5780635153563b1161015a5780635153563b1461038d5780636352211e146103b45780636d25d802146103c757806370a08231146103d7575f5ffd5b806323b872dd14610334578063291c73c3146103475780632eb374061461035a57806342842e0e1461037a575f5ffd5b8063095ea7b3116101c5578063095ea7b3146102745780631a170712146102895780631b74c9e3146103045780631df0cd131461032b575f5ffd5b80629a9b7b146101f557806301ffc9a71461021157806306fdde0314610234578063081812fc14610249575b5f5ffd5b6101fe600a5481565b6040519081526020015b60405180910390f35b61022461021f36600461216b565b610506565b6040519015158152602001610208565b61023c610530565b60405161020891906121b4565b61025c6102573660046121c6565b6105bf565b6040516001600160a01b039091168152602001610208565b6102876102823660046121f8565b6105e6565b005b6102d26102973660046121c6565b600b6020525f90815260409020805460018201546002830154600384015460049094015492936001600160a01b039092169290919060ff1685565b604080519586526001600160a01b0390941660208601529284019190915260608301521515608082015260a001610208565b61025c7f000000000000000000000000000000000000000000000000000000000000000081565b6101fe61271081565b610287610342366004612220565b6105f5565b6101fe6103553660046121f8565b610683565b61036d61036836600461225a565b6106ae565b6040516102089190612273565b610287610388366004612220565b610822565b61025c7f000000000000000000000000000000000000000000000000000000000000000081565b61025c6103c23660046121c6565b610841565b6101fe68056bc75e2d6310000081565b6101fe6103e536600461225a565b61084b565b610287610890565b6007546001600160a01b031661025c565b6102876104113660046122aa565b6108a3565b6102876104243660046121c6565b610b08565b61023c610d33565b61028761043f366004612338565b610d42565b6101fe610d4d565b61028761045a366004612381565b6110b3565b61025c7f000000000000000000000000000000000000000000000000000000000000000081565b61023c6104943660046121c6565b6110cb565b6102246104a736600461225a565b6111d6565b6102246104ba36600461245e565b611279565b61023c6112a6565b6101fe611332565b6102876104dd36600461225a565b61141e565b61036d6104f03660046121f8565b61145b565b6101fe69010f0cf064dd5920000081565b5f6001600160e01b03198216632483248360e11b148061052a575061052a826115f9565b92915050565b60605f805461053e9061248f565b80601f016020809104026020016040519081016040528092919081815260200182805461056a9061248f565b80156105b55780601f1061058c576101008083540402835291602001916105b5565b820191905f5260205f20905b81548152906001019060200180831161059857829003601f168201915b5050505050905090565b5f6105c982611648565b505f828152600460205260409020546001600160a01b031661052a565b6105f1828233611680565b5050565b6001600160a01b03821661062357604051633250574960e11b81525f60048201526024015b60405180910390fd5b5f61062f83833361168d565b9050836001600160a01b0316816001600160a01b03161461067d576040516364283d7b60e01b81526001600160a01b038086166004830152602482018490528216604482015260640161061a565b50505050565b600c602052815f5260405f20818154811061069c575f80fd5b905f5260205f20015f91509150505481565b6001600160a01b0381165f908152600c6020908152604080832080548251818502810185019093528083526060949383018282801561070a57602002820191905f5260205f20905b8154815260200190600101908083116106f6575b509394505f935083925050505b825181101561075d57610742838281518110610735576107356124c7565b6020026020010151611726565b156107555781610751816124ef565b9250505b600101610717565b505f8167ffffffffffffffff8111156107785761077861236d565b6040519080825280602002602001820160405280156107a1578160200160208202803683370190505b5090505f805b8451811015610817576107c5858281518110610735576107356124c7565b1561080f578481815181106107dc576107dc6124c7565b60200260200101518383815181106107f6576107f66124c7565b60209081029190910101528161080b816124ef565b9250505b6001016107a7565b509095945050505050565b61083c83838360405180602001604052805f8152506110b3565b505050565b5f61052a82611648565b5f6001600160a01b038216610875576040516322718ad960e21b81525f600482015260240161061a565b506001600160a01b03165f9081526003602052604090205490565b61089861175c565b6108a15f611789565b565b336001600160a01b037f000000000000000000000000000000000000000000000000000000000000000016146109125760405162461bcd60e51b815260206004820152601460248201527313db9b1e4818985d1d1b194818dbdb9d1c9858dd60621b604482015260640161061a565b5f5b8181101561067d5761093d838383818110610931576109316124c7565b90506020020135611726565b61097e5760405162461bcd60e51b815260206004820152601260248201527113919508191bd95cc81b9bdd08195e1a5cdd60721b604482015260640161061a565b600b5f848484818110610993576109936124c7565b602090810292909201358352508101919091526040015f206004015460ff16156109f75760405162461bcd60e51b815260206004820152601560248201527413919508185b1c9958591e48185b1b1bd8d85d1959605a1b604482015260640161061a565b5f610a19848484818110610a0d57610a0d6124c7565b90506020020135610841565b9050846001600160a01b0316816001600160a01b031614610a6c5760405162461bcd60e51b815260206004820152600d60248201526c2737ba103a34329037bbb732b960991b604482015260640161061a565b6001600b5f868686818110610a8357610a836124c7565b9050602002013581526020019081526020015f206004015f6101000a81548160ff021916908315150217905550806001600160a01b0316848484818110610acc57610acc6124c7565b905060200201357fced437231aa98bcedae3308779b046af7bc82d93f3e58a096dc847c95b13af8060405160405180910390a350600101610914565b610b1181611726565b610b525760405162461bcd60e51b815260206004820152601260248201527113919508191bd95cc81b9bdd08195e1a5cdd60721b604482015260640161061a565b33610b5c82610841565b6001600160a01b031614610ba25760405162461bcd60e51b815260206004820152600d60248201526c2737ba103a34329037bbb732b960991b604482015260640161061a565b5f818152600b602052604090206004015460ff16610bf65760405162461bcd60e51b8152602060048201526011602482015270139195081b9bdd08185b1b1bd8d85d1959607a1b604482015260640161061a565b604051635b6804b560e01b81526001600160a01b037f000000000000000000000000000000000000000000000000000000000000000081166004830152602482018390525f917f000000000000000000000000000000000000000000000000000000000000000090911690635b6804b5906044016040805180830381865afa158015610c84573d5f5f3e3d5ffd5b505050506040513d601f19601f82011682018060405250810190610ca89190612507565b91505080610ced5760405162461bcd60e51b81526020600482015260126024820152714e4654206e6f742072657475726e61626c6560701b604482015260640161061a565b5f828152600b6020526040808220600401805460ff1916905551339184917f7eca0018813579d62e1aa0322810239e3618dc43bf46040d9405855e18896f5a9190a35050565b60606001805461053e9061248f565b6105f13383836117da565b5f610d56611878565b5f610d5f611332565b6040516370a0823160e01b815233600482015290915081906001600160a01b037f000000000000000000000000000000000000000000000000000000000000000016906370a0823190602401602060405180830381865afa158015610dc6573d5f5f3e3d5ffd5b505050506040513d601f19601f82011682018060405250810190610dea919061252b565b1015610e385760405162461bcd60e51b815260206004820152601860248201527f496e73756666696369656e74204d454d4520746f6b656e730000000000000000604482015260640161061a565b604051636eb1769f60e11b815233600482015230602482015281907f00000000000000000000000000000000000000000000000000000000000000006001600160a01b03169063dd62ed3e90604401602060405180830381865afa158015610ea2573d5f5f3e3d5ffd5b505050506040513d601f19601f82011682018060405250810190610ec6919061252b565b1015610f145760405162461bcd60e51b815260206004820152601c60248201527f496e73756666696369656e7420746f6b656e20616c6c6f77616e636500000000604482015260640161061a565b610f1e33826118a2565b600a8054905f610f2d836124ef565b9091555050600a54610f3f3382611a08565b610fd18160098054610f509061248f565b80601f0160208091040260200160405190810160405280929190818152602001828054610f7c9061248f565b8015610fc75780601f10610f9e57610100808354040283529160200191610fc7565b820191905f5260205f20905b815481529060010190602001808311610faa57829003601f168201915b5050505050611a21565b6040805160a08101825282815233602080830182815283850187815242606086019081525f60808701818152898252600b8652888220975188559351600180890180546001600160a01b0319166001600160a01b0390931692909217909155925160028801559051600387015591516004909501805460ff191695151595909517909455828152600c8252848120805494850181558152819020909201849055915184815283917f972b595ca48df89bdf5d8ed153814654b794988833678cd40cb375ff28bd87e4910160405180910390a39150506110b06001600855565b90565b6110be8484846105f5565b61067d3385858585611a69565b60606110d682611648565b505f82815260066020526040812080546110ef9061248f565b80601f016020809104026020016040519081016040528092919081815260200182805461111b9061248f565b80156111665780601f1061113d57610100808354040283529160200191611166565b820191905f5260205f20905b81548152906001019060200180831161114957829003601f168201915b505050505090505f61118260408051602081019091525f815290565b905080515f03611193575092915050565b8151156111c55780826040516020016111ad929190612559565b60405160208183030381529060405292505050919050565b6111ce84611b91565b949350505050565b6001600160a01b0381165f908152600c602090815260408083208054825181850281018501909352808352849383018282801561123057602002820191905f5260205f20905b81548152602001906001019080831161121c575b509394505f93505050505b815181101561127057611259828281518110610735576107356124c7565b15611268575060019392505050565b60010161123b565b505f9392505050565b6001600160a01b039182165f90815260056020908152604080832093909416825291909152205460ff1690565b600980546112b39061248f565b80601f01602080910402602001604051908101604052809291908181526020018280546112df9061248f565b801561132a5780601f106113015761010080835404028352916020019161132a565b820191905f5260205f20905b81548152906001019060200180831161130d57829003601f168201915b505050505081565b60405163060da6a160e31b81526001600160a01b037f0000000000000000000000000000000000000000000000000000000000000000811660048301525f9182917f0000000000000000000000000000000000000000000000000000000000000000169063306d350890602401602060405180830381865afa1580156113ba573d5f5f3e3d5ffd5b505050506040513d601f19601f820116820180604052508101906113de919061252b565b90505f68056bc75e2d631000006113f76127108461256d565b611401919061258c565b90506114178169010f0cf064dd592000006125a3565b9250505090565b61142661175c565b6001600160a01b03811661144f57604051631e4fbdf760e01b81525f600482015260240161061a565b61145881611789565b50565b6001600160a01b0382165f908152600c602090815260408083208054825181850281018501909352808352606094938301828280156114b757602002820191905f5260205f20905b8154815260200190600101908083116114a3575b509394505f935083925050505b82518110156115185784600b5f8584815181106114e3576114e36124c7565b602002602001015181526020019081526020015f20600301541015611510578161150c816124ef565b9250505b6001016114c4565b505f8167ffffffffffffffff8111156115335761153361236d565b60405190808252806020026020018201604052801561155c578160200160208202803683370190505b5090505f805b84518110156115ed5786600b5f878481518110611581576115816124c7565b602002602001015181526020019081526020015f206003015410156115e5578481815181106115b2576115b26124c7565b60200260200101518383806115c6906124ef565b9450815181106115d8576115d86124c7565b6020026020010181815250505b600101611562565b50909695505050505050565b5f6001600160e01b031982166380ac58cd60e01b148061162957506001600160e01b03198216635b5e139f60e01b145b8061052a57506301ffc9a760e01b6001600160e01b031983161461052a565b5f818152600260205260408120546001600160a01b03168061052a57604051637e27328960e01b81526004810184905260240161061a565b61083c8383836001611c02565b5f5f61169a858585611d06565b90506001600160a01b038116158015906116bc57506001600160a01b03851615155b156111ce575f848152600b6020526040902060010180546001600160a01b0319166001600160a01b0387161790556116f48185611df8565b6001600160a01b0385165f908152600c6020908152604082208054600181018255908352912001849055949350505050565b5f5f821180156117385750600a548211155b801561052a5750505f908152600260205260409020546001600160a01b0316151590565b6007546001600160a01b031633146108a15760405163118cdaa760e01b815233600482015260240161061a565b600780546001600160a01b038381166001600160a01b0319831681179093556040519116919082907f8be0079c531659141344cd1fd0a4f28419497f9722a3daafe3b4186f6b6457e0905f90a35050565b6001600160a01b03821661180c57604051630b61174360e31b81526001600160a01b038316600482015260240161061a565b6001600160a01b038381165f81815260056020908152604080832094871680845294825291829020805460ff191686151590811790915591519182527f17307eab39ab6107e8899845ad3d59bd9653f200f220920489ca2b5937696c31910160405180910390a3505050565b60026008540361189b57604051633ee5aeb560e01b815260040160405180910390fd5b6002600855565b60405163079cc67960e41b81526001600160a01b038381166004830152602482018390527f000000000000000000000000000000000000000000000000000000000000000016906379cc6790906044015f604051808303815f87803b158015611909575f5ffd5b505af115801561191b573d5f5f3e3d5ffd5b505060405163060da6a160e31b81526001600160a01b037f0000000000000000000000000000000000000000000000000000000000000000811660048301527f8bc81353cf6671d259d22783e39ed930583c86f3f4cf7e981298e6a872dfb15d93508492507f0000000000000000000000000000000000000000000000000000000000000000169063306d350890602401602060405180830381865afa1580156119c7573d5f5f3e3d5ffd5b505050506040513d601f19601f820116820180604052508101906119eb919061252b565b604080519283526020830191909152015b60405180910390a15050565b6105f1828260405180602001604052805f815250611eb2565b5f828152600660205260409020611a3882826125fa565b506040518281527ff8e1a15aba9398e019f0b49df1a4fde98ee17ae345cb5f6b5e2c27f5033e8ce7906020016119fc565b6001600160a01b0383163b15611b8a57604051630a85bd0160e11b81526001600160a01b0384169063150b7a0290611aab9088908890879087906004016126b5565b6020604051808303815f875af1925050508015611ae5575060408051601f3d908101601f19168201909252611ae2918101906126f1565b60015b611b4c573d808015611b12576040519150601f19603f3d011682016040523d82523d5f602084013e611b17565b606091505b5080515f03611b4457604051633250574960e11b81526001600160a01b038516600482015260240161061a565b805160208201fd5b6001600160e01b03198116630a85bd0160e11b14611b8857604051633250574960e11b81526001600160a01b038516600482015260240161061a565b505b5050505050565b6060611b9c82611648565b505f611bb260408051602081019091525f815290565b90505f815111611bd05760405180602001604052805f815250611bfb565b80611bda84611ec9565b604051602001611beb929190612559565b6040516020818303038152906040525b9392505050565b8080611c1657506001600160a01b03821615155b15611cd7575f611c2584611648565b90506001600160a01b03831615801590611c515750826001600160a01b0316816001600160a01b031614155b8015611c645750611c628184611279565b155b15611c8d5760405163a9fbf51f60e01b81526001600160a01b038416600482015260240161061a565b8115611cd55783856001600160a01b0316826001600160a01b03167f8c5be1e5ebec7d5bd14f71427d1e84f3dd0314c0f7b2291e5b200ac8c7c3b92560405160405180910390a45b505b50505f90815260046020526040902080546001600160a01b0319166001600160a01b0392909216919091179055565b5f828152600260205260408120546001600160a01b0390811690831615611d3257611d32818486611f59565b6001600160a01b03811615611d6c57611d4d5f855f5f611c02565b6001600160a01b0381165f90815260036020526040902080545f190190555b6001600160a01b03851615611d9a576001600160a01b0385165f908152600360205260409020805460010190555b5f8481526002602052604080822080546001600160a01b0319166001600160a01b0389811691821790925591518793918516917fddf252ad1be2c89b69c2b068fc378daa952ba7f163c4a11628f55a4df523b3ef91a4949350505050565b6001600160a01b0382165f908152600c60205260408120905b815481101561067d5782828281548110611e2d57611e2d6124c7565b905f5260205f20015403611eaa5781548290611e4b9060019061270c565b81548110611e5b57611e5b6124c7565b905f5260205f200154828281548110611e7657611e766124c7565b905f5260205f20018190555081805480611e9257611e9261271f565b600190038181905f5260205f20015f9055905561067d565b600101611e11565b611ebc8383611fbd565b61083c335f858585611a69565b60605f611ed58361201e565b60010190505f8167ffffffffffffffff811115611ef457611ef461236d565b6040519080825280601f01601f191660200182016040528015611f1e576020820181803683370190505b5090508181016020015b5f19016f181899199a1a9b1b9c1cb0b131b232b360811b600a86061a8153600a8504945084611f2857509392505050565b611f648383836120f5565b61083c576001600160a01b038316611f9257604051637e27328960e01b81526004810182905260240161061a565b60405163177e802f60e01b81526001600160a01b03831660048201526024810182905260440161061a565b6001600160a01b038216611fe657604051633250574960e11b81525f600482015260240161061a565b5f611ff283835f61168d565b90506001600160a01b0381161561083c576040516339e3563760e11b81525f600482015260240161061a565b5f8072184f03e93ff9f4daa797ed6e38ed64bf6a1f0160401b831061205c5772184f03e93ff9f4daa797ed6e38ed64bf6a1f0160401b830492506040015b6d04ee2d6d415b85acef81000000008310612088576d04ee2d6d415b85acef8100000000830492506020015b662386f26fc1000083106120a657662386f26fc10000830492506010015b6305f5e10083106120be576305f5e100830492506008015b61271083106120d257612710830492506004015b606483106120e4576064830492506002015b600a831061052a5760010192915050565b5f6001600160a01b038316158015906111ce5750826001600160a01b0316846001600160a01b0316148061212e575061212e8484611279565b806111ce5750505f908152600460205260409020546001600160a01b03908116911614919050565b6001600160e01b031981168114611458575f5ffd5b5f6020828403121561217b575f5ffd5b8135611bfb81612156565b5f81518084528060208401602086015e5f602082860101526020601f19601f83011685010191505092915050565b602081525f611bfb6020830184612186565b5f602082840312156121d6575f5ffd5b5035919050565b80356001600160a01b03811681146121f3575f5ffd5b919050565b5f5f60408385031215612209575f5ffd5b612212836121dd565b946020939093013593505050565b5f5f5f60608486031215612232575f5ffd5b61223b846121dd565b9250612249602085016121dd565b929592945050506040919091013590565b5f6020828403121561226a575f5ffd5b611bfb826121dd565b602080825282518282018190525f918401906040840190835b8181101561081757835183526020938401939092019160010161228c565b5f5f5f604084860312156122bc575f5ffd5b6122c5846121dd565b9250602084013567ffffffffffffffff8111156122e0575f5ffd5b8401601f810186136122f0575f5ffd5b803567ffffffffffffffff811115612306575f5ffd5b8660208260051b840101111561231a575f5ffd5b939660209190910195509293505050565b8015158114611458575f5ffd5b5f5f60408385031215612349575f5ffd5b612352836121dd565b915060208301356123628161232b565b809150509250929050565b634e487b7160e01b5f52604160045260245ffd5b5f5f5f5f60808587031215612394575f5ffd5b61239d856121dd565b93506123ab602086016121dd565b925060408501359150606085013567ffffffffffffffff8111156123cd575f5ffd5b8501601f810187136123dd575f5ffd5b803567ffffffffffffffff8111156123f7576123f761236d565b604051601f8201601f19908116603f0116810167ffffffffffffffff811182821017156124265761242661236d565b60405281815282820160200189101561243d575f5ffd5b816020840160208301375f6020838301015280935050505092959194509250565b5f5f6040838503121561246f575f5ffd5b612478836121dd565b9150612486602084016121dd565b90509250929050565b600181811c908216806124a357607f821691505b6020821081036124c157634e487b7160e01b5f52602260045260245ffd5b50919050565b634e487b7160e01b5f52603260045260245ffd5b634e487b7160e01b5f52601160045260245ffd5b5f60018201612500576125006124db565b5060010190565b5f5f60408385031215612518575f5ffd5b825160208401519092506123628161232b565b5f6020828403121561253b575f5ffd5b5051919050565b5f81518060208401855e5f93019283525090919050565b5f6111ce6125678386612542565b84612542565b5f8261258757634e487b7160e01b5f52601260045260245ffd5b500490565b808202811582820484141761052a5761052a6124db565b8082018082111561052a5761052a6124db565b601f82111561083c57805f5260205f20601f840160051c810160208510156125db5750805b601f840160051c820191505b81811015611b8a575f81556001016125e7565b815167ffffffffffffffff8111156126145761261461236d565b61262881612622845461248f565b846125b6565b6020601f82116001811461265a575f83156126435750848201515b5f19600385901b1c1916600184901b178455611b8a565b5f84815260208120601f198516915b828110156126895787850151825560209485019460019092019101612669565b50848210156126a657868401515f19600387901b60f8161c191681555b50505050600190811b01905550565b6001600160a01b03858116825284166020820152604081018390526080606082018190525f906126e790830184612186565b9695505050505050565b5f60208284031215612701575f5ffd5b8151611bfb81612156565b8181038181111561052a5761052a6124db565b634e487b7160e01b5f52603160045260245ffdfea264697066735822122070027efe999d25b4cc9ab3fe0ec3c2d63e135390ee549551d2f2a01fbd3f91f664736f6c634300081c0033",
  "linkReferences": {},
  "deployedLinkReferences": {},
  "immutableReferences": {
    "15118": [
      {
        "length": 32,
        "start": 1124
      },
      {
        "length": 32,
        "start": 4981
      },
      {
        "length": 32,
        "start": 6530
      }
    ],
    "15121": [
      {
        "length": 32,
        "start": 914
      },
      {
        "length": 32,
        "start": 2222
      },
      {
        "length": 32,
        "start": 3134
      }
    ],
    "15123": [
      {
        "length": 32,
        "start": 777
      },
      {
        "length": 32,
        "start": 3085
      },
      {
        "length": 32,
        "start": 3457
      },
      {
        "length": 32,
        "start": 3669
      },
      {
        "length": 32,
        "start": 4937
      },
      {
        "length": 32,
        "start": 6344
      },
      {
        "length": 32,
        "start": 6452
      }
    ]
  },
  "inputSourceName": "project/contracts/MemedWarriorNFT.sol",
  "buildInfoId": "solc-0_8_28-ed79a63f1ef27d8a6ba63d213214ff3fe3901237"
}